                                      1 ;--------------------------------------------------------
                                      2 ; File Created by SDCC : free open source ANSI-C Compiler
                                      3 ; Version 4.0.0 #11528 (MINGW64)
                                      4 ;--------------------------------------------------------
                                      5 	.module CH549_OLED
                                      6 	.optsdcc -mmcs51 --model-small
                                      7 	
                                      8 ;--------------------------------------------------------
                                      9 ; Public variables in this module
                                     10 ;--------------------------------------------------------
                                     11 	.globl _Hzk
                                     12 	.globl _fontMatrix_8x16
                                     13 	.globl _fontMatrix_6x8
                                     14 	.globl _BMP2
                                     15 	.globl _BMP1
                                     16 	.globl _CH549SPIMasterWrite
                                     17 	.globl _UIF_BUS_RST
                                     18 	.globl _UIF_DETECT
                                     19 	.globl _UIF_TRANSFER
                                     20 	.globl _UIF_SUSPEND
                                     21 	.globl _UIF_HST_SOF
                                     22 	.globl _UIF_FIFO_OV
                                     23 	.globl _U_SIE_FREE
                                     24 	.globl _U_TOG_OK
                                     25 	.globl _U_IS_NAK
                                     26 	.globl _S0_R_FIFO
                                     27 	.globl _S0_T_FIFO
                                     28 	.globl _S0_FREE
                                     29 	.globl _S0_IF_BYTE
                                     30 	.globl _S0_IF_FIRST
                                     31 	.globl _S0_IF_OV
                                     32 	.globl _S0_FST_ACT
                                     33 	.globl _CP_RL2
                                     34 	.globl _C_T2
                                     35 	.globl _TR2
                                     36 	.globl _EXEN2
                                     37 	.globl _TCLK
                                     38 	.globl _RCLK
                                     39 	.globl _EXF2
                                     40 	.globl _CAP1F
                                     41 	.globl _TF2
                                     42 	.globl _RI
                                     43 	.globl _TI
                                     44 	.globl _RB8
                                     45 	.globl _TB8
                                     46 	.globl _REN
                                     47 	.globl _SM2
                                     48 	.globl _SM1
                                     49 	.globl _SM0
                                     50 	.globl _IT0
                                     51 	.globl _IE0
                                     52 	.globl _IT1
                                     53 	.globl _IE1
                                     54 	.globl _TR0
                                     55 	.globl _TF0
                                     56 	.globl _TR1
                                     57 	.globl _TF1
                                     58 	.globl _XI
                                     59 	.globl _XO
                                     60 	.globl _P4_0
                                     61 	.globl _P4_1
                                     62 	.globl _P4_2
                                     63 	.globl _P4_3
                                     64 	.globl _P4_4
                                     65 	.globl _P4_5
                                     66 	.globl _P4_6
                                     67 	.globl _RXD
                                     68 	.globl _TXD
                                     69 	.globl _INT0
                                     70 	.globl _INT1
                                     71 	.globl _T0
                                     72 	.globl _T1
                                     73 	.globl _CAP0
                                     74 	.globl _INT3
                                     75 	.globl _P3_0
                                     76 	.globl _P3_1
                                     77 	.globl _P3_2
                                     78 	.globl _P3_3
                                     79 	.globl _P3_4
                                     80 	.globl _P3_5
                                     81 	.globl _P3_6
                                     82 	.globl _P3_7
                                     83 	.globl _PWM5
                                     84 	.globl _PWM4
                                     85 	.globl _INT0_
                                     86 	.globl _PWM3
                                     87 	.globl _PWM2
                                     88 	.globl _CAP1_
                                     89 	.globl _T2_
                                     90 	.globl _PWM1
                                     91 	.globl _CAP2_
                                     92 	.globl _T2EX_
                                     93 	.globl _PWM0
                                     94 	.globl _RXD1
                                     95 	.globl _PWM6
                                     96 	.globl _TXD1
                                     97 	.globl _PWM7
                                     98 	.globl _P2_0
                                     99 	.globl _P2_1
                                    100 	.globl _P2_2
                                    101 	.globl _P2_3
                                    102 	.globl _P2_4
                                    103 	.globl _P2_5
                                    104 	.globl _P2_6
                                    105 	.globl _P2_7
                                    106 	.globl _AIN0
                                    107 	.globl _CAP1
                                    108 	.globl _T2
                                    109 	.globl _AIN1
                                    110 	.globl _CAP2
                                    111 	.globl _T2EX
                                    112 	.globl _AIN2
                                    113 	.globl _AIN3
                                    114 	.globl _AIN4
                                    115 	.globl _UCC1
                                    116 	.globl _SCS
                                    117 	.globl _AIN5
                                    118 	.globl _UCC2
                                    119 	.globl _PWM0_
                                    120 	.globl _MOSI
                                    121 	.globl _AIN6
                                    122 	.globl _VBUS
                                    123 	.globl _RXD1_
                                    124 	.globl _MISO
                                    125 	.globl _AIN7
                                    126 	.globl _TXD1_
                                    127 	.globl _SCK
                                    128 	.globl _P1_0
                                    129 	.globl _P1_1
                                    130 	.globl _P1_2
                                    131 	.globl _P1_3
                                    132 	.globl _P1_4
                                    133 	.globl _P1_5
                                    134 	.globl _P1_6
                                    135 	.globl _P1_7
                                    136 	.globl _AIN8
                                    137 	.globl _AIN9
                                    138 	.globl _AIN10
                                    139 	.globl _RXD_
                                    140 	.globl _AIN11
                                    141 	.globl _TXD_
                                    142 	.globl _AIN12
                                    143 	.globl _RXD2
                                    144 	.globl _AIN13
                                    145 	.globl _TXD2
                                    146 	.globl _AIN14
                                    147 	.globl _RXD3
                                    148 	.globl _AIN15
                                    149 	.globl _TXD3
                                    150 	.globl _P0_0
                                    151 	.globl _P0_1
                                    152 	.globl _P0_2
                                    153 	.globl _P0_3
                                    154 	.globl _P0_4
                                    155 	.globl _P0_5
                                    156 	.globl _P0_6
                                    157 	.globl _P0_7
                                    158 	.globl _IE_SPI0
                                    159 	.globl _IE_INT3
                                    160 	.globl _IE_USB
                                    161 	.globl _IE_UART2
                                    162 	.globl _IE_ADC
                                    163 	.globl _IE_UART1
                                    164 	.globl _IE_UART3
                                    165 	.globl _IE_PWMX
                                    166 	.globl _IE_GPIO
                                    167 	.globl _IE_WDOG
                                    168 	.globl _PX0
                                    169 	.globl _PT0
                                    170 	.globl _PX1
                                    171 	.globl _PT1
                                    172 	.globl _PS
                                    173 	.globl _PT2
                                    174 	.globl _PL_FLAG
                                    175 	.globl _PH_FLAG
                                    176 	.globl _EX0
                                    177 	.globl _ET0
                                    178 	.globl _EX1
                                    179 	.globl _ET1
                                    180 	.globl _ES
                                    181 	.globl _ET2
                                    182 	.globl _E_DIS
                                    183 	.globl _EA
                                    184 	.globl _P
                                    185 	.globl _F1
                                    186 	.globl _OV
                                    187 	.globl _RS0
                                    188 	.globl _RS1
                                    189 	.globl _F0
                                    190 	.globl _AC
                                    191 	.globl _CY
                                    192 	.globl _UEP1_DMA_H
                                    193 	.globl _UEP1_DMA_L
                                    194 	.globl _UEP1_DMA
                                    195 	.globl _UEP0_DMA_H
                                    196 	.globl _UEP0_DMA_L
                                    197 	.globl _UEP0_DMA
                                    198 	.globl _UEP2_3_MOD
                                    199 	.globl _UEP4_1_MOD
                                    200 	.globl _UEP3_DMA_H
                                    201 	.globl _UEP3_DMA_L
                                    202 	.globl _UEP3_DMA
                                    203 	.globl _UEP2_DMA_H
                                    204 	.globl _UEP2_DMA_L
                                    205 	.globl _UEP2_DMA
                                    206 	.globl _USB_DEV_AD
                                    207 	.globl _USB_CTRL
                                    208 	.globl _USB_INT_EN
                                    209 	.globl _UEP4_T_LEN
                                    210 	.globl _UEP4_CTRL
                                    211 	.globl _UEP0_T_LEN
                                    212 	.globl _UEP0_CTRL
                                    213 	.globl _USB_RX_LEN
                                    214 	.globl _USB_MIS_ST
                                    215 	.globl _USB_INT_ST
                                    216 	.globl _USB_INT_FG
                                    217 	.globl _UEP3_T_LEN
                                    218 	.globl _UEP3_CTRL
                                    219 	.globl _UEP2_T_LEN
                                    220 	.globl _UEP2_CTRL
                                    221 	.globl _UEP1_T_LEN
                                    222 	.globl _UEP1_CTRL
                                    223 	.globl _UDEV_CTRL
                                    224 	.globl _USB_C_CTRL
                                    225 	.globl _ADC_PIN
                                    226 	.globl _ADC_CHAN
                                    227 	.globl _ADC_DAT_H
                                    228 	.globl _ADC_DAT_L
                                    229 	.globl _ADC_DAT
                                    230 	.globl _ADC_CFG
                                    231 	.globl _ADC_CTRL
                                    232 	.globl _TKEY_CTRL
                                    233 	.globl _SIF3
                                    234 	.globl _SBAUD3
                                    235 	.globl _SBUF3
                                    236 	.globl _SCON3
                                    237 	.globl _SIF2
                                    238 	.globl _SBAUD2
                                    239 	.globl _SBUF2
                                    240 	.globl _SCON2
                                    241 	.globl _SIF1
                                    242 	.globl _SBAUD1
                                    243 	.globl _SBUF1
                                    244 	.globl _SCON1
                                    245 	.globl _SPI0_SETUP
                                    246 	.globl _SPI0_CK_SE
                                    247 	.globl _SPI0_CTRL
                                    248 	.globl _SPI0_DATA
                                    249 	.globl _SPI0_STAT
                                    250 	.globl _PWM_DATA7
                                    251 	.globl _PWM_DATA6
                                    252 	.globl _PWM_DATA5
                                    253 	.globl _PWM_DATA4
                                    254 	.globl _PWM_DATA3
                                    255 	.globl _PWM_CTRL2
                                    256 	.globl _PWM_CK_SE
                                    257 	.globl _PWM_CTRL
                                    258 	.globl _PWM_DATA0
                                    259 	.globl _PWM_DATA1
                                    260 	.globl _PWM_DATA2
                                    261 	.globl _T2CAP1H
                                    262 	.globl _T2CAP1L
                                    263 	.globl _T2CAP1
                                    264 	.globl _TH2
                                    265 	.globl _TL2
                                    266 	.globl _T2COUNT
                                    267 	.globl _RCAP2H
                                    268 	.globl _RCAP2L
                                    269 	.globl _RCAP2
                                    270 	.globl _T2MOD
                                    271 	.globl _T2CON
                                    272 	.globl _T2CAP0H
                                    273 	.globl _T2CAP0L
                                    274 	.globl _T2CAP0
                                    275 	.globl _T2CON2
                                    276 	.globl _SBUF
                                    277 	.globl _SCON
                                    278 	.globl _TH1
                                    279 	.globl _TH0
                                    280 	.globl _TL1
                                    281 	.globl _TL0
                                    282 	.globl _TMOD
                                    283 	.globl _TCON
                                    284 	.globl _XBUS_AUX
                                    285 	.globl _PIN_FUNC
                                    286 	.globl _P5
                                    287 	.globl _P4_DIR_PU
                                    288 	.globl _P4_MOD_OC
                                    289 	.globl _P4
                                    290 	.globl _P3_DIR_PU
                                    291 	.globl _P3_MOD_OC
                                    292 	.globl _P3
                                    293 	.globl _P2_DIR_PU
                                    294 	.globl _P2_MOD_OC
                                    295 	.globl _P2
                                    296 	.globl _P1_DIR_PU
                                    297 	.globl _P1_MOD_OC
                                    298 	.globl _P1
                                    299 	.globl _P0_DIR_PU
                                    300 	.globl _P0_MOD_OC
                                    301 	.globl _P0
                                    302 	.globl _ROM_CTRL
                                    303 	.globl _ROM_DATA_HH
                                    304 	.globl _ROM_DATA_HL
                                    305 	.globl _ROM_DATA_HI
                                    306 	.globl _ROM_ADDR_H
                                    307 	.globl _ROM_ADDR_L
                                    308 	.globl _ROM_ADDR
                                    309 	.globl _GPIO_IE
                                    310 	.globl _INTX
                                    311 	.globl _IP_EX
                                    312 	.globl _IE_EX
                                    313 	.globl _IP
                                    314 	.globl _IE
                                    315 	.globl _WDOG_COUNT
                                    316 	.globl _RESET_KEEP
                                    317 	.globl _WAKE_CTRL
                                    318 	.globl _CLOCK_CFG
                                    319 	.globl _POWER_CFG
                                    320 	.globl _PCON
                                    321 	.globl _GLOBAL_CFG
                                    322 	.globl _SAFE_MOD
                                    323 	.globl _DPH
                                    324 	.globl _DPL
                                    325 	.globl _SP
                                    326 	.globl _A_INV
                                    327 	.globl _B
                                    328 	.globl _ACC
                                    329 	.globl _PSW
                                    330 	.globl _OLED_DrawBMP_PARM_5
                                    331 	.globl _OLED_DrawBMP_PARM_4
                                    332 	.globl _OLED_DrawBMP_PARM_3
                                    333 	.globl _OLED_DrawBMP_PARM_2
                                    334 	.globl _OLED_ShowCHinese_PARM_3
                                    335 	.globl _OLED_ShowCHinese_PARM_2
                                    336 	.globl _OLED_ShowString_PARM_3
                                    337 	.globl _OLED_ShowString_PARM_2
                                    338 	.globl _OLED_ShowChar_PARM_3
                                    339 	.globl _OLED_ShowChar_PARM_2
                                    340 	.globl _OLED_Set_Pos_PARM_2
                                    341 	.globl _load_commandList_PARM_2
                                    342 	.globl _OLED_WR_Byte_PARM_2
                                    343 	.globl _fontSize
                                    344 	.globl _setFontSize
                                    345 	.globl _delay_ms
                                    346 	.globl _OLED_WR_Byte
                                    347 	.globl _load_one_command
                                    348 	.globl _load_commandList
                                    349 	.globl _OLED_Init
                                    350 	.globl _OLED_Display_On
                                    351 	.globl _OLED_Display_Off
                                    352 	.globl _OLED_Clear
                                    353 	.globl _OLED_Set_Pos
                                    354 	.globl _OLED_ShowChar
                                    355 	.globl _OLED_ShowString
                                    356 	.globl _OLED_ShowCHinese
                                    357 	.globl _OLED_DrawBMP
                                    358 ;--------------------------------------------------------
                                    359 ; special function registers
                                    360 ;--------------------------------------------------------
                                    361 	.area RSEG    (ABS,DATA)
      000000                        362 	.org 0x0000
                           0000D0   363 _PSW	=	0x00d0
                           0000E0   364 _ACC	=	0x00e0
                           0000F0   365 _B	=	0x00f0
                           0000FD   366 _A_INV	=	0x00fd
                           000081   367 _SP	=	0x0081
                           000082   368 _DPL	=	0x0082
                           000083   369 _DPH	=	0x0083
                           0000A1   370 _SAFE_MOD	=	0x00a1
                           0000B1   371 _GLOBAL_CFG	=	0x00b1
                           000087   372 _PCON	=	0x0087
                           0000BA   373 _POWER_CFG	=	0x00ba
                           0000B9   374 _CLOCK_CFG	=	0x00b9
                           0000A9   375 _WAKE_CTRL	=	0x00a9
                           0000FE   376 _RESET_KEEP	=	0x00fe
                           0000FF   377 _WDOG_COUNT	=	0x00ff
                           0000A8   378 _IE	=	0x00a8
                           0000B8   379 _IP	=	0x00b8
                           0000E8   380 _IE_EX	=	0x00e8
                           0000E9   381 _IP_EX	=	0x00e9
                           0000B3   382 _INTX	=	0x00b3
                           0000B2   383 _GPIO_IE	=	0x00b2
                           008584   384 _ROM_ADDR	=	0x8584
                           000084   385 _ROM_ADDR_L	=	0x0084
                           000085   386 _ROM_ADDR_H	=	0x0085
                           008F8E   387 _ROM_DATA_HI	=	0x8f8e
                           00008E   388 _ROM_DATA_HL	=	0x008e
                           00008F   389 _ROM_DATA_HH	=	0x008f
                           000086   390 _ROM_CTRL	=	0x0086
                           000080   391 _P0	=	0x0080
                           0000C4   392 _P0_MOD_OC	=	0x00c4
                           0000C5   393 _P0_DIR_PU	=	0x00c5
                           000090   394 _P1	=	0x0090
                           000092   395 _P1_MOD_OC	=	0x0092
                           000093   396 _P1_DIR_PU	=	0x0093
                           0000A0   397 _P2	=	0x00a0
                           000094   398 _P2_MOD_OC	=	0x0094
                           000095   399 _P2_DIR_PU	=	0x0095
                           0000B0   400 _P3	=	0x00b0
                           000096   401 _P3_MOD_OC	=	0x0096
                           000097   402 _P3_DIR_PU	=	0x0097
                           0000C0   403 _P4	=	0x00c0
                           0000C2   404 _P4_MOD_OC	=	0x00c2
                           0000C3   405 _P4_DIR_PU	=	0x00c3
                           0000AB   406 _P5	=	0x00ab
                           0000AA   407 _PIN_FUNC	=	0x00aa
                           0000A2   408 _XBUS_AUX	=	0x00a2
                           000088   409 _TCON	=	0x0088
                           000089   410 _TMOD	=	0x0089
                           00008A   411 _TL0	=	0x008a
                           00008B   412 _TL1	=	0x008b
                           00008C   413 _TH0	=	0x008c
                           00008D   414 _TH1	=	0x008d
                           000098   415 _SCON	=	0x0098
                           000099   416 _SBUF	=	0x0099
                           0000C1   417 _T2CON2	=	0x00c1
                           00C7C6   418 _T2CAP0	=	0xc7c6
                           0000C6   419 _T2CAP0L	=	0x00c6
                           0000C7   420 _T2CAP0H	=	0x00c7
                           0000C8   421 _T2CON	=	0x00c8
                           0000C9   422 _T2MOD	=	0x00c9
                           00CBCA   423 _RCAP2	=	0xcbca
                           0000CA   424 _RCAP2L	=	0x00ca
                           0000CB   425 _RCAP2H	=	0x00cb
                           00CDCC   426 _T2COUNT	=	0xcdcc
                           0000CC   427 _TL2	=	0x00cc
                           0000CD   428 _TH2	=	0x00cd
                           00CFCE   429 _T2CAP1	=	0xcfce
                           0000CE   430 _T2CAP1L	=	0x00ce
                           0000CF   431 _T2CAP1H	=	0x00cf
                           00009A   432 _PWM_DATA2	=	0x009a
                           00009B   433 _PWM_DATA1	=	0x009b
                           00009C   434 _PWM_DATA0	=	0x009c
                           00009D   435 _PWM_CTRL	=	0x009d
                           00009E   436 _PWM_CK_SE	=	0x009e
                           00009F   437 _PWM_CTRL2	=	0x009f
                           0000A3   438 _PWM_DATA3	=	0x00a3
                           0000A4   439 _PWM_DATA4	=	0x00a4
                           0000A5   440 _PWM_DATA5	=	0x00a5
                           0000A6   441 _PWM_DATA6	=	0x00a6
                           0000A7   442 _PWM_DATA7	=	0x00a7
                           0000F8   443 _SPI0_STAT	=	0x00f8
                           0000F9   444 _SPI0_DATA	=	0x00f9
                           0000FA   445 _SPI0_CTRL	=	0x00fa
                           0000FB   446 _SPI0_CK_SE	=	0x00fb
                           0000FC   447 _SPI0_SETUP	=	0x00fc
                           0000BC   448 _SCON1	=	0x00bc
                           0000BD   449 _SBUF1	=	0x00bd
                           0000BE   450 _SBAUD1	=	0x00be
                           0000BF   451 _SIF1	=	0x00bf
                           0000B4   452 _SCON2	=	0x00b4
                           0000B5   453 _SBUF2	=	0x00b5
                           0000B6   454 _SBAUD2	=	0x00b6
                           0000B7   455 _SIF2	=	0x00b7
                           0000AC   456 _SCON3	=	0x00ac
                           0000AD   457 _SBUF3	=	0x00ad
                           0000AE   458 _SBAUD3	=	0x00ae
                           0000AF   459 _SIF3	=	0x00af
                           0000F1   460 _TKEY_CTRL	=	0x00f1
                           0000F2   461 _ADC_CTRL	=	0x00f2
                           0000F3   462 _ADC_CFG	=	0x00f3
                           00F5F4   463 _ADC_DAT	=	0xf5f4
                           0000F4   464 _ADC_DAT_L	=	0x00f4
                           0000F5   465 _ADC_DAT_H	=	0x00f5
                           0000F6   466 _ADC_CHAN	=	0x00f6
                           0000F7   467 _ADC_PIN	=	0x00f7
                           000091   468 _USB_C_CTRL	=	0x0091
                           0000D1   469 _UDEV_CTRL	=	0x00d1
                           0000D2   470 _UEP1_CTRL	=	0x00d2
                           0000D3   471 _UEP1_T_LEN	=	0x00d3
                           0000D4   472 _UEP2_CTRL	=	0x00d4
                           0000D5   473 _UEP2_T_LEN	=	0x00d5
                           0000D6   474 _UEP3_CTRL	=	0x00d6
                           0000D7   475 _UEP3_T_LEN	=	0x00d7
                           0000D8   476 _USB_INT_FG	=	0x00d8
                           0000D9   477 _USB_INT_ST	=	0x00d9
                           0000DA   478 _USB_MIS_ST	=	0x00da
                           0000DB   479 _USB_RX_LEN	=	0x00db
                           0000DC   480 _UEP0_CTRL	=	0x00dc
                           0000DD   481 _UEP0_T_LEN	=	0x00dd
                           0000DE   482 _UEP4_CTRL	=	0x00de
                           0000DF   483 _UEP4_T_LEN	=	0x00df
                           0000E1   484 _USB_INT_EN	=	0x00e1
                           0000E2   485 _USB_CTRL	=	0x00e2
                           0000E3   486 _USB_DEV_AD	=	0x00e3
                           00E5E4   487 _UEP2_DMA	=	0xe5e4
                           0000E4   488 _UEP2_DMA_L	=	0x00e4
                           0000E5   489 _UEP2_DMA_H	=	0x00e5
                           00E7E6   490 _UEP3_DMA	=	0xe7e6
                           0000E6   491 _UEP3_DMA_L	=	0x00e6
                           0000E7   492 _UEP3_DMA_H	=	0x00e7
                           0000EA   493 _UEP4_1_MOD	=	0x00ea
                           0000EB   494 _UEP2_3_MOD	=	0x00eb
                           00EDEC   495 _UEP0_DMA	=	0xedec
                           0000EC   496 _UEP0_DMA_L	=	0x00ec
                           0000ED   497 _UEP0_DMA_H	=	0x00ed
                           00EFEE   498 _UEP1_DMA	=	0xefee
                           0000EE   499 _UEP1_DMA_L	=	0x00ee
                           0000EF   500 _UEP1_DMA_H	=	0x00ef
                                    501 ;--------------------------------------------------------
                                    502 ; special function bits
                                    503 ;--------------------------------------------------------
                                    504 	.area RSEG    (ABS,DATA)
      000000                        505 	.org 0x0000
                           0000D7   506 _CY	=	0x00d7
                           0000D6   507 _AC	=	0x00d6
                           0000D5   508 _F0	=	0x00d5
                           0000D4   509 _RS1	=	0x00d4
                           0000D3   510 _RS0	=	0x00d3
                           0000D2   511 _OV	=	0x00d2
                           0000D1   512 _F1	=	0x00d1
                           0000D0   513 _P	=	0x00d0
                           0000AF   514 _EA	=	0x00af
                           0000AE   515 _E_DIS	=	0x00ae
                           0000AD   516 _ET2	=	0x00ad
                           0000AC   517 _ES	=	0x00ac
                           0000AB   518 _ET1	=	0x00ab
                           0000AA   519 _EX1	=	0x00aa
                           0000A9   520 _ET0	=	0x00a9
                           0000A8   521 _EX0	=	0x00a8
                           0000BF   522 _PH_FLAG	=	0x00bf
                           0000BE   523 _PL_FLAG	=	0x00be
                           0000BD   524 _PT2	=	0x00bd
                           0000BC   525 _PS	=	0x00bc
                           0000BB   526 _PT1	=	0x00bb
                           0000BA   527 _PX1	=	0x00ba
                           0000B9   528 _PT0	=	0x00b9
                           0000B8   529 _PX0	=	0x00b8
                           0000EF   530 _IE_WDOG	=	0x00ef
                           0000EE   531 _IE_GPIO	=	0x00ee
                           0000ED   532 _IE_PWMX	=	0x00ed
                           0000ED   533 _IE_UART3	=	0x00ed
                           0000EC   534 _IE_UART1	=	0x00ec
                           0000EB   535 _IE_ADC	=	0x00eb
                           0000EB   536 _IE_UART2	=	0x00eb
                           0000EA   537 _IE_USB	=	0x00ea
                           0000E9   538 _IE_INT3	=	0x00e9
                           0000E8   539 _IE_SPI0	=	0x00e8
                           000087   540 _P0_7	=	0x0087
                           000086   541 _P0_6	=	0x0086
                           000085   542 _P0_5	=	0x0085
                           000084   543 _P0_4	=	0x0084
                           000083   544 _P0_3	=	0x0083
                           000082   545 _P0_2	=	0x0082
                           000081   546 _P0_1	=	0x0081
                           000080   547 _P0_0	=	0x0080
                           000087   548 _TXD3	=	0x0087
                           000087   549 _AIN15	=	0x0087
                           000086   550 _RXD3	=	0x0086
                           000086   551 _AIN14	=	0x0086
                           000085   552 _TXD2	=	0x0085
                           000085   553 _AIN13	=	0x0085
                           000084   554 _RXD2	=	0x0084
                           000084   555 _AIN12	=	0x0084
                           000083   556 _TXD_	=	0x0083
                           000083   557 _AIN11	=	0x0083
                           000082   558 _RXD_	=	0x0082
                           000082   559 _AIN10	=	0x0082
                           000081   560 _AIN9	=	0x0081
                           000080   561 _AIN8	=	0x0080
                           000097   562 _P1_7	=	0x0097
                           000096   563 _P1_6	=	0x0096
                           000095   564 _P1_5	=	0x0095
                           000094   565 _P1_4	=	0x0094
                           000093   566 _P1_3	=	0x0093
                           000092   567 _P1_2	=	0x0092
                           000091   568 _P1_1	=	0x0091
                           000090   569 _P1_0	=	0x0090
                           000097   570 _SCK	=	0x0097
                           000097   571 _TXD1_	=	0x0097
                           000097   572 _AIN7	=	0x0097
                           000096   573 _MISO	=	0x0096
                           000096   574 _RXD1_	=	0x0096
                           000096   575 _VBUS	=	0x0096
                           000096   576 _AIN6	=	0x0096
                           000095   577 _MOSI	=	0x0095
                           000095   578 _PWM0_	=	0x0095
                           000095   579 _UCC2	=	0x0095
                           000095   580 _AIN5	=	0x0095
                           000094   581 _SCS	=	0x0094
                           000094   582 _UCC1	=	0x0094
                           000094   583 _AIN4	=	0x0094
                           000093   584 _AIN3	=	0x0093
                           000092   585 _AIN2	=	0x0092
                           000091   586 _T2EX	=	0x0091
                           000091   587 _CAP2	=	0x0091
                           000091   588 _AIN1	=	0x0091
                           000090   589 _T2	=	0x0090
                           000090   590 _CAP1	=	0x0090
                           000090   591 _AIN0	=	0x0090
                           0000A7   592 _P2_7	=	0x00a7
                           0000A6   593 _P2_6	=	0x00a6
                           0000A5   594 _P2_5	=	0x00a5
                           0000A4   595 _P2_4	=	0x00a4
                           0000A3   596 _P2_3	=	0x00a3
                           0000A2   597 _P2_2	=	0x00a2
                           0000A1   598 _P2_1	=	0x00a1
                           0000A0   599 _P2_0	=	0x00a0
                           0000A7   600 _PWM7	=	0x00a7
                           0000A7   601 _TXD1	=	0x00a7
                           0000A6   602 _PWM6	=	0x00a6
                           0000A6   603 _RXD1	=	0x00a6
                           0000A5   604 _PWM0	=	0x00a5
                           0000A5   605 _T2EX_	=	0x00a5
                           0000A5   606 _CAP2_	=	0x00a5
                           0000A4   607 _PWM1	=	0x00a4
                           0000A4   608 _T2_	=	0x00a4
                           0000A4   609 _CAP1_	=	0x00a4
                           0000A3   610 _PWM2	=	0x00a3
                           0000A2   611 _PWM3	=	0x00a2
                           0000A2   612 _INT0_	=	0x00a2
                           0000A1   613 _PWM4	=	0x00a1
                           0000A0   614 _PWM5	=	0x00a0
                           0000B7   615 _P3_7	=	0x00b7
                           0000B6   616 _P3_6	=	0x00b6
                           0000B5   617 _P3_5	=	0x00b5
                           0000B4   618 _P3_4	=	0x00b4
                           0000B3   619 _P3_3	=	0x00b3
                           0000B2   620 _P3_2	=	0x00b2
                           0000B1   621 _P3_1	=	0x00b1
                           0000B0   622 _P3_0	=	0x00b0
                           0000B7   623 _INT3	=	0x00b7
                           0000B6   624 _CAP0	=	0x00b6
                           0000B5   625 _T1	=	0x00b5
                           0000B4   626 _T0	=	0x00b4
                           0000B3   627 _INT1	=	0x00b3
                           0000B2   628 _INT0	=	0x00b2
                           0000B1   629 _TXD	=	0x00b1
                           0000B0   630 _RXD	=	0x00b0
                           0000C6   631 _P4_6	=	0x00c6
                           0000C5   632 _P4_5	=	0x00c5
                           0000C4   633 _P4_4	=	0x00c4
                           0000C3   634 _P4_3	=	0x00c3
                           0000C2   635 _P4_2	=	0x00c2
                           0000C1   636 _P4_1	=	0x00c1
                           0000C0   637 _P4_0	=	0x00c0
                           0000C7   638 _XO	=	0x00c7
                           0000C6   639 _XI	=	0x00c6
                           00008F   640 _TF1	=	0x008f
                           00008E   641 _TR1	=	0x008e
                           00008D   642 _TF0	=	0x008d
                           00008C   643 _TR0	=	0x008c
                           00008B   644 _IE1	=	0x008b
                           00008A   645 _IT1	=	0x008a
                           000089   646 _IE0	=	0x0089
                           000088   647 _IT0	=	0x0088
                           00009F   648 _SM0	=	0x009f
                           00009E   649 _SM1	=	0x009e
                           00009D   650 _SM2	=	0x009d
                           00009C   651 _REN	=	0x009c
                           00009B   652 _TB8	=	0x009b
                           00009A   653 _RB8	=	0x009a
                           000099   654 _TI	=	0x0099
                           000098   655 _RI	=	0x0098
                           0000CF   656 _TF2	=	0x00cf
                           0000CF   657 _CAP1F	=	0x00cf
                           0000CE   658 _EXF2	=	0x00ce
                           0000CD   659 _RCLK	=	0x00cd
                           0000CC   660 _TCLK	=	0x00cc
                           0000CB   661 _EXEN2	=	0x00cb
                           0000CA   662 _TR2	=	0x00ca
                           0000C9   663 _C_T2	=	0x00c9
                           0000C8   664 _CP_RL2	=	0x00c8
                           0000FF   665 _S0_FST_ACT	=	0x00ff
                           0000FE   666 _S0_IF_OV	=	0x00fe
                           0000FD   667 _S0_IF_FIRST	=	0x00fd
                           0000FC   668 _S0_IF_BYTE	=	0x00fc
                           0000FB   669 _S0_FREE	=	0x00fb
                           0000FA   670 _S0_T_FIFO	=	0x00fa
                           0000F8   671 _S0_R_FIFO	=	0x00f8
                           0000DF   672 _U_IS_NAK	=	0x00df
                           0000DE   673 _U_TOG_OK	=	0x00de
                           0000DD   674 _U_SIE_FREE	=	0x00dd
                           0000DC   675 _UIF_FIFO_OV	=	0x00dc
                           0000DB   676 _UIF_HST_SOF	=	0x00db
                           0000DA   677 _UIF_SUSPEND	=	0x00da
                           0000D9   678 _UIF_TRANSFER	=	0x00d9
                           0000D8   679 _UIF_DETECT	=	0x00d8
                           0000D8   680 _UIF_BUS_RST	=	0x00d8
                                    681 ;--------------------------------------------------------
                                    682 ; overlayable register banks
                                    683 ;--------------------------------------------------------
                                    684 	.area REG_BANK_0	(REL,OVR,DATA)
      000000                        685 	.ds 8
                                    686 ;--------------------------------------------------------
                                    687 ; internal ram data
                                    688 ;--------------------------------------------------------
                                    689 	.area DSEG    (DATA)
      000021                        690 _fontSize::
      000021                        691 	.ds 1
      000022                        692 _OLED_WR_Byte_PARM_2:
      000022                        693 	.ds 1
      000023                        694 _load_commandList_PARM_2:
      000023                        695 	.ds 1
      000024                        696 _OLED_Set_Pos_PARM_2:
      000024                        697 	.ds 1
      000025                        698 _OLED_ShowChar_PARM_2:
      000025                        699 	.ds 1
      000026                        700 _OLED_ShowChar_PARM_3:
      000026                        701 	.ds 1
      000027                        702 _OLED_ShowString_PARM_2:
      000027                        703 	.ds 1
      000028                        704 _OLED_ShowString_PARM_3:
      000028                        705 	.ds 3
      00002B                        706 _OLED_ShowCHinese_PARM_2:
      00002B                        707 	.ds 1
      00002C                        708 _OLED_ShowCHinese_PARM_3:
      00002C                        709 	.ds 1
      00002D                        710 _OLED_DrawBMP_PARM_2:
      00002D                        711 	.ds 1
      00002E                        712 _OLED_DrawBMP_PARM_3:
      00002E                        713 	.ds 1
      00002F                        714 _OLED_DrawBMP_PARM_4:
      00002F                        715 	.ds 1
      000030                        716 _OLED_DrawBMP_PARM_5:
      000030                        717 	.ds 3
      000033                        718 _OLED_DrawBMP_x0_65536_103:
      000033                        719 	.ds 1
      000034                        720 _OLED_DrawBMP_x_65536_104:
      000034                        721 	.ds 1
                                    722 ;--------------------------------------------------------
                                    723 ; overlayable items in internal ram 
                                    724 ;--------------------------------------------------------
                                    725 	.area	OSEG    (OVR,DATA)
                                    726 	.area	OSEG    (OVR,DATA)
                                    727 ;--------------------------------------------------------
                                    728 ; indirectly addressable internal ram data
                                    729 ;--------------------------------------------------------
                                    730 	.area ISEG    (DATA)
                                    731 ;--------------------------------------------------------
                                    732 ; absolute internal ram data
                                    733 ;--------------------------------------------------------
                                    734 	.area IABS    (ABS,DATA)
                                    735 	.area IABS    (ABS,DATA)
                                    736 ;--------------------------------------------------------
                                    737 ; bit data
                                    738 ;--------------------------------------------------------
                                    739 	.area BSEG    (BIT)
                                    740 ;--------------------------------------------------------
                                    741 ; paged external ram data
                                    742 ;--------------------------------------------------------
                                    743 	.area PSEG    (PAG,XDATA)
                                    744 ;--------------------------------------------------------
                                    745 ; external ram data
                                    746 ;--------------------------------------------------------
                                    747 	.area XSEG    (XDATA)
                                    748 ;--------------------------------------------------------
                                    749 ; absolute external ram data
                                    750 ;--------------------------------------------------------
                                    751 	.area XABS    (ABS,XDATA)
                                    752 ;--------------------------------------------------------
                                    753 ; external initialized ram data
                                    754 ;--------------------------------------------------------
                                    755 	.area XISEG   (XDATA)
                                    756 	.area HOME    (CODE)
                                    757 	.area GSINIT0 (CODE)
                                    758 	.area GSINIT1 (CODE)
                                    759 	.area GSINIT2 (CODE)
                                    760 	.area GSINIT3 (CODE)
                                    761 	.area GSINIT4 (CODE)
                                    762 	.area GSINIT5 (CODE)
                                    763 	.area GSINIT  (CODE)
                                    764 	.area GSFINAL (CODE)
                                    765 	.area CSEG    (CODE)
                                    766 ;--------------------------------------------------------
                                    767 ; global & static initialisations
                                    768 ;--------------------------------------------------------
                                    769 	.area HOME    (CODE)
                                    770 	.area GSINIT  (CODE)
                                    771 	.area GSFINAL (CODE)
                                    772 	.area GSINIT  (CODE)
                                    773 ;--------------------------------------------------------
                                    774 ; Home
                                    775 ;--------------------------------------------------------
                                    776 	.area HOME    (CODE)
                                    777 	.area HOME    (CODE)
                                    778 ;--------------------------------------------------------
                                    779 ; code
                                    780 ;--------------------------------------------------------
                                    781 	.area CSEG    (CODE)
                                    782 ;------------------------------------------------------------
                                    783 ;Allocation info for local variables in function 'setFontSize'
                                    784 ;------------------------------------------------------------
                                    785 ;size                      Allocated to registers 
                                    786 ;------------------------------------------------------------
                                    787 ;	source/CH549_OLED.c:18: void setFontSize(u8 size){
                                    788 ;	-----------------------------------------
                                    789 ;	 function setFontSize
                                    790 ;	-----------------------------------------
      00028C                        791 _setFontSize:
                           000007   792 	ar7 = 0x07
                           000006   793 	ar6 = 0x06
                           000005   794 	ar5 = 0x05
                           000004   795 	ar4 = 0x04
                           000003   796 	ar3 = 0x03
                           000002   797 	ar2 = 0x02
                           000001   798 	ar1 = 0x01
                           000000   799 	ar0 = 0x00
      00028C 85 82 21         [24]  800 	mov	_fontSize,dpl
                                    801 ;	source/CH549_OLED.c:19: fontSize = size;
                                    802 ;	source/CH549_OLED.c:20: }
      00028F 22               [24]  803 	ret
                                    804 ;------------------------------------------------------------
                                    805 ;Allocation info for local variables in function 'delay_ms'
                                    806 ;------------------------------------------------------------
                                    807 ;ms                        Allocated to registers 
                                    808 ;a                         Allocated to registers r4 r5 
                                    809 ;------------------------------------------------------------
                                    810 ;	source/CH549_OLED.c:23: void delay_ms(unsigned int ms)
                                    811 ;	-----------------------------------------
                                    812 ;	 function delay_ms
                                    813 ;	-----------------------------------------
      000290                        814 _delay_ms:
      000290 AE 82            [24]  815 	mov	r6,dpl
      000292 AF 83            [24]  816 	mov	r7,dph
                                    817 ;	source/CH549_OLED.c:26: while(ms)
      000294                        818 00104$:
      000294 EE               [12]  819 	mov	a,r6
      000295 4F               [12]  820 	orl	a,r7
      000296 60 18            [24]  821 	jz	00106$
                                    822 ;	source/CH549_OLED.c:29: while(a--);
      000298 7C 08            [12]  823 	mov	r4,#0x08
      00029A 7D 07            [12]  824 	mov	r5,#0x07
      00029C                        825 00101$:
      00029C 8C 02            [24]  826 	mov	ar2,r4
      00029E 8D 03            [24]  827 	mov	ar3,r5
      0002A0 1C               [12]  828 	dec	r4
      0002A1 BC FF 01         [24]  829 	cjne	r4,#0xff,00128$
      0002A4 1D               [12]  830 	dec	r5
      0002A5                        831 00128$:
      0002A5 EA               [12]  832 	mov	a,r2
      0002A6 4B               [12]  833 	orl	a,r3
      0002A7 70 F3            [24]  834 	jnz	00101$
                                    835 ;	source/CH549_OLED.c:30: ms--;
      0002A9 1E               [12]  836 	dec	r6
      0002AA BE FF 01         [24]  837 	cjne	r6,#0xff,00130$
      0002AD 1F               [12]  838 	dec	r7
      0002AE                        839 00130$:
      0002AE 80 E4            [24]  840 	sjmp	00104$
      0002B0                        841 00106$:
                                    842 ;	source/CH549_OLED.c:32: return;
                                    843 ;	source/CH549_OLED.c:33: }
      0002B0 22               [24]  844 	ret
                                    845 ;------------------------------------------------------------
                                    846 ;Allocation info for local variables in function 'OLED_WR_Byte'
                                    847 ;------------------------------------------------------------
                                    848 ;cmd                       Allocated with name '_OLED_WR_Byte_PARM_2'
                                    849 ;dat                       Allocated to registers r7 
                                    850 ;------------------------------------------------------------
                                    851 ;	source/CH549_OLED.c:39: void OLED_WR_Byte(u8 dat,u8 cmd)
                                    852 ;	-----------------------------------------
                                    853 ;	 function OLED_WR_Byte
                                    854 ;	-----------------------------------------
      0002B1                        855 _OLED_WR_Byte:
      0002B1 AF 82            [24]  856 	mov	r7,dpl
                                    857 ;	source/CH549_OLED.c:42: if(cmd)	OLED_MODE_DATA(); 	//命令模式
      0002B3 E5 22            [12]  858 	mov	a,_OLED_WR_Byte_PARM_2
      0002B5 60 04            [24]  859 	jz	00102$
                                    860 ;	assignBit
      0002B7 D2 A7            [12]  861 	setb	_P2_7
      0002B9 80 02            [24]  862 	sjmp	00103$
      0002BB                        863 00102$:
                                    864 ;	source/CH549_OLED.c:43: else 	OLED_MODE_COMMAND(); 	//数据模式
                                    865 ;	assignBit
      0002BB C2 A7            [12]  866 	clr	_P2_7
      0002BD                        867 00103$:
                                    868 ;	source/CH549_OLED.c:44: OLED_SELECT();			    //片选设置为0,设备选择
                                    869 ;	assignBit
      0002BD C2 94            [12]  870 	clr	_P1_4
                                    871 ;	source/CH549_OLED.c:45: CH549SPIMasterWrite(dat);       //使用CH549的官方函数写入8位数据
      0002BF 8F 82            [24]  872 	mov	dpl,r7
      0002C1 12 07 23         [24]  873 	lcall	_CH549SPIMasterWrite
                                    874 ;	source/CH549_OLED.c:46: OLED_DESELECT();			    //片选设置为1,取消设备选择
                                    875 ;	assignBit
      0002C4 D2 94            [12]  876 	setb	_P1_4
                                    877 ;	source/CH549_OLED.c:47: OLED_MODE_DATA();   	  	    //转为数据模式
                                    878 ;	assignBit
      0002C6 D2 A7            [12]  879 	setb	_P2_7
                                    880 ;	source/CH549_OLED.c:60: } 
      0002C8 22               [24]  881 	ret
                                    882 ;------------------------------------------------------------
                                    883 ;Allocation info for local variables in function 'load_one_command'
                                    884 ;------------------------------------------------------------
                                    885 ;c                         Allocated to registers 
                                    886 ;------------------------------------------------------------
                                    887 ;	source/CH549_OLED.c:62: void load_one_command(u8 c){
                                    888 ;	-----------------------------------------
                                    889 ;	 function load_one_command
                                    890 ;	-----------------------------------------
      0002C9                        891 _load_one_command:
                                    892 ;	source/CH549_OLED.c:63: OLED_WR_Byte(c,OLED_CMD);
      0002C9 75 22 00         [24]  893 	mov	_OLED_WR_Byte_PARM_2,#0x00
                                    894 ;	source/CH549_OLED.c:64: }
      0002CC 02 02 B1         [24]  895 	ljmp	_OLED_WR_Byte
                                    896 ;------------------------------------------------------------
                                    897 ;Allocation info for local variables in function 'load_commandList'
                                    898 ;------------------------------------------------------------
                                    899 ;n                         Allocated with name '_load_commandList_PARM_2'
                                    900 ;c                         Allocated to registers 
                                    901 ;------------------------------------------------------------
                                    902 ;	source/CH549_OLED.c:66: void load_commandList(const u8 *c, u8 n){
                                    903 ;	-----------------------------------------
                                    904 ;	 function load_commandList
                                    905 ;	-----------------------------------------
      0002CF                        906 _load_commandList:
      0002CF AD 82            [24]  907 	mov	r5,dpl
      0002D1 AE 83            [24]  908 	mov	r6,dph
      0002D3 AF F0            [24]  909 	mov	r7,b
                                    910 ;	source/CH549_OLED.c:67: while (n--) 
      0002D5 AC 23            [24]  911 	mov	r4,_load_commandList_PARM_2
      0002D7                        912 00101$:
      0002D7 8C 03            [24]  913 	mov	ar3,r4
      0002D9 1C               [12]  914 	dec	r4
      0002DA EB               [12]  915 	mov	a,r3
      0002DB 60 29            [24]  916 	jz	00104$
                                    917 ;	source/CH549_OLED.c:68: OLED_WR_Byte(pgm_read_byte(c++),OLED_CMD);
      0002DD 8D 82            [24]  918 	mov	dpl,r5
      0002DF 8E 83            [24]  919 	mov	dph,r6
      0002E1 8F F0            [24]  920 	mov	b,r7
      0002E3 12 0F 4F         [24]  921 	lcall	__gptrget
      0002E6 FB               [12]  922 	mov	r3,a
      0002E7 A3               [24]  923 	inc	dptr
      0002E8 AD 82            [24]  924 	mov	r5,dpl
      0002EA AE 83            [24]  925 	mov	r6,dph
      0002EC 75 22 00         [24]  926 	mov	_OLED_WR_Byte_PARM_2,#0x00
      0002EF 8B 82            [24]  927 	mov	dpl,r3
      0002F1 C0 07            [24]  928 	push	ar7
      0002F3 C0 06            [24]  929 	push	ar6
      0002F5 C0 05            [24]  930 	push	ar5
      0002F7 C0 04            [24]  931 	push	ar4
      0002F9 12 02 B1         [24]  932 	lcall	_OLED_WR_Byte
      0002FC D0 04            [24]  933 	pop	ar4
      0002FE D0 05            [24]  934 	pop	ar5
      000300 D0 06            [24]  935 	pop	ar6
      000302 D0 07            [24]  936 	pop	ar7
      000304 80 D1            [24]  937 	sjmp	00101$
      000306                        938 00104$:
                                    939 ;	source/CH549_OLED.c:70: }
      000306 22               [24]  940 	ret
                                    941 ;------------------------------------------------------------
                                    942 ;Allocation info for local variables in function 'OLED_Init'
                                    943 ;------------------------------------------------------------
                                    944 ;	source/CH549_OLED.c:73: void OLED_Init(void)
                                    945 ;	-----------------------------------------
                                    946 ;	 function OLED_Init
                                    947 ;	-----------------------------------------
      000307                        948 _OLED_Init:
                                    949 ;	source/CH549_OLED.c:76: OLED_RST_Set();
                                    950 ;	assignBit
      000307 D2 B5            [12]  951 	setb	_P3_5
                                    952 ;	source/CH549_OLED.c:77: delay_ms(100);
      000309 90 00 64         [24]  953 	mov	dptr,#0x0064
      00030C 12 02 90         [24]  954 	lcall	_delay_ms
                                    955 ;	source/CH549_OLED.c:78: OLED_RST_Clr();
                                    956 ;	assignBit
      00030F C2 B5            [12]  957 	clr	_P3_5
                                    958 ;	source/CH549_OLED.c:79: delay_ms(100);
      000311 90 00 64         [24]  959 	mov	dptr,#0x0064
      000314 12 02 90         [24]  960 	lcall	_delay_ms
                                    961 ;	source/CH549_OLED.c:80: OLED_RST_Set(); 
                                    962 ;	assignBit
      000317 D2 B5            [12]  963 	setb	_P3_5
                                    964 ;	source/CH549_OLED.c:116: load_commandList(init_commandList, sizeof(init_commandList));
      000319 75 23 19         [24]  965 	mov	_load_commandList_PARM_2,#0x19
      00031C 90 29 8E         [24]  966 	mov	dptr,#_OLED_Init_init_commandList_65537_73
      00031F 75 F0 80         [24]  967 	mov	b,#0x80
      000322 12 02 CF         [24]  968 	lcall	_load_commandList
                                    969 ;	source/CH549_OLED.c:118: OLED_Clear();
      000325 12 03 55         [24]  970 	lcall	_OLED_Clear
                                    971 ;	source/CH549_OLED.c:119: OLED_Set_Pos(0,0); 	
      000328 75 24 00         [24]  972 	mov	_OLED_Set_Pos_PARM_2,#0x00
      00032B 75 82 00         [24]  973 	mov	dpl,#0x00
                                    974 ;	source/CH549_OLED.c:120: }
      00032E 02 03 91         [24]  975 	ljmp	_OLED_Set_Pos
                                    976 ;------------------------------------------------------------
                                    977 ;Allocation info for local variables in function 'OLED_Display_On'
                                    978 ;------------------------------------------------------------
                                    979 ;	source/CH549_OLED.c:123: void OLED_Display_On(void)
                                    980 ;	-----------------------------------------
                                    981 ;	 function OLED_Display_On
                                    982 ;	-----------------------------------------
      000331                        983 _OLED_Display_On:
                                    984 ;	source/CH549_OLED.c:125: load_one_command(SSD1306_CHARGEPUMP);	//SET DCDC命令
      000331 75 82 8D         [24]  985 	mov	dpl,#0x8d
      000334 12 02 C9         [24]  986 	lcall	_load_one_command
                                    987 ;	source/CH549_OLED.c:126: load_one_command(SSD1306_0x10DISABLE);	//DCDC ON
      000337 75 82 14         [24]  988 	mov	dpl,#0x14
      00033A 12 02 C9         [24]  989 	lcall	_load_one_command
                                    990 ;	source/CH549_OLED.c:127: load_one_command(SSD1306_DISPLAYON);	//DISPLAY ON
      00033D 75 82 AF         [24]  991 	mov	dpl,#0xaf
                                    992 ;	source/CH549_OLED.c:128: }
      000340 02 02 C9         [24]  993 	ljmp	_load_one_command
                                    994 ;------------------------------------------------------------
                                    995 ;Allocation info for local variables in function 'OLED_Display_Off'
                                    996 ;------------------------------------------------------------
                                    997 ;	source/CH549_OLED.c:131: void OLED_Display_Off(void)
                                    998 ;	-----------------------------------------
                                    999 ;	 function OLED_Display_Off
                                   1000 ;	-----------------------------------------
      000343                       1001 _OLED_Display_Off:
                                   1002 ;	source/CH549_OLED.c:133: load_one_command(SSD1306_CHARGEPUMP);	//SET DCDC命令
      000343 75 82 8D         [24] 1003 	mov	dpl,#0x8d
      000346 12 02 C9         [24] 1004 	lcall	_load_one_command
                                   1005 ;	source/CH549_OLED.c:134: load_one_command(SSD1306_SETHIGHCOLUMN);	//DCDC OFF
      000349 75 82 10         [24] 1006 	mov	dpl,#0x10
      00034C 12 02 C9         [24] 1007 	lcall	_load_one_command
                                   1008 ;	source/CH549_OLED.c:135: load_one_command(0XAE);	//DISPLAY OFF
      00034F 75 82 AE         [24] 1009 	mov	dpl,#0xae
                                   1010 ;	source/CH549_OLED.c:136: }	
      000352 02 02 C9         [24] 1011 	ljmp	_load_one_command
                                   1012 ;------------------------------------------------------------
                                   1013 ;Allocation info for local variables in function 'OLED_Clear'
                                   1014 ;------------------------------------------------------------
                                   1015 ;i                         Allocated to registers r7 
                                   1016 ;n                         Allocated to registers r6 
                                   1017 ;------------------------------------------------------------
                                   1018 ;	source/CH549_OLED.c:139: void OLED_Clear(void)
                                   1019 ;	-----------------------------------------
                                   1020 ;	 function OLED_Clear
                                   1021 ;	-----------------------------------------
      000355                       1022 _OLED_Clear:
                                   1023 ;	source/CH549_OLED.c:142: for(i=0;i<8;i++)  
      000355 7F 00            [12] 1024 	mov	r7,#0x00
      000357                       1025 00105$:
                                   1026 ;	source/CH549_OLED.c:144: load_one_command(0xb0+i);	//设置页地址（0~7）
      000357 8F 06            [24] 1027 	mov	ar6,r7
      000359 74 B0            [12] 1028 	mov	a,#0xb0
      00035B 2E               [12] 1029 	add	a,r6
      00035C F5 82            [12] 1030 	mov	dpl,a
      00035E C0 07            [24] 1031 	push	ar7
      000360 12 02 C9         [24] 1032 	lcall	_load_one_command
                                   1033 ;	source/CH549_OLED.c:145: load_one_command(SSD1306_SETLOWCOLUMN);		//设置显示位置—列低地址
      000363 75 82 00         [24] 1034 	mov	dpl,#0x00
      000366 12 02 C9         [24] 1035 	lcall	_load_one_command
                                   1036 ;	source/CH549_OLED.c:146: load_one_command(SSD1306_SETHIGHCOLUMN);		//设置显示位置—列高地址 
      000369 75 82 10         [24] 1037 	mov	dpl,#0x10
      00036C 12 02 C9         [24] 1038 	lcall	_load_one_command
      00036F D0 07            [24] 1039 	pop	ar7
                                   1040 ;	source/CH549_OLED.c:148: for(n=0;n<128;n++)OLED_WR_Byte(0,OLED_DATA); 
      000371 7E 00            [12] 1041 	mov	r6,#0x00
      000373                       1042 00103$:
      000373 75 22 01         [24] 1043 	mov	_OLED_WR_Byte_PARM_2,#0x01
      000376 75 82 00         [24] 1044 	mov	dpl,#0x00
      000379 C0 07            [24] 1045 	push	ar7
      00037B C0 06            [24] 1046 	push	ar6
      00037D 12 02 B1         [24] 1047 	lcall	_OLED_WR_Byte
      000380 D0 06            [24] 1048 	pop	ar6
      000382 D0 07            [24] 1049 	pop	ar7
      000384 0E               [12] 1050 	inc	r6
      000385 BE 80 00         [24] 1051 	cjne	r6,#0x80,00123$
      000388                       1052 00123$:
      000388 40 E9            [24] 1053 	jc	00103$
                                   1054 ;	source/CH549_OLED.c:142: for(i=0;i<8;i++)  
      00038A 0F               [12] 1055 	inc	r7
      00038B BF 08 00         [24] 1056 	cjne	r7,#0x08,00125$
      00038E                       1057 00125$:
      00038E 40 C7            [24] 1058 	jc	00105$
                                   1059 ;	source/CH549_OLED.c:150: }
      000390 22               [24] 1060 	ret
                                   1061 ;------------------------------------------------------------
                                   1062 ;Allocation info for local variables in function 'OLED_Set_Pos'
                                   1063 ;------------------------------------------------------------
                                   1064 ;row_index                 Allocated with name '_OLED_Set_Pos_PARM_2'
                                   1065 ;col_index                 Allocated to registers r7 
                                   1066 ;------------------------------------------------------------
                                   1067 ;	source/CH549_OLED.c:157: void OLED_Set_Pos(unsigned char col_index, unsigned char row_index) 
                                   1068 ;	-----------------------------------------
                                   1069 ;	 function OLED_Set_Pos
                                   1070 ;	-----------------------------------------
      000391                       1071 _OLED_Set_Pos:
      000391 AF 82            [24] 1072 	mov	r7,dpl
                                   1073 ;	source/CH549_OLED.c:159: load_one_command(0xb0+row_index);
      000393 AE 24            [24] 1074 	mov	r6,_OLED_Set_Pos_PARM_2
      000395 74 B0            [12] 1075 	mov	a,#0xb0
      000397 2E               [12] 1076 	add	a,r6
      000398 F5 82            [12] 1077 	mov	dpl,a
      00039A C0 07            [24] 1078 	push	ar7
      00039C 12 02 C9         [24] 1079 	lcall	_load_one_command
      00039F D0 07            [24] 1080 	pop	ar7
                                   1081 ;	source/CH549_OLED.c:160: load_one_command(((col_index&0xf0)>>4)|SSD1306_SETHIGHCOLUMN);
      0003A1 8F 05            [24] 1082 	mov	ar5,r7
      0003A3 53 05 F0         [24] 1083 	anl	ar5,#0xf0
      0003A6 E4               [12] 1084 	clr	a
      0003A7 C4               [12] 1085 	swap	a
      0003A8 CD               [12] 1086 	xch	a,r5
      0003A9 C4               [12] 1087 	swap	a
      0003AA 54 0F            [12] 1088 	anl	a,#0x0f
      0003AC 6D               [12] 1089 	xrl	a,r5
      0003AD CD               [12] 1090 	xch	a,r5
      0003AE 54 0F            [12] 1091 	anl	a,#0x0f
      0003B0 CD               [12] 1092 	xch	a,r5
      0003B1 6D               [12] 1093 	xrl	a,r5
      0003B2 CD               [12] 1094 	xch	a,r5
      0003B3 30 E3 02         [24] 1095 	jnb	acc.3,00103$
      0003B6 44 F0            [12] 1096 	orl	a,#0xf0
      0003B8                       1097 00103$:
      0003B8 74 10            [12] 1098 	mov	a,#0x10
      0003BA 4D               [12] 1099 	orl	a,r5
      0003BB F5 82            [12] 1100 	mov	dpl,a
      0003BD C0 07            [24] 1101 	push	ar7
      0003BF 12 02 C9         [24] 1102 	lcall	_load_one_command
      0003C2 D0 07            [24] 1103 	pop	ar7
                                   1104 ;	source/CH549_OLED.c:161: load_one_command((col_index&0x0f)|0x01);
      0003C4 74 0F            [12] 1105 	mov	a,#0x0f
      0003C6 5F               [12] 1106 	anl	a,r7
      0003C7 44 01            [12] 1107 	orl	a,#0x01
      0003C9 F5 82            [12] 1108 	mov	dpl,a
                                   1109 ;	source/CH549_OLED.c:162: }  
      0003CB 02 02 C9         [24] 1110 	ljmp	_load_one_command
                                   1111 ;------------------------------------------------------------
                                   1112 ;Allocation info for local variables in function 'OLED_ShowChar'
                                   1113 ;------------------------------------------------------------
                                   1114 ;row_index                 Allocated with name '_OLED_ShowChar_PARM_2'
                                   1115 ;chr                       Allocated with name '_OLED_ShowChar_PARM_3'
                                   1116 ;col_index                 Allocated to registers r7 
                                   1117 ;char_index                Allocated to registers r6 
                                   1118 ;i                         Allocated to registers r5 
                                   1119 ;------------------------------------------------------------
                                   1120 ;	source/CH549_OLED.c:167: void OLED_ShowChar(u8 col_index, u8 row_index, u8 chr)
                                   1121 ;	-----------------------------------------
                                   1122 ;	 function OLED_ShowChar
                                   1123 ;	-----------------------------------------
      0003CE                       1124 _OLED_ShowChar:
      0003CE AF 82            [24] 1125 	mov	r7,dpl
                                   1126 ;	source/CH549_OLED.c:170: char_index = chr - ' ';	//将希望输入的字符的ascii码减去空格的ascii码，得到偏移后的值	因为在ascii码中space之前的字符并不能显示出来，字库里面不会有他们，减去一个空格相当于从空格往后开始数		
      0003D0 E5 26            [12] 1127 	mov	a,_OLED_ShowChar_PARM_3
      0003D2 24 E0            [12] 1128 	add	a,#0xe0
      0003D4 FE               [12] 1129 	mov	r6,a
                                   1130 ;	source/CH549_OLED.c:172: if (col_index > Max_Column - 1) {
      0003D5 EF               [12] 1131 	mov	a,r7
      0003D6 24 80            [12] 1132 	add	a,#0xff - 0x7f
      0003D8 50 09            [24] 1133 	jnc	00102$
                                   1134 ;	source/CH549_OLED.c:173: col_index = 0;
      0003DA 7F 00            [12] 1135 	mov	r7,#0x00
                                   1136 ;	source/CH549_OLED.c:174: row_index = row_index + 2;
      0003DC AD 25            [24] 1137 	mov	r5,_OLED_ShowChar_PARM_2
      0003DE 74 02            [12] 1138 	mov	a,#0x02
      0003E0 2D               [12] 1139 	add	a,r5
      0003E1 F5 25            [12] 1140 	mov	_OLED_ShowChar_PARM_2,a
      0003E3                       1141 00102$:
                                   1142 ;	source/CH549_OLED.c:177: if (fontSize == 16) {
      0003E3 74 10            [12] 1143 	mov	a,#0x10
      0003E5 B5 21 02         [24] 1144 	cjne	a,_fontSize,00149$
      0003E8 80 03            [24] 1145 	sjmp	00150$
      0003EA                       1146 00149$:
      0003EA 02 04 95         [24] 1147 	ljmp	00107$
      0003ED                       1148 00150$:
                                   1149 ;	source/CH549_OLED.c:178: OLED_Set_Pos(col_index, row_index);	
      0003ED 85 25 24         [24] 1150 	mov	_OLED_Set_Pos_PARM_2,_OLED_ShowChar_PARM_2
      0003F0 8F 82            [24] 1151 	mov	dpl,r7
      0003F2 C0 07            [24] 1152 	push	ar7
      0003F4 C0 06            [24] 1153 	push	ar6
      0003F6 12 03 91         [24] 1154 	lcall	_OLED_Set_Pos
      0003F9 D0 06            [24] 1155 	pop	ar6
      0003FB D0 07            [24] 1156 	pop	ar7
                                   1157 ;	source/CH549_OLED.c:179: for (i = 0; i < 8; i++)
      0003FD 7D 00            [12] 1158 	mov	r5,#0x00
      0003FF                       1159 00109$:
                                   1160 ;	source/CH549_OLED.c:180: OLED_WR_Byte(fontMatrix_8x16[char_index * 16 + i], OLED_DATA); //通过DATA模式写入矩阵数据就是在点亮特定的像素点
      0003FF 8E 03            [24] 1161 	mov	ar3,r6
      000401 E4               [12] 1162 	clr	a
      000402 C4               [12] 1163 	swap	a
      000403 54 F0            [12] 1164 	anl	a,#0xf0
      000405 CB               [12] 1165 	xch	a,r3
      000406 C4               [12] 1166 	swap	a
      000407 CB               [12] 1167 	xch	a,r3
      000408 6B               [12] 1168 	xrl	a,r3
      000409 CB               [12] 1169 	xch	a,r3
      00040A 54 F0            [12] 1170 	anl	a,#0xf0
      00040C CB               [12] 1171 	xch	a,r3
      00040D 6B               [12] 1172 	xrl	a,r3
      00040E FC               [12] 1173 	mov	r4,a
      00040F 8D 01            [24] 1174 	mov	ar1,r5
      000411 7A 00            [12] 1175 	mov	r2,#0x00
      000413 E9               [12] 1176 	mov	a,r1
      000414 2B               [12] 1177 	add	a,r3
      000415 F9               [12] 1178 	mov	r1,a
      000416 EA               [12] 1179 	mov	a,r2
      000417 3C               [12] 1180 	addc	a,r4
      000418 FA               [12] 1181 	mov	r2,a
      000419 E9               [12] 1182 	mov	a,r1
      00041A 24 DE            [12] 1183 	add	a,#_fontMatrix_8x16
      00041C F5 82            [12] 1184 	mov	dpl,a
      00041E EA               [12] 1185 	mov	a,r2
      00041F 34 21            [12] 1186 	addc	a,#(_fontMatrix_8x16 >> 8)
      000421 F5 83            [12] 1187 	mov	dph,a
      000423 E4               [12] 1188 	clr	a
      000424 93               [24] 1189 	movc	a,@a+dptr
      000425 FA               [12] 1190 	mov	r2,a
      000426 75 22 01         [24] 1191 	mov	_OLED_WR_Byte_PARM_2,#0x01
      000429 8A 82            [24] 1192 	mov	dpl,r2
      00042B C0 07            [24] 1193 	push	ar7
      00042D C0 06            [24] 1194 	push	ar6
      00042F C0 05            [24] 1195 	push	ar5
      000431 C0 04            [24] 1196 	push	ar4
      000433 C0 03            [24] 1197 	push	ar3
      000435 12 02 B1         [24] 1198 	lcall	_OLED_WR_Byte
      000438 D0 03            [24] 1199 	pop	ar3
      00043A D0 04            [24] 1200 	pop	ar4
      00043C D0 05            [24] 1201 	pop	ar5
      00043E D0 06            [24] 1202 	pop	ar6
      000440 D0 07            [24] 1203 	pop	ar7
                                   1204 ;	source/CH549_OLED.c:179: for (i = 0; i < 8; i++)
      000442 0D               [12] 1205 	inc	r5
      000443 BD 08 00         [24] 1206 	cjne	r5,#0x08,00151$
      000446                       1207 00151$:
      000446 40 B7            [24] 1208 	jc	00109$
                                   1209 ;	source/CH549_OLED.c:181: OLED_Set_Pos(col_index, row_index + 1);
      000448 E5 25            [12] 1210 	mov	a,_OLED_ShowChar_PARM_2
      00044A 04               [12] 1211 	inc	a
      00044B F5 24            [12] 1212 	mov	_OLED_Set_Pos_PARM_2,a
      00044D 8F 82            [24] 1213 	mov	dpl,r7
      00044F C0 04            [24] 1214 	push	ar4
      000451 C0 03            [24] 1215 	push	ar3
      000453 12 03 91         [24] 1216 	lcall	_OLED_Set_Pos
      000456 D0 03            [24] 1217 	pop	ar3
      000458 D0 04            [24] 1218 	pop	ar4
                                   1219 ;	source/CH549_OLED.c:182: for (i = 0; i < 8; i++)
      00045A 7D 00            [12] 1220 	mov	r5,#0x00
      00045C                       1221 00111$:
                                   1222 ;	source/CH549_OLED.c:183: OLED_WR_Byte(fontMatrix_8x16[char_index * 16 + i + 8], OLED_DATA);
      00045C 8D 01            [24] 1223 	mov	ar1,r5
      00045E 7A 00            [12] 1224 	mov	r2,#0x00
      000460 E9               [12] 1225 	mov	a,r1
      000461 2B               [12] 1226 	add	a,r3
      000462 F9               [12] 1227 	mov	r1,a
      000463 EA               [12] 1228 	mov	a,r2
      000464 3C               [12] 1229 	addc	a,r4
      000465 FA               [12] 1230 	mov	r2,a
      000466 74 08            [12] 1231 	mov	a,#0x08
      000468 29               [12] 1232 	add	a,r1
      000469 F9               [12] 1233 	mov	r1,a
      00046A E4               [12] 1234 	clr	a
      00046B 3A               [12] 1235 	addc	a,r2
      00046C FA               [12] 1236 	mov	r2,a
      00046D E9               [12] 1237 	mov	a,r1
      00046E 24 DE            [12] 1238 	add	a,#_fontMatrix_8x16
      000470 F5 82            [12] 1239 	mov	dpl,a
      000472 EA               [12] 1240 	mov	a,r2
      000473 34 21            [12] 1241 	addc	a,#(_fontMatrix_8x16 >> 8)
      000475 F5 83            [12] 1242 	mov	dph,a
      000477 E4               [12] 1243 	clr	a
      000478 93               [24] 1244 	movc	a,@a+dptr
      000479 FA               [12] 1245 	mov	r2,a
      00047A 75 22 01         [24] 1246 	mov	_OLED_WR_Byte_PARM_2,#0x01
      00047D 8A 82            [24] 1247 	mov	dpl,r2
      00047F C0 05            [24] 1248 	push	ar5
      000481 C0 04            [24] 1249 	push	ar4
      000483 C0 03            [24] 1250 	push	ar3
      000485 12 02 B1         [24] 1251 	lcall	_OLED_WR_Byte
      000488 D0 03            [24] 1252 	pop	ar3
      00048A D0 04            [24] 1253 	pop	ar4
      00048C D0 05            [24] 1254 	pop	ar5
                                   1255 ;	source/CH549_OLED.c:182: for (i = 0; i < 8; i++)
      00048E 0D               [12] 1256 	inc	r5
      00048F BD 08 00         [24] 1257 	cjne	r5,#0x08,00153$
      000492                       1258 00153$:
      000492 40 C8            [24] 1259 	jc	00111$
      000494 22               [24] 1260 	ret
      000495                       1261 00107$:
                                   1262 ;	source/CH549_OLED.c:187: OLED_Set_Pos(col_index, row_index + 1);
      000495 E5 25            [12] 1263 	mov	a,_OLED_ShowChar_PARM_2
      000497 04               [12] 1264 	inc	a
      000498 F5 24            [12] 1265 	mov	_OLED_Set_Pos_PARM_2,a
      00049A 8F 82            [24] 1266 	mov	dpl,r7
      00049C C0 06            [24] 1267 	push	ar6
      00049E 12 03 91         [24] 1268 	lcall	_OLED_Set_Pos
      0004A1 D0 06            [24] 1269 	pop	ar6
                                   1270 ;	source/CH549_OLED.c:188: for (i = 0; i < 6; i++)
      0004A3 EE               [12] 1271 	mov	a,r6
      0004A4 75 F0 06         [24] 1272 	mov	b,#0x06
      0004A7 A4               [48] 1273 	mul	ab
      0004A8 24 B6            [12] 1274 	add	a,#_fontMatrix_6x8
      0004AA FE               [12] 1275 	mov	r6,a
      0004AB 74 1F            [12] 1276 	mov	a,#(_fontMatrix_6x8 >> 8)
      0004AD 35 F0            [12] 1277 	addc	a,b
      0004AF FF               [12] 1278 	mov	r7,a
      0004B0 7D 00            [12] 1279 	mov	r5,#0x00
      0004B2                       1280 00113$:
                                   1281 ;	source/CH549_OLED.c:189: OLED_WR_Byte(fontMatrix_6x8[char_index][i], OLED_DATA);	
      0004B2 ED               [12] 1282 	mov	a,r5
      0004B3 2E               [12] 1283 	add	a,r6
      0004B4 F5 82            [12] 1284 	mov	dpl,a
      0004B6 E4               [12] 1285 	clr	a
      0004B7 3F               [12] 1286 	addc	a,r7
      0004B8 F5 83            [12] 1287 	mov	dph,a
      0004BA E4               [12] 1288 	clr	a
      0004BB 93               [24] 1289 	movc	a,@a+dptr
      0004BC FC               [12] 1290 	mov	r4,a
      0004BD 75 22 01         [24] 1291 	mov	_OLED_WR_Byte_PARM_2,#0x01
      0004C0 8C 82            [24] 1292 	mov	dpl,r4
      0004C2 C0 07            [24] 1293 	push	ar7
      0004C4 C0 06            [24] 1294 	push	ar6
      0004C6 C0 05            [24] 1295 	push	ar5
      0004C8 12 02 B1         [24] 1296 	lcall	_OLED_WR_Byte
      0004CB D0 05            [24] 1297 	pop	ar5
      0004CD D0 06            [24] 1298 	pop	ar6
      0004CF D0 07            [24] 1299 	pop	ar7
                                   1300 ;	source/CH549_OLED.c:188: for (i = 0; i < 6; i++)
      0004D1 0D               [12] 1301 	inc	r5
      0004D2 BD 06 00         [24] 1302 	cjne	r5,#0x06,00155$
      0004D5                       1303 00155$:
      0004D5 40 DB            [24] 1304 	jc	00113$
                                   1305 ;	source/CH549_OLED.c:191: }
      0004D7 22               [24] 1306 	ret
                                   1307 ;------------------------------------------------------------
                                   1308 ;Allocation info for local variables in function 'OLED_ShowString'
                                   1309 ;------------------------------------------------------------
                                   1310 ;row_index                 Allocated with name '_OLED_ShowString_PARM_2'
                                   1311 ;chr                       Allocated with name '_OLED_ShowString_PARM_3'
                                   1312 ;col_index                 Allocated to registers r7 
                                   1313 ;j                         Allocated to registers r6 
                                   1314 ;------------------------------------------------------------
                                   1315 ;	source/CH549_OLED.c:193: void OLED_ShowString(u8 col_index, u8 row_index, u8 *chr)
                                   1316 ;	-----------------------------------------
                                   1317 ;	 function OLED_ShowString
                                   1318 ;	-----------------------------------------
      0004D8                       1319 _OLED_ShowString:
      0004D8 AF 82            [24] 1320 	mov	r7,dpl
                                   1321 ;	source/CH549_OLED.c:196: while (chr[j]!='\0')
      0004DA 7E 00            [12] 1322 	mov	r6,#0x00
      0004DC                       1323 00103$:
      0004DC EE               [12] 1324 	mov	a,r6
      0004DD 25 28            [12] 1325 	add	a,_OLED_ShowString_PARM_3
      0004DF FB               [12] 1326 	mov	r3,a
      0004E0 E4               [12] 1327 	clr	a
      0004E1 35 29            [12] 1328 	addc	a,(_OLED_ShowString_PARM_3 + 1)
      0004E3 FC               [12] 1329 	mov	r4,a
      0004E4 AD 2A            [24] 1330 	mov	r5,(_OLED_ShowString_PARM_3 + 2)
      0004E6 8B 82            [24] 1331 	mov	dpl,r3
      0004E8 8C 83            [24] 1332 	mov	dph,r4
      0004EA 8D F0            [24] 1333 	mov	b,r5
      0004EC 12 0F 4F         [24] 1334 	lcall	__gptrget
      0004EF FD               [12] 1335 	mov	r5,a
      0004F0 60 28            [24] 1336 	jz	00106$
                                   1337 ;	source/CH549_OLED.c:197: {		OLED_ShowChar(col_index,row_index,chr[j]);
      0004F2 85 27 25         [24] 1338 	mov	_OLED_ShowChar_PARM_2,_OLED_ShowString_PARM_2
      0004F5 8D 26            [24] 1339 	mov	_OLED_ShowChar_PARM_3,r5
      0004F7 8F 82            [24] 1340 	mov	dpl,r7
      0004F9 C0 07            [24] 1341 	push	ar7
      0004FB C0 06            [24] 1342 	push	ar6
      0004FD 12 03 CE         [24] 1343 	lcall	_OLED_ShowChar
      000500 D0 06            [24] 1344 	pop	ar6
      000502 D0 07            [24] 1345 	pop	ar7
                                   1346 ;	source/CH549_OLED.c:198: col_index+=8;
      000504 8F 05            [24] 1347 	mov	ar5,r7
      000506 74 08            [12] 1348 	mov	a,#0x08
      000508 2D               [12] 1349 	add	a,r5
                                   1350 ;	source/CH549_OLED.c:199: if (col_index>120){col_index=0;row_index+=2;}
      000509 FF               [12] 1351 	mov  r7,a
      00050A 24 87            [12] 1352 	add	a,#0xff - 0x78
      00050C 50 09            [24] 1353 	jnc	00102$
      00050E 7F 00            [12] 1354 	mov	r7,#0x00
      000510 AD 27            [24] 1355 	mov	r5,_OLED_ShowString_PARM_2
      000512 74 02            [12] 1356 	mov	a,#0x02
      000514 2D               [12] 1357 	add	a,r5
      000515 F5 27            [12] 1358 	mov	_OLED_ShowString_PARM_2,a
      000517                       1359 00102$:
                                   1360 ;	source/CH549_OLED.c:200: j++;
      000517 0E               [12] 1361 	inc	r6
      000518 80 C2            [24] 1362 	sjmp	00103$
      00051A                       1363 00106$:
                                   1364 ;	source/CH549_OLED.c:202: }
      00051A 22               [24] 1365 	ret
                                   1366 ;------------------------------------------------------------
                                   1367 ;Allocation info for local variables in function 'OLED_ShowCHinese'
                                   1368 ;------------------------------------------------------------
                                   1369 ;row_index                 Allocated with name '_OLED_ShowCHinese_PARM_2'
                                   1370 ;no                        Allocated with name '_OLED_ShowCHinese_PARM_3'
                                   1371 ;col_index                 Allocated to registers r7 
                                   1372 ;t                         Allocated to registers r5 
                                   1373 ;adder                     Allocated to registers r6 
                                   1374 ;------------------------------------------------------------
                                   1375 ;	source/CH549_OLED.c:206: void OLED_ShowCHinese(u8 col_index, u8 row_index, u8 no)
                                   1376 ;	-----------------------------------------
                                   1377 ;	 function OLED_ShowCHinese
                                   1378 ;	-----------------------------------------
      00051B                       1379 _OLED_ShowCHinese:
      00051B AF 82            [24] 1380 	mov	r7,dpl
                                   1381 ;	source/CH549_OLED.c:208: u8 t,adder=0;
      00051D 7E 00            [12] 1382 	mov	r6,#0x00
                                   1383 ;	source/CH549_OLED.c:209: OLED_Set_Pos(col_index,row_index);	
      00051F 85 2B 24         [24] 1384 	mov	_OLED_Set_Pos_PARM_2,_OLED_ShowCHinese_PARM_2
      000522 8F 82            [24] 1385 	mov	dpl,r7
      000524 C0 07            [24] 1386 	push	ar7
      000526 C0 06            [24] 1387 	push	ar6
      000528 12 03 91         [24] 1388 	lcall	_OLED_Set_Pos
      00052B D0 06            [24] 1389 	pop	ar6
      00052D D0 07            [24] 1390 	pop	ar7
                                   1391 ;	source/CH549_OLED.c:210: for(t=0;t<16;t++)
      00052F 7D 00            [12] 1392 	mov	r5,#0x00
      000531                       1393 00103$:
                                   1394 ;	source/CH549_OLED.c:212: OLED_WR_Byte(Hzk[2*no][t],OLED_DATA);
      000531 AB 2C            [24] 1395 	mov	r3,_OLED_ShowCHinese_PARM_3
      000533 7C 00            [12] 1396 	mov	r4,#0x00
      000535 EB               [12] 1397 	mov	a,r3
      000536 2B               [12] 1398 	add	a,r3
      000537 FB               [12] 1399 	mov	r3,a
      000538 EC               [12] 1400 	mov	a,r4
      000539 33               [12] 1401 	rlc	a
      00053A FC               [12] 1402 	mov	r4,a
      00053B 8B 01            [24] 1403 	mov	ar1,r3
      00053D C4               [12] 1404 	swap	a
      00053E 23               [12] 1405 	rl	a
      00053F 54 E0            [12] 1406 	anl	a,#0xe0
      000541 C9               [12] 1407 	xch	a,r1
      000542 C4               [12] 1408 	swap	a
      000543 23               [12] 1409 	rl	a
      000544 C9               [12] 1410 	xch	a,r1
      000545 69               [12] 1411 	xrl	a,r1
      000546 C9               [12] 1412 	xch	a,r1
      000547 54 E0            [12] 1413 	anl	a,#0xe0
      000549 C9               [12] 1414 	xch	a,r1
      00054A 69               [12] 1415 	xrl	a,r1
      00054B FA               [12] 1416 	mov	r2,a
      00054C E9               [12] 1417 	mov	a,r1
      00054D 24 CE            [12] 1418 	add	a,#_Hzk
      00054F F9               [12] 1419 	mov	r1,a
      000550 EA               [12] 1420 	mov	a,r2
      000551 34 27            [12] 1421 	addc	a,#(_Hzk >> 8)
      000553 FA               [12] 1422 	mov	r2,a
      000554 ED               [12] 1423 	mov	a,r5
      000555 29               [12] 1424 	add	a,r1
      000556 F5 82            [12] 1425 	mov	dpl,a
      000558 E4               [12] 1426 	clr	a
      000559 3A               [12] 1427 	addc	a,r2
      00055A F5 83            [12] 1428 	mov	dph,a
      00055C E4               [12] 1429 	clr	a
      00055D 93               [24] 1430 	movc	a,@a+dptr
      00055E FA               [12] 1431 	mov	r2,a
      00055F 75 22 01         [24] 1432 	mov	_OLED_WR_Byte_PARM_2,#0x01
      000562 8A 82            [24] 1433 	mov	dpl,r2
      000564 C0 07            [24] 1434 	push	ar7
      000566 C0 06            [24] 1435 	push	ar6
      000568 C0 05            [24] 1436 	push	ar5
      00056A C0 04            [24] 1437 	push	ar4
      00056C C0 03            [24] 1438 	push	ar3
      00056E 12 02 B1         [24] 1439 	lcall	_OLED_WR_Byte
      000571 D0 03            [24] 1440 	pop	ar3
      000573 D0 04            [24] 1441 	pop	ar4
      000575 D0 05            [24] 1442 	pop	ar5
      000577 D0 06            [24] 1443 	pop	ar6
      000579 D0 07            [24] 1444 	pop	ar7
                                   1445 ;	source/CH549_OLED.c:213: adder+=1;
      00057B 8E 02            [24] 1446 	mov	ar2,r6
      00057D EA               [12] 1447 	mov	a,r2
      00057E 04               [12] 1448 	inc	a
      00057F FE               [12] 1449 	mov	r6,a
                                   1450 ;	source/CH549_OLED.c:210: for(t=0;t<16;t++)
      000580 0D               [12] 1451 	inc	r5
      000581 BD 10 00         [24] 1452 	cjne	r5,#0x10,00123$
      000584                       1453 00123$:
      000584 40 AB            [24] 1454 	jc	00103$
                                   1455 ;	source/CH549_OLED.c:215: OLED_Set_Pos(col_index,row_index+1);	
      000586 E5 2B            [12] 1456 	mov	a,_OLED_ShowCHinese_PARM_2
      000588 04               [12] 1457 	inc	a
      000589 F5 24            [12] 1458 	mov	_OLED_Set_Pos_PARM_2,a
      00058B 8F 82            [24] 1459 	mov	dpl,r7
      00058D C0 06            [24] 1460 	push	ar6
      00058F C0 04            [24] 1461 	push	ar4
      000591 C0 03            [24] 1462 	push	ar3
      000593 12 03 91         [24] 1463 	lcall	_OLED_Set_Pos
      000596 D0 03            [24] 1464 	pop	ar3
      000598 D0 04            [24] 1465 	pop	ar4
      00059A D0 06            [24] 1466 	pop	ar6
                                   1467 ;	source/CH549_OLED.c:216: for(t=0;t<16;t++)
      00059C 0B               [12] 1468 	inc	r3
      00059D BB 00 01         [24] 1469 	cjne	r3,#0x00,00125$
      0005A0 0C               [12] 1470 	inc	r4
      0005A1                       1471 00125$:
      0005A1 EC               [12] 1472 	mov	a,r4
      0005A2 C4               [12] 1473 	swap	a
      0005A3 23               [12] 1474 	rl	a
      0005A4 54 E0            [12] 1475 	anl	a,#0xe0
      0005A6 CB               [12] 1476 	xch	a,r3
      0005A7 C4               [12] 1477 	swap	a
      0005A8 23               [12] 1478 	rl	a
      0005A9 CB               [12] 1479 	xch	a,r3
      0005AA 6B               [12] 1480 	xrl	a,r3
      0005AB CB               [12] 1481 	xch	a,r3
      0005AC 54 E0            [12] 1482 	anl	a,#0xe0
      0005AE CB               [12] 1483 	xch	a,r3
      0005AF 6B               [12] 1484 	xrl	a,r3
      0005B0 FC               [12] 1485 	mov	r4,a
      0005B1 EB               [12] 1486 	mov	a,r3
      0005B2 24 CE            [12] 1487 	add	a,#_Hzk
      0005B4 FD               [12] 1488 	mov	r5,a
      0005B5 EC               [12] 1489 	mov	a,r4
      0005B6 34 27            [12] 1490 	addc	a,#(_Hzk >> 8)
      0005B8 FF               [12] 1491 	mov	r7,a
      0005B9 7C 00            [12] 1492 	mov	r4,#0x00
      0005BB                       1493 00105$:
                                   1494 ;	source/CH549_OLED.c:218: OLED_WR_Byte(Hzk[2*no+1][t],OLED_DATA);
      0005BB EC               [12] 1495 	mov	a,r4
      0005BC 2D               [12] 1496 	add	a,r5
      0005BD F5 82            [12] 1497 	mov	dpl,a
      0005BF E4               [12] 1498 	clr	a
      0005C0 3F               [12] 1499 	addc	a,r7
      0005C1 F5 83            [12] 1500 	mov	dph,a
      0005C3 E4               [12] 1501 	clr	a
      0005C4 93               [24] 1502 	movc	a,@a+dptr
      0005C5 FB               [12] 1503 	mov	r3,a
      0005C6 75 22 01         [24] 1504 	mov	_OLED_WR_Byte_PARM_2,#0x01
      0005C9 8B 82            [24] 1505 	mov	dpl,r3
      0005CB C0 07            [24] 1506 	push	ar7
      0005CD C0 06            [24] 1507 	push	ar6
      0005CF C0 05            [24] 1508 	push	ar5
      0005D1 C0 04            [24] 1509 	push	ar4
      0005D3 12 02 B1         [24] 1510 	lcall	_OLED_WR_Byte
      0005D6 D0 04            [24] 1511 	pop	ar4
      0005D8 D0 05            [24] 1512 	pop	ar5
      0005DA D0 06            [24] 1513 	pop	ar6
      0005DC D0 07            [24] 1514 	pop	ar7
                                   1515 ;	source/CH549_OLED.c:219: adder+=1;
      0005DE 8E 03            [24] 1516 	mov	ar3,r6
      0005E0 EB               [12] 1517 	mov	a,r3
      0005E1 04               [12] 1518 	inc	a
      0005E2 FE               [12] 1519 	mov	r6,a
                                   1520 ;	source/CH549_OLED.c:216: for(t=0;t<16;t++)
      0005E3 0C               [12] 1521 	inc	r4
      0005E4 BC 10 00         [24] 1522 	cjne	r4,#0x10,00126$
      0005E7                       1523 00126$:
      0005E7 40 D2            [24] 1524 	jc	00105$
                                   1525 ;	source/CH549_OLED.c:221: }
      0005E9 22               [24] 1526 	ret
                                   1527 ;------------------------------------------------------------
                                   1528 ;Allocation info for local variables in function 'OLED_DrawBMP'
                                   1529 ;------------------------------------------------------------
                                   1530 ;y0                        Allocated with name '_OLED_DrawBMP_PARM_2'
                                   1531 ;x1                        Allocated with name '_OLED_DrawBMP_PARM_3'
                                   1532 ;y1                        Allocated with name '_OLED_DrawBMP_PARM_4'
                                   1533 ;BMP                       Allocated with name '_OLED_DrawBMP_PARM_5'
                                   1534 ;x0                        Allocated with name '_OLED_DrawBMP_x0_65536_103'
                                   1535 ;j                         Allocated to registers r5 r6 
                                   1536 ;x                         Allocated with name '_OLED_DrawBMP_x_65536_104'
                                   1537 ;y                         Allocated to registers 
                                   1538 ;------------------------------------------------------------
                                   1539 ;	source/CH549_OLED.c:227: void OLED_DrawBMP(unsigned char x0, unsigned char y0,unsigned char x1, unsigned char y1,unsigned char BMP[])
                                   1540 ;	-----------------------------------------
                                   1541 ;	 function OLED_DrawBMP
                                   1542 ;	-----------------------------------------
      0005EA                       1543 _OLED_DrawBMP:
      0005EA 85 82 33         [24] 1544 	mov	_OLED_DrawBMP_x0_65536_103,dpl
                                   1545 ;	source/CH549_OLED.c:231: unsigned int j = 0;
      0005ED 7D 00            [12] 1546 	mov	r5,#0x00
      0005EF 7E 00            [12] 1547 	mov	r6,#0x00
                                   1548 ;	source/CH549_OLED.c:234: for(y = y0; y < y1; y++)	//这里的y和x是对二维数组行和列的两次for循环，遍历整个二维数组，并把每一位数据传给OLED
      0005F1 AC 2D            [24] 1549 	mov	r4,_OLED_DrawBMP_PARM_2
      0005F3                       1550 00107$:
      0005F3 C3               [12] 1551 	clr	c
      0005F4 EC               [12] 1552 	mov	a,r4
      0005F5 95 2F            [12] 1553 	subb	a,_OLED_DrawBMP_PARM_4
      0005F7 50 5A            [24] 1554 	jnc	00109$
                                   1555 ;	source/CH549_OLED.c:237: OLED_Set_Pos(x0,y);
      0005F9 8C 24            [24] 1556 	mov	_OLED_Set_Pos_PARM_2,r4
      0005FB 85 33 82         [24] 1557 	mov	dpl,_OLED_DrawBMP_x0_65536_103
      0005FE C0 06            [24] 1558 	push	ar6
      000600 C0 05            [24] 1559 	push	ar5
      000602 C0 04            [24] 1560 	push	ar4
      000604 12 03 91         [24] 1561 	lcall	_OLED_Set_Pos
      000607 D0 04            [24] 1562 	pop	ar4
      000609 D0 05            [24] 1563 	pop	ar5
      00060B D0 06            [24] 1564 	pop	ar6
                                   1565 ;	source/CH549_OLED.c:238: for(x = x0; x < x1; x++)
      00060D 8D 02            [24] 1566 	mov	ar2,r5
      00060F 8E 03            [24] 1567 	mov	ar3,r6
      000611 85 33 34         [24] 1568 	mov	_OLED_DrawBMP_x_65536_104,_OLED_DrawBMP_x0_65536_103
      000614                       1569 00104$:
      000614 C3               [12] 1570 	clr	c
      000615 E5 34            [12] 1571 	mov	a,_OLED_DrawBMP_x_65536_104
      000617 95 2E            [12] 1572 	subb	a,_OLED_DrawBMP_PARM_3
      000619 50 31            [24] 1573 	jnc	00115$
                                   1574 ;	source/CH549_OLED.c:240: OLED_WR_Byte(BMP[j++],OLED_DATA);	    	//向OLED输入BMP中 的一位数据，并逐次递增
      00061B EA               [12] 1575 	mov	a,r2
      00061C 25 30            [12] 1576 	add	a,_OLED_DrawBMP_PARM_5
      00061E F8               [12] 1577 	mov	r0,a
      00061F EB               [12] 1578 	mov	a,r3
      000620 35 31            [12] 1579 	addc	a,(_OLED_DrawBMP_PARM_5 + 1)
      000622 F9               [12] 1580 	mov	r1,a
      000623 AF 32            [24] 1581 	mov	r7,(_OLED_DrawBMP_PARM_5 + 2)
      000625 0A               [12] 1582 	inc	r2
      000626 BA 00 01         [24] 1583 	cjne	r2,#0x00,00131$
      000629 0B               [12] 1584 	inc	r3
      00062A                       1585 00131$:
      00062A 88 82            [24] 1586 	mov	dpl,r0
      00062C 89 83            [24] 1587 	mov	dph,r1
      00062E 8F F0            [24] 1588 	mov	b,r7
      000630 12 0F 4F         [24] 1589 	lcall	__gptrget
      000633 F8               [12] 1590 	mov	r0,a
      000634 75 22 01         [24] 1591 	mov	_OLED_WR_Byte_PARM_2,#0x01
      000637 88 82            [24] 1592 	mov	dpl,r0
      000639 C0 04            [24] 1593 	push	ar4
      00063B C0 03            [24] 1594 	push	ar3
      00063D C0 02            [24] 1595 	push	ar2
      00063F 12 02 B1         [24] 1596 	lcall	_OLED_WR_Byte
      000642 D0 02            [24] 1597 	pop	ar2
      000644 D0 03            [24] 1598 	pop	ar3
      000646 D0 04            [24] 1599 	pop	ar4
                                   1600 ;	source/CH549_OLED.c:238: for(x = x0; x < x1; x++)
      000648 05 34            [12] 1601 	inc	_OLED_DrawBMP_x_65536_104
      00064A 80 C8            [24] 1602 	sjmp	00104$
      00064C                       1603 00115$:
      00064C 8A 05            [24] 1604 	mov	ar5,r2
      00064E 8B 06            [24] 1605 	mov	ar6,r3
                                   1606 ;	source/CH549_OLED.c:234: for(y = y0; y < y1; y++)	//这里的y和x是对二维数组行和列的两次for循环，遍历整个二维数组，并把每一位数据传给OLED
      000650 0C               [12] 1607 	inc	r4
      000651 80 A0            [24] 1608 	sjmp	00107$
      000653                       1609 00109$:
                                   1610 ;	source/CH549_OLED.c:243: } 
      000653 22               [24] 1611 	ret
                                   1612 	.area CSEG    (CODE)
                                   1613 	.area CONST   (CODE)
      0017B6                       1614 _BMP1:
      0017B6 00                    1615 	.db #0x00	; 0
      0017B7 03                    1616 	.db #0x03	; 3
      0017B8 05                    1617 	.db #0x05	; 5
      0017B9 09                    1618 	.db #0x09	; 9
      0017BA 11                    1619 	.db #0x11	; 17
      0017BB FF                    1620 	.db #0xff	; 255
      0017BC 11                    1621 	.db #0x11	; 17
      0017BD 89                    1622 	.db #0x89	; 137
      0017BE 05                    1623 	.db #0x05	; 5
      0017BF C3                    1624 	.db #0xc3	; 195
      0017C0 00                    1625 	.db #0x00	; 0
      0017C1 E0                    1626 	.db #0xe0	; 224
      0017C2 00                    1627 	.db #0x00	; 0
      0017C3 F0                    1628 	.db #0xf0	; 240
      0017C4 00                    1629 	.db #0x00	; 0
      0017C5 F8                    1630 	.db #0xf8	; 248
      0017C6 00                    1631 	.db #0x00	; 0
      0017C7 00                    1632 	.db #0x00	; 0
      0017C8 00                    1633 	.db #0x00	; 0
      0017C9 00                    1634 	.db #0x00	; 0
      0017CA 00                    1635 	.db #0x00	; 0
      0017CB 00                    1636 	.db #0x00	; 0
      0017CC 00                    1637 	.db #0x00	; 0
      0017CD 44                    1638 	.db #0x44	; 68	'D'
      0017CE 28                    1639 	.db #0x28	; 40
      0017CF FF                    1640 	.db #0xff	; 255
      0017D0 11                    1641 	.db #0x11	; 17
      0017D1 AA                    1642 	.db #0xaa	; 170
      0017D2 44                    1643 	.db #0x44	; 68	'D'
      0017D3 00                    1644 	.db #0x00	; 0
      0017D4 00                    1645 	.db #0x00	; 0
      0017D5 00                    1646 	.db #0x00	; 0
      0017D6 00                    1647 	.db #0x00	; 0
      0017D7 00                    1648 	.db #0x00	; 0
      0017D8 00                    1649 	.db #0x00	; 0
      0017D9 00                    1650 	.db #0x00	; 0
      0017DA 00                    1651 	.db #0x00	; 0
      0017DB 00                    1652 	.db #0x00	; 0
      0017DC 00                    1653 	.db #0x00	; 0
      0017DD 00                    1654 	.db #0x00	; 0
      0017DE 00                    1655 	.db #0x00	; 0
      0017DF 00                    1656 	.db #0x00	; 0
      0017E0 00                    1657 	.db #0x00	; 0
      0017E1 00                    1658 	.db #0x00	; 0
      0017E2 00                    1659 	.db #0x00	; 0
      0017E3 00                    1660 	.db #0x00	; 0
      0017E4 00                    1661 	.db #0x00	; 0
      0017E5 00                    1662 	.db #0x00	; 0
      0017E6 00                    1663 	.db #0x00	; 0
      0017E7 00                    1664 	.db #0x00	; 0
      0017E8 00                    1665 	.db #0x00	; 0
      0017E9 00                    1666 	.db #0x00	; 0
      0017EA 00                    1667 	.db #0x00	; 0
      0017EB 00                    1668 	.db #0x00	; 0
      0017EC 00                    1669 	.db #0x00	; 0
      0017ED 00                    1670 	.db #0x00	; 0
      0017EE 00                    1671 	.db #0x00	; 0
      0017EF 00                    1672 	.db #0x00	; 0
      0017F0 00                    1673 	.db #0x00	; 0
      0017F1 00                    1674 	.db #0x00	; 0
      0017F2 00                    1675 	.db #0x00	; 0
      0017F3 00                    1676 	.db #0x00	; 0
      0017F4 00                    1677 	.db #0x00	; 0
      0017F5 00                    1678 	.db #0x00	; 0
      0017F6 00                    1679 	.db #0x00	; 0
      0017F7 00                    1680 	.db #0x00	; 0
      0017F8 00                    1681 	.db #0x00	; 0
      0017F9 00                    1682 	.db #0x00	; 0
      0017FA 00                    1683 	.db #0x00	; 0
      0017FB 00                    1684 	.db #0x00	; 0
      0017FC 00                    1685 	.db #0x00	; 0
      0017FD 00                    1686 	.db #0x00	; 0
      0017FE 00                    1687 	.db #0x00	; 0
      0017FF 00                    1688 	.db #0x00	; 0
      001800 00                    1689 	.db #0x00	; 0
      001801 00                    1690 	.db #0x00	; 0
      001802 00                    1691 	.db #0x00	; 0
      001803 00                    1692 	.db #0x00	; 0
      001804 00                    1693 	.db #0x00	; 0
      001805 00                    1694 	.db #0x00	; 0
      001806 00                    1695 	.db #0x00	; 0
      001807 00                    1696 	.db #0x00	; 0
      001808 00                    1697 	.db #0x00	; 0
      001809 00                    1698 	.db #0x00	; 0
      00180A 00                    1699 	.db #0x00	; 0
      00180B 00                    1700 	.db #0x00	; 0
      00180C 00                    1701 	.db #0x00	; 0
      00180D 00                    1702 	.db #0x00	; 0
      00180E 00                    1703 	.db #0x00	; 0
      00180F 00                    1704 	.db #0x00	; 0
      001810 83                    1705 	.db #0x83	; 131
      001811 01                    1706 	.db #0x01	; 1
      001812 38                    1707 	.db #0x38	; 56	'8'
      001813 44                    1708 	.db #0x44	; 68	'D'
      001814 82                    1709 	.db #0x82	; 130
      001815 92                    1710 	.db #0x92	; 146
      001816 92                    1711 	.db #0x92	; 146
      001817 74                    1712 	.db #0x74	; 116	't'
      001818 01                    1713 	.db #0x01	; 1
      001819 83                    1714 	.db #0x83	; 131
      00181A 00                    1715 	.db #0x00	; 0
      00181B 00                    1716 	.db #0x00	; 0
      00181C 00                    1717 	.db #0x00	; 0
      00181D 00                    1718 	.db #0x00	; 0
      00181E 00                    1719 	.db #0x00	; 0
      00181F 00                    1720 	.db #0x00	; 0
      001820 00                    1721 	.db #0x00	; 0
      001821 7C                    1722 	.db #0x7c	; 124
      001822 44                    1723 	.db #0x44	; 68	'D'
      001823 FF                    1724 	.db #0xff	; 255
      001824 01                    1725 	.db #0x01	; 1
      001825 7D                    1726 	.db #0x7d	; 125
      001826 7D                    1727 	.db #0x7d	; 125
      001827 7D                    1728 	.db #0x7d	; 125
      001828 01                    1729 	.db #0x01	; 1
      001829 7D                    1730 	.db #0x7d	; 125
      00182A 7D                    1731 	.db #0x7d	; 125
      00182B 7D                    1732 	.db #0x7d	; 125
      00182C 7D                    1733 	.db #0x7d	; 125
      00182D 01                    1734 	.db #0x01	; 1
      00182E 7D                    1735 	.db #0x7d	; 125
      00182F 7D                    1736 	.db #0x7d	; 125
      001830 7D                    1737 	.db #0x7d	; 125
      001831 7D                    1738 	.db #0x7d	; 125
      001832 7D                    1739 	.db #0x7d	; 125
      001833 01                    1740 	.db #0x01	; 1
      001834 FF                    1741 	.db #0xff	; 255
      001835 00                    1742 	.db #0x00	; 0
      001836 00                    1743 	.db #0x00	; 0
      001837 00                    1744 	.db #0x00	; 0
      001838 00                    1745 	.db #0x00	; 0
      001839 00                    1746 	.db #0x00	; 0
      00183A 00                    1747 	.db #0x00	; 0
      00183B 01                    1748 	.db #0x01	; 1
      00183C 00                    1749 	.db #0x00	; 0
      00183D 01                    1750 	.db #0x01	; 1
      00183E 00                    1751 	.db #0x00	; 0
      00183F 01                    1752 	.db #0x01	; 1
      001840 00                    1753 	.db #0x00	; 0
      001841 01                    1754 	.db #0x01	; 1
      001842 00                    1755 	.db #0x00	; 0
      001843 01                    1756 	.db #0x01	; 1
      001844 00                    1757 	.db #0x00	; 0
      001845 01                    1758 	.db #0x01	; 1
      001846 00                    1759 	.db #0x00	; 0
      001847 00                    1760 	.db #0x00	; 0
      001848 00                    1761 	.db #0x00	; 0
      001849 00                    1762 	.db #0x00	; 0
      00184A 00                    1763 	.db #0x00	; 0
      00184B 00                    1764 	.db #0x00	; 0
      00184C 00                    1765 	.db #0x00	; 0
      00184D 00                    1766 	.db #0x00	; 0
      00184E 00                    1767 	.db #0x00	; 0
      00184F 01                    1768 	.db #0x01	; 1
      001850 01                    1769 	.db #0x01	; 1
      001851 00                    1770 	.db #0x00	; 0
      001852 00                    1771 	.db #0x00	; 0
      001853 00                    1772 	.db #0x00	; 0
      001854 00                    1773 	.db #0x00	; 0
      001855 00                    1774 	.db #0x00	; 0
      001856 00                    1775 	.db #0x00	; 0
      001857 00                    1776 	.db #0x00	; 0
      001858 00                    1777 	.db #0x00	; 0
      001859 00                    1778 	.db #0x00	; 0
      00185A 00                    1779 	.db #0x00	; 0
      00185B 00                    1780 	.db #0x00	; 0
      00185C 00                    1781 	.db #0x00	; 0
      00185D 00                    1782 	.db #0x00	; 0
      00185E 00                    1783 	.db #0x00	; 0
      00185F 00                    1784 	.db #0x00	; 0
      001860 00                    1785 	.db #0x00	; 0
      001861 00                    1786 	.db #0x00	; 0
      001862 00                    1787 	.db #0x00	; 0
      001863 00                    1788 	.db #0x00	; 0
      001864 00                    1789 	.db #0x00	; 0
      001865 00                    1790 	.db #0x00	; 0
      001866 00                    1791 	.db #0x00	; 0
      001867 00                    1792 	.db #0x00	; 0
      001868 00                    1793 	.db #0x00	; 0
      001869 00                    1794 	.db #0x00	; 0
      00186A 00                    1795 	.db #0x00	; 0
      00186B 00                    1796 	.db #0x00	; 0
      00186C 00                    1797 	.db #0x00	; 0
      00186D 00                    1798 	.db #0x00	; 0
      00186E 00                    1799 	.db #0x00	; 0
      00186F 00                    1800 	.db #0x00	; 0
      001870 00                    1801 	.db #0x00	; 0
      001871 00                    1802 	.db #0x00	; 0
      001872 00                    1803 	.db #0x00	; 0
      001873 00                    1804 	.db #0x00	; 0
      001874 00                    1805 	.db #0x00	; 0
      001875 00                    1806 	.db #0x00	; 0
      001876 00                    1807 	.db #0x00	; 0
      001877 00                    1808 	.db #0x00	; 0
      001878 00                    1809 	.db #0x00	; 0
      001879 00                    1810 	.db #0x00	; 0
      00187A 00                    1811 	.db #0x00	; 0
      00187B 00                    1812 	.db #0x00	; 0
      00187C 00                    1813 	.db #0x00	; 0
      00187D 00                    1814 	.db #0x00	; 0
      00187E 00                    1815 	.db #0x00	; 0
      00187F 00                    1816 	.db #0x00	; 0
      001880 00                    1817 	.db #0x00	; 0
      001881 00                    1818 	.db #0x00	; 0
      001882 00                    1819 	.db #0x00	; 0
      001883 00                    1820 	.db #0x00	; 0
      001884 00                    1821 	.db #0x00	; 0
      001885 00                    1822 	.db #0x00	; 0
      001886 00                    1823 	.db #0x00	; 0
      001887 00                    1824 	.db #0x00	; 0
      001888 00                    1825 	.db #0x00	; 0
      001889 00                    1826 	.db #0x00	; 0
      00188A 00                    1827 	.db #0x00	; 0
      00188B 00                    1828 	.db #0x00	; 0
      00188C 00                    1829 	.db #0x00	; 0
      00188D 00                    1830 	.db #0x00	; 0
      00188E 00                    1831 	.db #0x00	; 0
      00188F 00                    1832 	.db #0x00	; 0
      001890 01                    1833 	.db #0x01	; 1
      001891 01                    1834 	.db #0x01	; 1
      001892 00                    1835 	.db #0x00	; 0
      001893 00                    1836 	.db #0x00	; 0
      001894 00                    1837 	.db #0x00	; 0
      001895 00                    1838 	.db #0x00	; 0
      001896 00                    1839 	.db #0x00	; 0
      001897 00                    1840 	.db #0x00	; 0
      001898 01                    1841 	.db #0x01	; 1
      001899 01                    1842 	.db #0x01	; 1
      00189A 00                    1843 	.db #0x00	; 0
      00189B 00                    1844 	.db #0x00	; 0
      00189C 00                    1845 	.db #0x00	; 0
      00189D 00                    1846 	.db #0x00	; 0
      00189E 00                    1847 	.db #0x00	; 0
      00189F 00                    1848 	.db #0x00	; 0
      0018A0 00                    1849 	.db #0x00	; 0
      0018A1 00                    1850 	.db #0x00	; 0
      0018A2 00                    1851 	.db #0x00	; 0
      0018A3 01                    1852 	.db #0x01	; 1
      0018A4 01                    1853 	.db #0x01	; 1
      0018A5 01                    1854 	.db #0x01	; 1
      0018A6 01                    1855 	.db #0x01	; 1
      0018A7 01                    1856 	.db #0x01	; 1
      0018A8 01                    1857 	.db #0x01	; 1
      0018A9 01                    1858 	.db #0x01	; 1
      0018AA 01                    1859 	.db #0x01	; 1
      0018AB 01                    1860 	.db #0x01	; 1
      0018AC 01                    1861 	.db #0x01	; 1
      0018AD 01                    1862 	.db #0x01	; 1
      0018AE 01                    1863 	.db #0x01	; 1
      0018AF 01                    1864 	.db #0x01	; 1
      0018B0 01                    1865 	.db #0x01	; 1
      0018B1 01                    1866 	.db #0x01	; 1
      0018B2 01                    1867 	.db #0x01	; 1
      0018B3 01                    1868 	.db #0x01	; 1
      0018B4 01                    1869 	.db #0x01	; 1
      0018B5 00                    1870 	.db #0x00	; 0
      0018B6 00                    1871 	.db #0x00	; 0
      0018B7 00                    1872 	.db #0x00	; 0
      0018B8 00                    1873 	.db #0x00	; 0
      0018B9 00                    1874 	.db #0x00	; 0
      0018BA 00                    1875 	.db #0x00	; 0
      0018BB 00                    1876 	.db #0x00	; 0
      0018BC 00                    1877 	.db #0x00	; 0
      0018BD 00                    1878 	.db #0x00	; 0
      0018BE 00                    1879 	.db #0x00	; 0
      0018BF 00                    1880 	.db #0x00	; 0
      0018C0 00                    1881 	.db #0x00	; 0
      0018C1 00                    1882 	.db #0x00	; 0
      0018C2 00                    1883 	.db #0x00	; 0
      0018C3 00                    1884 	.db #0x00	; 0
      0018C4 00                    1885 	.db #0x00	; 0
      0018C5 00                    1886 	.db #0x00	; 0
      0018C6 00                    1887 	.db #0x00	; 0
      0018C7 00                    1888 	.db #0x00	; 0
      0018C8 00                    1889 	.db #0x00	; 0
      0018C9 00                    1890 	.db #0x00	; 0
      0018CA 00                    1891 	.db #0x00	; 0
      0018CB 00                    1892 	.db #0x00	; 0
      0018CC 00                    1893 	.db #0x00	; 0
      0018CD 00                    1894 	.db #0x00	; 0
      0018CE 00                    1895 	.db #0x00	; 0
      0018CF 00                    1896 	.db #0x00	; 0
      0018D0 00                    1897 	.db #0x00	; 0
      0018D1 00                    1898 	.db #0x00	; 0
      0018D2 3F                    1899 	.db #0x3f	; 63
      0018D3 3F                    1900 	.db #0x3f	; 63
      0018D4 03                    1901 	.db #0x03	; 3
      0018D5 03                    1902 	.db #0x03	; 3
      0018D6 F3                    1903 	.db #0xf3	; 243
      0018D7 13                    1904 	.db #0x13	; 19
      0018D8 11                    1905 	.db #0x11	; 17
      0018D9 11                    1906 	.db #0x11	; 17
      0018DA 11                    1907 	.db #0x11	; 17
      0018DB 11                    1908 	.db #0x11	; 17
      0018DC 11                    1909 	.db #0x11	; 17
      0018DD 11                    1910 	.db #0x11	; 17
      0018DE 01                    1911 	.db #0x01	; 1
      0018DF F1                    1912 	.db #0xf1	; 241
      0018E0 11                    1913 	.db #0x11	; 17
      0018E1 61                    1914 	.db #0x61	; 97	'a'
      0018E2 81                    1915 	.db #0x81	; 129
      0018E3 01                    1916 	.db #0x01	; 1
      0018E4 01                    1917 	.db #0x01	; 1
      0018E5 01                    1918 	.db #0x01	; 1
      0018E6 81                    1919 	.db #0x81	; 129
      0018E7 61                    1920 	.db #0x61	; 97	'a'
      0018E8 11                    1921 	.db #0x11	; 17
      0018E9 F1                    1922 	.db #0xf1	; 241
      0018EA 01                    1923 	.db #0x01	; 1
      0018EB 01                    1924 	.db #0x01	; 1
      0018EC 01                    1925 	.db #0x01	; 1
      0018ED 01                    1926 	.db #0x01	; 1
      0018EE 41                    1927 	.db #0x41	; 65	'A'
      0018EF 41                    1928 	.db #0x41	; 65	'A'
      0018F0 F1                    1929 	.db #0xf1	; 241
      0018F1 01                    1930 	.db #0x01	; 1
      0018F2 01                    1931 	.db #0x01	; 1
      0018F3 01                    1932 	.db #0x01	; 1
      0018F4 01                    1933 	.db #0x01	; 1
      0018F5 01                    1934 	.db #0x01	; 1
      0018F6 C1                    1935 	.db #0xc1	; 193
      0018F7 21                    1936 	.db #0x21	; 33
      0018F8 11                    1937 	.db #0x11	; 17
      0018F9 11                    1938 	.db #0x11	; 17
      0018FA 11                    1939 	.db #0x11	; 17
      0018FB 11                    1940 	.db #0x11	; 17
      0018FC 21                    1941 	.db #0x21	; 33
      0018FD C1                    1942 	.db #0xc1	; 193
      0018FE 01                    1943 	.db #0x01	; 1
      0018FF 01                    1944 	.db #0x01	; 1
      001900 01                    1945 	.db #0x01	; 1
      001901 01                    1946 	.db #0x01	; 1
      001902 41                    1947 	.db #0x41	; 65	'A'
      001903 41                    1948 	.db #0x41	; 65	'A'
      001904 F1                    1949 	.db #0xf1	; 241
      001905 01                    1950 	.db #0x01	; 1
      001906 01                    1951 	.db #0x01	; 1
      001907 01                    1952 	.db #0x01	; 1
      001908 01                    1953 	.db #0x01	; 1
      001909 01                    1954 	.db #0x01	; 1
      00190A 01                    1955 	.db #0x01	; 1
      00190B 01                    1956 	.db #0x01	; 1
      00190C 01                    1957 	.db #0x01	; 1
      00190D 01                    1958 	.db #0x01	; 1
      00190E 01                    1959 	.db #0x01	; 1
      00190F 11                    1960 	.db #0x11	; 17
      001910 11                    1961 	.db #0x11	; 17
      001911 11                    1962 	.db #0x11	; 17
      001912 11                    1963 	.db #0x11	; 17
      001913 11                    1964 	.db #0x11	; 17
      001914 D3                    1965 	.db #0xd3	; 211
      001915 33                    1966 	.db #0x33	; 51	'3'
      001916 03                    1967 	.db #0x03	; 3
      001917 03                    1968 	.db #0x03	; 3
      001918 3F                    1969 	.db #0x3f	; 63
      001919 3F                    1970 	.db #0x3f	; 63
      00191A 00                    1971 	.db #0x00	; 0
      00191B 00                    1972 	.db #0x00	; 0
      00191C 00                    1973 	.db #0x00	; 0
      00191D 00                    1974 	.db #0x00	; 0
      00191E 00                    1975 	.db #0x00	; 0
      00191F 00                    1976 	.db #0x00	; 0
      001920 00                    1977 	.db #0x00	; 0
      001921 00                    1978 	.db #0x00	; 0
      001922 00                    1979 	.db #0x00	; 0
      001923 00                    1980 	.db #0x00	; 0
      001924 00                    1981 	.db #0x00	; 0
      001925 00                    1982 	.db #0x00	; 0
      001926 00                    1983 	.db #0x00	; 0
      001927 00                    1984 	.db #0x00	; 0
      001928 00                    1985 	.db #0x00	; 0
      001929 00                    1986 	.db #0x00	; 0
      00192A 00                    1987 	.db #0x00	; 0
      00192B 00                    1988 	.db #0x00	; 0
      00192C 00                    1989 	.db #0x00	; 0
      00192D 00                    1990 	.db #0x00	; 0
      00192E 00                    1991 	.db #0x00	; 0
      00192F 00                    1992 	.db #0x00	; 0
      001930 00                    1993 	.db #0x00	; 0
      001931 00                    1994 	.db #0x00	; 0
      001932 00                    1995 	.db #0x00	; 0
      001933 00                    1996 	.db #0x00	; 0
      001934 00                    1997 	.db #0x00	; 0
      001935 00                    1998 	.db #0x00	; 0
      001936 00                    1999 	.db #0x00	; 0
      001937 00                    2000 	.db #0x00	; 0
      001938 00                    2001 	.db #0x00	; 0
      001939 00                    2002 	.db #0x00	; 0
      00193A 00                    2003 	.db #0x00	; 0
      00193B 00                    2004 	.db #0x00	; 0
      00193C 00                    2005 	.db #0x00	; 0
      00193D 00                    2006 	.db #0x00	; 0
      00193E 00                    2007 	.db #0x00	; 0
      00193F 00                    2008 	.db #0x00	; 0
      001940 00                    2009 	.db #0x00	; 0
      001941 00                    2010 	.db #0x00	; 0
      001942 00                    2011 	.db #0x00	; 0
      001943 00                    2012 	.db #0x00	; 0
      001944 00                    2013 	.db #0x00	; 0
      001945 00                    2014 	.db #0x00	; 0
      001946 00                    2015 	.db #0x00	; 0
      001947 00                    2016 	.db #0x00	; 0
      001948 00                    2017 	.db #0x00	; 0
      001949 00                    2018 	.db #0x00	; 0
      00194A 00                    2019 	.db #0x00	; 0
      00194B 00                    2020 	.db #0x00	; 0
      00194C 00                    2021 	.db #0x00	; 0
      00194D 00                    2022 	.db #0x00	; 0
      00194E 00                    2023 	.db #0x00	; 0
      00194F 00                    2024 	.db #0x00	; 0
      001950 00                    2025 	.db #0x00	; 0
      001951 00                    2026 	.db #0x00	; 0
      001952 E0                    2027 	.db #0xe0	; 224
      001953 E0                    2028 	.db #0xe0	; 224
      001954 00                    2029 	.db #0x00	; 0
      001955 00                    2030 	.db #0x00	; 0
      001956 7F                    2031 	.db #0x7f	; 127
      001957 01                    2032 	.db #0x01	; 1
      001958 01                    2033 	.db #0x01	; 1
      001959 01                    2034 	.db #0x01	; 1
      00195A 01                    2035 	.db #0x01	; 1
      00195B 01                    2036 	.db #0x01	; 1
      00195C 01                    2037 	.db #0x01	; 1
      00195D 00                    2038 	.db #0x00	; 0
      00195E 00                    2039 	.db #0x00	; 0
      00195F 7F                    2040 	.db #0x7f	; 127
      001960 00                    2041 	.db #0x00	; 0
      001961 00                    2042 	.db #0x00	; 0
      001962 01                    2043 	.db #0x01	; 1
      001963 06                    2044 	.db #0x06	; 6
      001964 18                    2045 	.db #0x18	; 24
      001965 06                    2046 	.db #0x06	; 6
      001966 01                    2047 	.db #0x01	; 1
      001967 00                    2048 	.db #0x00	; 0
      001968 00                    2049 	.db #0x00	; 0
      001969 7F                    2050 	.db #0x7f	; 127
      00196A 00                    2051 	.db #0x00	; 0
      00196B 00                    2052 	.db #0x00	; 0
      00196C 00                    2053 	.db #0x00	; 0
      00196D 00                    2054 	.db #0x00	; 0
      00196E 40                    2055 	.db #0x40	; 64
      00196F 40                    2056 	.db #0x40	; 64
      001970 7F                    2057 	.db #0x7f	; 127
      001971 40                    2058 	.db #0x40	; 64
      001972 40                    2059 	.db #0x40	; 64
      001973 00                    2060 	.db #0x00	; 0
      001974 00                    2061 	.db #0x00	; 0
      001975 00                    2062 	.db #0x00	; 0
      001976 1F                    2063 	.db #0x1f	; 31
      001977 20                    2064 	.db #0x20	; 32
      001978 40                    2065 	.db #0x40	; 64
      001979 40                    2066 	.db #0x40	; 64
      00197A 40                    2067 	.db #0x40	; 64
      00197B 40                    2068 	.db #0x40	; 64
      00197C 20                    2069 	.db #0x20	; 32
      00197D 1F                    2070 	.db #0x1f	; 31
      00197E 00                    2071 	.db #0x00	; 0
      00197F 00                    2072 	.db #0x00	; 0
      001980 00                    2073 	.db #0x00	; 0
      001981 00                    2074 	.db #0x00	; 0
      001982 40                    2075 	.db #0x40	; 64
      001983 40                    2076 	.db #0x40	; 64
      001984 7F                    2077 	.db #0x7f	; 127
      001985 40                    2078 	.db #0x40	; 64
      001986 40                    2079 	.db #0x40	; 64
      001987 00                    2080 	.db #0x00	; 0
      001988 00                    2081 	.db #0x00	; 0
      001989 00                    2082 	.db #0x00	; 0
      00198A 00                    2083 	.db #0x00	; 0
      00198B 60                    2084 	.db #0x60	; 96
      00198C 00                    2085 	.db #0x00	; 0
      00198D 00                    2086 	.db #0x00	; 0
      00198E 00                    2087 	.db #0x00	; 0
      00198F 00                    2088 	.db #0x00	; 0
      001990 40                    2089 	.db #0x40	; 64
      001991 30                    2090 	.db #0x30	; 48	'0'
      001992 0C                    2091 	.db #0x0c	; 12
      001993 03                    2092 	.db #0x03	; 3
      001994 00                    2093 	.db #0x00	; 0
      001995 00                    2094 	.db #0x00	; 0
      001996 00                    2095 	.db #0x00	; 0
      001997 00                    2096 	.db #0x00	; 0
      001998 E0                    2097 	.db #0xe0	; 224
      001999 E0                    2098 	.db #0xe0	; 224
      00199A 00                    2099 	.db #0x00	; 0
      00199B 00                    2100 	.db #0x00	; 0
      00199C 00                    2101 	.db #0x00	; 0
      00199D 00                    2102 	.db #0x00	; 0
      00199E 00                    2103 	.db #0x00	; 0
      00199F 00                    2104 	.db #0x00	; 0
      0019A0 00                    2105 	.db #0x00	; 0
      0019A1 00                    2106 	.db #0x00	; 0
      0019A2 00                    2107 	.db #0x00	; 0
      0019A3 00                    2108 	.db #0x00	; 0
      0019A4 00                    2109 	.db #0x00	; 0
      0019A5 00                    2110 	.db #0x00	; 0
      0019A6 00                    2111 	.db #0x00	; 0
      0019A7 00                    2112 	.db #0x00	; 0
      0019A8 00                    2113 	.db #0x00	; 0
      0019A9 00                    2114 	.db #0x00	; 0
      0019AA 00                    2115 	.db #0x00	; 0
      0019AB 00                    2116 	.db #0x00	; 0
      0019AC 00                    2117 	.db #0x00	; 0
      0019AD 00                    2118 	.db #0x00	; 0
      0019AE 00                    2119 	.db #0x00	; 0
      0019AF 00                    2120 	.db #0x00	; 0
      0019B0 00                    2121 	.db #0x00	; 0
      0019B1 00                    2122 	.db #0x00	; 0
      0019B2 00                    2123 	.db #0x00	; 0
      0019B3 00                    2124 	.db #0x00	; 0
      0019B4 00                    2125 	.db #0x00	; 0
      0019B5 00                    2126 	.db #0x00	; 0
      0019B6 00                    2127 	.db #0x00	; 0
      0019B7 00                    2128 	.db #0x00	; 0
      0019B8 00                    2129 	.db #0x00	; 0
      0019B9 00                    2130 	.db #0x00	; 0
      0019BA 00                    2131 	.db #0x00	; 0
      0019BB 00                    2132 	.db #0x00	; 0
      0019BC 00                    2133 	.db #0x00	; 0
      0019BD 00                    2134 	.db #0x00	; 0
      0019BE 00                    2135 	.db #0x00	; 0
      0019BF 00                    2136 	.db #0x00	; 0
      0019C0 00                    2137 	.db #0x00	; 0
      0019C1 00                    2138 	.db #0x00	; 0
      0019C2 00                    2139 	.db #0x00	; 0
      0019C3 00                    2140 	.db #0x00	; 0
      0019C4 00                    2141 	.db #0x00	; 0
      0019C5 00                    2142 	.db #0x00	; 0
      0019C6 00                    2143 	.db #0x00	; 0
      0019C7 00                    2144 	.db #0x00	; 0
      0019C8 00                    2145 	.db #0x00	; 0
      0019C9 00                    2146 	.db #0x00	; 0
      0019CA 00                    2147 	.db #0x00	; 0
      0019CB 00                    2148 	.db #0x00	; 0
      0019CC 00                    2149 	.db #0x00	; 0
      0019CD 00                    2150 	.db #0x00	; 0
      0019CE 00                    2151 	.db #0x00	; 0
      0019CF 00                    2152 	.db #0x00	; 0
      0019D0 00                    2153 	.db #0x00	; 0
      0019D1 00                    2154 	.db #0x00	; 0
      0019D2 07                    2155 	.db #0x07	; 7
      0019D3 07                    2156 	.db #0x07	; 7
      0019D4 06                    2157 	.db #0x06	; 6
      0019D5 06                    2158 	.db #0x06	; 6
      0019D6 06                    2159 	.db #0x06	; 6
      0019D7 06                    2160 	.db #0x06	; 6
      0019D8 04                    2161 	.db #0x04	; 4
      0019D9 04                    2162 	.db #0x04	; 4
      0019DA 04                    2163 	.db #0x04	; 4
      0019DB 84                    2164 	.db #0x84	; 132
      0019DC 44                    2165 	.db #0x44	; 68	'D'
      0019DD 44                    2166 	.db #0x44	; 68	'D'
      0019DE 44                    2167 	.db #0x44	; 68	'D'
      0019DF 84                    2168 	.db #0x84	; 132
      0019E0 04                    2169 	.db #0x04	; 4
      0019E1 04                    2170 	.db #0x04	; 4
      0019E2 84                    2171 	.db #0x84	; 132
      0019E3 44                    2172 	.db #0x44	; 68	'D'
      0019E4 44                    2173 	.db #0x44	; 68	'D'
      0019E5 44                    2174 	.db #0x44	; 68	'D'
      0019E6 84                    2175 	.db #0x84	; 132
      0019E7 04                    2176 	.db #0x04	; 4
      0019E8 04                    2177 	.db #0x04	; 4
      0019E9 04                    2178 	.db #0x04	; 4
      0019EA 84                    2179 	.db #0x84	; 132
      0019EB C4                    2180 	.db #0xc4	; 196
      0019EC 04                    2181 	.db #0x04	; 4
      0019ED 04                    2182 	.db #0x04	; 4
      0019EE 04                    2183 	.db #0x04	; 4
      0019EF 04                    2184 	.db #0x04	; 4
      0019F0 84                    2185 	.db #0x84	; 132
      0019F1 44                    2186 	.db #0x44	; 68	'D'
      0019F2 44                    2187 	.db #0x44	; 68	'D'
      0019F3 44                    2188 	.db #0x44	; 68	'D'
      0019F4 84                    2189 	.db #0x84	; 132
      0019F5 04                    2190 	.db #0x04	; 4
      0019F6 04                    2191 	.db #0x04	; 4
      0019F7 04                    2192 	.db #0x04	; 4
      0019F8 04                    2193 	.db #0x04	; 4
      0019F9 04                    2194 	.db #0x04	; 4
      0019FA 84                    2195 	.db #0x84	; 132
      0019FB 44                    2196 	.db #0x44	; 68	'D'
      0019FC 44                    2197 	.db #0x44	; 68	'D'
      0019FD 44                    2198 	.db #0x44	; 68	'D'
      0019FE 84                    2199 	.db #0x84	; 132
      0019FF 04                    2200 	.db #0x04	; 4
      001A00 04                    2201 	.db #0x04	; 4
      001A01 04                    2202 	.db #0x04	; 4
      001A02 04                    2203 	.db #0x04	; 4
      001A03 04                    2204 	.db #0x04	; 4
      001A04 84                    2205 	.db #0x84	; 132
      001A05 44                    2206 	.db #0x44	; 68	'D'
      001A06 44                    2207 	.db #0x44	; 68	'D'
      001A07 44                    2208 	.db #0x44	; 68	'D'
      001A08 84                    2209 	.db #0x84	; 132
      001A09 04                    2210 	.db #0x04	; 4
      001A0A 04                    2211 	.db #0x04	; 4
      001A0B 84                    2212 	.db #0x84	; 132
      001A0C 44                    2213 	.db #0x44	; 68	'D'
      001A0D 44                    2214 	.db #0x44	; 68	'D'
      001A0E 44                    2215 	.db #0x44	; 68	'D'
      001A0F 84                    2216 	.db #0x84	; 132
      001A10 04                    2217 	.db #0x04	; 4
      001A11 04                    2218 	.db #0x04	; 4
      001A12 04                    2219 	.db #0x04	; 4
      001A13 04                    2220 	.db #0x04	; 4
      001A14 06                    2221 	.db #0x06	; 6
      001A15 06                    2222 	.db #0x06	; 6
      001A16 06                    2223 	.db #0x06	; 6
      001A17 06                    2224 	.db #0x06	; 6
      001A18 07                    2225 	.db #0x07	; 7
      001A19 07                    2226 	.db #0x07	; 7
      001A1A 00                    2227 	.db #0x00	; 0
      001A1B 00                    2228 	.db #0x00	; 0
      001A1C 00                    2229 	.db #0x00	; 0
      001A1D 00                    2230 	.db #0x00	; 0
      001A1E 00                    2231 	.db #0x00	; 0
      001A1F 00                    2232 	.db #0x00	; 0
      001A20 00                    2233 	.db #0x00	; 0
      001A21 00                    2234 	.db #0x00	; 0
      001A22 00                    2235 	.db #0x00	; 0
      001A23 00                    2236 	.db #0x00	; 0
      001A24 00                    2237 	.db #0x00	; 0
      001A25 00                    2238 	.db #0x00	; 0
      001A26 00                    2239 	.db #0x00	; 0
      001A27 00                    2240 	.db #0x00	; 0
      001A28 00                    2241 	.db #0x00	; 0
      001A29 00                    2242 	.db #0x00	; 0
      001A2A 00                    2243 	.db #0x00	; 0
      001A2B 00                    2244 	.db #0x00	; 0
      001A2C 00                    2245 	.db #0x00	; 0
      001A2D 00                    2246 	.db #0x00	; 0
      001A2E 00                    2247 	.db #0x00	; 0
      001A2F 00                    2248 	.db #0x00	; 0
      001A30 00                    2249 	.db #0x00	; 0
      001A31 00                    2250 	.db #0x00	; 0
      001A32 00                    2251 	.db #0x00	; 0
      001A33 00                    2252 	.db #0x00	; 0
      001A34 00                    2253 	.db #0x00	; 0
      001A35 00                    2254 	.db #0x00	; 0
      001A36 00                    2255 	.db #0x00	; 0
      001A37 00                    2256 	.db #0x00	; 0
      001A38 00                    2257 	.db #0x00	; 0
      001A39 00                    2258 	.db #0x00	; 0
      001A3A 00                    2259 	.db #0x00	; 0
      001A3B 00                    2260 	.db #0x00	; 0
      001A3C 00                    2261 	.db #0x00	; 0
      001A3D 00                    2262 	.db #0x00	; 0
      001A3E 00                    2263 	.db #0x00	; 0
      001A3F 00                    2264 	.db #0x00	; 0
      001A40 00                    2265 	.db #0x00	; 0
      001A41 00                    2266 	.db #0x00	; 0
      001A42 00                    2267 	.db #0x00	; 0
      001A43 00                    2268 	.db #0x00	; 0
      001A44 00                    2269 	.db #0x00	; 0
      001A45 00                    2270 	.db #0x00	; 0
      001A46 00                    2271 	.db #0x00	; 0
      001A47 00                    2272 	.db #0x00	; 0
      001A48 00                    2273 	.db #0x00	; 0
      001A49 00                    2274 	.db #0x00	; 0
      001A4A 00                    2275 	.db #0x00	; 0
      001A4B 00                    2276 	.db #0x00	; 0
      001A4C 00                    2277 	.db #0x00	; 0
      001A4D 00                    2278 	.db #0x00	; 0
      001A4E 00                    2279 	.db #0x00	; 0
      001A4F 00                    2280 	.db #0x00	; 0
      001A50 00                    2281 	.db #0x00	; 0
      001A51 00                    2282 	.db #0x00	; 0
      001A52 00                    2283 	.db #0x00	; 0
      001A53 00                    2284 	.db #0x00	; 0
      001A54 00                    2285 	.db #0x00	; 0
      001A55 00                    2286 	.db #0x00	; 0
      001A56 00                    2287 	.db #0x00	; 0
      001A57 00                    2288 	.db #0x00	; 0
      001A58 00                    2289 	.db #0x00	; 0
      001A59 00                    2290 	.db #0x00	; 0
      001A5A 00                    2291 	.db #0x00	; 0
      001A5B 10                    2292 	.db #0x10	; 16
      001A5C 18                    2293 	.db #0x18	; 24
      001A5D 14                    2294 	.db #0x14	; 20
      001A5E 12                    2295 	.db #0x12	; 18
      001A5F 11                    2296 	.db #0x11	; 17
      001A60 00                    2297 	.db #0x00	; 0
      001A61 00                    2298 	.db #0x00	; 0
      001A62 0F                    2299 	.db #0x0f	; 15
      001A63 10                    2300 	.db #0x10	; 16
      001A64 10                    2301 	.db #0x10	; 16
      001A65 10                    2302 	.db #0x10	; 16
      001A66 0F                    2303 	.db #0x0f	; 15
      001A67 00                    2304 	.db #0x00	; 0
      001A68 00                    2305 	.db #0x00	; 0
      001A69 00                    2306 	.db #0x00	; 0
      001A6A 10                    2307 	.db #0x10	; 16
      001A6B 1F                    2308 	.db #0x1f	; 31
      001A6C 10                    2309 	.db #0x10	; 16
      001A6D 00                    2310 	.db #0x00	; 0
      001A6E 00                    2311 	.db #0x00	; 0
      001A6F 00                    2312 	.db #0x00	; 0
      001A70 08                    2313 	.db #0x08	; 8
      001A71 10                    2314 	.db #0x10	; 16
      001A72 12                    2315 	.db #0x12	; 18
      001A73 12                    2316 	.db #0x12	; 18
      001A74 0D                    2317 	.db #0x0d	; 13
      001A75 00                    2318 	.db #0x00	; 0
      001A76 00                    2319 	.db #0x00	; 0
      001A77 18                    2320 	.db #0x18	; 24
      001A78 00                    2321 	.db #0x00	; 0
      001A79 00                    2322 	.db #0x00	; 0
      001A7A 0D                    2323 	.db #0x0d	; 13
      001A7B 12                    2324 	.db #0x12	; 18
      001A7C 12                    2325 	.db #0x12	; 18
      001A7D 12                    2326 	.db #0x12	; 18
      001A7E 0D                    2327 	.db #0x0d	; 13
      001A7F 00                    2328 	.db #0x00	; 0
      001A80 00                    2329 	.db #0x00	; 0
      001A81 18                    2330 	.db #0x18	; 24
      001A82 00                    2331 	.db #0x00	; 0
      001A83 00                    2332 	.db #0x00	; 0
      001A84 10                    2333 	.db #0x10	; 16
      001A85 18                    2334 	.db #0x18	; 24
      001A86 14                    2335 	.db #0x14	; 20
      001A87 12                    2336 	.db #0x12	; 18
      001A88 11                    2337 	.db #0x11	; 17
      001A89 00                    2338 	.db #0x00	; 0
      001A8A 00                    2339 	.db #0x00	; 0
      001A8B 10                    2340 	.db #0x10	; 16
      001A8C 18                    2341 	.db #0x18	; 24
      001A8D 14                    2342 	.db #0x14	; 20
      001A8E 12                    2343 	.db #0x12	; 18
      001A8F 11                    2344 	.db #0x11	; 17
      001A90 00                    2345 	.db #0x00	; 0
      001A91 00                    2346 	.db #0x00	; 0
      001A92 00                    2347 	.db #0x00	; 0
      001A93 00                    2348 	.db #0x00	; 0
      001A94 00                    2349 	.db #0x00	; 0
      001A95 00                    2350 	.db #0x00	; 0
      001A96 00                    2351 	.db #0x00	; 0
      001A97 00                    2352 	.db #0x00	; 0
      001A98 00                    2353 	.db #0x00	; 0
      001A99 00                    2354 	.db #0x00	; 0
      001A9A 00                    2355 	.db #0x00	; 0
      001A9B 00                    2356 	.db #0x00	; 0
      001A9C 00                    2357 	.db #0x00	; 0
      001A9D 00                    2358 	.db #0x00	; 0
      001A9E 00                    2359 	.db #0x00	; 0
      001A9F 00                    2360 	.db #0x00	; 0
      001AA0 00                    2361 	.db #0x00	; 0
      001AA1 00                    2362 	.db #0x00	; 0
      001AA2 00                    2363 	.db #0x00	; 0
      001AA3 00                    2364 	.db #0x00	; 0
      001AA4 00                    2365 	.db #0x00	; 0
      001AA5 00                    2366 	.db #0x00	; 0
      001AA6 00                    2367 	.db #0x00	; 0
      001AA7 00                    2368 	.db #0x00	; 0
      001AA8 00                    2369 	.db #0x00	; 0
      001AA9 00                    2370 	.db #0x00	; 0
      001AAA 00                    2371 	.db #0x00	; 0
      001AAB 00                    2372 	.db #0x00	; 0
      001AAC 00                    2373 	.db #0x00	; 0
      001AAD 00                    2374 	.db #0x00	; 0
      001AAE 00                    2375 	.db #0x00	; 0
      001AAF 00                    2376 	.db #0x00	; 0
      001AB0 00                    2377 	.db #0x00	; 0
      001AB1 00                    2378 	.db #0x00	; 0
      001AB2 00                    2379 	.db #0x00	; 0
      001AB3 00                    2380 	.db #0x00	; 0
      001AB4 00                    2381 	.db #0x00	; 0
      001AB5 00                    2382 	.db #0x00	; 0
      001AB6 00                    2383 	.db #0x00	; 0
      001AB7 00                    2384 	.db #0x00	; 0
      001AB8 00                    2385 	.db #0x00	; 0
      001AB9 00                    2386 	.db #0x00	; 0
      001ABA 00                    2387 	.db #0x00	; 0
      001ABB 00                    2388 	.db #0x00	; 0
      001ABC 00                    2389 	.db #0x00	; 0
      001ABD 00                    2390 	.db #0x00	; 0
      001ABE 00                    2391 	.db #0x00	; 0
      001ABF 00                    2392 	.db #0x00	; 0
      001AC0 00                    2393 	.db #0x00	; 0
      001AC1 00                    2394 	.db #0x00	; 0
      001AC2 00                    2395 	.db #0x00	; 0
      001AC3 00                    2396 	.db #0x00	; 0
      001AC4 00                    2397 	.db #0x00	; 0
      001AC5 00                    2398 	.db #0x00	; 0
      001AC6 00                    2399 	.db #0x00	; 0
      001AC7 00                    2400 	.db #0x00	; 0
      001AC8 00                    2401 	.db #0x00	; 0
      001AC9 00                    2402 	.db #0x00	; 0
      001ACA 00                    2403 	.db #0x00	; 0
      001ACB 00                    2404 	.db #0x00	; 0
      001ACC 00                    2405 	.db #0x00	; 0
      001ACD 00                    2406 	.db #0x00	; 0
      001ACE 00                    2407 	.db #0x00	; 0
      001ACF 00                    2408 	.db #0x00	; 0
      001AD0 00                    2409 	.db #0x00	; 0
      001AD1 00                    2410 	.db #0x00	; 0
      001AD2 00                    2411 	.db #0x00	; 0
      001AD3 00                    2412 	.db #0x00	; 0
      001AD4 00                    2413 	.db #0x00	; 0
      001AD5 00                    2414 	.db #0x00	; 0
      001AD6 00                    2415 	.db #0x00	; 0
      001AD7 00                    2416 	.db #0x00	; 0
      001AD8 00                    2417 	.db #0x00	; 0
      001AD9 00                    2418 	.db #0x00	; 0
      001ADA 00                    2419 	.db #0x00	; 0
      001ADB 00                    2420 	.db #0x00	; 0
      001ADC 00                    2421 	.db #0x00	; 0
      001ADD 00                    2422 	.db #0x00	; 0
      001ADE 00                    2423 	.db #0x00	; 0
      001ADF 00                    2424 	.db #0x00	; 0
      001AE0 00                    2425 	.db #0x00	; 0
      001AE1 00                    2426 	.db #0x00	; 0
      001AE2 00                    2427 	.db #0x00	; 0
      001AE3 00                    2428 	.db #0x00	; 0
      001AE4 00                    2429 	.db #0x00	; 0
      001AE5 00                    2430 	.db #0x00	; 0
      001AE6 00                    2431 	.db #0x00	; 0
      001AE7 00                    2432 	.db #0x00	; 0
      001AE8 00                    2433 	.db #0x00	; 0
      001AE9 00                    2434 	.db #0x00	; 0
      001AEA 00                    2435 	.db #0x00	; 0
      001AEB 00                    2436 	.db #0x00	; 0
      001AEC 00                    2437 	.db #0x00	; 0
      001AED 00                    2438 	.db #0x00	; 0
      001AEE 00                    2439 	.db #0x00	; 0
      001AEF 00                    2440 	.db #0x00	; 0
      001AF0 00                    2441 	.db #0x00	; 0
      001AF1 00                    2442 	.db #0x00	; 0
      001AF2 80                    2443 	.db #0x80	; 128
      001AF3 80                    2444 	.db #0x80	; 128
      001AF4 80                    2445 	.db #0x80	; 128
      001AF5 80                    2446 	.db #0x80	; 128
      001AF6 80                    2447 	.db #0x80	; 128
      001AF7 80                    2448 	.db #0x80	; 128
      001AF8 80                    2449 	.db #0x80	; 128
      001AF9 80                    2450 	.db #0x80	; 128
      001AFA 00                    2451 	.db #0x00	; 0
      001AFB 00                    2452 	.db #0x00	; 0
      001AFC 00                    2453 	.db #0x00	; 0
      001AFD 00                    2454 	.db #0x00	; 0
      001AFE 00                    2455 	.db #0x00	; 0
      001AFF 00                    2456 	.db #0x00	; 0
      001B00 00                    2457 	.db #0x00	; 0
      001B01 00                    2458 	.db #0x00	; 0
      001B02 00                    2459 	.db #0x00	; 0
      001B03 00                    2460 	.db #0x00	; 0
      001B04 00                    2461 	.db #0x00	; 0
      001B05 00                    2462 	.db #0x00	; 0
      001B06 00                    2463 	.db #0x00	; 0
      001B07 00                    2464 	.db #0x00	; 0
      001B08 00                    2465 	.db #0x00	; 0
      001B09 00                    2466 	.db #0x00	; 0
      001B0A 00                    2467 	.db #0x00	; 0
      001B0B 00                    2468 	.db #0x00	; 0
      001B0C 00                    2469 	.db #0x00	; 0
      001B0D 00                    2470 	.db #0x00	; 0
      001B0E 00                    2471 	.db #0x00	; 0
      001B0F 00                    2472 	.db #0x00	; 0
      001B10 00                    2473 	.db #0x00	; 0
      001B11 00                    2474 	.db #0x00	; 0
      001B12 00                    2475 	.db #0x00	; 0
      001B13 00                    2476 	.db #0x00	; 0
      001B14 00                    2477 	.db #0x00	; 0
      001B15 00                    2478 	.db #0x00	; 0
      001B16 00                    2479 	.db #0x00	; 0
      001B17 00                    2480 	.db #0x00	; 0
      001B18 00                    2481 	.db #0x00	; 0
      001B19 00                    2482 	.db #0x00	; 0
      001B1A 00                    2483 	.db #0x00	; 0
      001B1B 00                    2484 	.db #0x00	; 0
      001B1C 00                    2485 	.db #0x00	; 0
      001B1D 00                    2486 	.db #0x00	; 0
      001B1E 00                    2487 	.db #0x00	; 0
      001B1F 00                    2488 	.db #0x00	; 0
      001B20 00                    2489 	.db #0x00	; 0
      001B21 00                    2490 	.db #0x00	; 0
      001B22 00                    2491 	.db #0x00	; 0
      001B23 00                    2492 	.db #0x00	; 0
      001B24 00                    2493 	.db #0x00	; 0
      001B25 00                    2494 	.db #0x00	; 0
      001B26 00                    2495 	.db #0x00	; 0
      001B27 00                    2496 	.db #0x00	; 0
      001B28 00                    2497 	.db #0x00	; 0
      001B29 00                    2498 	.db #0x00	; 0
      001B2A 00                    2499 	.db #0x00	; 0
      001B2B 00                    2500 	.db #0x00	; 0
      001B2C 00                    2501 	.db #0x00	; 0
      001B2D 00                    2502 	.db #0x00	; 0
      001B2E 00                    2503 	.db #0x00	; 0
      001B2F 00                    2504 	.db #0x00	; 0
      001B30 00                    2505 	.db #0x00	; 0
      001B31 00                    2506 	.db #0x00	; 0
      001B32 00                    2507 	.db #0x00	; 0
      001B33 00                    2508 	.db #0x00	; 0
      001B34 00                    2509 	.db #0x00	; 0
      001B35 00                    2510 	.db #0x00	; 0
      001B36 00                    2511 	.db #0x00	; 0
      001B37 7F                    2512 	.db #0x7f	; 127
      001B38 03                    2513 	.db #0x03	; 3
      001B39 0C                    2514 	.db #0x0c	; 12
      001B3A 30                    2515 	.db #0x30	; 48	'0'
      001B3B 0C                    2516 	.db #0x0c	; 12
      001B3C 03                    2517 	.db #0x03	; 3
      001B3D 7F                    2518 	.db #0x7f	; 127
      001B3E 00                    2519 	.db #0x00	; 0
      001B3F 00                    2520 	.db #0x00	; 0
      001B40 38                    2521 	.db #0x38	; 56	'8'
      001B41 54                    2522 	.db #0x54	; 84	'T'
      001B42 54                    2523 	.db #0x54	; 84	'T'
      001B43 58                    2524 	.db #0x58	; 88	'X'
      001B44 00                    2525 	.db #0x00	; 0
      001B45 00                    2526 	.db #0x00	; 0
      001B46 7C                    2527 	.db #0x7c	; 124
      001B47 04                    2528 	.db #0x04	; 4
      001B48 04                    2529 	.db #0x04	; 4
      001B49 78                    2530 	.db #0x78	; 120	'x'
      001B4A 00                    2531 	.db #0x00	; 0
      001B4B 00                    2532 	.db #0x00	; 0
      001B4C 3C                    2533 	.db #0x3c	; 60
      001B4D 40                    2534 	.db #0x40	; 64
      001B4E 40                    2535 	.db #0x40	; 64
      001B4F 7C                    2536 	.db #0x7c	; 124
      001B50 00                    2537 	.db #0x00	; 0
      001B51 00                    2538 	.db #0x00	; 0
      001B52 00                    2539 	.db #0x00	; 0
      001B53 00                    2540 	.db #0x00	; 0
      001B54 00                    2541 	.db #0x00	; 0
      001B55 00                    2542 	.db #0x00	; 0
      001B56 00                    2543 	.db #0x00	; 0
      001B57 00                    2544 	.db #0x00	; 0
      001B58 00                    2545 	.db #0x00	; 0
      001B59 00                    2546 	.db #0x00	; 0
      001B5A 00                    2547 	.db #0x00	; 0
      001B5B 00                    2548 	.db #0x00	; 0
      001B5C 00                    2549 	.db #0x00	; 0
      001B5D 00                    2550 	.db #0x00	; 0
      001B5E 00                    2551 	.db #0x00	; 0
      001B5F 00                    2552 	.db #0x00	; 0
      001B60 00                    2553 	.db #0x00	; 0
      001B61 00                    2554 	.db #0x00	; 0
      001B62 00                    2555 	.db #0x00	; 0
      001B63 00                    2556 	.db #0x00	; 0
      001B64 00                    2557 	.db #0x00	; 0
      001B65 00                    2558 	.db #0x00	; 0
      001B66 00                    2559 	.db #0x00	; 0
      001B67 00                    2560 	.db #0x00	; 0
      001B68 00                    2561 	.db #0x00	; 0
      001B69 00                    2562 	.db #0x00	; 0
      001B6A 00                    2563 	.db #0x00	; 0
      001B6B 00                    2564 	.db #0x00	; 0
      001B6C 00                    2565 	.db #0x00	; 0
      001B6D 00                    2566 	.db #0x00	; 0
      001B6E 00                    2567 	.db #0x00	; 0
      001B6F 00                    2568 	.db #0x00	; 0
      001B70 00                    2569 	.db #0x00	; 0
      001B71 00                    2570 	.db #0x00	; 0
      001B72 FF                    2571 	.db #0xff	; 255
      001B73 AA                    2572 	.db #0xaa	; 170
      001B74 AA                    2573 	.db #0xaa	; 170
      001B75 AA                    2574 	.db #0xaa	; 170
      001B76 28                    2575 	.db #0x28	; 40
      001B77 08                    2576 	.db #0x08	; 8
      001B78 00                    2577 	.db #0x00	; 0
      001B79 FF                    2578 	.db #0xff	; 255
      001B7A 00                    2579 	.db #0x00	; 0
      001B7B 00                    2580 	.db #0x00	; 0
      001B7C 00                    2581 	.db #0x00	; 0
      001B7D 00                    2582 	.db #0x00	; 0
      001B7E 00                    2583 	.db #0x00	; 0
      001B7F 00                    2584 	.db #0x00	; 0
      001B80 00                    2585 	.db #0x00	; 0
      001B81 00                    2586 	.db #0x00	; 0
      001B82 00                    2587 	.db #0x00	; 0
      001B83 00                    2588 	.db #0x00	; 0
      001B84 00                    2589 	.db #0x00	; 0
      001B85 00                    2590 	.db #0x00	; 0
      001B86 00                    2591 	.db #0x00	; 0
      001B87 00                    2592 	.db #0x00	; 0
      001B88 00                    2593 	.db #0x00	; 0
      001B89 00                    2594 	.db #0x00	; 0
      001B8A 00                    2595 	.db #0x00	; 0
      001B8B 00                    2596 	.db #0x00	; 0
      001B8C 00                    2597 	.db #0x00	; 0
      001B8D 00                    2598 	.db #0x00	; 0
      001B8E 00                    2599 	.db #0x00	; 0
      001B8F 00                    2600 	.db #0x00	; 0
      001B90 00                    2601 	.db #0x00	; 0
      001B91 00                    2602 	.db #0x00	; 0
      001B92 00                    2603 	.db #0x00	; 0
      001B93 00                    2604 	.db #0x00	; 0
      001B94 00                    2605 	.db #0x00	; 0
      001B95 00                    2606 	.db #0x00	; 0
      001B96 00                    2607 	.db #0x00	; 0
      001B97 00                    2608 	.db #0x00	; 0
      001B98 00                    2609 	.db #0x00	; 0
      001B99 00                    2610 	.db #0x00	; 0
      001B9A 00                    2611 	.db #0x00	; 0
      001B9B 00                    2612 	.db #0x00	; 0
      001B9C 00                    2613 	.db #0x00	; 0
      001B9D 00                    2614 	.db #0x00	; 0
      001B9E 00                    2615 	.db #0x00	; 0
      001B9F 7F                    2616 	.db #0x7f	; 127
      001BA0 03                    2617 	.db #0x03	; 3
      001BA1 0C                    2618 	.db #0x0c	; 12
      001BA2 30                    2619 	.db #0x30	; 48	'0'
      001BA3 0C                    2620 	.db #0x0c	; 12
      001BA4 03                    2621 	.db #0x03	; 3
      001BA5 7F                    2622 	.db #0x7f	; 127
      001BA6 00                    2623 	.db #0x00	; 0
      001BA7 00                    2624 	.db #0x00	; 0
      001BA8 26                    2625 	.db #0x26	; 38
      001BA9 49                    2626 	.db #0x49	; 73	'I'
      001BAA 49                    2627 	.db #0x49	; 73	'I'
      001BAB 49                    2628 	.db #0x49	; 73	'I'
      001BAC 32                    2629 	.db #0x32	; 50	'2'
      001BAD 00                    2630 	.db #0x00	; 0
      001BAE 00                    2631 	.db #0x00	; 0
      001BAF 7F                    2632 	.db #0x7f	; 127
      001BB0 02                    2633 	.db #0x02	; 2
      001BB1 04                    2634 	.db #0x04	; 4
      001BB2 08                    2635 	.db #0x08	; 8
      001BB3 10                    2636 	.db #0x10	; 16
      001BB4 7F                    2637 	.db #0x7f	; 127
      001BB5 00                    2638 	.db #0x00	; 0
      001BB6                       2639 _BMP2:
      001BB6 00                    2640 	.db #0x00	; 0
      001BB7 03                    2641 	.db #0x03	; 3
      001BB8 05                    2642 	.db #0x05	; 5
      001BB9 09                    2643 	.db #0x09	; 9
      001BBA 11                    2644 	.db #0x11	; 17
      001BBB FF                    2645 	.db #0xff	; 255
      001BBC 11                    2646 	.db #0x11	; 17
      001BBD 89                    2647 	.db #0x89	; 137
      001BBE 05                    2648 	.db #0x05	; 5
      001BBF C3                    2649 	.db #0xc3	; 195
      001BC0 00                    2650 	.db #0x00	; 0
      001BC1 E0                    2651 	.db #0xe0	; 224
      001BC2 00                    2652 	.db #0x00	; 0
      001BC3 F0                    2653 	.db #0xf0	; 240
      001BC4 00                    2654 	.db #0x00	; 0
      001BC5 F8                    2655 	.db #0xf8	; 248
      001BC6 00                    2656 	.db #0x00	; 0
      001BC7 00                    2657 	.db #0x00	; 0
      001BC8 00                    2658 	.db #0x00	; 0
      001BC9 00                    2659 	.db #0x00	; 0
      001BCA 00                    2660 	.db #0x00	; 0
      001BCB 00                    2661 	.db #0x00	; 0
      001BCC 00                    2662 	.db #0x00	; 0
      001BCD 44                    2663 	.db #0x44	; 68	'D'
      001BCE 28                    2664 	.db #0x28	; 40
      001BCF FF                    2665 	.db #0xff	; 255
      001BD0 11                    2666 	.db #0x11	; 17
      001BD1 AA                    2667 	.db #0xaa	; 170
      001BD2 44                    2668 	.db #0x44	; 68	'D'
      001BD3 00                    2669 	.db #0x00	; 0
      001BD4 00                    2670 	.db #0x00	; 0
      001BD5 00                    2671 	.db #0x00	; 0
      001BD6 00                    2672 	.db #0x00	; 0
      001BD7 00                    2673 	.db #0x00	; 0
      001BD8 00                    2674 	.db #0x00	; 0
      001BD9 00                    2675 	.db #0x00	; 0
      001BDA 00                    2676 	.db #0x00	; 0
      001BDB 00                    2677 	.db #0x00	; 0
      001BDC 00                    2678 	.db #0x00	; 0
      001BDD 00                    2679 	.db #0x00	; 0
      001BDE 00                    2680 	.db #0x00	; 0
      001BDF 00                    2681 	.db #0x00	; 0
      001BE0 00                    2682 	.db #0x00	; 0
      001BE1 00                    2683 	.db #0x00	; 0
      001BE2 00                    2684 	.db #0x00	; 0
      001BE3 00                    2685 	.db #0x00	; 0
      001BE4 00                    2686 	.db #0x00	; 0
      001BE5 00                    2687 	.db #0x00	; 0
      001BE6 00                    2688 	.db #0x00	; 0
      001BE7 00                    2689 	.db #0x00	; 0
      001BE8 00                    2690 	.db #0x00	; 0
      001BE9 00                    2691 	.db #0x00	; 0
      001BEA 00                    2692 	.db #0x00	; 0
      001BEB 00                    2693 	.db #0x00	; 0
      001BEC 00                    2694 	.db #0x00	; 0
      001BED 00                    2695 	.db #0x00	; 0
      001BEE 00                    2696 	.db #0x00	; 0
      001BEF 00                    2697 	.db #0x00	; 0
      001BF0 00                    2698 	.db #0x00	; 0
      001BF1 00                    2699 	.db #0x00	; 0
      001BF2 00                    2700 	.db #0x00	; 0
      001BF3 00                    2701 	.db #0x00	; 0
      001BF4 00                    2702 	.db #0x00	; 0
      001BF5 00                    2703 	.db #0x00	; 0
      001BF6 00                    2704 	.db #0x00	; 0
      001BF7 00                    2705 	.db #0x00	; 0
      001BF8 00                    2706 	.db #0x00	; 0
      001BF9 00                    2707 	.db #0x00	; 0
      001BFA 00                    2708 	.db #0x00	; 0
      001BFB 00                    2709 	.db #0x00	; 0
      001BFC 00                    2710 	.db #0x00	; 0
      001BFD 00                    2711 	.db #0x00	; 0
      001BFE 00                    2712 	.db #0x00	; 0
      001BFF 00                    2713 	.db #0x00	; 0
      001C00 00                    2714 	.db #0x00	; 0
      001C01 00                    2715 	.db #0x00	; 0
      001C02 00                    2716 	.db #0x00	; 0
      001C03 00                    2717 	.db #0x00	; 0
      001C04 00                    2718 	.db #0x00	; 0
      001C05 00                    2719 	.db #0x00	; 0
      001C06 00                    2720 	.db #0x00	; 0
      001C07 00                    2721 	.db #0x00	; 0
      001C08 00                    2722 	.db #0x00	; 0
      001C09 00                    2723 	.db #0x00	; 0
      001C0A 00                    2724 	.db #0x00	; 0
      001C0B 00                    2725 	.db #0x00	; 0
      001C0C 00                    2726 	.db #0x00	; 0
      001C0D 00                    2727 	.db #0x00	; 0
      001C0E 00                    2728 	.db #0x00	; 0
      001C0F 00                    2729 	.db #0x00	; 0
      001C10 83                    2730 	.db #0x83	; 131
      001C11 01                    2731 	.db #0x01	; 1
      001C12 38                    2732 	.db #0x38	; 56	'8'
      001C13 44                    2733 	.db #0x44	; 68	'D'
      001C14 82                    2734 	.db #0x82	; 130
      001C15 92                    2735 	.db #0x92	; 146
      001C16 92                    2736 	.db #0x92	; 146
      001C17 74                    2737 	.db #0x74	; 116	't'
      001C18 01                    2738 	.db #0x01	; 1
      001C19 83                    2739 	.db #0x83	; 131
      001C1A 00                    2740 	.db #0x00	; 0
      001C1B 00                    2741 	.db #0x00	; 0
      001C1C 00                    2742 	.db #0x00	; 0
      001C1D 00                    2743 	.db #0x00	; 0
      001C1E 00                    2744 	.db #0x00	; 0
      001C1F 00                    2745 	.db #0x00	; 0
      001C20 00                    2746 	.db #0x00	; 0
      001C21 7C                    2747 	.db #0x7c	; 124
      001C22 44                    2748 	.db #0x44	; 68	'D'
      001C23 FF                    2749 	.db #0xff	; 255
      001C24 01                    2750 	.db #0x01	; 1
      001C25 7D                    2751 	.db #0x7d	; 125
      001C26 7D                    2752 	.db #0x7d	; 125
      001C27 7D                    2753 	.db #0x7d	; 125
      001C28 7D                    2754 	.db #0x7d	; 125
      001C29 01                    2755 	.db #0x01	; 1
      001C2A 7D                    2756 	.db #0x7d	; 125
      001C2B 7D                    2757 	.db #0x7d	; 125
      001C2C 7D                    2758 	.db #0x7d	; 125
      001C2D 7D                    2759 	.db #0x7d	; 125
      001C2E 01                    2760 	.db #0x01	; 1
      001C2F 7D                    2761 	.db #0x7d	; 125
      001C30 7D                    2762 	.db #0x7d	; 125
      001C31 7D                    2763 	.db #0x7d	; 125
      001C32 7D                    2764 	.db #0x7d	; 125
      001C33 01                    2765 	.db #0x01	; 1
      001C34 FF                    2766 	.db #0xff	; 255
      001C35 00                    2767 	.db #0x00	; 0
      001C36 00                    2768 	.db #0x00	; 0
      001C37 00                    2769 	.db #0x00	; 0
      001C38 00                    2770 	.db #0x00	; 0
      001C39 00                    2771 	.db #0x00	; 0
      001C3A 00                    2772 	.db #0x00	; 0
      001C3B 01                    2773 	.db #0x01	; 1
      001C3C 00                    2774 	.db #0x00	; 0
      001C3D 01                    2775 	.db #0x01	; 1
      001C3E 00                    2776 	.db #0x00	; 0
      001C3F 01                    2777 	.db #0x01	; 1
      001C40 00                    2778 	.db #0x00	; 0
      001C41 01                    2779 	.db #0x01	; 1
      001C42 00                    2780 	.db #0x00	; 0
      001C43 01                    2781 	.db #0x01	; 1
      001C44 00                    2782 	.db #0x00	; 0
      001C45 01                    2783 	.db #0x01	; 1
      001C46 00                    2784 	.db #0x00	; 0
      001C47 00                    2785 	.db #0x00	; 0
      001C48 00                    2786 	.db #0x00	; 0
      001C49 00                    2787 	.db #0x00	; 0
      001C4A 00                    2788 	.db #0x00	; 0
      001C4B 00                    2789 	.db #0x00	; 0
      001C4C 00                    2790 	.db #0x00	; 0
      001C4D 00                    2791 	.db #0x00	; 0
      001C4E 00                    2792 	.db #0x00	; 0
      001C4F 01                    2793 	.db #0x01	; 1
      001C50 01                    2794 	.db #0x01	; 1
      001C51 00                    2795 	.db #0x00	; 0
      001C52 00                    2796 	.db #0x00	; 0
      001C53 00                    2797 	.db #0x00	; 0
      001C54 00                    2798 	.db #0x00	; 0
      001C55 00                    2799 	.db #0x00	; 0
      001C56 00                    2800 	.db #0x00	; 0
      001C57 00                    2801 	.db #0x00	; 0
      001C58 00                    2802 	.db #0x00	; 0
      001C59 00                    2803 	.db #0x00	; 0
      001C5A 00                    2804 	.db #0x00	; 0
      001C5B 00                    2805 	.db #0x00	; 0
      001C5C 00                    2806 	.db #0x00	; 0
      001C5D 00                    2807 	.db #0x00	; 0
      001C5E 00                    2808 	.db #0x00	; 0
      001C5F 00                    2809 	.db #0x00	; 0
      001C60 00                    2810 	.db #0x00	; 0
      001C61 00                    2811 	.db #0x00	; 0
      001C62 00                    2812 	.db #0x00	; 0
      001C63 00                    2813 	.db #0x00	; 0
      001C64 00                    2814 	.db #0x00	; 0
      001C65 00                    2815 	.db #0x00	; 0
      001C66 00                    2816 	.db #0x00	; 0
      001C67 00                    2817 	.db #0x00	; 0
      001C68 00                    2818 	.db #0x00	; 0
      001C69 00                    2819 	.db #0x00	; 0
      001C6A 00                    2820 	.db #0x00	; 0
      001C6B 00                    2821 	.db #0x00	; 0
      001C6C 00                    2822 	.db #0x00	; 0
      001C6D 00                    2823 	.db #0x00	; 0
      001C6E 00                    2824 	.db #0x00	; 0
      001C6F 00                    2825 	.db #0x00	; 0
      001C70 00                    2826 	.db #0x00	; 0
      001C71 00                    2827 	.db #0x00	; 0
      001C72 00                    2828 	.db #0x00	; 0
      001C73 00                    2829 	.db #0x00	; 0
      001C74 00                    2830 	.db #0x00	; 0
      001C75 00                    2831 	.db #0x00	; 0
      001C76 00                    2832 	.db #0x00	; 0
      001C77 00                    2833 	.db #0x00	; 0
      001C78 00                    2834 	.db #0x00	; 0
      001C79 00                    2835 	.db #0x00	; 0
      001C7A 00                    2836 	.db #0x00	; 0
      001C7B 00                    2837 	.db #0x00	; 0
      001C7C 00                    2838 	.db #0x00	; 0
      001C7D 00                    2839 	.db #0x00	; 0
      001C7E 00                    2840 	.db #0x00	; 0
      001C7F 00                    2841 	.db #0x00	; 0
      001C80 00                    2842 	.db #0x00	; 0
      001C81 00                    2843 	.db #0x00	; 0
      001C82 00                    2844 	.db #0x00	; 0
      001C83 00                    2845 	.db #0x00	; 0
      001C84 00                    2846 	.db #0x00	; 0
      001C85 00                    2847 	.db #0x00	; 0
      001C86 00                    2848 	.db #0x00	; 0
      001C87 00                    2849 	.db #0x00	; 0
      001C88 00                    2850 	.db #0x00	; 0
      001C89 00                    2851 	.db #0x00	; 0
      001C8A 00                    2852 	.db #0x00	; 0
      001C8B 00                    2853 	.db #0x00	; 0
      001C8C 00                    2854 	.db #0x00	; 0
      001C8D 00                    2855 	.db #0x00	; 0
      001C8E 00                    2856 	.db #0x00	; 0
      001C8F 00                    2857 	.db #0x00	; 0
      001C90 01                    2858 	.db #0x01	; 1
      001C91 01                    2859 	.db #0x01	; 1
      001C92 00                    2860 	.db #0x00	; 0
      001C93 00                    2861 	.db #0x00	; 0
      001C94 00                    2862 	.db #0x00	; 0
      001C95 00                    2863 	.db #0x00	; 0
      001C96 00                    2864 	.db #0x00	; 0
      001C97 00                    2865 	.db #0x00	; 0
      001C98 01                    2866 	.db #0x01	; 1
      001C99 01                    2867 	.db #0x01	; 1
      001C9A 00                    2868 	.db #0x00	; 0
      001C9B 00                    2869 	.db #0x00	; 0
      001C9C 00                    2870 	.db #0x00	; 0
      001C9D 00                    2871 	.db #0x00	; 0
      001C9E 00                    2872 	.db #0x00	; 0
      001C9F 00                    2873 	.db #0x00	; 0
      001CA0 00                    2874 	.db #0x00	; 0
      001CA1 00                    2875 	.db #0x00	; 0
      001CA2 00                    2876 	.db #0x00	; 0
      001CA3 01                    2877 	.db #0x01	; 1
      001CA4 01                    2878 	.db #0x01	; 1
      001CA5 01                    2879 	.db #0x01	; 1
      001CA6 01                    2880 	.db #0x01	; 1
      001CA7 01                    2881 	.db #0x01	; 1
      001CA8 01                    2882 	.db #0x01	; 1
      001CA9 01                    2883 	.db #0x01	; 1
      001CAA 01                    2884 	.db #0x01	; 1
      001CAB 01                    2885 	.db #0x01	; 1
      001CAC 01                    2886 	.db #0x01	; 1
      001CAD 01                    2887 	.db #0x01	; 1
      001CAE 01                    2888 	.db #0x01	; 1
      001CAF 01                    2889 	.db #0x01	; 1
      001CB0 01                    2890 	.db #0x01	; 1
      001CB1 01                    2891 	.db #0x01	; 1
      001CB2 01                    2892 	.db #0x01	; 1
      001CB3 01                    2893 	.db #0x01	; 1
      001CB4 01                    2894 	.db #0x01	; 1
      001CB5 00                    2895 	.db #0x00	; 0
      001CB6 00                    2896 	.db #0x00	; 0
      001CB7 00                    2897 	.db #0x00	; 0
      001CB8 00                    2898 	.db #0x00	; 0
      001CB9 00                    2899 	.db #0x00	; 0
      001CBA 00                    2900 	.db #0x00	; 0
      001CBB 00                    2901 	.db #0x00	; 0
      001CBC 00                    2902 	.db #0x00	; 0
      001CBD 00                    2903 	.db #0x00	; 0
      001CBE 00                    2904 	.db #0x00	; 0
      001CBF 00                    2905 	.db #0x00	; 0
      001CC0 00                    2906 	.db #0x00	; 0
      001CC1 00                    2907 	.db #0x00	; 0
      001CC2 00                    2908 	.db #0x00	; 0
      001CC3 00                    2909 	.db #0x00	; 0
      001CC4 00                    2910 	.db #0x00	; 0
      001CC5 00                    2911 	.db #0x00	; 0
      001CC6 00                    2912 	.db #0x00	; 0
      001CC7 00                    2913 	.db #0x00	; 0
      001CC8 00                    2914 	.db #0x00	; 0
      001CC9 00                    2915 	.db #0x00	; 0
      001CCA 00                    2916 	.db #0x00	; 0
      001CCB 00                    2917 	.db #0x00	; 0
      001CCC 00                    2918 	.db #0x00	; 0
      001CCD 00                    2919 	.db #0x00	; 0
      001CCE 00                    2920 	.db #0x00	; 0
      001CCF 00                    2921 	.db #0x00	; 0
      001CD0 00                    2922 	.db #0x00	; 0
      001CD1 00                    2923 	.db #0x00	; 0
      001CD2 00                    2924 	.db #0x00	; 0
      001CD3 00                    2925 	.db #0x00	; 0
      001CD4 00                    2926 	.db #0x00	; 0
      001CD5 F8                    2927 	.db #0xf8	; 248
      001CD6 08                    2928 	.db #0x08	; 8
      001CD7 08                    2929 	.db #0x08	; 8
      001CD8 08                    2930 	.db #0x08	; 8
      001CD9 08                    2931 	.db #0x08	; 8
      001CDA 08                    2932 	.db #0x08	; 8
      001CDB 08                    2933 	.db #0x08	; 8
      001CDC 08                    2934 	.db #0x08	; 8
      001CDD 00                    2935 	.db #0x00	; 0
      001CDE F8                    2936 	.db #0xf8	; 248
      001CDF 18                    2937 	.db #0x18	; 24
      001CE0 60                    2938 	.db #0x60	; 96
      001CE1 80                    2939 	.db #0x80	; 128
      001CE2 00                    2940 	.db #0x00	; 0
      001CE3 00                    2941 	.db #0x00	; 0
      001CE4 00                    2942 	.db #0x00	; 0
      001CE5 80                    2943 	.db #0x80	; 128
      001CE6 60                    2944 	.db #0x60	; 96
      001CE7 18                    2945 	.db #0x18	; 24
      001CE8 F8                    2946 	.db #0xf8	; 248
      001CE9 00                    2947 	.db #0x00	; 0
      001CEA 00                    2948 	.db #0x00	; 0
      001CEB 00                    2949 	.db #0x00	; 0
      001CEC 20                    2950 	.db #0x20	; 32
      001CED 20                    2951 	.db #0x20	; 32
      001CEE F8                    2952 	.db #0xf8	; 248
      001CEF 00                    2953 	.db #0x00	; 0
      001CF0 00                    2954 	.db #0x00	; 0
      001CF1 00                    2955 	.db #0x00	; 0
      001CF2 00                    2956 	.db #0x00	; 0
      001CF3 00                    2957 	.db #0x00	; 0
      001CF4 00                    2958 	.db #0x00	; 0
      001CF5 E0                    2959 	.db #0xe0	; 224
      001CF6 10                    2960 	.db #0x10	; 16
      001CF7 08                    2961 	.db #0x08	; 8
      001CF8 08                    2962 	.db #0x08	; 8
      001CF9 08                    2963 	.db #0x08	; 8
      001CFA 08                    2964 	.db #0x08	; 8
      001CFB 10                    2965 	.db #0x10	; 16
      001CFC E0                    2966 	.db #0xe0	; 224
      001CFD 00                    2967 	.db #0x00	; 0
      001CFE 00                    2968 	.db #0x00	; 0
      001CFF 00                    2969 	.db #0x00	; 0
      001D00 20                    2970 	.db #0x20	; 32
      001D01 20                    2971 	.db #0x20	; 32
      001D02 F8                    2972 	.db #0xf8	; 248
      001D03 00                    2973 	.db #0x00	; 0
      001D04 00                    2974 	.db #0x00	; 0
      001D05 00                    2975 	.db #0x00	; 0
      001D06 00                    2976 	.db #0x00	; 0
      001D07 00                    2977 	.db #0x00	; 0
      001D08 00                    2978 	.db #0x00	; 0
      001D09 00                    2979 	.db #0x00	; 0
      001D0A 00                    2980 	.db #0x00	; 0
      001D0B 00                    2981 	.db #0x00	; 0
      001D0C 00                    2982 	.db #0x00	; 0
      001D0D 00                    2983 	.db #0x00	; 0
      001D0E 00                    2984 	.db #0x00	; 0
      001D0F 08                    2985 	.db #0x08	; 8
      001D10 08                    2986 	.db #0x08	; 8
      001D11 08                    2987 	.db #0x08	; 8
      001D12 08                    2988 	.db #0x08	; 8
      001D13 08                    2989 	.db #0x08	; 8
      001D14 88                    2990 	.db #0x88	; 136
      001D15 68                    2991 	.db #0x68	; 104	'h'
      001D16 18                    2992 	.db #0x18	; 24
      001D17 00                    2993 	.db #0x00	; 0
      001D18 00                    2994 	.db #0x00	; 0
      001D19 00                    2995 	.db #0x00	; 0
      001D1A 00                    2996 	.db #0x00	; 0
      001D1B 00                    2997 	.db #0x00	; 0
      001D1C 00                    2998 	.db #0x00	; 0
      001D1D 00                    2999 	.db #0x00	; 0
      001D1E 00                    3000 	.db #0x00	; 0
      001D1F 00                    3001 	.db #0x00	; 0
      001D20 00                    3002 	.db #0x00	; 0
      001D21 00                    3003 	.db #0x00	; 0
      001D22 00                    3004 	.db #0x00	; 0
      001D23 00                    3005 	.db #0x00	; 0
      001D24 00                    3006 	.db #0x00	; 0
      001D25 00                    3007 	.db #0x00	; 0
      001D26 00                    3008 	.db #0x00	; 0
      001D27 00                    3009 	.db #0x00	; 0
      001D28 00                    3010 	.db #0x00	; 0
      001D29 00                    3011 	.db #0x00	; 0
      001D2A 00                    3012 	.db #0x00	; 0
      001D2B 00                    3013 	.db #0x00	; 0
      001D2C 00                    3014 	.db #0x00	; 0
      001D2D 00                    3015 	.db #0x00	; 0
      001D2E 00                    3016 	.db #0x00	; 0
      001D2F 00                    3017 	.db #0x00	; 0
      001D30 00                    3018 	.db #0x00	; 0
      001D31 00                    3019 	.db #0x00	; 0
      001D32 00                    3020 	.db #0x00	; 0
      001D33 00                    3021 	.db #0x00	; 0
      001D34 00                    3022 	.db #0x00	; 0
      001D35 00                    3023 	.db #0x00	; 0
      001D36 00                    3024 	.db #0x00	; 0
      001D37 00                    3025 	.db #0x00	; 0
      001D38 00                    3026 	.db #0x00	; 0
      001D39 00                    3027 	.db #0x00	; 0
      001D3A 00                    3028 	.db #0x00	; 0
      001D3B 00                    3029 	.db #0x00	; 0
      001D3C 00                    3030 	.db #0x00	; 0
      001D3D 00                    3031 	.db #0x00	; 0
      001D3E 00                    3032 	.db #0x00	; 0
      001D3F 00                    3033 	.db #0x00	; 0
      001D40 00                    3034 	.db #0x00	; 0
      001D41 00                    3035 	.db #0x00	; 0
      001D42 00                    3036 	.db #0x00	; 0
      001D43 00                    3037 	.db #0x00	; 0
      001D44 00                    3038 	.db #0x00	; 0
      001D45 00                    3039 	.db #0x00	; 0
      001D46 00                    3040 	.db #0x00	; 0
      001D47 00                    3041 	.db #0x00	; 0
      001D48 00                    3042 	.db #0x00	; 0
      001D49 00                    3043 	.db #0x00	; 0
      001D4A 00                    3044 	.db #0x00	; 0
      001D4B 00                    3045 	.db #0x00	; 0
      001D4C 00                    3046 	.db #0x00	; 0
      001D4D 00                    3047 	.db #0x00	; 0
      001D4E 00                    3048 	.db #0x00	; 0
      001D4F 00                    3049 	.db #0x00	; 0
      001D50 00                    3050 	.db #0x00	; 0
      001D51 00                    3051 	.db #0x00	; 0
      001D52 00                    3052 	.db #0x00	; 0
      001D53 00                    3053 	.db #0x00	; 0
      001D54 00                    3054 	.db #0x00	; 0
      001D55 7F                    3055 	.db #0x7f	; 127
      001D56 01                    3056 	.db #0x01	; 1
      001D57 01                    3057 	.db #0x01	; 1
      001D58 01                    3058 	.db #0x01	; 1
      001D59 01                    3059 	.db #0x01	; 1
      001D5A 01                    3060 	.db #0x01	; 1
      001D5B 01                    3061 	.db #0x01	; 1
      001D5C 00                    3062 	.db #0x00	; 0
      001D5D 00                    3063 	.db #0x00	; 0
      001D5E 7F                    3064 	.db #0x7f	; 127
      001D5F 00                    3065 	.db #0x00	; 0
      001D60 00                    3066 	.db #0x00	; 0
      001D61 01                    3067 	.db #0x01	; 1
      001D62 06                    3068 	.db #0x06	; 6
      001D63 18                    3069 	.db #0x18	; 24
      001D64 06                    3070 	.db #0x06	; 6
      001D65 01                    3071 	.db #0x01	; 1
      001D66 00                    3072 	.db #0x00	; 0
      001D67 00                    3073 	.db #0x00	; 0
      001D68 7F                    3074 	.db #0x7f	; 127
      001D69 00                    3075 	.db #0x00	; 0
      001D6A 00                    3076 	.db #0x00	; 0
      001D6B 00                    3077 	.db #0x00	; 0
      001D6C 40                    3078 	.db #0x40	; 64
      001D6D 40                    3079 	.db #0x40	; 64
      001D6E 7F                    3080 	.db #0x7f	; 127
      001D6F 40                    3081 	.db #0x40	; 64
      001D70 40                    3082 	.db #0x40	; 64
      001D71 00                    3083 	.db #0x00	; 0
      001D72 00                    3084 	.db #0x00	; 0
      001D73 00                    3085 	.db #0x00	; 0
      001D74 00                    3086 	.db #0x00	; 0
      001D75 1F                    3087 	.db #0x1f	; 31
      001D76 20                    3088 	.db #0x20	; 32
      001D77 40                    3089 	.db #0x40	; 64
      001D78 40                    3090 	.db #0x40	; 64
      001D79 40                    3091 	.db #0x40	; 64
      001D7A 40                    3092 	.db #0x40	; 64
      001D7B 20                    3093 	.db #0x20	; 32
      001D7C 1F                    3094 	.db #0x1f	; 31
      001D7D 00                    3095 	.db #0x00	; 0
      001D7E 00                    3096 	.db #0x00	; 0
      001D7F 00                    3097 	.db #0x00	; 0
      001D80 40                    3098 	.db #0x40	; 64
      001D81 40                    3099 	.db #0x40	; 64
      001D82 7F                    3100 	.db #0x7f	; 127
      001D83 40                    3101 	.db #0x40	; 64
      001D84 40                    3102 	.db #0x40	; 64
      001D85 00                    3103 	.db #0x00	; 0
      001D86 00                    3104 	.db #0x00	; 0
      001D87 00                    3105 	.db #0x00	; 0
      001D88 00                    3106 	.db #0x00	; 0
      001D89 00                    3107 	.db #0x00	; 0
      001D8A 60                    3108 	.db #0x60	; 96
      001D8B 00                    3109 	.db #0x00	; 0
      001D8C 00                    3110 	.db #0x00	; 0
      001D8D 00                    3111 	.db #0x00	; 0
      001D8E 00                    3112 	.db #0x00	; 0
      001D8F 00                    3113 	.db #0x00	; 0
      001D90 00                    3114 	.db #0x00	; 0
      001D91 60                    3115 	.db #0x60	; 96
      001D92 18                    3116 	.db #0x18	; 24
      001D93 06                    3117 	.db #0x06	; 6
      001D94 01                    3118 	.db #0x01	; 1
      001D95 00                    3119 	.db #0x00	; 0
      001D96 00                    3120 	.db #0x00	; 0
      001D97 00                    3121 	.db #0x00	; 0
      001D98 00                    3122 	.db #0x00	; 0
      001D99 00                    3123 	.db #0x00	; 0
      001D9A 00                    3124 	.db #0x00	; 0
      001D9B 00                    3125 	.db #0x00	; 0
      001D9C 00                    3126 	.db #0x00	; 0
      001D9D 00                    3127 	.db #0x00	; 0
      001D9E 00                    3128 	.db #0x00	; 0
      001D9F 00                    3129 	.db #0x00	; 0
      001DA0 00                    3130 	.db #0x00	; 0
      001DA1 00                    3131 	.db #0x00	; 0
      001DA2 00                    3132 	.db #0x00	; 0
      001DA3 00                    3133 	.db #0x00	; 0
      001DA4 00                    3134 	.db #0x00	; 0
      001DA5 00                    3135 	.db #0x00	; 0
      001DA6 00                    3136 	.db #0x00	; 0
      001DA7 00                    3137 	.db #0x00	; 0
      001DA8 00                    3138 	.db #0x00	; 0
      001DA9 00                    3139 	.db #0x00	; 0
      001DAA 00                    3140 	.db #0x00	; 0
      001DAB 00                    3141 	.db #0x00	; 0
      001DAC 00                    3142 	.db #0x00	; 0
      001DAD 00                    3143 	.db #0x00	; 0
      001DAE 00                    3144 	.db #0x00	; 0
      001DAF 00                    3145 	.db #0x00	; 0
      001DB0 00                    3146 	.db #0x00	; 0
      001DB1 00                    3147 	.db #0x00	; 0
      001DB2 00                    3148 	.db #0x00	; 0
      001DB3 00                    3149 	.db #0x00	; 0
      001DB4 00                    3150 	.db #0x00	; 0
      001DB5 00                    3151 	.db #0x00	; 0
      001DB6 00                    3152 	.db #0x00	; 0
      001DB7 00                    3153 	.db #0x00	; 0
      001DB8 00                    3154 	.db #0x00	; 0
      001DB9 00                    3155 	.db #0x00	; 0
      001DBA 00                    3156 	.db #0x00	; 0
      001DBB 00                    3157 	.db #0x00	; 0
      001DBC 00                    3158 	.db #0x00	; 0
      001DBD 00                    3159 	.db #0x00	; 0
      001DBE 00                    3160 	.db #0x00	; 0
      001DBF 00                    3161 	.db #0x00	; 0
      001DC0 00                    3162 	.db #0x00	; 0
      001DC1 00                    3163 	.db #0x00	; 0
      001DC2 00                    3164 	.db #0x00	; 0
      001DC3 00                    3165 	.db #0x00	; 0
      001DC4 00                    3166 	.db #0x00	; 0
      001DC5 00                    3167 	.db #0x00	; 0
      001DC6 00                    3168 	.db #0x00	; 0
      001DC7 00                    3169 	.db #0x00	; 0
      001DC8 00                    3170 	.db #0x00	; 0
      001DC9 00                    3171 	.db #0x00	; 0
      001DCA 00                    3172 	.db #0x00	; 0
      001DCB 00                    3173 	.db #0x00	; 0
      001DCC 00                    3174 	.db #0x00	; 0
      001DCD 00                    3175 	.db #0x00	; 0
      001DCE 00                    3176 	.db #0x00	; 0
      001DCF 00                    3177 	.db #0x00	; 0
      001DD0 00                    3178 	.db #0x00	; 0
      001DD1 00                    3179 	.db #0x00	; 0
      001DD2 00                    3180 	.db #0x00	; 0
      001DD3 00                    3181 	.db #0x00	; 0
      001DD4 00                    3182 	.db #0x00	; 0
      001DD5 00                    3183 	.db #0x00	; 0
      001DD6 00                    3184 	.db #0x00	; 0
      001DD7 00                    3185 	.db #0x00	; 0
      001DD8 00                    3186 	.db #0x00	; 0
      001DD9 00                    3187 	.db #0x00	; 0
      001DDA 00                    3188 	.db #0x00	; 0
      001DDB 40                    3189 	.db #0x40	; 64
      001DDC 20                    3190 	.db #0x20	; 32
      001DDD 20                    3191 	.db #0x20	; 32
      001DDE 20                    3192 	.db #0x20	; 32
      001DDF C0                    3193 	.db #0xc0	; 192
      001DE0 00                    3194 	.db #0x00	; 0
      001DE1 00                    3195 	.db #0x00	; 0
      001DE2 E0                    3196 	.db #0xe0	; 224
      001DE3 20                    3197 	.db #0x20	; 32
      001DE4 20                    3198 	.db #0x20	; 32
      001DE5 20                    3199 	.db #0x20	; 32
      001DE6 E0                    3200 	.db #0xe0	; 224
      001DE7 00                    3201 	.db #0x00	; 0
      001DE8 00                    3202 	.db #0x00	; 0
      001DE9 00                    3203 	.db #0x00	; 0
      001DEA 40                    3204 	.db #0x40	; 64
      001DEB E0                    3205 	.db #0xe0	; 224
      001DEC 00                    3206 	.db #0x00	; 0
      001DED 00                    3207 	.db #0x00	; 0
      001DEE 00                    3208 	.db #0x00	; 0
      001DEF 00                    3209 	.db #0x00	; 0
      001DF0 60                    3210 	.db #0x60	; 96
      001DF1 20                    3211 	.db #0x20	; 32
      001DF2 20                    3212 	.db #0x20	; 32
      001DF3 20                    3213 	.db #0x20	; 32
      001DF4 E0                    3214 	.db #0xe0	; 224
      001DF5 00                    3215 	.db #0x00	; 0
      001DF6 00                    3216 	.db #0x00	; 0
      001DF7 00                    3217 	.db #0x00	; 0
      001DF8 00                    3218 	.db #0x00	; 0
      001DF9 00                    3219 	.db #0x00	; 0
      001DFA E0                    3220 	.db #0xe0	; 224
      001DFB 20                    3221 	.db #0x20	; 32
      001DFC 20                    3222 	.db #0x20	; 32
      001DFD 20                    3223 	.db #0x20	; 32
      001DFE E0                    3224 	.db #0xe0	; 224
      001DFF 00                    3225 	.db #0x00	; 0
      001E00 00                    3226 	.db #0x00	; 0
      001E01 00                    3227 	.db #0x00	; 0
      001E02 00                    3228 	.db #0x00	; 0
      001E03 00                    3229 	.db #0x00	; 0
      001E04 40                    3230 	.db #0x40	; 64
      001E05 20                    3231 	.db #0x20	; 32
      001E06 20                    3232 	.db #0x20	; 32
      001E07 20                    3233 	.db #0x20	; 32
      001E08 C0                    3234 	.db #0xc0	; 192
      001E09 00                    3235 	.db #0x00	; 0
      001E0A 00                    3236 	.db #0x00	; 0
      001E0B 40                    3237 	.db #0x40	; 64
      001E0C 20                    3238 	.db #0x20	; 32
      001E0D 20                    3239 	.db #0x20	; 32
      001E0E 20                    3240 	.db #0x20	; 32
      001E0F C0                    3241 	.db #0xc0	; 192
      001E10 00                    3242 	.db #0x00	; 0
      001E11 00                    3243 	.db #0x00	; 0
      001E12 00                    3244 	.db #0x00	; 0
      001E13 00                    3245 	.db #0x00	; 0
      001E14 00                    3246 	.db #0x00	; 0
      001E15 00                    3247 	.db #0x00	; 0
      001E16 00                    3248 	.db #0x00	; 0
      001E17 00                    3249 	.db #0x00	; 0
      001E18 00                    3250 	.db #0x00	; 0
      001E19 00                    3251 	.db #0x00	; 0
      001E1A 00                    3252 	.db #0x00	; 0
      001E1B 00                    3253 	.db #0x00	; 0
      001E1C 00                    3254 	.db #0x00	; 0
      001E1D 00                    3255 	.db #0x00	; 0
      001E1E 00                    3256 	.db #0x00	; 0
      001E1F 00                    3257 	.db #0x00	; 0
      001E20 00                    3258 	.db #0x00	; 0
      001E21 00                    3259 	.db #0x00	; 0
      001E22 00                    3260 	.db #0x00	; 0
      001E23 00                    3261 	.db #0x00	; 0
      001E24 00                    3262 	.db #0x00	; 0
      001E25 00                    3263 	.db #0x00	; 0
      001E26 00                    3264 	.db #0x00	; 0
      001E27 00                    3265 	.db #0x00	; 0
      001E28 00                    3266 	.db #0x00	; 0
      001E29 00                    3267 	.db #0x00	; 0
      001E2A 00                    3268 	.db #0x00	; 0
      001E2B 00                    3269 	.db #0x00	; 0
      001E2C 00                    3270 	.db #0x00	; 0
      001E2D 00                    3271 	.db #0x00	; 0
      001E2E 00                    3272 	.db #0x00	; 0
      001E2F 00                    3273 	.db #0x00	; 0
      001E30 00                    3274 	.db #0x00	; 0
      001E31 00                    3275 	.db #0x00	; 0
      001E32 00                    3276 	.db #0x00	; 0
      001E33 00                    3277 	.db #0x00	; 0
      001E34 00                    3278 	.db #0x00	; 0
      001E35 00                    3279 	.db #0x00	; 0
      001E36 00                    3280 	.db #0x00	; 0
      001E37 00                    3281 	.db #0x00	; 0
      001E38 00                    3282 	.db #0x00	; 0
      001E39 00                    3283 	.db #0x00	; 0
      001E3A 00                    3284 	.db #0x00	; 0
      001E3B 00                    3285 	.db #0x00	; 0
      001E3C 00                    3286 	.db #0x00	; 0
      001E3D 00                    3287 	.db #0x00	; 0
      001E3E 00                    3288 	.db #0x00	; 0
      001E3F 00                    3289 	.db #0x00	; 0
      001E40 00                    3290 	.db #0x00	; 0
      001E41 00                    3291 	.db #0x00	; 0
      001E42 00                    3292 	.db #0x00	; 0
      001E43 00                    3293 	.db #0x00	; 0
      001E44 00                    3294 	.db #0x00	; 0
      001E45 00                    3295 	.db #0x00	; 0
      001E46 00                    3296 	.db #0x00	; 0
      001E47 00                    3297 	.db #0x00	; 0
      001E48 00                    3298 	.db #0x00	; 0
      001E49 00                    3299 	.db #0x00	; 0
      001E4A 00                    3300 	.db #0x00	; 0
      001E4B 00                    3301 	.db #0x00	; 0
      001E4C 00                    3302 	.db #0x00	; 0
      001E4D 00                    3303 	.db #0x00	; 0
      001E4E 00                    3304 	.db #0x00	; 0
      001E4F 00                    3305 	.db #0x00	; 0
      001E50 00                    3306 	.db #0x00	; 0
      001E51 00                    3307 	.db #0x00	; 0
      001E52 00                    3308 	.db #0x00	; 0
      001E53 00                    3309 	.db #0x00	; 0
      001E54 00                    3310 	.db #0x00	; 0
      001E55 00                    3311 	.db #0x00	; 0
      001E56 00                    3312 	.db #0x00	; 0
      001E57 00                    3313 	.db #0x00	; 0
      001E58 00                    3314 	.db #0x00	; 0
      001E59 00                    3315 	.db #0x00	; 0
      001E5A 00                    3316 	.db #0x00	; 0
      001E5B 0C                    3317 	.db #0x0c	; 12
      001E5C 0A                    3318 	.db #0x0a	; 10
      001E5D 0A                    3319 	.db #0x0a	; 10
      001E5E 09                    3320 	.db #0x09	; 9
      001E5F 0C                    3321 	.db #0x0c	; 12
      001E60 00                    3322 	.db #0x00	; 0
      001E61 00                    3323 	.db #0x00	; 0
      001E62 0F                    3324 	.db #0x0f	; 15
      001E63 08                    3325 	.db #0x08	; 8
      001E64 08                    3326 	.db #0x08	; 8
      001E65 08                    3327 	.db #0x08	; 8
      001E66 0F                    3328 	.db #0x0f	; 15
      001E67 00                    3329 	.db #0x00	; 0
      001E68 00                    3330 	.db #0x00	; 0
      001E69 00                    3331 	.db #0x00	; 0
      001E6A 08                    3332 	.db #0x08	; 8
      001E6B 0F                    3333 	.db #0x0f	; 15
      001E6C 08                    3334 	.db #0x08	; 8
      001E6D 00                    3335 	.db #0x00	; 0
      001E6E 00                    3336 	.db #0x00	; 0
      001E6F 00                    3337 	.db #0x00	; 0
      001E70 0C                    3338 	.db #0x0c	; 12
      001E71 08                    3339 	.db #0x08	; 8
      001E72 09                    3340 	.db #0x09	; 9
      001E73 09                    3341 	.db #0x09	; 9
      001E74 0E                    3342 	.db #0x0e	; 14
      001E75 00                    3343 	.db #0x00	; 0
      001E76 00                    3344 	.db #0x00	; 0
      001E77 0C                    3345 	.db #0x0c	; 12
      001E78 00                    3346 	.db #0x00	; 0
      001E79 00                    3347 	.db #0x00	; 0
      001E7A 0F                    3348 	.db #0x0f	; 15
      001E7B 09                    3349 	.db #0x09	; 9
      001E7C 09                    3350 	.db #0x09	; 9
      001E7D 09                    3351 	.db #0x09	; 9
      001E7E 0F                    3352 	.db #0x0f	; 15
      001E7F 00                    3353 	.db #0x00	; 0
      001E80 00                    3354 	.db #0x00	; 0
      001E81 0C                    3355 	.db #0x0c	; 12
      001E82 00                    3356 	.db #0x00	; 0
      001E83 00                    3357 	.db #0x00	; 0
      001E84 0C                    3358 	.db #0x0c	; 12
      001E85 0A                    3359 	.db #0x0a	; 10
      001E86 0A                    3360 	.db #0x0a	; 10
      001E87 09                    3361 	.db #0x09	; 9
      001E88 0C                    3362 	.db #0x0c	; 12
      001E89 00                    3363 	.db #0x00	; 0
      001E8A 00                    3364 	.db #0x00	; 0
      001E8B 0C                    3365 	.db #0x0c	; 12
      001E8C 0A                    3366 	.db #0x0a	; 10
      001E8D 0A                    3367 	.db #0x0a	; 10
      001E8E 09                    3368 	.db #0x09	; 9
      001E8F 0C                    3369 	.db #0x0c	; 12
      001E90 00                    3370 	.db #0x00	; 0
      001E91 00                    3371 	.db #0x00	; 0
      001E92 00                    3372 	.db #0x00	; 0
      001E93 00                    3373 	.db #0x00	; 0
      001E94 00                    3374 	.db #0x00	; 0
      001E95 00                    3375 	.db #0x00	; 0
      001E96 00                    3376 	.db #0x00	; 0
      001E97 00                    3377 	.db #0x00	; 0
      001E98 00                    3378 	.db #0x00	; 0
      001E99 00                    3379 	.db #0x00	; 0
      001E9A 00                    3380 	.db #0x00	; 0
      001E9B 00                    3381 	.db #0x00	; 0
      001E9C 00                    3382 	.db #0x00	; 0
      001E9D 00                    3383 	.db #0x00	; 0
      001E9E 00                    3384 	.db #0x00	; 0
      001E9F 00                    3385 	.db #0x00	; 0
      001EA0 00                    3386 	.db #0x00	; 0
      001EA1 00                    3387 	.db #0x00	; 0
      001EA2 00                    3388 	.db #0x00	; 0
      001EA3 00                    3389 	.db #0x00	; 0
      001EA4 00                    3390 	.db #0x00	; 0
      001EA5 00                    3391 	.db #0x00	; 0
      001EA6 00                    3392 	.db #0x00	; 0
      001EA7 00                    3393 	.db #0x00	; 0
      001EA8 00                    3394 	.db #0x00	; 0
      001EA9 00                    3395 	.db #0x00	; 0
      001EAA 00                    3396 	.db #0x00	; 0
      001EAB 00                    3397 	.db #0x00	; 0
      001EAC 00                    3398 	.db #0x00	; 0
      001EAD 00                    3399 	.db #0x00	; 0
      001EAE 00                    3400 	.db #0x00	; 0
      001EAF 00                    3401 	.db #0x00	; 0
      001EB0 00                    3402 	.db #0x00	; 0
      001EB1 00                    3403 	.db #0x00	; 0
      001EB2 00                    3404 	.db #0x00	; 0
      001EB3 00                    3405 	.db #0x00	; 0
      001EB4 00                    3406 	.db #0x00	; 0
      001EB5 00                    3407 	.db #0x00	; 0
      001EB6 00                    3408 	.db #0x00	; 0
      001EB7 00                    3409 	.db #0x00	; 0
      001EB8 00                    3410 	.db #0x00	; 0
      001EB9 00                    3411 	.db #0x00	; 0
