                                      1 ;--------------------------------------------------------
                                      2 ; File Created by SDCC : free open source ANSI-C Compiler
                                      3 ; Version 4.0.0 #11528 (MINGW64)
                                      4 ;--------------------------------------------------------
                                      5 	.module main
                                      6 	.optsdcc -mmcs51 --model-small
                                      7 	
                                      8 ;--------------------------------------------------------
                                      9 ; Public variables in this module
                                     10 ;--------------------------------------------------------
                                     11 	.globl _setCursor_PARM_2
                                     12 	.globl _BMP2
                                     13 	.globl _BMP1
                                     14 	.globl _main
                                     15 	.globl _setCursor
                                     16 	.globl _PWM_SEL_CHANNEL
                                     17 	.globl _ADC_ChSelect
                                     18 	.globl _ADC_ExInit
                                     19 	.globl _SPIMasterModeSet
                                     20 	.globl _mDelaymS
                                     21 	.globl _CfgFsys
                                     22 	.globl _printf_fast_f
                                     23 	.globl _setFontSize
                                     24 	.globl _OLED_Clear
                                     25 	.globl _OLED_Init
                                     26 	.globl _OLED_ShowChar
                                     27 	.globl _UIF_BUS_RST
                                     28 	.globl _UIF_DETECT
                                     29 	.globl _UIF_TRANSFER
                                     30 	.globl _UIF_SUSPEND
                                     31 	.globl _UIF_HST_SOF
                                     32 	.globl _UIF_FIFO_OV
                                     33 	.globl _U_SIE_FREE
                                     34 	.globl _U_TOG_OK
                                     35 	.globl _U_IS_NAK
                                     36 	.globl _S0_R_FIFO
                                     37 	.globl _S0_T_FIFO
                                     38 	.globl _S0_FREE
                                     39 	.globl _S0_IF_BYTE
                                     40 	.globl _S0_IF_FIRST
                                     41 	.globl _S0_IF_OV
                                     42 	.globl _S0_FST_ACT
                                     43 	.globl _CP_RL2
                                     44 	.globl _C_T2
                                     45 	.globl _TR2
                                     46 	.globl _EXEN2
                                     47 	.globl _TCLK
                                     48 	.globl _RCLK
                                     49 	.globl _EXF2
                                     50 	.globl _CAP1F
                                     51 	.globl _TF2
                                     52 	.globl _RI
                                     53 	.globl _TI
                                     54 	.globl _RB8
                                     55 	.globl _TB8
                                     56 	.globl _REN
                                     57 	.globl _SM2
                                     58 	.globl _SM1
                                     59 	.globl _SM0
                                     60 	.globl _IT0
                                     61 	.globl _IE0
                                     62 	.globl _IT1
                                     63 	.globl _IE1
                                     64 	.globl _TR0
                                     65 	.globl _TF0
                                     66 	.globl _TR1
                                     67 	.globl _TF1
                                     68 	.globl _XI
                                     69 	.globl _XO
                                     70 	.globl _P4_0
                                     71 	.globl _P4_1
                                     72 	.globl _P4_2
                                     73 	.globl _P4_3
                                     74 	.globl _P4_4
                                     75 	.globl _P4_5
                                     76 	.globl _P4_6
                                     77 	.globl _RXD
                                     78 	.globl _TXD
                                     79 	.globl _INT0
                                     80 	.globl _INT1
                                     81 	.globl _T0
                                     82 	.globl _T1
                                     83 	.globl _CAP0
                                     84 	.globl _INT3
                                     85 	.globl _P3_0
                                     86 	.globl _P3_1
                                     87 	.globl _P3_2
                                     88 	.globl _P3_3
                                     89 	.globl _P3_4
                                     90 	.globl _P3_5
                                     91 	.globl _P3_6
                                     92 	.globl _P3_7
                                     93 	.globl _PWM5
                                     94 	.globl _PWM4
                                     95 	.globl _INT0_
                                     96 	.globl _PWM3
                                     97 	.globl _PWM2
                                     98 	.globl _CAP1_
                                     99 	.globl _T2_
                                    100 	.globl _PWM1
                                    101 	.globl _CAP2_
                                    102 	.globl _T2EX_
                                    103 	.globl _PWM0
                                    104 	.globl _RXD1
                                    105 	.globl _PWM6
                                    106 	.globl _TXD1
                                    107 	.globl _PWM7
                                    108 	.globl _P2_0
                                    109 	.globl _P2_1
                                    110 	.globl _P2_2
                                    111 	.globl _P2_3
                                    112 	.globl _P2_4
                                    113 	.globl _P2_5
                                    114 	.globl _P2_6
                                    115 	.globl _P2_7
                                    116 	.globl _AIN0
                                    117 	.globl _CAP1
                                    118 	.globl _T2
                                    119 	.globl _AIN1
                                    120 	.globl _CAP2
                                    121 	.globl _T2EX
                                    122 	.globl _AIN2
                                    123 	.globl _AIN3
                                    124 	.globl _AIN4
                                    125 	.globl _UCC1
                                    126 	.globl _SCS
                                    127 	.globl _AIN5
                                    128 	.globl _UCC2
                                    129 	.globl _PWM0_
                                    130 	.globl _MOSI
                                    131 	.globl _AIN6
                                    132 	.globl _VBUS
                                    133 	.globl _RXD1_
                                    134 	.globl _MISO
                                    135 	.globl _AIN7
                                    136 	.globl _TXD1_
                                    137 	.globl _SCK
                                    138 	.globl _P1_0
                                    139 	.globl _P1_1
                                    140 	.globl _P1_2
                                    141 	.globl _P1_3
                                    142 	.globl _P1_4
                                    143 	.globl _P1_5
                                    144 	.globl _P1_6
                                    145 	.globl _P1_7
                                    146 	.globl _AIN8
                                    147 	.globl _AIN9
                                    148 	.globl _AIN10
                                    149 	.globl _RXD_
                                    150 	.globl _AIN11
                                    151 	.globl _TXD_
                                    152 	.globl _AIN12
                                    153 	.globl _RXD2
                                    154 	.globl _AIN13
                                    155 	.globl _TXD2
                                    156 	.globl _AIN14
                                    157 	.globl _RXD3
                                    158 	.globl _AIN15
                                    159 	.globl _TXD3
                                    160 	.globl _P0_0
                                    161 	.globl _P0_1
                                    162 	.globl _P0_2
                                    163 	.globl _P0_3
                                    164 	.globl _P0_4
                                    165 	.globl _P0_5
                                    166 	.globl _P0_6
                                    167 	.globl _P0_7
                                    168 	.globl _IE_SPI0
                                    169 	.globl _IE_INT3
                                    170 	.globl _IE_USB
                                    171 	.globl _IE_UART2
                                    172 	.globl _IE_ADC
                                    173 	.globl _IE_UART1
                                    174 	.globl _IE_UART3
                                    175 	.globl _IE_PWMX
                                    176 	.globl _IE_GPIO
                                    177 	.globl _IE_WDOG
                                    178 	.globl _PX0
                                    179 	.globl _PT0
                                    180 	.globl _PX1
                                    181 	.globl _PT1
                                    182 	.globl _PS
                                    183 	.globl _PT2
                                    184 	.globl _PL_FLAG
                                    185 	.globl _PH_FLAG
                                    186 	.globl _EX0
                                    187 	.globl _ET0
                                    188 	.globl _EX1
                                    189 	.globl _ET1
                                    190 	.globl _ES
                                    191 	.globl _ET2
                                    192 	.globl _E_DIS
                                    193 	.globl _EA
                                    194 	.globl _P
                                    195 	.globl _F1
                                    196 	.globl _OV
                                    197 	.globl _RS0
                                    198 	.globl _RS1
                                    199 	.globl _F0
                                    200 	.globl _AC
                                    201 	.globl _CY
                                    202 	.globl _UEP1_DMA_H
                                    203 	.globl _UEP1_DMA_L
                                    204 	.globl _UEP1_DMA
                                    205 	.globl _UEP0_DMA_H
                                    206 	.globl _UEP0_DMA_L
                                    207 	.globl _UEP0_DMA
                                    208 	.globl _UEP2_3_MOD
                                    209 	.globl _UEP4_1_MOD
                                    210 	.globl _UEP3_DMA_H
                                    211 	.globl _UEP3_DMA_L
                                    212 	.globl _UEP3_DMA
                                    213 	.globl _UEP2_DMA_H
                                    214 	.globl _UEP2_DMA_L
                                    215 	.globl _UEP2_DMA
                                    216 	.globl _USB_DEV_AD
                                    217 	.globl _USB_CTRL
                                    218 	.globl _USB_INT_EN
                                    219 	.globl _UEP4_T_LEN
                                    220 	.globl _UEP4_CTRL
                                    221 	.globl _UEP0_T_LEN
                                    222 	.globl _UEP0_CTRL
                                    223 	.globl _USB_RX_LEN
                                    224 	.globl _USB_MIS_ST
                                    225 	.globl _USB_INT_ST
                                    226 	.globl _USB_INT_FG
                                    227 	.globl _UEP3_T_LEN
                                    228 	.globl _UEP3_CTRL
                                    229 	.globl _UEP2_T_LEN
                                    230 	.globl _UEP2_CTRL
                                    231 	.globl _UEP1_T_LEN
                                    232 	.globl _UEP1_CTRL
                                    233 	.globl _UDEV_CTRL
                                    234 	.globl _USB_C_CTRL
                                    235 	.globl _ADC_PIN
                                    236 	.globl _ADC_CHAN
                                    237 	.globl _ADC_DAT_H
                                    238 	.globl _ADC_DAT_L
                                    239 	.globl _ADC_DAT
                                    240 	.globl _ADC_CFG
                                    241 	.globl _ADC_CTRL
                                    242 	.globl _TKEY_CTRL
                                    243 	.globl _SIF3
                                    244 	.globl _SBAUD3
                                    245 	.globl _SBUF3
                                    246 	.globl _SCON3
                                    247 	.globl _SIF2
                                    248 	.globl _SBAUD2
                                    249 	.globl _SBUF2
                                    250 	.globl _SCON2
                                    251 	.globl _SIF1
                                    252 	.globl _SBAUD1
                                    253 	.globl _SBUF1
                                    254 	.globl _SCON1
                                    255 	.globl _SPI0_SETUP
                                    256 	.globl _SPI0_CK_SE
                                    257 	.globl _SPI0_CTRL
                                    258 	.globl _SPI0_DATA
                                    259 	.globl _SPI0_STAT
                                    260 	.globl _PWM_DATA7
                                    261 	.globl _PWM_DATA6
                                    262 	.globl _PWM_DATA5
                                    263 	.globl _PWM_DATA4
                                    264 	.globl _PWM_DATA3
                                    265 	.globl _PWM_CTRL2
                                    266 	.globl _PWM_CK_SE
                                    267 	.globl _PWM_CTRL
                                    268 	.globl _PWM_DATA0
                                    269 	.globl _PWM_DATA1
                                    270 	.globl _PWM_DATA2
                                    271 	.globl _T2CAP1H
                                    272 	.globl _T2CAP1L
                                    273 	.globl _T2CAP1
                                    274 	.globl _TH2
                                    275 	.globl _TL2
                                    276 	.globl _T2COUNT
                                    277 	.globl _RCAP2H
                                    278 	.globl _RCAP2L
                                    279 	.globl _RCAP2
                                    280 	.globl _T2MOD
                                    281 	.globl _T2CON
                                    282 	.globl _T2CAP0H
                                    283 	.globl _T2CAP0L
                                    284 	.globl _T2CAP0
                                    285 	.globl _T2CON2
                                    286 	.globl _SBUF
                                    287 	.globl _SCON
                                    288 	.globl _TH1
                                    289 	.globl _TH0
                                    290 	.globl _TL1
                                    291 	.globl _TL0
                                    292 	.globl _TMOD
                                    293 	.globl _TCON
                                    294 	.globl _XBUS_AUX
                                    295 	.globl _PIN_FUNC
                                    296 	.globl _P5
                                    297 	.globl _P4_DIR_PU
                                    298 	.globl _P4_MOD_OC
                                    299 	.globl _P4
                                    300 	.globl _P3_DIR_PU
                                    301 	.globl _P3_MOD_OC
                                    302 	.globl _P3
                                    303 	.globl _P2_DIR_PU
                                    304 	.globl _P2_MOD_OC
                                    305 	.globl _P2
                                    306 	.globl _P1_DIR_PU
                                    307 	.globl _P1_MOD_OC
                                    308 	.globl _P1
                                    309 	.globl _P0_DIR_PU
                                    310 	.globl _P0_MOD_OC
                                    311 	.globl _P0
                                    312 	.globl _ROM_CTRL
                                    313 	.globl _ROM_DATA_HH
                                    314 	.globl _ROM_DATA_HL
                                    315 	.globl _ROM_DATA_HI
                                    316 	.globl _ROM_ADDR_H
                                    317 	.globl _ROM_ADDR_L
                                    318 	.globl _ROM_ADDR
                                    319 	.globl _GPIO_IE
                                    320 	.globl _INTX
                                    321 	.globl _IP_EX
                                    322 	.globl _IE_EX
                                    323 	.globl _IP
                                    324 	.globl _IE
                                    325 	.globl _WDOG_COUNT
                                    326 	.globl _RESET_KEEP
                                    327 	.globl _WAKE_CTRL
                                    328 	.globl _CLOCK_CFG
                                    329 	.globl _POWER_CFG
                                    330 	.globl _PCON
                                    331 	.globl _GLOBAL_CFG
                                    332 	.globl _SAFE_MOD
                                    333 	.globl _DPH
                                    334 	.globl _DPL
                                    335 	.globl _SP
                                    336 	.globl _A_INV
                                    337 	.globl _B
                                    338 	.globl _ACC
                                    339 	.globl _PSW
                                    340 	.globl _oled_row
                                    341 	.globl _oled_colum
                                    342 	.globl _putchar
                                    343 ;--------------------------------------------------------
                                    344 ; special function registers
                                    345 ;--------------------------------------------------------
                                    346 	.area RSEG    (ABS,DATA)
      000000                        347 	.org 0x0000
                           0000D0   348 _PSW	=	0x00d0
                           0000E0   349 _ACC	=	0x00e0
                           0000F0   350 _B	=	0x00f0
                           0000FD   351 _A_INV	=	0x00fd
                           000081   352 _SP	=	0x0081
                           000082   353 _DPL	=	0x0082
                           000083   354 _DPH	=	0x0083
                           0000A1   355 _SAFE_MOD	=	0x00a1
                           0000B1   356 _GLOBAL_CFG	=	0x00b1
                           000087   357 _PCON	=	0x0087
                           0000BA   358 _POWER_CFG	=	0x00ba
                           0000B9   359 _CLOCK_CFG	=	0x00b9
                           0000A9   360 _WAKE_CTRL	=	0x00a9
                           0000FE   361 _RESET_KEEP	=	0x00fe
                           0000FF   362 _WDOG_COUNT	=	0x00ff
                           0000A8   363 _IE	=	0x00a8
                           0000B8   364 _IP	=	0x00b8
                           0000E8   365 _IE_EX	=	0x00e8
                           0000E9   366 _IP_EX	=	0x00e9
                           0000B3   367 _INTX	=	0x00b3
                           0000B2   368 _GPIO_IE	=	0x00b2
                           008584   369 _ROM_ADDR	=	0x8584
                           000084   370 _ROM_ADDR_L	=	0x0084
                           000085   371 _ROM_ADDR_H	=	0x0085
                           008F8E   372 _ROM_DATA_HI	=	0x8f8e
                           00008E   373 _ROM_DATA_HL	=	0x008e
                           00008F   374 _ROM_DATA_HH	=	0x008f
                           000086   375 _ROM_CTRL	=	0x0086
                           000080   376 _P0	=	0x0080
                           0000C4   377 _P0_MOD_OC	=	0x00c4
                           0000C5   378 _P0_DIR_PU	=	0x00c5
                           000090   379 _P1	=	0x0090
                           000092   380 _P1_MOD_OC	=	0x0092
                           000093   381 _P1_DIR_PU	=	0x0093
                           0000A0   382 _P2	=	0x00a0
                           000094   383 _P2_MOD_OC	=	0x0094
                           000095   384 _P2_DIR_PU	=	0x0095
                           0000B0   385 _P3	=	0x00b0
                           000096   386 _P3_MOD_OC	=	0x0096
                           000097   387 _P3_DIR_PU	=	0x0097
                           0000C0   388 _P4	=	0x00c0
                           0000C2   389 _P4_MOD_OC	=	0x00c2
                           0000C3   390 _P4_DIR_PU	=	0x00c3
                           0000AB   391 _P5	=	0x00ab
                           0000AA   392 _PIN_FUNC	=	0x00aa
                           0000A2   393 _XBUS_AUX	=	0x00a2
                           000088   394 _TCON	=	0x0088
                           000089   395 _TMOD	=	0x0089
                           00008A   396 _TL0	=	0x008a
                           00008B   397 _TL1	=	0x008b
                           00008C   398 _TH0	=	0x008c
                           00008D   399 _TH1	=	0x008d
                           000098   400 _SCON	=	0x0098
                           000099   401 _SBUF	=	0x0099
                           0000C1   402 _T2CON2	=	0x00c1
                           00C7C6   403 _T2CAP0	=	0xc7c6
                           0000C6   404 _T2CAP0L	=	0x00c6
                           0000C7   405 _T2CAP0H	=	0x00c7
                           0000C8   406 _T2CON	=	0x00c8
                           0000C9   407 _T2MOD	=	0x00c9
                           00CBCA   408 _RCAP2	=	0xcbca
                           0000CA   409 _RCAP2L	=	0x00ca
                           0000CB   410 _RCAP2H	=	0x00cb
                           00CDCC   411 _T2COUNT	=	0xcdcc
                           0000CC   412 _TL2	=	0x00cc
                           0000CD   413 _TH2	=	0x00cd
                           00CFCE   414 _T2CAP1	=	0xcfce
                           0000CE   415 _T2CAP1L	=	0x00ce
                           0000CF   416 _T2CAP1H	=	0x00cf
                           00009A   417 _PWM_DATA2	=	0x009a
                           00009B   418 _PWM_DATA1	=	0x009b
                           00009C   419 _PWM_DATA0	=	0x009c
                           00009D   420 _PWM_CTRL	=	0x009d
                           00009E   421 _PWM_CK_SE	=	0x009e
                           00009F   422 _PWM_CTRL2	=	0x009f
                           0000A3   423 _PWM_DATA3	=	0x00a3
                           0000A4   424 _PWM_DATA4	=	0x00a4
                           0000A5   425 _PWM_DATA5	=	0x00a5
                           0000A6   426 _PWM_DATA6	=	0x00a6
                           0000A7   427 _PWM_DATA7	=	0x00a7
                           0000F8   428 _SPI0_STAT	=	0x00f8
                           0000F9   429 _SPI0_DATA	=	0x00f9
                           0000FA   430 _SPI0_CTRL	=	0x00fa
                           0000FB   431 _SPI0_CK_SE	=	0x00fb
                           0000FC   432 _SPI0_SETUP	=	0x00fc
                           0000BC   433 _SCON1	=	0x00bc
                           0000BD   434 _SBUF1	=	0x00bd
                           0000BE   435 _SBAUD1	=	0x00be
                           0000BF   436 _SIF1	=	0x00bf
                           0000B4   437 _SCON2	=	0x00b4
                           0000B5   438 _SBUF2	=	0x00b5
                           0000B6   439 _SBAUD2	=	0x00b6
                           0000B7   440 _SIF2	=	0x00b7
                           0000AC   441 _SCON3	=	0x00ac
                           0000AD   442 _SBUF3	=	0x00ad
                           0000AE   443 _SBAUD3	=	0x00ae
                           0000AF   444 _SIF3	=	0x00af
                           0000F1   445 _TKEY_CTRL	=	0x00f1
                           0000F2   446 _ADC_CTRL	=	0x00f2
                           0000F3   447 _ADC_CFG	=	0x00f3
                           00F5F4   448 _ADC_DAT	=	0xf5f4
                           0000F4   449 _ADC_DAT_L	=	0x00f4
                           0000F5   450 _ADC_DAT_H	=	0x00f5
                           0000F6   451 _ADC_CHAN	=	0x00f6
                           0000F7   452 _ADC_PIN	=	0x00f7
                           000091   453 _USB_C_CTRL	=	0x0091
                           0000D1   454 _UDEV_CTRL	=	0x00d1
                           0000D2   455 _UEP1_CTRL	=	0x00d2
                           0000D3   456 _UEP1_T_LEN	=	0x00d3
                           0000D4   457 _UEP2_CTRL	=	0x00d4
                           0000D5   458 _UEP2_T_LEN	=	0x00d5
                           0000D6   459 _UEP3_CTRL	=	0x00d6
                           0000D7   460 _UEP3_T_LEN	=	0x00d7
                           0000D8   461 _USB_INT_FG	=	0x00d8
                           0000D9   462 _USB_INT_ST	=	0x00d9
                           0000DA   463 _USB_MIS_ST	=	0x00da
                           0000DB   464 _USB_RX_LEN	=	0x00db
                           0000DC   465 _UEP0_CTRL	=	0x00dc
                           0000DD   466 _UEP0_T_LEN	=	0x00dd
                           0000DE   467 _UEP4_CTRL	=	0x00de
                           0000DF   468 _UEP4_T_LEN	=	0x00df
                           0000E1   469 _USB_INT_EN	=	0x00e1
                           0000E2   470 _USB_CTRL	=	0x00e2
                           0000E3   471 _USB_DEV_AD	=	0x00e3
                           00E5E4   472 _UEP2_DMA	=	0xe5e4
                           0000E4   473 _UEP2_DMA_L	=	0x00e4
                           0000E5   474 _UEP2_DMA_H	=	0x00e5
                           00E7E6   475 _UEP3_DMA	=	0xe7e6
                           0000E6   476 _UEP3_DMA_L	=	0x00e6
                           0000E7   477 _UEP3_DMA_H	=	0x00e7
                           0000EA   478 _UEP4_1_MOD	=	0x00ea
                           0000EB   479 _UEP2_3_MOD	=	0x00eb
                           00EDEC   480 _UEP0_DMA	=	0xedec
                           0000EC   481 _UEP0_DMA_L	=	0x00ec
                           0000ED   482 _UEP0_DMA_H	=	0x00ed
                           00EFEE   483 _UEP1_DMA	=	0xefee
                           0000EE   484 _UEP1_DMA_L	=	0x00ee
                           0000EF   485 _UEP1_DMA_H	=	0x00ef
                                    486 ;--------------------------------------------------------
                                    487 ; special function bits
                                    488 ;--------------------------------------------------------
                                    489 	.area RSEG    (ABS,DATA)
      000000                        490 	.org 0x0000
                           0000D7   491 _CY	=	0x00d7
                           0000D6   492 _AC	=	0x00d6
                           0000D5   493 _F0	=	0x00d5
                           0000D4   494 _RS1	=	0x00d4
                           0000D3   495 _RS0	=	0x00d3
                           0000D2   496 _OV	=	0x00d2
                           0000D1   497 _F1	=	0x00d1
                           0000D0   498 _P	=	0x00d0
                           0000AF   499 _EA	=	0x00af
                           0000AE   500 _E_DIS	=	0x00ae
                           0000AD   501 _ET2	=	0x00ad
                           0000AC   502 _ES	=	0x00ac
                           0000AB   503 _ET1	=	0x00ab
                           0000AA   504 _EX1	=	0x00aa
                           0000A9   505 _ET0	=	0x00a9
                           0000A8   506 _EX0	=	0x00a8
                           0000BF   507 _PH_FLAG	=	0x00bf
                           0000BE   508 _PL_FLAG	=	0x00be
                           0000BD   509 _PT2	=	0x00bd
                           0000BC   510 _PS	=	0x00bc
                           0000BB   511 _PT1	=	0x00bb
                           0000BA   512 _PX1	=	0x00ba
                           0000B9   513 _PT0	=	0x00b9
                           0000B8   514 _PX0	=	0x00b8
                           0000EF   515 _IE_WDOG	=	0x00ef
                           0000EE   516 _IE_GPIO	=	0x00ee
                           0000ED   517 _IE_PWMX	=	0x00ed
                           0000ED   518 _IE_UART3	=	0x00ed
                           0000EC   519 _IE_UART1	=	0x00ec
                           0000EB   520 _IE_ADC	=	0x00eb
                           0000EB   521 _IE_UART2	=	0x00eb
                           0000EA   522 _IE_USB	=	0x00ea
                           0000E9   523 _IE_INT3	=	0x00e9
                           0000E8   524 _IE_SPI0	=	0x00e8
                           000087   525 _P0_7	=	0x0087
                           000086   526 _P0_6	=	0x0086
                           000085   527 _P0_5	=	0x0085
                           000084   528 _P0_4	=	0x0084
                           000083   529 _P0_3	=	0x0083
                           000082   530 _P0_2	=	0x0082
                           000081   531 _P0_1	=	0x0081
                           000080   532 _P0_0	=	0x0080
                           000087   533 _TXD3	=	0x0087
                           000087   534 _AIN15	=	0x0087
                           000086   535 _RXD3	=	0x0086
                           000086   536 _AIN14	=	0x0086
                           000085   537 _TXD2	=	0x0085
                           000085   538 _AIN13	=	0x0085
                           000084   539 _RXD2	=	0x0084
                           000084   540 _AIN12	=	0x0084
                           000083   541 _TXD_	=	0x0083
                           000083   542 _AIN11	=	0x0083
                           000082   543 _RXD_	=	0x0082
                           000082   544 _AIN10	=	0x0082
                           000081   545 _AIN9	=	0x0081
                           000080   546 _AIN8	=	0x0080
                           000097   547 _P1_7	=	0x0097
                           000096   548 _P1_6	=	0x0096
                           000095   549 _P1_5	=	0x0095
                           000094   550 _P1_4	=	0x0094
                           000093   551 _P1_3	=	0x0093
                           000092   552 _P1_2	=	0x0092
                           000091   553 _P1_1	=	0x0091
                           000090   554 _P1_0	=	0x0090
                           000097   555 _SCK	=	0x0097
                           000097   556 _TXD1_	=	0x0097
                           000097   557 _AIN7	=	0x0097
                           000096   558 _MISO	=	0x0096
                           000096   559 _RXD1_	=	0x0096
                           000096   560 _VBUS	=	0x0096
                           000096   561 _AIN6	=	0x0096
                           000095   562 _MOSI	=	0x0095
                           000095   563 _PWM0_	=	0x0095
                           000095   564 _UCC2	=	0x0095
                           000095   565 _AIN5	=	0x0095
                           000094   566 _SCS	=	0x0094
                           000094   567 _UCC1	=	0x0094
                           000094   568 _AIN4	=	0x0094
                           000093   569 _AIN3	=	0x0093
                           000092   570 _AIN2	=	0x0092
                           000091   571 _T2EX	=	0x0091
                           000091   572 _CAP2	=	0x0091
                           000091   573 _AIN1	=	0x0091
                           000090   574 _T2	=	0x0090
                           000090   575 _CAP1	=	0x0090
                           000090   576 _AIN0	=	0x0090
                           0000A7   577 _P2_7	=	0x00a7
                           0000A6   578 _P2_6	=	0x00a6
                           0000A5   579 _P2_5	=	0x00a5
                           0000A4   580 _P2_4	=	0x00a4
                           0000A3   581 _P2_3	=	0x00a3
                           0000A2   582 _P2_2	=	0x00a2
                           0000A1   583 _P2_1	=	0x00a1
                           0000A0   584 _P2_0	=	0x00a0
                           0000A7   585 _PWM7	=	0x00a7
                           0000A7   586 _TXD1	=	0x00a7
                           0000A6   587 _PWM6	=	0x00a6
                           0000A6   588 _RXD1	=	0x00a6
                           0000A5   589 _PWM0	=	0x00a5
                           0000A5   590 _T2EX_	=	0x00a5
                           0000A5   591 _CAP2_	=	0x00a5
                           0000A4   592 _PWM1	=	0x00a4
                           0000A4   593 _T2_	=	0x00a4
                           0000A4   594 _CAP1_	=	0x00a4
                           0000A3   595 _PWM2	=	0x00a3
                           0000A2   596 _PWM3	=	0x00a2
                           0000A2   597 _INT0_	=	0x00a2
                           0000A1   598 _PWM4	=	0x00a1
                           0000A0   599 _PWM5	=	0x00a0
                           0000B7   600 _P3_7	=	0x00b7
                           0000B6   601 _P3_6	=	0x00b6
                           0000B5   602 _P3_5	=	0x00b5
                           0000B4   603 _P3_4	=	0x00b4
                           0000B3   604 _P3_3	=	0x00b3
                           0000B2   605 _P3_2	=	0x00b2
                           0000B1   606 _P3_1	=	0x00b1
                           0000B0   607 _P3_0	=	0x00b0
                           0000B7   608 _INT3	=	0x00b7
                           0000B6   609 _CAP0	=	0x00b6
                           0000B5   610 _T1	=	0x00b5
                           0000B4   611 _T0	=	0x00b4
                           0000B3   612 _INT1	=	0x00b3
                           0000B2   613 _INT0	=	0x00b2
                           0000B1   614 _TXD	=	0x00b1
                           0000B0   615 _RXD	=	0x00b0
                           0000C6   616 _P4_6	=	0x00c6
                           0000C5   617 _P4_5	=	0x00c5
                           0000C4   618 _P4_4	=	0x00c4
                           0000C3   619 _P4_3	=	0x00c3
                           0000C2   620 _P4_2	=	0x00c2
                           0000C1   621 _P4_1	=	0x00c1
                           0000C0   622 _P4_0	=	0x00c0
                           0000C7   623 _XO	=	0x00c7
                           0000C6   624 _XI	=	0x00c6
                           00008F   625 _TF1	=	0x008f
                           00008E   626 _TR1	=	0x008e
                           00008D   627 _TF0	=	0x008d
                           00008C   628 _TR0	=	0x008c
                           00008B   629 _IE1	=	0x008b
                           00008A   630 _IT1	=	0x008a
                           000089   631 _IE0	=	0x0089
                           000088   632 _IT0	=	0x0088
                           00009F   633 _SM0	=	0x009f
                           00009E   634 _SM1	=	0x009e
                           00009D   635 _SM2	=	0x009d
                           00009C   636 _REN	=	0x009c
                           00009B   637 _TB8	=	0x009b
                           00009A   638 _RB8	=	0x009a
                           000099   639 _TI	=	0x0099
                           000098   640 _RI	=	0x0098
                           0000CF   641 _TF2	=	0x00cf
                           0000CF   642 _CAP1F	=	0x00cf
                           0000CE   643 _EXF2	=	0x00ce
                           0000CD   644 _RCLK	=	0x00cd
                           0000CC   645 _TCLK	=	0x00cc
                           0000CB   646 _EXEN2	=	0x00cb
                           0000CA   647 _TR2	=	0x00ca
                           0000C9   648 _C_T2	=	0x00c9
                           0000C8   649 _CP_RL2	=	0x00c8
                           0000FF   650 _S0_FST_ACT	=	0x00ff
                           0000FE   651 _S0_IF_OV	=	0x00fe
                           0000FD   652 _S0_IF_FIRST	=	0x00fd
                           0000FC   653 _S0_IF_BYTE	=	0x00fc
                           0000FB   654 _S0_FREE	=	0x00fb
                           0000FA   655 _S0_T_FIFO	=	0x00fa
                           0000F8   656 _S0_R_FIFO	=	0x00f8
                           0000DF   657 _U_IS_NAK	=	0x00df
                           0000DE   658 _U_TOG_OK	=	0x00de
                           0000DD   659 _U_SIE_FREE	=	0x00dd
                           0000DC   660 _UIF_FIFO_OV	=	0x00dc
                           0000DB   661 _UIF_HST_SOF	=	0x00db
                           0000DA   662 _UIF_SUSPEND	=	0x00da
                           0000D9   663 _UIF_TRANSFER	=	0x00d9
                           0000D8   664 _UIF_DETECT	=	0x00d8
                           0000D8   665 _UIF_BUS_RST	=	0x00d8
                                    666 ;--------------------------------------------------------
                                    667 ; overlayable register banks
                                    668 ;--------------------------------------------------------
                                    669 	.area REG_BANK_0	(REL,OVR,DATA)
      000000                        670 	.ds 8
                                    671 ;--------------------------------------------------------
                                    672 ; internal ram data
                                    673 ;--------------------------------------------------------
                                    674 	.area DSEG    (DATA)
      000008                        675 _oled_colum::
      000008                        676 	.ds 2
      00000A                        677 _oled_row::
      00000A                        678 	.ds 2
      00000C                        679 _main_Voltage_65536_67:
      00000C                        680 	.ds 4
      000010                        681 _main_Output_Baud_65536_67:
      000010                        682 	.ds 4
                                    683 ;--------------------------------------------------------
                                    684 ; overlayable items in internal ram 
                                    685 ;--------------------------------------------------------
                                    686 	.area	OSEG    (OVR,DATA)
      00001B                        687 _setCursor_PARM_2:
      00001B                        688 	.ds 2
                                    689 ;--------------------------------------------------------
                                    690 ; Stack segment in internal ram 
                                    691 ;--------------------------------------------------------
                                    692 	.area	SSEG
      000035                        693 __start__stack:
      000035                        694 	.ds	1
                                    695 
                                    696 ;--------------------------------------------------------
                                    697 ; indirectly addressable internal ram data
                                    698 ;--------------------------------------------------------
                                    699 	.area ISEG    (DATA)
                                    700 ;--------------------------------------------------------
                                    701 ; absolute internal ram data
                                    702 ;--------------------------------------------------------
                                    703 	.area IABS    (ABS,DATA)
                                    704 	.area IABS    (ABS,DATA)
                                    705 ;--------------------------------------------------------
                                    706 ; bit data
                                    707 ;--------------------------------------------------------
                                    708 	.area BSEG    (BIT)
                                    709 ;--------------------------------------------------------
                                    710 ; paged external ram data
                                    711 ;--------------------------------------------------------
                                    712 	.area PSEG    (PAG,XDATA)
                                    713 ;--------------------------------------------------------
                                    714 ; external ram data
                                    715 ;--------------------------------------------------------
                                    716 	.area XSEG    (XDATA)
                                    717 ;--------------------------------------------------------
                                    718 ; absolute external ram data
                                    719 ;--------------------------------------------------------
                                    720 	.area XABS    (ABS,XDATA)
                                    721 ;--------------------------------------------------------
                                    722 ; external initialized ram data
                                    723 ;--------------------------------------------------------
                                    724 	.area XISEG   (XDATA)
                                    725 	.area HOME    (CODE)
                                    726 	.area GSINIT0 (CODE)
                                    727 	.area GSINIT1 (CODE)
                                    728 	.area GSINIT2 (CODE)
                                    729 	.area GSINIT3 (CODE)
                                    730 	.area GSINIT4 (CODE)
                                    731 	.area GSINIT5 (CODE)
                                    732 	.area GSINIT  (CODE)
                                    733 	.area GSFINAL (CODE)
                                    734 	.area CSEG    (CODE)
                                    735 ;--------------------------------------------------------
                                    736 ; interrupt vector 
                                    737 ;--------------------------------------------------------
                                    738 	.area HOME    (CODE)
      000000                        739 __interrupt_vect:
      000000 02 00 06         [24]  740 	ljmp	__sdcc_gsinit_startup
                                    741 ;--------------------------------------------------------
                                    742 ; global & static initialisations
                                    743 ;--------------------------------------------------------
                                    744 	.area HOME    (CODE)
                                    745 	.area GSINIT  (CODE)
                                    746 	.area GSFINAL (CODE)
                                    747 	.area GSINIT  (CODE)
                                    748 	.globl __sdcc_gsinit_startup
                                    749 	.globl __sdcc_program_startup
                                    750 	.globl __start__stack
                                    751 	.globl __mcs51_genXINIT
                                    752 	.globl __mcs51_genXRAMCLEAR
                                    753 	.globl __mcs51_genRAMCLEAR
                                    754 	.area GSFINAL (CODE)
      00005F 02 00 03         [24]  755 	ljmp	__sdcc_program_startup
                                    756 ;--------------------------------------------------------
                                    757 ; Home
                                    758 ;--------------------------------------------------------
                                    759 	.area HOME    (CODE)
                                    760 	.area HOME    (CODE)
      000003                        761 __sdcc_program_startup:
      000003 02 00 6F         [24]  762 	ljmp	_main
                                    763 ;	return from main will return to caller
                                    764 ;--------------------------------------------------------
                                    765 ; code
                                    766 ;--------------------------------------------------------
                                    767 	.area CSEG    (CODE)
                                    768 ;------------------------------------------------------------
                                    769 ;Allocation info for local variables in function 'setCursor'
                                    770 ;------------------------------------------------------------
                                    771 ;row                       Allocated with name '_setCursor_PARM_2'
                                    772 ;column                    Allocated to registers 
                                    773 ;------------------------------------------------------------
                                    774 ;	usr/main.c:48: void setCursor(int column,int row)
                                    775 ;	-----------------------------------------
                                    776 ;	 function setCursor
                                    777 ;	-----------------------------------------
      000062                        778 _setCursor:
                           000007   779 	ar7 = 0x07
                           000006   780 	ar6 = 0x06
                           000005   781 	ar5 = 0x05
                           000004   782 	ar4 = 0x04
                           000003   783 	ar3 = 0x03
                           000002   784 	ar2 = 0x02
                           000001   785 	ar1 = 0x01
                           000000   786 	ar0 = 0x00
      000062 85 82 08         [24]  787 	mov	_oled_colum,dpl
      000065 85 83 09         [24]  788 	mov	(_oled_colum + 1),dph
                                    789 ;	usr/main.c:51: oled_row = row;
      000068 85 1B 0A         [24]  790 	mov	_oled_row,_setCursor_PARM_2
      00006B 85 1C 0B         [24]  791 	mov	(_oled_row + 1),(_setCursor_PARM_2 + 1)
                                    792 ;	usr/main.c:52: }
      00006E 22               [24]  793 	ret
                                    794 ;------------------------------------------------------------
                                    795 ;Allocation info for local variables in function 'main'
                                    796 ;------------------------------------------------------------
                                    797 ;ch                        Allocated to registers 
                                    798 ;i                         Allocated to registers r7 
                                    799 ;Voltage                   Allocated with name '_main_Voltage_65536_67'
                                    800 ;Output_Voltage            Allocated to registers r3 r4 r5 r6 
                                    801 ;Output_Baud               Allocated with name '_main_Output_Baud_65536_67'
                                    802 ;------------------------------------------------------------
                                    803 ;	usr/main.c:59: void main(void)
                                    804 ;	-----------------------------------------
                                    805 ;	 function main
                                    806 ;	-----------------------------------------
      00006F                        807 _main:
                                    808 ;	usr/main.c:62: UINT8 i=0;
      00006F 7F 00            [12]  809 	mov	r7,#0x00
                                    810 ;	usr/main.c:66: CfgFsys(); //CH549时钟选择配置
      000071 C0 07            [24]  811 	push	ar7
      000073 12 06 54         [24]  812 	lcall	_CfgFsys
                                    813 ;	usr/main.c:67: mDelaymS(20);
      000076 90 00 14         [24]  814 	mov	dptr,#0x0014
      000079 12 06 90         [24]  815 	lcall	_mDelaymS
                                    816 ;	usr/main.c:69: SPIMasterModeSet(3); //SPI主机模式设置，模式3
      00007C 75 82 03         [24]  817 	mov	dpl,#0x03
      00007F 12 07 02         [24]  818 	lcall	_SPIMasterModeSet
                                    819 ;	usr/main.c:70: SPI_CK_SET(12);      //12分频
      000082 75 FB 0C         [24]  820 	mov	_SPI0_CK_SE,#0x0c
                                    821 ;	usr/main.c:72: OLED_Init();
      000085 12 03 07         [24]  822 	lcall	_OLED_Init
                                    823 ;	usr/main.c:73: OLED_Clear();
      000088 12 03 55         [24]  824 	lcall	_OLED_Clear
                                    825 ;	usr/main.c:75: ADC_ExInit(3); //ADC初始化,选择采样时钟
      00008B 75 82 03         [24]  826 	mov	dpl,#0x03
      00008E 12 07 58         [24]  827 	lcall	_ADC_ExInit
                                    828 ;	usr/main.c:77: SetPWMClkDiv(1);                          //PWM时钟配置,Fsys/4,Fsys默认为12Mhz
      000091 75 9E 01         [24]  829 	mov	_PWM_CK_SE,#0x01
                                    830 ;	usr/main.c:78: SetPWMCycle256Clk();                      //PWM周期 Fsys/4/256
      000094 53 9D FE         [24]  831 	anl	_PWM_CTRL,#0xfe
                                    832 ;	usr/main.c:79: PWM_SEL_CHANNEL(CH3,Enable);              //对ch3，即p2.2的pwm外设初始化
      000097 75 1B 01         [24]  833 	mov	_PWM_SEL_CHANNEL_PARM_2,#0x01
      00009A 75 82 08         [24]  834 	mov	dpl,#0x08
      00009D 12 07 D6         [24]  835 	lcall	_PWM_SEL_CHANNEL
      0000A0 D0 07            [24]  836 	pop	ar7
                                    837 ;	usr/main.c:81: while (1)
      0000A2                        838 00105$:
                                    839 ;	usr/main.c:84: SetPWM3Dat(i);//配置通道3即p2.2的占空比，占空比等于i/256占空比
      0000A2 8F A3            [24]  840 	mov	_PWM_DATA3,r7
                                    841 ;	usr/main.c:85: mDelaymS(1000);
      0000A4 90 03 E8         [24]  842 	mov	dptr,#0x03e8
      0000A7 C0 07            [24]  843 	push	ar7
      0000A9 12 06 90         [24]  844 	lcall	_mDelaymS
                                    845 ;	usr/main.c:87: ADC_ChSelect(ch);  //选择通道
      0000AC 75 82 0F         [24]  846 	mov	dpl,#0x0f
      0000AF 12 07 6F         [24]  847 	lcall	_ADC_ChSelect
      0000B2 D0 07            [24]  848 	pop	ar7
                                    849 ;	usr/main.c:88: P0_MOD_OC = 0;
      0000B4 75 C4 00         [24]  850 	mov	_P0_MOD_OC,#0x00
                                    851 ;	usr/main.c:89: P0_DIR_PU=0;
      0000B7 75 C5 00         [24]  852 	mov	_P0_DIR_PU,#0x00
                                    853 ;	usr/main.c:90: ADC_StartSample(); //启动采样
      0000BA 75 F2 10         [24]  854 	mov	_ADC_CTRL,#0x10
                                    855 ;	usr/main.c:91: while ((ADC_CTRL & bADC_IF) == 0)
      0000BD                        856 00101$:
      0000BD E5 F2            [12]  857 	mov	a,_ADC_CTRL
      0000BF 30 E5 FB         [24]  858 	jnb	acc.5,00101$
                                    859 ;	usr/main.c:95: ADC_CTRL = bADC_IF; //清标志
      0000C2 75 F2 20         [24]  860 	mov	_ADC_CTRL,#0x20
                                    861 ;	usr/main.c:96: Voltage = (ADC_DAT / 4095.0)*5.0 ;
      0000C5 85 F4 82         [24]  862 	mov	dpl,((_ADC_DAT >> 0) & 0xFF)
      0000C8 85 F5 83         [24]  863 	mov	dph,((_ADC_DAT >> 8) & 0xFF)
      0000CB C0 07            [24]  864 	push	ar7
      0000CD 12 0E 31         [24]  865 	lcall	___uint2fs
      0000D0 AB 82            [24]  866 	mov	r3,dpl
      0000D2 AC 83            [24]  867 	mov	r4,dph
      0000D4 AD F0            [24]  868 	mov	r5,b
      0000D6 FE               [12]  869 	mov	r6,a
      0000D7 E4               [12]  870 	clr	a
      0000D8 C0 E0            [24]  871 	push	acc
      0000DA 74 F0            [12]  872 	mov	a,#0xf0
      0000DC C0 E0            [24]  873 	push	acc
      0000DE 74 7F            [12]  874 	mov	a,#0x7f
      0000E0 C0 E0            [24]  875 	push	acc
      0000E2 74 45            [12]  876 	mov	a,#0x45
      0000E4 C0 E0            [24]  877 	push	acc
      0000E6 8B 82            [24]  878 	mov	dpl,r3
      0000E8 8C 83            [24]  879 	mov	dph,r4
      0000EA 8D F0            [24]  880 	mov	b,r5
      0000EC EE               [12]  881 	mov	a,r6
      0000ED 12 0E 8C         [24]  882 	lcall	___fsdiv
      0000F0 AB 82            [24]  883 	mov	r3,dpl
      0000F2 AC 83            [24]  884 	mov	r4,dph
      0000F4 AD F0            [24]  885 	mov	r5,b
      0000F6 FE               [12]  886 	mov	r6,a
      0000F7 E5 81            [12]  887 	mov	a,sp
      0000F9 24 FC            [12]  888 	add	a,#0xfc
      0000FB F5 81            [12]  889 	mov	sp,a
      0000FD C0 03            [24]  890 	push	ar3
      0000FF C0 04            [24]  891 	push	ar4
      000101 C0 05            [24]  892 	push	ar5
      000103 C0 06            [24]  893 	push	ar6
      000105 90 00 00         [24]  894 	mov	dptr,#0x0000
      000108 75 F0 A0         [24]  895 	mov	b,#0xa0
      00010B 74 40            [12]  896 	mov	a,#0x40
      00010D 12 0C EA         [24]  897 	lcall	___fsmul
      000110 85 82 0C         [24]  898 	mov	_main_Voltage_65536_67,dpl
      000113 85 83 0D         [24]  899 	mov	(_main_Voltage_65536_67 + 1),dph
      000116 85 F0 0E         [24]  900 	mov	(_main_Voltage_65536_67 + 2),b
      000119 F5 0F            [12]  901 	mov	(_main_Voltage_65536_67 + 3),a
      00011B E5 81            [12]  902 	mov	a,sp
      00011D 24 FC            [12]  903 	add	a,#0xfc
      00011F F5 81            [12]  904 	mov	sp,a
      000121 D0 07            [24]  905 	pop	ar7
                                    906 ;	usr/main.c:101: Output_Baud = (i/256.0)*100;
      000123 8F 82            [24]  907 	mov	dpl,r7
      000125 C0 07            [24]  908 	push	ar7
      000127 12 0F 6B         [24]  909 	lcall	___uchar2fs
      00012A A8 82            [24]  910 	mov	r0,dpl
      00012C A9 83            [24]  911 	mov	r1,dph
      00012E AA F0            [24]  912 	mov	r2,b
      000130 FE               [12]  913 	mov	r6,a
      000131 E4               [12]  914 	clr	a
      000132 C0 E0            [24]  915 	push	acc
      000134 C0 E0            [24]  916 	push	acc
      000136 74 80            [12]  917 	mov	a,#0x80
      000138 C0 E0            [24]  918 	push	acc
      00013A 74 43            [12]  919 	mov	a,#0x43
      00013C C0 E0            [24]  920 	push	acc
      00013E 88 82            [24]  921 	mov	dpl,r0
      000140 89 83            [24]  922 	mov	dph,r1
      000142 8A F0            [24]  923 	mov	b,r2
      000144 EE               [12]  924 	mov	a,r6
      000145 12 0E 8C         [24]  925 	lcall	___fsdiv
      000148 AB 82            [24]  926 	mov	r3,dpl
      00014A AC 83            [24]  927 	mov	r4,dph
      00014C AD F0            [24]  928 	mov	r5,b
      00014E FE               [12]  929 	mov	r6,a
      00014F E5 81            [12]  930 	mov	a,sp
      000151 24 FC            [12]  931 	add	a,#0xfc
      000153 F5 81            [12]  932 	mov	sp,a
      000155 C0 06            [24]  933 	push	ar6
      000157 C0 05            [24]  934 	push	ar5
      000159 C0 04            [24]  935 	push	ar4
      00015B C0 03            [24]  936 	push	ar3
      00015D C0 03            [24]  937 	push	ar3
      00015F C0 04            [24]  938 	push	ar4
      000161 C0 05            [24]  939 	push	ar5
      000163 C0 06            [24]  940 	push	ar6
      000165 90 00 00         [24]  941 	mov	dptr,#0x0000
      000168 75 F0 C8         [24]  942 	mov	b,#0xc8
      00016B 74 42            [12]  943 	mov	a,#0x42
      00016D 12 0C EA         [24]  944 	lcall	___fsmul
      000170 85 82 10         [24]  945 	mov	_main_Output_Baud_65536_67,dpl
      000173 85 83 11         [24]  946 	mov	(_main_Output_Baud_65536_67 + 1),dph
      000176 85 F0 12         [24]  947 	mov	(_main_Output_Baud_65536_67 + 2),b
      000179 F5 13            [12]  948 	mov	(_main_Output_Baud_65536_67 + 3),a
      00017B E5 81            [12]  949 	mov	a,sp
      00017D 24 FC            [12]  950 	add	a,#0xfc
      00017F F5 81            [12]  951 	mov	sp,a
                                    952 ;	usr/main.c:102: setFontSize(16); //设置显示在oled上屏幕的字号
      000181 75 82 10         [24]  953 	mov	dpl,#0x10
      000184 12 02 8C         [24]  954 	lcall	_setFontSize
                                    955 ;	usr/main.c:103: setCursor(0,0);//设置printf到屏幕上的字符串起始位置
      000187 E4               [12]  956 	clr	a
      000188 F5 1B            [12]  957 	mov	_setCursor_PARM_2,a
      00018A F5 1C            [12]  958 	mov	(_setCursor_PARM_2 + 1),a
      00018C 90 00 00         [24]  959 	mov	dptr,#0x0000
      00018F 12 00 62         [24]  960 	lcall	_setCursor
                                    961 ;	usr/main.c:104: printf_fast_f("PWM %f%%    ",Output_Baud);//把p2.2输出pwm波的波特率显示在屏幕上
      000192 C0 10            [24]  962 	push	_main_Output_Baud_65536_67
      000194 C0 11            [24]  963 	push	(_main_Output_Baud_65536_67 + 1)
      000196 C0 12            [24]  964 	push	(_main_Output_Baud_65536_67 + 2)
      000198 C0 13            [24]  965 	push	(_main_Output_Baud_65536_67 + 3)
      00019A 74 8D            [12]  966 	mov	a,#___str_0
      00019C C0 E0            [24]  967 	push	acc
      00019E 74 17            [12]  968 	mov	a,#(___str_0 >> 8)
      0001A0 C0 E0            [24]  969 	push	acc
      0001A2 12 08 69         [24]  970 	lcall	_printf_fast_f
      0001A5 E5 81            [12]  971 	mov	a,sp
      0001A7 24 FA            [12]  972 	add	a,#0xfa
      0001A9 F5 81            [12]  973 	mov	sp,a
      0001AB D0 03            [24]  974 	pop	ar3
      0001AD D0 04            [24]  975 	pop	ar4
      0001AF D0 05            [24]  976 	pop	ar5
      0001B1 D0 06            [24]  977 	pop	ar6
                                    978 ;	usr/main.c:105: Output_Voltage = (i/256.0)*5.0;
      0001B3 C0 03            [24]  979 	push	ar3
      0001B5 C0 04            [24]  980 	push	ar4
      0001B7 C0 05            [24]  981 	push	ar5
      0001B9 C0 06            [24]  982 	push	ar6
      0001BB 90 00 00         [24]  983 	mov	dptr,#0x0000
      0001BE 75 F0 A0         [24]  984 	mov	b,#0xa0
      0001C1 74 40            [12]  985 	mov	a,#0x40
      0001C3 12 0C EA         [24]  986 	lcall	___fsmul
      0001C6 AB 82            [24]  987 	mov	r3,dpl
      0001C8 AC 83            [24]  988 	mov	r4,dph
      0001CA AD F0            [24]  989 	mov	r5,b
      0001CC FE               [12]  990 	mov	r6,a
      0001CD E5 81            [12]  991 	mov	a,sp
      0001CF 24 FC            [12]  992 	add	a,#0xfc
      0001D1 F5 81            [12]  993 	mov	sp,a
                                    994 ;	usr/main.c:106: setFontSize(16); //设置显示在oled上屏幕的字号
      0001D3 75 82 10         [24]  995 	mov	dpl,#0x10
      0001D6 C0 06            [24]  996 	push	ar6
      0001D8 C0 05            [24]  997 	push	ar5
      0001DA C0 04            [24]  998 	push	ar4
      0001DC C0 03            [24]  999 	push	ar3
      0001DE 12 02 8C         [24] 1000 	lcall	_setFontSize
                                   1001 ;	usr/main.c:107: setCursor(0,2);//设置printf到屏幕上的字符串起始位置
      0001E1 75 1B 02         [24] 1002 	mov	_setCursor_PARM_2,#0x02
      0001E4 75 1C 00         [24] 1003 	mov	(_setCursor_PARM_2 + 1),#0x00
      0001E7 90 00 00         [24] 1004 	mov	dptr,#0x0000
      0001EA 12 00 62         [24] 1005 	lcall	_setCursor
      0001ED D0 03            [24] 1006 	pop	ar3
      0001EF D0 04            [24] 1007 	pop	ar4
      0001F1 D0 05            [24] 1008 	pop	ar5
      0001F3 D0 06            [24] 1009 	pop	ar6
                                   1010 ;	usr/main.c:108: printf_fast_f("DA SC %fV    ",Output_Voltage);//把整流后的电压预测数据显示屏幕上 SC含义为shuchu1（输出）
      0001F5 C0 03            [24] 1011 	push	ar3
      0001F7 C0 04            [24] 1012 	push	ar4
      0001F9 C0 05            [24] 1013 	push	ar5
      0001FB C0 06            [24] 1014 	push	ar6
      0001FD 74 9A            [12] 1015 	mov	a,#___str_1
      0001FF C0 E0            [24] 1016 	push	acc
      000201 74 17            [12] 1017 	mov	a,#(___str_1 >> 8)
      000203 C0 E0            [24] 1018 	push	acc
      000205 12 08 69         [24] 1019 	lcall	_printf_fast_f
      000208 E5 81            [12] 1020 	mov	a,sp
      00020A 24 FA            [12] 1021 	add	a,#0xfa
      00020C F5 81            [12] 1022 	mov	sp,a
                                   1023 ;	usr/main.c:109: setFontSize(16); //设置显示在oled上屏幕的字号
      00020E 75 82 10         [24] 1024 	mov	dpl,#0x10
      000211 12 02 8C         [24] 1025 	lcall	_setFontSize
                                   1026 ;	usr/main.c:110: setCursor(0,4);//设置printf到屏幕上的字符串起始位置
      000214 75 1B 04         [24] 1027 	mov	_setCursor_PARM_2,#0x04
      000217 75 1C 00         [24] 1028 	mov	(_setCursor_PARM_2 + 1),#0x00
      00021A 90 00 00         [24] 1029 	mov	dptr,#0x0000
      00021D 12 00 62         [24] 1030 	lcall	_setCursor
                                   1031 ;	usr/main.c:111: printf_fast_f("AD CJ %fV    ",Voltage);//显示数据到屏幕上 CJ含义为caiji（采集）
      000220 C0 0C            [24] 1032 	push	_main_Voltage_65536_67
      000222 C0 0D            [24] 1033 	push	(_main_Voltage_65536_67 + 1)
      000224 C0 0E            [24] 1034 	push	(_main_Voltage_65536_67 + 2)
      000226 C0 0F            [24] 1035 	push	(_main_Voltage_65536_67 + 3)
      000228 74 A8            [12] 1036 	mov	a,#___str_2
      00022A C0 E0            [24] 1037 	push	acc
      00022C 74 17            [12] 1038 	mov	a,#(___str_2 >> 8)
      00022E C0 E0            [24] 1039 	push	acc
      000230 12 08 69         [24] 1040 	lcall	_printf_fast_f
      000233 E5 81            [12] 1041 	mov	a,sp
      000235 24 FA            [12] 1042 	add	a,#0xfa
      000237 F5 81            [12] 1043 	mov	sp,a
      000239 D0 07            [24] 1044 	pop	ar7
                                   1045 ;	usr/main.c:112: i+=10;
      00023B 8F 06            [24] 1046 	mov	ar6,r7
      00023D 74 0A            [12] 1047 	mov	a,#0x0a
      00023F 2E               [12] 1048 	add	a,r6
      000240 FF               [12] 1049 	mov	r7,a
                                   1050 ;	usr/main.c:114: }
      000241 02 00 A2         [24] 1051 	ljmp	00105$
                                   1052 ;------------------------------------------------------------
                                   1053 ;Allocation info for local variables in function 'putchar'
                                   1054 ;------------------------------------------------------------
                                   1055 ;a                         Allocated to registers r6 r7 
                                   1056 ;------------------------------------------------------------
                                   1057 ;	usr/main.c:121: int putchar( int a)
                                   1058 ;	-----------------------------------------
                                   1059 ;	 function putchar
                                   1060 ;	-----------------------------------------
      000244                       1061 _putchar:
      000244 AE 82            [24] 1062 	mov	r6,dpl
      000246 AF 83            [24] 1063 	mov	r7,dph
                                   1064 ;	usr/main.c:123: OLED_ShowChar(oled_colum,oled_row,a);
      000248 85 08 82         [24] 1065 	mov	dpl,_oled_colum
      00024B 85 0A 25         [24] 1066 	mov	_OLED_ShowChar_PARM_2,_oled_row
      00024E 8E 26            [24] 1067 	mov	_OLED_ShowChar_PARM_3,r6
      000250 C0 07            [24] 1068 	push	ar7
      000252 C0 06            [24] 1069 	push	ar6
      000254 12 03 CE         [24] 1070 	lcall	_OLED_ShowChar
      000257 D0 06            [24] 1071 	pop	ar6
      000259 D0 07            [24] 1072 	pop	ar7
                                   1073 ;	usr/main.c:124: oled_colum+=8;
      00025B 74 08            [12] 1074 	mov	a,#0x08
      00025D 25 08            [12] 1075 	add	a,_oled_colum
      00025F F5 08            [12] 1076 	mov	_oled_colum,a
      000261 E4               [12] 1077 	clr	a
      000262 35 09            [12] 1078 	addc	a,(_oled_colum + 1)
      000264 F5 09            [12] 1079 	mov	(_oled_colum + 1),a
                                   1080 ;	usr/main.c:125: if (oled_colum>120){oled_colum=0;oled_row+=2;}
      000266 C3               [12] 1081 	clr	c
      000267 74 78            [12] 1082 	mov	a,#0x78
      000269 95 08            [12] 1083 	subb	a,_oled_colum
      00026B 74 80            [12] 1084 	mov	a,#(0x00 ^ 0x80)
      00026D 85 09 F0         [24] 1085 	mov	b,(_oled_colum + 1)
      000270 63 F0 80         [24] 1086 	xrl	b,#0x80
      000273 95 F0            [12] 1087 	subb	a,b
      000275 50 10            [24] 1088 	jnc	00102$
      000277 E4               [12] 1089 	clr	a
      000278 F5 08            [12] 1090 	mov	_oled_colum,a
      00027A F5 09            [12] 1091 	mov	(_oled_colum + 1),a
      00027C 74 02            [12] 1092 	mov	a,#0x02
      00027E 25 0A            [12] 1093 	add	a,_oled_row
      000280 F5 0A            [12] 1094 	mov	_oled_row,a
      000282 E4               [12] 1095 	clr	a
      000283 35 0B            [12] 1096 	addc	a,(_oled_row + 1)
      000285 F5 0B            [12] 1097 	mov	(_oled_row + 1),a
      000287                       1098 00102$:
                                   1099 ;	usr/main.c:126: return(a);
      000287 8E 82            [24] 1100 	mov	dpl,r6
      000289 8F 83            [24] 1101 	mov	dph,r7
                                   1102 ;	usr/main.c:127: }
      00028B 22               [24] 1103 	ret
                                   1104 	.area CSEG    (CODE)
                                   1105 	.area CONST   (CODE)
      000F8D                       1106 _BMP1:
      000F8D 00                    1107 	.db #0x00	; 0
      000F8E 03                    1108 	.db #0x03	; 3
      000F8F 05                    1109 	.db #0x05	; 5
      000F90 09                    1110 	.db #0x09	; 9
      000F91 11                    1111 	.db #0x11	; 17
      000F92 FF                    1112 	.db #0xff	; 255
      000F93 11                    1113 	.db #0x11	; 17
      000F94 89                    1114 	.db #0x89	; 137
      000F95 05                    1115 	.db #0x05	; 5
      000F96 C3                    1116 	.db #0xc3	; 195
      000F97 00                    1117 	.db #0x00	; 0
      000F98 E0                    1118 	.db #0xe0	; 224
      000F99 00                    1119 	.db #0x00	; 0
      000F9A F0                    1120 	.db #0xf0	; 240
      000F9B 00                    1121 	.db #0x00	; 0
      000F9C F8                    1122 	.db #0xf8	; 248
      000F9D 00                    1123 	.db #0x00	; 0
      000F9E 00                    1124 	.db #0x00	; 0
      000F9F 00                    1125 	.db #0x00	; 0
      000FA0 00                    1126 	.db #0x00	; 0
      000FA1 00                    1127 	.db #0x00	; 0
      000FA2 00                    1128 	.db #0x00	; 0
      000FA3 00                    1129 	.db #0x00	; 0
      000FA4 44                    1130 	.db #0x44	; 68	'D'
      000FA5 28                    1131 	.db #0x28	; 40
      000FA6 FF                    1132 	.db #0xff	; 255
      000FA7 11                    1133 	.db #0x11	; 17
      000FA8 AA                    1134 	.db #0xaa	; 170
      000FA9 44                    1135 	.db #0x44	; 68	'D'
      000FAA 00                    1136 	.db #0x00	; 0
      000FAB 00                    1137 	.db #0x00	; 0
      000FAC 00                    1138 	.db #0x00	; 0
      000FAD 00                    1139 	.db #0x00	; 0
      000FAE 00                    1140 	.db #0x00	; 0
      000FAF 00                    1141 	.db #0x00	; 0
      000FB0 00                    1142 	.db #0x00	; 0
      000FB1 00                    1143 	.db #0x00	; 0
      000FB2 00                    1144 	.db #0x00	; 0
      000FB3 00                    1145 	.db #0x00	; 0
      000FB4 00                    1146 	.db #0x00	; 0
      000FB5 00                    1147 	.db #0x00	; 0
      000FB6 00                    1148 	.db #0x00	; 0
      000FB7 00                    1149 	.db #0x00	; 0
      000FB8 00                    1150 	.db #0x00	; 0
      000FB9 00                    1151 	.db #0x00	; 0
      000FBA 00                    1152 	.db #0x00	; 0
      000FBB 00                    1153 	.db #0x00	; 0
      000FBC 00                    1154 	.db #0x00	; 0
      000FBD 00                    1155 	.db #0x00	; 0
      000FBE 00                    1156 	.db #0x00	; 0
      000FBF 00                    1157 	.db #0x00	; 0
      000FC0 00                    1158 	.db #0x00	; 0
      000FC1 00                    1159 	.db #0x00	; 0
      000FC2 00                    1160 	.db #0x00	; 0
      000FC3 00                    1161 	.db #0x00	; 0
      000FC4 00                    1162 	.db #0x00	; 0
      000FC5 00                    1163 	.db #0x00	; 0
      000FC6 00                    1164 	.db #0x00	; 0
      000FC7 00                    1165 	.db #0x00	; 0
      000FC8 00                    1166 	.db #0x00	; 0
      000FC9 00                    1167 	.db #0x00	; 0
      000FCA 00                    1168 	.db #0x00	; 0
      000FCB 00                    1169 	.db #0x00	; 0
      000FCC 00                    1170 	.db #0x00	; 0
      000FCD 00                    1171 	.db #0x00	; 0
      000FCE 00                    1172 	.db #0x00	; 0
      000FCF 00                    1173 	.db #0x00	; 0
      000FD0 00                    1174 	.db #0x00	; 0
      000FD1 00                    1175 	.db #0x00	; 0
      000FD2 00                    1176 	.db #0x00	; 0
      000FD3 00                    1177 	.db #0x00	; 0
      000FD4 00                    1178 	.db #0x00	; 0
      000FD5 00                    1179 	.db #0x00	; 0
      000FD6 00                    1180 	.db #0x00	; 0
      000FD7 00                    1181 	.db #0x00	; 0
      000FD8 00                    1182 	.db #0x00	; 0
      000FD9 00                    1183 	.db #0x00	; 0
      000FDA 00                    1184 	.db #0x00	; 0
      000FDB 00                    1185 	.db #0x00	; 0
      000FDC 00                    1186 	.db #0x00	; 0
      000FDD 00                    1187 	.db #0x00	; 0
      000FDE 00                    1188 	.db #0x00	; 0
      000FDF 00                    1189 	.db #0x00	; 0
      000FE0 00                    1190 	.db #0x00	; 0
      000FE1 00                    1191 	.db #0x00	; 0
      000FE2 00                    1192 	.db #0x00	; 0
      000FE3 00                    1193 	.db #0x00	; 0
      000FE4 00                    1194 	.db #0x00	; 0
      000FE5 00                    1195 	.db #0x00	; 0
      000FE6 00                    1196 	.db #0x00	; 0
      000FE7 83                    1197 	.db #0x83	; 131
      000FE8 01                    1198 	.db #0x01	; 1
      000FE9 38                    1199 	.db #0x38	; 56	'8'
      000FEA 44                    1200 	.db #0x44	; 68	'D'
      000FEB 82                    1201 	.db #0x82	; 130
      000FEC 92                    1202 	.db #0x92	; 146
      000FED 92                    1203 	.db #0x92	; 146
      000FEE 74                    1204 	.db #0x74	; 116	't'
      000FEF 01                    1205 	.db #0x01	; 1
      000FF0 83                    1206 	.db #0x83	; 131
      000FF1 00                    1207 	.db #0x00	; 0
      000FF2 00                    1208 	.db #0x00	; 0
      000FF3 00                    1209 	.db #0x00	; 0
      000FF4 00                    1210 	.db #0x00	; 0
      000FF5 00                    1211 	.db #0x00	; 0
      000FF6 00                    1212 	.db #0x00	; 0
      000FF7 00                    1213 	.db #0x00	; 0
      000FF8 7C                    1214 	.db #0x7c	; 124
      000FF9 44                    1215 	.db #0x44	; 68	'D'
      000FFA FF                    1216 	.db #0xff	; 255
      000FFB 01                    1217 	.db #0x01	; 1
      000FFC 7D                    1218 	.db #0x7d	; 125
      000FFD 7D                    1219 	.db #0x7d	; 125
      000FFE 7D                    1220 	.db #0x7d	; 125
      000FFF 01                    1221 	.db #0x01	; 1
      001000 7D                    1222 	.db #0x7d	; 125
      001001 7D                    1223 	.db #0x7d	; 125
      001002 7D                    1224 	.db #0x7d	; 125
      001003 7D                    1225 	.db #0x7d	; 125
      001004 01                    1226 	.db #0x01	; 1
      001005 7D                    1227 	.db #0x7d	; 125
      001006 7D                    1228 	.db #0x7d	; 125
      001007 7D                    1229 	.db #0x7d	; 125
      001008 7D                    1230 	.db #0x7d	; 125
      001009 7D                    1231 	.db #0x7d	; 125
      00100A 01                    1232 	.db #0x01	; 1
      00100B FF                    1233 	.db #0xff	; 255
      00100C 00                    1234 	.db #0x00	; 0
      00100D 00                    1235 	.db #0x00	; 0
      00100E 00                    1236 	.db #0x00	; 0
      00100F 00                    1237 	.db #0x00	; 0
      001010 00                    1238 	.db #0x00	; 0
      001011 00                    1239 	.db #0x00	; 0
      001012 01                    1240 	.db #0x01	; 1
      001013 00                    1241 	.db #0x00	; 0
      001014 01                    1242 	.db #0x01	; 1
      001015 00                    1243 	.db #0x00	; 0
      001016 01                    1244 	.db #0x01	; 1
      001017 00                    1245 	.db #0x00	; 0
      001018 01                    1246 	.db #0x01	; 1
      001019 00                    1247 	.db #0x00	; 0
      00101A 01                    1248 	.db #0x01	; 1
      00101B 00                    1249 	.db #0x00	; 0
      00101C 01                    1250 	.db #0x01	; 1
      00101D 00                    1251 	.db #0x00	; 0
      00101E 00                    1252 	.db #0x00	; 0
      00101F 00                    1253 	.db #0x00	; 0
      001020 00                    1254 	.db #0x00	; 0
      001021 00                    1255 	.db #0x00	; 0
      001022 00                    1256 	.db #0x00	; 0
      001023 00                    1257 	.db #0x00	; 0
      001024 00                    1258 	.db #0x00	; 0
      001025 00                    1259 	.db #0x00	; 0
      001026 01                    1260 	.db #0x01	; 1
      001027 01                    1261 	.db #0x01	; 1
      001028 00                    1262 	.db #0x00	; 0
      001029 00                    1263 	.db #0x00	; 0
      00102A 00                    1264 	.db #0x00	; 0
      00102B 00                    1265 	.db #0x00	; 0
      00102C 00                    1266 	.db #0x00	; 0
      00102D 00                    1267 	.db #0x00	; 0
      00102E 00                    1268 	.db #0x00	; 0
      00102F 00                    1269 	.db #0x00	; 0
      001030 00                    1270 	.db #0x00	; 0
      001031 00                    1271 	.db #0x00	; 0
      001032 00                    1272 	.db #0x00	; 0
      001033 00                    1273 	.db #0x00	; 0
      001034 00                    1274 	.db #0x00	; 0
      001035 00                    1275 	.db #0x00	; 0
      001036 00                    1276 	.db #0x00	; 0
      001037 00                    1277 	.db #0x00	; 0
      001038 00                    1278 	.db #0x00	; 0
      001039 00                    1279 	.db #0x00	; 0
      00103A 00                    1280 	.db #0x00	; 0
      00103B 00                    1281 	.db #0x00	; 0
      00103C 00                    1282 	.db #0x00	; 0
      00103D 00                    1283 	.db #0x00	; 0
      00103E 00                    1284 	.db #0x00	; 0
      00103F 00                    1285 	.db #0x00	; 0
      001040 00                    1286 	.db #0x00	; 0
      001041 00                    1287 	.db #0x00	; 0
      001042 00                    1288 	.db #0x00	; 0
      001043 00                    1289 	.db #0x00	; 0
      001044 00                    1290 	.db #0x00	; 0
      001045 00                    1291 	.db #0x00	; 0
      001046 00                    1292 	.db #0x00	; 0
      001047 00                    1293 	.db #0x00	; 0
      001048 00                    1294 	.db #0x00	; 0
      001049 00                    1295 	.db #0x00	; 0
      00104A 00                    1296 	.db #0x00	; 0
      00104B 00                    1297 	.db #0x00	; 0
      00104C 00                    1298 	.db #0x00	; 0
      00104D 00                    1299 	.db #0x00	; 0
      00104E 00                    1300 	.db #0x00	; 0
      00104F 00                    1301 	.db #0x00	; 0
      001050 00                    1302 	.db #0x00	; 0
      001051 00                    1303 	.db #0x00	; 0
      001052 00                    1304 	.db #0x00	; 0
      001053 00                    1305 	.db #0x00	; 0
      001054 00                    1306 	.db #0x00	; 0
      001055 00                    1307 	.db #0x00	; 0
      001056 00                    1308 	.db #0x00	; 0
      001057 00                    1309 	.db #0x00	; 0
      001058 00                    1310 	.db #0x00	; 0
      001059 00                    1311 	.db #0x00	; 0
      00105A 00                    1312 	.db #0x00	; 0
      00105B 00                    1313 	.db #0x00	; 0
      00105C 00                    1314 	.db #0x00	; 0
      00105D 00                    1315 	.db #0x00	; 0
      00105E 00                    1316 	.db #0x00	; 0
      00105F 00                    1317 	.db #0x00	; 0
      001060 00                    1318 	.db #0x00	; 0
      001061 00                    1319 	.db #0x00	; 0
      001062 00                    1320 	.db #0x00	; 0
      001063 00                    1321 	.db #0x00	; 0
      001064 00                    1322 	.db #0x00	; 0
      001065 00                    1323 	.db #0x00	; 0
      001066 00                    1324 	.db #0x00	; 0
      001067 01                    1325 	.db #0x01	; 1
      001068 01                    1326 	.db #0x01	; 1
      001069 00                    1327 	.db #0x00	; 0
      00106A 00                    1328 	.db #0x00	; 0
      00106B 00                    1329 	.db #0x00	; 0
      00106C 00                    1330 	.db #0x00	; 0
      00106D 00                    1331 	.db #0x00	; 0
      00106E 00                    1332 	.db #0x00	; 0
      00106F 01                    1333 	.db #0x01	; 1
      001070 01                    1334 	.db #0x01	; 1
      001071 00                    1335 	.db #0x00	; 0
      001072 00                    1336 	.db #0x00	; 0
      001073 00                    1337 	.db #0x00	; 0
      001074 00                    1338 	.db #0x00	; 0
      001075 00                    1339 	.db #0x00	; 0
      001076 00                    1340 	.db #0x00	; 0
      001077 00                    1341 	.db #0x00	; 0
      001078 00                    1342 	.db #0x00	; 0
      001079 00                    1343 	.db #0x00	; 0
      00107A 01                    1344 	.db #0x01	; 1
      00107B 01                    1345 	.db #0x01	; 1
      00107C 01                    1346 	.db #0x01	; 1
      00107D 01                    1347 	.db #0x01	; 1
      00107E 01                    1348 	.db #0x01	; 1
      00107F 01                    1349 	.db #0x01	; 1
      001080 01                    1350 	.db #0x01	; 1
      001081 01                    1351 	.db #0x01	; 1
      001082 01                    1352 	.db #0x01	; 1
      001083 01                    1353 	.db #0x01	; 1
      001084 01                    1354 	.db #0x01	; 1
      001085 01                    1355 	.db #0x01	; 1
      001086 01                    1356 	.db #0x01	; 1
      001087 01                    1357 	.db #0x01	; 1
      001088 01                    1358 	.db #0x01	; 1
      001089 01                    1359 	.db #0x01	; 1
      00108A 01                    1360 	.db #0x01	; 1
      00108B 01                    1361 	.db #0x01	; 1
      00108C 00                    1362 	.db #0x00	; 0
      00108D 00                    1363 	.db #0x00	; 0
      00108E 00                    1364 	.db #0x00	; 0
      00108F 00                    1365 	.db #0x00	; 0
      001090 00                    1366 	.db #0x00	; 0
      001091 00                    1367 	.db #0x00	; 0
      001092 00                    1368 	.db #0x00	; 0
      001093 00                    1369 	.db #0x00	; 0
      001094 00                    1370 	.db #0x00	; 0
      001095 00                    1371 	.db #0x00	; 0
      001096 00                    1372 	.db #0x00	; 0
      001097 00                    1373 	.db #0x00	; 0
      001098 00                    1374 	.db #0x00	; 0
      001099 00                    1375 	.db #0x00	; 0
      00109A 00                    1376 	.db #0x00	; 0
      00109B 00                    1377 	.db #0x00	; 0
      00109C 00                    1378 	.db #0x00	; 0
      00109D 00                    1379 	.db #0x00	; 0
      00109E 00                    1380 	.db #0x00	; 0
      00109F 00                    1381 	.db #0x00	; 0
      0010A0 00                    1382 	.db #0x00	; 0
      0010A1 00                    1383 	.db #0x00	; 0
      0010A2 00                    1384 	.db #0x00	; 0
      0010A3 00                    1385 	.db #0x00	; 0
      0010A4 00                    1386 	.db #0x00	; 0
      0010A5 00                    1387 	.db #0x00	; 0
      0010A6 00                    1388 	.db #0x00	; 0
      0010A7 00                    1389 	.db #0x00	; 0
      0010A8 00                    1390 	.db #0x00	; 0
      0010A9 3F                    1391 	.db #0x3f	; 63
      0010AA 3F                    1392 	.db #0x3f	; 63
      0010AB 03                    1393 	.db #0x03	; 3
      0010AC 03                    1394 	.db #0x03	; 3
      0010AD F3                    1395 	.db #0xf3	; 243
      0010AE 13                    1396 	.db #0x13	; 19
      0010AF 11                    1397 	.db #0x11	; 17
      0010B0 11                    1398 	.db #0x11	; 17
      0010B1 11                    1399 	.db #0x11	; 17
      0010B2 11                    1400 	.db #0x11	; 17
      0010B3 11                    1401 	.db #0x11	; 17
      0010B4 11                    1402 	.db #0x11	; 17
      0010B5 01                    1403 	.db #0x01	; 1
      0010B6 F1                    1404 	.db #0xf1	; 241
      0010B7 11                    1405 	.db #0x11	; 17
      0010B8 61                    1406 	.db #0x61	; 97	'a'
      0010B9 81                    1407 	.db #0x81	; 129
      0010BA 01                    1408 	.db #0x01	; 1
      0010BB 01                    1409 	.db #0x01	; 1
      0010BC 01                    1410 	.db #0x01	; 1
      0010BD 81                    1411 	.db #0x81	; 129
      0010BE 61                    1412 	.db #0x61	; 97	'a'
      0010BF 11                    1413 	.db #0x11	; 17
      0010C0 F1                    1414 	.db #0xf1	; 241
      0010C1 01                    1415 	.db #0x01	; 1
      0010C2 01                    1416 	.db #0x01	; 1
      0010C3 01                    1417 	.db #0x01	; 1
      0010C4 01                    1418 	.db #0x01	; 1
      0010C5 41                    1419 	.db #0x41	; 65	'A'
      0010C6 41                    1420 	.db #0x41	; 65	'A'
      0010C7 F1                    1421 	.db #0xf1	; 241
      0010C8 01                    1422 	.db #0x01	; 1
      0010C9 01                    1423 	.db #0x01	; 1
      0010CA 01                    1424 	.db #0x01	; 1
      0010CB 01                    1425 	.db #0x01	; 1
      0010CC 01                    1426 	.db #0x01	; 1
      0010CD C1                    1427 	.db #0xc1	; 193
      0010CE 21                    1428 	.db #0x21	; 33
      0010CF 11                    1429 	.db #0x11	; 17
      0010D0 11                    1430 	.db #0x11	; 17
      0010D1 11                    1431 	.db #0x11	; 17
      0010D2 11                    1432 	.db #0x11	; 17
      0010D3 21                    1433 	.db #0x21	; 33
      0010D4 C1                    1434 	.db #0xc1	; 193
      0010D5 01                    1435 	.db #0x01	; 1
      0010D6 01                    1436 	.db #0x01	; 1
      0010D7 01                    1437 	.db #0x01	; 1
      0010D8 01                    1438 	.db #0x01	; 1
      0010D9 41                    1439 	.db #0x41	; 65	'A'
      0010DA 41                    1440 	.db #0x41	; 65	'A'
      0010DB F1                    1441 	.db #0xf1	; 241
      0010DC 01                    1442 	.db #0x01	; 1
      0010DD 01                    1443 	.db #0x01	; 1
      0010DE 01                    1444 	.db #0x01	; 1
      0010DF 01                    1445 	.db #0x01	; 1
      0010E0 01                    1446 	.db #0x01	; 1
      0010E1 01                    1447 	.db #0x01	; 1
      0010E2 01                    1448 	.db #0x01	; 1
      0010E3 01                    1449 	.db #0x01	; 1
      0010E4 01                    1450 	.db #0x01	; 1
      0010E5 01                    1451 	.db #0x01	; 1
      0010E6 11                    1452 	.db #0x11	; 17
      0010E7 11                    1453 	.db #0x11	; 17
      0010E8 11                    1454 	.db #0x11	; 17
      0010E9 11                    1455 	.db #0x11	; 17
      0010EA 11                    1456 	.db #0x11	; 17
      0010EB D3                    1457 	.db #0xd3	; 211
      0010EC 33                    1458 	.db #0x33	; 51	'3'
      0010ED 03                    1459 	.db #0x03	; 3
      0010EE 03                    1460 	.db #0x03	; 3
      0010EF 3F                    1461 	.db #0x3f	; 63
      0010F0 3F                    1462 	.db #0x3f	; 63
      0010F1 00                    1463 	.db #0x00	; 0
      0010F2 00                    1464 	.db #0x00	; 0
      0010F3 00                    1465 	.db #0x00	; 0
      0010F4 00                    1466 	.db #0x00	; 0
      0010F5 00                    1467 	.db #0x00	; 0
      0010F6 00                    1468 	.db #0x00	; 0
      0010F7 00                    1469 	.db #0x00	; 0
      0010F8 00                    1470 	.db #0x00	; 0
      0010F9 00                    1471 	.db #0x00	; 0
      0010FA 00                    1472 	.db #0x00	; 0
      0010FB 00                    1473 	.db #0x00	; 0
      0010FC 00                    1474 	.db #0x00	; 0
      0010FD 00                    1475 	.db #0x00	; 0
      0010FE 00                    1476 	.db #0x00	; 0
      0010FF 00                    1477 	.db #0x00	; 0
      001100 00                    1478 	.db #0x00	; 0
      001101 00                    1479 	.db #0x00	; 0
      001102 00                    1480 	.db #0x00	; 0
      001103 00                    1481 	.db #0x00	; 0
      001104 00                    1482 	.db #0x00	; 0
      001105 00                    1483 	.db #0x00	; 0
      001106 00                    1484 	.db #0x00	; 0
      001107 00                    1485 	.db #0x00	; 0
      001108 00                    1486 	.db #0x00	; 0
      001109 00                    1487 	.db #0x00	; 0
      00110A 00                    1488 	.db #0x00	; 0
      00110B 00                    1489 	.db #0x00	; 0
      00110C 00                    1490 	.db #0x00	; 0
      00110D 00                    1491 	.db #0x00	; 0
      00110E 00                    1492 	.db #0x00	; 0
      00110F 00                    1493 	.db #0x00	; 0
      001110 00                    1494 	.db #0x00	; 0
      001111 00                    1495 	.db #0x00	; 0
      001112 00                    1496 	.db #0x00	; 0
      001113 00                    1497 	.db #0x00	; 0
      001114 00                    1498 	.db #0x00	; 0
      001115 00                    1499 	.db #0x00	; 0
      001116 00                    1500 	.db #0x00	; 0
      001117 00                    1501 	.db #0x00	; 0
      001118 00                    1502 	.db #0x00	; 0
      001119 00                    1503 	.db #0x00	; 0
      00111A 00                    1504 	.db #0x00	; 0
      00111B 00                    1505 	.db #0x00	; 0
      00111C 00                    1506 	.db #0x00	; 0
      00111D 00                    1507 	.db #0x00	; 0
      00111E 00                    1508 	.db #0x00	; 0
      00111F 00                    1509 	.db #0x00	; 0
      001120 00                    1510 	.db #0x00	; 0
      001121 00                    1511 	.db #0x00	; 0
      001122 00                    1512 	.db #0x00	; 0
      001123 00                    1513 	.db #0x00	; 0
      001124 00                    1514 	.db #0x00	; 0
      001125 00                    1515 	.db #0x00	; 0
      001126 00                    1516 	.db #0x00	; 0
      001127 00                    1517 	.db #0x00	; 0
      001128 00                    1518 	.db #0x00	; 0
      001129 E0                    1519 	.db #0xe0	; 224
      00112A E0                    1520 	.db #0xe0	; 224
      00112B 00                    1521 	.db #0x00	; 0
      00112C 00                    1522 	.db #0x00	; 0
      00112D 7F                    1523 	.db #0x7f	; 127
      00112E 01                    1524 	.db #0x01	; 1
      00112F 01                    1525 	.db #0x01	; 1
      001130 01                    1526 	.db #0x01	; 1
      001131 01                    1527 	.db #0x01	; 1
      001132 01                    1528 	.db #0x01	; 1
      001133 01                    1529 	.db #0x01	; 1
      001134 00                    1530 	.db #0x00	; 0
      001135 00                    1531 	.db #0x00	; 0
      001136 7F                    1532 	.db #0x7f	; 127
      001137 00                    1533 	.db #0x00	; 0
      001138 00                    1534 	.db #0x00	; 0
      001139 01                    1535 	.db #0x01	; 1
      00113A 06                    1536 	.db #0x06	; 6
      00113B 18                    1537 	.db #0x18	; 24
      00113C 06                    1538 	.db #0x06	; 6
      00113D 01                    1539 	.db #0x01	; 1
      00113E 00                    1540 	.db #0x00	; 0
      00113F 00                    1541 	.db #0x00	; 0
      001140 7F                    1542 	.db #0x7f	; 127
      001141 00                    1543 	.db #0x00	; 0
      001142 00                    1544 	.db #0x00	; 0
      001143 00                    1545 	.db #0x00	; 0
      001144 00                    1546 	.db #0x00	; 0
      001145 40                    1547 	.db #0x40	; 64
      001146 40                    1548 	.db #0x40	; 64
      001147 7F                    1549 	.db #0x7f	; 127
      001148 40                    1550 	.db #0x40	; 64
      001149 40                    1551 	.db #0x40	; 64
      00114A 00                    1552 	.db #0x00	; 0
      00114B 00                    1553 	.db #0x00	; 0
      00114C 00                    1554 	.db #0x00	; 0
      00114D 1F                    1555 	.db #0x1f	; 31
      00114E 20                    1556 	.db #0x20	; 32
      00114F 40                    1557 	.db #0x40	; 64
      001150 40                    1558 	.db #0x40	; 64
      001151 40                    1559 	.db #0x40	; 64
      001152 40                    1560 	.db #0x40	; 64
      001153 20                    1561 	.db #0x20	; 32
      001154 1F                    1562 	.db #0x1f	; 31
      001155 00                    1563 	.db #0x00	; 0
      001156 00                    1564 	.db #0x00	; 0
      001157 00                    1565 	.db #0x00	; 0
      001158 00                    1566 	.db #0x00	; 0
      001159 40                    1567 	.db #0x40	; 64
      00115A 40                    1568 	.db #0x40	; 64
      00115B 7F                    1569 	.db #0x7f	; 127
      00115C 40                    1570 	.db #0x40	; 64
      00115D 40                    1571 	.db #0x40	; 64
      00115E 00                    1572 	.db #0x00	; 0
      00115F 00                    1573 	.db #0x00	; 0
      001160 00                    1574 	.db #0x00	; 0
      001161 00                    1575 	.db #0x00	; 0
      001162 60                    1576 	.db #0x60	; 96
      001163 00                    1577 	.db #0x00	; 0
      001164 00                    1578 	.db #0x00	; 0
      001165 00                    1579 	.db #0x00	; 0
      001166 00                    1580 	.db #0x00	; 0
      001167 40                    1581 	.db #0x40	; 64
      001168 30                    1582 	.db #0x30	; 48	'0'
      001169 0C                    1583 	.db #0x0c	; 12
      00116A 03                    1584 	.db #0x03	; 3
      00116B 00                    1585 	.db #0x00	; 0
      00116C 00                    1586 	.db #0x00	; 0
      00116D 00                    1587 	.db #0x00	; 0
      00116E 00                    1588 	.db #0x00	; 0
      00116F E0                    1589 	.db #0xe0	; 224
      001170 E0                    1590 	.db #0xe0	; 224
      001171 00                    1591 	.db #0x00	; 0
      001172 00                    1592 	.db #0x00	; 0
      001173 00                    1593 	.db #0x00	; 0
      001174 00                    1594 	.db #0x00	; 0
      001175 00                    1595 	.db #0x00	; 0
      001176 00                    1596 	.db #0x00	; 0
      001177 00                    1597 	.db #0x00	; 0
      001178 00                    1598 	.db #0x00	; 0
      001179 00                    1599 	.db #0x00	; 0
      00117A 00                    1600 	.db #0x00	; 0
      00117B 00                    1601 	.db #0x00	; 0
      00117C 00                    1602 	.db #0x00	; 0
      00117D 00                    1603 	.db #0x00	; 0
      00117E 00                    1604 	.db #0x00	; 0
      00117F 00                    1605 	.db #0x00	; 0
      001180 00                    1606 	.db #0x00	; 0
      001181 00                    1607 	.db #0x00	; 0
      001182 00                    1608 	.db #0x00	; 0
      001183 00                    1609 	.db #0x00	; 0
      001184 00                    1610 	.db #0x00	; 0
      001185 00                    1611 	.db #0x00	; 0
      001186 00                    1612 	.db #0x00	; 0
      001187 00                    1613 	.db #0x00	; 0
      001188 00                    1614 	.db #0x00	; 0
      001189 00                    1615 	.db #0x00	; 0
      00118A 00                    1616 	.db #0x00	; 0
      00118B 00                    1617 	.db #0x00	; 0
      00118C 00                    1618 	.db #0x00	; 0
      00118D 00                    1619 	.db #0x00	; 0
      00118E 00                    1620 	.db #0x00	; 0
      00118F 00                    1621 	.db #0x00	; 0
      001190 00                    1622 	.db #0x00	; 0
      001191 00                    1623 	.db #0x00	; 0
      001192 00                    1624 	.db #0x00	; 0
      001193 00                    1625 	.db #0x00	; 0
      001194 00                    1626 	.db #0x00	; 0
      001195 00                    1627 	.db #0x00	; 0
      001196 00                    1628 	.db #0x00	; 0
      001197 00                    1629 	.db #0x00	; 0
      001198 00                    1630 	.db #0x00	; 0
      001199 00                    1631 	.db #0x00	; 0
      00119A 00                    1632 	.db #0x00	; 0
      00119B 00                    1633 	.db #0x00	; 0
      00119C 00                    1634 	.db #0x00	; 0
      00119D 00                    1635 	.db #0x00	; 0
      00119E 00                    1636 	.db #0x00	; 0
      00119F 00                    1637 	.db #0x00	; 0
      0011A0 00                    1638 	.db #0x00	; 0
      0011A1 00                    1639 	.db #0x00	; 0
      0011A2 00                    1640 	.db #0x00	; 0
      0011A3 00                    1641 	.db #0x00	; 0
      0011A4 00                    1642 	.db #0x00	; 0
      0011A5 00                    1643 	.db #0x00	; 0
      0011A6 00                    1644 	.db #0x00	; 0
      0011A7 00                    1645 	.db #0x00	; 0
      0011A8 00                    1646 	.db #0x00	; 0
      0011A9 07                    1647 	.db #0x07	; 7
      0011AA 07                    1648 	.db #0x07	; 7
      0011AB 06                    1649 	.db #0x06	; 6
      0011AC 06                    1650 	.db #0x06	; 6
      0011AD 06                    1651 	.db #0x06	; 6
      0011AE 06                    1652 	.db #0x06	; 6
      0011AF 04                    1653 	.db #0x04	; 4
      0011B0 04                    1654 	.db #0x04	; 4
      0011B1 04                    1655 	.db #0x04	; 4
      0011B2 84                    1656 	.db #0x84	; 132
      0011B3 44                    1657 	.db #0x44	; 68	'D'
      0011B4 44                    1658 	.db #0x44	; 68	'D'
      0011B5 44                    1659 	.db #0x44	; 68	'D'
      0011B6 84                    1660 	.db #0x84	; 132
      0011B7 04                    1661 	.db #0x04	; 4
      0011B8 04                    1662 	.db #0x04	; 4
      0011B9 84                    1663 	.db #0x84	; 132
      0011BA 44                    1664 	.db #0x44	; 68	'D'
      0011BB 44                    1665 	.db #0x44	; 68	'D'
      0011BC 44                    1666 	.db #0x44	; 68	'D'
      0011BD 84                    1667 	.db #0x84	; 132
      0011BE 04                    1668 	.db #0x04	; 4
      0011BF 04                    1669 	.db #0x04	; 4
      0011C0 04                    1670 	.db #0x04	; 4
      0011C1 84                    1671 	.db #0x84	; 132
      0011C2 C4                    1672 	.db #0xc4	; 196
      0011C3 04                    1673 	.db #0x04	; 4
      0011C4 04                    1674 	.db #0x04	; 4
      0011C5 04                    1675 	.db #0x04	; 4
      0011C6 04                    1676 	.db #0x04	; 4
      0011C7 84                    1677 	.db #0x84	; 132
      0011C8 44                    1678 	.db #0x44	; 68	'D'
      0011C9 44                    1679 	.db #0x44	; 68	'D'
      0011CA 44                    1680 	.db #0x44	; 68	'D'
      0011CB 84                    1681 	.db #0x84	; 132
      0011CC 04                    1682 	.db #0x04	; 4
      0011CD 04                    1683 	.db #0x04	; 4
      0011CE 04                    1684 	.db #0x04	; 4
      0011CF 04                    1685 	.db #0x04	; 4
      0011D0 04                    1686 	.db #0x04	; 4
      0011D1 84                    1687 	.db #0x84	; 132
      0011D2 44                    1688 	.db #0x44	; 68	'D'
      0011D3 44                    1689 	.db #0x44	; 68	'D'
      0011D4 44                    1690 	.db #0x44	; 68	'D'
      0011D5 84                    1691 	.db #0x84	; 132
      0011D6 04                    1692 	.db #0x04	; 4
      0011D7 04                    1693 	.db #0x04	; 4
      0011D8 04                    1694 	.db #0x04	; 4
      0011D9 04                    1695 	.db #0x04	; 4
      0011DA 04                    1696 	.db #0x04	; 4
      0011DB 84                    1697 	.db #0x84	; 132
      0011DC 44                    1698 	.db #0x44	; 68	'D'
      0011DD 44                    1699 	.db #0x44	; 68	'D'
      0011DE 44                    1700 	.db #0x44	; 68	'D'
      0011DF 84                    1701 	.db #0x84	; 132
      0011E0 04                    1702 	.db #0x04	; 4
      0011E1 04                    1703 	.db #0x04	; 4
      0011E2 84                    1704 	.db #0x84	; 132
      0011E3 44                    1705 	.db #0x44	; 68	'D'
      0011E4 44                    1706 	.db #0x44	; 68	'D'
      0011E5 44                    1707 	.db #0x44	; 68	'D'
      0011E6 84                    1708 	.db #0x84	; 132
      0011E7 04                    1709 	.db #0x04	; 4
      0011E8 04                    1710 	.db #0x04	; 4
      0011E9 04                    1711 	.db #0x04	; 4
      0011EA 04                    1712 	.db #0x04	; 4
      0011EB 06                    1713 	.db #0x06	; 6
      0011EC 06                    1714 	.db #0x06	; 6
      0011ED 06                    1715 	.db #0x06	; 6
      0011EE 06                    1716 	.db #0x06	; 6
      0011EF 07                    1717 	.db #0x07	; 7
      0011F0 07                    1718 	.db #0x07	; 7
      0011F1 00                    1719 	.db #0x00	; 0
      0011F2 00                    1720 	.db #0x00	; 0
      0011F3 00                    1721 	.db #0x00	; 0
      0011F4 00                    1722 	.db #0x00	; 0
      0011F5 00                    1723 	.db #0x00	; 0
      0011F6 00                    1724 	.db #0x00	; 0
      0011F7 00                    1725 	.db #0x00	; 0
      0011F8 00                    1726 	.db #0x00	; 0
      0011F9 00                    1727 	.db #0x00	; 0
      0011FA 00                    1728 	.db #0x00	; 0
      0011FB 00                    1729 	.db #0x00	; 0
      0011FC 00                    1730 	.db #0x00	; 0
      0011FD 00                    1731 	.db #0x00	; 0
      0011FE 00                    1732 	.db #0x00	; 0
      0011FF 00                    1733 	.db #0x00	; 0
      001200 00                    1734 	.db #0x00	; 0
      001201 00                    1735 	.db #0x00	; 0
      001202 00                    1736 	.db #0x00	; 0
      001203 00                    1737 	.db #0x00	; 0
      001204 00                    1738 	.db #0x00	; 0
      001205 00                    1739 	.db #0x00	; 0
      001206 00                    1740 	.db #0x00	; 0
      001207 00                    1741 	.db #0x00	; 0
      001208 00                    1742 	.db #0x00	; 0
      001209 00                    1743 	.db #0x00	; 0
      00120A 00                    1744 	.db #0x00	; 0
      00120B 00                    1745 	.db #0x00	; 0
      00120C 00                    1746 	.db #0x00	; 0
      00120D 00                    1747 	.db #0x00	; 0
      00120E 00                    1748 	.db #0x00	; 0
      00120F 00                    1749 	.db #0x00	; 0
      001210 00                    1750 	.db #0x00	; 0
      001211 00                    1751 	.db #0x00	; 0
      001212 00                    1752 	.db #0x00	; 0
      001213 00                    1753 	.db #0x00	; 0
      001214 00                    1754 	.db #0x00	; 0
      001215 00                    1755 	.db #0x00	; 0
      001216 00                    1756 	.db #0x00	; 0
      001217 00                    1757 	.db #0x00	; 0
      001218 00                    1758 	.db #0x00	; 0
      001219 00                    1759 	.db #0x00	; 0
      00121A 00                    1760 	.db #0x00	; 0
      00121B 00                    1761 	.db #0x00	; 0
      00121C 00                    1762 	.db #0x00	; 0
      00121D 00                    1763 	.db #0x00	; 0
      00121E 00                    1764 	.db #0x00	; 0
      00121F 00                    1765 	.db #0x00	; 0
      001220 00                    1766 	.db #0x00	; 0
      001221 00                    1767 	.db #0x00	; 0
      001222 00                    1768 	.db #0x00	; 0
      001223 00                    1769 	.db #0x00	; 0
      001224 00                    1770 	.db #0x00	; 0
      001225 00                    1771 	.db #0x00	; 0
      001226 00                    1772 	.db #0x00	; 0
      001227 00                    1773 	.db #0x00	; 0
      001228 00                    1774 	.db #0x00	; 0
      001229 00                    1775 	.db #0x00	; 0
      00122A 00                    1776 	.db #0x00	; 0
      00122B 00                    1777 	.db #0x00	; 0
      00122C 00                    1778 	.db #0x00	; 0
      00122D 00                    1779 	.db #0x00	; 0
      00122E 00                    1780 	.db #0x00	; 0
      00122F 00                    1781 	.db #0x00	; 0
      001230 00                    1782 	.db #0x00	; 0
      001231 00                    1783 	.db #0x00	; 0
      001232 10                    1784 	.db #0x10	; 16
      001233 18                    1785 	.db #0x18	; 24
      001234 14                    1786 	.db #0x14	; 20
      001235 12                    1787 	.db #0x12	; 18
      001236 11                    1788 	.db #0x11	; 17
      001237 00                    1789 	.db #0x00	; 0
      001238 00                    1790 	.db #0x00	; 0
      001239 0F                    1791 	.db #0x0f	; 15
      00123A 10                    1792 	.db #0x10	; 16
      00123B 10                    1793 	.db #0x10	; 16
      00123C 10                    1794 	.db #0x10	; 16
      00123D 0F                    1795 	.db #0x0f	; 15
      00123E 00                    1796 	.db #0x00	; 0
      00123F 00                    1797 	.db #0x00	; 0
      001240 00                    1798 	.db #0x00	; 0
      001241 10                    1799 	.db #0x10	; 16
      001242 1F                    1800 	.db #0x1f	; 31
      001243 10                    1801 	.db #0x10	; 16
      001244 00                    1802 	.db #0x00	; 0
      001245 00                    1803 	.db #0x00	; 0
      001246 00                    1804 	.db #0x00	; 0
      001247 08                    1805 	.db #0x08	; 8
      001248 10                    1806 	.db #0x10	; 16
      001249 12                    1807 	.db #0x12	; 18
      00124A 12                    1808 	.db #0x12	; 18
      00124B 0D                    1809 	.db #0x0d	; 13
      00124C 00                    1810 	.db #0x00	; 0
      00124D 00                    1811 	.db #0x00	; 0
      00124E 18                    1812 	.db #0x18	; 24
      00124F 00                    1813 	.db #0x00	; 0
      001250 00                    1814 	.db #0x00	; 0
      001251 0D                    1815 	.db #0x0d	; 13
      001252 12                    1816 	.db #0x12	; 18
      001253 12                    1817 	.db #0x12	; 18
      001254 12                    1818 	.db #0x12	; 18
      001255 0D                    1819 	.db #0x0d	; 13
      001256 00                    1820 	.db #0x00	; 0
      001257 00                    1821 	.db #0x00	; 0
      001258 18                    1822 	.db #0x18	; 24
      001259 00                    1823 	.db #0x00	; 0
      00125A 00                    1824 	.db #0x00	; 0
      00125B 10                    1825 	.db #0x10	; 16
      00125C 18                    1826 	.db #0x18	; 24
      00125D 14                    1827 	.db #0x14	; 20
      00125E 12                    1828 	.db #0x12	; 18
      00125F 11                    1829 	.db #0x11	; 17
      001260 00                    1830 	.db #0x00	; 0
      001261 00                    1831 	.db #0x00	; 0
      001262 10                    1832 	.db #0x10	; 16
      001263 18                    1833 	.db #0x18	; 24
      001264 14                    1834 	.db #0x14	; 20
      001265 12                    1835 	.db #0x12	; 18
      001266 11                    1836 	.db #0x11	; 17
      001267 00                    1837 	.db #0x00	; 0
      001268 00                    1838 	.db #0x00	; 0
      001269 00                    1839 	.db #0x00	; 0
      00126A 00                    1840 	.db #0x00	; 0
      00126B 00                    1841 	.db #0x00	; 0
      00126C 00                    1842 	.db #0x00	; 0
      00126D 00                    1843 	.db #0x00	; 0
      00126E 00                    1844 	.db #0x00	; 0
      00126F 00                    1845 	.db #0x00	; 0
      001270 00                    1846 	.db #0x00	; 0
      001271 00                    1847 	.db #0x00	; 0
      001272 00                    1848 	.db #0x00	; 0
      001273 00                    1849 	.db #0x00	; 0
      001274 00                    1850 	.db #0x00	; 0
      001275 00                    1851 	.db #0x00	; 0
      001276 00                    1852 	.db #0x00	; 0
      001277 00                    1853 	.db #0x00	; 0
      001278 00                    1854 	.db #0x00	; 0
      001279 00                    1855 	.db #0x00	; 0
      00127A 00                    1856 	.db #0x00	; 0
      00127B 00                    1857 	.db #0x00	; 0
      00127C 00                    1858 	.db #0x00	; 0
      00127D 00                    1859 	.db #0x00	; 0
      00127E 00                    1860 	.db #0x00	; 0
      00127F 00                    1861 	.db #0x00	; 0
      001280 00                    1862 	.db #0x00	; 0
      001281 00                    1863 	.db #0x00	; 0
      001282 00                    1864 	.db #0x00	; 0
      001283 00                    1865 	.db #0x00	; 0
      001284 00                    1866 	.db #0x00	; 0
      001285 00                    1867 	.db #0x00	; 0
      001286 00                    1868 	.db #0x00	; 0
      001287 00                    1869 	.db #0x00	; 0
      001288 00                    1870 	.db #0x00	; 0
      001289 00                    1871 	.db #0x00	; 0
      00128A 00                    1872 	.db #0x00	; 0
      00128B 00                    1873 	.db #0x00	; 0
      00128C 00                    1874 	.db #0x00	; 0
      00128D 00                    1875 	.db #0x00	; 0
      00128E 00                    1876 	.db #0x00	; 0
      00128F 00                    1877 	.db #0x00	; 0
      001290 00                    1878 	.db #0x00	; 0
      001291 00                    1879 	.db #0x00	; 0
      001292 00                    1880 	.db #0x00	; 0
      001293 00                    1881 	.db #0x00	; 0
      001294 00                    1882 	.db #0x00	; 0
      001295 00                    1883 	.db #0x00	; 0
      001296 00                    1884 	.db #0x00	; 0
      001297 00                    1885 	.db #0x00	; 0
      001298 00                    1886 	.db #0x00	; 0
      001299 00                    1887 	.db #0x00	; 0
      00129A 00                    1888 	.db #0x00	; 0
      00129B 00                    1889 	.db #0x00	; 0
      00129C 00                    1890 	.db #0x00	; 0
      00129D 00                    1891 	.db #0x00	; 0
      00129E 00                    1892 	.db #0x00	; 0
      00129F 00                    1893 	.db #0x00	; 0
      0012A0 00                    1894 	.db #0x00	; 0
      0012A1 00                    1895 	.db #0x00	; 0
      0012A2 00                    1896 	.db #0x00	; 0
      0012A3 00                    1897 	.db #0x00	; 0
      0012A4 00                    1898 	.db #0x00	; 0
      0012A5 00                    1899 	.db #0x00	; 0
      0012A6 00                    1900 	.db #0x00	; 0
      0012A7 00                    1901 	.db #0x00	; 0
      0012A8 00                    1902 	.db #0x00	; 0
      0012A9 00                    1903 	.db #0x00	; 0
      0012AA 00                    1904 	.db #0x00	; 0
      0012AB 00                    1905 	.db #0x00	; 0
      0012AC 00                    1906 	.db #0x00	; 0
      0012AD 00                    1907 	.db #0x00	; 0
      0012AE 00                    1908 	.db #0x00	; 0
      0012AF 00                    1909 	.db #0x00	; 0
      0012B0 00                    1910 	.db #0x00	; 0
      0012B1 00                    1911 	.db #0x00	; 0
      0012B2 00                    1912 	.db #0x00	; 0
      0012B3 00                    1913 	.db #0x00	; 0
      0012B4 00                    1914 	.db #0x00	; 0
      0012B5 00                    1915 	.db #0x00	; 0
      0012B6 00                    1916 	.db #0x00	; 0
      0012B7 00                    1917 	.db #0x00	; 0
      0012B8 00                    1918 	.db #0x00	; 0
      0012B9 00                    1919 	.db #0x00	; 0
      0012BA 00                    1920 	.db #0x00	; 0
      0012BB 00                    1921 	.db #0x00	; 0
      0012BC 00                    1922 	.db #0x00	; 0
      0012BD 00                    1923 	.db #0x00	; 0
      0012BE 00                    1924 	.db #0x00	; 0
      0012BF 00                    1925 	.db #0x00	; 0
      0012C0 00                    1926 	.db #0x00	; 0
      0012C1 00                    1927 	.db #0x00	; 0
      0012C2 00                    1928 	.db #0x00	; 0
      0012C3 00                    1929 	.db #0x00	; 0
      0012C4 00                    1930 	.db #0x00	; 0
      0012C5 00                    1931 	.db #0x00	; 0
      0012C6 00                    1932 	.db #0x00	; 0
      0012C7 00                    1933 	.db #0x00	; 0
      0012C8 00                    1934 	.db #0x00	; 0
      0012C9 80                    1935 	.db #0x80	; 128
      0012CA 80                    1936 	.db #0x80	; 128
      0012CB 80                    1937 	.db #0x80	; 128
      0012CC 80                    1938 	.db #0x80	; 128
      0012CD 80                    1939 	.db #0x80	; 128
      0012CE 80                    1940 	.db #0x80	; 128
      0012CF 80                    1941 	.db #0x80	; 128
      0012D0 80                    1942 	.db #0x80	; 128
      0012D1 00                    1943 	.db #0x00	; 0
      0012D2 00                    1944 	.db #0x00	; 0
      0012D3 00                    1945 	.db #0x00	; 0
      0012D4 00                    1946 	.db #0x00	; 0
      0012D5 00                    1947 	.db #0x00	; 0
      0012D6 00                    1948 	.db #0x00	; 0
      0012D7 00                    1949 	.db #0x00	; 0
      0012D8 00                    1950 	.db #0x00	; 0
      0012D9 00                    1951 	.db #0x00	; 0
      0012DA 00                    1952 	.db #0x00	; 0
      0012DB 00                    1953 	.db #0x00	; 0
      0012DC 00                    1954 	.db #0x00	; 0
      0012DD 00                    1955 	.db #0x00	; 0
      0012DE 00                    1956 	.db #0x00	; 0
      0012DF 00                    1957 	.db #0x00	; 0
      0012E0 00                    1958 	.db #0x00	; 0
      0012E1 00                    1959 	.db #0x00	; 0
      0012E2 00                    1960 	.db #0x00	; 0
      0012E3 00                    1961 	.db #0x00	; 0
      0012E4 00                    1962 	.db #0x00	; 0
      0012E5 00                    1963 	.db #0x00	; 0
      0012E6 00                    1964 	.db #0x00	; 0
      0012E7 00                    1965 	.db #0x00	; 0
      0012E8 00                    1966 	.db #0x00	; 0
      0012E9 00                    1967 	.db #0x00	; 0
      0012EA 00                    1968 	.db #0x00	; 0
      0012EB 00                    1969 	.db #0x00	; 0
      0012EC 00                    1970 	.db #0x00	; 0
      0012ED 00                    1971 	.db #0x00	; 0
      0012EE 00                    1972 	.db #0x00	; 0
      0012EF 00                    1973 	.db #0x00	; 0
      0012F0 00                    1974 	.db #0x00	; 0
      0012F1 00                    1975 	.db #0x00	; 0
      0012F2 00                    1976 	.db #0x00	; 0
      0012F3 00                    1977 	.db #0x00	; 0
      0012F4 00                    1978 	.db #0x00	; 0
      0012F5 00                    1979 	.db #0x00	; 0
      0012F6 00                    1980 	.db #0x00	; 0
      0012F7 00                    1981 	.db #0x00	; 0
      0012F8 00                    1982 	.db #0x00	; 0
      0012F9 00                    1983 	.db #0x00	; 0
      0012FA 00                    1984 	.db #0x00	; 0
      0012FB 00                    1985 	.db #0x00	; 0
      0012FC 00                    1986 	.db #0x00	; 0
      0012FD 00                    1987 	.db #0x00	; 0
      0012FE 00                    1988 	.db #0x00	; 0
      0012FF 00                    1989 	.db #0x00	; 0
      001300 00                    1990 	.db #0x00	; 0
      001301 00                    1991 	.db #0x00	; 0
      001302 00                    1992 	.db #0x00	; 0
      001303 00                    1993 	.db #0x00	; 0
      001304 00                    1994 	.db #0x00	; 0
      001305 00                    1995 	.db #0x00	; 0
      001306 00                    1996 	.db #0x00	; 0
      001307 00                    1997 	.db #0x00	; 0
      001308 00                    1998 	.db #0x00	; 0
      001309 00                    1999 	.db #0x00	; 0
      00130A 00                    2000 	.db #0x00	; 0
      00130B 00                    2001 	.db #0x00	; 0
      00130C 00                    2002 	.db #0x00	; 0
      00130D 00                    2003 	.db #0x00	; 0
      00130E 7F                    2004 	.db #0x7f	; 127
      00130F 03                    2005 	.db #0x03	; 3
      001310 0C                    2006 	.db #0x0c	; 12
      001311 30                    2007 	.db #0x30	; 48	'0'
      001312 0C                    2008 	.db #0x0c	; 12
      001313 03                    2009 	.db #0x03	; 3
      001314 7F                    2010 	.db #0x7f	; 127
      001315 00                    2011 	.db #0x00	; 0
      001316 00                    2012 	.db #0x00	; 0
      001317 38                    2013 	.db #0x38	; 56	'8'
      001318 54                    2014 	.db #0x54	; 84	'T'
      001319 54                    2015 	.db #0x54	; 84	'T'
      00131A 58                    2016 	.db #0x58	; 88	'X'
      00131B 00                    2017 	.db #0x00	; 0
      00131C 00                    2018 	.db #0x00	; 0
      00131D 7C                    2019 	.db #0x7c	; 124
      00131E 04                    2020 	.db #0x04	; 4
      00131F 04                    2021 	.db #0x04	; 4
      001320 78                    2022 	.db #0x78	; 120	'x'
      001321 00                    2023 	.db #0x00	; 0
      001322 00                    2024 	.db #0x00	; 0
      001323 3C                    2025 	.db #0x3c	; 60
      001324 40                    2026 	.db #0x40	; 64
      001325 40                    2027 	.db #0x40	; 64
      001326 7C                    2028 	.db #0x7c	; 124
      001327 00                    2029 	.db #0x00	; 0
      001328 00                    2030 	.db #0x00	; 0
      001329 00                    2031 	.db #0x00	; 0
      00132A 00                    2032 	.db #0x00	; 0
      00132B 00                    2033 	.db #0x00	; 0
      00132C 00                    2034 	.db #0x00	; 0
      00132D 00                    2035 	.db #0x00	; 0
      00132E 00                    2036 	.db #0x00	; 0
      00132F 00                    2037 	.db #0x00	; 0
      001330 00                    2038 	.db #0x00	; 0
      001331 00                    2039 	.db #0x00	; 0
      001332 00                    2040 	.db #0x00	; 0
      001333 00                    2041 	.db #0x00	; 0
      001334 00                    2042 	.db #0x00	; 0
      001335 00                    2043 	.db #0x00	; 0
      001336 00                    2044 	.db #0x00	; 0
      001337 00                    2045 	.db #0x00	; 0
      001338 00                    2046 	.db #0x00	; 0
      001339 00                    2047 	.db #0x00	; 0
      00133A 00                    2048 	.db #0x00	; 0
      00133B 00                    2049 	.db #0x00	; 0
      00133C 00                    2050 	.db #0x00	; 0
      00133D 00                    2051 	.db #0x00	; 0
      00133E 00                    2052 	.db #0x00	; 0
      00133F 00                    2053 	.db #0x00	; 0
      001340 00                    2054 	.db #0x00	; 0
      001341 00                    2055 	.db #0x00	; 0
      001342 00                    2056 	.db #0x00	; 0
      001343 00                    2057 	.db #0x00	; 0
      001344 00                    2058 	.db #0x00	; 0
      001345 00                    2059 	.db #0x00	; 0
      001346 00                    2060 	.db #0x00	; 0
      001347 00                    2061 	.db #0x00	; 0
      001348 00                    2062 	.db #0x00	; 0
      001349 FF                    2063 	.db #0xff	; 255
      00134A AA                    2064 	.db #0xaa	; 170
      00134B AA                    2065 	.db #0xaa	; 170
      00134C AA                    2066 	.db #0xaa	; 170
      00134D 28                    2067 	.db #0x28	; 40
      00134E 08                    2068 	.db #0x08	; 8
      00134F 00                    2069 	.db #0x00	; 0
      001350 FF                    2070 	.db #0xff	; 255
      001351 00                    2071 	.db #0x00	; 0
      001352 00                    2072 	.db #0x00	; 0
      001353 00                    2073 	.db #0x00	; 0
      001354 00                    2074 	.db #0x00	; 0
      001355 00                    2075 	.db #0x00	; 0
      001356 00                    2076 	.db #0x00	; 0
      001357 00                    2077 	.db #0x00	; 0
      001358 00                    2078 	.db #0x00	; 0
      001359 00                    2079 	.db #0x00	; 0
      00135A 00                    2080 	.db #0x00	; 0
      00135B 00                    2081 	.db #0x00	; 0
      00135C 00                    2082 	.db #0x00	; 0
      00135D 00                    2083 	.db #0x00	; 0
      00135E 00                    2084 	.db #0x00	; 0
      00135F 00                    2085 	.db #0x00	; 0
      001360 00                    2086 	.db #0x00	; 0
      001361 00                    2087 	.db #0x00	; 0
      001362 00                    2088 	.db #0x00	; 0
      001363 00                    2089 	.db #0x00	; 0
      001364 00                    2090 	.db #0x00	; 0
      001365 00                    2091 	.db #0x00	; 0
      001366 00                    2092 	.db #0x00	; 0
      001367 00                    2093 	.db #0x00	; 0
      001368 00                    2094 	.db #0x00	; 0
      001369 00                    2095 	.db #0x00	; 0
      00136A 00                    2096 	.db #0x00	; 0
      00136B 00                    2097 	.db #0x00	; 0
      00136C 00                    2098 	.db #0x00	; 0
      00136D 00                    2099 	.db #0x00	; 0
      00136E 00                    2100 	.db #0x00	; 0
      00136F 00                    2101 	.db #0x00	; 0
      001370 00                    2102 	.db #0x00	; 0
      001371 00                    2103 	.db #0x00	; 0
      001372 00                    2104 	.db #0x00	; 0
      001373 00                    2105 	.db #0x00	; 0
      001374 00                    2106 	.db #0x00	; 0
      001375 00                    2107 	.db #0x00	; 0
      001376 7F                    2108 	.db #0x7f	; 127
      001377 03                    2109 	.db #0x03	; 3
      001378 0C                    2110 	.db #0x0c	; 12
      001379 30                    2111 	.db #0x30	; 48	'0'
      00137A 0C                    2112 	.db #0x0c	; 12
      00137B 03                    2113 	.db #0x03	; 3
      00137C 7F                    2114 	.db #0x7f	; 127
      00137D 00                    2115 	.db #0x00	; 0
      00137E 00                    2116 	.db #0x00	; 0
      00137F 26                    2117 	.db #0x26	; 38
      001380 49                    2118 	.db #0x49	; 73	'I'
      001381 49                    2119 	.db #0x49	; 73	'I'
      001382 49                    2120 	.db #0x49	; 73	'I'
      001383 32                    2121 	.db #0x32	; 50	'2'
      001384 00                    2122 	.db #0x00	; 0
      001385 00                    2123 	.db #0x00	; 0
      001386 7F                    2124 	.db #0x7f	; 127
      001387 02                    2125 	.db #0x02	; 2
      001388 04                    2126 	.db #0x04	; 4
      001389 08                    2127 	.db #0x08	; 8
      00138A 10                    2128 	.db #0x10	; 16
      00138B 7F                    2129 	.db #0x7f	; 127
      00138C 00                    2130 	.db #0x00	; 0
      00138D                       2131 _BMP2:
      00138D 00                    2132 	.db #0x00	; 0
      00138E 03                    2133 	.db #0x03	; 3
      00138F 05                    2134 	.db #0x05	; 5
      001390 09                    2135 	.db #0x09	; 9
      001391 11                    2136 	.db #0x11	; 17
      001392 FF                    2137 	.db #0xff	; 255
      001393 11                    2138 	.db #0x11	; 17
      001394 89                    2139 	.db #0x89	; 137
      001395 05                    2140 	.db #0x05	; 5
      001396 C3                    2141 	.db #0xc3	; 195
      001397 00                    2142 	.db #0x00	; 0
      001398 E0                    2143 	.db #0xe0	; 224
      001399 00                    2144 	.db #0x00	; 0
      00139A F0                    2145 	.db #0xf0	; 240
      00139B 00                    2146 	.db #0x00	; 0
      00139C F8                    2147 	.db #0xf8	; 248
      00139D 00                    2148 	.db #0x00	; 0
      00139E 00                    2149 	.db #0x00	; 0
      00139F 00                    2150 	.db #0x00	; 0
      0013A0 00                    2151 	.db #0x00	; 0
      0013A1 00                    2152 	.db #0x00	; 0
      0013A2 00                    2153 	.db #0x00	; 0
      0013A3 00                    2154 	.db #0x00	; 0
      0013A4 44                    2155 	.db #0x44	; 68	'D'
      0013A5 28                    2156 	.db #0x28	; 40
      0013A6 FF                    2157 	.db #0xff	; 255
      0013A7 11                    2158 	.db #0x11	; 17
      0013A8 AA                    2159 	.db #0xaa	; 170
      0013A9 44                    2160 	.db #0x44	; 68	'D'
      0013AA 00                    2161 	.db #0x00	; 0
      0013AB 00                    2162 	.db #0x00	; 0
      0013AC 00                    2163 	.db #0x00	; 0
      0013AD 00                    2164 	.db #0x00	; 0
      0013AE 00                    2165 	.db #0x00	; 0
      0013AF 00                    2166 	.db #0x00	; 0
      0013B0 00                    2167 	.db #0x00	; 0
      0013B1 00                    2168 	.db #0x00	; 0
      0013B2 00                    2169 	.db #0x00	; 0
      0013B3 00                    2170 	.db #0x00	; 0
      0013B4 00                    2171 	.db #0x00	; 0
      0013B5 00                    2172 	.db #0x00	; 0
      0013B6 00                    2173 	.db #0x00	; 0
      0013B7 00                    2174 	.db #0x00	; 0
      0013B8 00                    2175 	.db #0x00	; 0
      0013B9 00                    2176 	.db #0x00	; 0
      0013BA 00                    2177 	.db #0x00	; 0
      0013BB 00                    2178 	.db #0x00	; 0
      0013BC 00                    2179 	.db #0x00	; 0
      0013BD 00                    2180 	.db #0x00	; 0
      0013BE 00                    2181 	.db #0x00	; 0
      0013BF 00                    2182 	.db #0x00	; 0
      0013C0 00                    2183 	.db #0x00	; 0
      0013C1 00                    2184 	.db #0x00	; 0
      0013C2 00                    2185 	.db #0x00	; 0
      0013C3 00                    2186 	.db #0x00	; 0
      0013C4 00                    2187 	.db #0x00	; 0
      0013C5 00                    2188 	.db #0x00	; 0
      0013C6 00                    2189 	.db #0x00	; 0
      0013C7 00                    2190 	.db #0x00	; 0
      0013C8 00                    2191 	.db #0x00	; 0
      0013C9 00                    2192 	.db #0x00	; 0
      0013CA 00                    2193 	.db #0x00	; 0
      0013CB 00                    2194 	.db #0x00	; 0
      0013CC 00                    2195 	.db #0x00	; 0
      0013CD 00                    2196 	.db #0x00	; 0
      0013CE 00                    2197 	.db #0x00	; 0
      0013CF 00                    2198 	.db #0x00	; 0
      0013D0 00                    2199 	.db #0x00	; 0
      0013D1 00                    2200 	.db #0x00	; 0
      0013D2 00                    2201 	.db #0x00	; 0
      0013D3 00                    2202 	.db #0x00	; 0
      0013D4 00                    2203 	.db #0x00	; 0
      0013D5 00                    2204 	.db #0x00	; 0
      0013D6 00                    2205 	.db #0x00	; 0
      0013D7 00                    2206 	.db #0x00	; 0
      0013D8 00                    2207 	.db #0x00	; 0
      0013D9 00                    2208 	.db #0x00	; 0
      0013DA 00                    2209 	.db #0x00	; 0
      0013DB 00                    2210 	.db #0x00	; 0
      0013DC 00                    2211 	.db #0x00	; 0
      0013DD 00                    2212 	.db #0x00	; 0
      0013DE 00                    2213 	.db #0x00	; 0
      0013DF 00                    2214 	.db #0x00	; 0
      0013E0 00                    2215 	.db #0x00	; 0
      0013E1 00                    2216 	.db #0x00	; 0
      0013E2 00                    2217 	.db #0x00	; 0
      0013E3 00                    2218 	.db #0x00	; 0
      0013E4 00                    2219 	.db #0x00	; 0
      0013E5 00                    2220 	.db #0x00	; 0
      0013E6 00                    2221 	.db #0x00	; 0
      0013E7 83                    2222 	.db #0x83	; 131
      0013E8 01                    2223 	.db #0x01	; 1
      0013E9 38                    2224 	.db #0x38	; 56	'8'
      0013EA 44                    2225 	.db #0x44	; 68	'D'
      0013EB 82                    2226 	.db #0x82	; 130
      0013EC 92                    2227 	.db #0x92	; 146
      0013ED 92                    2228 	.db #0x92	; 146
      0013EE 74                    2229 	.db #0x74	; 116	't'
      0013EF 01                    2230 	.db #0x01	; 1
      0013F0 83                    2231 	.db #0x83	; 131
      0013F1 00                    2232 	.db #0x00	; 0
      0013F2 00                    2233 	.db #0x00	; 0
      0013F3 00                    2234 	.db #0x00	; 0
      0013F4 00                    2235 	.db #0x00	; 0
      0013F5 00                    2236 	.db #0x00	; 0
      0013F6 00                    2237 	.db #0x00	; 0
      0013F7 00                    2238 	.db #0x00	; 0
      0013F8 7C                    2239 	.db #0x7c	; 124
      0013F9 44                    2240 	.db #0x44	; 68	'D'
      0013FA FF                    2241 	.db #0xff	; 255
      0013FB 01                    2242 	.db #0x01	; 1
      0013FC 7D                    2243 	.db #0x7d	; 125
      0013FD 7D                    2244 	.db #0x7d	; 125
      0013FE 7D                    2245 	.db #0x7d	; 125
      0013FF 7D                    2246 	.db #0x7d	; 125
      001400 01                    2247 	.db #0x01	; 1
      001401 7D                    2248 	.db #0x7d	; 125
      001402 7D                    2249 	.db #0x7d	; 125
      001403 7D                    2250 	.db #0x7d	; 125
      001404 7D                    2251 	.db #0x7d	; 125
      001405 01                    2252 	.db #0x01	; 1
      001406 7D                    2253 	.db #0x7d	; 125
      001407 7D                    2254 	.db #0x7d	; 125
      001408 7D                    2255 	.db #0x7d	; 125
      001409 7D                    2256 	.db #0x7d	; 125
      00140A 01                    2257 	.db #0x01	; 1
      00140B FF                    2258 	.db #0xff	; 255
      00140C 00                    2259 	.db #0x00	; 0
      00140D 00                    2260 	.db #0x00	; 0
      00140E 00                    2261 	.db #0x00	; 0
      00140F 00                    2262 	.db #0x00	; 0
      001410 00                    2263 	.db #0x00	; 0
      001411 00                    2264 	.db #0x00	; 0
      001412 01                    2265 	.db #0x01	; 1
      001413 00                    2266 	.db #0x00	; 0
      001414 01                    2267 	.db #0x01	; 1
      001415 00                    2268 	.db #0x00	; 0
      001416 01                    2269 	.db #0x01	; 1
      001417 00                    2270 	.db #0x00	; 0
      001418 01                    2271 	.db #0x01	; 1
      001419 00                    2272 	.db #0x00	; 0
      00141A 01                    2273 	.db #0x01	; 1
      00141B 00                    2274 	.db #0x00	; 0
      00141C 01                    2275 	.db #0x01	; 1
      00141D 00                    2276 	.db #0x00	; 0
      00141E 00                    2277 	.db #0x00	; 0
      00141F 00                    2278 	.db #0x00	; 0
      001420 00                    2279 	.db #0x00	; 0
      001421 00                    2280 	.db #0x00	; 0
      001422 00                    2281 	.db #0x00	; 0
      001423 00                    2282 	.db #0x00	; 0
      001424 00                    2283 	.db #0x00	; 0
      001425 00                    2284 	.db #0x00	; 0
      001426 01                    2285 	.db #0x01	; 1
      001427 01                    2286 	.db #0x01	; 1
      001428 00                    2287 	.db #0x00	; 0
      001429 00                    2288 	.db #0x00	; 0
      00142A 00                    2289 	.db #0x00	; 0
      00142B 00                    2290 	.db #0x00	; 0
      00142C 00                    2291 	.db #0x00	; 0
      00142D 00                    2292 	.db #0x00	; 0
      00142E 00                    2293 	.db #0x00	; 0
      00142F 00                    2294 	.db #0x00	; 0
      001430 00                    2295 	.db #0x00	; 0
      001431 00                    2296 	.db #0x00	; 0
      001432 00                    2297 	.db #0x00	; 0
      001433 00                    2298 	.db #0x00	; 0
      001434 00                    2299 	.db #0x00	; 0
      001435 00                    2300 	.db #0x00	; 0
      001436 00                    2301 	.db #0x00	; 0
      001437 00                    2302 	.db #0x00	; 0
      001438 00                    2303 	.db #0x00	; 0
      001439 00                    2304 	.db #0x00	; 0
      00143A 00                    2305 	.db #0x00	; 0
      00143B 00                    2306 	.db #0x00	; 0
      00143C 00                    2307 	.db #0x00	; 0
      00143D 00                    2308 	.db #0x00	; 0
      00143E 00                    2309 	.db #0x00	; 0
      00143F 00                    2310 	.db #0x00	; 0
      001440 00                    2311 	.db #0x00	; 0
      001441 00                    2312 	.db #0x00	; 0
      001442 00                    2313 	.db #0x00	; 0
      001443 00                    2314 	.db #0x00	; 0
      001444 00                    2315 	.db #0x00	; 0
      001445 00                    2316 	.db #0x00	; 0
      001446 00                    2317 	.db #0x00	; 0
      001447 00                    2318 	.db #0x00	; 0
      001448 00                    2319 	.db #0x00	; 0
      001449 00                    2320 	.db #0x00	; 0
      00144A 00                    2321 	.db #0x00	; 0
      00144B 00                    2322 	.db #0x00	; 0
      00144C 00                    2323 	.db #0x00	; 0
      00144D 00                    2324 	.db #0x00	; 0
      00144E 00                    2325 	.db #0x00	; 0
      00144F 00                    2326 	.db #0x00	; 0
      001450 00                    2327 	.db #0x00	; 0
      001451 00                    2328 	.db #0x00	; 0
      001452 00                    2329 	.db #0x00	; 0
      001453 00                    2330 	.db #0x00	; 0
      001454 00                    2331 	.db #0x00	; 0
      001455 00                    2332 	.db #0x00	; 0
      001456 00                    2333 	.db #0x00	; 0
      001457 00                    2334 	.db #0x00	; 0
      001458 00                    2335 	.db #0x00	; 0
      001459 00                    2336 	.db #0x00	; 0
      00145A 00                    2337 	.db #0x00	; 0
      00145B 00                    2338 	.db #0x00	; 0
      00145C 00                    2339 	.db #0x00	; 0
      00145D 00                    2340 	.db #0x00	; 0
      00145E 00                    2341 	.db #0x00	; 0
      00145F 00                    2342 	.db #0x00	; 0
      001460 00                    2343 	.db #0x00	; 0
      001461 00                    2344 	.db #0x00	; 0
      001462 00                    2345 	.db #0x00	; 0
      001463 00                    2346 	.db #0x00	; 0
      001464 00                    2347 	.db #0x00	; 0
      001465 00                    2348 	.db #0x00	; 0
      001466 00                    2349 	.db #0x00	; 0
      001467 01                    2350 	.db #0x01	; 1
      001468 01                    2351 	.db #0x01	; 1
      001469 00                    2352 	.db #0x00	; 0
      00146A 00                    2353 	.db #0x00	; 0
      00146B 00                    2354 	.db #0x00	; 0
      00146C 00                    2355 	.db #0x00	; 0
      00146D 00                    2356 	.db #0x00	; 0
      00146E 00                    2357 	.db #0x00	; 0
      00146F 01                    2358 	.db #0x01	; 1
      001470 01                    2359 	.db #0x01	; 1
      001471 00                    2360 	.db #0x00	; 0
      001472 00                    2361 	.db #0x00	; 0
      001473 00                    2362 	.db #0x00	; 0
      001474 00                    2363 	.db #0x00	; 0
      001475 00                    2364 	.db #0x00	; 0
      001476 00                    2365 	.db #0x00	; 0
      001477 00                    2366 	.db #0x00	; 0
      001478 00                    2367 	.db #0x00	; 0
      001479 00                    2368 	.db #0x00	; 0
      00147A 01                    2369 	.db #0x01	; 1
      00147B 01                    2370 	.db #0x01	; 1
      00147C 01                    2371 	.db #0x01	; 1
      00147D 01                    2372 	.db #0x01	; 1
      00147E 01                    2373 	.db #0x01	; 1
      00147F 01                    2374 	.db #0x01	; 1
      001480 01                    2375 	.db #0x01	; 1
      001481 01                    2376 	.db #0x01	; 1
      001482 01                    2377 	.db #0x01	; 1
      001483 01                    2378 	.db #0x01	; 1
      001484 01                    2379 	.db #0x01	; 1
      001485 01                    2380 	.db #0x01	; 1
      001486 01                    2381 	.db #0x01	; 1
      001487 01                    2382 	.db #0x01	; 1
      001488 01                    2383 	.db #0x01	; 1
      001489 01                    2384 	.db #0x01	; 1
      00148A 01                    2385 	.db #0x01	; 1
      00148B 01                    2386 	.db #0x01	; 1
      00148C 00                    2387 	.db #0x00	; 0
      00148D 00                    2388 	.db #0x00	; 0
      00148E 00                    2389 	.db #0x00	; 0
      00148F 00                    2390 	.db #0x00	; 0
      001490 00                    2391 	.db #0x00	; 0
      001491 00                    2392 	.db #0x00	; 0
      001492 00                    2393 	.db #0x00	; 0
      001493 00                    2394 	.db #0x00	; 0
      001494 00                    2395 	.db #0x00	; 0
      001495 00                    2396 	.db #0x00	; 0
      001496 00                    2397 	.db #0x00	; 0
      001497 00                    2398 	.db #0x00	; 0
      001498 00                    2399 	.db #0x00	; 0
      001499 00                    2400 	.db #0x00	; 0
      00149A 00                    2401 	.db #0x00	; 0
      00149B 00                    2402 	.db #0x00	; 0
      00149C 00                    2403 	.db #0x00	; 0
      00149D 00                    2404 	.db #0x00	; 0
      00149E 00                    2405 	.db #0x00	; 0
      00149F 00                    2406 	.db #0x00	; 0
      0014A0 00                    2407 	.db #0x00	; 0
      0014A1 00                    2408 	.db #0x00	; 0
      0014A2 00                    2409 	.db #0x00	; 0
      0014A3 00                    2410 	.db #0x00	; 0
      0014A4 00                    2411 	.db #0x00	; 0
      0014A5 00                    2412 	.db #0x00	; 0
      0014A6 00                    2413 	.db #0x00	; 0
      0014A7 00                    2414 	.db #0x00	; 0
      0014A8 00                    2415 	.db #0x00	; 0
      0014A9 00                    2416 	.db #0x00	; 0
      0014AA 00                    2417 	.db #0x00	; 0
      0014AB 00                    2418 	.db #0x00	; 0
      0014AC F8                    2419 	.db #0xf8	; 248
      0014AD 08                    2420 	.db #0x08	; 8
      0014AE 08                    2421 	.db #0x08	; 8
      0014AF 08                    2422 	.db #0x08	; 8
      0014B0 08                    2423 	.db #0x08	; 8
      0014B1 08                    2424 	.db #0x08	; 8
      0014B2 08                    2425 	.db #0x08	; 8
      0014B3 08                    2426 	.db #0x08	; 8
      0014B4 00                    2427 	.db #0x00	; 0
      0014B5 F8                    2428 	.db #0xf8	; 248
      0014B6 18                    2429 	.db #0x18	; 24
      0014B7 60                    2430 	.db #0x60	; 96
      0014B8 80                    2431 	.db #0x80	; 128
      0014B9 00                    2432 	.db #0x00	; 0
      0014BA 00                    2433 	.db #0x00	; 0
      0014BB 00                    2434 	.db #0x00	; 0
      0014BC 80                    2435 	.db #0x80	; 128
      0014BD 60                    2436 	.db #0x60	; 96
      0014BE 18                    2437 	.db #0x18	; 24
      0014BF F8                    2438 	.db #0xf8	; 248
      0014C0 00                    2439 	.db #0x00	; 0
      0014C1 00                    2440 	.db #0x00	; 0
      0014C2 00                    2441 	.db #0x00	; 0
      0014C3 20                    2442 	.db #0x20	; 32
      0014C4 20                    2443 	.db #0x20	; 32
      0014C5 F8                    2444 	.db #0xf8	; 248
      0014C6 00                    2445 	.db #0x00	; 0
      0014C7 00                    2446 	.db #0x00	; 0
      0014C8 00                    2447 	.db #0x00	; 0
      0014C9 00                    2448 	.db #0x00	; 0
      0014CA 00                    2449 	.db #0x00	; 0
      0014CB 00                    2450 	.db #0x00	; 0
      0014CC E0                    2451 	.db #0xe0	; 224
      0014CD 10                    2452 	.db #0x10	; 16
      0014CE 08                    2453 	.db #0x08	; 8
      0014CF 08                    2454 	.db #0x08	; 8
      0014D0 08                    2455 	.db #0x08	; 8
      0014D1 08                    2456 	.db #0x08	; 8
      0014D2 10                    2457 	.db #0x10	; 16
      0014D3 E0                    2458 	.db #0xe0	; 224
      0014D4 00                    2459 	.db #0x00	; 0
      0014D5 00                    2460 	.db #0x00	; 0
      0014D6 00                    2461 	.db #0x00	; 0
      0014D7 20                    2462 	.db #0x20	; 32
      0014D8 20                    2463 	.db #0x20	; 32
      0014D9 F8                    2464 	.db #0xf8	; 248
      0014DA 00                    2465 	.db #0x00	; 0
      0014DB 00                    2466 	.db #0x00	; 0
      0014DC 00                    2467 	.db #0x00	; 0
      0014DD 00                    2468 	.db #0x00	; 0
      0014DE 00                    2469 	.db #0x00	; 0
      0014DF 00                    2470 	.db #0x00	; 0
      0014E0 00                    2471 	.db #0x00	; 0
      0014E1 00                    2472 	.db #0x00	; 0
      0014E2 00                    2473 	.db #0x00	; 0
      0014E3 00                    2474 	.db #0x00	; 0
      0014E4 00                    2475 	.db #0x00	; 0
      0014E5 00                    2476 	.db #0x00	; 0
      0014E6 08                    2477 	.db #0x08	; 8
      0014E7 08                    2478 	.db #0x08	; 8
      0014E8 08                    2479 	.db #0x08	; 8
      0014E9 08                    2480 	.db #0x08	; 8
      0014EA 08                    2481 	.db #0x08	; 8
      0014EB 88                    2482 	.db #0x88	; 136
      0014EC 68                    2483 	.db #0x68	; 104	'h'
      0014ED 18                    2484 	.db #0x18	; 24
      0014EE 00                    2485 	.db #0x00	; 0
      0014EF 00                    2486 	.db #0x00	; 0
      0014F0 00                    2487 	.db #0x00	; 0
      0014F1 00                    2488 	.db #0x00	; 0
      0014F2 00                    2489 	.db #0x00	; 0
      0014F3 00                    2490 	.db #0x00	; 0
      0014F4 00                    2491 	.db #0x00	; 0
      0014F5 00                    2492 	.db #0x00	; 0
      0014F6 00                    2493 	.db #0x00	; 0
      0014F7 00                    2494 	.db #0x00	; 0
      0014F8 00                    2495 	.db #0x00	; 0
      0014F9 00                    2496 	.db #0x00	; 0
      0014FA 00                    2497 	.db #0x00	; 0
      0014FB 00                    2498 	.db #0x00	; 0
      0014FC 00                    2499 	.db #0x00	; 0
      0014FD 00                    2500 	.db #0x00	; 0
      0014FE 00                    2501 	.db #0x00	; 0
      0014FF 00                    2502 	.db #0x00	; 0
      001500 00                    2503 	.db #0x00	; 0
      001501 00                    2504 	.db #0x00	; 0
      001502 00                    2505 	.db #0x00	; 0
      001503 00                    2506 	.db #0x00	; 0
      001504 00                    2507 	.db #0x00	; 0
      001505 00                    2508 	.db #0x00	; 0
      001506 00                    2509 	.db #0x00	; 0
      001507 00                    2510 	.db #0x00	; 0
      001508 00                    2511 	.db #0x00	; 0
      001509 00                    2512 	.db #0x00	; 0
      00150A 00                    2513 	.db #0x00	; 0
      00150B 00                    2514 	.db #0x00	; 0
      00150C 00                    2515 	.db #0x00	; 0
      00150D 00                    2516 	.db #0x00	; 0
      00150E 00                    2517 	.db #0x00	; 0
      00150F 00                    2518 	.db #0x00	; 0
      001510 00                    2519 	.db #0x00	; 0
      001511 00                    2520 	.db #0x00	; 0
      001512 00                    2521 	.db #0x00	; 0
      001513 00                    2522 	.db #0x00	; 0
      001514 00                    2523 	.db #0x00	; 0
      001515 00                    2524 	.db #0x00	; 0
      001516 00                    2525 	.db #0x00	; 0
      001517 00                    2526 	.db #0x00	; 0
      001518 00                    2527 	.db #0x00	; 0
      001519 00                    2528 	.db #0x00	; 0
      00151A 00                    2529 	.db #0x00	; 0
      00151B 00                    2530 	.db #0x00	; 0
      00151C 00                    2531 	.db #0x00	; 0
      00151D 00                    2532 	.db #0x00	; 0
      00151E 00                    2533 	.db #0x00	; 0
      00151F 00                    2534 	.db #0x00	; 0
      001520 00                    2535 	.db #0x00	; 0
      001521 00                    2536 	.db #0x00	; 0
      001522 00                    2537 	.db #0x00	; 0
      001523 00                    2538 	.db #0x00	; 0
      001524 00                    2539 	.db #0x00	; 0
      001525 00                    2540 	.db #0x00	; 0
      001526 00                    2541 	.db #0x00	; 0
      001527 00                    2542 	.db #0x00	; 0
      001528 00                    2543 	.db #0x00	; 0
      001529 00                    2544 	.db #0x00	; 0
      00152A 00                    2545 	.db #0x00	; 0
      00152B 00                    2546 	.db #0x00	; 0
      00152C 7F                    2547 	.db #0x7f	; 127
      00152D 01                    2548 	.db #0x01	; 1
      00152E 01                    2549 	.db #0x01	; 1
      00152F 01                    2550 	.db #0x01	; 1
      001530 01                    2551 	.db #0x01	; 1
      001531 01                    2552 	.db #0x01	; 1
      001532 01                    2553 	.db #0x01	; 1
      001533 00                    2554 	.db #0x00	; 0
      001534 00                    2555 	.db #0x00	; 0
      001535 7F                    2556 	.db #0x7f	; 127
      001536 00                    2557 	.db #0x00	; 0
      001537 00                    2558 	.db #0x00	; 0
      001538 01                    2559 	.db #0x01	; 1
      001539 06                    2560 	.db #0x06	; 6
      00153A 18                    2561 	.db #0x18	; 24
      00153B 06                    2562 	.db #0x06	; 6
      00153C 01                    2563 	.db #0x01	; 1
      00153D 00                    2564 	.db #0x00	; 0
      00153E 00                    2565 	.db #0x00	; 0
      00153F 7F                    2566 	.db #0x7f	; 127
      001540 00                    2567 	.db #0x00	; 0
      001541 00                    2568 	.db #0x00	; 0
      001542 00                    2569 	.db #0x00	; 0
      001543 40                    2570 	.db #0x40	; 64
      001544 40                    2571 	.db #0x40	; 64
      001545 7F                    2572 	.db #0x7f	; 127
      001546 40                    2573 	.db #0x40	; 64
      001547 40                    2574 	.db #0x40	; 64
      001548 00                    2575 	.db #0x00	; 0
      001549 00                    2576 	.db #0x00	; 0
      00154A 00                    2577 	.db #0x00	; 0
      00154B 00                    2578 	.db #0x00	; 0
      00154C 1F                    2579 	.db #0x1f	; 31
      00154D 20                    2580 	.db #0x20	; 32
      00154E 40                    2581 	.db #0x40	; 64
      00154F 40                    2582 	.db #0x40	; 64
      001550 40                    2583 	.db #0x40	; 64
      001551 40                    2584 	.db #0x40	; 64
      001552 20                    2585 	.db #0x20	; 32
      001553 1F                    2586 	.db #0x1f	; 31
      001554 00                    2587 	.db #0x00	; 0
      001555 00                    2588 	.db #0x00	; 0
      001556 00                    2589 	.db #0x00	; 0
      001557 40                    2590 	.db #0x40	; 64
      001558 40                    2591 	.db #0x40	; 64
      001559 7F                    2592 	.db #0x7f	; 127
      00155A 40                    2593 	.db #0x40	; 64
      00155B 40                    2594 	.db #0x40	; 64
      00155C 00                    2595 	.db #0x00	; 0
      00155D 00                    2596 	.db #0x00	; 0
      00155E 00                    2597 	.db #0x00	; 0
      00155F 00                    2598 	.db #0x00	; 0
      001560 00                    2599 	.db #0x00	; 0
      001561 60                    2600 	.db #0x60	; 96
      001562 00                    2601 	.db #0x00	; 0
      001563 00                    2602 	.db #0x00	; 0
      001564 00                    2603 	.db #0x00	; 0
      001565 00                    2604 	.db #0x00	; 0
      001566 00                    2605 	.db #0x00	; 0
      001567 00                    2606 	.db #0x00	; 0
      001568 60                    2607 	.db #0x60	; 96
      001569 18                    2608 	.db #0x18	; 24
      00156A 06                    2609 	.db #0x06	; 6
      00156B 01                    2610 	.db #0x01	; 1
      00156C 00                    2611 	.db #0x00	; 0
      00156D 00                    2612 	.db #0x00	; 0
      00156E 00                    2613 	.db #0x00	; 0
      00156F 00                    2614 	.db #0x00	; 0
      001570 00                    2615 	.db #0x00	; 0
      001571 00                    2616 	.db #0x00	; 0
      001572 00                    2617 	.db #0x00	; 0
      001573 00                    2618 	.db #0x00	; 0
      001574 00                    2619 	.db #0x00	; 0
      001575 00                    2620 	.db #0x00	; 0
      001576 00                    2621 	.db #0x00	; 0
      001577 00                    2622 	.db #0x00	; 0
      001578 00                    2623 	.db #0x00	; 0
      001579 00                    2624 	.db #0x00	; 0
      00157A 00                    2625 	.db #0x00	; 0
      00157B 00                    2626 	.db #0x00	; 0
      00157C 00                    2627 	.db #0x00	; 0
      00157D 00                    2628 	.db #0x00	; 0
      00157E 00                    2629 	.db #0x00	; 0
      00157F 00                    2630 	.db #0x00	; 0
      001580 00                    2631 	.db #0x00	; 0
      001581 00                    2632 	.db #0x00	; 0
      001582 00                    2633 	.db #0x00	; 0
      001583 00                    2634 	.db #0x00	; 0
      001584 00                    2635 	.db #0x00	; 0
      001585 00                    2636 	.db #0x00	; 0
      001586 00                    2637 	.db #0x00	; 0
      001587 00                    2638 	.db #0x00	; 0
      001588 00                    2639 	.db #0x00	; 0
      001589 00                    2640 	.db #0x00	; 0
      00158A 00                    2641 	.db #0x00	; 0
      00158B 00                    2642 	.db #0x00	; 0
      00158C 00                    2643 	.db #0x00	; 0
      00158D 00                    2644 	.db #0x00	; 0
      00158E 00                    2645 	.db #0x00	; 0
      00158F 00                    2646 	.db #0x00	; 0
      001590 00                    2647 	.db #0x00	; 0
      001591 00                    2648 	.db #0x00	; 0
      001592 00                    2649 	.db #0x00	; 0
      001593 00                    2650 	.db #0x00	; 0
      001594 00                    2651 	.db #0x00	; 0
      001595 00                    2652 	.db #0x00	; 0
      001596 00                    2653 	.db #0x00	; 0
      001597 00                    2654 	.db #0x00	; 0
      001598 00                    2655 	.db #0x00	; 0
      001599 00                    2656 	.db #0x00	; 0
      00159A 00                    2657 	.db #0x00	; 0
      00159B 00                    2658 	.db #0x00	; 0
      00159C 00                    2659 	.db #0x00	; 0
      00159D 00                    2660 	.db #0x00	; 0
      00159E 00                    2661 	.db #0x00	; 0
      00159F 00                    2662 	.db #0x00	; 0
      0015A0 00                    2663 	.db #0x00	; 0
      0015A1 00                    2664 	.db #0x00	; 0
      0015A2 00                    2665 	.db #0x00	; 0
      0015A3 00                    2666 	.db #0x00	; 0
      0015A4 00                    2667 	.db #0x00	; 0
      0015A5 00                    2668 	.db #0x00	; 0
      0015A6 00                    2669 	.db #0x00	; 0
      0015A7 00                    2670 	.db #0x00	; 0
      0015A8 00                    2671 	.db #0x00	; 0
      0015A9 00                    2672 	.db #0x00	; 0
      0015AA 00                    2673 	.db #0x00	; 0
      0015AB 00                    2674 	.db #0x00	; 0
      0015AC 00                    2675 	.db #0x00	; 0
      0015AD 00                    2676 	.db #0x00	; 0
      0015AE 00                    2677 	.db #0x00	; 0
      0015AF 00                    2678 	.db #0x00	; 0
      0015B0 00                    2679 	.db #0x00	; 0
      0015B1 00                    2680 	.db #0x00	; 0
      0015B2 40                    2681 	.db #0x40	; 64
      0015B3 20                    2682 	.db #0x20	; 32
      0015B4 20                    2683 	.db #0x20	; 32
      0015B5 20                    2684 	.db #0x20	; 32
      0015B6 C0                    2685 	.db #0xc0	; 192
      0015B7 00                    2686 	.db #0x00	; 0
      0015B8 00                    2687 	.db #0x00	; 0
      0015B9 E0                    2688 	.db #0xe0	; 224
      0015BA 20                    2689 	.db #0x20	; 32
      0015BB 20                    2690 	.db #0x20	; 32
      0015BC 20                    2691 	.db #0x20	; 32
      0015BD E0                    2692 	.db #0xe0	; 224
      0015BE 00                    2693 	.db #0x00	; 0
      0015BF 00                    2694 	.db #0x00	; 0
      0015C0 00                    2695 	.db #0x00	; 0
      0015C1 40                    2696 	.db #0x40	; 64
      0015C2 E0                    2697 	.db #0xe0	; 224
      0015C3 00                    2698 	.db #0x00	; 0
      0015C4 00                    2699 	.db #0x00	; 0
      0015C5 00                    2700 	.db #0x00	; 0
      0015C6 00                    2701 	.db #0x00	; 0
      0015C7 60                    2702 	.db #0x60	; 96
      0015C8 20                    2703 	.db #0x20	; 32
      0015C9 20                    2704 	.db #0x20	; 32
      0015CA 20                    2705 	.db #0x20	; 32
      0015CB E0                    2706 	.db #0xe0	; 224
      0015CC 00                    2707 	.db #0x00	; 0
      0015CD 00                    2708 	.db #0x00	; 0
      0015CE 00                    2709 	.db #0x00	; 0
      0015CF 00                    2710 	.db #0x00	; 0
      0015D0 00                    2711 	.db #0x00	; 0
      0015D1 E0                    2712 	.db #0xe0	; 224
      0015D2 20                    2713 	.db #0x20	; 32
      0015D3 20                    2714 	.db #0x20	; 32
      0015D4 20                    2715 	.db #0x20	; 32
      0015D5 E0                    2716 	.db #0xe0	; 224
      0015D6 00                    2717 	.db #0x00	; 0
      0015D7 00                    2718 	.db #0x00	; 0
      0015D8 00                    2719 	.db #0x00	; 0
      0015D9 00                    2720 	.db #0x00	; 0
      0015DA 00                    2721 	.db #0x00	; 0
      0015DB 40                    2722 	.db #0x40	; 64
      0015DC 20                    2723 	.db #0x20	; 32
      0015DD 20                    2724 	.db #0x20	; 32
      0015DE 20                    2725 	.db #0x20	; 32
      0015DF C0                    2726 	.db #0xc0	; 192
      0015E0 00                    2727 	.db #0x00	; 0
      0015E1 00                    2728 	.db #0x00	; 0
      0015E2 40                    2729 	.db #0x40	; 64
      0015E3 20                    2730 	.db #0x20	; 32
      0015E4 20                    2731 	.db #0x20	; 32
      0015E5 20                    2732 	.db #0x20	; 32
      0015E6 C0                    2733 	.db #0xc0	; 192
      0015E7 00                    2734 	.db #0x00	; 0
      0015E8 00                    2735 	.db #0x00	; 0
      0015E9 00                    2736 	.db #0x00	; 0
      0015EA 00                    2737 	.db #0x00	; 0
      0015EB 00                    2738 	.db #0x00	; 0
      0015EC 00                    2739 	.db #0x00	; 0
      0015ED 00                    2740 	.db #0x00	; 0
      0015EE 00                    2741 	.db #0x00	; 0
      0015EF 00                    2742 	.db #0x00	; 0
      0015F0 00                    2743 	.db #0x00	; 0
      0015F1 00                    2744 	.db #0x00	; 0
      0015F2 00                    2745 	.db #0x00	; 0
      0015F3 00                    2746 	.db #0x00	; 0
      0015F4 00                    2747 	.db #0x00	; 0
      0015F5 00                    2748 	.db #0x00	; 0
      0015F6 00                    2749 	.db #0x00	; 0
      0015F7 00                    2750 	.db #0x00	; 0
      0015F8 00                    2751 	.db #0x00	; 0
      0015F9 00                    2752 	.db #0x00	; 0
      0015FA 00                    2753 	.db #0x00	; 0
      0015FB 00                    2754 	.db #0x00	; 0
      0015FC 00                    2755 	.db #0x00	; 0
      0015FD 00                    2756 	.db #0x00	; 0
      0015FE 00                    2757 	.db #0x00	; 0
      0015FF 00                    2758 	.db #0x00	; 0
      001600 00                    2759 	.db #0x00	; 0
      001601 00                    2760 	.db #0x00	; 0
      001602 00                    2761 	.db #0x00	; 0
      001603 00                    2762 	.db #0x00	; 0
      001604 00                    2763 	.db #0x00	; 0
      001605 00                    2764 	.db #0x00	; 0
      001606 00                    2765 	.db #0x00	; 0
      001607 00                    2766 	.db #0x00	; 0
      001608 00                    2767 	.db #0x00	; 0
      001609 00                    2768 	.db #0x00	; 0
      00160A 00                    2769 	.db #0x00	; 0
      00160B 00                    2770 	.db #0x00	; 0
      00160C 00                    2771 	.db #0x00	; 0
      00160D 00                    2772 	.db #0x00	; 0
      00160E 00                    2773 	.db #0x00	; 0
      00160F 00                    2774 	.db #0x00	; 0
      001610 00                    2775 	.db #0x00	; 0
      001611 00                    2776 	.db #0x00	; 0
      001612 00                    2777 	.db #0x00	; 0
      001613 00                    2778 	.db #0x00	; 0
      001614 00                    2779 	.db #0x00	; 0
      001615 00                    2780 	.db #0x00	; 0
      001616 00                    2781 	.db #0x00	; 0
      001617 00                    2782 	.db #0x00	; 0
      001618 00                    2783 	.db #0x00	; 0
      001619 00                    2784 	.db #0x00	; 0
      00161A 00                    2785 	.db #0x00	; 0
      00161B 00                    2786 	.db #0x00	; 0
      00161C 00                    2787 	.db #0x00	; 0
      00161D 00                    2788 	.db #0x00	; 0
      00161E 00                    2789 	.db #0x00	; 0
      00161F 00                    2790 	.db #0x00	; 0
      001620 00                    2791 	.db #0x00	; 0
      001621 00                    2792 	.db #0x00	; 0
      001622 00                    2793 	.db #0x00	; 0
      001623 00                    2794 	.db #0x00	; 0
      001624 00                    2795 	.db #0x00	; 0
      001625 00                    2796 	.db #0x00	; 0
      001626 00                    2797 	.db #0x00	; 0
      001627 00                    2798 	.db #0x00	; 0
      001628 00                    2799 	.db #0x00	; 0
      001629 00                    2800 	.db #0x00	; 0
      00162A 00                    2801 	.db #0x00	; 0
      00162B 00                    2802 	.db #0x00	; 0
      00162C 00                    2803 	.db #0x00	; 0
      00162D 00                    2804 	.db #0x00	; 0
      00162E 00                    2805 	.db #0x00	; 0
      00162F 00                    2806 	.db #0x00	; 0
      001630 00                    2807 	.db #0x00	; 0
      001631 00                    2808 	.db #0x00	; 0
      001632 0C                    2809 	.db #0x0c	; 12
      001633 0A                    2810 	.db #0x0a	; 10
      001634 0A                    2811 	.db #0x0a	; 10
      001635 09                    2812 	.db #0x09	; 9
      001636 0C                    2813 	.db #0x0c	; 12
      001637 00                    2814 	.db #0x00	; 0
      001638 00                    2815 	.db #0x00	; 0
      001639 0F                    2816 	.db #0x0f	; 15
      00163A 08                    2817 	.db #0x08	; 8
      00163B 08                    2818 	.db #0x08	; 8
      00163C 08                    2819 	.db #0x08	; 8
      00163D 0F                    2820 	.db #0x0f	; 15
      00163E 00                    2821 	.db #0x00	; 0
      00163F 00                    2822 	.db #0x00	; 0
      001640 00                    2823 	.db #0x00	; 0
      001641 08                    2824 	.db #0x08	; 8
      001642 0F                    2825 	.db #0x0f	; 15
      001643 08                    2826 	.db #0x08	; 8
      001644 00                    2827 	.db #0x00	; 0
      001645 00                    2828 	.db #0x00	; 0
      001646 00                    2829 	.db #0x00	; 0
      001647 0C                    2830 	.db #0x0c	; 12
      001648 08                    2831 	.db #0x08	; 8
      001649 09                    2832 	.db #0x09	; 9
      00164A 09                    2833 	.db #0x09	; 9
      00164B 0E                    2834 	.db #0x0e	; 14
      00164C 00                    2835 	.db #0x00	; 0
      00164D 00                    2836 	.db #0x00	; 0
      00164E 0C                    2837 	.db #0x0c	; 12
      00164F 00                    2838 	.db #0x00	; 0
      001650 00                    2839 	.db #0x00	; 0
      001651 0F                    2840 	.db #0x0f	; 15
      001652 09                    2841 	.db #0x09	; 9
      001653 09                    2842 	.db #0x09	; 9
      001654 09                    2843 	.db #0x09	; 9
      001655 0F                    2844 	.db #0x0f	; 15
      001656 00                    2845 	.db #0x00	; 0
      001657 00                    2846 	.db #0x00	; 0
      001658 0C                    2847 	.db #0x0c	; 12
      001659 00                    2848 	.db #0x00	; 0
      00165A 00                    2849 	.db #0x00	; 0
      00165B 0C                    2850 	.db #0x0c	; 12
      00165C 0A                    2851 	.db #0x0a	; 10
      00165D 0A                    2852 	.db #0x0a	; 10
      00165E 09                    2853 	.db #0x09	; 9
      00165F 0C                    2854 	.db #0x0c	; 12
      001660 00                    2855 	.db #0x00	; 0
      001661 00                    2856 	.db #0x00	; 0
      001662 0C                    2857 	.db #0x0c	; 12
      001663 0A                    2858 	.db #0x0a	; 10
      001664 0A                    2859 	.db #0x0a	; 10
      001665 09                    2860 	.db #0x09	; 9
      001666 0C                    2861 	.db #0x0c	; 12
      001667 00                    2862 	.db #0x00	; 0
      001668 00                    2863 	.db #0x00	; 0
      001669 00                    2864 	.db #0x00	; 0
      00166A 00                    2865 	.db #0x00	; 0
      00166B 00                    2866 	.db #0x00	; 0
      00166C 00                    2867 	.db #0x00	; 0
      00166D 00                    2868 	.db #0x00	; 0
      00166E 00                    2869 	.db #0x00	; 0
      00166F 00                    2870 	.db #0x00	; 0
      001670 00                    2871 	.db #0x00	; 0
      001671 00                    2872 	.db #0x00	; 0
      001672 00                    2873 	.db #0x00	; 0
      001673 00                    2874 	.db #0x00	; 0
      001674 00                    2875 	.db #0x00	; 0
      001675 00                    2876 	.db #0x00	; 0
      001676 00                    2877 	.db #0x00	; 0
      001677 00                    2878 	.db #0x00	; 0
      001678 00                    2879 	.db #0x00	; 0
      001679 00                    2880 	.db #0x00	; 0
      00167A 00                    2881 	.db #0x00	; 0
      00167B 00                    2882 	.db #0x00	; 0
      00167C 00                    2883 	.db #0x00	; 0
      00167D 00                    2884 	.db #0x00	; 0
      00167E 00                    2885 	.db #0x00	; 0
      00167F 00                    2886 	.db #0x00	; 0
      001680 00                    2887 	.db #0x00	; 0
      001681 00                    2888 	.db #0x00	; 0
      001682 00                    2889 	.db #0x00	; 0
      001683 00                    2890 	.db #0x00	; 0
      001684 00                    2891 	.db #0x00	; 0
      001685 00                    2892 	.db #0x00	; 0
      001686 00                    2893 	.db #0x00	; 0
      001687 00                    2894 	.db #0x00	; 0
      001688 00                    2895 	.db #0x00	; 0
      001689 00                    2896 	.db #0x00	; 0
      00168A 00                    2897 	.db #0x00	; 0
      00168B 00                    2898 	.db #0x00	; 0
      00168C 00                    2899 	.db #0x00	; 0
      00168D 00                    2900 	.db #0x00	; 0
      00168E 00                    2901 	.db #0x00	; 0
      00168F 00                    2902 	.db #0x00	; 0
      001690 00                    2903 	.db #0x00	; 0
      001691 00                    2904 	.db #0x00	; 0
      001692 00                    2905 	.db #0x00	; 0
      001693 00                    2906 	.db #0x00	; 0
      001694 00                    2907 	.db #0x00	; 0
      001695 00                    2908 	.db #0x00	; 0
      001696 00                    2909 	.db #0x00	; 0
      001697 00                    2910 	.db #0x00	; 0
      001698 00                    2911 	.db #0x00	; 0
      001699 00                    2912 	.db #0x00	; 0
      00169A 00                    2913 	.db #0x00	; 0
      00169B 00                    2914 	.db #0x00	; 0
      00169C 00                    2915 	.db #0x00	; 0
      00169D 00                    2916 	.db #0x00	; 0
      00169E 00                    2917 	.db #0x00	; 0
      00169F 00                    2918 	.db #0x00	; 0
      0016A0 00                    2919 	.db #0x00	; 0
      0016A1 00                    2920 	.db #0x00	; 0
      0016A2 00                    2921 	.db #0x00	; 0
      0016A3 00                    2922 	.db #0x00	; 0
      0016A4 00                    2923 	.db #0x00	; 0
      0016A5 00                    2924 	.db #0x00	; 0
      0016A6 00                    2925 	.db #0x00	; 0
      0016A7 00                    2926 	.db #0x00	; 0
      0016A8 00                    2927 	.db #0x00	; 0
      0016A9 00                    2928 	.db #0x00	; 0
      0016AA 00                    2929 	.db #0x00	; 0
      0016AB 00                    2930 	.db #0x00	; 0
      0016AC 00                    2931 	.db #0x00	; 0
      0016AD 00                    2932 	.db #0x00	; 0
      0016AE 00                    2933 	.db #0x00	; 0
      0016AF 00                    2934 	.db #0x00	; 0
      0016B0 00                    2935 	.db #0x00	; 0
      0016B1 00                    2936 	.db #0x00	; 0
      0016B2 00                    2937 	.db #0x00	; 0
      0016B3 00                    2938 	.db #0x00	; 0
      0016B4 00                    2939 	.db #0x00	; 0
      0016B5 00                    2940 	.db #0x00	; 0
      0016B6 00                    2941 	.db #0x00	; 0
      0016B7 00                    2942 	.db #0x00	; 0
      0016B8 00                    2943 	.db #0x00	; 0
      0016B9 00                    2944 	.db #0x00	; 0
      0016BA 00                    2945 	.db #0x00	; 0
      0016BB 00                    2946 	.db #0x00	; 0
      0016BC 00                    2947 	.db #0x00	; 0
      0016BD 00                    2948 	.db #0x00	; 0
      0016BE 00                    2949 	.db #0x00	; 0
      0016BF 00                    2950 	.db #0x00	; 0
      0016C0 00                    2951 	.db #0x00	; 0
      0016C1 00                    2952 	.db #0x00	; 0
      0016C2 00                    2953 	.db #0x00	; 0
      0016C3 00                    2954 	.db #0x00	; 0
      0016C4 00                    2955 	.db #0x00	; 0
      0016C5 00                    2956 	.db #0x00	; 0
      0016C6 00                    2957 	.db #0x00	; 0
      0016C7 00                    2958 	.db #0x00	; 0
      0016C8 00                    2959 	.db #0x00	; 0
      0016C9 80                    2960 	.db #0x80	; 128
      0016CA 80                    2961 	.db #0x80	; 128
      0016CB 80                    2962 	.db #0x80	; 128
      0016CC 80                    2963 	.db #0x80	; 128
      0016CD 80                    2964 	.db #0x80	; 128
      0016CE 80                    2965 	.db #0x80	; 128
      0016CF 80                    2966 	.db #0x80	; 128
      0016D0 80                    2967 	.db #0x80	; 128
      0016D1 00                    2968 	.db #0x00	; 0
      0016D2 00                    2969 	.db #0x00	; 0
      0016D3 00                    2970 	.db #0x00	; 0
      0016D4 00                    2971 	.db #0x00	; 0
      0016D5 00                    2972 	.db #0x00	; 0
      0016D6 00                    2973 	.db #0x00	; 0
      0016D7 00                    2974 	.db #0x00	; 0
      0016D8 00                    2975 	.db #0x00	; 0
      0016D9 00                    2976 	.db #0x00	; 0
      0016DA 00                    2977 	.db #0x00	; 0
      0016DB 00                    2978 	.db #0x00	; 0
      0016DC 00                    2979 	.db #0x00	; 0
      0016DD 00                    2980 	.db #0x00	; 0
      0016DE 00                    2981 	.db #0x00	; 0
      0016DF 00                    2982 	.db #0x00	; 0
      0016E0 00                    2983 	.db #0x00	; 0
      0016E1 00                    2984 	.db #0x00	; 0
      0016E2 00                    2985 	.db #0x00	; 0
      0016E3 00                    2986 	.db #0x00	; 0
      0016E4 00                    2987 	.db #0x00	; 0
      0016E5 00                    2988 	.db #0x00	; 0
      0016E6 00                    2989 	.db #0x00	; 0
      0016E7 00                    2990 	.db #0x00	; 0
      0016E8 00                    2991 	.db #0x00	; 0
      0016E9 00                    2992 	.db #0x00	; 0
      0016EA 00                    2993 	.db #0x00	; 0
      0016EB 00                    2994 	.db #0x00	; 0
      0016EC 00                    2995 	.db #0x00	; 0
      0016ED 00                    2996 	.db #0x00	; 0
      0016EE 00                    2997 	.db #0x00	; 0
      0016EF 00                    2998 	.db #0x00	; 0
      0016F0 00                    2999 	.db #0x00	; 0
      0016F1 00                    3000 	.db #0x00	; 0
      0016F2 00                    3001 	.db #0x00	; 0
      0016F3 00                    3002 	.db #0x00	; 0
      0016F4 00                    3003 	.db #0x00	; 0
      0016F5 00                    3004 	.db #0x00	; 0
      0016F6 00                    3005 	.db #0x00	; 0
      0016F7 00                    3006 	.db #0x00	; 0
      0016F8 00                    3007 	.db #0x00	; 0
      0016F9 00                    3008 	.db #0x00	; 0
      0016FA 00                    3009 	.db #0x00	; 0
      0016FB 00                    3010 	.db #0x00	; 0
      0016FC 00                    3011 	.db #0x00	; 0
      0016FD 00                    3012 	.db #0x00	; 0
      0016FE 00                    3013 	.db #0x00	; 0
      0016FF 00                    3014 	.db #0x00	; 0
      001700 00                    3015 	.db #0x00	; 0
      001701 00                    3016 	.db #0x00	; 0
      001702 00                    3017 	.db #0x00	; 0
      001703 00                    3018 	.db #0x00	; 0
      001704 00                    3019 	.db #0x00	; 0
      001705 00                    3020 	.db #0x00	; 0
      001706 00                    3021 	.db #0x00	; 0
      001707 00                    3022 	.db #0x00	; 0
      001708 00                    3023 	.db #0x00	; 0
      001709 00                    3024 	.db #0x00	; 0
      00170A 00                    3025 	.db #0x00	; 0
      00170B 00                    3026 	.db #0x00	; 0
      00170C 00                    3027 	.db #0x00	; 0
      00170D 00                    3028 	.db #0x00	; 0
      00170E 7F                    3029 	.db #0x7f	; 127
      00170F 03                    3030 	.db #0x03	; 3
      001710 0C                    3031 	.db #0x0c	; 12
      001711 30                    3032 	.db #0x30	; 48	'0'
      001712 0C                    3033 	.db #0x0c	; 12
      001713 03                    3034 	.db #0x03	; 3
      001714 7F                    3035 	.db #0x7f	; 127
      001715 00                    3036 	.db #0x00	; 0
      001716 00                    3037 	.db #0x00	; 0
      001717 38                    3038 	.db #0x38	; 56	'8'
      001718 54                    3039 	.db #0x54	; 84	'T'
      001719 54                    3040 	.db #0x54	; 84	'T'
      00171A 58                    3041 	.db #0x58	; 88	'X'
      00171B 00                    3042 	.db #0x00	; 0
      00171C 00                    3043 	.db #0x00	; 0
      00171D 7C                    3044 	.db #0x7c	; 124
      00171E 04                    3045 	.db #0x04	; 4
      00171F 04                    3046 	.db #0x04	; 4
      001720 78                    3047 	.db #0x78	; 120	'x'
      001721 00                    3048 	.db #0x00	; 0
      001722 00                    3049 	.db #0x00	; 0
      001723 3C                    3050 	.db #0x3c	; 60
      001724 40                    3051 	.db #0x40	; 64
      001725 40                    3052 	.db #0x40	; 64
      001726 7C                    3053 	.db #0x7c	; 124
      001727 00                    3054 	.db #0x00	; 0
      001728 00                    3055 	.db #0x00	; 0
      001729 00                    3056 	.db #0x00	; 0
      00172A 00                    3057 	.db #0x00	; 0
      00172B 00                    3058 	.db #0x00	; 0
      00172C 00                    3059 	.db #0x00	; 0
      00172D 00                    3060 	.db #0x00	; 0
      00172E 00                    3061 	.db #0x00	; 0
      00172F 00                    3062 	.db #0x00	; 0
      001730 00                    3063 	.db #0x00	; 0
      001731 00                    3064 	.db #0x00	; 0
      001732 00                    3065 	.db #0x00	; 0
      001733 00                    3066 	.db #0x00	; 0
      001734 00                    3067 	.db #0x00	; 0
      001735 00                    3068 	.db #0x00	; 0
      001736 00                    3069 	.db #0x00	; 0
      001737 00                    3070 	.db #0x00	; 0
      001738 00                    3071 	.db #0x00	; 0
      001739 00                    3072 	.db #0x00	; 0
      00173A 00                    3073 	.db #0x00	; 0
      00173B 00                    3074 	.db #0x00	; 0
      00173C 00                    3075 	.db #0x00	; 0
      00173D 00                    3076 	.db #0x00	; 0
      00173E 00                    3077 	.db #0x00	; 0
      00173F 00                    3078 	.db #0x00	; 0
      001740 00                    3079 	.db #0x00	; 0
      001741 00                    3080 	.db #0x00	; 0
      001742 00                    3081 	.db #0x00	; 0
      001743 00                    3082 	.db #0x00	; 0
      001744 00                    3083 	.db #0x00	; 0
      001745 00                    3084 	.db #0x00	; 0
      001746 00                    3085 	.db #0x00	; 0
      001747 00                    3086 	.db #0x00	; 0
      001748 00                    3087 	.db #0x00	; 0
      001749 FF                    3088 	.db #0xff	; 255
      00174A AA                    3089 	.db #0xaa	; 170
      00174B AA                    3090 	.db #0xaa	; 170
      00174C AA                    3091 	.db #0xaa	; 170
      00174D 28                    3092 	.db #0x28	; 40
      00174E 08                    3093 	.db #0x08	; 8
      00174F 00                    3094 	.db #0x00	; 0
      001750 FF                    3095 	.db #0xff	; 255
      001751 00                    3096 	.db #0x00	; 0
      001752 00                    3097 	.db #0x00	; 0
      001753 00                    3098 	.db #0x00	; 0
      001754 00                    3099 	.db #0x00	; 0
      001755 00                    3100 	.db #0x00	; 0
      001756 00                    3101 	.db #0x00	; 0
      001757 00                    3102 	.db #0x00	; 0
      001758 00                    3103 	.db #0x00	; 0
      001759 00                    3104 	.db #0x00	; 0
      00175A 00                    3105 	.db #0x00	; 0
      00175B 00                    3106 	.db #0x00	; 0
      00175C 00                    3107 	.db #0x00	; 0
      00175D 00                    3108 	.db #0x00	; 0
      00175E 00                    3109 	.db #0x00	; 0
      00175F 00                    3110 	.db #0x00	; 0
      001760 00                    3111 	.db #0x00	; 0
      001761 00                    3112 	.db #0x00	; 0
      001762 00                    3113 	.db #0x00	; 0
      001763 00                    3114 	.db #0x00	; 0
      001764 00                    3115 	.db #0x00	; 0
      001765 00                    3116 	.db #0x00	; 0
      001766 00                    3117 	.db #0x00	; 0
      001767 00                    3118 	.db #0x00	; 0
      001768 00                    3119 	.db #0x00	; 0
      001769 00                    3120 	.db #0x00	; 0
      00176A 00                    3121 	.db #0x00	; 0
      00176B 00                    3122 	.db #0x00	; 0
      00176C 00                    3123 	.db #0x00	; 0
      00176D 00                    3124 	.db #0x00	; 0
      00176E 00                    3125 	.db #0x00	; 0
      00176F 00                    3126 	.db #0x00	; 0
      001770 00                    3127 	.db #0x00	; 0
      001771 00                    3128 	.db #0x00	; 0
      001772 00                    3129 	.db #0x00	; 0
      001773 00                    3130 	.db #0x00	; 0
      001774 00                    3131 	.db #0x00	; 0
      001775 00                    3132 	.db #0x00	; 0
      001776 7F                    3133 	.db #0x7f	; 127
      001777 03                    3134 	.db #0x03	; 3
      001778 0C                    3135 	.db #0x0c	; 12
      001779 30                    3136 	.db #0x30	; 48	'0'
      00177A 0C                    3137 	.db #0x0c	; 12
      00177B 03                    3138 	.db #0x03	; 3
      00177C 7F                    3139 	.db #0x7f	; 127
      00177D 00                    3140 	.db #0x00	; 0
      00177E 00                    3141 	.db #0x00	; 0
      00177F 26                    3142 	.db #0x26	; 38
      001780 49                    3143 	.db #0x49	; 73	'I'
      001781 49                    3144 	.db #0x49	; 73	'I'
      001782 49                    3145 	.db #0x49	; 73	'I'
      001783 32                    3146 	.db #0x32	; 50	'2'
      001784 00                    3147 	.db #0x00	; 0
      001785 00                    3148 	.db #0x00	; 0
      001786 7F                    3149 	.db #0x7f	; 127
      001787 02                    3150 	.db #0x02	; 2
      001788 04                    3151 	.db #0x04	; 4
      001789 08                    3152 	.db #0x08	; 8
      00178A 10                    3153 	.db #0x10	; 16
      00178B 7F                    3154 	.db #0x7f	; 127
      00178C 00                    3155 	.db #0x00	; 0
                                   3156 	.area CONST   (CODE)
      00178D                       3157 ___str_0:
      00178D 50 57 4D 20 25 66 25  3158 	.ascii "PWM %f%%    "
             25 20 20 20 20
      001799 00                    3159 	.db 0x00
                                   3160 	.area CSEG    (CODE)
                                   3161 	.area CONST   (CODE)
      00179A                       3162 ___str_1:
      00179A 44 41 20 53 43 20 25  3163 	.ascii "DA SC %fV    "
             66 56 20 20 20 20
      0017A7 00                    3164 	.db 0x00
                                   3165 	.area CSEG    (CODE)
                                   3166 	.area CONST   (CODE)
      0017A8                       3167 ___str_2:
      0017A8 41 44 20 43 4A 20 25  3168 	.ascii "AD CJ %fV    "
             66 56 20 20 20 20
      0017B5 00                    3169 	.db 0x00
                                   3170 	.area CSEG    (CODE)
                                   3171 	.area XINIT   (CODE)
                                   3172 	.area CABS    (ABS,CODE)
