                                      1 ;--------------------------------------------------------
                                      2 ; File Created by SDCC : free open source ANSI-C Compiler
                                      3 ; Version 4.0.0 #11528 (MINGW64)
                                      4 ;--------------------------------------------------------
                                      5 	.module CH549_OLED
                                      6 	.optsdcc -mmcs51 --model-small
                                      7 	
                                      8 ;--------------------------------------------------------
                                      9 ; Public variables in this module
                                     10 ;--------------------------------------------------------
                                     11 	.globl _Hzk
                                     12 	.globl _fontMatrix_8x16
                                     13 	.globl _fontMatrix_6x8
                                     14 	.globl _BMP2
                                     15 	.globl _BMP1
                                     16 	.globl _CH549SPIMasterWrite
                                     17 	.globl _UIF_BUS_RST
                                     18 	.globl _UIF_DETECT
                                     19 	.globl _UIF_TRANSFER
                                     20 	.globl _UIF_SUSPEND
                                     21 	.globl _UIF_HST_SOF
                                     22 	.globl _UIF_FIFO_OV
                                     23 	.globl _U_SIE_FREE
                                     24 	.globl _U_TOG_OK
                                     25 	.globl _U_IS_NAK
                                     26 	.globl _S0_R_FIFO
                                     27 	.globl _S0_T_FIFO
                                     28 	.globl _S0_FREE
                                     29 	.globl _S0_IF_BYTE
                                     30 	.globl _S0_IF_FIRST
                                     31 	.globl _S0_IF_OV
                                     32 	.globl _S0_FST_ACT
                                     33 	.globl _CP_RL2
                                     34 	.globl _C_T2
                                     35 	.globl _TR2
                                     36 	.globl _EXEN2
                                     37 	.globl _TCLK
                                     38 	.globl _RCLK
                                     39 	.globl _EXF2
                                     40 	.globl _CAP1F
                                     41 	.globl _TF2
                                     42 	.globl _RI
                                     43 	.globl _TI
                                     44 	.globl _RB8
                                     45 	.globl _TB8
                                     46 	.globl _REN
                                     47 	.globl _SM2
                                     48 	.globl _SM1
                                     49 	.globl _SM0
                                     50 	.globl _IT0
                                     51 	.globl _IE0
                                     52 	.globl _IT1
                                     53 	.globl _IE1
                                     54 	.globl _TR0
                                     55 	.globl _TF0
                                     56 	.globl _TR1
                                     57 	.globl _TF1
                                     58 	.globl _XI
                                     59 	.globl _XO
                                     60 	.globl _P4_0
                                     61 	.globl _P4_1
                                     62 	.globl _P4_2
                                     63 	.globl _P4_3
                                     64 	.globl _P4_4
                                     65 	.globl _P4_5
                                     66 	.globl _P4_6
                                     67 	.globl _RXD
                                     68 	.globl _TXD
                                     69 	.globl _INT0
                                     70 	.globl _INT1
                                     71 	.globl _T0
                                     72 	.globl _T1
                                     73 	.globl _CAP0
                                     74 	.globl _INT3
                                     75 	.globl _P3_0
                                     76 	.globl _P3_1
                                     77 	.globl _P3_2
                                     78 	.globl _P3_3
                                     79 	.globl _P3_4
                                     80 	.globl _P3_5
                                     81 	.globl _P3_6
                                     82 	.globl _P3_7
                                     83 	.globl _PWM5
                                     84 	.globl _PWM4
                                     85 	.globl _INT0_
                                     86 	.globl _PWM3
                                     87 	.globl _PWM2
                                     88 	.globl _CAP1_
                                     89 	.globl _T2_
                                     90 	.globl _PWM1
                                     91 	.globl _CAP2_
                                     92 	.globl _T2EX_
                                     93 	.globl _PWM0
                                     94 	.globl _RXD1
                                     95 	.globl _PWM6
                                     96 	.globl _TXD1
                                     97 	.globl _PWM7
                                     98 	.globl _P2_0
                                     99 	.globl _P2_1
                                    100 	.globl _P2_2
                                    101 	.globl _P2_3
                                    102 	.globl _P2_4
                                    103 	.globl _P2_5
                                    104 	.globl _P2_6
                                    105 	.globl _P2_7
                                    106 	.globl _AIN0
                                    107 	.globl _CAP1
                                    108 	.globl _T2
                                    109 	.globl _AIN1
                                    110 	.globl _CAP2
                                    111 	.globl _T2EX
                                    112 	.globl _AIN2
                                    113 	.globl _AIN3
                                    114 	.globl _AIN4
                                    115 	.globl _UCC1
                                    116 	.globl _SCS
                                    117 	.globl _AIN5
                                    118 	.globl _UCC2
                                    119 	.globl _PWM0_
                                    120 	.globl _MOSI
                                    121 	.globl _AIN6
                                    122 	.globl _VBUS
                                    123 	.globl _RXD1_
                                    124 	.globl _MISO
                                    125 	.globl _AIN7
                                    126 	.globl _TXD1_
                                    127 	.globl _SCK
                                    128 	.globl _P1_0
                                    129 	.globl _P1_1
                                    130 	.globl _P1_2
                                    131 	.globl _P1_3
                                    132 	.globl _P1_4
                                    133 	.globl _P1_5
                                    134 	.globl _P1_6
                                    135 	.globl _P1_7
                                    136 	.globl _AIN8
                                    137 	.globl _AIN9
                                    138 	.globl _AIN10
                                    139 	.globl _RXD_
                                    140 	.globl _AIN11
                                    141 	.globl _TXD_
                                    142 	.globl _AIN12
                                    143 	.globl _RXD2
                                    144 	.globl _AIN13
                                    145 	.globl _TXD2
                                    146 	.globl _AIN14
                                    147 	.globl _RXD3
                                    148 	.globl _AIN15
                                    149 	.globl _TXD3
                                    150 	.globl _P0_0
                                    151 	.globl _P0_1
                                    152 	.globl _P0_2
                                    153 	.globl _P0_3
                                    154 	.globl _P0_4
                                    155 	.globl _P0_5
                                    156 	.globl _P0_6
                                    157 	.globl _P0_7
                                    158 	.globl _IE_SPI0
                                    159 	.globl _IE_INT3
                                    160 	.globl _IE_USB
                                    161 	.globl _IE_UART2
                                    162 	.globl _IE_ADC
                                    163 	.globl _IE_UART1
                                    164 	.globl _IE_UART3
                                    165 	.globl _IE_PWMX
                                    166 	.globl _IE_GPIO
                                    167 	.globl _IE_WDOG
                                    168 	.globl _PX0
                                    169 	.globl _PT0
                                    170 	.globl _PX1
                                    171 	.globl _PT1
                                    172 	.globl _PS
                                    173 	.globl _PT2
                                    174 	.globl _PL_FLAG
                                    175 	.globl _PH_FLAG
                                    176 	.globl _EX0
                                    177 	.globl _ET0
                                    178 	.globl _EX1
                                    179 	.globl _ET1
                                    180 	.globl _ES
                                    181 	.globl _ET2
                                    182 	.globl _E_DIS
                                    183 	.globl _EA
                                    184 	.globl _P
                                    185 	.globl _F1
                                    186 	.globl _OV
                                    187 	.globl _RS0
                                    188 	.globl _RS1
                                    189 	.globl _F0
                                    190 	.globl _AC
                                    191 	.globl _CY
                                    192 	.globl _UEP1_DMA_H
                                    193 	.globl _UEP1_DMA_L
                                    194 	.globl _UEP1_DMA
                                    195 	.globl _UEP0_DMA_H
                                    196 	.globl _UEP0_DMA_L
                                    197 	.globl _UEP0_DMA
                                    198 	.globl _UEP2_3_MOD
                                    199 	.globl _UEP4_1_MOD
                                    200 	.globl _UEP3_DMA_H
                                    201 	.globl _UEP3_DMA_L
                                    202 	.globl _UEP3_DMA
                                    203 	.globl _UEP2_DMA_H
                                    204 	.globl _UEP2_DMA_L
                                    205 	.globl _UEP2_DMA
                                    206 	.globl _USB_DEV_AD
                                    207 	.globl _USB_CTRL
                                    208 	.globl _USB_INT_EN
                                    209 	.globl _UEP4_T_LEN
                                    210 	.globl _UEP4_CTRL
                                    211 	.globl _UEP0_T_LEN
                                    212 	.globl _UEP0_CTRL
                                    213 	.globl _USB_RX_LEN
                                    214 	.globl _USB_MIS_ST
                                    215 	.globl _USB_INT_ST
                                    216 	.globl _USB_INT_FG
                                    217 	.globl _UEP3_T_LEN
                                    218 	.globl _UEP3_CTRL
                                    219 	.globl _UEP2_T_LEN
                                    220 	.globl _UEP2_CTRL
                                    221 	.globl _UEP1_T_LEN
                                    222 	.globl _UEP1_CTRL
                                    223 	.globl _UDEV_CTRL
                                    224 	.globl _USB_C_CTRL
                                    225 	.globl _ADC_PIN
                                    226 	.globl _ADC_CHAN
                                    227 	.globl _ADC_DAT_H
                                    228 	.globl _ADC_DAT_L
                                    229 	.globl _ADC_DAT
                                    230 	.globl _ADC_CFG
                                    231 	.globl _ADC_CTRL
                                    232 	.globl _TKEY_CTRL
                                    233 	.globl _SIF3
                                    234 	.globl _SBAUD3
                                    235 	.globl _SBUF3
                                    236 	.globl _SCON3
                                    237 	.globl _SIF2
                                    238 	.globl _SBAUD2
                                    239 	.globl _SBUF2
                                    240 	.globl _SCON2
                                    241 	.globl _SIF1
                                    242 	.globl _SBAUD1
                                    243 	.globl _SBUF1
                                    244 	.globl _SCON1
                                    245 	.globl _SPI0_SETUP
                                    246 	.globl _SPI0_CK_SE
                                    247 	.globl _SPI0_CTRL
                                    248 	.globl _SPI0_DATA
                                    249 	.globl _SPI0_STAT
                                    250 	.globl _PWM_DATA7
                                    251 	.globl _PWM_DATA6
                                    252 	.globl _PWM_DATA5
                                    253 	.globl _PWM_DATA4
                                    254 	.globl _PWM_DATA3
                                    255 	.globl _PWM_CTRL2
                                    256 	.globl _PWM_CK_SE
                                    257 	.globl _PWM_CTRL
                                    258 	.globl _PWM_DATA0
                                    259 	.globl _PWM_DATA1
                                    260 	.globl _PWM_DATA2
                                    261 	.globl _T2CAP1H
                                    262 	.globl _T2CAP1L
                                    263 	.globl _T2CAP1
                                    264 	.globl _TH2
                                    265 	.globl _TL2
                                    266 	.globl _T2COUNT
                                    267 	.globl _RCAP2H
                                    268 	.globl _RCAP2L
                                    269 	.globl _RCAP2
                                    270 	.globl _T2MOD
                                    271 	.globl _T2CON
                                    272 	.globl _T2CAP0H
                                    273 	.globl _T2CAP0L
                                    274 	.globl _T2CAP0
                                    275 	.globl _T2CON2
                                    276 	.globl _SBUF
                                    277 	.globl _SCON
                                    278 	.globl _TH1
                                    279 	.globl _TH0
                                    280 	.globl _TL1
                                    281 	.globl _TL0
                                    282 	.globl _TMOD
                                    283 	.globl _TCON
                                    284 	.globl _XBUS_AUX
                                    285 	.globl _PIN_FUNC
                                    286 	.globl _P5
                                    287 	.globl _P4_DIR_PU
                                    288 	.globl _P4_MOD_OC
                                    289 	.globl _P4
                                    290 	.globl _P3_DIR_PU
                                    291 	.globl _P3_MOD_OC
                                    292 	.globl _P3
                                    293 	.globl _P2_DIR_PU
                                    294 	.globl _P2_MOD_OC
                                    295 	.globl _P2
                                    296 	.globl _P1_DIR_PU
                                    297 	.globl _P1_MOD_OC
                                    298 	.globl _P1
                                    299 	.globl _P0_DIR_PU
                                    300 	.globl _P0_MOD_OC
                                    301 	.globl _P0
                                    302 	.globl _ROM_CTRL
                                    303 	.globl _ROM_DATA_HH
                                    304 	.globl _ROM_DATA_HL
                                    305 	.globl _ROM_DATA_HI
                                    306 	.globl _ROM_ADDR_H
                                    307 	.globl _ROM_ADDR_L
                                    308 	.globl _ROM_ADDR
                                    309 	.globl _GPIO_IE
                                    310 	.globl _INTX
                                    311 	.globl _IP_EX
                                    312 	.globl _IE_EX
                                    313 	.globl _IP
                                    314 	.globl _IE
                                    315 	.globl _WDOG_COUNT
                                    316 	.globl _RESET_KEEP
                                    317 	.globl _WAKE_CTRL
                                    318 	.globl _CLOCK_CFG
                                    319 	.globl _POWER_CFG
                                    320 	.globl _PCON
                                    321 	.globl _GLOBAL_CFG
                                    322 	.globl _SAFE_MOD
                                    323 	.globl _DPH
                                    324 	.globl _DPL
                                    325 	.globl _SP
                                    326 	.globl _A_INV
                                    327 	.globl _B
                                    328 	.globl _ACC
                                    329 	.globl _PSW
                                    330 	.globl _OLED_DrawBMP_PARM_5
                                    331 	.globl _OLED_DrawBMP_PARM_4
                                    332 	.globl _OLED_DrawBMP_PARM_3
                                    333 	.globl _OLED_DrawBMP_PARM_2
                                    334 	.globl _OLED_ShowCHinese_PARM_3
                                    335 	.globl _OLED_ShowCHinese_PARM_2
                                    336 	.globl _OLED_ShowString_PARM_3
                                    337 	.globl _OLED_ShowString_PARM_2
                                    338 	.globl _OLED_ShowChar_PARM_3
                                    339 	.globl _OLED_ShowChar_PARM_2
                                    340 	.globl _OLED_Set_Pos_PARM_2
                                    341 	.globl _load_commandList_PARM_2
                                    342 	.globl _OLED_WR_Byte_PARM_2
                                    343 	.globl _fontSize
                                    344 	.globl _setFontSize
                                    345 	.globl _delay_ms
                                    346 	.globl _OLED_WR_Byte
                                    347 	.globl _load_one_command
                                    348 	.globl _load_commandList
                                    349 	.globl _OLED_Init
                                    350 	.globl _OLED_Display_On
                                    351 	.globl _OLED_Display_Off
                                    352 	.globl _OLED_Clear
                                    353 	.globl _OLED_Set_Pos
                                    354 	.globl _OLED_ShowChar
                                    355 	.globl _OLED_ShowString
                                    356 	.globl _OLED_ShowCHinese
                                    357 	.globl _OLED_DrawBMP
                                    358 ;--------------------------------------------------------
                                    359 ; special function registers
                                    360 ;--------------------------------------------------------
                                    361 	.area RSEG    (ABS,DATA)
      000000                        362 	.org 0x0000
                           0000D0   363 _PSW	=	0x00d0
                           0000E0   364 _ACC	=	0x00e0
                           0000F0   365 _B	=	0x00f0
                           0000FD   366 _A_INV	=	0x00fd
                           000081   367 _SP	=	0x0081
                           000082   368 _DPL	=	0x0082
                           000083   369 _DPH	=	0x0083
                           0000A1   370 _SAFE_MOD	=	0x00a1
                           0000B1   371 _GLOBAL_CFG	=	0x00b1
                           000087   372 _PCON	=	0x0087
                           0000BA   373 _POWER_CFG	=	0x00ba
                           0000B9   374 _CLOCK_CFG	=	0x00b9
                           0000A9   375 _WAKE_CTRL	=	0x00a9
                           0000FE   376 _RESET_KEEP	=	0x00fe
                           0000FF   377 _WDOG_COUNT	=	0x00ff
                           0000A8   378 _IE	=	0x00a8
                           0000B8   379 _IP	=	0x00b8
                           0000E8   380 _IE_EX	=	0x00e8
                           0000E9   381 _IP_EX	=	0x00e9
                           0000B3   382 _INTX	=	0x00b3
                           0000B2   383 _GPIO_IE	=	0x00b2
                           008584   384 _ROM_ADDR	=	0x8584
                           000084   385 _ROM_ADDR_L	=	0x0084
                           000085   386 _ROM_ADDR_H	=	0x0085
                           008F8E   387 _ROM_DATA_HI	=	0x8f8e
                           00008E   388 _ROM_DATA_HL	=	0x008e
                           00008F   389 _ROM_DATA_HH	=	0x008f
                           000086   390 _ROM_CTRL	=	0x0086
                           000080   391 _P0	=	0x0080
                           0000C4   392 _P0_MOD_OC	=	0x00c4
                           0000C5   393 _P0_DIR_PU	=	0x00c5
                           000090   394 _P1	=	0x0090
                           000092   395 _P1_MOD_OC	=	0x0092
                           000093   396 _P1_DIR_PU	=	0x0093
                           0000A0   397 _P2	=	0x00a0
                           000094   398 _P2_MOD_OC	=	0x0094
                           000095   399 _P2_DIR_PU	=	0x0095
                           0000B0   400 _P3	=	0x00b0
                           000096   401 _P3_MOD_OC	=	0x0096
                           000097   402 _P3_DIR_PU	=	0x0097
                           0000C0   403 _P4	=	0x00c0
                           0000C2   404 _P4_MOD_OC	=	0x00c2
                           0000C3   405 _P4_DIR_PU	=	0x00c3
                           0000AB   406 _P5	=	0x00ab
                           0000AA   407 _PIN_FUNC	=	0x00aa
                           0000A2   408 _XBUS_AUX	=	0x00a2
                           000088   409 _TCON	=	0x0088
                           000089   410 _TMOD	=	0x0089
                           00008A   411 _TL0	=	0x008a
                           00008B   412 _TL1	=	0x008b
                           00008C   413 _TH0	=	0x008c
                           00008D   414 _TH1	=	0x008d
                           000098   415 _SCON	=	0x0098
                           000099   416 _SBUF	=	0x0099
                           0000C1   417 _T2CON2	=	0x00c1
                           00C7C6   418 _T2CAP0	=	0xc7c6
                           0000C6   419 _T2CAP0L	=	0x00c6
                           0000C7   420 _T2CAP0H	=	0x00c7
                           0000C8   421 _T2CON	=	0x00c8
                           0000C9   422 _T2MOD	=	0x00c9
                           00CBCA   423 _RCAP2	=	0xcbca
                           0000CA   424 _RCAP2L	=	0x00ca
                           0000CB   425 _RCAP2H	=	0x00cb
                           00CDCC   426 _T2COUNT	=	0xcdcc
                           0000CC   427 _TL2	=	0x00cc
                           0000CD   428 _TH2	=	0x00cd
                           00CFCE   429 _T2CAP1	=	0xcfce
                           0000CE   430 _T2CAP1L	=	0x00ce
                           0000CF   431 _T2CAP1H	=	0x00cf
                           00009A   432 _PWM_DATA2	=	0x009a
                           00009B   433 _PWM_DATA1	=	0x009b
                           00009C   434 _PWM_DATA0	=	0x009c
                           00009D   435 _PWM_CTRL	=	0x009d
                           00009E   436 _PWM_CK_SE	=	0x009e
                           00009F   437 _PWM_CTRL2	=	0x009f
                           0000A3   438 _PWM_DATA3	=	0x00a3
                           0000A4   439 _PWM_DATA4	=	0x00a4
                           0000A5   440 _PWM_DATA5	=	0x00a5
                           0000A6   441 _PWM_DATA6	=	0x00a6
                           0000A7   442 _PWM_DATA7	=	0x00a7
                           0000F8   443 _SPI0_STAT	=	0x00f8
                           0000F9   444 _SPI0_DATA	=	0x00f9
                           0000FA   445 _SPI0_CTRL	=	0x00fa
                           0000FB   446 _SPI0_CK_SE	=	0x00fb
                           0000FC   447 _SPI0_SETUP	=	0x00fc
                           0000BC   448 _SCON1	=	0x00bc
                           0000BD   449 _SBUF1	=	0x00bd
                           0000BE   450 _SBAUD1	=	0x00be
                           0000BF   451 _SIF1	=	0x00bf
                           0000B4   452 _SCON2	=	0x00b4
                           0000B5   453 _SBUF2	=	0x00b5
                           0000B6   454 _SBAUD2	=	0x00b6
                           0000B7   455 _SIF2	=	0x00b7
                           0000AC   456 _SCON3	=	0x00ac
                           0000AD   457 _SBUF3	=	0x00ad
                           0000AE   458 _SBAUD3	=	0x00ae
                           0000AF   459 _SIF3	=	0x00af
                           0000F1   460 _TKEY_CTRL	=	0x00f1
                           0000F2   461 _ADC_CTRL	=	0x00f2
                           0000F3   462 _ADC_CFG	=	0x00f3
                           00F5F4   463 _ADC_DAT	=	0xf5f4
                           0000F4   464 _ADC_DAT_L	=	0x00f4
                           0000F5   465 _ADC_DAT_H	=	0x00f5
                           0000F6   466 _ADC_CHAN	=	0x00f6
                           0000F7   467 _ADC_PIN	=	0x00f7
                           000091   468 _USB_C_CTRL	=	0x0091
                           0000D1   469 _UDEV_CTRL	=	0x00d1
                           0000D2   470 _UEP1_CTRL	=	0x00d2
                           0000D3   471 _UEP1_T_LEN	=	0x00d3
                           0000D4   472 _UEP2_CTRL	=	0x00d4
                           0000D5   473 _UEP2_T_LEN	=	0x00d5
                           0000D6   474 _UEP3_CTRL	=	0x00d6
                           0000D7   475 _UEP3_T_LEN	=	0x00d7
                           0000D8   476 _USB_INT_FG	=	0x00d8
                           0000D9   477 _USB_INT_ST	=	0x00d9
                           0000DA   478 _USB_MIS_ST	=	0x00da
                           0000DB   479 _USB_RX_LEN	=	0x00db
                           0000DC   480 _UEP0_CTRL	=	0x00dc
                           0000DD   481 _UEP0_T_LEN	=	0x00dd
                           0000DE   482 _UEP4_CTRL	=	0x00de
                           0000DF   483 _UEP4_T_LEN	=	0x00df
                           0000E1   484 _USB_INT_EN	=	0x00e1
                           0000E2   485 _USB_CTRL	=	0x00e2
                           0000E3   486 _USB_DEV_AD	=	0x00e3
                           00E5E4   487 _UEP2_DMA	=	0xe5e4
                           0000E4   488 _UEP2_DMA_L	=	0x00e4
                           0000E5   489 _UEP2_DMA_H	=	0x00e5
                           00E7E6   490 _UEP3_DMA	=	0xe7e6
                           0000E6   491 _UEP3_DMA_L	=	0x00e6
                           0000E7   492 _UEP3_DMA_H	=	0x00e7
                           0000EA   493 _UEP4_1_MOD	=	0x00ea
                           0000EB   494 _UEP2_3_MOD	=	0x00eb
                           00EDEC   495 _UEP0_DMA	=	0xedec
                           0000EC   496 _UEP0_DMA_L	=	0x00ec
                           0000ED   497 _UEP0_DMA_H	=	0x00ed
                           00EFEE   498 _UEP1_DMA	=	0xefee
                           0000EE   499 _UEP1_DMA_L	=	0x00ee
                           0000EF   500 _UEP1_DMA_H	=	0x00ef
                                    501 ;--------------------------------------------------------
                                    502 ; special function bits
                                    503 ;--------------------------------------------------------
                                    504 	.area RSEG    (ABS,DATA)
      000000                        505 	.org 0x0000
                           0000D7   506 _CY	=	0x00d7
                           0000D6   507 _AC	=	0x00d6
                           0000D5   508 _F0	=	0x00d5
                           0000D4   509 _RS1	=	0x00d4
                           0000D3   510 _RS0	=	0x00d3
                           0000D2   511 _OV	=	0x00d2
                           0000D1   512 _F1	=	0x00d1
                           0000D0   513 _P	=	0x00d0
                           0000AF   514 _EA	=	0x00af
                           0000AE   515 _E_DIS	=	0x00ae
                           0000AD   516 _ET2	=	0x00ad
                           0000AC   517 _ES	=	0x00ac
                           0000AB   518 _ET1	=	0x00ab
                           0000AA   519 _EX1	=	0x00aa
                           0000A9   520 _ET0	=	0x00a9
                           0000A8   521 _EX0	=	0x00a8
                           0000BF   522 _PH_FLAG	=	0x00bf
                           0000BE   523 _PL_FLAG	=	0x00be
                           0000BD   524 _PT2	=	0x00bd
                           0000BC   525 _PS	=	0x00bc
                           0000BB   526 _PT1	=	0x00bb
                           0000BA   527 _PX1	=	0x00ba
                           0000B9   528 _PT0	=	0x00b9
                           0000B8   529 _PX0	=	0x00b8
                           0000EF   530 _IE_WDOG	=	0x00ef
                           0000EE   531 _IE_GPIO	=	0x00ee
                           0000ED   532 _IE_PWMX	=	0x00ed
                           0000ED   533 _IE_UART3	=	0x00ed
                           0000EC   534 _IE_UART1	=	0x00ec
                           0000EB   535 _IE_ADC	=	0x00eb
                           0000EB   536 _IE_UART2	=	0x00eb
                           0000EA   537 _IE_USB	=	0x00ea
                           0000E9   538 _IE_INT3	=	0x00e9
                           0000E8   539 _IE_SPI0	=	0x00e8
                           000087   540 _P0_7	=	0x0087
                           000086   541 _P0_6	=	0x0086
                           000085   542 _P0_5	=	0x0085
                           000084   543 _P0_4	=	0x0084
                           000083   544 _P0_3	=	0x0083
                           000082   545 _P0_2	=	0x0082
                           000081   546 _P0_1	=	0x0081
                           000080   547 _P0_0	=	0x0080
                           000087   548 _TXD3	=	0x0087
                           000087   549 _AIN15	=	0x0087
                           000086   550 _RXD3	=	0x0086
                           000086   551 _AIN14	=	0x0086
                           000085   552 _TXD2	=	0x0085
                           000085   553 _AIN13	=	0x0085
                           000084   554 _RXD2	=	0x0084
                           000084   555 _AIN12	=	0x0084
                           000083   556 _TXD_	=	0x0083
                           000083   557 _AIN11	=	0x0083
                           000082   558 _RXD_	=	0x0082
                           000082   559 _AIN10	=	0x0082
                           000081   560 _AIN9	=	0x0081
                           000080   561 _AIN8	=	0x0080
                           000097   562 _P1_7	=	0x0097
                           000096   563 _P1_6	=	0x0096
                           000095   564 _P1_5	=	0x0095
                           000094   565 _P1_4	=	0x0094
                           000093   566 _P1_3	=	0x0093
                           000092   567 _P1_2	=	0x0092
                           000091   568 _P1_1	=	0x0091
                           000090   569 _P1_0	=	0x0090
                           000097   570 _SCK	=	0x0097
                           000097   571 _TXD1_	=	0x0097
                           000097   572 _AIN7	=	0x0097
                           000096   573 _MISO	=	0x0096
                           000096   574 _RXD1_	=	0x0096
                           000096   575 _VBUS	=	0x0096
                           000096   576 _AIN6	=	0x0096
                           000095   577 _MOSI	=	0x0095
                           000095   578 _PWM0_	=	0x0095
                           000095   579 _UCC2	=	0x0095
                           000095   580 _AIN5	=	0x0095
                           000094   581 _SCS	=	0x0094
                           000094   582 _UCC1	=	0x0094
                           000094   583 _AIN4	=	0x0094
                           000093   584 _AIN3	=	0x0093
                           000092   585 _AIN2	=	0x0092
                           000091   586 _T2EX	=	0x0091
                           000091   587 _CAP2	=	0x0091
                           000091   588 _AIN1	=	0x0091
                           000090   589 _T2	=	0x0090
                           000090   590 _CAP1	=	0x0090
                           000090   591 _AIN0	=	0x0090
                           0000A7   592 _P2_7	=	0x00a7
                           0000A6   593 _P2_6	=	0x00a6
                           0000A5   594 _P2_5	=	0x00a5
                           0000A4   595 _P2_4	=	0x00a4
                           0000A3   596 _P2_3	=	0x00a3
                           0000A2   597 _P2_2	=	0x00a2
                           0000A1   598 _P2_1	=	0x00a1
                           0000A0   599 _P2_0	=	0x00a0
                           0000A7   600 _PWM7	=	0x00a7
                           0000A7   601 _TXD1	=	0x00a7
                           0000A6   602 _PWM6	=	0x00a6
                           0000A6   603 _RXD1	=	0x00a6
                           0000A5   604 _PWM0	=	0x00a5
                           0000A5   605 _T2EX_	=	0x00a5
                           0000A5   606 _CAP2_	=	0x00a5
                           0000A4   607 _PWM1	=	0x00a4
                           0000A4   608 _T2_	=	0x00a4
                           0000A4   609 _CAP1_	=	0x00a4
                           0000A3   610 _PWM2	=	0x00a3
                           0000A2   611 _PWM3	=	0x00a2
                           0000A2   612 _INT0_	=	0x00a2
                           0000A1   613 _PWM4	=	0x00a1
                           0000A0   614 _PWM5	=	0x00a0
                           0000B7   615 _P3_7	=	0x00b7
                           0000B6   616 _P3_6	=	0x00b6
                           0000B5   617 _P3_5	=	0x00b5
                           0000B4   618 _P3_4	=	0x00b4
                           0000B3   619 _P3_3	=	0x00b3
                           0000B2   620 _P3_2	=	0x00b2
                           0000B1   621 _P3_1	=	0x00b1
                           0000B0   622 _P3_0	=	0x00b0
                           0000B7   623 _INT3	=	0x00b7
                           0000B6   624 _CAP0	=	0x00b6
                           0000B5   625 _T1	=	0x00b5
                           0000B4   626 _T0	=	0x00b4
                           0000B3   627 _INT1	=	0x00b3
                           0000B2   628 _INT0	=	0x00b2
                           0000B1   629 _TXD	=	0x00b1
                           0000B0   630 _RXD	=	0x00b0
                           0000C6   631 _P4_6	=	0x00c6
                           0000C5   632 _P4_5	=	0x00c5
                           0000C4   633 _P4_4	=	0x00c4
                           0000C3   634 _P4_3	=	0x00c3
                           0000C2   635 _P4_2	=	0x00c2
                           0000C1   636 _P4_1	=	0x00c1
                           0000C0   637 _P4_0	=	0x00c0
                           0000C7   638 _XO	=	0x00c7
                           0000C6   639 _XI	=	0x00c6
                           00008F   640 _TF1	=	0x008f
                           00008E   641 _TR1	=	0x008e
                           00008D   642 _TF0	=	0x008d
                           00008C   643 _TR0	=	0x008c
                           00008B   644 _IE1	=	0x008b
                           00008A   645 _IT1	=	0x008a
                           000089   646 _IE0	=	0x0089
                           000088   647 _IT0	=	0x0088
                           00009F   648 _SM0	=	0x009f
                           00009E   649 _SM1	=	0x009e
                           00009D   650 _SM2	=	0x009d
                           00009C   651 _REN	=	0x009c
                           00009B   652 _TB8	=	0x009b
                           00009A   653 _RB8	=	0x009a
                           000099   654 _TI	=	0x0099
                           000098   655 _RI	=	0x0098
                           0000CF   656 _TF2	=	0x00cf
                           0000CF   657 _CAP1F	=	0x00cf
                           0000CE   658 _EXF2	=	0x00ce
                           0000CD   659 _RCLK	=	0x00cd
                           0000CC   660 _TCLK	=	0x00cc
                           0000CB   661 _EXEN2	=	0x00cb
                           0000CA   662 _TR2	=	0x00ca
                           0000C9   663 _C_T2	=	0x00c9
                           0000C8   664 _CP_RL2	=	0x00c8
                           0000FF   665 _S0_FST_ACT	=	0x00ff
                           0000FE   666 _S0_IF_OV	=	0x00fe
                           0000FD   667 _S0_IF_FIRST	=	0x00fd
                           0000FC   668 _S0_IF_BYTE	=	0x00fc
                           0000FB   669 _S0_FREE	=	0x00fb
                           0000FA   670 _S0_T_FIFO	=	0x00fa
                           0000F8   671 _S0_R_FIFO	=	0x00f8
                           0000DF   672 _U_IS_NAK	=	0x00df
                           0000DE   673 _U_TOG_OK	=	0x00de
                           0000DD   674 _U_SIE_FREE	=	0x00dd
                           0000DC   675 _UIF_FIFO_OV	=	0x00dc
                           0000DB   676 _UIF_HST_SOF	=	0x00db
                           0000DA   677 _UIF_SUSPEND	=	0x00da
                           0000D9   678 _UIF_TRANSFER	=	0x00d9
                           0000D8   679 _UIF_DETECT	=	0x00d8
                           0000D8   680 _UIF_BUS_RST	=	0x00d8
                                    681 ;--------------------------------------------------------
                                    682 ; overlayable register banks
                                    683 ;--------------------------------------------------------
                                    684 	.area REG_BANK_0	(REL,OVR,DATA)
      000000                        685 	.ds 8
                                    686 ;--------------------------------------------------------
                                    687 ; internal ram data
                                    688 ;--------------------------------------------------------
                                    689 	.area DSEG    (DATA)
      00000C                        690 _fontSize::
      00000C                        691 	.ds 1
      00000D                        692 _OLED_WR_Byte_PARM_2:
      00000D                        693 	.ds 1
      00000E                        694 _load_commandList_PARM_2:
      00000E                        695 	.ds 1
      00000F                        696 _OLED_Set_Pos_PARM_2:
      00000F                        697 	.ds 1
      000010                        698 _OLED_ShowChar_PARM_2:
      000010                        699 	.ds 1
      000011                        700 _OLED_ShowChar_PARM_3:
      000011                        701 	.ds 1
      000012                        702 _OLED_ShowString_PARM_2:
      000012                        703 	.ds 1
      000013                        704 _OLED_ShowString_PARM_3:
      000013                        705 	.ds 3
      000016                        706 _OLED_ShowCHinese_PARM_2:
      000016                        707 	.ds 1
      000017                        708 _OLED_ShowCHinese_PARM_3:
      000017                        709 	.ds 1
      000018                        710 _OLED_DrawBMP_PARM_2:
      000018                        711 	.ds 1
      000019                        712 _OLED_DrawBMP_PARM_3:
      000019                        713 	.ds 1
      00001A                        714 _OLED_DrawBMP_PARM_4:
      00001A                        715 	.ds 1
      00001B                        716 _OLED_DrawBMP_PARM_5:
      00001B                        717 	.ds 3
      00001E                        718 _OLED_DrawBMP_x0_65536_103:
      00001E                        719 	.ds 1
      00001F                        720 _OLED_DrawBMP_x_65536_104:
      00001F                        721 	.ds 1
                                    722 ;--------------------------------------------------------
                                    723 ; overlayable items in internal ram 
                                    724 ;--------------------------------------------------------
                                    725 	.area	OSEG    (OVR,DATA)
                                    726 	.area	OSEG    (OVR,DATA)
                                    727 ;--------------------------------------------------------
                                    728 ; indirectly addressable internal ram data
                                    729 ;--------------------------------------------------------
                                    730 	.area ISEG    (DATA)
                                    731 ;--------------------------------------------------------
                                    732 ; absolute internal ram data
                                    733 ;--------------------------------------------------------
                                    734 	.area IABS    (ABS,DATA)
                                    735 	.area IABS    (ABS,DATA)
                                    736 ;--------------------------------------------------------
                                    737 ; bit data
                                    738 ;--------------------------------------------------------
                                    739 	.area BSEG    (BIT)
                                    740 ;--------------------------------------------------------
                                    741 ; paged external ram data
                                    742 ;--------------------------------------------------------
                                    743 	.area PSEG    (PAG,XDATA)
                                    744 ;--------------------------------------------------------
                                    745 ; external ram data
                                    746 ;--------------------------------------------------------
                                    747 	.area XSEG    (XDATA)
                                    748 ;--------------------------------------------------------
                                    749 ; absolute external ram data
                                    750 ;--------------------------------------------------------
                                    751 	.area XABS    (ABS,XDATA)
                                    752 ;--------------------------------------------------------
                                    753 ; external initialized ram data
                                    754 ;--------------------------------------------------------
                                    755 	.area XISEG   (XDATA)
                                    756 	.area HOME    (CODE)
                                    757 	.area GSINIT0 (CODE)
                                    758 	.area GSINIT1 (CODE)
                                    759 	.area GSINIT2 (CODE)
                                    760 	.area GSINIT3 (CODE)
                                    761 	.area GSINIT4 (CODE)
                                    762 	.area GSINIT5 (CODE)
                                    763 	.area GSINIT  (CODE)
                                    764 	.area GSFINAL (CODE)
                                    765 	.area CSEG    (CODE)
                                    766 ;--------------------------------------------------------
                                    767 ; global & static initialisations
                                    768 ;--------------------------------------------------------
                                    769 	.area HOME    (CODE)
                                    770 	.area GSINIT  (CODE)
                                    771 	.area GSFINAL (CODE)
                                    772 	.area GSINIT  (CODE)
                                    773 ;--------------------------------------------------------
                                    774 ; Home
                                    775 ;--------------------------------------------------------
                                    776 	.area HOME    (CODE)
                                    777 	.area HOME    (CODE)
                                    778 ;--------------------------------------------------------
                                    779 ; code
                                    780 ;--------------------------------------------------------
                                    781 	.area CSEG    (CODE)
                                    782 ;------------------------------------------------------------
                                    783 ;Allocation info for local variables in function 'setFontSize'
                                    784 ;------------------------------------------------------------
                                    785 ;size                      Allocated to registers 
                                    786 ;------------------------------------------------------------
                                    787 ;	source/CH549_OLED.c:18: void setFontSize(u8 size){
                                    788 ;	-----------------------------------------
                                    789 ;	 function setFontSize
                                    790 ;	-----------------------------------------
      00017F                        791 _setFontSize:
                           000007   792 	ar7 = 0x07
                           000006   793 	ar6 = 0x06
                           000005   794 	ar5 = 0x05
                           000004   795 	ar4 = 0x04
                           000003   796 	ar3 = 0x03
                           000002   797 	ar2 = 0x02
                           000001   798 	ar1 = 0x01
                           000000   799 	ar0 = 0x00
      00017F 85 82 0C         [24]  800 	mov	_fontSize,dpl
                                    801 ;	source/CH549_OLED.c:19: fontSize = size;
                                    802 ;	source/CH549_OLED.c:20: }
      000182 22               [24]  803 	ret
                                    804 ;------------------------------------------------------------
                                    805 ;Allocation info for local variables in function 'delay_ms'
                                    806 ;------------------------------------------------------------
                                    807 ;ms                        Allocated to registers 
                                    808 ;a                         Allocated to registers r4 r5 
                                    809 ;------------------------------------------------------------
                                    810 ;	source/CH549_OLED.c:23: void delay_ms(unsigned int ms)
                                    811 ;	-----------------------------------------
                                    812 ;	 function delay_ms
                                    813 ;	-----------------------------------------
      000183                        814 _delay_ms:
      000183 AE 82            [24]  815 	mov	r6,dpl
      000185 AF 83            [24]  816 	mov	r7,dph
                                    817 ;	source/CH549_OLED.c:26: while(ms)
      000187                        818 00104$:
      000187 EE               [12]  819 	mov	a,r6
      000188 4F               [12]  820 	orl	a,r7
      000189 60 18            [24]  821 	jz	00106$
                                    822 ;	source/CH549_OLED.c:29: while(a--);
      00018B 7C 08            [12]  823 	mov	r4,#0x08
      00018D 7D 07            [12]  824 	mov	r5,#0x07
      00018F                        825 00101$:
      00018F 8C 02            [24]  826 	mov	ar2,r4
      000191 8D 03            [24]  827 	mov	ar3,r5
      000193 1C               [12]  828 	dec	r4
      000194 BC FF 01         [24]  829 	cjne	r4,#0xff,00128$
      000197 1D               [12]  830 	dec	r5
      000198                        831 00128$:
      000198 EA               [12]  832 	mov	a,r2
      000199 4B               [12]  833 	orl	a,r3
      00019A 70 F3            [24]  834 	jnz	00101$
                                    835 ;	source/CH549_OLED.c:30: ms--;
      00019C 1E               [12]  836 	dec	r6
      00019D BE FF 01         [24]  837 	cjne	r6,#0xff,00130$
      0001A0 1F               [12]  838 	dec	r7
      0001A1                        839 00130$:
      0001A1 80 E4            [24]  840 	sjmp	00104$
      0001A3                        841 00106$:
                                    842 ;	source/CH549_OLED.c:32: return;
                                    843 ;	source/CH549_OLED.c:33: }
      0001A3 22               [24]  844 	ret
                                    845 ;------------------------------------------------------------
                                    846 ;Allocation info for local variables in function 'OLED_WR_Byte'
                                    847 ;------------------------------------------------------------
                                    848 ;cmd                       Allocated with name '_OLED_WR_Byte_PARM_2'
                                    849 ;dat                       Allocated to registers r7 
                                    850 ;------------------------------------------------------------
                                    851 ;	source/CH549_OLED.c:39: void OLED_WR_Byte(u8 dat,u8 cmd)
                                    852 ;	-----------------------------------------
                                    853 ;	 function OLED_WR_Byte
                                    854 ;	-----------------------------------------
      0001A4                        855 _OLED_WR_Byte:
      0001A4 AF 82            [24]  856 	mov	r7,dpl
                                    857 ;	source/CH549_OLED.c:42: if(cmd)	OLED_MODE_DATA(); 	//命令模式
      0001A6 E5 0D            [12]  858 	mov	a,_OLED_WR_Byte_PARM_2
      0001A8 60 04            [24]  859 	jz	00102$
                                    860 ;	assignBit
      0001AA D2 A7            [12]  861 	setb	_P2_7
      0001AC 80 02            [24]  862 	sjmp	00103$
      0001AE                        863 00102$:
                                    864 ;	source/CH549_OLED.c:43: else 	OLED_MODE_COMMAND(); 	//数据模式
                                    865 ;	assignBit
      0001AE C2 A7            [12]  866 	clr	_P2_7
      0001B0                        867 00103$:
                                    868 ;	source/CH549_OLED.c:44: OLED_SELECT();			    //片选设置为0,设备选择
                                    869 ;	assignBit
      0001B0 C2 94            [12]  870 	clr	_P1_4
                                    871 ;	source/CH549_OLED.c:45: CH549SPIMasterWrite(dat);       //使用CH549的官方函数写入8位数据
      0001B2 8F 82            [24]  872 	mov	dpl,r7
      0001B4 12 06 16         [24]  873 	lcall	_CH549SPIMasterWrite
                                    874 ;	source/CH549_OLED.c:46: OLED_DESELECT();			    //片选设置为1,取消设备选择
                                    875 ;	assignBit
      0001B7 D2 94            [12]  876 	setb	_P1_4
                                    877 ;	source/CH549_OLED.c:47: OLED_MODE_DATA();   	  	    //转为数据模式
                                    878 ;	assignBit
      0001B9 D2 A7            [12]  879 	setb	_P2_7
                                    880 ;	source/CH549_OLED.c:60: } 
      0001BB 22               [24]  881 	ret
                                    882 ;------------------------------------------------------------
                                    883 ;Allocation info for local variables in function 'load_one_command'
                                    884 ;------------------------------------------------------------
                                    885 ;c                         Allocated to registers 
                                    886 ;------------------------------------------------------------
                                    887 ;	source/CH549_OLED.c:62: void load_one_command(u8 c){
                                    888 ;	-----------------------------------------
                                    889 ;	 function load_one_command
                                    890 ;	-----------------------------------------
      0001BC                        891 _load_one_command:
                                    892 ;	source/CH549_OLED.c:63: OLED_WR_Byte(c,OLED_CMD);
      0001BC 75 0D 00         [24]  893 	mov	_OLED_WR_Byte_PARM_2,#0x00
                                    894 ;	source/CH549_OLED.c:64: }
      0001BF 02 01 A4         [24]  895 	ljmp	_OLED_WR_Byte
                                    896 ;------------------------------------------------------------
                                    897 ;Allocation info for local variables in function 'load_commandList'
                                    898 ;------------------------------------------------------------
                                    899 ;n                         Allocated with name '_load_commandList_PARM_2'
                                    900 ;c                         Allocated to registers 
                                    901 ;------------------------------------------------------------
                                    902 ;	source/CH549_OLED.c:66: void load_commandList(const u8 *c, u8 n){
                                    903 ;	-----------------------------------------
                                    904 ;	 function load_commandList
                                    905 ;	-----------------------------------------
      0001C2                        906 _load_commandList:
      0001C2 AD 82            [24]  907 	mov	r5,dpl
      0001C4 AE 83            [24]  908 	mov	r6,dph
      0001C6 AF F0            [24]  909 	mov	r7,b
                                    910 ;	source/CH549_OLED.c:67: while (n--) 
      0001C8 AC 0E            [24]  911 	mov	r4,_load_commandList_PARM_2
      0001CA                        912 00101$:
      0001CA 8C 03            [24]  913 	mov	ar3,r4
      0001CC 1C               [12]  914 	dec	r4
      0001CD EB               [12]  915 	mov	a,r3
      0001CE 60 29            [24]  916 	jz	00104$
                                    917 ;	source/CH549_OLED.c:68: OLED_WR_Byte(pgm_read_byte(c++),OLED_CMD);
      0001D0 8D 82            [24]  918 	mov	dpl,r5
      0001D2 8E 83            [24]  919 	mov	dph,r6
      0001D4 8F F0            [24]  920 	mov	b,r7
      0001D6 12 0D 96         [24]  921 	lcall	__gptrget
      0001D9 FB               [12]  922 	mov	r3,a
      0001DA A3               [24]  923 	inc	dptr
      0001DB AD 82            [24]  924 	mov	r5,dpl
      0001DD AE 83            [24]  925 	mov	r6,dph
      0001DF 75 0D 00         [24]  926 	mov	_OLED_WR_Byte_PARM_2,#0x00
      0001E2 8B 82            [24]  927 	mov	dpl,r3
      0001E4 C0 07            [24]  928 	push	ar7
      0001E6 C0 06            [24]  929 	push	ar6
      0001E8 C0 05            [24]  930 	push	ar5
      0001EA C0 04            [24]  931 	push	ar4
      0001EC 12 01 A4         [24]  932 	lcall	_OLED_WR_Byte
      0001EF D0 04            [24]  933 	pop	ar4
      0001F1 D0 05            [24]  934 	pop	ar5
      0001F3 D0 06            [24]  935 	pop	ar6
      0001F5 D0 07            [24]  936 	pop	ar7
      0001F7 80 D1            [24]  937 	sjmp	00101$
      0001F9                        938 00104$:
                                    939 ;	source/CH549_OLED.c:70: }
      0001F9 22               [24]  940 	ret
                                    941 ;------------------------------------------------------------
                                    942 ;Allocation info for local variables in function 'OLED_Init'
                                    943 ;------------------------------------------------------------
                                    944 ;	source/CH549_OLED.c:73: void OLED_Init(void)
                                    945 ;	-----------------------------------------
                                    946 ;	 function OLED_Init
                                    947 ;	-----------------------------------------
      0001FA                        948 _OLED_Init:
                                    949 ;	source/CH549_OLED.c:76: OLED_RST_Set();
                                    950 ;	assignBit
      0001FA D2 B5            [12]  951 	setb	_P3_5
                                    952 ;	source/CH549_OLED.c:77: delay_ms(100);
      0001FC 90 00 64         [24]  953 	mov	dptr,#0x0064
      0001FF 12 01 83         [24]  954 	lcall	_delay_ms
                                    955 ;	source/CH549_OLED.c:78: OLED_RST_Clr();
                                    956 ;	assignBit
      000202 C2 B5            [12]  957 	clr	_P3_5
                                    958 ;	source/CH549_OLED.c:79: delay_ms(100);
      000204 90 00 64         [24]  959 	mov	dptr,#0x0064
      000207 12 01 83         [24]  960 	lcall	_delay_ms
                                    961 ;	source/CH549_OLED.c:80: OLED_RST_Set(); 
                                    962 ;	assignBit
      00020A D2 B5            [12]  963 	setb	_P3_5
                                    964 ;	source/CH549_OLED.c:116: load_commandList(init_commandList, sizeof(init_commandList));
      00020C 75 0E 19         [24]  965 	mov	_load_commandList_PARM_2,#0x19
      00020F 90 27 AB         [24]  966 	mov	dptr,#_OLED_Init_init_commandList_65537_73
      000212 75 F0 80         [24]  967 	mov	b,#0x80
      000215 12 01 C2         [24]  968 	lcall	_load_commandList
                                    969 ;	source/CH549_OLED.c:118: OLED_Clear();
      000218 12 02 48         [24]  970 	lcall	_OLED_Clear
                                    971 ;	source/CH549_OLED.c:119: OLED_Set_Pos(0,0); 	
      00021B 75 0F 00         [24]  972 	mov	_OLED_Set_Pos_PARM_2,#0x00
      00021E 75 82 00         [24]  973 	mov	dpl,#0x00
                                    974 ;	source/CH549_OLED.c:120: }
      000221 02 02 84         [24]  975 	ljmp	_OLED_Set_Pos
                                    976 ;------------------------------------------------------------
                                    977 ;Allocation info for local variables in function 'OLED_Display_On'
                                    978 ;------------------------------------------------------------
                                    979 ;	source/CH549_OLED.c:123: void OLED_Display_On(void)
                                    980 ;	-----------------------------------------
                                    981 ;	 function OLED_Display_On
                                    982 ;	-----------------------------------------
      000224                        983 _OLED_Display_On:
                                    984 ;	source/CH549_OLED.c:125: load_one_command(SSD1306_CHARGEPUMP);	//SET DCDC命令
      000224 75 82 8D         [24]  985 	mov	dpl,#0x8d
      000227 12 01 BC         [24]  986 	lcall	_load_one_command
                                    987 ;	source/CH549_OLED.c:126: load_one_command(SSD1306_0x10DISABLE);	//DCDC ON
      00022A 75 82 14         [24]  988 	mov	dpl,#0x14
      00022D 12 01 BC         [24]  989 	lcall	_load_one_command
                                    990 ;	source/CH549_OLED.c:127: load_one_command(SSD1306_DISPLAYON);	//DISPLAY ON
      000230 75 82 AF         [24]  991 	mov	dpl,#0xaf
                                    992 ;	source/CH549_OLED.c:128: }
      000233 02 01 BC         [24]  993 	ljmp	_load_one_command
                                    994 ;------------------------------------------------------------
                                    995 ;Allocation info for local variables in function 'OLED_Display_Off'
                                    996 ;------------------------------------------------------------
                                    997 ;	source/CH549_OLED.c:131: void OLED_Display_Off(void)
                                    998 ;	-----------------------------------------
                                    999 ;	 function OLED_Display_Off
                                   1000 ;	-----------------------------------------
      000236                       1001 _OLED_Display_Off:
                                   1002 ;	source/CH549_OLED.c:133: load_one_command(SSD1306_CHARGEPUMP);	//SET DCDC命令
      000236 75 82 8D         [24] 1003 	mov	dpl,#0x8d
      000239 12 01 BC         [24] 1004 	lcall	_load_one_command
                                   1005 ;	source/CH549_OLED.c:134: load_one_command(SSD1306_SETHIGHCOLUMN);	//DCDC OFF
      00023C 75 82 10         [24] 1006 	mov	dpl,#0x10
      00023F 12 01 BC         [24] 1007 	lcall	_load_one_command
                                   1008 ;	source/CH549_OLED.c:135: load_one_command(0XAE);	//DISPLAY OFF
      000242 75 82 AE         [24] 1009 	mov	dpl,#0xae
                                   1010 ;	source/CH549_OLED.c:136: }	
      000245 02 01 BC         [24] 1011 	ljmp	_load_one_command
                                   1012 ;------------------------------------------------------------
                                   1013 ;Allocation info for local variables in function 'OLED_Clear'
                                   1014 ;------------------------------------------------------------
                                   1015 ;i                         Allocated to registers r7 
                                   1016 ;n                         Allocated to registers r6 
                                   1017 ;------------------------------------------------------------
                                   1018 ;	source/CH549_OLED.c:139: void OLED_Clear(void)
                                   1019 ;	-----------------------------------------
                                   1020 ;	 function OLED_Clear
                                   1021 ;	-----------------------------------------
      000248                       1022 _OLED_Clear:
                                   1023 ;	source/CH549_OLED.c:142: for(i=0;i<8;i++)  
      000248 7F 00            [12] 1024 	mov	r7,#0x00
      00024A                       1025 00105$:
                                   1026 ;	source/CH549_OLED.c:144: load_one_command(0xb0+i);	//设置页地址（0~7）
      00024A 8F 06            [24] 1027 	mov	ar6,r7
      00024C 74 B0            [12] 1028 	mov	a,#0xb0
      00024E 2E               [12] 1029 	add	a,r6
      00024F F5 82            [12] 1030 	mov	dpl,a
      000251 C0 07            [24] 1031 	push	ar7
      000253 12 01 BC         [24] 1032 	lcall	_load_one_command
                                   1033 ;	source/CH549_OLED.c:145: load_one_command(SSD1306_SETLOWCOLUMN);		//设置显示位置—列低地址
      000256 75 82 00         [24] 1034 	mov	dpl,#0x00
      000259 12 01 BC         [24] 1035 	lcall	_load_one_command
                                   1036 ;	source/CH549_OLED.c:146: load_one_command(SSD1306_SETHIGHCOLUMN);		//设置显示位置—列高地址 
      00025C 75 82 10         [24] 1037 	mov	dpl,#0x10
      00025F 12 01 BC         [24] 1038 	lcall	_load_one_command
      000262 D0 07            [24] 1039 	pop	ar7
                                   1040 ;	source/CH549_OLED.c:148: for(n=0;n<128;n++)OLED_WR_Byte(0,OLED_DATA); 
      000264 7E 00            [12] 1041 	mov	r6,#0x00
      000266                       1042 00103$:
      000266 75 0D 01         [24] 1043 	mov	_OLED_WR_Byte_PARM_2,#0x01
      000269 75 82 00         [24] 1044 	mov	dpl,#0x00
      00026C C0 07            [24] 1045 	push	ar7
      00026E C0 06            [24] 1046 	push	ar6
      000270 12 01 A4         [24] 1047 	lcall	_OLED_WR_Byte
      000273 D0 06            [24] 1048 	pop	ar6
      000275 D0 07            [24] 1049 	pop	ar7
      000277 0E               [12] 1050 	inc	r6
      000278 BE 80 00         [24] 1051 	cjne	r6,#0x80,00123$
      00027B                       1052 00123$:
      00027B 40 E9            [24] 1053 	jc	00103$
                                   1054 ;	source/CH549_OLED.c:142: for(i=0;i<8;i++)  
      00027D 0F               [12] 1055 	inc	r7
      00027E BF 08 00         [24] 1056 	cjne	r7,#0x08,00125$
      000281                       1057 00125$:
      000281 40 C7            [24] 1058 	jc	00105$
                                   1059 ;	source/CH549_OLED.c:150: }
      000283 22               [24] 1060 	ret
                                   1061 ;------------------------------------------------------------
                                   1062 ;Allocation info for local variables in function 'OLED_Set_Pos'
                                   1063 ;------------------------------------------------------------
                                   1064 ;row_index                 Allocated with name '_OLED_Set_Pos_PARM_2'
                                   1065 ;col_index                 Allocated to registers r7 
                                   1066 ;------------------------------------------------------------
                                   1067 ;	source/CH549_OLED.c:157: void OLED_Set_Pos(unsigned char col_index, unsigned char row_index) 
                                   1068 ;	-----------------------------------------
                                   1069 ;	 function OLED_Set_Pos
                                   1070 ;	-----------------------------------------
      000284                       1071 _OLED_Set_Pos:
      000284 AF 82            [24] 1072 	mov	r7,dpl
                                   1073 ;	source/CH549_OLED.c:159: load_one_command(0xb0+row_index);
      000286 AE 0F            [24] 1074 	mov	r6,_OLED_Set_Pos_PARM_2
      000288 74 B0            [12] 1075 	mov	a,#0xb0
      00028A 2E               [12] 1076 	add	a,r6
      00028B F5 82            [12] 1077 	mov	dpl,a
      00028D C0 07            [24] 1078 	push	ar7
      00028F 12 01 BC         [24] 1079 	lcall	_load_one_command
      000292 D0 07            [24] 1080 	pop	ar7
                                   1081 ;	source/CH549_OLED.c:160: load_one_command(((col_index&0xf0)>>4)|SSD1306_SETHIGHCOLUMN);
      000294 8F 05            [24] 1082 	mov	ar5,r7
      000296 53 05 F0         [24] 1083 	anl	ar5,#0xf0
      000299 E4               [12] 1084 	clr	a
      00029A C4               [12] 1085 	swap	a
      00029B CD               [12] 1086 	xch	a,r5
      00029C C4               [12] 1087 	swap	a
      00029D 54 0F            [12] 1088 	anl	a,#0x0f
      00029F 6D               [12] 1089 	xrl	a,r5
      0002A0 CD               [12] 1090 	xch	a,r5
      0002A1 54 0F            [12] 1091 	anl	a,#0x0f
      0002A3 CD               [12] 1092 	xch	a,r5
      0002A4 6D               [12] 1093 	xrl	a,r5
      0002A5 CD               [12] 1094 	xch	a,r5
      0002A6 30 E3 02         [24] 1095 	jnb	acc.3,00103$
      0002A9 44 F0            [12] 1096 	orl	a,#0xf0
      0002AB                       1097 00103$:
      0002AB 74 10            [12] 1098 	mov	a,#0x10
      0002AD 4D               [12] 1099 	orl	a,r5
      0002AE F5 82            [12] 1100 	mov	dpl,a
      0002B0 C0 07            [24] 1101 	push	ar7
      0002B2 12 01 BC         [24] 1102 	lcall	_load_one_command
      0002B5 D0 07            [24] 1103 	pop	ar7
                                   1104 ;	source/CH549_OLED.c:161: load_one_command((col_index&0x0f)|0x01);
      0002B7 74 0F            [12] 1105 	mov	a,#0x0f
      0002B9 5F               [12] 1106 	anl	a,r7
      0002BA 44 01            [12] 1107 	orl	a,#0x01
      0002BC F5 82            [12] 1108 	mov	dpl,a
                                   1109 ;	source/CH549_OLED.c:162: }  
      0002BE 02 01 BC         [24] 1110 	ljmp	_load_one_command
                                   1111 ;------------------------------------------------------------
                                   1112 ;Allocation info for local variables in function 'OLED_ShowChar'
                                   1113 ;------------------------------------------------------------
                                   1114 ;row_index                 Allocated with name '_OLED_ShowChar_PARM_2'
                                   1115 ;chr                       Allocated with name '_OLED_ShowChar_PARM_3'
                                   1116 ;col_index                 Allocated to registers r7 
                                   1117 ;char_index                Allocated to registers r6 
                                   1118 ;i                         Allocated to registers r5 
                                   1119 ;------------------------------------------------------------
                                   1120 ;	source/CH549_OLED.c:167: void OLED_ShowChar(u8 col_index, u8 row_index, u8 chr)
                                   1121 ;	-----------------------------------------
                                   1122 ;	 function OLED_ShowChar
                                   1123 ;	-----------------------------------------
      0002C1                       1124 _OLED_ShowChar:
      0002C1 AF 82            [24] 1125 	mov	r7,dpl
                                   1126 ;	source/CH549_OLED.c:170: char_index = chr - ' ';	//将希望输入的字符的ascii码减去空格的ascii码，得到偏移后的值	因为在ascii码中space之前的字符并不能显示出来，字库里面不会有他们，减去一个空格相当于从空格往后开始数		
      0002C3 E5 11            [12] 1127 	mov	a,_OLED_ShowChar_PARM_3
      0002C5 24 E0            [12] 1128 	add	a,#0xe0
      0002C7 FE               [12] 1129 	mov	r6,a
                                   1130 ;	source/CH549_OLED.c:172: if (col_index > Max_Column - 1) {
      0002C8 EF               [12] 1131 	mov	a,r7
      0002C9 24 80            [12] 1132 	add	a,#0xff - 0x7f
      0002CB 50 09            [24] 1133 	jnc	00102$
                                   1134 ;	source/CH549_OLED.c:173: col_index = 0;
      0002CD 7F 00            [12] 1135 	mov	r7,#0x00
                                   1136 ;	source/CH549_OLED.c:174: row_index = row_index + 2;
      0002CF AD 10            [24] 1137 	mov	r5,_OLED_ShowChar_PARM_2
      0002D1 74 02            [12] 1138 	mov	a,#0x02
      0002D3 2D               [12] 1139 	add	a,r5
      0002D4 F5 10            [12] 1140 	mov	_OLED_ShowChar_PARM_2,a
      0002D6                       1141 00102$:
                                   1142 ;	source/CH549_OLED.c:177: if (fontSize == 16) {
      0002D6 74 10            [12] 1143 	mov	a,#0x10
      0002D8 B5 0C 02         [24] 1144 	cjne	a,_fontSize,00149$
      0002DB 80 03            [24] 1145 	sjmp	00150$
      0002DD                       1146 00149$:
      0002DD 02 03 88         [24] 1147 	ljmp	00107$
      0002E0                       1148 00150$:
                                   1149 ;	source/CH549_OLED.c:178: OLED_Set_Pos(col_index, row_index);	
      0002E0 85 10 0F         [24] 1150 	mov	_OLED_Set_Pos_PARM_2,_OLED_ShowChar_PARM_2
      0002E3 8F 82            [24] 1151 	mov	dpl,r7
      0002E5 C0 07            [24] 1152 	push	ar7
      0002E7 C0 06            [24] 1153 	push	ar6
      0002E9 12 02 84         [24] 1154 	lcall	_OLED_Set_Pos
      0002EC D0 06            [24] 1155 	pop	ar6
      0002EE D0 07            [24] 1156 	pop	ar7
                                   1157 ;	source/CH549_OLED.c:179: for (i = 0; i < 8; i++)
      0002F0 7D 00            [12] 1158 	mov	r5,#0x00
      0002F2                       1159 00109$:
                                   1160 ;	source/CH549_OLED.c:180: OLED_WR_Byte(fontMatrix_8x16[char_index * 16 + i], OLED_DATA); //通过DATA模式写入矩阵数据就是在点亮特定的像素点
      0002F2 8E 03            [24] 1161 	mov	ar3,r6
      0002F4 E4               [12] 1162 	clr	a
      0002F5 C4               [12] 1163 	swap	a
      0002F6 54 F0            [12] 1164 	anl	a,#0xf0
      0002F8 CB               [12] 1165 	xch	a,r3
      0002F9 C4               [12] 1166 	swap	a
      0002FA CB               [12] 1167 	xch	a,r3
      0002FB 6B               [12] 1168 	xrl	a,r3
      0002FC CB               [12] 1169 	xch	a,r3
      0002FD 54 F0            [12] 1170 	anl	a,#0xf0
      0002FF CB               [12] 1171 	xch	a,r3
      000300 6B               [12] 1172 	xrl	a,r3
      000301 FC               [12] 1173 	mov	r4,a
      000302 8D 01            [24] 1174 	mov	ar1,r5
      000304 7A 00            [12] 1175 	mov	r2,#0x00
      000306 E9               [12] 1176 	mov	a,r1
      000307 2B               [12] 1177 	add	a,r3
      000308 F9               [12] 1178 	mov	r1,a
      000309 EA               [12] 1179 	mov	a,r2
      00030A 3C               [12] 1180 	addc	a,r4
      00030B FA               [12] 1181 	mov	r2,a
      00030C E9               [12] 1182 	mov	a,r1
      00030D 24 FB            [12] 1183 	add	a,#_fontMatrix_8x16
      00030F F5 82            [12] 1184 	mov	dpl,a
      000311 EA               [12] 1185 	mov	a,r2
      000312 34 1F            [12] 1186 	addc	a,#(_fontMatrix_8x16 >> 8)
      000314 F5 83            [12] 1187 	mov	dph,a
      000316 E4               [12] 1188 	clr	a
      000317 93               [24] 1189 	movc	a,@a+dptr
      000318 FA               [12] 1190 	mov	r2,a
      000319 75 0D 01         [24] 1191 	mov	_OLED_WR_Byte_PARM_2,#0x01
      00031C 8A 82            [24] 1192 	mov	dpl,r2
      00031E C0 07            [24] 1193 	push	ar7
      000320 C0 06            [24] 1194 	push	ar6
      000322 C0 05            [24] 1195 	push	ar5
      000324 C0 04            [24] 1196 	push	ar4
      000326 C0 03            [24] 1197 	push	ar3
      000328 12 01 A4         [24] 1198 	lcall	_OLED_WR_Byte
      00032B D0 03            [24] 1199 	pop	ar3
      00032D D0 04            [24] 1200 	pop	ar4
      00032F D0 05            [24] 1201 	pop	ar5
      000331 D0 06            [24] 1202 	pop	ar6
      000333 D0 07            [24] 1203 	pop	ar7
                                   1204 ;	source/CH549_OLED.c:179: for (i = 0; i < 8; i++)
      000335 0D               [12] 1205 	inc	r5
      000336 BD 08 00         [24] 1206 	cjne	r5,#0x08,00151$
      000339                       1207 00151$:
      000339 40 B7            [24] 1208 	jc	00109$
                                   1209 ;	source/CH549_OLED.c:181: OLED_Set_Pos(col_index, row_index + 1);
      00033B E5 10            [12] 1210 	mov	a,_OLED_ShowChar_PARM_2
      00033D 04               [12] 1211 	inc	a
      00033E F5 0F            [12] 1212 	mov	_OLED_Set_Pos_PARM_2,a
      000340 8F 82            [24] 1213 	mov	dpl,r7
      000342 C0 04            [24] 1214 	push	ar4
      000344 C0 03            [24] 1215 	push	ar3
      000346 12 02 84         [24] 1216 	lcall	_OLED_Set_Pos
      000349 D0 03            [24] 1217 	pop	ar3
      00034B D0 04            [24] 1218 	pop	ar4
                                   1219 ;	source/CH549_OLED.c:182: for (i = 0; i < 8; i++)
      00034D 7D 00            [12] 1220 	mov	r5,#0x00
      00034F                       1221 00111$:
                                   1222 ;	source/CH549_OLED.c:183: OLED_WR_Byte(fontMatrix_8x16[char_index * 16 + i + 8], OLED_DATA);
      00034F 8D 01            [24] 1223 	mov	ar1,r5
      000351 7A 00            [12] 1224 	mov	r2,#0x00
      000353 E9               [12] 1225 	mov	a,r1
      000354 2B               [12] 1226 	add	a,r3
      000355 F9               [12] 1227 	mov	r1,a
      000356 EA               [12] 1228 	mov	a,r2
      000357 3C               [12] 1229 	addc	a,r4
      000358 FA               [12] 1230 	mov	r2,a
      000359 74 08            [12] 1231 	mov	a,#0x08
      00035B 29               [12] 1232 	add	a,r1
      00035C F9               [12] 1233 	mov	r1,a
      00035D E4               [12] 1234 	clr	a
      00035E 3A               [12] 1235 	addc	a,r2
      00035F FA               [12] 1236 	mov	r2,a
      000360 E9               [12] 1237 	mov	a,r1
      000361 24 FB            [12] 1238 	add	a,#_fontMatrix_8x16
      000363 F5 82            [12] 1239 	mov	dpl,a
      000365 EA               [12] 1240 	mov	a,r2
      000366 34 1F            [12] 1241 	addc	a,#(_fontMatrix_8x16 >> 8)
      000368 F5 83            [12] 1242 	mov	dph,a
      00036A E4               [12] 1243 	clr	a
      00036B 93               [24] 1244 	movc	a,@a+dptr
      00036C FA               [12] 1245 	mov	r2,a
      00036D 75 0D 01         [24] 1246 	mov	_OLED_WR_Byte_PARM_2,#0x01
      000370 8A 82            [24] 1247 	mov	dpl,r2
      000372 C0 05            [24] 1248 	push	ar5
      000374 C0 04            [24] 1249 	push	ar4
      000376 C0 03            [24] 1250 	push	ar3
      000378 12 01 A4         [24] 1251 	lcall	_OLED_WR_Byte
      00037B D0 03            [24] 1252 	pop	ar3
      00037D D0 04            [24] 1253 	pop	ar4
      00037F D0 05            [24] 1254 	pop	ar5
                                   1255 ;	source/CH549_OLED.c:182: for (i = 0; i < 8; i++)
      000381 0D               [12] 1256 	inc	r5
      000382 BD 08 00         [24] 1257 	cjne	r5,#0x08,00153$
      000385                       1258 00153$:
      000385 40 C8            [24] 1259 	jc	00111$
      000387 22               [24] 1260 	ret
      000388                       1261 00107$:
                                   1262 ;	source/CH549_OLED.c:187: OLED_Set_Pos(col_index, row_index + 1);
      000388 E5 10            [12] 1263 	mov	a,_OLED_ShowChar_PARM_2
      00038A 04               [12] 1264 	inc	a
      00038B F5 0F            [12] 1265 	mov	_OLED_Set_Pos_PARM_2,a
      00038D 8F 82            [24] 1266 	mov	dpl,r7
      00038F C0 06            [24] 1267 	push	ar6
      000391 12 02 84         [24] 1268 	lcall	_OLED_Set_Pos
      000394 D0 06            [24] 1269 	pop	ar6
                                   1270 ;	source/CH549_OLED.c:188: for (i = 0; i < 6; i++)
      000396 EE               [12] 1271 	mov	a,r6
      000397 75 F0 06         [24] 1272 	mov	b,#0x06
      00039A A4               [48] 1273 	mul	ab
      00039B 24 D3            [12] 1274 	add	a,#_fontMatrix_6x8
      00039D FE               [12] 1275 	mov	r6,a
      00039E 74 1D            [12] 1276 	mov	a,#(_fontMatrix_6x8 >> 8)
      0003A0 35 F0            [12] 1277 	addc	a,b
      0003A2 FF               [12] 1278 	mov	r7,a
      0003A3 7D 00            [12] 1279 	mov	r5,#0x00
      0003A5                       1280 00113$:
                                   1281 ;	source/CH549_OLED.c:189: OLED_WR_Byte(fontMatrix_6x8[char_index][i], OLED_DATA);	
      0003A5 ED               [12] 1282 	mov	a,r5
      0003A6 2E               [12] 1283 	add	a,r6
      0003A7 F5 82            [12] 1284 	mov	dpl,a
      0003A9 E4               [12] 1285 	clr	a
      0003AA 3F               [12] 1286 	addc	a,r7
      0003AB F5 83            [12] 1287 	mov	dph,a
      0003AD E4               [12] 1288 	clr	a
      0003AE 93               [24] 1289 	movc	a,@a+dptr
      0003AF FC               [12] 1290 	mov	r4,a
      0003B0 75 0D 01         [24] 1291 	mov	_OLED_WR_Byte_PARM_2,#0x01
      0003B3 8C 82            [24] 1292 	mov	dpl,r4
      0003B5 C0 07            [24] 1293 	push	ar7
      0003B7 C0 06            [24] 1294 	push	ar6
      0003B9 C0 05            [24] 1295 	push	ar5
      0003BB 12 01 A4         [24] 1296 	lcall	_OLED_WR_Byte
      0003BE D0 05            [24] 1297 	pop	ar5
      0003C0 D0 06            [24] 1298 	pop	ar6
      0003C2 D0 07            [24] 1299 	pop	ar7
                                   1300 ;	source/CH549_OLED.c:188: for (i = 0; i < 6; i++)
      0003C4 0D               [12] 1301 	inc	r5
      0003C5 BD 06 00         [24] 1302 	cjne	r5,#0x06,00155$
      0003C8                       1303 00155$:
      0003C8 40 DB            [24] 1304 	jc	00113$
                                   1305 ;	source/CH549_OLED.c:191: }
      0003CA 22               [24] 1306 	ret
                                   1307 ;------------------------------------------------------------
                                   1308 ;Allocation info for local variables in function 'OLED_ShowString'
                                   1309 ;------------------------------------------------------------
                                   1310 ;row_index                 Allocated with name '_OLED_ShowString_PARM_2'
                                   1311 ;chr                       Allocated with name '_OLED_ShowString_PARM_3'
                                   1312 ;col_index                 Allocated to registers r7 
                                   1313 ;j                         Allocated to registers r6 
                                   1314 ;------------------------------------------------------------
                                   1315 ;	source/CH549_OLED.c:193: void OLED_ShowString(u8 col_index, u8 row_index, u8 *chr)
                                   1316 ;	-----------------------------------------
                                   1317 ;	 function OLED_ShowString
                                   1318 ;	-----------------------------------------
      0003CB                       1319 _OLED_ShowString:
      0003CB AF 82            [24] 1320 	mov	r7,dpl
                                   1321 ;	source/CH549_OLED.c:196: while (chr[j]!='\0')
      0003CD 7E 00            [12] 1322 	mov	r6,#0x00
      0003CF                       1323 00103$:
      0003CF EE               [12] 1324 	mov	a,r6
      0003D0 25 13            [12] 1325 	add	a,_OLED_ShowString_PARM_3
      0003D2 FB               [12] 1326 	mov	r3,a
      0003D3 E4               [12] 1327 	clr	a
      0003D4 35 14            [12] 1328 	addc	a,(_OLED_ShowString_PARM_3 + 1)
      0003D6 FC               [12] 1329 	mov	r4,a
      0003D7 AD 15            [24] 1330 	mov	r5,(_OLED_ShowString_PARM_3 + 2)
      0003D9 8B 82            [24] 1331 	mov	dpl,r3
      0003DB 8C 83            [24] 1332 	mov	dph,r4
      0003DD 8D F0            [24] 1333 	mov	b,r5
      0003DF 12 0D 96         [24] 1334 	lcall	__gptrget
      0003E2 FD               [12] 1335 	mov	r5,a
      0003E3 60 28            [24] 1336 	jz	00106$
                                   1337 ;	source/CH549_OLED.c:197: {		OLED_ShowChar(col_index,row_index,chr[j]);
      0003E5 85 12 10         [24] 1338 	mov	_OLED_ShowChar_PARM_2,_OLED_ShowString_PARM_2
      0003E8 8D 11            [24] 1339 	mov	_OLED_ShowChar_PARM_3,r5
      0003EA 8F 82            [24] 1340 	mov	dpl,r7
      0003EC C0 07            [24] 1341 	push	ar7
      0003EE C0 06            [24] 1342 	push	ar6
      0003F0 12 02 C1         [24] 1343 	lcall	_OLED_ShowChar
      0003F3 D0 06            [24] 1344 	pop	ar6
      0003F5 D0 07            [24] 1345 	pop	ar7
                                   1346 ;	source/CH549_OLED.c:198: col_index+=8;
      0003F7 8F 05            [24] 1347 	mov	ar5,r7
      0003F9 74 08            [12] 1348 	mov	a,#0x08
      0003FB 2D               [12] 1349 	add	a,r5
                                   1350 ;	source/CH549_OLED.c:199: if (col_index>120){col_index=0;row_index+=2;}
      0003FC FF               [12] 1351 	mov  r7,a
      0003FD 24 87            [12] 1352 	add	a,#0xff - 0x78
      0003FF 50 09            [24] 1353 	jnc	00102$
      000401 7F 00            [12] 1354 	mov	r7,#0x00
      000403 AD 12            [24] 1355 	mov	r5,_OLED_ShowString_PARM_2
      000405 74 02            [12] 1356 	mov	a,#0x02
      000407 2D               [12] 1357 	add	a,r5
      000408 F5 12            [12] 1358 	mov	_OLED_ShowString_PARM_2,a
      00040A                       1359 00102$:
                                   1360 ;	source/CH549_OLED.c:200: j++;
      00040A 0E               [12] 1361 	inc	r6
      00040B 80 C2            [24] 1362 	sjmp	00103$
      00040D                       1363 00106$:
                                   1364 ;	source/CH549_OLED.c:202: }
      00040D 22               [24] 1365 	ret
                                   1366 ;------------------------------------------------------------
                                   1367 ;Allocation info for local variables in function 'OLED_ShowCHinese'
                                   1368 ;------------------------------------------------------------
                                   1369 ;row_index                 Allocated with name '_OLED_ShowCHinese_PARM_2'
                                   1370 ;no                        Allocated with name '_OLED_ShowCHinese_PARM_3'
                                   1371 ;col_index                 Allocated to registers r7 
                                   1372 ;t                         Allocated to registers r5 
                                   1373 ;adder                     Allocated to registers r6 
                                   1374 ;------------------------------------------------------------
                                   1375 ;	source/CH549_OLED.c:206: void OLED_ShowCHinese(u8 col_index, u8 row_index, u8 no)
                                   1376 ;	-----------------------------------------
                                   1377 ;	 function OLED_ShowCHinese
                                   1378 ;	-----------------------------------------
      00040E                       1379 _OLED_ShowCHinese:
      00040E AF 82            [24] 1380 	mov	r7,dpl
                                   1381 ;	source/CH549_OLED.c:208: u8 t,adder=0;
      000410 7E 00            [12] 1382 	mov	r6,#0x00
                                   1383 ;	source/CH549_OLED.c:209: OLED_Set_Pos(col_index,row_index);	
      000412 85 16 0F         [24] 1384 	mov	_OLED_Set_Pos_PARM_2,_OLED_ShowCHinese_PARM_2
      000415 8F 82            [24] 1385 	mov	dpl,r7
      000417 C0 07            [24] 1386 	push	ar7
      000419 C0 06            [24] 1387 	push	ar6
      00041B 12 02 84         [24] 1388 	lcall	_OLED_Set_Pos
      00041E D0 06            [24] 1389 	pop	ar6
      000420 D0 07            [24] 1390 	pop	ar7
                                   1391 ;	source/CH549_OLED.c:210: for(t=0;t<16;t++)
      000422 7D 00            [12] 1392 	mov	r5,#0x00
      000424                       1393 00103$:
                                   1394 ;	source/CH549_OLED.c:212: OLED_WR_Byte(Hzk[2*no][t],OLED_DATA);
      000424 AB 17            [24] 1395 	mov	r3,_OLED_ShowCHinese_PARM_3
      000426 7C 00            [12] 1396 	mov	r4,#0x00
      000428 EB               [12] 1397 	mov	a,r3
      000429 2B               [12] 1398 	add	a,r3
      00042A FB               [12] 1399 	mov	r3,a
      00042B EC               [12] 1400 	mov	a,r4
      00042C 33               [12] 1401 	rlc	a
      00042D FC               [12] 1402 	mov	r4,a
      00042E 8B 01            [24] 1403 	mov	ar1,r3
      000430 C4               [12] 1404 	swap	a
      000431 23               [12] 1405 	rl	a
      000432 54 E0            [12] 1406 	anl	a,#0xe0
      000434 C9               [12] 1407 	xch	a,r1
      000435 C4               [12] 1408 	swap	a
      000436 23               [12] 1409 	rl	a
      000437 C9               [12] 1410 	xch	a,r1
      000438 69               [12] 1411 	xrl	a,r1
      000439 C9               [12] 1412 	xch	a,r1
      00043A 54 E0            [12] 1413 	anl	a,#0xe0
      00043C C9               [12] 1414 	xch	a,r1
      00043D 69               [12] 1415 	xrl	a,r1
      00043E FA               [12] 1416 	mov	r2,a
      00043F E9               [12] 1417 	mov	a,r1
      000440 24 EB            [12] 1418 	add	a,#_Hzk
      000442 F9               [12] 1419 	mov	r1,a
      000443 EA               [12] 1420 	mov	a,r2
      000444 34 25            [12] 1421 	addc	a,#(_Hzk >> 8)
      000446 FA               [12] 1422 	mov	r2,a
      000447 ED               [12] 1423 	mov	a,r5
      000448 29               [12] 1424 	add	a,r1
      000449 F5 82            [12] 1425 	mov	dpl,a
      00044B E4               [12] 1426 	clr	a
      00044C 3A               [12] 1427 	addc	a,r2
      00044D F5 83            [12] 1428 	mov	dph,a
      00044F E4               [12] 1429 	clr	a
      000450 93               [24] 1430 	movc	a,@a+dptr
      000451 FA               [12] 1431 	mov	r2,a
      000452 75 0D 01         [24] 1432 	mov	_OLED_WR_Byte_PARM_2,#0x01
      000455 8A 82            [24] 1433 	mov	dpl,r2
      000457 C0 07            [24] 1434 	push	ar7
      000459 C0 06            [24] 1435 	push	ar6
      00045B C0 05            [24] 1436 	push	ar5
      00045D C0 04            [24] 1437 	push	ar4
      00045F C0 03            [24] 1438 	push	ar3
      000461 12 01 A4         [24] 1439 	lcall	_OLED_WR_Byte
      000464 D0 03            [24] 1440 	pop	ar3
      000466 D0 04            [24] 1441 	pop	ar4
      000468 D0 05            [24] 1442 	pop	ar5
      00046A D0 06            [24] 1443 	pop	ar6
      00046C D0 07            [24] 1444 	pop	ar7
                                   1445 ;	source/CH549_OLED.c:213: adder+=1;
      00046E 8E 02            [24] 1446 	mov	ar2,r6
      000470 EA               [12] 1447 	mov	a,r2
      000471 04               [12] 1448 	inc	a
      000472 FE               [12] 1449 	mov	r6,a
                                   1450 ;	source/CH549_OLED.c:210: for(t=0;t<16;t++)
      000473 0D               [12] 1451 	inc	r5
      000474 BD 10 00         [24] 1452 	cjne	r5,#0x10,00123$
      000477                       1453 00123$:
      000477 40 AB            [24] 1454 	jc	00103$
                                   1455 ;	source/CH549_OLED.c:215: OLED_Set_Pos(col_index,row_index+1);	
      000479 E5 16            [12] 1456 	mov	a,_OLED_ShowCHinese_PARM_2
      00047B 04               [12] 1457 	inc	a
      00047C F5 0F            [12] 1458 	mov	_OLED_Set_Pos_PARM_2,a
      00047E 8F 82            [24] 1459 	mov	dpl,r7
      000480 C0 06            [24] 1460 	push	ar6
      000482 C0 04            [24] 1461 	push	ar4
      000484 C0 03            [24] 1462 	push	ar3
      000486 12 02 84         [24] 1463 	lcall	_OLED_Set_Pos
      000489 D0 03            [24] 1464 	pop	ar3
      00048B D0 04            [24] 1465 	pop	ar4
      00048D D0 06            [24] 1466 	pop	ar6
                                   1467 ;	source/CH549_OLED.c:216: for(t=0;t<16;t++)
      00048F 0B               [12] 1468 	inc	r3
      000490 BB 00 01         [24] 1469 	cjne	r3,#0x00,00125$
      000493 0C               [12] 1470 	inc	r4
      000494                       1471 00125$:
      000494 EC               [12] 1472 	mov	a,r4
      000495 C4               [12] 1473 	swap	a
      000496 23               [12] 1474 	rl	a
      000497 54 E0            [12] 1475 	anl	a,#0xe0
      000499 CB               [12] 1476 	xch	a,r3
      00049A C4               [12] 1477 	swap	a
      00049B 23               [12] 1478 	rl	a
      00049C CB               [12] 1479 	xch	a,r3
      00049D 6B               [12] 1480 	xrl	a,r3
      00049E CB               [12] 1481 	xch	a,r3
      00049F 54 E0            [12] 1482 	anl	a,#0xe0
      0004A1 CB               [12] 1483 	xch	a,r3
      0004A2 6B               [12] 1484 	xrl	a,r3
      0004A3 FC               [12] 1485 	mov	r4,a
      0004A4 EB               [12] 1486 	mov	a,r3
      0004A5 24 EB            [12] 1487 	add	a,#_Hzk
      0004A7 FD               [12] 1488 	mov	r5,a
      0004A8 EC               [12] 1489 	mov	a,r4
      0004A9 34 25            [12] 1490 	addc	a,#(_Hzk >> 8)
      0004AB FF               [12] 1491 	mov	r7,a
      0004AC 7C 00            [12] 1492 	mov	r4,#0x00
      0004AE                       1493 00105$:
                                   1494 ;	source/CH549_OLED.c:218: OLED_WR_Byte(Hzk[2*no+1][t],OLED_DATA);
      0004AE EC               [12] 1495 	mov	a,r4
      0004AF 2D               [12] 1496 	add	a,r5
      0004B0 F5 82            [12] 1497 	mov	dpl,a
      0004B2 E4               [12] 1498 	clr	a
      0004B3 3F               [12] 1499 	addc	a,r7
      0004B4 F5 83            [12] 1500 	mov	dph,a
      0004B6 E4               [12] 1501 	clr	a
      0004B7 93               [24] 1502 	movc	a,@a+dptr
      0004B8 FB               [12] 1503 	mov	r3,a
      0004B9 75 0D 01         [24] 1504 	mov	_OLED_WR_Byte_PARM_2,#0x01
      0004BC 8B 82            [24] 1505 	mov	dpl,r3
      0004BE C0 07            [24] 1506 	push	ar7
      0004C0 C0 06            [24] 1507 	push	ar6
      0004C2 C0 05            [24] 1508 	push	ar5
      0004C4 C0 04            [24] 1509 	push	ar4
      0004C6 12 01 A4         [24] 1510 	lcall	_OLED_WR_Byte
      0004C9 D0 04            [24] 1511 	pop	ar4
      0004CB D0 05            [24] 1512 	pop	ar5
      0004CD D0 06            [24] 1513 	pop	ar6
      0004CF D0 07            [24] 1514 	pop	ar7
                                   1515 ;	source/CH549_OLED.c:219: adder+=1;
      0004D1 8E 03            [24] 1516 	mov	ar3,r6
      0004D3 EB               [12] 1517 	mov	a,r3
      0004D4 04               [12] 1518 	inc	a
      0004D5 FE               [12] 1519 	mov	r6,a
                                   1520 ;	source/CH549_OLED.c:216: for(t=0;t<16;t++)
      0004D6 0C               [12] 1521 	inc	r4
      0004D7 BC 10 00         [24] 1522 	cjne	r4,#0x10,00126$
      0004DA                       1523 00126$:
      0004DA 40 D2            [24] 1524 	jc	00105$
                                   1525 ;	source/CH549_OLED.c:221: }
      0004DC 22               [24] 1526 	ret
                                   1527 ;------------------------------------------------------------
                                   1528 ;Allocation info for local variables in function 'OLED_DrawBMP'
                                   1529 ;------------------------------------------------------------
                                   1530 ;y0                        Allocated with name '_OLED_DrawBMP_PARM_2'
                                   1531 ;x1                        Allocated with name '_OLED_DrawBMP_PARM_3'
                                   1532 ;y1                        Allocated with name '_OLED_DrawBMP_PARM_4'
                                   1533 ;BMP                       Allocated with name '_OLED_DrawBMP_PARM_5'
                                   1534 ;x0                        Allocated with name '_OLED_DrawBMP_x0_65536_103'
                                   1535 ;j                         Allocated to registers r5 r6 
                                   1536 ;x                         Allocated with name '_OLED_DrawBMP_x_65536_104'
                                   1537 ;y                         Allocated to registers 
                                   1538 ;------------------------------------------------------------
                                   1539 ;	source/CH549_OLED.c:227: void OLED_DrawBMP(unsigned char x0, unsigned char y0,unsigned char x1, unsigned char y1,unsigned char BMP[])
                                   1540 ;	-----------------------------------------
                                   1541 ;	 function OLED_DrawBMP
                                   1542 ;	-----------------------------------------
      0004DD                       1543 _OLED_DrawBMP:
      0004DD 85 82 1E         [24] 1544 	mov	_OLED_DrawBMP_x0_65536_103,dpl
                                   1545 ;	source/CH549_OLED.c:231: unsigned int j = 0;
      0004E0 7D 00            [12] 1546 	mov	r5,#0x00
      0004E2 7E 00            [12] 1547 	mov	r6,#0x00
                                   1548 ;	source/CH549_OLED.c:234: for(y = y0; y < y1; y++)	//这里的y和x是对二维数组行和列的两次for循环，遍历整个二维数组，并把每一位数据传给OLED
      0004E4 AC 18            [24] 1549 	mov	r4,_OLED_DrawBMP_PARM_2
      0004E6                       1550 00107$:
      0004E6 C3               [12] 1551 	clr	c
      0004E7 EC               [12] 1552 	mov	a,r4
      0004E8 95 1A            [12] 1553 	subb	a,_OLED_DrawBMP_PARM_4
      0004EA 50 5A            [24] 1554 	jnc	00109$
                                   1555 ;	source/CH549_OLED.c:237: OLED_Set_Pos(x0,y);
      0004EC 8C 0F            [24] 1556 	mov	_OLED_Set_Pos_PARM_2,r4
      0004EE 85 1E 82         [24] 1557 	mov	dpl,_OLED_DrawBMP_x0_65536_103
      0004F1 C0 06            [24] 1558 	push	ar6
      0004F3 C0 05            [24] 1559 	push	ar5
      0004F5 C0 04            [24] 1560 	push	ar4
      0004F7 12 02 84         [24] 1561 	lcall	_OLED_Set_Pos
      0004FA D0 04            [24] 1562 	pop	ar4
      0004FC D0 05            [24] 1563 	pop	ar5
      0004FE D0 06            [24] 1564 	pop	ar6
                                   1565 ;	source/CH549_OLED.c:238: for(x = x0; x < x1; x++)
      000500 8D 02            [24] 1566 	mov	ar2,r5
      000502 8E 03            [24] 1567 	mov	ar3,r6
      000504 85 1E 1F         [24] 1568 	mov	_OLED_DrawBMP_x_65536_104,_OLED_DrawBMP_x0_65536_103
      000507                       1569 00104$:
      000507 C3               [12] 1570 	clr	c
      000508 E5 1F            [12] 1571 	mov	a,_OLED_DrawBMP_x_65536_104
      00050A 95 19            [12] 1572 	subb	a,_OLED_DrawBMP_PARM_3
      00050C 50 31            [24] 1573 	jnc	00115$
                                   1574 ;	source/CH549_OLED.c:240: OLED_WR_Byte(BMP[j++],OLED_DATA);	    	//向OLED输入BMP中 的一位数据，并逐次递增
      00050E EA               [12] 1575 	mov	a,r2
      00050F 25 1B            [12] 1576 	add	a,_OLED_DrawBMP_PARM_5
      000511 F8               [12] 1577 	mov	r0,a
      000512 EB               [12] 1578 	mov	a,r3
      000513 35 1C            [12] 1579 	addc	a,(_OLED_DrawBMP_PARM_5 + 1)
      000515 F9               [12] 1580 	mov	r1,a
      000516 AF 1D            [24] 1581 	mov	r7,(_OLED_DrawBMP_PARM_5 + 2)
      000518 0A               [12] 1582 	inc	r2
      000519 BA 00 01         [24] 1583 	cjne	r2,#0x00,00131$
      00051C 0B               [12] 1584 	inc	r3
      00051D                       1585 00131$:
      00051D 88 82            [24] 1586 	mov	dpl,r0
      00051F 89 83            [24] 1587 	mov	dph,r1
      000521 8F F0            [24] 1588 	mov	b,r7
      000523 12 0D 96         [24] 1589 	lcall	__gptrget
      000526 F8               [12] 1590 	mov	r0,a
      000527 75 0D 01         [24] 1591 	mov	_OLED_WR_Byte_PARM_2,#0x01
      00052A 88 82            [24] 1592 	mov	dpl,r0
      00052C C0 04            [24] 1593 	push	ar4
      00052E C0 03            [24] 1594 	push	ar3
      000530 C0 02            [24] 1595 	push	ar2
      000532 12 01 A4         [24] 1596 	lcall	_OLED_WR_Byte
      000535 D0 02            [24] 1597 	pop	ar2
      000537 D0 03            [24] 1598 	pop	ar3
      000539 D0 04            [24] 1599 	pop	ar4
                                   1600 ;	source/CH549_OLED.c:238: for(x = x0; x < x1; x++)
      00053B 05 1F            [12] 1601 	inc	_OLED_DrawBMP_x_65536_104
      00053D 80 C8            [24] 1602 	sjmp	00104$
      00053F                       1603 00115$:
      00053F 8A 05            [24] 1604 	mov	ar5,r2
      000541 8B 06            [24] 1605 	mov	ar6,r3
                                   1606 ;	source/CH549_OLED.c:234: for(y = y0; y < y1; y++)	//这里的y和x是对二维数组行和列的两次for循环，遍历整个二维数组，并把每一位数据传给OLED
      000543 0C               [12] 1607 	inc	r4
      000544 80 A0            [24] 1608 	sjmp	00107$
      000546                       1609 00109$:
                                   1610 ;	source/CH549_OLED.c:243: } 
      000546 22               [24] 1611 	ret
                                   1612 	.area CSEG    (CODE)
                                   1613 	.area CONST   (CODE)
      0015D3                       1614 _BMP1:
      0015D3 00                    1615 	.db #0x00	; 0
      0015D4 03                    1616 	.db #0x03	; 3
      0015D5 05                    1617 	.db #0x05	; 5
      0015D6 09                    1618 	.db #0x09	; 9
      0015D7 11                    1619 	.db #0x11	; 17
      0015D8 FF                    1620 	.db #0xff	; 255
      0015D9 11                    1621 	.db #0x11	; 17
      0015DA 89                    1622 	.db #0x89	; 137
      0015DB 05                    1623 	.db #0x05	; 5
      0015DC C3                    1624 	.db #0xc3	; 195
      0015DD 00                    1625 	.db #0x00	; 0
      0015DE E0                    1626 	.db #0xe0	; 224
      0015DF 00                    1627 	.db #0x00	; 0
      0015E0 F0                    1628 	.db #0xf0	; 240
      0015E1 00                    1629 	.db #0x00	; 0
      0015E2 F8                    1630 	.db #0xf8	; 248
      0015E3 00                    1631 	.db #0x00	; 0
      0015E4 00                    1632 	.db #0x00	; 0
      0015E5 00                    1633 	.db #0x00	; 0
      0015E6 00                    1634 	.db #0x00	; 0
      0015E7 00                    1635 	.db #0x00	; 0
      0015E8 00                    1636 	.db #0x00	; 0
      0015E9 00                    1637 	.db #0x00	; 0
      0015EA 44                    1638 	.db #0x44	; 68	'D'
      0015EB 28                    1639 	.db #0x28	; 40
      0015EC FF                    1640 	.db #0xff	; 255
      0015ED 11                    1641 	.db #0x11	; 17
      0015EE AA                    1642 	.db #0xaa	; 170
      0015EF 44                    1643 	.db #0x44	; 68	'D'
      0015F0 00                    1644 	.db #0x00	; 0
      0015F1 00                    1645 	.db #0x00	; 0
      0015F2 00                    1646 	.db #0x00	; 0
      0015F3 00                    1647 	.db #0x00	; 0
      0015F4 00                    1648 	.db #0x00	; 0
      0015F5 00                    1649 	.db #0x00	; 0
      0015F6 00                    1650 	.db #0x00	; 0
      0015F7 00                    1651 	.db #0x00	; 0
      0015F8 00                    1652 	.db #0x00	; 0
      0015F9 00                    1653 	.db #0x00	; 0
      0015FA 00                    1654 	.db #0x00	; 0
      0015FB 00                    1655 	.db #0x00	; 0
      0015FC 00                    1656 	.db #0x00	; 0
      0015FD 00                    1657 	.db #0x00	; 0
      0015FE 00                    1658 	.db #0x00	; 0
      0015FF 00                    1659 	.db #0x00	; 0
      001600 00                    1660 	.db #0x00	; 0
      001601 00                    1661 	.db #0x00	; 0
      001602 00                    1662 	.db #0x00	; 0
      001603 00                    1663 	.db #0x00	; 0
      001604 00                    1664 	.db #0x00	; 0
      001605 00                    1665 	.db #0x00	; 0
      001606 00                    1666 	.db #0x00	; 0
      001607 00                    1667 	.db #0x00	; 0
      001608 00                    1668 	.db #0x00	; 0
      001609 00                    1669 	.db #0x00	; 0
      00160A 00                    1670 	.db #0x00	; 0
      00160B 00                    1671 	.db #0x00	; 0
      00160C 00                    1672 	.db #0x00	; 0
      00160D 00                    1673 	.db #0x00	; 0
      00160E 00                    1674 	.db #0x00	; 0
      00160F 00                    1675 	.db #0x00	; 0
      001610 00                    1676 	.db #0x00	; 0
      001611 00                    1677 	.db #0x00	; 0
      001612 00                    1678 	.db #0x00	; 0
      001613 00                    1679 	.db #0x00	; 0
      001614 00                    1680 	.db #0x00	; 0
      001615 00                    1681 	.db #0x00	; 0
      001616 00                    1682 	.db #0x00	; 0
      001617 00                    1683 	.db #0x00	; 0
      001618 00                    1684 	.db #0x00	; 0
      001619 00                    1685 	.db #0x00	; 0
      00161A 00                    1686 	.db #0x00	; 0
      00161B 00                    1687 	.db #0x00	; 0
      00161C 00                    1688 	.db #0x00	; 0
      00161D 00                    1689 	.db #0x00	; 0
      00161E 00                    1690 	.db #0x00	; 0
      00161F 00                    1691 	.db #0x00	; 0
      001620 00                    1692 	.db #0x00	; 0
      001621 00                    1693 	.db #0x00	; 0
      001622 00                    1694 	.db #0x00	; 0
      001623 00                    1695 	.db #0x00	; 0
      001624 00                    1696 	.db #0x00	; 0
      001625 00                    1697 	.db #0x00	; 0
      001626 00                    1698 	.db #0x00	; 0
      001627 00                    1699 	.db #0x00	; 0
      001628 00                    1700 	.db #0x00	; 0
      001629 00                    1701 	.db #0x00	; 0
      00162A 00                    1702 	.db #0x00	; 0
      00162B 00                    1703 	.db #0x00	; 0
      00162C 00                    1704 	.db #0x00	; 0
      00162D 83                    1705 	.db #0x83	; 131
      00162E 01                    1706 	.db #0x01	; 1
      00162F 38                    1707 	.db #0x38	; 56	'8'
      001630 44                    1708 	.db #0x44	; 68	'D'
      001631 82                    1709 	.db #0x82	; 130
      001632 92                    1710 	.db #0x92	; 146
      001633 92                    1711 	.db #0x92	; 146
      001634 74                    1712 	.db #0x74	; 116	't'
      001635 01                    1713 	.db #0x01	; 1
      001636 83                    1714 	.db #0x83	; 131
      001637 00                    1715 	.db #0x00	; 0
      001638 00                    1716 	.db #0x00	; 0
      001639 00                    1717 	.db #0x00	; 0
      00163A 00                    1718 	.db #0x00	; 0
      00163B 00                    1719 	.db #0x00	; 0
      00163C 00                    1720 	.db #0x00	; 0
      00163D 00                    1721 	.db #0x00	; 0
      00163E 7C                    1722 	.db #0x7c	; 124
      00163F 44                    1723 	.db #0x44	; 68	'D'
      001640 FF                    1724 	.db #0xff	; 255
      001641 01                    1725 	.db #0x01	; 1
      001642 7D                    1726 	.db #0x7d	; 125
      001643 7D                    1727 	.db #0x7d	; 125
      001644 7D                    1728 	.db #0x7d	; 125
      001645 01                    1729 	.db #0x01	; 1
      001646 7D                    1730 	.db #0x7d	; 125
      001647 7D                    1731 	.db #0x7d	; 125
      001648 7D                    1732 	.db #0x7d	; 125
      001649 7D                    1733 	.db #0x7d	; 125
      00164A 01                    1734 	.db #0x01	; 1
      00164B 7D                    1735 	.db #0x7d	; 125
      00164C 7D                    1736 	.db #0x7d	; 125
      00164D 7D                    1737 	.db #0x7d	; 125
      00164E 7D                    1738 	.db #0x7d	; 125
      00164F 7D                    1739 	.db #0x7d	; 125
      001650 01                    1740 	.db #0x01	; 1
      001651 FF                    1741 	.db #0xff	; 255
      001652 00                    1742 	.db #0x00	; 0
      001653 00                    1743 	.db #0x00	; 0
      001654 00                    1744 	.db #0x00	; 0
      001655 00                    1745 	.db #0x00	; 0
      001656 00                    1746 	.db #0x00	; 0
      001657 00                    1747 	.db #0x00	; 0
      001658 01                    1748 	.db #0x01	; 1
      001659 00                    1749 	.db #0x00	; 0
      00165A 01                    1750 	.db #0x01	; 1
      00165B 00                    1751 	.db #0x00	; 0
      00165C 01                    1752 	.db #0x01	; 1
      00165D 00                    1753 	.db #0x00	; 0
      00165E 01                    1754 	.db #0x01	; 1
      00165F 00                    1755 	.db #0x00	; 0
      001660 01                    1756 	.db #0x01	; 1
      001661 00                    1757 	.db #0x00	; 0
      001662 01                    1758 	.db #0x01	; 1
      001663 00                    1759 	.db #0x00	; 0
      001664 00                    1760 	.db #0x00	; 0
      001665 00                    1761 	.db #0x00	; 0
      001666 00                    1762 	.db #0x00	; 0
      001667 00                    1763 	.db #0x00	; 0
      001668 00                    1764 	.db #0x00	; 0
      001669 00                    1765 	.db #0x00	; 0
      00166A 00                    1766 	.db #0x00	; 0
      00166B 00                    1767 	.db #0x00	; 0
      00166C 01                    1768 	.db #0x01	; 1
      00166D 01                    1769 	.db #0x01	; 1
      00166E 00                    1770 	.db #0x00	; 0
      00166F 00                    1771 	.db #0x00	; 0
      001670 00                    1772 	.db #0x00	; 0
      001671 00                    1773 	.db #0x00	; 0
      001672 00                    1774 	.db #0x00	; 0
      001673 00                    1775 	.db #0x00	; 0
      001674 00                    1776 	.db #0x00	; 0
      001675 00                    1777 	.db #0x00	; 0
      001676 00                    1778 	.db #0x00	; 0
      001677 00                    1779 	.db #0x00	; 0
      001678 00                    1780 	.db #0x00	; 0
      001679 00                    1781 	.db #0x00	; 0
      00167A 00                    1782 	.db #0x00	; 0
      00167B 00                    1783 	.db #0x00	; 0
      00167C 00                    1784 	.db #0x00	; 0
      00167D 00                    1785 	.db #0x00	; 0
      00167E 00                    1786 	.db #0x00	; 0
      00167F 00                    1787 	.db #0x00	; 0
      001680 00                    1788 	.db #0x00	; 0
      001681 00                    1789 	.db #0x00	; 0
      001682 00                    1790 	.db #0x00	; 0
      001683 00                    1791 	.db #0x00	; 0
      001684 00                    1792 	.db #0x00	; 0
      001685 00                    1793 	.db #0x00	; 0
      001686 00                    1794 	.db #0x00	; 0
      001687 00                    1795 	.db #0x00	; 0
      001688 00                    1796 	.db #0x00	; 0
      001689 00                    1797 	.db #0x00	; 0
      00168A 00                    1798 	.db #0x00	; 0
      00168B 00                    1799 	.db #0x00	; 0
      00168C 00                    1800 	.db #0x00	; 0
      00168D 00                    1801 	.db #0x00	; 0
      00168E 00                    1802 	.db #0x00	; 0
      00168F 00                    1803 	.db #0x00	; 0
      001690 00                    1804 	.db #0x00	; 0
      001691 00                    1805 	.db #0x00	; 0
      001692 00                    1806 	.db #0x00	; 0
      001693 00                    1807 	.db #0x00	; 0
      001694 00                    1808 	.db #0x00	; 0
      001695 00                    1809 	.db #0x00	; 0
      001696 00                    1810 	.db #0x00	; 0
      001697 00                    1811 	.db #0x00	; 0
      001698 00                    1812 	.db #0x00	; 0
      001699 00                    1813 	.db #0x00	; 0
      00169A 00                    1814 	.db #0x00	; 0
      00169B 00                    1815 	.db #0x00	; 0
      00169C 00                    1816 	.db #0x00	; 0
      00169D 00                    1817 	.db #0x00	; 0
      00169E 00                    1818 	.db #0x00	; 0
      00169F 00                    1819 	.db #0x00	; 0
      0016A0 00                    1820 	.db #0x00	; 0
      0016A1 00                    1821 	.db #0x00	; 0
      0016A2 00                    1822 	.db #0x00	; 0
      0016A3 00                    1823 	.db #0x00	; 0
      0016A4 00                    1824 	.db #0x00	; 0
      0016A5 00                    1825 	.db #0x00	; 0
      0016A6 00                    1826 	.db #0x00	; 0
      0016A7 00                    1827 	.db #0x00	; 0
      0016A8 00                    1828 	.db #0x00	; 0
      0016A9 00                    1829 	.db #0x00	; 0
      0016AA 00                    1830 	.db #0x00	; 0
      0016AB 00                    1831 	.db #0x00	; 0
      0016AC 00                    1832 	.db #0x00	; 0
      0016AD 01                    1833 	.db #0x01	; 1
      0016AE 01                    1834 	.db #0x01	; 1
      0016AF 00                    1835 	.db #0x00	; 0
      0016B0 00                    1836 	.db #0x00	; 0
      0016B1 00                    1837 	.db #0x00	; 0
      0016B2 00                    1838 	.db #0x00	; 0
      0016B3 00                    1839 	.db #0x00	; 0
      0016B4 00                    1840 	.db #0x00	; 0
      0016B5 01                    1841 	.db #0x01	; 1
      0016B6 01                    1842 	.db #0x01	; 1
      0016B7 00                    1843 	.db #0x00	; 0
      0016B8 00                    1844 	.db #0x00	; 0
      0016B9 00                    1845 	.db #0x00	; 0
      0016BA 00                    1846 	.db #0x00	; 0
      0016BB 00                    1847 	.db #0x00	; 0
      0016BC 00                    1848 	.db #0x00	; 0
      0016BD 00                    1849 	.db #0x00	; 0
      0016BE 00                    1850 	.db #0x00	; 0
      0016BF 00                    1851 	.db #0x00	; 0
      0016C0 01                    1852 	.db #0x01	; 1
      0016C1 01                    1853 	.db #0x01	; 1
      0016C2 01                    1854 	.db #0x01	; 1
      0016C3 01                    1855 	.db #0x01	; 1
      0016C4 01                    1856 	.db #0x01	; 1
      0016C5 01                    1857 	.db #0x01	; 1
      0016C6 01                    1858 	.db #0x01	; 1
      0016C7 01                    1859 	.db #0x01	; 1
      0016C8 01                    1860 	.db #0x01	; 1
      0016C9 01                    1861 	.db #0x01	; 1
      0016CA 01                    1862 	.db #0x01	; 1
      0016CB 01                    1863 	.db #0x01	; 1
      0016CC 01                    1864 	.db #0x01	; 1
      0016CD 01                    1865 	.db #0x01	; 1
      0016CE 01                    1866 	.db #0x01	; 1
      0016CF 01                    1867 	.db #0x01	; 1
      0016D0 01                    1868 	.db #0x01	; 1
      0016D1 01                    1869 	.db #0x01	; 1
      0016D2 00                    1870 	.db #0x00	; 0
      0016D3 00                    1871 	.db #0x00	; 0
      0016D4 00                    1872 	.db #0x00	; 0
      0016D5 00                    1873 	.db #0x00	; 0
      0016D6 00                    1874 	.db #0x00	; 0
      0016D7 00                    1875 	.db #0x00	; 0
      0016D8 00                    1876 	.db #0x00	; 0
      0016D9 00                    1877 	.db #0x00	; 0
      0016DA 00                    1878 	.db #0x00	; 0
      0016DB 00                    1879 	.db #0x00	; 0
      0016DC 00                    1880 	.db #0x00	; 0
      0016DD 00                    1881 	.db #0x00	; 0
      0016DE 00                    1882 	.db #0x00	; 0
      0016DF 00                    1883 	.db #0x00	; 0
      0016E0 00                    1884 	.db #0x00	; 0
      0016E1 00                    1885 	.db #0x00	; 0
      0016E2 00                    1886 	.db #0x00	; 0
      0016E3 00                    1887 	.db #0x00	; 0
      0016E4 00                    1888 	.db #0x00	; 0
      0016E5 00                    1889 	.db #0x00	; 0
      0016E6 00                    1890 	.db #0x00	; 0
      0016E7 00                    1891 	.db #0x00	; 0
      0016E8 00                    1892 	.db #0x00	; 0
      0016E9 00                    1893 	.db #0x00	; 0
      0016EA 00                    1894 	.db #0x00	; 0
      0016EB 00                    1895 	.db #0x00	; 0
      0016EC 00                    1896 	.db #0x00	; 0
      0016ED 00                    1897 	.db #0x00	; 0
      0016EE 00                    1898 	.db #0x00	; 0
      0016EF 3F                    1899 	.db #0x3f	; 63
      0016F0 3F                    1900 	.db #0x3f	; 63
      0016F1 03                    1901 	.db #0x03	; 3
      0016F2 03                    1902 	.db #0x03	; 3
      0016F3 F3                    1903 	.db #0xf3	; 243
      0016F4 13                    1904 	.db #0x13	; 19
      0016F5 11                    1905 	.db #0x11	; 17
      0016F6 11                    1906 	.db #0x11	; 17
      0016F7 11                    1907 	.db #0x11	; 17
      0016F8 11                    1908 	.db #0x11	; 17
      0016F9 11                    1909 	.db #0x11	; 17
      0016FA 11                    1910 	.db #0x11	; 17
      0016FB 01                    1911 	.db #0x01	; 1
      0016FC F1                    1912 	.db #0xf1	; 241
      0016FD 11                    1913 	.db #0x11	; 17
      0016FE 61                    1914 	.db #0x61	; 97	'a'
      0016FF 81                    1915 	.db #0x81	; 129
      001700 01                    1916 	.db #0x01	; 1
      001701 01                    1917 	.db #0x01	; 1
      001702 01                    1918 	.db #0x01	; 1
      001703 81                    1919 	.db #0x81	; 129
      001704 61                    1920 	.db #0x61	; 97	'a'
      001705 11                    1921 	.db #0x11	; 17
      001706 F1                    1922 	.db #0xf1	; 241
      001707 01                    1923 	.db #0x01	; 1
      001708 01                    1924 	.db #0x01	; 1
      001709 01                    1925 	.db #0x01	; 1
      00170A 01                    1926 	.db #0x01	; 1
      00170B 41                    1927 	.db #0x41	; 65	'A'
      00170C 41                    1928 	.db #0x41	; 65	'A'
      00170D F1                    1929 	.db #0xf1	; 241
      00170E 01                    1930 	.db #0x01	; 1
      00170F 01                    1931 	.db #0x01	; 1
      001710 01                    1932 	.db #0x01	; 1
      001711 01                    1933 	.db #0x01	; 1
      001712 01                    1934 	.db #0x01	; 1
      001713 C1                    1935 	.db #0xc1	; 193
      001714 21                    1936 	.db #0x21	; 33
      001715 11                    1937 	.db #0x11	; 17
      001716 11                    1938 	.db #0x11	; 17
      001717 11                    1939 	.db #0x11	; 17
      001718 11                    1940 	.db #0x11	; 17
      001719 21                    1941 	.db #0x21	; 33
      00171A C1                    1942 	.db #0xc1	; 193
      00171B 01                    1943 	.db #0x01	; 1
      00171C 01                    1944 	.db #0x01	; 1
      00171D 01                    1945 	.db #0x01	; 1
      00171E 01                    1946 	.db #0x01	; 1
      00171F 41                    1947 	.db #0x41	; 65	'A'
      001720 41                    1948 	.db #0x41	; 65	'A'
      001721 F1                    1949 	.db #0xf1	; 241
      001722 01                    1950 	.db #0x01	; 1
      001723 01                    1951 	.db #0x01	; 1
      001724 01                    1952 	.db #0x01	; 1
      001725 01                    1953 	.db #0x01	; 1
      001726 01                    1954 	.db #0x01	; 1
      001727 01                    1955 	.db #0x01	; 1
      001728 01                    1956 	.db #0x01	; 1
      001729 01                    1957 	.db #0x01	; 1
      00172A 01                    1958 	.db #0x01	; 1
      00172B 01                    1959 	.db #0x01	; 1
      00172C 11                    1960 	.db #0x11	; 17
      00172D 11                    1961 	.db #0x11	; 17
      00172E 11                    1962 	.db #0x11	; 17
      00172F 11                    1963 	.db #0x11	; 17
      001730 11                    1964 	.db #0x11	; 17
      001731 D3                    1965 	.db #0xd3	; 211
      001732 33                    1966 	.db #0x33	; 51	'3'
      001733 03                    1967 	.db #0x03	; 3
      001734 03                    1968 	.db #0x03	; 3
      001735 3F                    1969 	.db #0x3f	; 63
      001736 3F                    1970 	.db #0x3f	; 63
      001737 00                    1971 	.db #0x00	; 0
      001738 00                    1972 	.db #0x00	; 0
      001739 00                    1973 	.db #0x00	; 0
      00173A 00                    1974 	.db #0x00	; 0
      00173B 00                    1975 	.db #0x00	; 0
      00173C 00                    1976 	.db #0x00	; 0
      00173D 00                    1977 	.db #0x00	; 0
      00173E 00                    1978 	.db #0x00	; 0
      00173F 00                    1979 	.db #0x00	; 0
      001740 00                    1980 	.db #0x00	; 0
      001741 00                    1981 	.db #0x00	; 0
      001742 00                    1982 	.db #0x00	; 0
      001743 00                    1983 	.db #0x00	; 0
      001744 00                    1984 	.db #0x00	; 0
      001745 00                    1985 	.db #0x00	; 0
      001746 00                    1986 	.db #0x00	; 0
      001747 00                    1987 	.db #0x00	; 0
      001748 00                    1988 	.db #0x00	; 0
      001749 00                    1989 	.db #0x00	; 0
      00174A 00                    1990 	.db #0x00	; 0
      00174B 00                    1991 	.db #0x00	; 0
      00174C 00                    1992 	.db #0x00	; 0
      00174D 00                    1993 	.db #0x00	; 0
      00174E 00                    1994 	.db #0x00	; 0
      00174F 00                    1995 	.db #0x00	; 0
      001750 00                    1996 	.db #0x00	; 0
      001751 00                    1997 	.db #0x00	; 0
      001752 00                    1998 	.db #0x00	; 0
      001753 00                    1999 	.db #0x00	; 0
      001754 00                    2000 	.db #0x00	; 0
      001755 00                    2001 	.db #0x00	; 0
      001756 00                    2002 	.db #0x00	; 0
      001757 00                    2003 	.db #0x00	; 0
      001758 00                    2004 	.db #0x00	; 0
      001759 00                    2005 	.db #0x00	; 0
      00175A 00                    2006 	.db #0x00	; 0
      00175B 00                    2007 	.db #0x00	; 0
      00175C 00                    2008 	.db #0x00	; 0
      00175D 00                    2009 	.db #0x00	; 0
      00175E 00                    2010 	.db #0x00	; 0
      00175F 00                    2011 	.db #0x00	; 0
      001760 00                    2012 	.db #0x00	; 0
      001761 00                    2013 	.db #0x00	; 0
      001762 00                    2014 	.db #0x00	; 0
      001763 00                    2015 	.db #0x00	; 0
      001764 00                    2016 	.db #0x00	; 0
      001765 00                    2017 	.db #0x00	; 0
      001766 00                    2018 	.db #0x00	; 0
      001767 00                    2019 	.db #0x00	; 0
      001768 00                    2020 	.db #0x00	; 0
      001769 00                    2021 	.db #0x00	; 0
      00176A 00                    2022 	.db #0x00	; 0
      00176B 00                    2023 	.db #0x00	; 0
      00176C 00                    2024 	.db #0x00	; 0
      00176D 00                    2025 	.db #0x00	; 0
      00176E 00                    2026 	.db #0x00	; 0
      00176F E0                    2027 	.db #0xe0	; 224
      001770 E0                    2028 	.db #0xe0	; 224
      001771 00                    2029 	.db #0x00	; 0
      001772 00                    2030 	.db #0x00	; 0
      001773 7F                    2031 	.db #0x7f	; 127
      001774 01                    2032 	.db #0x01	; 1
      001775 01                    2033 	.db #0x01	; 1
      001776 01                    2034 	.db #0x01	; 1
      001777 01                    2035 	.db #0x01	; 1
      001778 01                    2036 	.db #0x01	; 1
      001779 01                    2037 	.db #0x01	; 1
      00177A 00                    2038 	.db #0x00	; 0
      00177B 00                    2039 	.db #0x00	; 0
      00177C 7F                    2040 	.db #0x7f	; 127
      00177D 00                    2041 	.db #0x00	; 0
      00177E 00                    2042 	.db #0x00	; 0
      00177F 01                    2043 	.db #0x01	; 1
      001780 06                    2044 	.db #0x06	; 6
      001781 18                    2045 	.db #0x18	; 24
      001782 06                    2046 	.db #0x06	; 6
      001783 01                    2047 	.db #0x01	; 1
      001784 00                    2048 	.db #0x00	; 0
      001785 00                    2049 	.db #0x00	; 0
      001786 7F                    2050 	.db #0x7f	; 127
      001787 00                    2051 	.db #0x00	; 0
      001788 00                    2052 	.db #0x00	; 0
      001789 00                    2053 	.db #0x00	; 0
      00178A 00                    2054 	.db #0x00	; 0
      00178B 40                    2055 	.db #0x40	; 64
      00178C 40                    2056 	.db #0x40	; 64
      00178D 7F                    2057 	.db #0x7f	; 127
      00178E 40                    2058 	.db #0x40	; 64
      00178F 40                    2059 	.db #0x40	; 64
      001790 00                    2060 	.db #0x00	; 0
      001791 00                    2061 	.db #0x00	; 0
      001792 00                    2062 	.db #0x00	; 0
      001793 1F                    2063 	.db #0x1f	; 31
      001794 20                    2064 	.db #0x20	; 32
      001795 40                    2065 	.db #0x40	; 64
      001796 40                    2066 	.db #0x40	; 64
      001797 40                    2067 	.db #0x40	; 64
      001798 40                    2068 	.db #0x40	; 64
      001799 20                    2069 	.db #0x20	; 32
      00179A 1F                    2070 	.db #0x1f	; 31
      00179B 00                    2071 	.db #0x00	; 0
      00179C 00                    2072 	.db #0x00	; 0
      00179D 00                    2073 	.db #0x00	; 0
      00179E 00                    2074 	.db #0x00	; 0
      00179F 40                    2075 	.db #0x40	; 64
      0017A0 40                    2076 	.db #0x40	; 64
      0017A1 7F                    2077 	.db #0x7f	; 127
      0017A2 40                    2078 	.db #0x40	; 64
      0017A3 40                    2079 	.db #0x40	; 64
      0017A4 00                    2080 	.db #0x00	; 0
      0017A5 00                    2081 	.db #0x00	; 0
      0017A6 00                    2082 	.db #0x00	; 0
      0017A7 00                    2083 	.db #0x00	; 0
      0017A8 60                    2084 	.db #0x60	; 96
      0017A9 00                    2085 	.db #0x00	; 0
      0017AA 00                    2086 	.db #0x00	; 0
      0017AB 00                    2087 	.db #0x00	; 0
      0017AC 00                    2088 	.db #0x00	; 0
      0017AD 40                    2089 	.db #0x40	; 64
      0017AE 30                    2090 	.db #0x30	; 48	'0'
      0017AF 0C                    2091 	.db #0x0c	; 12
      0017B0 03                    2092 	.db #0x03	; 3
      0017B1 00                    2093 	.db #0x00	; 0
      0017B2 00                    2094 	.db #0x00	; 0
      0017B3 00                    2095 	.db #0x00	; 0
      0017B4 00                    2096 	.db #0x00	; 0
      0017B5 E0                    2097 	.db #0xe0	; 224
      0017B6 E0                    2098 	.db #0xe0	; 224
      0017B7 00                    2099 	.db #0x00	; 0
      0017B8 00                    2100 	.db #0x00	; 0
      0017B9 00                    2101 	.db #0x00	; 0
      0017BA 00                    2102 	.db #0x00	; 0
      0017BB 00                    2103 	.db #0x00	; 0
      0017BC 00                    2104 	.db #0x00	; 0
      0017BD 00                    2105 	.db #0x00	; 0
      0017BE 00                    2106 	.db #0x00	; 0
      0017BF 00                    2107 	.db #0x00	; 0
      0017C0 00                    2108 	.db #0x00	; 0
      0017C1 00                    2109 	.db #0x00	; 0
      0017C2 00                    2110 	.db #0x00	; 0
      0017C3 00                    2111 	.db #0x00	; 0
      0017C4 00                    2112 	.db #0x00	; 0
      0017C5 00                    2113 	.db #0x00	; 0
      0017C6 00                    2114 	.db #0x00	; 0
      0017C7 00                    2115 	.db #0x00	; 0
      0017C8 00                    2116 	.db #0x00	; 0
      0017C9 00                    2117 	.db #0x00	; 0
      0017CA 00                    2118 	.db #0x00	; 0
      0017CB 00                    2119 	.db #0x00	; 0
      0017CC 00                    2120 	.db #0x00	; 0
      0017CD 00                    2121 	.db #0x00	; 0
      0017CE 00                    2122 	.db #0x00	; 0
      0017CF 00                    2123 	.db #0x00	; 0
      0017D0 00                    2124 	.db #0x00	; 0
      0017D1 00                    2125 	.db #0x00	; 0
      0017D2 00                    2126 	.db #0x00	; 0
      0017D3 00                    2127 	.db #0x00	; 0
      0017D4 00                    2128 	.db #0x00	; 0
      0017D5 00                    2129 	.db #0x00	; 0
      0017D6 00                    2130 	.db #0x00	; 0
      0017D7 00                    2131 	.db #0x00	; 0
      0017D8 00                    2132 	.db #0x00	; 0
      0017D9 00                    2133 	.db #0x00	; 0
      0017DA 00                    2134 	.db #0x00	; 0
      0017DB 00                    2135 	.db #0x00	; 0
      0017DC 00                    2136 	.db #0x00	; 0
      0017DD 00                    2137 	.db #0x00	; 0
      0017DE 00                    2138 	.db #0x00	; 0
      0017DF 00                    2139 	.db #0x00	; 0
      0017E0 00                    2140 	.db #0x00	; 0
      0017E1 00                    2141 	.db #0x00	; 0
      0017E2 00                    2142 	.db #0x00	; 0
      0017E3 00                    2143 	.db #0x00	; 0
      0017E4 00                    2144 	.db #0x00	; 0
      0017E5 00                    2145 	.db #0x00	; 0
      0017E6 00                    2146 	.db #0x00	; 0
      0017E7 00                    2147 	.db #0x00	; 0
      0017E8 00                    2148 	.db #0x00	; 0
      0017E9 00                    2149 	.db #0x00	; 0
      0017EA 00                    2150 	.db #0x00	; 0
      0017EB 00                    2151 	.db #0x00	; 0
      0017EC 00                    2152 	.db #0x00	; 0
      0017ED 00                    2153 	.db #0x00	; 0
      0017EE 00                    2154 	.db #0x00	; 0
      0017EF 07                    2155 	.db #0x07	; 7
      0017F0 07                    2156 	.db #0x07	; 7
      0017F1 06                    2157 	.db #0x06	; 6
      0017F2 06                    2158 	.db #0x06	; 6
      0017F3 06                    2159 	.db #0x06	; 6
      0017F4 06                    2160 	.db #0x06	; 6
      0017F5 04                    2161 	.db #0x04	; 4
      0017F6 04                    2162 	.db #0x04	; 4
      0017F7 04                    2163 	.db #0x04	; 4
      0017F8 84                    2164 	.db #0x84	; 132
      0017F9 44                    2165 	.db #0x44	; 68	'D'
      0017FA 44                    2166 	.db #0x44	; 68	'D'
      0017FB 44                    2167 	.db #0x44	; 68	'D'
      0017FC 84                    2168 	.db #0x84	; 132
      0017FD 04                    2169 	.db #0x04	; 4
      0017FE 04                    2170 	.db #0x04	; 4
      0017FF 84                    2171 	.db #0x84	; 132
      001800 44                    2172 	.db #0x44	; 68	'D'
      001801 44                    2173 	.db #0x44	; 68	'D'
      001802 44                    2174 	.db #0x44	; 68	'D'
      001803 84                    2175 	.db #0x84	; 132
      001804 04                    2176 	.db #0x04	; 4
      001805 04                    2177 	.db #0x04	; 4
      001806 04                    2178 	.db #0x04	; 4
      001807 84                    2179 	.db #0x84	; 132
      001808 C4                    2180 	.db #0xc4	; 196
      001809 04                    2181 	.db #0x04	; 4
      00180A 04                    2182 	.db #0x04	; 4
      00180B 04                    2183 	.db #0x04	; 4
      00180C 04                    2184 	.db #0x04	; 4
      00180D 84                    2185 	.db #0x84	; 132
      00180E 44                    2186 	.db #0x44	; 68	'D'
      00180F 44                    2187 	.db #0x44	; 68	'D'
      001810 44                    2188 	.db #0x44	; 68	'D'
      001811 84                    2189 	.db #0x84	; 132
      001812 04                    2190 	.db #0x04	; 4
      001813 04                    2191 	.db #0x04	; 4
      001814 04                    2192 	.db #0x04	; 4
      001815 04                    2193 	.db #0x04	; 4
      001816 04                    2194 	.db #0x04	; 4
      001817 84                    2195 	.db #0x84	; 132
      001818 44                    2196 	.db #0x44	; 68	'D'
      001819 44                    2197 	.db #0x44	; 68	'D'
      00181A 44                    2198 	.db #0x44	; 68	'D'
      00181B 84                    2199 	.db #0x84	; 132
      00181C 04                    2200 	.db #0x04	; 4
      00181D 04                    2201 	.db #0x04	; 4
      00181E 04                    2202 	.db #0x04	; 4
      00181F 04                    2203 	.db #0x04	; 4
      001820 04                    2204 	.db #0x04	; 4
      001821 84                    2205 	.db #0x84	; 132
      001822 44                    2206 	.db #0x44	; 68	'D'
      001823 44                    2207 	.db #0x44	; 68	'D'
      001824 44                    2208 	.db #0x44	; 68	'D'
      001825 84                    2209 	.db #0x84	; 132
      001826 04                    2210 	.db #0x04	; 4
      001827 04                    2211 	.db #0x04	; 4
      001828 84                    2212 	.db #0x84	; 132
      001829 44                    2213 	.db #0x44	; 68	'D'
      00182A 44                    2214 	.db #0x44	; 68	'D'
      00182B 44                    2215 	.db #0x44	; 68	'D'
      00182C 84                    2216 	.db #0x84	; 132
      00182D 04                    2217 	.db #0x04	; 4
      00182E 04                    2218 	.db #0x04	; 4
      00182F 04                    2219 	.db #0x04	; 4
      001830 04                    2220 	.db #0x04	; 4
      001831 06                    2221 	.db #0x06	; 6
      001832 06                    2222 	.db #0x06	; 6
      001833 06                    2223 	.db #0x06	; 6
      001834 06                    2224 	.db #0x06	; 6
      001835 07                    2225 	.db #0x07	; 7
      001836 07                    2226 	.db #0x07	; 7
      001837 00                    2227 	.db #0x00	; 0
      001838 00                    2228 	.db #0x00	; 0
      001839 00                    2229 	.db #0x00	; 0
      00183A 00                    2230 	.db #0x00	; 0
      00183B 00                    2231 	.db #0x00	; 0
      00183C 00                    2232 	.db #0x00	; 0
      00183D 00                    2233 	.db #0x00	; 0
      00183E 00                    2234 	.db #0x00	; 0
      00183F 00                    2235 	.db #0x00	; 0
      001840 00                    2236 	.db #0x00	; 0
      001841 00                    2237 	.db #0x00	; 0
      001842 00                    2238 	.db #0x00	; 0
      001843 00                    2239 	.db #0x00	; 0
      001844 00                    2240 	.db #0x00	; 0
      001845 00                    2241 	.db #0x00	; 0
      001846 00                    2242 	.db #0x00	; 0
      001847 00                    2243 	.db #0x00	; 0
      001848 00                    2244 	.db #0x00	; 0
      001849 00                    2245 	.db #0x00	; 0
      00184A 00                    2246 	.db #0x00	; 0
      00184B 00                    2247 	.db #0x00	; 0
      00184C 00                    2248 	.db #0x00	; 0
      00184D 00                    2249 	.db #0x00	; 0
      00184E 00                    2250 	.db #0x00	; 0
      00184F 00                    2251 	.db #0x00	; 0
      001850 00                    2252 	.db #0x00	; 0
      001851 00                    2253 	.db #0x00	; 0
      001852 00                    2254 	.db #0x00	; 0
      001853 00                    2255 	.db #0x00	; 0
      001854 00                    2256 	.db #0x00	; 0
      001855 00                    2257 	.db #0x00	; 0
      001856 00                    2258 	.db #0x00	; 0
      001857 00                    2259 	.db #0x00	; 0
      001858 00                    2260 	.db #0x00	; 0
      001859 00                    2261 	.db #0x00	; 0
      00185A 00                    2262 	.db #0x00	; 0
      00185B 00                    2263 	.db #0x00	; 0
      00185C 00                    2264 	.db #0x00	; 0
      00185D 00                    2265 	.db #0x00	; 0
      00185E 00                    2266 	.db #0x00	; 0
      00185F 00                    2267 	.db #0x00	; 0
      001860 00                    2268 	.db #0x00	; 0
      001861 00                    2269 	.db #0x00	; 0
      001862 00                    2270 	.db #0x00	; 0
      001863 00                    2271 	.db #0x00	; 0
      001864 00                    2272 	.db #0x00	; 0
      001865 00                    2273 	.db #0x00	; 0
      001866 00                    2274 	.db #0x00	; 0
      001867 00                    2275 	.db #0x00	; 0
      001868 00                    2276 	.db #0x00	; 0
      001869 00                    2277 	.db #0x00	; 0
      00186A 00                    2278 	.db #0x00	; 0
      00186B 00                    2279 	.db #0x00	; 0
      00186C 00                    2280 	.db #0x00	; 0
      00186D 00                    2281 	.db #0x00	; 0
      00186E 00                    2282 	.db #0x00	; 0
      00186F 00                    2283 	.db #0x00	; 0
      001870 00                    2284 	.db #0x00	; 0
      001871 00                    2285 	.db #0x00	; 0
      001872 00                    2286 	.db #0x00	; 0
      001873 00                    2287 	.db #0x00	; 0
      001874 00                    2288 	.db #0x00	; 0
      001875 00                    2289 	.db #0x00	; 0
      001876 00                    2290 	.db #0x00	; 0
      001877 00                    2291 	.db #0x00	; 0
      001878 10                    2292 	.db #0x10	; 16
      001879 18                    2293 	.db #0x18	; 24
      00187A 14                    2294 	.db #0x14	; 20
      00187B 12                    2295 	.db #0x12	; 18
      00187C 11                    2296 	.db #0x11	; 17
      00187D 00                    2297 	.db #0x00	; 0
      00187E 00                    2298 	.db #0x00	; 0
      00187F 0F                    2299 	.db #0x0f	; 15
      001880 10                    2300 	.db #0x10	; 16
      001881 10                    2301 	.db #0x10	; 16
      001882 10                    2302 	.db #0x10	; 16
      001883 0F                    2303 	.db #0x0f	; 15
      001884 00                    2304 	.db #0x00	; 0
      001885 00                    2305 	.db #0x00	; 0
      001886 00                    2306 	.db #0x00	; 0
      001887 10                    2307 	.db #0x10	; 16
      001888 1F                    2308 	.db #0x1f	; 31
      001889 10                    2309 	.db #0x10	; 16
      00188A 00                    2310 	.db #0x00	; 0
      00188B 00                    2311 	.db #0x00	; 0
      00188C 00                    2312 	.db #0x00	; 0
      00188D 08                    2313 	.db #0x08	; 8
      00188E 10                    2314 	.db #0x10	; 16
      00188F 12                    2315 	.db #0x12	; 18
      001890 12                    2316 	.db #0x12	; 18
      001891 0D                    2317 	.db #0x0d	; 13
      001892 00                    2318 	.db #0x00	; 0
      001893 00                    2319 	.db #0x00	; 0
      001894 18                    2320 	.db #0x18	; 24
      001895 00                    2321 	.db #0x00	; 0
      001896 00                    2322 	.db #0x00	; 0
      001897 0D                    2323 	.db #0x0d	; 13
      001898 12                    2324 	.db #0x12	; 18
      001899 12                    2325 	.db #0x12	; 18
      00189A 12                    2326 	.db #0x12	; 18
      00189B 0D                    2327 	.db #0x0d	; 13
      00189C 00                    2328 	.db #0x00	; 0
      00189D 00                    2329 	.db #0x00	; 0
      00189E 18                    2330 	.db #0x18	; 24
      00189F 00                    2331 	.db #0x00	; 0
      0018A0 00                    2332 	.db #0x00	; 0
      0018A1 10                    2333 	.db #0x10	; 16
      0018A2 18                    2334 	.db #0x18	; 24
      0018A3 14                    2335 	.db #0x14	; 20
      0018A4 12                    2336 	.db #0x12	; 18
      0018A5 11                    2337 	.db #0x11	; 17
      0018A6 00                    2338 	.db #0x00	; 0
      0018A7 00                    2339 	.db #0x00	; 0
      0018A8 10                    2340 	.db #0x10	; 16
      0018A9 18                    2341 	.db #0x18	; 24
      0018AA 14                    2342 	.db #0x14	; 20
      0018AB 12                    2343 	.db #0x12	; 18
      0018AC 11                    2344 	.db #0x11	; 17
      0018AD 00                    2345 	.db #0x00	; 0
      0018AE 00                    2346 	.db #0x00	; 0
      0018AF 00                    2347 	.db #0x00	; 0
      0018B0 00                    2348 	.db #0x00	; 0
      0018B1 00                    2349 	.db #0x00	; 0
      0018B2 00                    2350 	.db #0x00	; 0
      0018B3 00                    2351 	.db #0x00	; 0
      0018B4 00                    2352 	.db #0x00	; 0
      0018B5 00                    2353 	.db #0x00	; 0
      0018B6 00                    2354 	.db #0x00	; 0
      0018B7 00                    2355 	.db #0x00	; 0
      0018B8 00                    2356 	.db #0x00	; 0
      0018B9 00                    2357 	.db #0x00	; 0
      0018BA 00                    2358 	.db #0x00	; 0
      0018BB 00                    2359 	.db #0x00	; 0
      0018BC 00                    2360 	.db #0x00	; 0
      0018BD 00                    2361 	.db #0x00	; 0
      0018BE 00                    2362 	.db #0x00	; 0
      0018BF 00                    2363 	.db #0x00	; 0
      0018C0 00                    2364 	.db #0x00	; 0
      0018C1 00                    2365 	.db #0x00	; 0
      0018C2 00                    2366 	.db #0x00	; 0
      0018C3 00                    2367 	.db #0x00	; 0
      0018C4 00                    2368 	.db #0x00	; 0
      0018C5 00                    2369 	.db #0x00	; 0
      0018C6 00                    2370 	.db #0x00	; 0
      0018C7 00                    2371 	.db #0x00	; 0
      0018C8 00                    2372 	.db #0x00	; 0
      0018C9 00                    2373 	.db #0x00	; 0
      0018CA 00                    2374 	.db #0x00	; 0
      0018CB 00                    2375 	.db #0x00	; 0
      0018CC 00                    2376 	.db #0x00	; 0
      0018CD 00                    2377 	.db #0x00	; 0
      0018CE 00                    2378 	.db #0x00	; 0
      0018CF 00                    2379 	.db #0x00	; 0
      0018D0 00                    2380 	.db #0x00	; 0
      0018D1 00                    2381 	.db #0x00	; 0
      0018D2 00                    2382 	.db #0x00	; 0
      0018D3 00                    2383 	.db #0x00	; 0
      0018D4 00                    2384 	.db #0x00	; 0
      0018D5 00                    2385 	.db #0x00	; 0
      0018D6 00                    2386 	.db #0x00	; 0
      0018D7 00                    2387 	.db #0x00	; 0
      0018D8 00                    2388 	.db #0x00	; 0
      0018D9 00                    2389 	.db #0x00	; 0
      0018DA 00                    2390 	.db #0x00	; 0
      0018DB 00                    2391 	.db #0x00	; 0
      0018DC 00                    2392 	.db #0x00	; 0
      0018DD 00                    2393 	.db #0x00	; 0
      0018DE 00                    2394 	.db #0x00	; 0
      0018DF 00                    2395 	.db #0x00	; 0
      0018E0 00                    2396 	.db #0x00	; 0
      0018E1 00                    2397 	.db #0x00	; 0
      0018E2 00                    2398 	.db #0x00	; 0
      0018E3 00                    2399 	.db #0x00	; 0
      0018E4 00                    2400 	.db #0x00	; 0
      0018E5 00                    2401 	.db #0x00	; 0
      0018E6 00                    2402 	.db #0x00	; 0
      0018E7 00                    2403 	.db #0x00	; 0
      0018E8 00                    2404 	.db #0x00	; 0
      0018E9 00                    2405 	.db #0x00	; 0
      0018EA 00                    2406 	.db #0x00	; 0
      0018EB 00                    2407 	.db #0x00	; 0
      0018EC 00                    2408 	.db #0x00	; 0
      0018ED 00                    2409 	.db #0x00	; 0
      0018EE 00                    2410 	.db #0x00	; 0
      0018EF 00                    2411 	.db #0x00	; 0
      0018F0 00                    2412 	.db #0x00	; 0
      0018F1 00                    2413 	.db #0x00	; 0
      0018F2 00                    2414 	.db #0x00	; 0
      0018F3 00                    2415 	.db #0x00	; 0
      0018F4 00                    2416 	.db #0x00	; 0
      0018F5 00                    2417 	.db #0x00	; 0
      0018F6 00                    2418 	.db #0x00	; 0
      0018F7 00                    2419 	.db #0x00	; 0
      0018F8 00                    2420 	.db #0x00	; 0
      0018F9 00                    2421 	.db #0x00	; 0
      0018FA 00                    2422 	.db #0x00	; 0
      0018FB 00                    2423 	.db #0x00	; 0
      0018FC 00                    2424 	.db #0x00	; 0
      0018FD 00                    2425 	.db #0x00	; 0
      0018FE 00                    2426 	.db #0x00	; 0
      0018FF 00                    2427 	.db #0x00	; 0
      001900 00                    2428 	.db #0x00	; 0
      001901 00                    2429 	.db #0x00	; 0
      001902 00                    2430 	.db #0x00	; 0
      001903 00                    2431 	.db #0x00	; 0
      001904 00                    2432 	.db #0x00	; 0
      001905 00                    2433 	.db #0x00	; 0
      001906 00                    2434 	.db #0x00	; 0
      001907 00                    2435 	.db #0x00	; 0
      001908 00                    2436 	.db #0x00	; 0
      001909 00                    2437 	.db #0x00	; 0
      00190A 00                    2438 	.db #0x00	; 0
      00190B 00                    2439 	.db #0x00	; 0
      00190C 00                    2440 	.db #0x00	; 0
      00190D 00                    2441 	.db #0x00	; 0
      00190E 00                    2442 	.db #0x00	; 0
      00190F 80                    2443 	.db #0x80	; 128
      001910 80                    2444 	.db #0x80	; 128
      001911 80                    2445 	.db #0x80	; 128
      001912 80                    2446 	.db #0x80	; 128
      001913 80                    2447 	.db #0x80	; 128
      001914 80                    2448 	.db #0x80	; 128
      001915 80                    2449 	.db #0x80	; 128
      001916 80                    2450 	.db #0x80	; 128
      001917 00                    2451 	.db #0x00	; 0
      001918 00                    2452 	.db #0x00	; 0
      001919 00                    2453 	.db #0x00	; 0
      00191A 00                    2454 	.db #0x00	; 0
      00191B 00                    2455 	.db #0x00	; 0
      00191C 00                    2456 	.db #0x00	; 0
      00191D 00                    2457 	.db #0x00	; 0
      00191E 00                    2458 	.db #0x00	; 0
      00191F 00                    2459 	.db #0x00	; 0
      001920 00                    2460 	.db #0x00	; 0
      001921 00                    2461 	.db #0x00	; 0
      001922 00                    2462 	.db #0x00	; 0
      001923 00                    2463 	.db #0x00	; 0
      001924 00                    2464 	.db #0x00	; 0
      001925 00                    2465 	.db #0x00	; 0
      001926 00                    2466 	.db #0x00	; 0
      001927 00                    2467 	.db #0x00	; 0
      001928 00                    2468 	.db #0x00	; 0
      001929 00                    2469 	.db #0x00	; 0
      00192A 00                    2470 	.db #0x00	; 0
      00192B 00                    2471 	.db #0x00	; 0
      00192C 00                    2472 	.db #0x00	; 0
      00192D 00                    2473 	.db #0x00	; 0
      00192E 00                    2474 	.db #0x00	; 0
      00192F 00                    2475 	.db #0x00	; 0
      001930 00                    2476 	.db #0x00	; 0
      001931 00                    2477 	.db #0x00	; 0
      001932 00                    2478 	.db #0x00	; 0
      001933 00                    2479 	.db #0x00	; 0
      001934 00                    2480 	.db #0x00	; 0
      001935 00                    2481 	.db #0x00	; 0
      001936 00                    2482 	.db #0x00	; 0
      001937 00                    2483 	.db #0x00	; 0
      001938 00                    2484 	.db #0x00	; 0
      001939 00                    2485 	.db #0x00	; 0
      00193A 00                    2486 	.db #0x00	; 0
      00193B 00                    2487 	.db #0x00	; 0
      00193C 00                    2488 	.db #0x00	; 0
      00193D 00                    2489 	.db #0x00	; 0
      00193E 00                    2490 	.db #0x00	; 0
      00193F 00                    2491 	.db #0x00	; 0
      001940 00                    2492 	.db #0x00	; 0
      001941 00                    2493 	.db #0x00	; 0
      001942 00                    2494 	.db #0x00	; 0
      001943 00                    2495 	.db #0x00	; 0
      001944 00                    2496 	.db #0x00	; 0
      001945 00                    2497 	.db #0x00	; 0
      001946 00                    2498 	.db #0x00	; 0
      001947 00                    2499 	.db #0x00	; 0
      001948 00                    2500 	.db #0x00	; 0
      001949 00                    2501 	.db #0x00	; 0
      00194A 00                    2502 	.db #0x00	; 0
      00194B 00                    2503 	.db #0x00	; 0
      00194C 00                    2504 	.db #0x00	; 0
      00194D 00                    2505 	.db #0x00	; 0
      00194E 00                    2506 	.db #0x00	; 0
      00194F 00                    2507 	.db #0x00	; 0
      001950 00                    2508 	.db #0x00	; 0
      001951 00                    2509 	.db #0x00	; 0
      001952 00                    2510 	.db #0x00	; 0
      001953 00                    2511 	.db #0x00	; 0
      001954 7F                    2512 	.db #0x7f	; 127
      001955 03                    2513 	.db #0x03	; 3
      001956 0C                    2514 	.db #0x0c	; 12
      001957 30                    2515 	.db #0x30	; 48	'0'
      001958 0C                    2516 	.db #0x0c	; 12
      001959 03                    2517 	.db #0x03	; 3
      00195A 7F                    2518 	.db #0x7f	; 127
      00195B 00                    2519 	.db #0x00	; 0
      00195C 00                    2520 	.db #0x00	; 0
      00195D 38                    2521 	.db #0x38	; 56	'8'
      00195E 54                    2522 	.db #0x54	; 84	'T'
      00195F 54                    2523 	.db #0x54	; 84	'T'
      001960 58                    2524 	.db #0x58	; 88	'X'
      001961 00                    2525 	.db #0x00	; 0
      001962 00                    2526 	.db #0x00	; 0
      001963 7C                    2527 	.db #0x7c	; 124
      001964 04                    2528 	.db #0x04	; 4
      001965 04                    2529 	.db #0x04	; 4
      001966 78                    2530 	.db #0x78	; 120	'x'
      001967 00                    2531 	.db #0x00	; 0
      001968 00                    2532 	.db #0x00	; 0
      001969 3C                    2533 	.db #0x3c	; 60
      00196A 40                    2534 	.db #0x40	; 64
      00196B 40                    2535 	.db #0x40	; 64
      00196C 7C                    2536 	.db #0x7c	; 124
      00196D 00                    2537 	.db #0x00	; 0
      00196E 00                    2538 	.db #0x00	; 0
      00196F 00                    2539 	.db #0x00	; 0
      001970 00                    2540 	.db #0x00	; 0
      001971 00                    2541 	.db #0x00	; 0
      001972 00                    2542 	.db #0x00	; 0
      001973 00                    2543 	.db #0x00	; 0
      001974 00                    2544 	.db #0x00	; 0
      001975 00                    2545 	.db #0x00	; 0
      001976 00                    2546 	.db #0x00	; 0
      001977 00                    2547 	.db #0x00	; 0
      001978 00                    2548 	.db #0x00	; 0
      001979 00                    2549 	.db #0x00	; 0
      00197A 00                    2550 	.db #0x00	; 0
      00197B 00                    2551 	.db #0x00	; 0
      00197C 00                    2552 	.db #0x00	; 0
      00197D 00                    2553 	.db #0x00	; 0
      00197E 00                    2554 	.db #0x00	; 0
      00197F 00                    2555 	.db #0x00	; 0
      001980 00                    2556 	.db #0x00	; 0
      001981 00                    2557 	.db #0x00	; 0
      001982 00                    2558 	.db #0x00	; 0
      001983 00                    2559 	.db #0x00	; 0
      001984 00                    2560 	.db #0x00	; 0
      001985 00                    2561 	.db #0x00	; 0
      001986 00                    2562 	.db #0x00	; 0
      001987 00                    2563 	.db #0x00	; 0
      001988 00                    2564 	.db #0x00	; 0
      001989 00                    2565 	.db #0x00	; 0
      00198A 00                    2566 	.db #0x00	; 0
      00198B 00                    2567 	.db #0x00	; 0
      00198C 00                    2568 	.db #0x00	; 0
      00198D 00                    2569 	.db #0x00	; 0
      00198E 00                    2570 	.db #0x00	; 0
      00198F FF                    2571 	.db #0xff	; 255
      001990 AA                    2572 	.db #0xaa	; 170
      001991 AA                    2573 	.db #0xaa	; 170
      001992 AA                    2574 	.db #0xaa	; 170
      001993 28                    2575 	.db #0x28	; 40
      001994 08                    2576 	.db #0x08	; 8
      001995 00                    2577 	.db #0x00	; 0
      001996 FF                    2578 	.db #0xff	; 255
      001997 00                    2579 	.db #0x00	; 0
      001998 00                    2580 	.db #0x00	; 0
      001999 00                    2581 	.db #0x00	; 0
      00199A 00                    2582 	.db #0x00	; 0
      00199B 00                    2583 	.db #0x00	; 0
      00199C 00                    2584 	.db #0x00	; 0
      00199D 00                    2585 	.db #0x00	; 0
      00199E 00                    2586 	.db #0x00	; 0
      00199F 00                    2587 	.db #0x00	; 0
      0019A0 00                    2588 	.db #0x00	; 0
      0019A1 00                    2589 	.db #0x00	; 0
      0019A2 00                    2590 	.db #0x00	; 0
      0019A3 00                    2591 	.db #0x00	; 0
      0019A4 00                    2592 	.db #0x00	; 0
      0019A5 00                    2593 	.db #0x00	; 0
      0019A6 00                    2594 	.db #0x00	; 0
      0019A7 00                    2595 	.db #0x00	; 0
      0019A8 00                    2596 	.db #0x00	; 0
      0019A9 00                    2597 	.db #0x00	; 0
      0019AA 00                    2598 	.db #0x00	; 0
      0019AB 00                    2599 	.db #0x00	; 0
      0019AC 00                    2600 	.db #0x00	; 0
      0019AD 00                    2601 	.db #0x00	; 0
      0019AE 00                    2602 	.db #0x00	; 0
      0019AF 00                    2603 	.db #0x00	; 0
      0019B0 00                    2604 	.db #0x00	; 0
      0019B1 00                    2605 	.db #0x00	; 0
      0019B2 00                    2606 	.db #0x00	; 0
      0019B3 00                    2607 	.db #0x00	; 0
      0019B4 00                    2608 	.db #0x00	; 0
      0019B5 00                    2609 	.db #0x00	; 0
      0019B6 00                    2610 	.db #0x00	; 0
      0019B7 00                    2611 	.db #0x00	; 0
      0019B8 00                    2612 	.db #0x00	; 0
      0019B9 00                    2613 	.db #0x00	; 0
      0019BA 00                    2614 	.db #0x00	; 0
      0019BB 00                    2615 	.db #0x00	; 0
      0019BC 7F                    2616 	.db #0x7f	; 127
      0019BD 03                    2617 	.db #0x03	; 3
      0019BE 0C                    2618 	.db #0x0c	; 12
      0019BF 30                    2619 	.db #0x30	; 48	'0'
      0019C0 0C                    2620 	.db #0x0c	; 12
      0019C1 03                    2621 	.db #0x03	; 3
      0019C2 7F                    2622 	.db #0x7f	; 127
      0019C3 00                    2623 	.db #0x00	; 0
      0019C4 00                    2624 	.db #0x00	; 0
      0019C5 26                    2625 	.db #0x26	; 38
      0019C6 49                    2626 	.db #0x49	; 73	'I'
      0019C7 49                    2627 	.db #0x49	; 73	'I'
      0019C8 49                    2628 	.db #0x49	; 73	'I'
      0019C9 32                    2629 	.db #0x32	; 50	'2'
      0019CA 00                    2630 	.db #0x00	; 0
      0019CB 00                    2631 	.db #0x00	; 0
      0019CC 7F                    2632 	.db #0x7f	; 127
      0019CD 02                    2633 	.db #0x02	; 2
      0019CE 04                    2634 	.db #0x04	; 4
      0019CF 08                    2635 	.db #0x08	; 8
      0019D0 10                    2636 	.db #0x10	; 16
      0019D1 7F                    2637 	.db #0x7f	; 127
      0019D2 00                    2638 	.db #0x00	; 0
      0019D3                       2639 _BMP2:
      0019D3 00                    2640 	.db #0x00	; 0
      0019D4 03                    2641 	.db #0x03	; 3
      0019D5 05                    2642 	.db #0x05	; 5
      0019D6 09                    2643 	.db #0x09	; 9
      0019D7 11                    2644 	.db #0x11	; 17
      0019D8 FF                    2645 	.db #0xff	; 255
      0019D9 11                    2646 	.db #0x11	; 17
      0019DA 89                    2647 	.db #0x89	; 137
      0019DB 05                    2648 	.db #0x05	; 5
      0019DC C3                    2649 	.db #0xc3	; 195
      0019DD 00                    2650 	.db #0x00	; 0
      0019DE E0                    2651 	.db #0xe0	; 224
      0019DF 00                    2652 	.db #0x00	; 0
      0019E0 F0                    2653 	.db #0xf0	; 240
      0019E1 00                    2654 	.db #0x00	; 0
      0019E2 F8                    2655 	.db #0xf8	; 248
      0019E3 00                    2656 	.db #0x00	; 0
      0019E4 00                    2657 	.db #0x00	; 0
      0019E5 00                    2658 	.db #0x00	; 0
      0019E6 00                    2659 	.db #0x00	; 0
      0019E7 00                    2660 	.db #0x00	; 0
      0019E8 00                    2661 	.db #0x00	; 0
      0019E9 00                    2662 	.db #0x00	; 0
      0019EA 44                    2663 	.db #0x44	; 68	'D'
      0019EB 28                    2664 	.db #0x28	; 40
      0019EC FF                    2665 	.db #0xff	; 255
      0019ED 11                    2666 	.db #0x11	; 17
      0019EE AA                    2667 	.db #0xaa	; 170
      0019EF 44                    2668 	.db #0x44	; 68	'D'
      0019F0 00                    2669 	.db #0x00	; 0
      0019F1 00                    2670 	.db #0x00	; 0
      0019F2 00                    2671 	.db #0x00	; 0
      0019F3 00                    2672 	.db #0x00	; 0
      0019F4 00                    2673 	.db #0x00	; 0
      0019F5 00                    2674 	.db #0x00	; 0
      0019F6 00                    2675 	.db #0x00	; 0
      0019F7 00                    2676 	.db #0x00	; 0
      0019F8 00                    2677 	.db #0x00	; 0
      0019F9 00                    2678 	.db #0x00	; 0
      0019FA 00                    2679 	.db #0x00	; 0
      0019FB 00                    2680 	.db #0x00	; 0
      0019FC 00                    2681 	.db #0x00	; 0
      0019FD 00                    2682 	.db #0x00	; 0
      0019FE 00                    2683 	.db #0x00	; 0
      0019FF 00                    2684 	.db #0x00	; 0
      001A00 00                    2685 	.db #0x00	; 0
      001A01 00                    2686 	.db #0x00	; 0
      001A02 00                    2687 	.db #0x00	; 0
      001A03 00                    2688 	.db #0x00	; 0
      001A04 00                    2689 	.db #0x00	; 0
      001A05 00                    2690 	.db #0x00	; 0
      001A06 00                    2691 	.db #0x00	; 0
      001A07 00                    2692 	.db #0x00	; 0
      001A08 00                    2693 	.db #0x00	; 0
      001A09 00                    2694 	.db #0x00	; 0
      001A0A 00                    2695 	.db #0x00	; 0
      001A0B 00                    2696 	.db #0x00	; 0
      001A0C 00                    2697 	.db #0x00	; 0
      001A0D 00                    2698 	.db #0x00	; 0
      001A0E 00                    2699 	.db #0x00	; 0
      001A0F 00                    2700 	.db #0x00	; 0
      001A10 00                    2701 	.db #0x00	; 0
      001A11 00                    2702 	.db #0x00	; 0
      001A12 00                    2703 	.db #0x00	; 0
      001A13 00                    2704 	.db #0x00	; 0
      001A14 00                    2705 	.db #0x00	; 0
      001A15 00                    2706 	.db #0x00	; 0
      001A16 00                    2707 	.db #0x00	; 0
      001A17 00                    2708 	.db #0x00	; 0
      001A18 00                    2709 	.db #0x00	; 0
      001A19 00                    2710 	.db #0x00	; 0
      001A1A 00                    2711 	.db #0x00	; 0
      001A1B 00                    2712 	.db #0x00	; 0
      001A1C 00                    2713 	.db #0x00	; 0
      001A1D 00                    2714 	.db #0x00	; 0
      001A1E 00                    2715 	.db #0x00	; 0
      001A1F 00                    2716 	.db #0x00	; 0
      001A20 00                    2717 	.db #0x00	; 0
      001A21 00                    2718 	.db #0x00	; 0
      001A22 00                    2719 	.db #0x00	; 0
      001A23 00                    2720 	.db #0x00	; 0
      001A24 00                    2721 	.db #0x00	; 0
      001A25 00                    2722 	.db #0x00	; 0
      001A26 00                    2723 	.db #0x00	; 0
      001A27 00                    2724 	.db #0x00	; 0
      001A28 00                    2725 	.db #0x00	; 0
      001A29 00                    2726 	.db #0x00	; 0
      001A2A 00                    2727 	.db #0x00	; 0
      001A2B 00                    2728 	.db #0x00	; 0
      001A2C 00                    2729 	.db #0x00	; 0
      001A2D 83                    2730 	.db #0x83	; 131
      001A2E 01                    2731 	.db #0x01	; 1
      001A2F 38                    2732 	.db #0x38	; 56	'8'
      001A30 44                    2733 	.db #0x44	; 68	'D'
      001A31 82                    2734 	.db #0x82	; 130
      001A32 92                    2735 	.db #0x92	; 146
      001A33 92                    2736 	.db #0x92	; 146
      001A34 74                    2737 	.db #0x74	; 116	't'
      001A35 01                    2738 	.db #0x01	; 1
      001A36 83                    2739 	.db #0x83	; 131
      001A37 00                    2740 	.db #0x00	; 0
      001A38 00                    2741 	.db #0x00	; 0
      001A39 00                    2742 	.db #0x00	; 0
      001A3A 00                    2743 	.db #0x00	; 0
      001A3B 00                    2744 	.db #0x00	; 0
      001A3C 00                    2745 	.db #0x00	; 0
      001A3D 00                    2746 	.db #0x00	; 0
      001A3E 7C                    2747 	.db #0x7c	; 124
      001A3F 44                    2748 	.db #0x44	; 68	'D'
      001A40 FF                    2749 	.db #0xff	; 255
      001A41 01                    2750 	.db #0x01	; 1
      001A42 7D                    2751 	.db #0x7d	; 125
      001A43 7D                    2752 	.db #0x7d	; 125
      001A44 7D                    2753 	.db #0x7d	; 125
      001A45 7D                    2754 	.db #0x7d	; 125
      001A46 01                    2755 	.db #0x01	; 1
      001A47 7D                    2756 	.db #0x7d	; 125
      001A48 7D                    2757 	.db #0x7d	; 125
      001A49 7D                    2758 	.db #0x7d	; 125
      001A4A 7D                    2759 	.db #0x7d	; 125
      001A4B 01                    2760 	.db #0x01	; 1
      001A4C 7D                    2761 	.db #0x7d	; 125
      001A4D 7D                    2762 	.db #0x7d	; 125
      001A4E 7D                    2763 	.db #0x7d	; 125
      001A4F 7D                    2764 	.db #0x7d	; 125
      001A50 01                    2765 	.db #0x01	; 1
      001A51 FF                    2766 	.db #0xff	; 255
      001A52 00                    2767 	.db #0x00	; 0
      001A53 00                    2768 	.db #0x00	; 0
      001A54 00                    2769 	.db #0x00	; 0
      001A55 00                    2770 	.db #0x00	; 0
      001A56 00                    2771 	.db #0x00	; 0
      001A57 00                    2772 	.db #0x00	; 0
      001A58 01                    2773 	.db #0x01	; 1
      001A59 00                    2774 	.db #0x00	; 0
      001A5A 01                    2775 	.db #0x01	; 1
      001A5B 00                    2776 	.db #0x00	; 0
      001A5C 01                    2777 	.db #0x01	; 1
      001A5D 00                    2778 	.db #0x00	; 0
      001A5E 01                    2779 	.db #0x01	; 1
      001A5F 00                    2780 	.db #0x00	; 0
      001A60 01                    2781 	.db #0x01	; 1
      001A61 00                    2782 	.db #0x00	; 0
      001A62 01                    2783 	.db #0x01	; 1
      001A63 00                    2784 	.db #0x00	; 0
      001A64 00                    2785 	.db #0x00	; 0
      001A65 00                    2786 	.db #0x00	; 0
      001A66 00                    2787 	.db #0x00	; 0
      001A67 00                    2788 	.db #0x00	; 0
      001A68 00                    2789 	.db #0x00	; 0
      001A69 00                    2790 	.db #0x00	; 0
      001A6A 00                    2791 	.db #0x00	; 0
      001A6B 00                    2792 	.db #0x00	; 0
      001A6C 01                    2793 	.db #0x01	; 1
      001A6D 01                    2794 	.db #0x01	; 1
      001A6E 00                    2795 	.db #0x00	; 0
      001A6F 00                    2796 	.db #0x00	; 0
      001A70 00                    2797 	.db #0x00	; 0
      001A71 00                    2798 	.db #0x00	; 0
      001A72 00                    2799 	.db #0x00	; 0
      001A73 00                    2800 	.db #0x00	; 0
      001A74 00                    2801 	.db #0x00	; 0
      001A75 00                    2802 	.db #0x00	; 0
      001A76 00                    2803 	.db #0x00	; 0
      001A77 00                    2804 	.db #0x00	; 0
      001A78 00                    2805 	.db #0x00	; 0
      001A79 00                    2806 	.db #0x00	; 0
      001A7A 00                    2807 	.db #0x00	; 0
      001A7B 00                    2808 	.db #0x00	; 0
      001A7C 00                    2809 	.db #0x00	; 0
      001A7D 00                    2810 	.db #0x00	; 0
      001A7E 00                    2811 	.db #0x00	; 0
      001A7F 00                    2812 	.db #0x00	; 0
      001A80 00                    2813 	.db #0x00	; 0
      001A81 00                    2814 	.db #0x00	; 0
      001A82 00                    2815 	.db #0x00	; 0
      001A83 00                    2816 	.db #0x00	; 0
      001A84 00                    2817 	.db #0x00	; 0
      001A85 00                    2818 	.db #0x00	; 0
      001A86 00                    2819 	.db #0x00	; 0
      001A87 00                    2820 	.db #0x00	; 0
      001A88 00                    2821 	.db #0x00	; 0
      001A89 00                    2822 	.db #0x00	; 0
      001A8A 00                    2823 	.db #0x00	; 0
      001A8B 00                    2824 	.db #0x00	; 0
      001A8C 00                    2825 	.db #0x00	; 0
      001A8D 00                    2826 	.db #0x00	; 0
      001A8E 00                    2827 	.db #0x00	; 0
      001A8F 00                    2828 	.db #0x00	; 0
      001A90 00                    2829 	.db #0x00	; 0
      001A91 00                    2830 	.db #0x00	; 0
      001A92 00                    2831 	.db #0x00	; 0
      001A93 00                    2832 	.db #0x00	; 0
      001A94 00                    2833 	.db #0x00	; 0
      001A95 00                    2834 	.db #0x00	; 0
      001A96 00                    2835 	.db #0x00	; 0
      001A97 00                    2836 	.db #0x00	; 0
      001A98 00                    2837 	.db #0x00	; 0
      001A99 00                    2838 	.db #0x00	; 0
      001A9A 00                    2839 	.db #0x00	; 0
      001A9B 00                    2840 	.db #0x00	; 0
      001A9C 00                    2841 	.db #0x00	; 0
      001A9D 00                    2842 	.db #0x00	; 0
      001A9E 00                    2843 	.db #0x00	; 0
      001A9F 00                    2844 	.db #0x00	; 0
      001AA0 00                    2845 	.db #0x00	; 0
      001AA1 00                    2846 	.db #0x00	; 0
      001AA2 00                    2847 	.db #0x00	; 0
      001AA3 00                    2848 	.db #0x00	; 0
      001AA4 00                    2849 	.db #0x00	; 0
      001AA5 00                    2850 	.db #0x00	; 0
      001AA6 00                    2851 	.db #0x00	; 0
      001AA7 00                    2852 	.db #0x00	; 0
      001AA8 00                    2853 	.db #0x00	; 0
      001AA9 00                    2854 	.db #0x00	; 0
      001AAA 00                    2855 	.db #0x00	; 0
      001AAB 00                    2856 	.db #0x00	; 0
      001AAC 00                    2857 	.db #0x00	; 0
      001AAD 01                    2858 	.db #0x01	; 1
      001AAE 01                    2859 	.db #0x01	; 1
      001AAF 00                    2860 	.db #0x00	; 0
      001AB0 00                    2861 	.db #0x00	; 0
      001AB1 00                    2862 	.db #0x00	; 0
      001AB2 00                    2863 	.db #0x00	; 0
      001AB3 00                    2864 	.db #0x00	; 0
      001AB4 00                    2865 	.db #0x00	; 0
      001AB5 01                    2866 	.db #0x01	; 1
      001AB6 01                    2867 	.db #0x01	; 1
      001AB7 00                    2868 	.db #0x00	; 0
      001AB8 00                    2869 	.db #0x00	; 0
      001AB9 00                    2870 	.db #0x00	; 0
      001ABA 00                    2871 	.db #0x00	; 0
      001ABB 00                    2872 	.db #0x00	; 0
      001ABC 00                    2873 	.db #0x00	; 0
      001ABD 00                    2874 	.db #0x00	; 0
      001ABE 00                    2875 	.db #0x00	; 0
      001ABF 00                    2876 	.db #0x00	; 0
      001AC0 01                    2877 	.db #0x01	; 1
      001AC1 01                    2878 	.db #0x01	; 1
      001AC2 01                    2879 	.db #0x01	; 1
      001AC3 01                    2880 	.db #0x01	; 1
      001AC4 01                    2881 	.db #0x01	; 1
      001AC5 01                    2882 	.db #0x01	; 1
      001AC6 01                    2883 	.db #0x01	; 1
      001AC7 01                    2884 	.db #0x01	; 1
      001AC8 01                    2885 	.db #0x01	; 1
      001AC9 01                    2886 	.db #0x01	; 1
      001ACA 01                    2887 	.db #0x01	; 1
      001ACB 01                    2888 	.db #0x01	; 1
      001ACC 01                    2889 	.db #0x01	; 1
      001ACD 01                    2890 	.db #0x01	; 1
      001ACE 01                    2891 	.db #0x01	; 1
      001ACF 01                    2892 	.db #0x01	; 1
      001AD0 01                    2893 	.db #0x01	; 1
      001AD1 01                    2894 	.db #0x01	; 1
      001AD2 00                    2895 	.db #0x00	; 0
      001AD3 00                    2896 	.db #0x00	; 0
      001AD4 00                    2897 	.db #0x00	; 0
      001AD5 00                    2898 	.db #0x00	; 0
      001AD6 00                    2899 	.db #0x00	; 0
      001AD7 00                    2900 	.db #0x00	; 0
      001AD8 00                    2901 	.db #0x00	; 0
      001AD9 00                    2902 	.db #0x00	; 0
      001ADA 00                    2903 	.db #0x00	; 0
      001ADB 00                    2904 	.db #0x00	; 0
      001ADC 00                    2905 	.db #0x00	; 0
      001ADD 00                    2906 	.db #0x00	; 0
      001ADE 00                    2907 	.db #0x00	; 0
      001ADF 00                    2908 	.db #0x00	; 0
      001AE0 00                    2909 	.db #0x00	; 0
      001AE1 00                    2910 	.db #0x00	; 0
      001AE2 00                    2911 	.db #0x00	; 0
      001AE3 00                    2912 	.db #0x00	; 0
      001AE4 00                    2913 	.db #0x00	; 0
      001AE5 00                    2914 	.db #0x00	; 0
      001AE6 00                    2915 	.db #0x00	; 0
      001AE7 00                    2916 	.db #0x00	; 0
      001AE8 00                    2917 	.db #0x00	; 0
      001AE9 00                    2918 	.db #0x00	; 0
      001AEA 00                    2919 	.db #0x00	; 0
      001AEB 00                    2920 	.db #0x00	; 0
      001AEC 00                    2921 	.db #0x00	; 0
      001AED 00                    2922 	.db #0x00	; 0
      001AEE 00                    2923 	.db #0x00	; 0
      001AEF 00                    2924 	.db #0x00	; 0
      001AF0 00                    2925 	.db #0x00	; 0
      001AF1 00                    2926 	.db #0x00	; 0
      001AF2 F8                    2927 	.db #0xf8	; 248
      001AF3 08                    2928 	.db #0x08	; 8
      001AF4 08                    2929 	.db #0x08	; 8
      001AF5 08                    2930 	.db #0x08	; 8
      001AF6 08                    2931 	.db #0x08	; 8
      001AF7 08                    2932 	.db #0x08	; 8
      001AF8 08                    2933 	.db #0x08	; 8
      001AF9 08                    2934 	.db #0x08	; 8
      001AFA 00                    2935 	.db #0x00	; 0
      001AFB F8                    2936 	.db #0xf8	; 248
      001AFC 18                    2937 	.db #0x18	; 24
      001AFD 60                    2938 	.db #0x60	; 96
      001AFE 80                    2939 	.db #0x80	; 128
      001AFF 00                    2940 	.db #0x00	; 0
      001B00 00                    2941 	.db #0x00	; 0
      001B01 00                    2942 	.db #0x00	; 0
      001B02 80                    2943 	.db #0x80	; 128
      001B03 60                    2944 	.db #0x60	; 96
      001B04 18                    2945 	.db #0x18	; 24
      001B05 F8                    2946 	.db #0xf8	; 248
      001B06 00                    2947 	.db #0x00	; 0
      001B07 00                    2948 	.db #0x00	; 0
      001B08 00                    2949 	.db #0x00	; 0
      001B09 20                    2950 	.db #0x20	; 32
      001B0A 20                    2951 	.db #0x20	; 32
      001B0B F8                    2952 	.db #0xf8	; 248
      001B0C 00                    2953 	.db #0x00	; 0
      001B0D 00                    2954 	.db #0x00	; 0
      001B0E 00                    2955 	.db #0x00	; 0
      001B0F 00                    2956 	.db #0x00	; 0
      001B10 00                    2957 	.db #0x00	; 0
      001B11 00                    2958 	.db #0x00	; 0
      001B12 E0                    2959 	.db #0xe0	; 224
      001B13 10                    2960 	.db #0x10	; 16
      001B14 08                    2961 	.db #0x08	; 8
      001B15 08                    2962 	.db #0x08	; 8
      001B16 08                    2963 	.db #0x08	; 8
      001B17 08                    2964 	.db #0x08	; 8
      001B18 10                    2965 	.db #0x10	; 16
      001B19 E0                    2966 	.db #0xe0	; 224
      001B1A 00                    2967 	.db #0x00	; 0
      001B1B 00                    2968 	.db #0x00	; 0
      001B1C 00                    2969 	.db #0x00	; 0
      001B1D 20                    2970 	.db #0x20	; 32
      001B1E 20                    2971 	.db #0x20	; 32
      001B1F F8                    2972 	.db #0xf8	; 248
      001B20 00                    2973 	.db #0x00	; 0
      001B21 00                    2974 	.db #0x00	; 0
      001B22 00                    2975 	.db #0x00	; 0
      001B23 00                    2976 	.db #0x00	; 0
      001B24 00                    2977 	.db #0x00	; 0
      001B25 00                    2978 	.db #0x00	; 0
      001B26 00                    2979 	.db #0x00	; 0
      001B27 00                    2980 	.db #0x00	; 0
      001B28 00                    2981 	.db #0x00	; 0
      001B29 00                    2982 	.db #0x00	; 0
      001B2A 00                    2983 	.db #0x00	; 0
      001B2B 00                    2984 	.db #0x00	; 0
      001B2C 08                    2985 	.db #0x08	; 8
      001B2D 08                    2986 	.db #0x08	; 8
      001B2E 08                    2987 	.db #0x08	; 8
      001B2F 08                    2988 	.db #0x08	; 8
      001B30 08                    2989 	.db #0x08	; 8
      001B31 88                    2990 	.db #0x88	; 136
      001B32 68                    2991 	.db #0x68	; 104	'h'
      001B33 18                    2992 	.db #0x18	; 24
      001B34 00                    2993 	.db #0x00	; 0
      001B35 00                    2994 	.db #0x00	; 0
      001B36 00                    2995 	.db #0x00	; 0
      001B37 00                    2996 	.db #0x00	; 0
      001B38 00                    2997 	.db #0x00	; 0
      001B39 00                    2998 	.db #0x00	; 0
      001B3A 00                    2999 	.db #0x00	; 0
      001B3B 00                    3000 	.db #0x00	; 0
      001B3C 00                    3001 	.db #0x00	; 0
      001B3D 00                    3002 	.db #0x00	; 0
      001B3E 00                    3003 	.db #0x00	; 0
      001B3F 00                    3004 	.db #0x00	; 0
      001B40 00                    3005 	.db #0x00	; 0
      001B41 00                    3006 	.db #0x00	; 0
      001B42 00                    3007 	.db #0x00	; 0
      001B43 00                    3008 	.db #0x00	; 0
      001B44 00                    3009 	.db #0x00	; 0
      001B45 00                    3010 	.db #0x00	; 0
      001B46 00                    3011 	.db #0x00	; 0
      001B47 00                    3012 	.db #0x00	; 0
      001B48 00                    3013 	.db #0x00	; 0
      001B49 00                    3014 	.db #0x00	; 0
      001B4A 00                    3015 	.db #0x00	; 0
      001B4B 00                    3016 	.db #0x00	; 0
      001B4C 00                    3017 	.db #0x00	; 0
      001B4D 00                    3018 	.db #0x00	; 0
      001B4E 00                    3019 	.db #0x00	; 0
      001B4F 00                    3020 	.db #0x00	; 0
      001B50 00                    3021 	.db #0x00	; 0
      001B51 00                    3022 	.db #0x00	; 0
      001B52 00                    3023 	.db #0x00	; 0
      001B53 00                    3024 	.db #0x00	; 0
      001B54 00                    3025 	.db #0x00	; 0
      001B55 00                    3026 	.db #0x00	; 0
      001B56 00                    3027 	.db #0x00	; 0
      001B57 00                    3028 	.db #0x00	; 0
      001B58 00                    3029 	.db #0x00	; 0
      001B59 00                    3030 	.db #0x00	; 0
      001B5A 00                    3031 	.db #0x00	; 0
      001B5B 00                    3032 	.db #0x00	; 0
      001B5C 00                    3033 	.db #0x00	; 0
      001B5D 00                    3034 	.db #0x00	; 0
      001B5E 00                    3035 	.db #0x00	; 0
      001B5F 00                    3036 	.db #0x00	; 0
      001B60 00                    3037 	.db #0x00	; 0
      001B61 00                    3038 	.db #0x00	; 0
      001B62 00                    3039 	.db #0x00	; 0
      001B63 00                    3040 	.db #0x00	; 0
      001B64 00                    3041 	.db #0x00	; 0
      001B65 00                    3042 	.db #0x00	; 0
      001B66 00                    3043 	.db #0x00	; 0
      001B67 00                    3044 	.db #0x00	; 0
      001B68 00                    3045 	.db #0x00	; 0
      001B69 00                    3046 	.db #0x00	; 0
      001B6A 00                    3047 	.db #0x00	; 0
      001B6B 00                    3048 	.db #0x00	; 0
      001B6C 00                    3049 	.db #0x00	; 0
      001B6D 00                    3050 	.db #0x00	; 0
      001B6E 00                    3051 	.db #0x00	; 0
      001B6F 00                    3052 	.db #0x00	; 0
      001B70 00                    3053 	.db #0x00	; 0
      001B71 00                    3054 	.db #0x00	; 0
      001B72 7F                    3055 	.db #0x7f	; 127
      001B73 01                    3056 	.db #0x01	; 1
      001B74 01                    3057 	.db #0x01	; 1
      001B75 01                    3058 	.db #0x01	; 1
      001B76 01                    3059 	.db #0x01	; 1
      001B77 01                    3060 	.db #0x01	; 1
      001B78 01                    3061 	.db #0x01	; 1
      001B79 00                    3062 	.db #0x00	; 0
      001B7A 00                    3063 	.db #0x00	; 0
      001B7B 7F                    3064 	.db #0x7f	; 127
      001B7C 00                    3065 	.db #0x00	; 0
      001B7D 00                    3066 	.db #0x00	; 0
      001B7E 01                    3067 	.db #0x01	; 1
      001B7F 06                    3068 	.db #0x06	; 6
      001B80 18                    3069 	.db #0x18	; 24
      001B81 06                    3070 	.db #0x06	; 6
      001B82 01                    3071 	.db #0x01	; 1
      001B83 00                    3072 	.db #0x00	; 0
      001B84 00                    3073 	.db #0x00	; 0
      001B85 7F                    3074 	.db #0x7f	; 127
      001B86 00                    3075 	.db #0x00	; 0
      001B87 00                    3076 	.db #0x00	; 0
      001B88 00                    3077 	.db #0x00	; 0
      001B89 40                    3078 	.db #0x40	; 64
      001B8A 40                    3079 	.db #0x40	; 64
      001B8B 7F                    3080 	.db #0x7f	; 127
      001B8C 40                    3081 	.db #0x40	; 64
      001B8D 40                    3082 	.db #0x40	; 64
      001B8E 00                    3083 	.db #0x00	; 0
      001B8F 00                    3084 	.db #0x00	; 0
      001B90 00                    3085 	.db #0x00	; 0
      001B91 00                    3086 	.db #0x00	; 0
      001B92 1F                    3087 	.db #0x1f	; 31
      001B93 20                    3088 	.db #0x20	; 32
      001B94 40                    3089 	.db #0x40	; 64
      001B95 40                    3090 	.db #0x40	; 64
      001B96 40                    3091 	.db #0x40	; 64
      001B97 40                    3092 	.db #0x40	; 64
      001B98 20                    3093 	.db #0x20	; 32
      001B99 1F                    3094 	.db #0x1f	; 31
      001B9A 00                    3095 	.db #0x00	; 0
      001B9B 00                    3096 	.db #0x00	; 0
      001B9C 00                    3097 	.db #0x00	; 0
      001B9D 40                    3098 	.db #0x40	; 64
      001B9E 40                    3099 	.db #0x40	; 64
      001B9F 7F                    3100 	.db #0x7f	; 127
      001BA0 40                    3101 	.db #0x40	; 64
      001BA1 40                    3102 	.db #0x40	; 64
      001BA2 00                    3103 	.db #0x00	; 0
      001BA3 00                    3104 	.db #0x00	; 0
      001BA4 00                    3105 	.db #0x00	; 0
      001BA5 00                    3106 	.db #0x00	; 0
      001BA6 00                    3107 	.db #0x00	; 0
      001BA7 60                    3108 	.db #0x60	; 96
      001BA8 00                    3109 	.db #0x00	; 0
      001BA9 00                    3110 	.db #0x00	; 0
      001BAA 00                    3111 	.db #0x00	; 0
      001BAB 00                    3112 	.db #0x00	; 0
      001BAC 00                    3113 	.db #0x00	; 0
      001BAD 00                    3114 	.db #0x00	; 0
      001BAE 60                    3115 	.db #0x60	; 96
      001BAF 18                    3116 	.db #0x18	; 24
      001BB0 06                    3117 	.db #0x06	; 6
      001BB1 01                    3118 	.db #0x01	; 1
      001BB2 00                    3119 	.db #0x00	; 0
      001BB3 00                    3120 	.db #0x00	; 0
      001BB4 00                    3121 	.db #0x00	; 0
      001BB5 00                    3122 	.db #0x00	; 0
      001BB6 00                    3123 	.db #0x00	; 0
      001BB7 00                    3124 	.db #0x00	; 0
      001BB8 00                    3125 	.db #0x00	; 0
      001BB9 00                    3126 	.db #0x00	; 0
      001BBA 00                    3127 	.db #0x00	; 0
      001BBB 00                    3128 	.db #0x00	; 0
      001BBC 00                    3129 	.db #0x00	; 0
      001BBD 00                    3130 	.db #0x00	; 0
      001BBE 00                    3131 	.db #0x00	; 0
      001BBF 00                    3132 	.db #0x00	; 0
      001BC0 00                    3133 	.db #0x00	; 0
      001BC1 00                    3134 	.db #0x00	; 0
      001BC2 00                    3135 	.db #0x00	; 0
      001BC3 00                    3136 	.db #0x00	; 0
      001BC4 00                    3137 	.db #0x00	; 0
      001BC5 00                    3138 	.db #0x00	; 0
      001BC6 00                    3139 	.db #0x00	; 0
      001BC7 00                    3140 	.db #0x00	; 0
      001BC8 00                    3141 	.db #0x00	; 0
      001BC9 00                    3142 	.db #0x00	; 0
      001BCA 00                    3143 	.db #0x00	; 0
      001BCB 00                    3144 	.db #0x00	; 0
      001BCC 00                    3145 	.db #0x00	; 0
      001BCD 00                    3146 	.db #0x00	; 0
      001BCE 00                    3147 	.db #0x00	; 0
      001BCF 00                    3148 	.db #0x00	; 0
      001BD0 00                    3149 	.db #0x00	; 0
      001BD1 00                    3150 	.db #0x00	; 0
      001BD2 00                    3151 	.db #0x00	; 0
      001BD3 00                    3152 	.db #0x00	; 0
      001BD4 00                    3153 	.db #0x00	; 0
      001BD5 00                    3154 	.db #0x00	; 0
      001BD6 00                    3155 	.db #0x00	; 0
      001BD7 00                    3156 	.db #0x00	; 0
      001BD8 00                    3157 	.db #0x00	; 0
      001BD9 00                    3158 	.db #0x00	; 0
      001BDA 00                    3159 	.db #0x00	; 0
      001BDB 00                    3160 	.db #0x00	; 0
      001BDC 00                    3161 	.db #0x00	; 0
      001BDD 00                    3162 	.db #0x00	; 0
      001BDE 00                    3163 	.db #0x00	; 0
      001BDF 00                    3164 	.db #0x00	; 0
      001BE0 00                    3165 	.db #0x00	; 0
      001BE1 00                    3166 	.db #0x00	; 0
      001BE2 00                    3167 	.db #0x00	; 0
      001BE3 00                    3168 	.db #0x00	; 0
      001BE4 00                    3169 	.db #0x00	; 0
      001BE5 00                    3170 	.db #0x00	; 0
      001BE6 00                    3171 	.db #0x00	; 0
      001BE7 00                    3172 	.db #0x00	; 0
      001BE8 00                    3173 	.db #0x00	; 0
      001BE9 00                    3174 	.db #0x00	; 0
      001BEA 00                    3175 	.db #0x00	; 0
      001BEB 00                    3176 	.db #0x00	; 0
      001BEC 00                    3177 	.db #0x00	; 0
      001BED 00                    3178 	.db #0x00	; 0
      001BEE 00                    3179 	.db #0x00	; 0
      001BEF 00                    3180 	.db #0x00	; 0
      001BF0 00                    3181 	.db #0x00	; 0
      001BF1 00                    3182 	.db #0x00	; 0
      001BF2 00                    3183 	.db #0x00	; 0
      001BF3 00                    3184 	.db #0x00	; 0
      001BF4 00                    3185 	.db #0x00	; 0
      001BF5 00                    3186 	.db #0x00	; 0
      001BF6 00                    3187 	.db #0x00	; 0
      001BF7 00                    3188 	.db #0x00	; 0
      001BF8 40                    3189 	.db #0x40	; 64
      001BF9 20                    3190 	.db #0x20	; 32
      001BFA 20                    3191 	.db #0x20	; 32
      001BFB 20                    3192 	.db #0x20	; 32
      001BFC C0                    3193 	.db #0xc0	; 192
      001BFD 00                    3194 	.db #0x00	; 0
      001BFE 00                    3195 	.db #0x00	; 0
      001BFF E0                    3196 	.db #0xe0	; 224
      001C00 20                    3197 	.db #0x20	; 32
      001C01 20                    3198 	.db #0x20	; 32
      001C02 20                    3199 	.db #0x20	; 32
      001C03 E0                    3200 	.db #0xe0	; 224
      001C04 00                    3201 	.db #0x00	; 0
      001C05 00                    3202 	.db #0x00	; 0
      001C06 00                    3203 	.db #0x00	; 0
      001C07 40                    3204 	.db #0x40	; 64
      001C08 E0                    3205 	.db #0xe0	; 224
      001C09 00                    3206 	.db #0x00	; 0
      001C0A 00                    3207 	.db #0x00	; 0
      001C0B 00                    3208 	.db #0x00	; 0
      001C0C 00                    3209 	.db #0x00	; 0
      001C0D 60                    3210 	.db #0x60	; 96
      001C0E 20                    3211 	.db #0x20	; 32
      001C0F 20                    3212 	.db #0x20	; 32
      001C10 20                    3213 	.db #0x20	; 32
      001C11 E0                    3214 	.db #0xe0	; 224
      001C12 00                    3215 	.db #0x00	; 0
      001C13 00                    3216 	.db #0x00	; 0
      001C14 00                    3217 	.db #0x00	; 0
      001C15 00                    3218 	.db #0x00	; 0
      001C16 00                    3219 	.db #0x00	; 0
      001C17 E0                    3220 	.db #0xe0	; 224
      001C18 20                    3221 	.db #0x20	; 32
      001C19 20                    3222 	.db #0x20	; 32
      001C1A 20                    3223 	.db #0x20	; 32
      001C1B E0                    3224 	.db #0xe0	; 224
      001C1C 00                    3225 	.db #0x00	; 0
      001C1D 00                    3226 	.db #0x00	; 0
      001C1E 00                    3227 	.db #0x00	; 0
      001C1F 00                    3228 	.db #0x00	; 0
      001C20 00                    3229 	.db #0x00	; 0
      001C21 40                    3230 	.db #0x40	; 64
      001C22 20                    3231 	.db #0x20	; 32
      001C23 20                    3232 	.db #0x20	; 32
      001C24 20                    3233 	.db #0x20	; 32
      001C25 C0                    3234 	.db #0xc0	; 192
      001C26 00                    3235 	.db #0x00	; 0
      001C27 00                    3236 	.db #0x00	; 0
      001C28 40                    3237 	.db #0x40	; 64
      001C29 20                    3238 	.db #0x20	; 32
      001C2A 20                    3239 	.db #0x20	; 32
      001C2B 20                    3240 	.db #0x20	; 32
      001C2C C0                    3241 	.db #0xc0	; 192
      001C2D 00                    3242 	.db #0x00	; 0
      001C2E 00                    3243 	.db #0x00	; 0
      001C2F 00                    3244 	.db #0x00	; 0
      001C30 00                    3245 	.db #0x00	; 0
      001C31 00                    3246 	.db #0x00	; 0
      001C32 00                    3247 	.db #0x00	; 0
      001C33 00                    3248 	.db #0x00	; 0
      001C34 00                    3249 	.db #0x00	; 0
      001C35 00                    3250 	.db #0x00	; 0
      001C36 00                    3251 	.db #0x00	; 0
      001C37 00                    3252 	.db #0x00	; 0
      001C38 00                    3253 	.db #0x00	; 0
      001C39 00                    3254 	.db #0x00	; 0
      001C3A 00                    3255 	.db #0x00	; 0
      001C3B 00                    3256 	.db #0x00	; 0
      001C3C 00                    3257 	.db #0x00	; 0
      001C3D 00                    3258 	.db #0x00	; 0
      001C3E 00                    3259 	.db #0x00	; 0
      001C3F 00                    3260 	.db #0x00	; 0
      001C40 00                    3261 	.db #0x00	; 0
      001C41 00                    3262 	.db #0x00	; 0
      001C42 00                    3263 	.db #0x00	; 0
      001C43 00                    3264 	.db #0x00	; 0
      001C44 00                    3265 	.db #0x00	; 0
      001C45 00                    3266 	.db #0x00	; 0
      001C46 00                    3267 	.db #0x00	; 0
      001C47 00                    3268 	.db #0x00	; 0
      001C48 00                    3269 	.db #0x00	; 0
      001C49 00                    3270 	.db #0x00	; 0
      001C4A 00                    3271 	.db #0x00	; 0
      001C4B 00                    3272 	.db #0x00	; 0
      001C4C 00                    3273 	.db #0x00	; 0
      001C4D 00                    3274 	.db #0x00	; 0
      001C4E 00                    3275 	.db #0x00	; 0
      001C4F 00                    3276 	.db #0x00	; 0
      001C50 00                    3277 	.db #0x00	; 0
      001C51 00                    3278 	.db #0x00	; 0
      001C52 00                    3279 	.db #0x00	; 0
      001C53 00                    3280 	.db #0x00	; 0
      001C54 00                    3281 	.db #0x00	; 0
      001C55 00                    3282 	.db #0x00	; 0
      001C56 00                    3283 	.db #0x00	; 0
      001C57 00                    3284 	.db #0x00	; 0
      001C58 00                    3285 	.db #0x00	; 0
      001C59 00                    3286 	.db #0x00	; 0
      001C5A 00                    3287 	.db #0x00	; 0
      001C5B 00                    3288 	.db #0x00	; 0
      001C5C 00                    3289 	.db #0x00	; 0
      001C5D 00                    3290 	.db #0x00	; 0
      001C5E 00                    3291 	.db #0x00	; 0
      001C5F 00                    3292 	.db #0x00	; 0
      001C60 00                    3293 	.db #0x00	; 0
      001C61 00                    3294 	.db #0x00	; 0
      001C62 00                    3295 	.db #0x00	; 0
      001C63 00                    3296 	.db #0x00	; 0
      001C64 00                    3297 	.db #0x00	; 0
      001C65 00                    3298 	.db #0x00	; 0
      001C66 00                    3299 	.db #0x00	; 0
      001C67 00                    3300 	.db #0x00	; 0
      001C68 00                    3301 	.db #0x00	; 0
      001C69 00                    3302 	.db #0x00	; 0
      001C6A 00                    3303 	.db #0x00	; 0
      001C6B 00                    3304 	.db #0x00	; 0
      001C6C 00                    3305 	.db #0x00	; 0
      001C6D 00                    3306 	.db #0x00	; 0
      001C6E 00                    3307 	.db #0x00	; 0
      001C6F 00                    3308 	.db #0x00	; 0
      001C70 00                    3309 	.db #0x00	; 0
      001C71 00                    3310 	.db #0x00	; 0
      001C72 00                    3311 	.db #0x00	; 0
      001C73 00                    3312 	.db #0x00	; 0
      001C74 00                    3313 	.db #0x00	; 0
      001C75 00                    3314 	.db #0x00	; 0
      001C76 00                    3315 	.db #0x00	; 0
      001C77 00                    3316 	.db #0x00	; 0
      001C78 0C                    3317 	.db #0x0c	; 12
      001C79 0A                    3318 	.db #0x0a	; 10
      001C7A 0A                    3319 	.db #0x0a	; 10
      001C7B 09                    3320 	.db #0x09	; 9
      001C7C 0C                    3321 	.db #0x0c	; 12
      001C7D 00                    3322 	.db #0x00	; 0
      001C7E 00                    3323 	.db #0x00	; 0
      001C7F 0F                    3324 	.db #0x0f	; 15
      001C80 08                    3325 	.db #0x08	; 8
      001C81 08                    3326 	.db #0x08	; 8
      001C82 08                    3327 	.db #0x08	; 8
      001C83 0F                    3328 	.db #0x0f	; 15
      001C84 00                    3329 	.db #0x00	; 0
      001C85 00                    3330 	.db #0x00	; 0
      001C86 00                    3331 	.db #0x00	; 0
      001C87 08                    3332 	.db #0x08	; 8
      001C88 0F                    3333 	.db #0x0f	; 15
      001C89 08                    3334 	.db #0x08	; 8
      001C8A 00                    3335 	.db #0x00	; 0
      001C8B 00                    3336 	.db #0x00	; 0
      001C8C 00                    3337 	.db #0x00	; 0
      001C8D 0C                    3338 	.db #0x0c	; 12
      001C8E 08                    3339 	.db #0x08	; 8
      001C8F 09                    3340 	.db #0x09	; 9
      001C90 09                    3341 	.db #0x09	; 9
      001C91 0E                    3342 	.db #0x0e	; 14
      001C92 00                    3343 	.db #0x00	; 0
      001C93 00                    3344 	.db #0x00	; 0
      001C94 0C                    3345 	.db #0x0c	; 12
      001C95 00                    3346 	.db #0x00	; 0
      001C96 00                    3347 	.db #0x00	; 0
      001C97 0F                    3348 	.db #0x0f	; 15
      001C98 09                    3349 	.db #0x09	; 9
      001C99 09                    3350 	.db #0x09	; 9
      001C9A 09                    3351 	.db #0x09	; 9
      001C9B 0F                    3352 	.db #0x0f	; 15
      001C9C 00                    3353 	.db #0x00	; 0
      001C9D 00                    3354 	.db #0x00	; 0
      001C9E 0C                    3355 	.db #0x0c	; 12
      001C9F 00                    3356 	.db #0x00	; 0
      001CA0 00                    3357 	.db #0x00	; 0
      001CA1 0C                    3358 	.db #0x0c	; 12
      001CA2 0A                    3359 	.db #0x0a	; 10
      001CA3 0A                    3360 	.db #0x0a	; 10
      001CA4 09                    3361 	.db #0x09	; 9
      001CA5 0C                    3362 	.db #0x0c	; 12
      001CA6 00                    3363 	.db #0x00	; 0
      001CA7 00                    3364 	.db #0x00	; 0
      001CA8 0C                    3365 	.db #0x0c	; 12
      001CA9 0A                    3366 	.db #0x0a	; 10
      001CAA 0A                    3367 	.db #0x0a	; 10
      001CAB 09                    3368 	.db #0x09	; 9
      001CAC 0C                    3369 	.db #0x0c	; 12
      001CAD 00                    3370 	.db #0x00	; 0
      001CAE 00                    3371 	.db #0x00	; 0
      001CAF 00                    3372 	.db #0x00	; 0
      001CB0 00                    3373 	.db #0x00	; 0
      001CB1 00                    3374 	.db #0x00	; 0
      001CB2 00                    3375 	.db #0x00	; 0
      001CB3 00                    3376 	.db #0x00	; 0
      001CB4 00                    3377 	.db #0x00	; 0
      001CB5 00                    3378 	.db #0x00	; 0
      001CB6 00                    3379 	.db #0x00	; 0
      001CB7 00                    3380 	.db #0x00	; 0
      001CB8 00                    3381 	.db #0x00	; 0
      001CB9 00                    3382 	.db #0x00	; 0
      001CBA 00                    3383 	.db #0x00	; 0
      001CBB 00                    3384 	.db #0x00	; 0
      001CBC 00                    3385 	.db #0x00	; 0
      001CBD 00                    3386 	.db #0x00	; 0
      001CBE 00                    3387 	.db #0x00	; 0
      001CBF 00                    3388 	.db #0x00	; 0
      001CC0 00                    3389 	.db #0x00	; 0
      001CC1 00                    3390 	.db #0x00	; 0
      001CC2 00                    3391 	.db #0x00	; 0
      001CC3 00                    3392 	.db #0x00	; 0
      001CC4 00                    3393 	.db #0x00	; 0
      001CC5 00                    3394 	.db #0x00	; 0
      001CC6 00                    3395 	.db #0x00	; 0
      001CC7 00                    3396 	.db #0x00	; 0
      001CC8 00                    3397 	.db #0x00	; 0
      001CC9 00                    3398 	.db #0x00	; 0
      001CCA 00                    3399 	.db #0x00	; 0
      001CCB 00                    3400 	.db #0x00	; 0
      001CCC 00                    3401 	.db #0x00	; 0
      001CCD 00                    3402 	.db #0x00	; 0
      001CCE 00                    3403 	.db #0x00	; 0
      001CCF 00                    3404 	.db #0x00	; 0
      001CD0 00                    3405 	.db #0x00	; 0
      001CD1 00                    3406 	.db #0x00	; 0
      001CD2 00                    3407 	.db #0x00	; 0
      001CD3 00                    3408 	.db #0x00	; 0
      001CD4 00                    3409 	.db #0x00	; 0
      001CD5 00                    3410 	.db #0x00	; 0
      001CD6 00                    3411 	.db #0x00	; 0
