                                      1 ;--------------------------------------------------------
                                      2 ; File Created by SDCC : free open source ANSI-C Compiler
                                      3 ; Version 4.0.0 #11528 (MINGW64)
                                      4 ;--------------------------------------------------------
                                      5 	.module main
                                      6 	.optsdcc -mmcs51 --model-small
                                      7 	
                                      8 ;--------------------------------------------------------
                                      9 ; Public variables in this module
                                     10 ;--------------------------------------------------------
                                     11 	.globl _setCursor_PARM_2
                                     12 	.globl _BMP2
                                     13 	.globl _BMP1
                                     14 	.globl _main
                                     15 	.globl _setCursor
                                     16 	.globl _ADC_ChSelect
                                     17 	.globl _ADC_ExInit
                                     18 	.globl _SPIMasterModeSet
                                     19 	.globl _mDelaymS
                                     20 	.globl _CfgFsys
                                     21 	.globl _printf_fast_f
                                     22 	.globl _setFontSize
                                     23 	.globl _OLED_Clear
                                     24 	.globl _OLED_Init
                                     25 	.globl _OLED_ShowChar
                                     26 	.globl _UIF_BUS_RST
                                     27 	.globl _UIF_DETECT
                                     28 	.globl _UIF_TRANSFER
                                     29 	.globl _UIF_SUSPEND
                                     30 	.globl _UIF_HST_SOF
                                     31 	.globl _UIF_FIFO_OV
                                     32 	.globl _U_SIE_FREE
                                     33 	.globl _U_TOG_OK
                                     34 	.globl _U_IS_NAK
                                     35 	.globl _S0_R_FIFO
                                     36 	.globl _S0_T_FIFO
                                     37 	.globl _S0_FREE
                                     38 	.globl _S0_IF_BYTE
                                     39 	.globl _S0_IF_FIRST
                                     40 	.globl _S0_IF_OV
                                     41 	.globl _S0_FST_ACT
                                     42 	.globl _CP_RL2
                                     43 	.globl _C_T2
                                     44 	.globl _TR2
                                     45 	.globl _EXEN2
                                     46 	.globl _TCLK
                                     47 	.globl _RCLK
                                     48 	.globl _EXF2
                                     49 	.globl _CAP1F
                                     50 	.globl _TF2
                                     51 	.globl _RI
                                     52 	.globl _TI
                                     53 	.globl _RB8
                                     54 	.globl _TB8
                                     55 	.globl _REN
                                     56 	.globl _SM2
                                     57 	.globl _SM1
                                     58 	.globl _SM0
                                     59 	.globl _IT0
                                     60 	.globl _IE0
                                     61 	.globl _IT1
                                     62 	.globl _IE1
                                     63 	.globl _TR0
                                     64 	.globl _TF0
                                     65 	.globl _TR1
                                     66 	.globl _TF1
                                     67 	.globl _XI
                                     68 	.globl _XO
                                     69 	.globl _P4_0
                                     70 	.globl _P4_1
                                     71 	.globl _P4_2
                                     72 	.globl _P4_3
                                     73 	.globl _P4_4
                                     74 	.globl _P4_5
                                     75 	.globl _P4_6
                                     76 	.globl _RXD
                                     77 	.globl _TXD
                                     78 	.globl _INT0
                                     79 	.globl _INT1
                                     80 	.globl _T0
                                     81 	.globl _T1
                                     82 	.globl _CAP0
                                     83 	.globl _INT3
                                     84 	.globl _P3_0
                                     85 	.globl _P3_1
                                     86 	.globl _P3_2
                                     87 	.globl _P3_3
                                     88 	.globl _P3_4
                                     89 	.globl _P3_5
                                     90 	.globl _P3_6
                                     91 	.globl _P3_7
                                     92 	.globl _PWM5
                                     93 	.globl _PWM4
                                     94 	.globl _INT0_
                                     95 	.globl _PWM3
                                     96 	.globl _PWM2
                                     97 	.globl _CAP1_
                                     98 	.globl _T2_
                                     99 	.globl _PWM1
                                    100 	.globl _CAP2_
                                    101 	.globl _T2EX_
                                    102 	.globl _PWM0
                                    103 	.globl _RXD1
                                    104 	.globl _PWM6
                                    105 	.globl _TXD1
                                    106 	.globl _PWM7
                                    107 	.globl _P2_0
                                    108 	.globl _P2_1
                                    109 	.globl _P2_2
                                    110 	.globl _P2_3
                                    111 	.globl _P2_4
                                    112 	.globl _P2_5
                                    113 	.globl _P2_6
                                    114 	.globl _P2_7
                                    115 	.globl _AIN0
                                    116 	.globl _CAP1
                                    117 	.globl _T2
                                    118 	.globl _AIN1
                                    119 	.globl _CAP2
                                    120 	.globl _T2EX
                                    121 	.globl _AIN2
                                    122 	.globl _AIN3
                                    123 	.globl _AIN4
                                    124 	.globl _UCC1
                                    125 	.globl _SCS
                                    126 	.globl _AIN5
                                    127 	.globl _UCC2
                                    128 	.globl _PWM0_
                                    129 	.globl _MOSI
                                    130 	.globl _AIN6
                                    131 	.globl _VBUS
                                    132 	.globl _RXD1_
                                    133 	.globl _MISO
                                    134 	.globl _AIN7
                                    135 	.globl _TXD1_
                                    136 	.globl _SCK
                                    137 	.globl _P1_0
                                    138 	.globl _P1_1
                                    139 	.globl _P1_2
                                    140 	.globl _P1_3
                                    141 	.globl _P1_4
                                    142 	.globl _P1_5
                                    143 	.globl _P1_6
                                    144 	.globl _P1_7
                                    145 	.globl _AIN8
                                    146 	.globl _AIN9
                                    147 	.globl _AIN10
                                    148 	.globl _RXD_
                                    149 	.globl _AIN11
                                    150 	.globl _TXD_
                                    151 	.globl _AIN12
                                    152 	.globl _RXD2
                                    153 	.globl _AIN13
                                    154 	.globl _TXD2
                                    155 	.globl _AIN14
                                    156 	.globl _RXD3
                                    157 	.globl _AIN15
                                    158 	.globl _TXD3
                                    159 	.globl _P0_0
                                    160 	.globl _P0_1
                                    161 	.globl _P0_2
                                    162 	.globl _P0_3
                                    163 	.globl _P0_4
                                    164 	.globl _P0_5
                                    165 	.globl _P0_6
                                    166 	.globl _P0_7
                                    167 	.globl _IE_SPI0
                                    168 	.globl _IE_INT3
                                    169 	.globl _IE_USB
                                    170 	.globl _IE_UART2
                                    171 	.globl _IE_ADC
                                    172 	.globl _IE_UART1
                                    173 	.globl _IE_UART3
                                    174 	.globl _IE_PWMX
                                    175 	.globl _IE_GPIO
                                    176 	.globl _IE_WDOG
                                    177 	.globl _PX0
                                    178 	.globl _PT0
                                    179 	.globl _PX1
                                    180 	.globl _PT1
                                    181 	.globl _PS
                                    182 	.globl _PT2
                                    183 	.globl _PL_FLAG
                                    184 	.globl _PH_FLAG
                                    185 	.globl _EX0
                                    186 	.globl _ET0
                                    187 	.globl _EX1
                                    188 	.globl _ET1
                                    189 	.globl _ES
                                    190 	.globl _ET2
                                    191 	.globl _E_DIS
                                    192 	.globl _EA
                                    193 	.globl _P
                                    194 	.globl _F1
                                    195 	.globl _OV
                                    196 	.globl _RS0
                                    197 	.globl _RS1
                                    198 	.globl _F0
                                    199 	.globl _AC
                                    200 	.globl _CY
                                    201 	.globl _UEP1_DMA_H
                                    202 	.globl _UEP1_DMA_L
                                    203 	.globl _UEP1_DMA
                                    204 	.globl _UEP0_DMA_H
                                    205 	.globl _UEP0_DMA_L
                                    206 	.globl _UEP0_DMA
                                    207 	.globl _UEP2_3_MOD
                                    208 	.globl _UEP4_1_MOD
                                    209 	.globl _UEP3_DMA_H
                                    210 	.globl _UEP3_DMA_L
                                    211 	.globl _UEP3_DMA
                                    212 	.globl _UEP2_DMA_H
                                    213 	.globl _UEP2_DMA_L
                                    214 	.globl _UEP2_DMA
                                    215 	.globl _USB_DEV_AD
                                    216 	.globl _USB_CTRL
                                    217 	.globl _USB_INT_EN
                                    218 	.globl _UEP4_T_LEN
                                    219 	.globl _UEP4_CTRL
                                    220 	.globl _UEP0_T_LEN
                                    221 	.globl _UEP0_CTRL
                                    222 	.globl _USB_RX_LEN
                                    223 	.globl _USB_MIS_ST
                                    224 	.globl _USB_INT_ST
                                    225 	.globl _USB_INT_FG
                                    226 	.globl _UEP3_T_LEN
                                    227 	.globl _UEP3_CTRL
                                    228 	.globl _UEP2_T_LEN
                                    229 	.globl _UEP2_CTRL
                                    230 	.globl _UEP1_T_LEN
                                    231 	.globl _UEP1_CTRL
                                    232 	.globl _UDEV_CTRL
                                    233 	.globl _USB_C_CTRL
                                    234 	.globl _ADC_PIN
                                    235 	.globl _ADC_CHAN
                                    236 	.globl _ADC_DAT_H
                                    237 	.globl _ADC_DAT_L
                                    238 	.globl _ADC_DAT
                                    239 	.globl _ADC_CFG
                                    240 	.globl _ADC_CTRL
                                    241 	.globl _TKEY_CTRL
                                    242 	.globl _SIF3
                                    243 	.globl _SBAUD3
                                    244 	.globl _SBUF3
                                    245 	.globl _SCON3
                                    246 	.globl _SIF2
                                    247 	.globl _SBAUD2
                                    248 	.globl _SBUF2
                                    249 	.globl _SCON2
                                    250 	.globl _SIF1
                                    251 	.globl _SBAUD1
                                    252 	.globl _SBUF1
                                    253 	.globl _SCON1
                                    254 	.globl _SPI0_SETUP
                                    255 	.globl _SPI0_CK_SE
                                    256 	.globl _SPI0_CTRL
                                    257 	.globl _SPI0_DATA
                                    258 	.globl _SPI0_STAT
                                    259 	.globl _PWM_DATA7
                                    260 	.globl _PWM_DATA6
                                    261 	.globl _PWM_DATA5
                                    262 	.globl _PWM_DATA4
                                    263 	.globl _PWM_DATA3
                                    264 	.globl _PWM_CTRL2
                                    265 	.globl _PWM_CK_SE
                                    266 	.globl _PWM_CTRL
                                    267 	.globl _PWM_DATA0
                                    268 	.globl _PWM_DATA1
                                    269 	.globl _PWM_DATA2
                                    270 	.globl _T2CAP1H
                                    271 	.globl _T2CAP1L
                                    272 	.globl _T2CAP1
                                    273 	.globl _TH2
                                    274 	.globl _TL2
                                    275 	.globl _T2COUNT
                                    276 	.globl _RCAP2H
                                    277 	.globl _RCAP2L
                                    278 	.globl _RCAP2
                                    279 	.globl _T2MOD
                                    280 	.globl _T2CON
                                    281 	.globl _T2CAP0H
                                    282 	.globl _T2CAP0L
                                    283 	.globl _T2CAP0
                                    284 	.globl _T2CON2
                                    285 	.globl _SBUF
                                    286 	.globl _SCON
                                    287 	.globl _TH1
                                    288 	.globl _TH0
                                    289 	.globl _TL1
                                    290 	.globl _TL0
                                    291 	.globl _TMOD
                                    292 	.globl _TCON
                                    293 	.globl _XBUS_AUX
                                    294 	.globl _PIN_FUNC
                                    295 	.globl _P5
                                    296 	.globl _P4_DIR_PU
                                    297 	.globl _P4_MOD_OC
                                    298 	.globl _P4
                                    299 	.globl _P3_DIR_PU
                                    300 	.globl _P3_MOD_OC
                                    301 	.globl _P3
                                    302 	.globl _P2_DIR_PU
                                    303 	.globl _P2_MOD_OC
                                    304 	.globl _P2
                                    305 	.globl _P1_DIR_PU
                                    306 	.globl _P1_MOD_OC
                                    307 	.globl _P1
                                    308 	.globl _P0_DIR_PU
                                    309 	.globl _P0_MOD_OC
                                    310 	.globl _P0
                                    311 	.globl _ROM_CTRL
                                    312 	.globl _ROM_DATA_HH
                                    313 	.globl _ROM_DATA_HL
                                    314 	.globl _ROM_DATA_HI
                                    315 	.globl _ROM_ADDR_H
                                    316 	.globl _ROM_ADDR_L
                                    317 	.globl _ROM_ADDR
                                    318 	.globl _GPIO_IE
                                    319 	.globl _INTX
                                    320 	.globl _IP_EX
                                    321 	.globl _IE_EX
                                    322 	.globl _IP
                                    323 	.globl _IE
                                    324 	.globl _WDOG_COUNT
                                    325 	.globl _RESET_KEEP
                                    326 	.globl _WAKE_CTRL
                                    327 	.globl _CLOCK_CFG
                                    328 	.globl _POWER_CFG
                                    329 	.globl _PCON
                                    330 	.globl _GLOBAL_CFG
                                    331 	.globl _SAFE_MOD
                                    332 	.globl _DPH
                                    333 	.globl _DPL
                                    334 	.globl _SP
                                    335 	.globl _A_INV
                                    336 	.globl _B
                                    337 	.globl _ACC
                                    338 	.globl _PSW
                                    339 	.globl _oled_row
                                    340 	.globl _oled_colum
                                    341 	.globl _putchar
                                    342 ;--------------------------------------------------------
                                    343 ; special function registers
                                    344 ;--------------------------------------------------------
                                    345 	.area RSEG    (ABS,DATA)
      000000                        346 	.org 0x0000
                           0000D0   347 _PSW	=	0x00d0
                           0000E0   348 _ACC	=	0x00e0
                           0000F0   349 _B	=	0x00f0
                           0000FD   350 _A_INV	=	0x00fd
                           000081   351 _SP	=	0x0081
                           000082   352 _DPL	=	0x0082
                           000083   353 _DPH	=	0x0083
                           0000A1   354 _SAFE_MOD	=	0x00a1
                           0000B1   355 _GLOBAL_CFG	=	0x00b1
                           000087   356 _PCON	=	0x0087
                           0000BA   357 _POWER_CFG	=	0x00ba
                           0000B9   358 _CLOCK_CFG	=	0x00b9
                           0000A9   359 _WAKE_CTRL	=	0x00a9
                           0000FE   360 _RESET_KEEP	=	0x00fe
                           0000FF   361 _WDOG_COUNT	=	0x00ff
                           0000A8   362 _IE	=	0x00a8
                           0000B8   363 _IP	=	0x00b8
                           0000E8   364 _IE_EX	=	0x00e8
                           0000E9   365 _IP_EX	=	0x00e9
                           0000B3   366 _INTX	=	0x00b3
                           0000B2   367 _GPIO_IE	=	0x00b2
                           008584   368 _ROM_ADDR	=	0x8584
                           000084   369 _ROM_ADDR_L	=	0x0084
                           000085   370 _ROM_ADDR_H	=	0x0085
                           008F8E   371 _ROM_DATA_HI	=	0x8f8e
                           00008E   372 _ROM_DATA_HL	=	0x008e
                           00008F   373 _ROM_DATA_HH	=	0x008f
                           000086   374 _ROM_CTRL	=	0x0086
                           000080   375 _P0	=	0x0080
                           0000C4   376 _P0_MOD_OC	=	0x00c4
                           0000C5   377 _P0_DIR_PU	=	0x00c5
                           000090   378 _P1	=	0x0090
                           000092   379 _P1_MOD_OC	=	0x0092
                           000093   380 _P1_DIR_PU	=	0x0093
                           0000A0   381 _P2	=	0x00a0
                           000094   382 _P2_MOD_OC	=	0x0094
                           000095   383 _P2_DIR_PU	=	0x0095
                           0000B0   384 _P3	=	0x00b0
                           000096   385 _P3_MOD_OC	=	0x0096
                           000097   386 _P3_DIR_PU	=	0x0097
                           0000C0   387 _P4	=	0x00c0
                           0000C2   388 _P4_MOD_OC	=	0x00c2
                           0000C3   389 _P4_DIR_PU	=	0x00c3
                           0000AB   390 _P5	=	0x00ab
                           0000AA   391 _PIN_FUNC	=	0x00aa
                           0000A2   392 _XBUS_AUX	=	0x00a2
                           000088   393 _TCON	=	0x0088
                           000089   394 _TMOD	=	0x0089
                           00008A   395 _TL0	=	0x008a
                           00008B   396 _TL1	=	0x008b
                           00008C   397 _TH0	=	0x008c
                           00008D   398 _TH1	=	0x008d
                           000098   399 _SCON	=	0x0098
                           000099   400 _SBUF	=	0x0099
                           0000C1   401 _T2CON2	=	0x00c1
                           00C7C6   402 _T2CAP0	=	0xc7c6
                           0000C6   403 _T2CAP0L	=	0x00c6
                           0000C7   404 _T2CAP0H	=	0x00c7
                           0000C8   405 _T2CON	=	0x00c8
                           0000C9   406 _T2MOD	=	0x00c9
                           00CBCA   407 _RCAP2	=	0xcbca
                           0000CA   408 _RCAP2L	=	0x00ca
                           0000CB   409 _RCAP2H	=	0x00cb
                           00CDCC   410 _T2COUNT	=	0xcdcc
                           0000CC   411 _TL2	=	0x00cc
                           0000CD   412 _TH2	=	0x00cd
                           00CFCE   413 _T2CAP1	=	0xcfce
                           0000CE   414 _T2CAP1L	=	0x00ce
                           0000CF   415 _T2CAP1H	=	0x00cf
                           00009A   416 _PWM_DATA2	=	0x009a
                           00009B   417 _PWM_DATA1	=	0x009b
                           00009C   418 _PWM_DATA0	=	0x009c
                           00009D   419 _PWM_CTRL	=	0x009d
                           00009E   420 _PWM_CK_SE	=	0x009e
                           00009F   421 _PWM_CTRL2	=	0x009f
                           0000A3   422 _PWM_DATA3	=	0x00a3
                           0000A4   423 _PWM_DATA4	=	0x00a4
                           0000A5   424 _PWM_DATA5	=	0x00a5
                           0000A6   425 _PWM_DATA6	=	0x00a6
                           0000A7   426 _PWM_DATA7	=	0x00a7
                           0000F8   427 _SPI0_STAT	=	0x00f8
                           0000F9   428 _SPI0_DATA	=	0x00f9
                           0000FA   429 _SPI0_CTRL	=	0x00fa
                           0000FB   430 _SPI0_CK_SE	=	0x00fb
                           0000FC   431 _SPI0_SETUP	=	0x00fc
                           0000BC   432 _SCON1	=	0x00bc
                           0000BD   433 _SBUF1	=	0x00bd
                           0000BE   434 _SBAUD1	=	0x00be
                           0000BF   435 _SIF1	=	0x00bf
                           0000B4   436 _SCON2	=	0x00b4
                           0000B5   437 _SBUF2	=	0x00b5
                           0000B6   438 _SBAUD2	=	0x00b6
                           0000B7   439 _SIF2	=	0x00b7
                           0000AC   440 _SCON3	=	0x00ac
                           0000AD   441 _SBUF3	=	0x00ad
                           0000AE   442 _SBAUD3	=	0x00ae
                           0000AF   443 _SIF3	=	0x00af
                           0000F1   444 _TKEY_CTRL	=	0x00f1
                           0000F2   445 _ADC_CTRL	=	0x00f2
                           0000F3   446 _ADC_CFG	=	0x00f3
                           00F5F4   447 _ADC_DAT	=	0xf5f4
                           0000F4   448 _ADC_DAT_L	=	0x00f4
                           0000F5   449 _ADC_DAT_H	=	0x00f5
                           0000F6   450 _ADC_CHAN	=	0x00f6
                           0000F7   451 _ADC_PIN	=	0x00f7
                           000091   452 _USB_C_CTRL	=	0x0091
                           0000D1   453 _UDEV_CTRL	=	0x00d1
                           0000D2   454 _UEP1_CTRL	=	0x00d2
                           0000D3   455 _UEP1_T_LEN	=	0x00d3
                           0000D4   456 _UEP2_CTRL	=	0x00d4
                           0000D5   457 _UEP2_T_LEN	=	0x00d5
                           0000D6   458 _UEP3_CTRL	=	0x00d6
                           0000D7   459 _UEP3_T_LEN	=	0x00d7
                           0000D8   460 _USB_INT_FG	=	0x00d8
                           0000D9   461 _USB_INT_ST	=	0x00d9
                           0000DA   462 _USB_MIS_ST	=	0x00da
                           0000DB   463 _USB_RX_LEN	=	0x00db
                           0000DC   464 _UEP0_CTRL	=	0x00dc
                           0000DD   465 _UEP0_T_LEN	=	0x00dd
                           0000DE   466 _UEP4_CTRL	=	0x00de
                           0000DF   467 _UEP4_T_LEN	=	0x00df
                           0000E1   468 _USB_INT_EN	=	0x00e1
                           0000E2   469 _USB_CTRL	=	0x00e2
                           0000E3   470 _USB_DEV_AD	=	0x00e3
                           00E5E4   471 _UEP2_DMA	=	0xe5e4
                           0000E4   472 _UEP2_DMA_L	=	0x00e4
                           0000E5   473 _UEP2_DMA_H	=	0x00e5
                           00E7E6   474 _UEP3_DMA	=	0xe7e6
                           0000E6   475 _UEP3_DMA_L	=	0x00e6
                           0000E7   476 _UEP3_DMA_H	=	0x00e7
                           0000EA   477 _UEP4_1_MOD	=	0x00ea
                           0000EB   478 _UEP2_3_MOD	=	0x00eb
                           00EDEC   479 _UEP0_DMA	=	0xedec
                           0000EC   480 _UEP0_DMA_L	=	0x00ec
                           0000ED   481 _UEP0_DMA_H	=	0x00ed
                           00EFEE   482 _UEP1_DMA	=	0xefee
                           0000EE   483 _UEP1_DMA_L	=	0x00ee
                           0000EF   484 _UEP1_DMA_H	=	0x00ef
                                    485 ;--------------------------------------------------------
                                    486 ; special function bits
                                    487 ;--------------------------------------------------------
                                    488 	.area RSEG    (ABS,DATA)
      000000                        489 	.org 0x0000
                           0000D7   490 _CY	=	0x00d7
                           0000D6   491 _AC	=	0x00d6
                           0000D5   492 _F0	=	0x00d5
                           0000D4   493 _RS1	=	0x00d4
                           0000D3   494 _RS0	=	0x00d3
                           0000D2   495 _OV	=	0x00d2
                           0000D1   496 _F1	=	0x00d1
                           0000D0   497 _P	=	0x00d0
                           0000AF   498 _EA	=	0x00af
                           0000AE   499 _E_DIS	=	0x00ae
                           0000AD   500 _ET2	=	0x00ad
                           0000AC   501 _ES	=	0x00ac
                           0000AB   502 _ET1	=	0x00ab
                           0000AA   503 _EX1	=	0x00aa
                           0000A9   504 _ET0	=	0x00a9
                           0000A8   505 _EX0	=	0x00a8
                           0000BF   506 _PH_FLAG	=	0x00bf
                           0000BE   507 _PL_FLAG	=	0x00be
                           0000BD   508 _PT2	=	0x00bd
                           0000BC   509 _PS	=	0x00bc
                           0000BB   510 _PT1	=	0x00bb
                           0000BA   511 _PX1	=	0x00ba
                           0000B9   512 _PT0	=	0x00b9
                           0000B8   513 _PX0	=	0x00b8
                           0000EF   514 _IE_WDOG	=	0x00ef
                           0000EE   515 _IE_GPIO	=	0x00ee
                           0000ED   516 _IE_PWMX	=	0x00ed
                           0000ED   517 _IE_UART3	=	0x00ed
                           0000EC   518 _IE_UART1	=	0x00ec
                           0000EB   519 _IE_ADC	=	0x00eb
                           0000EB   520 _IE_UART2	=	0x00eb
                           0000EA   521 _IE_USB	=	0x00ea
                           0000E9   522 _IE_INT3	=	0x00e9
                           0000E8   523 _IE_SPI0	=	0x00e8
                           000087   524 _P0_7	=	0x0087
                           000086   525 _P0_6	=	0x0086
                           000085   526 _P0_5	=	0x0085
                           000084   527 _P0_4	=	0x0084
                           000083   528 _P0_3	=	0x0083
                           000082   529 _P0_2	=	0x0082
                           000081   530 _P0_1	=	0x0081
                           000080   531 _P0_0	=	0x0080
                           000087   532 _TXD3	=	0x0087
                           000087   533 _AIN15	=	0x0087
                           000086   534 _RXD3	=	0x0086
                           000086   535 _AIN14	=	0x0086
                           000085   536 _TXD2	=	0x0085
                           000085   537 _AIN13	=	0x0085
                           000084   538 _RXD2	=	0x0084
                           000084   539 _AIN12	=	0x0084
                           000083   540 _TXD_	=	0x0083
                           000083   541 _AIN11	=	0x0083
                           000082   542 _RXD_	=	0x0082
                           000082   543 _AIN10	=	0x0082
                           000081   544 _AIN9	=	0x0081
                           000080   545 _AIN8	=	0x0080
                           000097   546 _P1_7	=	0x0097
                           000096   547 _P1_6	=	0x0096
                           000095   548 _P1_5	=	0x0095
                           000094   549 _P1_4	=	0x0094
                           000093   550 _P1_3	=	0x0093
                           000092   551 _P1_2	=	0x0092
                           000091   552 _P1_1	=	0x0091
                           000090   553 _P1_0	=	0x0090
                           000097   554 _SCK	=	0x0097
                           000097   555 _TXD1_	=	0x0097
                           000097   556 _AIN7	=	0x0097
                           000096   557 _MISO	=	0x0096
                           000096   558 _RXD1_	=	0x0096
                           000096   559 _VBUS	=	0x0096
                           000096   560 _AIN6	=	0x0096
                           000095   561 _MOSI	=	0x0095
                           000095   562 _PWM0_	=	0x0095
                           000095   563 _UCC2	=	0x0095
                           000095   564 _AIN5	=	0x0095
                           000094   565 _SCS	=	0x0094
                           000094   566 _UCC1	=	0x0094
                           000094   567 _AIN4	=	0x0094
                           000093   568 _AIN3	=	0x0093
                           000092   569 _AIN2	=	0x0092
                           000091   570 _T2EX	=	0x0091
                           000091   571 _CAP2	=	0x0091
                           000091   572 _AIN1	=	0x0091
                           000090   573 _T2	=	0x0090
                           000090   574 _CAP1	=	0x0090
                           000090   575 _AIN0	=	0x0090
                           0000A7   576 _P2_7	=	0x00a7
                           0000A6   577 _P2_6	=	0x00a6
                           0000A5   578 _P2_5	=	0x00a5
                           0000A4   579 _P2_4	=	0x00a4
                           0000A3   580 _P2_3	=	0x00a3
                           0000A2   581 _P2_2	=	0x00a2
                           0000A1   582 _P2_1	=	0x00a1
                           0000A0   583 _P2_0	=	0x00a0
                           0000A7   584 _PWM7	=	0x00a7
                           0000A7   585 _TXD1	=	0x00a7
                           0000A6   586 _PWM6	=	0x00a6
                           0000A6   587 _RXD1	=	0x00a6
                           0000A5   588 _PWM0	=	0x00a5
                           0000A5   589 _T2EX_	=	0x00a5
                           0000A5   590 _CAP2_	=	0x00a5
                           0000A4   591 _PWM1	=	0x00a4
                           0000A4   592 _T2_	=	0x00a4
                           0000A4   593 _CAP1_	=	0x00a4
                           0000A3   594 _PWM2	=	0x00a3
                           0000A2   595 _PWM3	=	0x00a2
                           0000A2   596 _INT0_	=	0x00a2
                           0000A1   597 _PWM4	=	0x00a1
                           0000A0   598 _PWM5	=	0x00a0
                           0000B7   599 _P3_7	=	0x00b7
                           0000B6   600 _P3_6	=	0x00b6
                           0000B5   601 _P3_5	=	0x00b5
                           0000B4   602 _P3_4	=	0x00b4
                           0000B3   603 _P3_3	=	0x00b3
                           0000B2   604 _P3_2	=	0x00b2
                           0000B1   605 _P3_1	=	0x00b1
                           0000B0   606 _P3_0	=	0x00b0
                           0000B7   607 _INT3	=	0x00b7
                           0000B6   608 _CAP0	=	0x00b6
                           0000B5   609 _T1	=	0x00b5
                           0000B4   610 _T0	=	0x00b4
                           0000B3   611 _INT1	=	0x00b3
                           0000B2   612 _INT0	=	0x00b2
                           0000B1   613 _TXD	=	0x00b1
                           0000B0   614 _RXD	=	0x00b0
                           0000C6   615 _P4_6	=	0x00c6
                           0000C5   616 _P4_5	=	0x00c5
                           0000C4   617 _P4_4	=	0x00c4
                           0000C3   618 _P4_3	=	0x00c3
                           0000C2   619 _P4_2	=	0x00c2
                           0000C1   620 _P4_1	=	0x00c1
                           0000C0   621 _P4_0	=	0x00c0
                           0000C7   622 _XO	=	0x00c7
                           0000C6   623 _XI	=	0x00c6
                           00008F   624 _TF1	=	0x008f
                           00008E   625 _TR1	=	0x008e
                           00008D   626 _TF0	=	0x008d
                           00008C   627 _TR0	=	0x008c
                           00008B   628 _IE1	=	0x008b
                           00008A   629 _IT1	=	0x008a
                           000089   630 _IE0	=	0x0089
                           000088   631 _IT0	=	0x0088
                           00009F   632 _SM0	=	0x009f
                           00009E   633 _SM1	=	0x009e
                           00009D   634 _SM2	=	0x009d
                           00009C   635 _REN	=	0x009c
                           00009B   636 _TB8	=	0x009b
                           00009A   637 _RB8	=	0x009a
                           000099   638 _TI	=	0x0099
                           000098   639 _RI	=	0x0098
                           0000CF   640 _TF2	=	0x00cf
                           0000CF   641 _CAP1F	=	0x00cf
                           0000CE   642 _EXF2	=	0x00ce
                           0000CD   643 _RCLK	=	0x00cd
                           0000CC   644 _TCLK	=	0x00cc
                           0000CB   645 _EXEN2	=	0x00cb
                           0000CA   646 _TR2	=	0x00ca
                           0000C9   647 _C_T2	=	0x00c9
                           0000C8   648 _CP_RL2	=	0x00c8
                           0000FF   649 _S0_FST_ACT	=	0x00ff
                           0000FE   650 _S0_IF_OV	=	0x00fe
                           0000FD   651 _S0_IF_FIRST	=	0x00fd
                           0000FC   652 _S0_IF_BYTE	=	0x00fc
                           0000FB   653 _S0_FREE	=	0x00fb
                           0000FA   654 _S0_T_FIFO	=	0x00fa
                           0000F8   655 _S0_R_FIFO	=	0x00f8
                           0000DF   656 _U_IS_NAK	=	0x00df
                           0000DE   657 _U_TOG_OK	=	0x00de
                           0000DD   658 _U_SIE_FREE	=	0x00dd
                           0000DC   659 _UIF_FIFO_OV	=	0x00dc
                           0000DB   660 _UIF_HST_SOF	=	0x00db
                           0000DA   661 _UIF_SUSPEND	=	0x00da
                           0000D9   662 _UIF_TRANSFER	=	0x00d9
                           0000D8   663 _UIF_DETECT	=	0x00d8
                           0000D8   664 _UIF_BUS_RST	=	0x00d8
                                    665 ;--------------------------------------------------------
                                    666 ; overlayable register banks
                                    667 ;--------------------------------------------------------
                                    668 	.area REG_BANK_0	(REL,OVR,DATA)
      000000                        669 	.ds 8
                                    670 ;--------------------------------------------------------
                                    671 ; internal ram data
                                    672 ;--------------------------------------------------------
                                    673 	.area DSEG    (DATA)
      000008                        674 _oled_colum::
      000008                        675 	.ds 2
      00000A                        676 _oled_row::
      00000A                        677 	.ds 2
                                    678 ;--------------------------------------------------------
                                    679 ; overlayable items in internal ram 
                                    680 ;--------------------------------------------------------
                                    681 	.area	OSEG    (OVR,DATA)
      000028                        682 _setCursor_PARM_2:
      000028                        683 	.ds 2
                                    684 ;--------------------------------------------------------
                                    685 ; Stack segment in internal ram 
                                    686 ;--------------------------------------------------------
                                    687 	.area	SSEG
      00002A                        688 __start__stack:
      00002A                        689 	.ds	1
                                    690 
                                    691 ;--------------------------------------------------------
                                    692 ; indirectly addressable internal ram data
                                    693 ;--------------------------------------------------------
                                    694 	.area ISEG    (DATA)
                                    695 ;--------------------------------------------------------
                                    696 ; absolute internal ram data
                                    697 ;--------------------------------------------------------
                                    698 	.area IABS    (ABS,DATA)
                                    699 	.area IABS    (ABS,DATA)
                                    700 ;--------------------------------------------------------
                                    701 ; bit data
                                    702 ;--------------------------------------------------------
                                    703 	.area BSEG    (BIT)
                                    704 ;--------------------------------------------------------
                                    705 ; paged external ram data
                                    706 ;--------------------------------------------------------
                                    707 	.area PSEG    (PAG,XDATA)
                                    708 ;--------------------------------------------------------
                                    709 ; external ram data
                                    710 ;--------------------------------------------------------
                                    711 	.area XSEG    (XDATA)
                                    712 ;--------------------------------------------------------
                                    713 ; absolute external ram data
                                    714 ;--------------------------------------------------------
                                    715 	.area XABS    (ABS,XDATA)
                                    716 ;--------------------------------------------------------
                                    717 ; external initialized ram data
                                    718 ;--------------------------------------------------------
                                    719 	.area XISEG   (XDATA)
                                    720 	.area HOME    (CODE)
                                    721 	.area GSINIT0 (CODE)
                                    722 	.area GSINIT1 (CODE)
                                    723 	.area GSINIT2 (CODE)
                                    724 	.area GSINIT3 (CODE)
                                    725 	.area GSINIT4 (CODE)
                                    726 	.area GSINIT5 (CODE)
                                    727 	.area GSINIT  (CODE)
                                    728 	.area GSFINAL (CODE)
                                    729 	.area CSEG    (CODE)
                                    730 ;--------------------------------------------------------
                                    731 ; interrupt vector 
                                    732 ;--------------------------------------------------------
                                    733 	.area HOME    (CODE)
      000000                        734 __interrupt_vect:
      000000 02 00 06         [24]  735 	ljmp	__sdcc_gsinit_startup
                                    736 ;--------------------------------------------------------
                                    737 ; global & static initialisations
                                    738 ;--------------------------------------------------------
                                    739 	.area HOME    (CODE)
                                    740 	.area GSINIT  (CODE)
                                    741 	.area GSFINAL (CODE)
                                    742 	.area GSINIT  (CODE)
                                    743 	.globl __sdcc_gsinit_startup
                                    744 	.globl __sdcc_program_startup
                                    745 	.globl __start__stack
                                    746 	.globl __mcs51_genXINIT
                                    747 	.globl __mcs51_genXRAMCLEAR
                                    748 	.globl __mcs51_genRAMCLEAR
                                    749 	.area GSFINAL (CODE)
      00005F 02 00 03         [24]  750 	ljmp	__sdcc_program_startup
                                    751 ;--------------------------------------------------------
                                    752 ; Home
                                    753 ;--------------------------------------------------------
                                    754 	.area HOME    (CODE)
                                    755 	.area HOME    (CODE)
      000003                        756 __sdcc_program_startup:
      000003 02 00 6F         [24]  757 	ljmp	_main
                                    758 ;	return from main will return to caller
                                    759 ;--------------------------------------------------------
                                    760 ; code
                                    761 ;--------------------------------------------------------
                                    762 	.area CSEG    (CODE)
                                    763 ;------------------------------------------------------------
                                    764 ;Allocation info for local variables in function 'setCursor'
                                    765 ;------------------------------------------------------------
                                    766 ;row                       Allocated with name '_setCursor_PARM_2'
                                    767 ;column                    Allocated to registers 
                                    768 ;------------------------------------------------------------
                                    769 ;	usr/main.c:47: void setCursor(int column,int row)
                                    770 ;	-----------------------------------------
                                    771 ;	 function setCursor
                                    772 ;	-----------------------------------------
      000062                        773 _setCursor:
                           000007   774 	ar7 = 0x07
                           000006   775 	ar6 = 0x06
                           000005   776 	ar5 = 0x05
                           000004   777 	ar4 = 0x04
                           000003   778 	ar3 = 0x03
                           000002   779 	ar2 = 0x02
                           000001   780 	ar1 = 0x01
                           000000   781 	ar0 = 0x00
      000062 85 82 08         [24]  782 	mov	_oled_colum,dpl
      000065 85 83 09         [24]  783 	mov	(_oled_colum + 1),dph
                                    784 ;	usr/main.c:50: oled_row = row;
      000068 85 28 0A         [24]  785 	mov	_oled_row,_setCursor_PARM_2
      00006B 85 29 0B         [24]  786 	mov	(_oled_row + 1),(_setCursor_PARM_2 + 1)
                                    787 ;	usr/main.c:51: }
      00006E 22               [24]  788 	ret
                                    789 ;------------------------------------------------------------
                                    790 ;Allocation info for local variables in function 'main'
                                    791 ;------------------------------------------------------------
                                    792 ;ch                        Allocated to registers 
                                    793 ;Voltage                   Allocated to registers r4 r5 r6 r7 
                                    794 ;------------------------------------------------------------
                                    795 ;	usr/main.c:58: void main(void)
                                    796 ;	-----------------------------------------
                                    797 ;	 function main
                                    798 ;	-----------------------------------------
      00006F                        799 _main:
                                    800 ;	usr/main.c:62: CfgFsys(); //CH549时钟选择配置
      00006F 12 05 47         [24]  801 	lcall	_CfgFsys
                                    802 ;	usr/main.c:63: mDelaymS(20);
      000072 90 00 14         [24]  803 	mov	dptr,#0x0014
      000075 12 05 83         [24]  804 	lcall	_mDelaymS
                                    805 ;	usr/main.c:65: SPIMasterModeSet(3); //SPI主机模式设置，模式3
      000078 75 82 03         [24]  806 	mov	dpl,#0x03
      00007B 12 05 F5         [24]  807 	lcall	_SPIMasterModeSet
                                    808 ;	usr/main.c:66: SPI_CK_SET(12);      //12分频
      00007E 75 FB 0C         [24]  809 	mov	_SPI0_CK_SE,#0x0c
                                    810 ;	usr/main.c:68: OLED_Init();
      000081 12 01 FA         [24]  811 	lcall	_OLED_Init
                                    812 ;	usr/main.c:69: OLED_Clear();
      000084 12 02 48         [24]  813 	lcall	_OLED_Clear
                                    814 ;	usr/main.c:71: ADC_ExInit(3); //ADC初始化,选择采样时钟
      000087 75 82 03         [24]  815 	mov	dpl,#0x03
      00008A 12 06 4B         [24]  816 	lcall	_ADC_ExInit
                                    817 ;	usr/main.c:73: while (1)
      00008D                        818 00105$:
                                    819 ;	usr/main.c:76: ADC_ChSelect(ch);  //选择通道
      00008D 75 82 0F         [24]  820 	mov	dpl,#0x0f
      000090 12 06 62         [24]  821 	lcall	_ADC_ChSelect
                                    822 ;	usr/main.c:77: ADC_StartSample(); //启动采样
      000093 75 F2 10         [24]  823 	mov	_ADC_CTRL,#0x10
                                    824 ;	usr/main.c:78: while ((ADC_CTRL & bADC_IF) == 0)
      000096                        825 00101$:
      000096 E5 F2            [12]  826 	mov	a,_ADC_CTRL
      000098 30 E5 FB         [24]  827 	jnb	acc.5,00101$
                                    828 ;	usr/main.c:82: ADC_CTRL = bADC_IF; //清标志
      00009B 75 F2 20         [24]  829 	mov	_ADC_CTRL,#0x20
                                    830 ;	usr/main.c:83: Voltage = (ADC_DAT / 4095.0)*5.0 ;
      00009E 85 F4 82         [24]  831 	mov	dpl,((_ADC_DAT >> 0) & 0xFF)
      0000A1 85 F5 83         [24]  832 	mov	dph,((_ADC_DAT >> 8) & 0xFF)
      0000A4 12 0C 78         [24]  833 	lcall	___uint2fs
      0000A7 AC 82            [24]  834 	mov	r4,dpl
      0000A9 AD 83            [24]  835 	mov	r5,dph
      0000AB AE F0            [24]  836 	mov	r6,b
      0000AD FF               [12]  837 	mov	r7,a
      0000AE E4               [12]  838 	clr	a
      0000AF C0 E0            [24]  839 	push	acc
      0000B1 74 F0            [12]  840 	mov	a,#0xf0
      0000B3 C0 E0            [24]  841 	push	acc
      0000B5 74 7F            [12]  842 	mov	a,#0x7f
      0000B7 C0 E0            [24]  843 	push	acc
      0000B9 74 45            [12]  844 	mov	a,#0x45
      0000BB C0 E0            [24]  845 	push	acc
      0000BD 8C 82            [24]  846 	mov	dpl,r4
      0000BF 8D 83            [24]  847 	mov	dph,r5
      0000C1 8E F0            [24]  848 	mov	b,r6
      0000C3 EF               [12]  849 	mov	a,r7
      0000C4 12 0C D3         [24]  850 	lcall	___fsdiv
      0000C7 AC 82            [24]  851 	mov	r4,dpl
      0000C9 AD 83            [24]  852 	mov	r5,dph
      0000CB AE F0            [24]  853 	mov	r6,b
      0000CD FF               [12]  854 	mov	r7,a
      0000CE E5 81            [12]  855 	mov	a,sp
      0000D0 24 FC            [12]  856 	add	a,#0xfc
      0000D2 F5 81            [12]  857 	mov	sp,a
      0000D4 C0 04            [24]  858 	push	ar4
      0000D6 C0 05            [24]  859 	push	ar5
      0000D8 C0 06            [24]  860 	push	ar6
      0000DA C0 07            [24]  861 	push	ar7
      0000DC 90 00 00         [24]  862 	mov	dptr,#0x0000
      0000DF 75 F0 A0         [24]  863 	mov	b,#0xa0
      0000E2 74 40            [12]  864 	mov	a,#0x40
      0000E4 12 0B 31         [24]  865 	lcall	___fsmul
      0000E7 AC 82            [24]  866 	mov	r4,dpl
      0000E9 AD 83            [24]  867 	mov	r5,dph
      0000EB AE F0            [24]  868 	mov	r6,b
      0000ED FF               [12]  869 	mov	r7,a
      0000EE E5 81            [12]  870 	mov	a,sp
      0000F0 24 FC            [12]  871 	add	a,#0xfc
      0000F2 F5 81            [12]  872 	mov	sp,a
                                    873 ;	usr/main.c:88: setFontSize(16); //设置显示在oled上屏幕的字号
      0000F4 75 82 10         [24]  874 	mov	dpl,#0x10
      0000F7 C0 07            [24]  875 	push	ar7
      0000F9 C0 06            [24]  876 	push	ar6
      0000FB C0 05            [24]  877 	push	ar5
      0000FD C0 04            [24]  878 	push	ar4
      0000FF 12 01 7F         [24]  879 	lcall	_setFontSize
                                    880 ;	usr/main.c:89: setCursor(0,0);//设置printf到屏幕上的字符串起始位置
      000102 E4               [12]  881 	clr	a
      000103 F5 28            [12]  882 	mov	_setCursor_PARM_2,a
      000105 F5 29            [12]  883 	mov	(_setCursor_PARM_2 + 1),a
      000107 90 00 00         [24]  884 	mov	dptr,#0x0000
      00010A 12 00 62         [24]  885 	lcall	_setCursor
      00010D D0 04            [24]  886 	pop	ar4
      00010F D0 05            [24]  887 	pop	ar5
      000111 D0 06            [24]  888 	pop	ar6
      000113 D0 07            [24]  889 	pop	ar7
                                    890 ;	usr/main.c:90: printf_fast_f("AD CJ %fV",Voltage);//显示数据到屏幕上 CJ含义为caiji（采集）
      000115 C0 04            [24]  891 	push	ar4
      000117 C0 05            [24]  892 	push	ar5
      000119 C0 06            [24]  893 	push	ar6
      00011B C0 07            [24]  894 	push	ar7
      00011D 74 C9            [12]  895 	mov	a,#___str_0
      00011F C0 E0            [24]  896 	push	acc
      000121 74 15            [12]  897 	mov	a,#(___str_0 >> 8)
      000123 C0 E0            [24]  898 	push	acc
      000125 12 06 B0         [24]  899 	lcall	_printf_fast_f
      000128 E5 81            [12]  900 	mov	a,sp
      00012A 24 FA            [12]  901 	add	a,#0xfa
      00012C F5 81            [12]  902 	mov	sp,a
                                    903 ;	usr/main.c:91: mDelaymS(300);
      00012E 90 01 2C         [24]  904 	mov	dptr,#0x012c
      000131 12 05 83         [24]  905 	lcall	_mDelaymS
                                    906 ;	usr/main.c:93: }
      000134 02 00 8D         [24]  907 	ljmp	00105$
                                    908 ;------------------------------------------------------------
                                    909 ;Allocation info for local variables in function 'putchar'
                                    910 ;------------------------------------------------------------
                                    911 ;a                         Allocated to registers r6 r7 
                                    912 ;------------------------------------------------------------
                                    913 ;	usr/main.c:100: int putchar( int a)
                                    914 ;	-----------------------------------------
                                    915 ;	 function putchar
                                    916 ;	-----------------------------------------
      000137                        917 _putchar:
      000137 AE 82            [24]  918 	mov	r6,dpl
      000139 AF 83            [24]  919 	mov	r7,dph
                                    920 ;	usr/main.c:102: OLED_ShowChar(oled_colum,oled_row,a);
      00013B 85 08 82         [24]  921 	mov	dpl,_oled_colum
      00013E 85 0A 10         [24]  922 	mov	_OLED_ShowChar_PARM_2,_oled_row
      000141 8E 11            [24]  923 	mov	_OLED_ShowChar_PARM_3,r6
      000143 C0 07            [24]  924 	push	ar7
      000145 C0 06            [24]  925 	push	ar6
      000147 12 02 C1         [24]  926 	lcall	_OLED_ShowChar
      00014A D0 06            [24]  927 	pop	ar6
      00014C D0 07            [24]  928 	pop	ar7
                                    929 ;	usr/main.c:103: oled_colum+=8;
      00014E 74 08            [12]  930 	mov	a,#0x08
      000150 25 08            [12]  931 	add	a,_oled_colum
      000152 F5 08            [12]  932 	mov	_oled_colum,a
      000154 E4               [12]  933 	clr	a
      000155 35 09            [12]  934 	addc	a,(_oled_colum + 1)
      000157 F5 09            [12]  935 	mov	(_oled_colum + 1),a
                                    936 ;	usr/main.c:104: if (oled_colum>120){oled_colum=0;oled_row+=2;}
      000159 C3               [12]  937 	clr	c
      00015A 74 78            [12]  938 	mov	a,#0x78
      00015C 95 08            [12]  939 	subb	a,_oled_colum
      00015E 74 80            [12]  940 	mov	a,#(0x00 ^ 0x80)
      000160 85 09 F0         [24]  941 	mov	b,(_oled_colum + 1)
      000163 63 F0 80         [24]  942 	xrl	b,#0x80
      000166 95 F0            [12]  943 	subb	a,b
      000168 50 10            [24]  944 	jnc	00102$
      00016A E4               [12]  945 	clr	a
      00016B F5 08            [12]  946 	mov	_oled_colum,a
      00016D F5 09            [12]  947 	mov	(_oled_colum + 1),a
      00016F 74 02            [12]  948 	mov	a,#0x02
      000171 25 0A            [12]  949 	add	a,_oled_row
      000173 F5 0A            [12]  950 	mov	_oled_row,a
      000175 E4               [12]  951 	clr	a
      000176 35 0B            [12]  952 	addc	a,(_oled_row + 1)
      000178 F5 0B            [12]  953 	mov	(_oled_row + 1),a
      00017A                        954 00102$:
                                    955 ;	usr/main.c:105: return(a);
      00017A 8E 82            [24]  956 	mov	dpl,r6
      00017C 8F 83            [24]  957 	mov	dph,r7
                                    958 ;	usr/main.c:106: }
      00017E 22               [24]  959 	ret
                                    960 	.area CSEG    (CODE)
                                    961 	.area CONST   (CODE)
      000DC9                        962 _BMP1:
      000DC9 00                     963 	.db #0x00	; 0
      000DCA 03                     964 	.db #0x03	; 3
      000DCB 05                     965 	.db #0x05	; 5
      000DCC 09                     966 	.db #0x09	; 9
      000DCD 11                     967 	.db #0x11	; 17
      000DCE FF                     968 	.db #0xff	; 255
      000DCF 11                     969 	.db #0x11	; 17
      000DD0 89                     970 	.db #0x89	; 137
      000DD1 05                     971 	.db #0x05	; 5
      000DD2 C3                     972 	.db #0xc3	; 195
      000DD3 00                     973 	.db #0x00	; 0
      000DD4 E0                     974 	.db #0xe0	; 224
      000DD5 00                     975 	.db #0x00	; 0
      000DD6 F0                     976 	.db #0xf0	; 240
      000DD7 00                     977 	.db #0x00	; 0
      000DD8 F8                     978 	.db #0xf8	; 248
      000DD9 00                     979 	.db #0x00	; 0
      000DDA 00                     980 	.db #0x00	; 0
      000DDB 00                     981 	.db #0x00	; 0
      000DDC 00                     982 	.db #0x00	; 0
      000DDD 00                     983 	.db #0x00	; 0
      000DDE 00                     984 	.db #0x00	; 0
      000DDF 00                     985 	.db #0x00	; 0
      000DE0 44                     986 	.db #0x44	; 68	'D'
      000DE1 28                     987 	.db #0x28	; 40
      000DE2 FF                     988 	.db #0xff	; 255
      000DE3 11                     989 	.db #0x11	; 17
      000DE4 AA                     990 	.db #0xaa	; 170
      000DE5 44                     991 	.db #0x44	; 68	'D'
      000DE6 00                     992 	.db #0x00	; 0
      000DE7 00                     993 	.db #0x00	; 0
      000DE8 00                     994 	.db #0x00	; 0
      000DE9 00                     995 	.db #0x00	; 0
      000DEA 00                     996 	.db #0x00	; 0
      000DEB 00                     997 	.db #0x00	; 0
      000DEC 00                     998 	.db #0x00	; 0
      000DED 00                     999 	.db #0x00	; 0
      000DEE 00                    1000 	.db #0x00	; 0
      000DEF 00                    1001 	.db #0x00	; 0
      000DF0 00                    1002 	.db #0x00	; 0
      000DF1 00                    1003 	.db #0x00	; 0
      000DF2 00                    1004 	.db #0x00	; 0
      000DF3 00                    1005 	.db #0x00	; 0
      000DF4 00                    1006 	.db #0x00	; 0
      000DF5 00                    1007 	.db #0x00	; 0
      000DF6 00                    1008 	.db #0x00	; 0
      000DF7 00                    1009 	.db #0x00	; 0
      000DF8 00                    1010 	.db #0x00	; 0
      000DF9 00                    1011 	.db #0x00	; 0
      000DFA 00                    1012 	.db #0x00	; 0
      000DFB 00                    1013 	.db #0x00	; 0
      000DFC 00                    1014 	.db #0x00	; 0
      000DFD 00                    1015 	.db #0x00	; 0
      000DFE 00                    1016 	.db #0x00	; 0
      000DFF 00                    1017 	.db #0x00	; 0
      000E00 00                    1018 	.db #0x00	; 0
      000E01 00                    1019 	.db #0x00	; 0
      000E02 00                    1020 	.db #0x00	; 0
      000E03 00                    1021 	.db #0x00	; 0
      000E04 00                    1022 	.db #0x00	; 0
      000E05 00                    1023 	.db #0x00	; 0
      000E06 00                    1024 	.db #0x00	; 0
      000E07 00                    1025 	.db #0x00	; 0
      000E08 00                    1026 	.db #0x00	; 0
      000E09 00                    1027 	.db #0x00	; 0
      000E0A 00                    1028 	.db #0x00	; 0
      000E0B 00                    1029 	.db #0x00	; 0
      000E0C 00                    1030 	.db #0x00	; 0
      000E0D 00                    1031 	.db #0x00	; 0
      000E0E 00                    1032 	.db #0x00	; 0
      000E0F 00                    1033 	.db #0x00	; 0
      000E10 00                    1034 	.db #0x00	; 0
      000E11 00                    1035 	.db #0x00	; 0
      000E12 00                    1036 	.db #0x00	; 0
      000E13 00                    1037 	.db #0x00	; 0
      000E14 00                    1038 	.db #0x00	; 0
      000E15 00                    1039 	.db #0x00	; 0
      000E16 00                    1040 	.db #0x00	; 0
      000E17 00                    1041 	.db #0x00	; 0
      000E18 00                    1042 	.db #0x00	; 0
      000E19 00                    1043 	.db #0x00	; 0
      000E1A 00                    1044 	.db #0x00	; 0
      000E1B 00                    1045 	.db #0x00	; 0
      000E1C 00                    1046 	.db #0x00	; 0
      000E1D 00                    1047 	.db #0x00	; 0
      000E1E 00                    1048 	.db #0x00	; 0
      000E1F 00                    1049 	.db #0x00	; 0
      000E20 00                    1050 	.db #0x00	; 0
      000E21 00                    1051 	.db #0x00	; 0
      000E22 00                    1052 	.db #0x00	; 0
      000E23 83                    1053 	.db #0x83	; 131
      000E24 01                    1054 	.db #0x01	; 1
      000E25 38                    1055 	.db #0x38	; 56	'8'
      000E26 44                    1056 	.db #0x44	; 68	'D'
      000E27 82                    1057 	.db #0x82	; 130
      000E28 92                    1058 	.db #0x92	; 146
      000E29 92                    1059 	.db #0x92	; 146
      000E2A 74                    1060 	.db #0x74	; 116	't'
      000E2B 01                    1061 	.db #0x01	; 1
      000E2C 83                    1062 	.db #0x83	; 131
      000E2D 00                    1063 	.db #0x00	; 0
      000E2E 00                    1064 	.db #0x00	; 0
      000E2F 00                    1065 	.db #0x00	; 0
      000E30 00                    1066 	.db #0x00	; 0
      000E31 00                    1067 	.db #0x00	; 0
      000E32 00                    1068 	.db #0x00	; 0
      000E33 00                    1069 	.db #0x00	; 0
      000E34 7C                    1070 	.db #0x7c	; 124
      000E35 44                    1071 	.db #0x44	; 68	'D'
      000E36 FF                    1072 	.db #0xff	; 255
      000E37 01                    1073 	.db #0x01	; 1
      000E38 7D                    1074 	.db #0x7d	; 125
      000E39 7D                    1075 	.db #0x7d	; 125
      000E3A 7D                    1076 	.db #0x7d	; 125
      000E3B 01                    1077 	.db #0x01	; 1
      000E3C 7D                    1078 	.db #0x7d	; 125
      000E3D 7D                    1079 	.db #0x7d	; 125
      000E3E 7D                    1080 	.db #0x7d	; 125
      000E3F 7D                    1081 	.db #0x7d	; 125
      000E40 01                    1082 	.db #0x01	; 1
      000E41 7D                    1083 	.db #0x7d	; 125
      000E42 7D                    1084 	.db #0x7d	; 125
      000E43 7D                    1085 	.db #0x7d	; 125
      000E44 7D                    1086 	.db #0x7d	; 125
      000E45 7D                    1087 	.db #0x7d	; 125
      000E46 01                    1088 	.db #0x01	; 1
      000E47 FF                    1089 	.db #0xff	; 255
      000E48 00                    1090 	.db #0x00	; 0
      000E49 00                    1091 	.db #0x00	; 0
      000E4A 00                    1092 	.db #0x00	; 0
      000E4B 00                    1093 	.db #0x00	; 0
      000E4C 00                    1094 	.db #0x00	; 0
      000E4D 00                    1095 	.db #0x00	; 0
      000E4E 01                    1096 	.db #0x01	; 1
      000E4F 00                    1097 	.db #0x00	; 0
      000E50 01                    1098 	.db #0x01	; 1
      000E51 00                    1099 	.db #0x00	; 0
      000E52 01                    1100 	.db #0x01	; 1
      000E53 00                    1101 	.db #0x00	; 0
      000E54 01                    1102 	.db #0x01	; 1
      000E55 00                    1103 	.db #0x00	; 0
      000E56 01                    1104 	.db #0x01	; 1
      000E57 00                    1105 	.db #0x00	; 0
      000E58 01                    1106 	.db #0x01	; 1
      000E59 00                    1107 	.db #0x00	; 0
      000E5A 00                    1108 	.db #0x00	; 0
      000E5B 00                    1109 	.db #0x00	; 0
      000E5C 00                    1110 	.db #0x00	; 0
      000E5D 00                    1111 	.db #0x00	; 0
      000E5E 00                    1112 	.db #0x00	; 0
      000E5F 00                    1113 	.db #0x00	; 0
      000E60 00                    1114 	.db #0x00	; 0
      000E61 00                    1115 	.db #0x00	; 0
      000E62 01                    1116 	.db #0x01	; 1
      000E63 01                    1117 	.db #0x01	; 1
      000E64 00                    1118 	.db #0x00	; 0
      000E65 00                    1119 	.db #0x00	; 0
      000E66 00                    1120 	.db #0x00	; 0
      000E67 00                    1121 	.db #0x00	; 0
      000E68 00                    1122 	.db #0x00	; 0
      000E69 00                    1123 	.db #0x00	; 0
      000E6A 00                    1124 	.db #0x00	; 0
      000E6B 00                    1125 	.db #0x00	; 0
      000E6C 00                    1126 	.db #0x00	; 0
      000E6D 00                    1127 	.db #0x00	; 0
      000E6E 00                    1128 	.db #0x00	; 0
      000E6F 00                    1129 	.db #0x00	; 0
      000E70 00                    1130 	.db #0x00	; 0
      000E71 00                    1131 	.db #0x00	; 0
      000E72 00                    1132 	.db #0x00	; 0
      000E73 00                    1133 	.db #0x00	; 0
      000E74 00                    1134 	.db #0x00	; 0
      000E75 00                    1135 	.db #0x00	; 0
      000E76 00                    1136 	.db #0x00	; 0
      000E77 00                    1137 	.db #0x00	; 0
      000E78 00                    1138 	.db #0x00	; 0
      000E79 00                    1139 	.db #0x00	; 0
      000E7A 00                    1140 	.db #0x00	; 0
      000E7B 00                    1141 	.db #0x00	; 0
      000E7C 00                    1142 	.db #0x00	; 0
      000E7D 00                    1143 	.db #0x00	; 0
      000E7E 00                    1144 	.db #0x00	; 0
      000E7F 00                    1145 	.db #0x00	; 0
      000E80 00                    1146 	.db #0x00	; 0
      000E81 00                    1147 	.db #0x00	; 0
      000E82 00                    1148 	.db #0x00	; 0
      000E83 00                    1149 	.db #0x00	; 0
      000E84 00                    1150 	.db #0x00	; 0
      000E85 00                    1151 	.db #0x00	; 0
      000E86 00                    1152 	.db #0x00	; 0
      000E87 00                    1153 	.db #0x00	; 0
      000E88 00                    1154 	.db #0x00	; 0
      000E89 00                    1155 	.db #0x00	; 0
      000E8A 00                    1156 	.db #0x00	; 0
      000E8B 00                    1157 	.db #0x00	; 0
      000E8C 00                    1158 	.db #0x00	; 0
      000E8D 00                    1159 	.db #0x00	; 0
      000E8E 00                    1160 	.db #0x00	; 0
      000E8F 00                    1161 	.db #0x00	; 0
      000E90 00                    1162 	.db #0x00	; 0
      000E91 00                    1163 	.db #0x00	; 0
      000E92 00                    1164 	.db #0x00	; 0
      000E93 00                    1165 	.db #0x00	; 0
      000E94 00                    1166 	.db #0x00	; 0
      000E95 00                    1167 	.db #0x00	; 0
      000E96 00                    1168 	.db #0x00	; 0
      000E97 00                    1169 	.db #0x00	; 0
      000E98 00                    1170 	.db #0x00	; 0
      000E99 00                    1171 	.db #0x00	; 0
      000E9A 00                    1172 	.db #0x00	; 0
      000E9B 00                    1173 	.db #0x00	; 0
      000E9C 00                    1174 	.db #0x00	; 0
      000E9D 00                    1175 	.db #0x00	; 0
      000E9E 00                    1176 	.db #0x00	; 0
      000E9F 00                    1177 	.db #0x00	; 0
      000EA0 00                    1178 	.db #0x00	; 0
      000EA1 00                    1179 	.db #0x00	; 0
      000EA2 00                    1180 	.db #0x00	; 0
      000EA3 01                    1181 	.db #0x01	; 1
      000EA4 01                    1182 	.db #0x01	; 1
      000EA5 00                    1183 	.db #0x00	; 0
      000EA6 00                    1184 	.db #0x00	; 0
      000EA7 00                    1185 	.db #0x00	; 0
      000EA8 00                    1186 	.db #0x00	; 0
      000EA9 00                    1187 	.db #0x00	; 0
      000EAA 00                    1188 	.db #0x00	; 0
      000EAB 01                    1189 	.db #0x01	; 1
      000EAC 01                    1190 	.db #0x01	; 1
      000EAD 00                    1191 	.db #0x00	; 0
      000EAE 00                    1192 	.db #0x00	; 0
      000EAF 00                    1193 	.db #0x00	; 0
      000EB0 00                    1194 	.db #0x00	; 0
      000EB1 00                    1195 	.db #0x00	; 0
      000EB2 00                    1196 	.db #0x00	; 0
      000EB3 00                    1197 	.db #0x00	; 0
      000EB4 00                    1198 	.db #0x00	; 0
      000EB5 00                    1199 	.db #0x00	; 0
      000EB6 01                    1200 	.db #0x01	; 1
      000EB7 01                    1201 	.db #0x01	; 1
      000EB8 01                    1202 	.db #0x01	; 1
      000EB9 01                    1203 	.db #0x01	; 1
      000EBA 01                    1204 	.db #0x01	; 1
      000EBB 01                    1205 	.db #0x01	; 1
      000EBC 01                    1206 	.db #0x01	; 1
      000EBD 01                    1207 	.db #0x01	; 1
      000EBE 01                    1208 	.db #0x01	; 1
      000EBF 01                    1209 	.db #0x01	; 1
      000EC0 01                    1210 	.db #0x01	; 1
      000EC1 01                    1211 	.db #0x01	; 1
      000EC2 01                    1212 	.db #0x01	; 1
      000EC3 01                    1213 	.db #0x01	; 1
      000EC4 01                    1214 	.db #0x01	; 1
      000EC5 01                    1215 	.db #0x01	; 1
      000EC6 01                    1216 	.db #0x01	; 1
      000EC7 01                    1217 	.db #0x01	; 1
      000EC8 00                    1218 	.db #0x00	; 0
      000EC9 00                    1219 	.db #0x00	; 0
      000ECA 00                    1220 	.db #0x00	; 0
      000ECB 00                    1221 	.db #0x00	; 0
      000ECC 00                    1222 	.db #0x00	; 0
      000ECD 00                    1223 	.db #0x00	; 0
      000ECE 00                    1224 	.db #0x00	; 0
      000ECF 00                    1225 	.db #0x00	; 0
      000ED0 00                    1226 	.db #0x00	; 0
      000ED1 00                    1227 	.db #0x00	; 0
      000ED2 00                    1228 	.db #0x00	; 0
      000ED3 00                    1229 	.db #0x00	; 0
      000ED4 00                    1230 	.db #0x00	; 0
      000ED5 00                    1231 	.db #0x00	; 0
      000ED6 00                    1232 	.db #0x00	; 0
      000ED7 00                    1233 	.db #0x00	; 0
      000ED8 00                    1234 	.db #0x00	; 0
      000ED9 00                    1235 	.db #0x00	; 0
      000EDA 00                    1236 	.db #0x00	; 0
      000EDB 00                    1237 	.db #0x00	; 0
      000EDC 00                    1238 	.db #0x00	; 0
      000EDD 00                    1239 	.db #0x00	; 0
      000EDE 00                    1240 	.db #0x00	; 0
      000EDF 00                    1241 	.db #0x00	; 0
      000EE0 00                    1242 	.db #0x00	; 0
      000EE1 00                    1243 	.db #0x00	; 0
      000EE2 00                    1244 	.db #0x00	; 0
      000EE3 00                    1245 	.db #0x00	; 0
      000EE4 00                    1246 	.db #0x00	; 0
      000EE5 3F                    1247 	.db #0x3f	; 63
      000EE6 3F                    1248 	.db #0x3f	; 63
      000EE7 03                    1249 	.db #0x03	; 3
      000EE8 03                    1250 	.db #0x03	; 3
      000EE9 F3                    1251 	.db #0xf3	; 243
      000EEA 13                    1252 	.db #0x13	; 19
      000EEB 11                    1253 	.db #0x11	; 17
      000EEC 11                    1254 	.db #0x11	; 17
      000EED 11                    1255 	.db #0x11	; 17
      000EEE 11                    1256 	.db #0x11	; 17
      000EEF 11                    1257 	.db #0x11	; 17
      000EF0 11                    1258 	.db #0x11	; 17
      000EF1 01                    1259 	.db #0x01	; 1
      000EF2 F1                    1260 	.db #0xf1	; 241
      000EF3 11                    1261 	.db #0x11	; 17
      000EF4 61                    1262 	.db #0x61	; 97	'a'
      000EF5 81                    1263 	.db #0x81	; 129
      000EF6 01                    1264 	.db #0x01	; 1
      000EF7 01                    1265 	.db #0x01	; 1
      000EF8 01                    1266 	.db #0x01	; 1
      000EF9 81                    1267 	.db #0x81	; 129
      000EFA 61                    1268 	.db #0x61	; 97	'a'
      000EFB 11                    1269 	.db #0x11	; 17
      000EFC F1                    1270 	.db #0xf1	; 241
      000EFD 01                    1271 	.db #0x01	; 1
      000EFE 01                    1272 	.db #0x01	; 1
      000EFF 01                    1273 	.db #0x01	; 1
      000F00 01                    1274 	.db #0x01	; 1
      000F01 41                    1275 	.db #0x41	; 65	'A'
      000F02 41                    1276 	.db #0x41	; 65	'A'
      000F03 F1                    1277 	.db #0xf1	; 241
      000F04 01                    1278 	.db #0x01	; 1
      000F05 01                    1279 	.db #0x01	; 1
      000F06 01                    1280 	.db #0x01	; 1
      000F07 01                    1281 	.db #0x01	; 1
      000F08 01                    1282 	.db #0x01	; 1
      000F09 C1                    1283 	.db #0xc1	; 193
      000F0A 21                    1284 	.db #0x21	; 33
      000F0B 11                    1285 	.db #0x11	; 17
      000F0C 11                    1286 	.db #0x11	; 17
      000F0D 11                    1287 	.db #0x11	; 17
      000F0E 11                    1288 	.db #0x11	; 17
      000F0F 21                    1289 	.db #0x21	; 33
      000F10 C1                    1290 	.db #0xc1	; 193
      000F11 01                    1291 	.db #0x01	; 1
      000F12 01                    1292 	.db #0x01	; 1
      000F13 01                    1293 	.db #0x01	; 1
      000F14 01                    1294 	.db #0x01	; 1
      000F15 41                    1295 	.db #0x41	; 65	'A'
      000F16 41                    1296 	.db #0x41	; 65	'A'
      000F17 F1                    1297 	.db #0xf1	; 241
      000F18 01                    1298 	.db #0x01	; 1
      000F19 01                    1299 	.db #0x01	; 1
      000F1A 01                    1300 	.db #0x01	; 1
      000F1B 01                    1301 	.db #0x01	; 1
      000F1C 01                    1302 	.db #0x01	; 1
      000F1D 01                    1303 	.db #0x01	; 1
      000F1E 01                    1304 	.db #0x01	; 1
      000F1F 01                    1305 	.db #0x01	; 1
      000F20 01                    1306 	.db #0x01	; 1
      000F21 01                    1307 	.db #0x01	; 1
      000F22 11                    1308 	.db #0x11	; 17
      000F23 11                    1309 	.db #0x11	; 17
      000F24 11                    1310 	.db #0x11	; 17
      000F25 11                    1311 	.db #0x11	; 17
      000F26 11                    1312 	.db #0x11	; 17
      000F27 D3                    1313 	.db #0xd3	; 211
      000F28 33                    1314 	.db #0x33	; 51	'3'
      000F29 03                    1315 	.db #0x03	; 3
      000F2A 03                    1316 	.db #0x03	; 3
      000F2B 3F                    1317 	.db #0x3f	; 63
      000F2C 3F                    1318 	.db #0x3f	; 63
      000F2D 00                    1319 	.db #0x00	; 0
      000F2E 00                    1320 	.db #0x00	; 0
      000F2F 00                    1321 	.db #0x00	; 0
      000F30 00                    1322 	.db #0x00	; 0
      000F31 00                    1323 	.db #0x00	; 0
      000F32 00                    1324 	.db #0x00	; 0
      000F33 00                    1325 	.db #0x00	; 0
      000F34 00                    1326 	.db #0x00	; 0
      000F35 00                    1327 	.db #0x00	; 0
      000F36 00                    1328 	.db #0x00	; 0
      000F37 00                    1329 	.db #0x00	; 0
      000F38 00                    1330 	.db #0x00	; 0
      000F39 00                    1331 	.db #0x00	; 0
      000F3A 00                    1332 	.db #0x00	; 0
      000F3B 00                    1333 	.db #0x00	; 0
      000F3C 00                    1334 	.db #0x00	; 0
      000F3D 00                    1335 	.db #0x00	; 0
      000F3E 00                    1336 	.db #0x00	; 0
      000F3F 00                    1337 	.db #0x00	; 0
      000F40 00                    1338 	.db #0x00	; 0
      000F41 00                    1339 	.db #0x00	; 0
      000F42 00                    1340 	.db #0x00	; 0
      000F43 00                    1341 	.db #0x00	; 0
      000F44 00                    1342 	.db #0x00	; 0
      000F45 00                    1343 	.db #0x00	; 0
      000F46 00                    1344 	.db #0x00	; 0
      000F47 00                    1345 	.db #0x00	; 0
      000F48 00                    1346 	.db #0x00	; 0
      000F49 00                    1347 	.db #0x00	; 0
      000F4A 00                    1348 	.db #0x00	; 0
      000F4B 00                    1349 	.db #0x00	; 0
      000F4C 00                    1350 	.db #0x00	; 0
      000F4D 00                    1351 	.db #0x00	; 0
      000F4E 00                    1352 	.db #0x00	; 0
      000F4F 00                    1353 	.db #0x00	; 0
      000F50 00                    1354 	.db #0x00	; 0
      000F51 00                    1355 	.db #0x00	; 0
      000F52 00                    1356 	.db #0x00	; 0
      000F53 00                    1357 	.db #0x00	; 0
      000F54 00                    1358 	.db #0x00	; 0
      000F55 00                    1359 	.db #0x00	; 0
      000F56 00                    1360 	.db #0x00	; 0
      000F57 00                    1361 	.db #0x00	; 0
      000F58 00                    1362 	.db #0x00	; 0
      000F59 00                    1363 	.db #0x00	; 0
      000F5A 00                    1364 	.db #0x00	; 0
      000F5B 00                    1365 	.db #0x00	; 0
      000F5C 00                    1366 	.db #0x00	; 0
      000F5D 00                    1367 	.db #0x00	; 0
      000F5E 00                    1368 	.db #0x00	; 0
      000F5F 00                    1369 	.db #0x00	; 0
      000F60 00                    1370 	.db #0x00	; 0
      000F61 00                    1371 	.db #0x00	; 0
      000F62 00                    1372 	.db #0x00	; 0
      000F63 00                    1373 	.db #0x00	; 0
      000F64 00                    1374 	.db #0x00	; 0
      000F65 E0                    1375 	.db #0xe0	; 224
      000F66 E0                    1376 	.db #0xe0	; 224
      000F67 00                    1377 	.db #0x00	; 0
      000F68 00                    1378 	.db #0x00	; 0
      000F69 7F                    1379 	.db #0x7f	; 127
      000F6A 01                    1380 	.db #0x01	; 1
      000F6B 01                    1381 	.db #0x01	; 1
      000F6C 01                    1382 	.db #0x01	; 1
      000F6D 01                    1383 	.db #0x01	; 1
      000F6E 01                    1384 	.db #0x01	; 1
      000F6F 01                    1385 	.db #0x01	; 1
      000F70 00                    1386 	.db #0x00	; 0
      000F71 00                    1387 	.db #0x00	; 0
      000F72 7F                    1388 	.db #0x7f	; 127
      000F73 00                    1389 	.db #0x00	; 0
      000F74 00                    1390 	.db #0x00	; 0
      000F75 01                    1391 	.db #0x01	; 1
      000F76 06                    1392 	.db #0x06	; 6
      000F77 18                    1393 	.db #0x18	; 24
      000F78 06                    1394 	.db #0x06	; 6
      000F79 01                    1395 	.db #0x01	; 1
      000F7A 00                    1396 	.db #0x00	; 0
      000F7B 00                    1397 	.db #0x00	; 0
      000F7C 7F                    1398 	.db #0x7f	; 127
      000F7D 00                    1399 	.db #0x00	; 0
      000F7E 00                    1400 	.db #0x00	; 0
      000F7F 00                    1401 	.db #0x00	; 0
      000F80 00                    1402 	.db #0x00	; 0
      000F81 40                    1403 	.db #0x40	; 64
      000F82 40                    1404 	.db #0x40	; 64
      000F83 7F                    1405 	.db #0x7f	; 127
      000F84 40                    1406 	.db #0x40	; 64
      000F85 40                    1407 	.db #0x40	; 64
      000F86 00                    1408 	.db #0x00	; 0
      000F87 00                    1409 	.db #0x00	; 0
      000F88 00                    1410 	.db #0x00	; 0
      000F89 1F                    1411 	.db #0x1f	; 31
      000F8A 20                    1412 	.db #0x20	; 32
      000F8B 40                    1413 	.db #0x40	; 64
      000F8C 40                    1414 	.db #0x40	; 64
      000F8D 40                    1415 	.db #0x40	; 64
      000F8E 40                    1416 	.db #0x40	; 64
      000F8F 20                    1417 	.db #0x20	; 32
      000F90 1F                    1418 	.db #0x1f	; 31
      000F91 00                    1419 	.db #0x00	; 0
      000F92 00                    1420 	.db #0x00	; 0
      000F93 00                    1421 	.db #0x00	; 0
      000F94 00                    1422 	.db #0x00	; 0
      000F95 40                    1423 	.db #0x40	; 64
      000F96 40                    1424 	.db #0x40	; 64
      000F97 7F                    1425 	.db #0x7f	; 127
      000F98 40                    1426 	.db #0x40	; 64
      000F99 40                    1427 	.db #0x40	; 64
      000F9A 00                    1428 	.db #0x00	; 0
      000F9B 00                    1429 	.db #0x00	; 0
      000F9C 00                    1430 	.db #0x00	; 0
      000F9D 00                    1431 	.db #0x00	; 0
      000F9E 60                    1432 	.db #0x60	; 96
      000F9F 00                    1433 	.db #0x00	; 0
      000FA0 00                    1434 	.db #0x00	; 0
      000FA1 00                    1435 	.db #0x00	; 0
      000FA2 00                    1436 	.db #0x00	; 0
      000FA3 40                    1437 	.db #0x40	; 64
      000FA4 30                    1438 	.db #0x30	; 48	'0'
      000FA5 0C                    1439 	.db #0x0c	; 12
      000FA6 03                    1440 	.db #0x03	; 3
      000FA7 00                    1441 	.db #0x00	; 0
      000FA8 00                    1442 	.db #0x00	; 0
      000FA9 00                    1443 	.db #0x00	; 0
      000FAA 00                    1444 	.db #0x00	; 0
      000FAB E0                    1445 	.db #0xe0	; 224
      000FAC E0                    1446 	.db #0xe0	; 224
      000FAD 00                    1447 	.db #0x00	; 0
      000FAE 00                    1448 	.db #0x00	; 0
      000FAF 00                    1449 	.db #0x00	; 0
      000FB0 00                    1450 	.db #0x00	; 0
      000FB1 00                    1451 	.db #0x00	; 0
      000FB2 00                    1452 	.db #0x00	; 0
      000FB3 00                    1453 	.db #0x00	; 0
      000FB4 00                    1454 	.db #0x00	; 0
      000FB5 00                    1455 	.db #0x00	; 0
      000FB6 00                    1456 	.db #0x00	; 0
      000FB7 00                    1457 	.db #0x00	; 0
      000FB8 00                    1458 	.db #0x00	; 0
      000FB9 00                    1459 	.db #0x00	; 0
      000FBA 00                    1460 	.db #0x00	; 0
      000FBB 00                    1461 	.db #0x00	; 0
      000FBC 00                    1462 	.db #0x00	; 0
      000FBD 00                    1463 	.db #0x00	; 0
      000FBE 00                    1464 	.db #0x00	; 0
      000FBF 00                    1465 	.db #0x00	; 0
      000FC0 00                    1466 	.db #0x00	; 0
      000FC1 00                    1467 	.db #0x00	; 0
      000FC2 00                    1468 	.db #0x00	; 0
      000FC3 00                    1469 	.db #0x00	; 0
      000FC4 00                    1470 	.db #0x00	; 0
      000FC5 00                    1471 	.db #0x00	; 0
      000FC6 00                    1472 	.db #0x00	; 0
      000FC7 00                    1473 	.db #0x00	; 0
      000FC8 00                    1474 	.db #0x00	; 0
      000FC9 00                    1475 	.db #0x00	; 0
      000FCA 00                    1476 	.db #0x00	; 0
      000FCB 00                    1477 	.db #0x00	; 0
      000FCC 00                    1478 	.db #0x00	; 0
      000FCD 00                    1479 	.db #0x00	; 0
      000FCE 00                    1480 	.db #0x00	; 0
      000FCF 00                    1481 	.db #0x00	; 0
      000FD0 00                    1482 	.db #0x00	; 0
      000FD1 00                    1483 	.db #0x00	; 0
      000FD2 00                    1484 	.db #0x00	; 0
      000FD3 00                    1485 	.db #0x00	; 0
      000FD4 00                    1486 	.db #0x00	; 0
      000FD5 00                    1487 	.db #0x00	; 0
      000FD6 00                    1488 	.db #0x00	; 0
      000FD7 00                    1489 	.db #0x00	; 0
      000FD8 00                    1490 	.db #0x00	; 0
      000FD9 00                    1491 	.db #0x00	; 0
      000FDA 00                    1492 	.db #0x00	; 0
      000FDB 00                    1493 	.db #0x00	; 0
      000FDC 00                    1494 	.db #0x00	; 0
      000FDD 00                    1495 	.db #0x00	; 0
      000FDE 00                    1496 	.db #0x00	; 0
      000FDF 00                    1497 	.db #0x00	; 0
      000FE0 00                    1498 	.db #0x00	; 0
      000FE1 00                    1499 	.db #0x00	; 0
      000FE2 00                    1500 	.db #0x00	; 0
      000FE3 00                    1501 	.db #0x00	; 0
      000FE4 00                    1502 	.db #0x00	; 0
      000FE5 07                    1503 	.db #0x07	; 7
      000FE6 07                    1504 	.db #0x07	; 7
      000FE7 06                    1505 	.db #0x06	; 6
      000FE8 06                    1506 	.db #0x06	; 6
      000FE9 06                    1507 	.db #0x06	; 6
      000FEA 06                    1508 	.db #0x06	; 6
      000FEB 04                    1509 	.db #0x04	; 4
      000FEC 04                    1510 	.db #0x04	; 4
      000FED 04                    1511 	.db #0x04	; 4
      000FEE 84                    1512 	.db #0x84	; 132
      000FEF 44                    1513 	.db #0x44	; 68	'D'
      000FF0 44                    1514 	.db #0x44	; 68	'D'
      000FF1 44                    1515 	.db #0x44	; 68	'D'
      000FF2 84                    1516 	.db #0x84	; 132
      000FF3 04                    1517 	.db #0x04	; 4
      000FF4 04                    1518 	.db #0x04	; 4
      000FF5 84                    1519 	.db #0x84	; 132
      000FF6 44                    1520 	.db #0x44	; 68	'D'
      000FF7 44                    1521 	.db #0x44	; 68	'D'
      000FF8 44                    1522 	.db #0x44	; 68	'D'
      000FF9 84                    1523 	.db #0x84	; 132
      000FFA 04                    1524 	.db #0x04	; 4
      000FFB 04                    1525 	.db #0x04	; 4
      000FFC 04                    1526 	.db #0x04	; 4
      000FFD 84                    1527 	.db #0x84	; 132
      000FFE C4                    1528 	.db #0xc4	; 196
      000FFF 04                    1529 	.db #0x04	; 4
      001000 04                    1530 	.db #0x04	; 4
      001001 04                    1531 	.db #0x04	; 4
      001002 04                    1532 	.db #0x04	; 4
      001003 84                    1533 	.db #0x84	; 132
      001004 44                    1534 	.db #0x44	; 68	'D'
      001005 44                    1535 	.db #0x44	; 68	'D'
      001006 44                    1536 	.db #0x44	; 68	'D'
      001007 84                    1537 	.db #0x84	; 132
      001008 04                    1538 	.db #0x04	; 4
      001009 04                    1539 	.db #0x04	; 4
      00100A 04                    1540 	.db #0x04	; 4
      00100B 04                    1541 	.db #0x04	; 4
      00100C 04                    1542 	.db #0x04	; 4
      00100D 84                    1543 	.db #0x84	; 132
      00100E 44                    1544 	.db #0x44	; 68	'D'
      00100F 44                    1545 	.db #0x44	; 68	'D'
      001010 44                    1546 	.db #0x44	; 68	'D'
      001011 84                    1547 	.db #0x84	; 132
      001012 04                    1548 	.db #0x04	; 4
      001013 04                    1549 	.db #0x04	; 4
      001014 04                    1550 	.db #0x04	; 4
      001015 04                    1551 	.db #0x04	; 4
      001016 04                    1552 	.db #0x04	; 4
      001017 84                    1553 	.db #0x84	; 132
      001018 44                    1554 	.db #0x44	; 68	'D'
      001019 44                    1555 	.db #0x44	; 68	'D'
      00101A 44                    1556 	.db #0x44	; 68	'D'
      00101B 84                    1557 	.db #0x84	; 132
      00101C 04                    1558 	.db #0x04	; 4
      00101D 04                    1559 	.db #0x04	; 4
      00101E 84                    1560 	.db #0x84	; 132
      00101F 44                    1561 	.db #0x44	; 68	'D'
      001020 44                    1562 	.db #0x44	; 68	'D'
      001021 44                    1563 	.db #0x44	; 68	'D'
      001022 84                    1564 	.db #0x84	; 132
      001023 04                    1565 	.db #0x04	; 4
      001024 04                    1566 	.db #0x04	; 4
      001025 04                    1567 	.db #0x04	; 4
      001026 04                    1568 	.db #0x04	; 4
      001027 06                    1569 	.db #0x06	; 6
      001028 06                    1570 	.db #0x06	; 6
      001029 06                    1571 	.db #0x06	; 6
      00102A 06                    1572 	.db #0x06	; 6
      00102B 07                    1573 	.db #0x07	; 7
      00102C 07                    1574 	.db #0x07	; 7
      00102D 00                    1575 	.db #0x00	; 0
      00102E 00                    1576 	.db #0x00	; 0
      00102F 00                    1577 	.db #0x00	; 0
      001030 00                    1578 	.db #0x00	; 0
      001031 00                    1579 	.db #0x00	; 0
      001032 00                    1580 	.db #0x00	; 0
      001033 00                    1581 	.db #0x00	; 0
      001034 00                    1582 	.db #0x00	; 0
      001035 00                    1583 	.db #0x00	; 0
      001036 00                    1584 	.db #0x00	; 0
      001037 00                    1585 	.db #0x00	; 0
      001038 00                    1586 	.db #0x00	; 0
      001039 00                    1587 	.db #0x00	; 0
      00103A 00                    1588 	.db #0x00	; 0
      00103B 00                    1589 	.db #0x00	; 0
      00103C 00                    1590 	.db #0x00	; 0
      00103D 00                    1591 	.db #0x00	; 0
      00103E 00                    1592 	.db #0x00	; 0
      00103F 00                    1593 	.db #0x00	; 0
      001040 00                    1594 	.db #0x00	; 0
      001041 00                    1595 	.db #0x00	; 0
      001042 00                    1596 	.db #0x00	; 0
      001043 00                    1597 	.db #0x00	; 0
      001044 00                    1598 	.db #0x00	; 0
      001045 00                    1599 	.db #0x00	; 0
      001046 00                    1600 	.db #0x00	; 0
      001047 00                    1601 	.db #0x00	; 0
      001048 00                    1602 	.db #0x00	; 0
      001049 00                    1603 	.db #0x00	; 0
      00104A 00                    1604 	.db #0x00	; 0
      00104B 00                    1605 	.db #0x00	; 0
      00104C 00                    1606 	.db #0x00	; 0
      00104D 00                    1607 	.db #0x00	; 0
      00104E 00                    1608 	.db #0x00	; 0
      00104F 00                    1609 	.db #0x00	; 0
      001050 00                    1610 	.db #0x00	; 0
      001051 00                    1611 	.db #0x00	; 0
      001052 00                    1612 	.db #0x00	; 0
      001053 00                    1613 	.db #0x00	; 0
      001054 00                    1614 	.db #0x00	; 0
      001055 00                    1615 	.db #0x00	; 0
      001056 00                    1616 	.db #0x00	; 0
      001057 00                    1617 	.db #0x00	; 0
      001058 00                    1618 	.db #0x00	; 0
      001059 00                    1619 	.db #0x00	; 0
      00105A 00                    1620 	.db #0x00	; 0
      00105B 00                    1621 	.db #0x00	; 0
      00105C 00                    1622 	.db #0x00	; 0
      00105D 00                    1623 	.db #0x00	; 0
      00105E 00                    1624 	.db #0x00	; 0
      00105F 00                    1625 	.db #0x00	; 0
      001060 00                    1626 	.db #0x00	; 0
      001061 00                    1627 	.db #0x00	; 0
      001062 00                    1628 	.db #0x00	; 0
      001063 00                    1629 	.db #0x00	; 0
      001064 00                    1630 	.db #0x00	; 0
      001065 00                    1631 	.db #0x00	; 0
      001066 00                    1632 	.db #0x00	; 0
      001067 00                    1633 	.db #0x00	; 0
      001068 00                    1634 	.db #0x00	; 0
      001069 00                    1635 	.db #0x00	; 0
      00106A 00                    1636 	.db #0x00	; 0
      00106B 00                    1637 	.db #0x00	; 0
      00106C 00                    1638 	.db #0x00	; 0
      00106D 00                    1639 	.db #0x00	; 0
      00106E 10                    1640 	.db #0x10	; 16
      00106F 18                    1641 	.db #0x18	; 24
      001070 14                    1642 	.db #0x14	; 20
      001071 12                    1643 	.db #0x12	; 18
      001072 11                    1644 	.db #0x11	; 17
      001073 00                    1645 	.db #0x00	; 0
      001074 00                    1646 	.db #0x00	; 0
      001075 0F                    1647 	.db #0x0f	; 15
      001076 10                    1648 	.db #0x10	; 16
      001077 10                    1649 	.db #0x10	; 16
      001078 10                    1650 	.db #0x10	; 16
      001079 0F                    1651 	.db #0x0f	; 15
      00107A 00                    1652 	.db #0x00	; 0
      00107B 00                    1653 	.db #0x00	; 0
      00107C 00                    1654 	.db #0x00	; 0
      00107D 10                    1655 	.db #0x10	; 16
      00107E 1F                    1656 	.db #0x1f	; 31
      00107F 10                    1657 	.db #0x10	; 16
      001080 00                    1658 	.db #0x00	; 0
      001081 00                    1659 	.db #0x00	; 0
      001082 00                    1660 	.db #0x00	; 0
      001083 08                    1661 	.db #0x08	; 8
      001084 10                    1662 	.db #0x10	; 16
      001085 12                    1663 	.db #0x12	; 18
      001086 12                    1664 	.db #0x12	; 18
      001087 0D                    1665 	.db #0x0d	; 13
      001088 00                    1666 	.db #0x00	; 0
      001089 00                    1667 	.db #0x00	; 0
      00108A 18                    1668 	.db #0x18	; 24
      00108B 00                    1669 	.db #0x00	; 0
      00108C 00                    1670 	.db #0x00	; 0
      00108D 0D                    1671 	.db #0x0d	; 13
      00108E 12                    1672 	.db #0x12	; 18
      00108F 12                    1673 	.db #0x12	; 18
      001090 12                    1674 	.db #0x12	; 18
      001091 0D                    1675 	.db #0x0d	; 13
      001092 00                    1676 	.db #0x00	; 0
      001093 00                    1677 	.db #0x00	; 0
      001094 18                    1678 	.db #0x18	; 24
      001095 00                    1679 	.db #0x00	; 0
      001096 00                    1680 	.db #0x00	; 0
      001097 10                    1681 	.db #0x10	; 16
      001098 18                    1682 	.db #0x18	; 24
      001099 14                    1683 	.db #0x14	; 20
      00109A 12                    1684 	.db #0x12	; 18
      00109B 11                    1685 	.db #0x11	; 17
      00109C 00                    1686 	.db #0x00	; 0
      00109D 00                    1687 	.db #0x00	; 0
      00109E 10                    1688 	.db #0x10	; 16
      00109F 18                    1689 	.db #0x18	; 24
      0010A0 14                    1690 	.db #0x14	; 20
      0010A1 12                    1691 	.db #0x12	; 18
      0010A2 11                    1692 	.db #0x11	; 17
      0010A3 00                    1693 	.db #0x00	; 0
      0010A4 00                    1694 	.db #0x00	; 0
      0010A5 00                    1695 	.db #0x00	; 0
      0010A6 00                    1696 	.db #0x00	; 0
      0010A7 00                    1697 	.db #0x00	; 0
      0010A8 00                    1698 	.db #0x00	; 0
      0010A9 00                    1699 	.db #0x00	; 0
      0010AA 00                    1700 	.db #0x00	; 0
      0010AB 00                    1701 	.db #0x00	; 0
      0010AC 00                    1702 	.db #0x00	; 0
      0010AD 00                    1703 	.db #0x00	; 0
      0010AE 00                    1704 	.db #0x00	; 0
      0010AF 00                    1705 	.db #0x00	; 0
      0010B0 00                    1706 	.db #0x00	; 0
      0010B1 00                    1707 	.db #0x00	; 0
      0010B2 00                    1708 	.db #0x00	; 0
      0010B3 00                    1709 	.db #0x00	; 0
      0010B4 00                    1710 	.db #0x00	; 0
      0010B5 00                    1711 	.db #0x00	; 0
      0010B6 00                    1712 	.db #0x00	; 0
      0010B7 00                    1713 	.db #0x00	; 0
      0010B8 00                    1714 	.db #0x00	; 0
      0010B9 00                    1715 	.db #0x00	; 0
      0010BA 00                    1716 	.db #0x00	; 0
      0010BB 00                    1717 	.db #0x00	; 0
      0010BC 00                    1718 	.db #0x00	; 0
      0010BD 00                    1719 	.db #0x00	; 0
      0010BE 00                    1720 	.db #0x00	; 0
      0010BF 00                    1721 	.db #0x00	; 0
      0010C0 00                    1722 	.db #0x00	; 0
      0010C1 00                    1723 	.db #0x00	; 0
      0010C2 00                    1724 	.db #0x00	; 0
      0010C3 00                    1725 	.db #0x00	; 0
      0010C4 00                    1726 	.db #0x00	; 0
      0010C5 00                    1727 	.db #0x00	; 0
      0010C6 00                    1728 	.db #0x00	; 0
      0010C7 00                    1729 	.db #0x00	; 0
      0010C8 00                    1730 	.db #0x00	; 0
      0010C9 00                    1731 	.db #0x00	; 0
      0010CA 00                    1732 	.db #0x00	; 0
      0010CB 00                    1733 	.db #0x00	; 0
      0010CC 00                    1734 	.db #0x00	; 0
      0010CD 00                    1735 	.db #0x00	; 0
      0010CE 00                    1736 	.db #0x00	; 0
      0010CF 00                    1737 	.db #0x00	; 0
      0010D0 00                    1738 	.db #0x00	; 0
      0010D1 00                    1739 	.db #0x00	; 0
      0010D2 00                    1740 	.db #0x00	; 0
      0010D3 00                    1741 	.db #0x00	; 0
      0010D4 00                    1742 	.db #0x00	; 0
      0010D5 00                    1743 	.db #0x00	; 0
      0010D6 00                    1744 	.db #0x00	; 0
      0010D7 00                    1745 	.db #0x00	; 0
      0010D8 00                    1746 	.db #0x00	; 0
      0010D9 00                    1747 	.db #0x00	; 0
      0010DA 00                    1748 	.db #0x00	; 0
      0010DB 00                    1749 	.db #0x00	; 0
      0010DC 00                    1750 	.db #0x00	; 0
      0010DD 00                    1751 	.db #0x00	; 0
      0010DE 00                    1752 	.db #0x00	; 0
      0010DF 00                    1753 	.db #0x00	; 0
      0010E0 00                    1754 	.db #0x00	; 0
      0010E1 00                    1755 	.db #0x00	; 0
      0010E2 00                    1756 	.db #0x00	; 0
      0010E3 00                    1757 	.db #0x00	; 0
      0010E4 00                    1758 	.db #0x00	; 0
      0010E5 00                    1759 	.db #0x00	; 0
      0010E6 00                    1760 	.db #0x00	; 0
      0010E7 00                    1761 	.db #0x00	; 0
      0010E8 00                    1762 	.db #0x00	; 0
      0010E9 00                    1763 	.db #0x00	; 0
      0010EA 00                    1764 	.db #0x00	; 0
      0010EB 00                    1765 	.db #0x00	; 0
      0010EC 00                    1766 	.db #0x00	; 0
      0010ED 00                    1767 	.db #0x00	; 0
      0010EE 00                    1768 	.db #0x00	; 0
      0010EF 00                    1769 	.db #0x00	; 0
      0010F0 00                    1770 	.db #0x00	; 0
      0010F1 00                    1771 	.db #0x00	; 0
      0010F2 00                    1772 	.db #0x00	; 0
      0010F3 00                    1773 	.db #0x00	; 0
      0010F4 00                    1774 	.db #0x00	; 0
      0010F5 00                    1775 	.db #0x00	; 0
      0010F6 00                    1776 	.db #0x00	; 0
      0010F7 00                    1777 	.db #0x00	; 0
      0010F8 00                    1778 	.db #0x00	; 0
      0010F9 00                    1779 	.db #0x00	; 0
      0010FA 00                    1780 	.db #0x00	; 0
      0010FB 00                    1781 	.db #0x00	; 0
      0010FC 00                    1782 	.db #0x00	; 0
      0010FD 00                    1783 	.db #0x00	; 0
      0010FE 00                    1784 	.db #0x00	; 0
      0010FF 00                    1785 	.db #0x00	; 0
      001100 00                    1786 	.db #0x00	; 0
      001101 00                    1787 	.db #0x00	; 0
      001102 00                    1788 	.db #0x00	; 0
      001103 00                    1789 	.db #0x00	; 0
      001104 00                    1790 	.db #0x00	; 0
      001105 80                    1791 	.db #0x80	; 128
      001106 80                    1792 	.db #0x80	; 128
      001107 80                    1793 	.db #0x80	; 128
      001108 80                    1794 	.db #0x80	; 128
      001109 80                    1795 	.db #0x80	; 128
      00110A 80                    1796 	.db #0x80	; 128
      00110B 80                    1797 	.db #0x80	; 128
      00110C 80                    1798 	.db #0x80	; 128
      00110D 00                    1799 	.db #0x00	; 0
      00110E 00                    1800 	.db #0x00	; 0
      00110F 00                    1801 	.db #0x00	; 0
      001110 00                    1802 	.db #0x00	; 0
      001111 00                    1803 	.db #0x00	; 0
      001112 00                    1804 	.db #0x00	; 0
      001113 00                    1805 	.db #0x00	; 0
      001114 00                    1806 	.db #0x00	; 0
      001115 00                    1807 	.db #0x00	; 0
      001116 00                    1808 	.db #0x00	; 0
      001117 00                    1809 	.db #0x00	; 0
      001118 00                    1810 	.db #0x00	; 0
      001119 00                    1811 	.db #0x00	; 0
      00111A 00                    1812 	.db #0x00	; 0
      00111B 00                    1813 	.db #0x00	; 0
      00111C 00                    1814 	.db #0x00	; 0
      00111D 00                    1815 	.db #0x00	; 0
      00111E 00                    1816 	.db #0x00	; 0
      00111F 00                    1817 	.db #0x00	; 0
      001120 00                    1818 	.db #0x00	; 0
      001121 00                    1819 	.db #0x00	; 0
      001122 00                    1820 	.db #0x00	; 0
      001123 00                    1821 	.db #0x00	; 0
      001124 00                    1822 	.db #0x00	; 0
      001125 00                    1823 	.db #0x00	; 0
      001126 00                    1824 	.db #0x00	; 0
      001127 00                    1825 	.db #0x00	; 0
      001128 00                    1826 	.db #0x00	; 0
      001129 00                    1827 	.db #0x00	; 0
      00112A 00                    1828 	.db #0x00	; 0
      00112B 00                    1829 	.db #0x00	; 0
      00112C 00                    1830 	.db #0x00	; 0
      00112D 00                    1831 	.db #0x00	; 0
      00112E 00                    1832 	.db #0x00	; 0
      00112F 00                    1833 	.db #0x00	; 0
      001130 00                    1834 	.db #0x00	; 0
      001131 00                    1835 	.db #0x00	; 0
      001132 00                    1836 	.db #0x00	; 0
      001133 00                    1837 	.db #0x00	; 0
      001134 00                    1838 	.db #0x00	; 0
      001135 00                    1839 	.db #0x00	; 0
      001136 00                    1840 	.db #0x00	; 0
      001137 00                    1841 	.db #0x00	; 0
      001138 00                    1842 	.db #0x00	; 0
      001139 00                    1843 	.db #0x00	; 0
      00113A 00                    1844 	.db #0x00	; 0
      00113B 00                    1845 	.db #0x00	; 0
      00113C 00                    1846 	.db #0x00	; 0
      00113D 00                    1847 	.db #0x00	; 0
      00113E 00                    1848 	.db #0x00	; 0
      00113F 00                    1849 	.db #0x00	; 0
      001140 00                    1850 	.db #0x00	; 0
      001141 00                    1851 	.db #0x00	; 0
      001142 00                    1852 	.db #0x00	; 0
      001143 00                    1853 	.db #0x00	; 0
      001144 00                    1854 	.db #0x00	; 0
      001145 00                    1855 	.db #0x00	; 0
      001146 00                    1856 	.db #0x00	; 0
      001147 00                    1857 	.db #0x00	; 0
      001148 00                    1858 	.db #0x00	; 0
      001149 00                    1859 	.db #0x00	; 0
      00114A 7F                    1860 	.db #0x7f	; 127
      00114B 03                    1861 	.db #0x03	; 3
      00114C 0C                    1862 	.db #0x0c	; 12
      00114D 30                    1863 	.db #0x30	; 48	'0'
      00114E 0C                    1864 	.db #0x0c	; 12
      00114F 03                    1865 	.db #0x03	; 3
      001150 7F                    1866 	.db #0x7f	; 127
      001151 00                    1867 	.db #0x00	; 0
      001152 00                    1868 	.db #0x00	; 0
      001153 38                    1869 	.db #0x38	; 56	'8'
      001154 54                    1870 	.db #0x54	; 84	'T'
      001155 54                    1871 	.db #0x54	; 84	'T'
      001156 58                    1872 	.db #0x58	; 88	'X'
      001157 00                    1873 	.db #0x00	; 0
      001158 00                    1874 	.db #0x00	; 0
      001159 7C                    1875 	.db #0x7c	; 124
      00115A 04                    1876 	.db #0x04	; 4
      00115B 04                    1877 	.db #0x04	; 4
      00115C 78                    1878 	.db #0x78	; 120	'x'
      00115D 00                    1879 	.db #0x00	; 0
      00115E 00                    1880 	.db #0x00	; 0
      00115F 3C                    1881 	.db #0x3c	; 60
      001160 40                    1882 	.db #0x40	; 64
      001161 40                    1883 	.db #0x40	; 64
      001162 7C                    1884 	.db #0x7c	; 124
      001163 00                    1885 	.db #0x00	; 0
      001164 00                    1886 	.db #0x00	; 0
      001165 00                    1887 	.db #0x00	; 0
      001166 00                    1888 	.db #0x00	; 0
      001167 00                    1889 	.db #0x00	; 0
      001168 00                    1890 	.db #0x00	; 0
      001169 00                    1891 	.db #0x00	; 0
      00116A 00                    1892 	.db #0x00	; 0
      00116B 00                    1893 	.db #0x00	; 0
      00116C 00                    1894 	.db #0x00	; 0
      00116D 00                    1895 	.db #0x00	; 0
      00116E 00                    1896 	.db #0x00	; 0
      00116F 00                    1897 	.db #0x00	; 0
      001170 00                    1898 	.db #0x00	; 0
      001171 00                    1899 	.db #0x00	; 0
      001172 00                    1900 	.db #0x00	; 0
      001173 00                    1901 	.db #0x00	; 0
      001174 00                    1902 	.db #0x00	; 0
      001175 00                    1903 	.db #0x00	; 0
      001176 00                    1904 	.db #0x00	; 0
      001177 00                    1905 	.db #0x00	; 0
      001178 00                    1906 	.db #0x00	; 0
      001179 00                    1907 	.db #0x00	; 0
      00117A 00                    1908 	.db #0x00	; 0
      00117B 00                    1909 	.db #0x00	; 0
      00117C 00                    1910 	.db #0x00	; 0
      00117D 00                    1911 	.db #0x00	; 0
      00117E 00                    1912 	.db #0x00	; 0
      00117F 00                    1913 	.db #0x00	; 0
      001180 00                    1914 	.db #0x00	; 0
      001181 00                    1915 	.db #0x00	; 0
      001182 00                    1916 	.db #0x00	; 0
      001183 00                    1917 	.db #0x00	; 0
      001184 00                    1918 	.db #0x00	; 0
      001185 FF                    1919 	.db #0xff	; 255
      001186 AA                    1920 	.db #0xaa	; 170
      001187 AA                    1921 	.db #0xaa	; 170
      001188 AA                    1922 	.db #0xaa	; 170
      001189 28                    1923 	.db #0x28	; 40
      00118A 08                    1924 	.db #0x08	; 8
      00118B 00                    1925 	.db #0x00	; 0
      00118C FF                    1926 	.db #0xff	; 255
      00118D 00                    1927 	.db #0x00	; 0
      00118E 00                    1928 	.db #0x00	; 0
      00118F 00                    1929 	.db #0x00	; 0
      001190 00                    1930 	.db #0x00	; 0
      001191 00                    1931 	.db #0x00	; 0
      001192 00                    1932 	.db #0x00	; 0
      001193 00                    1933 	.db #0x00	; 0
      001194 00                    1934 	.db #0x00	; 0
      001195 00                    1935 	.db #0x00	; 0
      001196 00                    1936 	.db #0x00	; 0
      001197 00                    1937 	.db #0x00	; 0
      001198 00                    1938 	.db #0x00	; 0
      001199 00                    1939 	.db #0x00	; 0
      00119A 00                    1940 	.db #0x00	; 0
      00119B 00                    1941 	.db #0x00	; 0
      00119C 00                    1942 	.db #0x00	; 0
      00119D 00                    1943 	.db #0x00	; 0
      00119E 00                    1944 	.db #0x00	; 0
      00119F 00                    1945 	.db #0x00	; 0
      0011A0 00                    1946 	.db #0x00	; 0
      0011A1 00                    1947 	.db #0x00	; 0
      0011A2 00                    1948 	.db #0x00	; 0
      0011A3 00                    1949 	.db #0x00	; 0
      0011A4 00                    1950 	.db #0x00	; 0
      0011A5 00                    1951 	.db #0x00	; 0
      0011A6 00                    1952 	.db #0x00	; 0
      0011A7 00                    1953 	.db #0x00	; 0
      0011A8 00                    1954 	.db #0x00	; 0
      0011A9 00                    1955 	.db #0x00	; 0
      0011AA 00                    1956 	.db #0x00	; 0
      0011AB 00                    1957 	.db #0x00	; 0
      0011AC 00                    1958 	.db #0x00	; 0
      0011AD 00                    1959 	.db #0x00	; 0
      0011AE 00                    1960 	.db #0x00	; 0
      0011AF 00                    1961 	.db #0x00	; 0
      0011B0 00                    1962 	.db #0x00	; 0
      0011B1 00                    1963 	.db #0x00	; 0
      0011B2 7F                    1964 	.db #0x7f	; 127
      0011B3 03                    1965 	.db #0x03	; 3
      0011B4 0C                    1966 	.db #0x0c	; 12
      0011B5 30                    1967 	.db #0x30	; 48	'0'
      0011B6 0C                    1968 	.db #0x0c	; 12
      0011B7 03                    1969 	.db #0x03	; 3
      0011B8 7F                    1970 	.db #0x7f	; 127
      0011B9 00                    1971 	.db #0x00	; 0
      0011BA 00                    1972 	.db #0x00	; 0
      0011BB 26                    1973 	.db #0x26	; 38
      0011BC 49                    1974 	.db #0x49	; 73	'I'
      0011BD 49                    1975 	.db #0x49	; 73	'I'
      0011BE 49                    1976 	.db #0x49	; 73	'I'
      0011BF 32                    1977 	.db #0x32	; 50	'2'
      0011C0 00                    1978 	.db #0x00	; 0
      0011C1 00                    1979 	.db #0x00	; 0
      0011C2 7F                    1980 	.db #0x7f	; 127
      0011C3 02                    1981 	.db #0x02	; 2
      0011C4 04                    1982 	.db #0x04	; 4
      0011C5 08                    1983 	.db #0x08	; 8
      0011C6 10                    1984 	.db #0x10	; 16
      0011C7 7F                    1985 	.db #0x7f	; 127
      0011C8 00                    1986 	.db #0x00	; 0
      0011C9                       1987 _BMP2:
      0011C9 00                    1988 	.db #0x00	; 0
      0011CA 03                    1989 	.db #0x03	; 3
      0011CB 05                    1990 	.db #0x05	; 5
      0011CC 09                    1991 	.db #0x09	; 9
      0011CD 11                    1992 	.db #0x11	; 17
      0011CE FF                    1993 	.db #0xff	; 255
      0011CF 11                    1994 	.db #0x11	; 17
      0011D0 89                    1995 	.db #0x89	; 137
      0011D1 05                    1996 	.db #0x05	; 5
      0011D2 C3                    1997 	.db #0xc3	; 195
      0011D3 00                    1998 	.db #0x00	; 0
      0011D4 E0                    1999 	.db #0xe0	; 224
      0011D5 00                    2000 	.db #0x00	; 0
      0011D6 F0                    2001 	.db #0xf0	; 240
      0011D7 00                    2002 	.db #0x00	; 0
      0011D8 F8                    2003 	.db #0xf8	; 248
      0011D9 00                    2004 	.db #0x00	; 0
      0011DA 00                    2005 	.db #0x00	; 0
      0011DB 00                    2006 	.db #0x00	; 0
      0011DC 00                    2007 	.db #0x00	; 0
      0011DD 00                    2008 	.db #0x00	; 0
      0011DE 00                    2009 	.db #0x00	; 0
      0011DF 00                    2010 	.db #0x00	; 0
      0011E0 44                    2011 	.db #0x44	; 68	'D'
      0011E1 28                    2012 	.db #0x28	; 40
      0011E2 FF                    2013 	.db #0xff	; 255
      0011E3 11                    2014 	.db #0x11	; 17
      0011E4 AA                    2015 	.db #0xaa	; 170
      0011E5 44                    2016 	.db #0x44	; 68	'D'
      0011E6 00                    2017 	.db #0x00	; 0
      0011E7 00                    2018 	.db #0x00	; 0
      0011E8 00                    2019 	.db #0x00	; 0
      0011E9 00                    2020 	.db #0x00	; 0
      0011EA 00                    2021 	.db #0x00	; 0
      0011EB 00                    2022 	.db #0x00	; 0
      0011EC 00                    2023 	.db #0x00	; 0
      0011ED 00                    2024 	.db #0x00	; 0
      0011EE 00                    2025 	.db #0x00	; 0
      0011EF 00                    2026 	.db #0x00	; 0
      0011F0 00                    2027 	.db #0x00	; 0
      0011F1 00                    2028 	.db #0x00	; 0
      0011F2 00                    2029 	.db #0x00	; 0
      0011F3 00                    2030 	.db #0x00	; 0
      0011F4 00                    2031 	.db #0x00	; 0
      0011F5 00                    2032 	.db #0x00	; 0
      0011F6 00                    2033 	.db #0x00	; 0
      0011F7 00                    2034 	.db #0x00	; 0
      0011F8 00                    2035 	.db #0x00	; 0
      0011F9 00                    2036 	.db #0x00	; 0
      0011FA 00                    2037 	.db #0x00	; 0
      0011FB 00                    2038 	.db #0x00	; 0
      0011FC 00                    2039 	.db #0x00	; 0
      0011FD 00                    2040 	.db #0x00	; 0
      0011FE 00                    2041 	.db #0x00	; 0
      0011FF 00                    2042 	.db #0x00	; 0
      001200 00                    2043 	.db #0x00	; 0
      001201 00                    2044 	.db #0x00	; 0
      001202 00                    2045 	.db #0x00	; 0
      001203 00                    2046 	.db #0x00	; 0
      001204 00                    2047 	.db #0x00	; 0
      001205 00                    2048 	.db #0x00	; 0
      001206 00                    2049 	.db #0x00	; 0
      001207 00                    2050 	.db #0x00	; 0
      001208 00                    2051 	.db #0x00	; 0
      001209 00                    2052 	.db #0x00	; 0
      00120A 00                    2053 	.db #0x00	; 0
      00120B 00                    2054 	.db #0x00	; 0
      00120C 00                    2055 	.db #0x00	; 0
      00120D 00                    2056 	.db #0x00	; 0
      00120E 00                    2057 	.db #0x00	; 0
      00120F 00                    2058 	.db #0x00	; 0
      001210 00                    2059 	.db #0x00	; 0
      001211 00                    2060 	.db #0x00	; 0
      001212 00                    2061 	.db #0x00	; 0
      001213 00                    2062 	.db #0x00	; 0
      001214 00                    2063 	.db #0x00	; 0
      001215 00                    2064 	.db #0x00	; 0
      001216 00                    2065 	.db #0x00	; 0
      001217 00                    2066 	.db #0x00	; 0
      001218 00                    2067 	.db #0x00	; 0
      001219 00                    2068 	.db #0x00	; 0
      00121A 00                    2069 	.db #0x00	; 0
      00121B 00                    2070 	.db #0x00	; 0
      00121C 00                    2071 	.db #0x00	; 0
      00121D 00                    2072 	.db #0x00	; 0
      00121E 00                    2073 	.db #0x00	; 0
      00121F 00                    2074 	.db #0x00	; 0
      001220 00                    2075 	.db #0x00	; 0
      001221 00                    2076 	.db #0x00	; 0
      001222 00                    2077 	.db #0x00	; 0
      001223 83                    2078 	.db #0x83	; 131
      001224 01                    2079 	.db #0x01	; 1
      001225 38                    2080 	.db #0x38	; 56	'8'
      001226 44                    2081 	.db #0x44	; 68	'D'
      001227 82                    2082 	.db #0x82	; 130
      001228 92                    2083 	.db #0x92	; 146
      001229 92                    2084 	.db #0x92	; 146
      00122A 74                    2085 	.db #0x74	; 116	't'
      00122B 01                    2086 	.db #0x01	; 1
      00122C 83                    2087 	.db #0x83	; 131
      00122D 00                    2088 	.db #0x00	; 0
      00122E 00                    2089 	.db #0x00	; 0
      00122F 00                    2090 	.db #0x00	; 0
      001230 00                    2091 	.db #0x00	; 0
      001231 00                    2092 	.db #0x00	; 0
      001232 00                    2093 	.db #0x00	; 0
      001233 00                    2094 	.db #0x00	; 0
      001234 7C                    2095 	.db #0x7c	; 124
      001235 44                    2096 	.db #0x44	; 68	'D'
      001236 FF                    2097 	.db #0xff	; 255
      001237 01                    2098 	.db #0x01	; 1
      001238 7D                    2099 	.db #0x7d	; 125
      001239 7D                    2100 	.db #0x7d	; 125
      00123A 7D                    2101 	.db #0x7d	; 125
      00123B 7D                    2102 	.db #0x7d	; 125
      00123C 01                    2103 	.db #0x01	; 1
      00123D 7D                    2104 	.db #0x7d	; 125
      00123E 7D                    2105 	.db #0x7d	; 125
      00123F 7D                    2106 	.db #0x7d	; 125
      001240 7D                    2107 	.db #0x7d	; 125
      001241 01                    2108 	.db #0x01	; 1
      001242 7D                    2109 	.db #0x7d	; 125
      001243 7D                    2110 	.db #0x7d	; 125
      001244 7D                    2111 	.db #0x7d	; 125
      001245 7D                    2112 	.db #0x7d	; 125
      001246 01                    2113 	.db #0x01	; 1
      001247 FF                    2114 	.db #0xff	; 255
      001248 00                    2115 	.db #0x00	; 0
      001249 00                    2116 	.db #0x00	; 0
      00124A 00                    2117 	.db #0x00	; 0
      00124B 00                    2118 	.db #0x00	; 0
      00124C 00                    2119 	.db #0x00	; 0
      00124D 00                    2120 	.db #0x00	; 0
      00124E 01                    2121 	.db #0x01	; 1
      00124F 00                    2122 	.db #0x00	; 0
      001250 01                    2123 	.db #0x01	; 1
      001251 00                    2124 	.db #0x00	; 0
      001252 01                    2125 	.db #0x01	; 1
      001253 00                    2126 	.db #0x00	; 0
      001254 01                    2127 	.db #0x01	; 1
      001255 00                    2128 	.db #0x00	; 0
      001256 01                    2129 	.db #0x01	; 1
      001257 00                    2130 	.db #0x00	; 0
      001258 01                    2131 	.db #0x01	; 1
      001259 00                    2132 	.db #0x00	; 0
      00125A 00                    2133 	.db #0x00	; 0
      00125B 00                    2134 	.db #0x00	; 0
      00125C 00                    2135 	.db #0x00	; 0
      00125D 00                    2136 	.db #0x00	; 0
      00125E 00                    2137 	.db #0x00	; 0
      00125F 00                    2138 	.db #0x00	; 0
      001260 00                    2139 	.db #0x00	; 0
      001261 00                    2140 	.db #0x00	; 0
      001262 01                    2141 	.db #0x01	; 1
      001263 01                    2142 	.db #0x01	; 1
      001264 00                    2143 	.db #0x00	; 0
      001265 00                    2144 	.db #0x00	; 0
      001266 00                    2145 	.db #0x00	; 0
      001267 00                    2146 	.db #0x00	; 0
      001268 00                    2147 	.db #0x00	; 0
      001269 00                    2148 	.db #0x00	; 0
      00126A 00                    2149 	.db #0x00	; 0
      00126B 00                    2150 	.db #0x00	; 0
      00126C 00                    2151 	.db #0x00	; 0
      00126D 00                    2152 	.db #0x00	; 0
      00126E 00                    2153 	.db #0x00	; 0
      00126F 00                    2154 	.db #0x00	; 0
      001270 00                    2155 	.db #0x00	; 0
      001271 00                    2156 	.db #0x00	; 0
      001272 00                    2157 	.db #0x00	; 0
      001273 00                    2158 	.db #0x00	; 0
      001274 00                    2159 	.db #0x00	; 0
      001275 00                    2160 	.db #0x00	; 0
      001276 00                    2161 	.db #0x00	; 0
      001277 00                    2162 	.db #0x00	; 0
      001278 00                    2163 	.db #0x00	; 0
      001279 00                    2164 	.db #0x00	; 0
      00127A 00                    2165 	.db #0x00	; 0
      00127B 00                    2166 	.db #0x00	; 0
      00127C 00                    2167 	.db #0x00	; 0
      00127D 00                    2168 	.db #0x00	; 0
      00127E 00                    2169 	.db #0x00	; 0
      00127F 00                    2170 	.db #0x00	; 0
      001280 00                    2171 	.db #0x00	; 0
      001281 00                    2172 	.db #0x00	; 0
      001282 00                    2173 	.db #0x00	; 0
      001283 00                    2174 	.db #0x00	; 0
      001284 00                    2175 	.db #0x00	; 0
      001285 00                    2176 	.db #0x00	; 0
      001286 00                    2177 	.db #0x00	; 0
      001287 00                    2178 	.db #0x00	; 0
      001288 00                    2179 	.db #0x00	; 0
      001289 00                    2180 	.db #0x00	; 0
      00128A 00                    2181 	.db #0x00	; 0
      00128B 00                    2182 	.db #0x00	; 0
      00128C 00                    2183 	.db #0x00	; 0
      00128D 00                    2184 	.db #0x00	; 0
      00128E 00                    2185 	.db #0x00	; 0
      00128F 00                    2186 	.db #0x00	; 0
      001290 00                    2187 	.db #0x00	; 0
      001291 00                    2188 	.db #0x00	; 0
      001292 00                    2189 	.db #0x00	; 0
      001293 00                    2190 	.db #0x00	; 0
      001294 00                    2191 	.db #0x00	; 0
      001295 00                    2192 	.db #0x00	; 0
      001296 00                    2193 	.db #0x00	; 0
      001297 00                    2194 	.db #0x00	; 0
      001298 00                    2195 	.db #0x00	; 0
      001299 00                    2196 	.db #0x00	; 0
      00129A 00                    2197 	.db #0x00	; 0
      00129B 00                    2198 	.db #0x00	; 0
      00129C 00                    2199 	.db #0x00	; 0
      00129D 00                    2200 	.db #0x00	; 0
      00129E 00                    2201 	.db #0x00	; 0
      00129F 00                    2202 	.db #0x00	; 0
      0012A0 00                    2203 	.db #0x00	; 0
      0012A1 00                    2204 	.db #0x00	; 0
      0012A2 00                    2205 	.db #0x00	; 0
      0012A3 01                    2206 	.db #0x01	; 1
      0012A4 01                    2207 	.db #0x01	; 1
      0012A5 00                    2208 	.db #0x00	; 0
      0012A6 00                    2209 	.db #0x00	; 0
      0012A7 00                    2210 	.db #0x00	; 0
      0012A8 00                    2211 	.db #0x00	; 0
      0012A9 00                    2212 	.db #0x00	; 0
      0012AA 00                    2213 	.db #0x00	; 0
      0012AB 01                    2214 	.db #0x01	; 1
      0012AC 01                    2215 	.db #0x01	; 1
      0012AD 00                    2216 	.db #0x00	; 0
      0012AE 00                    2217 	.db #0x00	; 0
      0012AF 00                    2218 	.db #0x00	; 0
      0012B0 00                    2219 	.db #0x00	; 0
      0012B1 00                    2220 	.db #0x00	; 0
      0012B2 00                    2221 	.db #0x00	; 0
      0012B3 00                    2222 	.db #0x00	; 0
      0012B4 00                    2223 	.db #0x00	; 0
      0012B5 00                    2224 	.db #0x00	; 0
      0012B6 01                    2225 	.db #0x01	; 1
      0012B7 01                    2226 	.db #0x01	; 1
      0012B8 01                    2227 	.db #0x01	; 1
      0012B9 01                    2228 	.db #0x01	; 1
      0012BA 01                    2229 	.db #0x01	; 1
      0012BB 01                    2230 	.db #0x01	; 1
      0012BC 01                    2231 	.db #0x01	; 1
      0012BD 01                    2232 	.db #0x01	; 1
      0012BE 01                    2233 	.db #0x01	; 1
      0012BF 01                    2234 	.db #0x01	; 1
      0012C0 01                    2235 	.db #0x01	; 1
      0012C1 01                    2236 	.db #0x01	; 1
      0012C2 01                    2237 	.db #0x01	; 1
      0012C3 01                    2238 	.db #0x01	; 1
      0012C4 01                    2239 	.db #0x01	; 1
      0012C5 01                    2240 	.db #0x01	; 1
      0012C6 01                    2241 	.db #0x01	; 1
      0012C7 01                    2242 	.db #0x01	; 1
      0012C8 00                    2243 	.db #0x00	; 0
      0012C9 00                    2244 	.db #0x00	; 0
      0012CA 00                    2245 	.db #0x00	; 0
      0012CB 00                    2246 	.db #0x00	; 0
      0012CC 00                    2247 	.db #0x00	; 0
      0012CD 00                    2248 	.db #0x00	; 0
      0012CE 00                    2249 	.db #0x00	; 0
      0012CF 00                    2250 	.db #0x00	; 0
      0012D0 00                    2251 	.db #0x00	; 0
      0012D1 00                    2252 	.db #0x00	; 0
      0012D2 00                    2253 	.db #0x00	; 0
      0012D3 00                    2254 	.db #0x00	; 0
      0012D4 00                    2255 	.db #0x00	; 0
      0012D5 00                    2256 	.db #0x00	; 0
      0012D6 00                    2257 	.db #0x00	; 0
      0012D7 00                    2258 	.db #0x00	; 0
      0012D8 00                    2259 	.db #0x00	; 0
      0012D9 00                    2260 	.db #0x00	; 0
      0012DA 00                    2261 	.db #0x00	; 0
      0012DB 00                    2262 	.db #0x00	; 0
      0012DC 00                    2263 	.db #0x00	; 0
      0012DD 00                    2264 	.db #0x00	; 0
      0012DE 00                    2265 	.db #0x00	; 0
      0012DF 00                    2266 	.db #0x00	; 0
      0012E0 00                    2267 	.db #0x00	; 0
      0012E1 00                    2268 	.db #0x00	; 0
      0012E2 00                    2269 	.db #0x00	; 0
      0012E3 00                    2270 	.db #0x00	; 0
      0012E4 00                    2271 	.db #0x00	; 0
      0012E5 00                    2272 	.db #0x00	; 0
      0012E6 00                    2273 	.db #0x00	; 0
      0012E7 00                    2274 	.db #0x00	; 0
      0012E8 F8                    2275 	.db #0xf8	; 248
      0012E9 08                    2276 	.db #0x08	; 8
      0012EA 08                    2277 	.db #0x08	; 8
      0012EB 08                    2278 	.db #0x08	; 8
      0012EC 08                    2279 	.db #0x08	; 8
      0012ED 08                    2280 	.db #0x08	; 8
      0012EE 08                    2281 	.db #0x08	; 8
      0012EF 08                    2282 	.db #0x08	; 8
      0012F0 00                    2283 	.db #0x00	; 0
      0012F1 F8                    2284 	.db #0xf8	; 248
      0012F2 18                    2285 	.db #0x18	; 24
      0012F3 60                    2286 	.db #0x60	; 96
      0012F4 80                    2287 	.db #0x80	; 128
      0012F5 00                    2288 	.db #0x00	; 0
      0012F6 00                    2289 	.db #0x00	; 0
      0012F7 00                    2290 	.db #0x00	; 0
      0012F8 80                    2291 	.db #0x80	; 128
      0012F9 60                    2292 	.db #0x60	; 96
      0012FA 18                    2293 	.db #0x18	; 24
      0012FB F8                    2294 	.db #0xf8	; 248
      0012FC 00                    2295 	.db #0x00	; 0
      0012FD 00                    2296 	.db #0x00	; 0
      0012FE 00                    2297 	.db #0x00	; 0
      0012FF 20                    2298 	.db #0x20	; 32
      001300 20                    2299 	.db #0x20	; 32
      001301 F8                    2300 	.db #0xf8	; 248
      001302 00                    2301 	.db #0x00	; 0
      001303 00                    2302 	.db #0x00	; 0
      001304 00                    2303 	.db #0x00	; 0
      001305 00                    2304 	.db #0x00	; 0
      001306 00                    2305 	.db #0x00	; 0
      001307 00                    2306 	.db #0x00	; 0
      001308 E0                    2307 	.db #0xe0	; 224
      001309 10                    2308 	.db #0x10	; 16
      00130A 08                    2309 	.db #0x08	; 8
      00130B 08                    2310 	.db #0x08	; 8
      00130C 08                    2311 	.db #0x08	; 8
      00130D 08                    2312 	.db #0x08	; 8
      00130E 10                    2313 	.db #0x10	; 16
      00130F E0                    2314 	.db #0xe0	; 224
      001310 00                    2315 	.db #0x00	; 0
      001311 00                    2316 	.db #0x00	; 0
      001312 00                    2317 	.db #0x00	; 0
      001313 20                    2318 	.db #0x20	; 32
      001314 20                    2319 	.db #0x20	; 32
      001315 F8                    2320 	.db #0xf8	; 248
      001316 00                    2321 	.db #0x00	; 0
      001317 00                    2322 	.db #0x00	; 0
      001318 00                    2323 	.db #0x00	; 0
      001319 00                    2324 	.db #0x00	; 0
      00131A 00                    2325 	.db #0x00	; 0
      00131B 00                    2326 	.db #0x00	; 0
      00131C 00                    2327 	.db #0x00	; 0
      00131D 00                    2328 	.db #0x00	; 0
      00131E 00                    2329 	.db #0x00	; 0
      00131F 00                    2330 	.db #0x00	; 0
      001320 00                    2331 	.db #0x00	; 0
      001321 00                    2332 	.db #0x00	; 0
      001322 08                    2333 	.db #0x08	; 8
      001323 08                    2334 	.db #0x08	; 8
      001324 08                    2335 	.db #0x08	; 8
      001325 08                    2336 	.db #0x08	; 8
      001326 08                    2337 	.db #0x08	; 8
      001327 88                    2338 	.db #0x88	; 136
      001328 68                    2339 	.db #0x68	; 104	'h'
      001329 18                    2340 	.db #0x18	; 24
      00132A 00                    2341 	.db #0x00	; 0
      00132B 00                    2342 	.db #0x00	; 0
      00132C 00                    2343 	.db #0x00	; 0
      00132D 00                    2344 	.db #0x00	; 0
      00132E 00                    2345 	.db #0x00	; 0
      00132F 00                    2346 	.db #0x00	; 0
      001330 00                    2347 	.db #0x00	; 0
      001331 00                    2348 	.db #0x00	; 0
      001332 00                    2349 	.db #0x00	; 0
      001333 00                    2350 	.db #0x00	; 0
      001334 00                    2351 	.db #0x00	; 0
      001335 00                    2352 	.db #0x00	; 0
      001336 00                    2353 	.db #0x00	; 0
      001337 00                    2354 	.db #0x00	; 0
      001338 00                    2355 	.db #0x00	; 0
      001339 00                    2356 	.db #0x00	; 0
      00133A 00                    2357 	.db #0x00	; 0
      00133B 00                    2358 	.db #0x00	; 0
      00133C 00                    2359 	.db #0x00	; 0
      00133D 00                    2360 	.db #0x00	; 0
      00133E 00                    2361 	.db #0x00	; 0
      00133F 00                    2362 	.db #0x00	; 0
      001340 00                    2363 	.db #0x00	; 0
      001341 00                    2364 	.db #0x00	; 0
      001342 00                    2365 	.db #0x00	; 0
      001343 00                    2366 	.db #0x00	; 0
      001344 00                    2367 	.db #0x00	; 0
      001345 00                    2368 	.db #0x00	; 0
      001346 00                    2369 	.db #0x00	; 0
      001347 00                    2370 	.db #0x00	; 0
      001348 00                    2371 	.db #0x00	; 0
      001349 00                    2372 	.db #0x00	; 0
      00134A 00                    2373 	.db #0x00	; 0
      00134B 00                    2374 	.db #0x00	; 0
      00134C 00                    2375 	.db #0x00	; 0
      00134D 00                    2376 	.db #0x00	; 0
      00134E 00                    2377 	.db #0x00	; 0
      00134F 00                    2378 	.db #0x00	; 0
      001350 00                    2379 	.db #0x00	; 0
      001351 00                    2380 	.db #0x00	; 0
      001352 00                    2381 	.db #0x00	; 0
      001353 00                    2382 	.db #0x00	; 0
      001354 00                    2383 	.db #0x00	; 0
      001355 00                    2384 	.db #0x00	; 0
      001356 00                    2385 	.db #0x00	; 0
      001357 00                    2386 	.db #0x00	; 0
      001358 00                    2387 	.db #0x00	; 0
      001359 00                    2388 	.db #0x00	; 0
      00135A 00                    2389 	.db #0x00	; 0
      00135B 00                    2390 	.db #0x00	; 0
      00135C 00                    2391 	.db #0x00	; 0
      00135D 00                    2392 	.db #0x00	; 0
      00135E 00                    2393 	.db #0x00	; 0
      00135F 00                    2394 	.db #0x00	; 0
      001360 00                    2395 	.db #0x00	; 0
      001361 00                    2396 	.db #0x00	; 0
      001362 00                    2397 	.db #0x00	; 0
      001363 00                    2398 	.db #0x00	; 0
      001364 00                    2399 	.db #0x00	; 0
      001365 00                    2400 	.db #0x00	; 0
      001366 00                    2401 	.db #0x00	; 0
      001367 00                    2402 	.db #0x00	; 0
      001368 7F                    2403 	.db #0x7f	; 127
      001369 01                    2404 	.db #0x01	; 1
      00136A 01                    2405 	.db #0x01	; 1
      00136B 01                    2406 	.db #0x01	; 1
      00136C 01                    2407 	.db #0x01	; 1
      00136D 01                    2408 	.db #0x01	; 1
      00136E 01                    2409 	.db #0x01	; 1
      00136F 00                    2410 	.db #0x00	; 0
      001370 00                    2411 	.db #0x00	; 0
      001371 7F                    2412 	.db #0x7f	; 127
      001372 00                    2413 	.db #0x00	; 0
      001373 00                    2414 	.db #0x00	; 0
      001374 01                    2415 	.db #0x01	; 1
      001375 06                    2416 	.db #0x06	; 6
      001376 18                    2417 	.db #0x18	; 24
      001377 06                    2418 	.db #0x06	; 6
      001378 01                    2419 	.db #0x01	; 1
      001379 00                    2420 	.db #0x00	; 0
      00137A 00                    2421 	.db #0x00	; 0
      00137B 7F                    2422 	.db #0x7f	; 127
      00137C 00                    2423 	.db #0x00	; 0
      00137D 00                    2424 	.db #0x00	; 0
      00137E 00                    2425 	.db #0x00	; 0
      00137F 40                    2426 	.db #0x40	; 64
      001380 40                    2427 	.db #0x40	; 64
      001381 7F                    2428 	.db #0x7f	; 127
      001382 40                    2429 	.db #0x40	; 64
      001383 40                    2430 	.db #0x40	; 64
      001384 00                    2431 	.db #0x00	; 0
      001385 00                    2432 	.db #0x00	; 0
      001386 00                    2433 	.db #0x00	; 0
      001387 00                    2434 	.db #0x00	; 0
      001388 1F                    2435 	.db #0x1f	; 31
      001389 20                    2436 	.db #0x20	; 32
      00138A 40                    2437 	.db #0x40	; 64
      00138B 40                    2438 	.db #0x40	; 64
      00138C 40                    2439 	.db #0x40	; 64
      00138D 40                    2440 	.db #0x40	; 64
      00138E 20                    2441 	.db #0x20	; 32
      00138F 1F                    2442 	.db #0x1f	; 31
      001390 00                    2443 	.db #0x00	; 0
      001391 00                    2444 	.db #0x00	; 0
      001392 00                    2445 	.db #0x00	; 0
      001393 40                    2446 	.db #0x40	; 64
      001394 40                    2447 	.db #0x40	; 64
      001395 7F                    2448 	.db #0x7f	; 127
      001396 40                    2449 	.db #0x40	; 64
      001397 40                    2450 	.db #0x40	; 64
      001398 00                    2451 	.db #0x00	; 0
      001399 00                    2452 	.db #0x00	; 0
      00139A 00                    2453 	.db #0x00	; 0
      00139B 00                    2454 	.db #0x00	; 0
      00139C 00                    2455 	.db #0x00	; 0
      00139D 60                    2456 	.db #0x60	; 96
      00139E 00                    2457 	.db #0x00	; 0
      00139F 00                    2458 	.db #0x00	; 0
      0013A0 00                    2459 	.db #0x00	; 0
      0013A1 00                    2460 	.db #0x00	; 0
      0013A2 00                    2461 	.db #0x00	; 0
      0013A3 00                    2462 	.db #0x00	; 0
      0013A4 60                    2463 	.db #0x60	; 96
      0013A5 18                    2464 	.db #0x18	; 24
      0013A6 06                    2465 	.db #0x06	; 6
      0013A7 01                    2466 	.db #0x01	; 1
      0013A8 00                    2467 	.db #0x00	; 0
      0013A9 00                    2468 	.db #0x00	; 0
      0013AA 00                    2469 	.db #0x00	; 0
      0013AB 00                    2470 	.db #0x00	; 0
      0013AC 00                    2471 	.db #0x00	; 0
      0013AD 00                    2472 	.db #0x00	; 0
      0013AE 00                    2473 	.db #0x00	; 0
      0013AF 00                    2474 	.db #0x00	; 0
      0013B0 00                    2475 	.db #0x00	; 0
      0013B1 00                    2476 	.db #0x00	; 0
      0013B2 00                    2477 	.db #0x00	; 0
      0013B3 00                    2478 	.db #0x00	; 0
      0013B4 00                    2479 	.db #0x00	; 0
      0013B5 00                    2480 	.db #0x00	; 0
      0013B6 00                    2481 	.db #0x00	; 0
      0013B7 00                    2482 	.db #0x00	; 0
      0013B8 00                    2483 	.db #0x00	; 0
      0013B9 00                    2484 	.db #0x00	; 0
      0013BA 00                    2485 	.db #0x00	; 0
      0013BB 00                    2486 	.db #0x00	; 0
      0013BC 00                    2487 	.db #0x00	; 0
      0013BD 00                    2488 	.db #0x00	; 0
      0013BE 00                    2489 	.db #0x00	; 0
      0013BF 00                    2490 	.db #0x00	; 0
      0013C0 00                    2491 	.db #0x00	; 0
      0013C1 00                    2492 	.db #0x00	; 0
      0013C2 00                    2493 	.db #0x00	; 0
      0013C3 00                    2494 	.db #0x00	; 0
      0013C4 00                    2495 	.db #0x00	; 0
      0013C5 00                    2496 	.db #0x00	; 0
      0013C6 00                    2497 	.db #0x00	; 0
      0013C7 00                    2498 	.db #0x00	; 0
      0013C8 00                    2499 	.db #0x00	; 0
      0013C9 00                    2500 	.db #0x00	; 0
      0013CA 00                    2501 	.db #0x00	; 0
      0013CB 00                    2502 	.db #0x00	; 0
      0013CC 00                    2503 	.db #0x00	; 0
      0013CD 00                    2504 	.db #0x00	; 0
      0013CE 00                    2505 	.db #0x00	; 0
      0013CF 00                    2506 	.db #0x00	; 0
      0013D0 00                    2507 	.db #0x00	; 0
      0013D1 00                    2508 	.db #0x00	; 0
      0013D2 00                    2509 	.db #0x00	; 0
      0013D3 00                    2510 	.db #0x00	; 0
      0013D4 00                    2511 	.db #0x00	; 0
      0013D5 00                    2512 	.db #0x00	; 0
      0013D6 00                    2513 	.db #0x00	; 0
      0013D7 00                    2514 	.db #0x00	; 0
      0013D8 00                    2515 	.db #0x00	; 0
      0013D9 00                    2516 	.db #0x00	; 0
      0013DA 00                    2517 	.db #0x00	; 0
      0013DB 00                    2518 	.db #0x00	; 0
      0013DC 00                    2519 	.db #0x00	; 0
      0013DD 00                    2520 	.db #0x00	; 0
      0013DE 00                    2521 	.db #0x00	; 0
      0013DF 00                    2522 	.db #0x00	; 0
      0013E0 00                    2523 	.db #0x00	; 0
      0013E1 00                    2524 	.db #0x00	; 0
      0013E2 00                    2525 	.db #0x00	; 0
      0013E3 00                    2526 	.db #0x00	; 0
      0013E4 00                    2527 	.db #0x00	; 0
      0013E5 00                    2528 	.db #0x00	; 0
      0013E6 00                    2529 	.db #0x00	; 0
      0013E7 00                    2530 	.db #0x00	; 0
      0013E8 00                    2531 	.db #0x00	; 0
      0013E9 00                    2532 	.db #0x00	; 0
      0013EA 00                    2533 	.db #0x00	; 0
      0013EB 00                    2534 	.db #0x00	; 0
      0013EC 00                    2535 	.db #0x00	; 0
      0013ED 00                    2536 	.db #0x00	; 0
      0013EE 40                    2537 	.db #0x40	; 64
      0013EF 20                    2538 	.db #0x20	; 32
      0013F0 20                    2539 	.db #0x20	; 32
      0013F1 20                    2540 	.db #0x20	; 32
      0013F2 C0                    2541 	.db #0xc0	; 192
      0013F3 00                    2542 	.db #0x00	; 0
      0013F4 00                    2543 	.db #0x00	; 0
      0013F5 E0                    2544 	.db #0xe0	; 224
      0013F6 20                    2545 	.db #0x20	; 32
      0013F7 20                    2546 	.db #0x20	; 32
      0013F8 20                    2547 	.db #0x20	; 32
      0013F9 E0                    2548 	.db #0xe0	; 224
      0013FA 00                    2549 	.db #0x00	; 0
      0013FB 00                    2550 	.db #0x00	; 0
      0013FC 00                    2551 	.db #0x00	; 0
      0013FD 40                    2552 	.db #0x40	; 64
      0013FE E0                    2553 	.db #0xe0	; 224
      0013FF 00                    2554 	.db #0x00	; 0
      001400 00                    2555 	.db #0x00	; 0
      001401 00                    2556 	.db #0x00	; 0
      001402 00                    2557 	.db #0x00	; 0
      001403 60                    2558 	.db #0x60	; 96
      001404 20                    2559 	.db #0x20	; 32
      001405 20                    2560 	.db #0x20	; 32
      001406 20                    2561 	.db #0x20	; 32
      001407 E0                    2562 	.db #0xe0	; 224
      001408 00                    2563 	.db #0x00	; 0
      001409 00                    2564 	.db #0x00	; 0
      00140A 00                    2565 	.db #0x00	; 0
      00140B 00                    2566 	.db #0x00	; 0
      00140C 00                    2567 	.db #0x00	; 0
      00140D E0                    2568 	.db #0xe0	; 224
      00140E 20                    2569 	.db #0x20	; 32
      00140F 20                    2570 	.db #0x20	; 32
      001410 20                    2571 	.db #0x20	; 32
      001411 E0                    2572 	.db #0xe0	; 224
      001412 00                    2573 	.db #0x00	; 0
      001413 00                    2574 	.db #0x00	; 0
      001414 00                    2575 	.db #0x00	; 0
      001415 00                    2576 	.db #0x00	; 0
      001416 00                    2577 	.db #0x00	; 0
      001417 40                    2578 	.db #0x40	; 64
      001418 20                    2579 	.db #0x20	; 32
      001419 20                    2580 	.db #0x20	; 32
      00141A 20                    2581 	.db #0x20	; 32
      00141B C0                    2582 	.db #0xc0	; 192
      00141C 00                    2583 	.db #0x00	; 0
      00141D 00                    2584 	.db #0x00	; 0
      00141E 40                    2585 	.db #0x40	; 64
      00141F 20                    2586 	.db #0x20	; 32
      001420 20                    2587 	.db #0x20	; 32
      001421 20                    2588 	.db #0x20	; 32
      001422 C0                    2589 	.db #0xc0	; 192
      001423 00                    2590 	.db #0x00	; 0
      001424 00                    2591 	.db #0x00	; 0
      001425 00                    2592 	.db #0x00	; 0
      001426 00                    2593 	.db #0x00	; 0
      001427 00                    2594 	.db #0x00	; 0
      001428 00                    2595 	.db #0x00	; 0
      001429 00                    2596 	.db #0x00	; 0
      00142A 00                    2597 	.db #0x00	; 0
      00142B 00                    2598 	.db #0x00	; 0
      00142C 00                    2599 	.db #0x00	; 0
      00142D 00                    2600 	.db #0x00	; 0
      00142E 00                    2601 	.db #0x00	; 0
      00142F 00                    2602 	.db #0x00	; 0
      001430 00                    2603 	.db #0x00	; 0
      001431 00                    2604 	.db #0x00	; 0
      001432 00                    2605 	.db #0x00	; 0
      001433 00                    2606 	.db #0x00	; 0
      001434 00                    2607 	.db #0x00	; 0
      001435 00                    2608 	.db #0x00	; 0
      001436 00                    2609 	.db #0x00	; 0
      001437 00                    2610 	.db #0x00	; 0
      001438 00                    2611 	.db #0x00	; 0
      001439 00                    2612 	.db #0x00	; 0
      00143A 00                    2613 	.db #0x00	; 0
      00143B 00                    2614 	.db #0x00	; 0
      00143C 00                    2615 	.db #0x00	; 0
      00143D 00                    2616 	.db #0x00	; 0
      00143E 00                    2617 	.db #0x00	; 0
      00143F 00                    2618 	.db #0x00	; 0
      001440 00                    2619 	.db #0x00	; 0
      001441 00                    2620 	.db #0x00	; 0
      001442 00                    2621 	.db #0x00	; 0
      001443 00                    2622 	.db #0x00	; 0
      001444 00                    2623 	.db #0x00	; 0
      001445 00                    2624 	.db #0x00	; 0
      001446 00                    2625 	.db #0x00	; 0
      001447 00                    2626 	.db #0x00	; 0
      001448 00                    2627 	.db #0x00	; 0
      001449 00                    2628 	.db #0x00	; 0
      00144A 00                    2629 	.db #0x00	; 0
      00144B 00                    2630 	.db #0x00	; 0
      00144C 00                    2631 	.db #0x00	; 0
      00144D 00                    2632 	.db #0x00	; 0
      00144E 00                    2633 	.db #0x00	; 0
      00144F 00                    2634 	.db #0x00	; 0
      001450 00                    2635 	.db #0x00	; 0
      001451 00                    2636 	.db #0x00	; 0
      001452 00                    2637 	.db #0x00	; 0
      001453 00                    2638 	.db #0x00	; 0
      001454 00                    2639 	.db #0x00	; 0
      001455 00                    2640 	.db #0x00	; 0
      001456 00                    2641 	.db #0x00	; 0
      001457 00                    2642 	.db #0x00	; 0
      001458 00                    2643 	.db #0x00	; 0
      001459 00                    2644 	.db #0x00	; 0
      00145A 00                    2645 	.db #0x00	; 0
      00145B 00                    2646 	.db #0x00	; 0
      00145C 00                    2647 	.db #0x00	; 0
      00145D 00                    2648 	.db #0x00	; 0
      00145E 00                    2649 	.db #0x00	; 0
      00145F 00                    2650 	.db #0x00	; 0
      001460 00                    2651 	.db #0x00	; 0
      001461 00                    2652 	.db #0x00	; 0
      001462 00                    2653 	.db #0x00	; 0
      001463 00                    2654 	.db #0x00	; 0
      001464 00                    2655 	.db #0x00	; 0
      001465 00                    2656 	.db #0x00	; 0
      001466 00                    2657 	.db #0x00	; 0
      001467 00                    2658 	.db #0x00	; 0
      001468 00                    2659 	.db #0x00	; 0
      001469 00                    2660 	.db #0x00	; 0
      00146A 00                    2661 	.db #0x00	; 0
      00146B 00                    2662 	.db #0x00	; 0
      00146C 00                    2663 	.db #0x00	; 0
      00146D 00                    2664 	.db #0x00	; 0
      00146E 0C                    2665 	.db #0x0c	; 12
      00146F 0A                    2666 	.db #0x0a	; 10
      001470 0A                    2667 	.db #0x0a	; 10
      001471 09                    2668 	.db #0x09	; 9
      001472 0C                    2669 	.db #0x0c	; 12
      001473 00                    2670 	.db #0x00	; 0
      001474 00                    2671 	.db #0x00	; 0
      001475 0F                    2672 	.db #0x0f	; 15
      001476 08                    2673 	.db #0x08	; 8
      001477 08                    2674 	.db #0x08	; 8
      001478 08                    2675 	.db #0x08	; 8
      001479 0F                    2676 	.db #0x0f	; 15
      00147A 00                    2677 	.db #0x00	; 0
      00147B 00                    2678 	.db #0x00	; 0
      00147C 00                    2679 	.db #0x00	; 0
      00147D 08                    2680 	.db #0x08	; 8
      00147E 0F                    2681 	.db #0x0f	; 15
      00147F 08                    2682 	.db #0x08	; 8
      001480 00                    2683 	.db #0x00	; 0
      001481 00                    2684 	.db #0x00	; 0
      001482 00                    2685 	.db #0x00	; 0
      001483 0C                    2686 	.db #0x0c	; 12
      001484 08                    2687 	.db #0x08	; 8
      001485 09                    2688 	.db #0x09	; 9
      001486 09                    2689 	.db #0x09	; 9
      001487 0E                    2690 	.db #0x0e	; 14
      001488 00                    2691 	.db #0x00	; 0
      001489 00                    2692 	.db #0x00	; 0
      00148A 0C                    2693 	.db #0x0c	; 12
      00148B 00                    2694 	.db #0x00	; 0
      00148C 00                    2695 	.db #0x00	; 0
      00148D 0F                    2696 	.db #0x0f	; 15
      00148E 09                    2697 	.db #0x09	; 9
      00148F 09                    2698 	.db #0x09	; 9
      001490 09                    2699 	.db #0x09	; 9
      001491 0F                    2700 	.db #0x0f	; 15
      001492 00                    2701 	.db #0x00	; 0
      001493 00                    2702 	.db #0x00	; 0
      001494 0C                    2703 	.db #0x0c	; 12
      001495 00                    2704 	.db #0x00	; 0
      001496 00                    2705 	.db #0x00	; 0
      001497 0C                    2706 	.db #0x0c	; 12
      001498 0A                    2707 	.db #0x0a	; 10
      001499 0A                    2708 	.db #0x0a	; 10
      00149A 09                    2709 	.db #0x09	; 9
      00149B 0C                    2710 	.db #0x0c	; 12
      00149C 00                    2711 	.db #0x00	; 0
      00149D 00                    2712 	.db #0x00	; 0
      00149E 0C                    2713 	.db #0x0c	; 12
      00149F 0A                    2714 	.db #0x0a	; 10
      0014A0 0A                    2715 	.db #0x0a	; 10
      0014A1 09                    2716 	.db #0x09	; 9
      0014A2 0C                    2717 	.db #0x0c	; 12
      0014A3 00                    2718 	.db #0x00	; 0
      0014A4 00                    2719 	.db #0x00	; 0
      0014A5 00                    2720 	.db #0x00	; 0
      0014A6 00                    2721 	.db #0x00	; 0
      0014A7 00                    2722 	.db #0x00	; 0
      0014A8 00                    2723 	.db #0x00	; 0
      0014A9 00                    2724 	.db #0x00	; 0
      0014AA 00                    2725 	.db #0x00	; 0
      0014AB 00                    2726 	.db #0x00	; 0
      0014AC 00                    2727 	.db #0x00	; 0
      0014AD 00                    2728 	.db #0x00	; 0
      0014AE 00                    2729 	.db #0x00	; 0
      0014AF 00                    2730 	.db #0x00	; 0
      0014B0 00                    2731 	.db #0x00	; 0
      0014B1 00                    2732 	.db #0x00	; 0
      0014B2 00                    2733 	.db #0x00	; 0
      0014B3 00                    2734 	.db #0x00	; 0
      0014B4 00                    2735 	.db #0x00	; 0
      0014B5 00                    2736 	.db #0x00	; 0
      0014B6 00                    2737 	.db #0x00	; 0
      0014B7 00                    2738 	.db #0x00	; 0
      0014B8 00                    2739 	.db #0x00	; 0
      0014B9 00                    2740 	.db #0x00	; 0
      0014BA 00                    2741 	.db #0x00	; 0
      0014BB 00                    2742 	.db #0x00	; 0
      0014BC 00                    2743 	.db #0x00	; 0
      0014BD 00                    2744 	.db #0x00	; 0
      0014BE 00                    2745 	.db #0x00	; 0
      0014BF 00                    2746 	.db #0x00	; 0
      0014C0 00                    2747 	.db #0x00	; 0
      0014C1 00                    2748 	.db #0x00	; 0
      0014C2 00                    2749 	.db #0x00	; 0
      0014C3 00                    2750 	.db #0x00	; 0
      0014C4 00                    2751 	.db #0x00	; 0
      0014C5 00                    2752 	.db #0x00	; 0
      0014C6 00                    2753 	.db #0x00	; 0
      0014C7 00                    2754 	.db #0x00	; 0
      0014C8 00                    2755 	.db #0x00	; 0
      0014C9 00                    2756 	.db #0x00	; 0
      0014CA 00                    2757 	.db #0x00	; 0
      0014CB 00                    2758 	.db #0x00	; 0
      0014CC 00                    2759 	.db #0x00	; 0
      0014CD 00                    2760 	.db #0x00	; 0
      0014CE 00                    2761 	.db #0x00	; 0
      0014CF 00                    2762 	.db #0x00	; 0
      0014D0 00                    2763 	.db #0x00	; 0
      0014D1 00                    2764 	.db #0x00	; 0
      0014D2 00                    2765 	.db #0x00	; 0
      0014D3 00                    2766 	.db #0x00	; 0
      0014D4 00                    2767 	.db #0x00	; 0
      0014D5 00                    2768 	.db #0x00	; 0
      0014D6 00                    2769 	.db #0x00	; 0
      0014D7 00                    2770 	.db #0x00	; 0
      0014D8 00                    2771 	.db #0x00	; 0
      0014D9 00                    2772 	.db #0x00	; 0
      0014DA 00                    2773 	.db #0x00	; 0
      0014DB 00                    2774 	.db #0x00	; 0
      0014DC 00                    2775 	.db #0x00	; 0
      0014DD 00                    2776 	.db #0x00	; 0
      0014DE 00                    2777 	.db #0x00	; 0
      0014DF 00                    2778 	.db #0x00	; 0
      0014E0 00                    2779 	.db #0x00	; 0
      0014E1 00                    2780 	.db #0x00	; 0
      0014E2 00                    2781 	.db #0x00	; 0
      0014E3 00                    2782 	.db #0x00	; 0
      0014E4 00                    2783 	.db #0x00	; 0
      0014E5 00                    2784 	.db #0x00	; 0
      0014E6 00                    2785 	.db #0x00	; 0
      0014E7 00                    2786 	.db #0x00	; 0
      0014E8 00                    2787 	.db #0x00	; 0
      0014E9 00                    2788 	.db #0x00	; 0
      0014EA 00                    2789 	.db #0x00	; 0
      0014EB 00                    2790 	.db #0x00	; 0
      0014EC 00                    2791 	.db #0x00	; 0
      0014ED 00                    2792 	.db #0x00	; 0
      0014EE 00                    2793 	.db #0x00	; 0
      0014EF 00                    2794 	.db #0x00	; 0
      0014F0 00                    2795 	.db #0x00	; 0
      0014F1 00                    2796 	.db #0x00	; 0
      0014F2 00                    2797 	.db #0x00	; 0
      0014F3 00                    2798 	.db #0x00	; 0
      0014F4 00                    2799 	.db #0x00	; 0
      0014F5 00                    2800 	.db #0x00	; 0
      0014F6 00                    2801 	.db #0x00	; 0
      0014F7 00                    2802 	.db #0x00	; 0
      0014F8 00                    2803 	.db #0x00	; 0
      0014F9 00                    2804 	.db #0x00	; 0
      0014FA 00                    2805 	.db #0x00	; 0
      0014FB 00                    2806 	.db #0x00	; 0
      0014FC 00                    2807 	.db #0x00	; 0
      0014FD 00                    2808 	.db #0x00	; 0
      0014FE 00                    2809 	.db #0x00	; 0
      0014FF 00                    2810 	.db #0x00	; 0
      001500 00                    2811 	.db #0x00	; 0
      001501 00                    2812 	.db #0x00	; 0
      001502 00                    2813 	.db #0x00	; 0
      001503 00                    2814 	.db #0x00	; 0
      001504 00                    2815 	.db #0x00	; 0
      001505 80                    2816 	.db #0x80	; 128
      001506 80                    2817 	.db #0x80	; 128
      001507 80                    2818 	.db #0x80	; 128
      001508 80                    2819 	.db #0x80	; 128
      001509 80                    2820 	.db #0x80	; 128
      00150A 80                    2821 	.db #0x80	; 128
      00150B 80                    2822 	.db #0x80	; 128
      00150C 80                    2823 	.db #0x80	; 128
      00150D 00                    2824 	.db #0x00	; 0
      00150E 00                    2825 	.db #0x00	; 0
      00150F 00                    2826 	.db #0x00	; 0
      001510 00                    2827 	.db #0x00	; 0
      001511 00                    2828 	.db #0x00	; 0
      001512 00                    2829 	.db #0x00	; 0
      001513 00                    2830 	.db #0x00	; 0
      001514 00                    2831 	.db #0x00	; 0
      001515 00                    2832 	.db #0x00	; 0
      001516 00                    2833 	.db #0x00	; 0
      001517 00                    2834 	.db #0x00	; 0
      001518 00                    2835 	.db #0x00	; 0
      001519 00                    2836 	.db #0x00	; 0
      00151A 00                    2837 	.db #0x00	; 0
      00151B 00                    2838 	.db #0x00	; 0
      00151C 00                    2839 	.db #0x00	; 0
      00151D 00                    2840 	.db #0x00	; 0
      00151E 00                    2841 	.db #0x00	; 0
      00151F 00                    2842 	.db #0x00	; 0
      001520 00                    2843 	.db #0x00	; 0
      001521 00                    2844 	.db #0x00	; 0
      001522 00                    2845 	.db #0x00	; 0
      001523 00                    2846 	.db #0x00	; 0
      001524 00                    2847 	.db #0x00	; 0
      001525 00                    2848 	.db #0x00	; 0
      001526 00                    2849 	.db #0x00	; 0
      001527 00                    2850 	.db #0x00	; 0
      001528 00                    2851 	.db #0x00	; 0
      001529 00                    2852 	.db #0x00	; 0
      00152A 00                    2853 	.db #0x00	; 0
      00152B 00                    2854 	.db #0x00	; 0
      00152C 00                    2855 	.db #0x00	; 0
      00152D 00                    2856 	.db #0x00	; 0
      00152E 00                    2857 	.db #0x00	; 0
      00152F 00                    2858 	.db #0x00	; 0
      001530 00                    2859 	.db #0x00	; 0
      001531 00                    2860 	.db #0x00	; 0
      001532 00                    2861 	.db #0x00	; 0
      001533 00                    2862 	.db #0x00	; 0
      001534 00                    2863 	.db #0x00	; 0
      001535 00                    2864 	.db #0x00	; 0
      001536 00                    2865 	.db #0x00	; 0
      001537 00                    2866 	.db #0x00	; 0
      001538 00                    2867 	.db #0x00	; 0
      001539 00                    2868 	.db #0x00	; 0
      00153A 00                    2869 	.db #0x00	; 0
      00153B 00                    2870 	.db #0x00	; 0
      00153C 00                    2871 	.db #0x00	; 0
      00153D 00                    2872 	.db #0x00	; 0
      00153E 00                    2873 	.db #0x00	; 0
      00153F 00                    2874 	.db #0x00	; 0
      001540 00                    2875 	.db #0x00	; 0
      001541 00                    2876 	.db #0x00	; 0
      001542 00                    2877 	.db #0x00	; 0
      001543 00                    2878 	.db #0x00	; 0
      001544 00                    2879 	.db #0x00	; 0
      001545 00                    2880 	.db #0x00	; 0
      001546 00                    2881 	.db #0x00	; 0
      001547 00                    2882 	.db #0x00	; 0
      001548 00                    2883 	.db #0x00	; 0
      001549 00                    2884 	.db #0x00	; 0
      00154A 7F                    2885 	.db #0x7f	; 127
      00154B 03                    2886 	.db #0x03	; 3
      00154C 0C                    2887 	.db #0x0c	; 12
      00154D 30                    2888 	.db #0x30	; 48	'0'
      00154E 0C                    2889 	.db #0x0c	; 12
      00154F 03                    2890 	.db #0x03	; 3
      001550 7F                    2891 	.db #0x7f	; 127
      001551 00                    2892 	.db #0x00	; 0
      001552 00                    2893 	.db #0x00	; 0
      001553 38                    2894 	.db #0x38	; 56	'8'
      001554 54                    2895 	.db #0x54	; 84	'T'
      001555 54                    2896 	.db #0x54	; 84	'T'
      001556 58                    2897 	.db #0x58	; 88	'X'
      001557 00                    2898 	.db #0x00	; 0
      001558 00                    2899 	.db #0x00	; 0
      001559 7C                    2900 	.db #0x7c	; 124
      00155A 04                    2901 	.db #0x04	; 4
      00155B 04                    2902 	.db #0x04	; 4
      00155C 78                    2903 	.db #0x78	; 120	'x'
      00155D 00                    2904 	.db #0x00	; 0
      00155E 00                    2905 	.db #0x00	; 0
      00155F 3C                    2906 	.db #0x3c	; 60
      001560 40                    2907 	.db #0x40	; 64
      001561 40                    2908 	.db #0x40	; 64
      001562 7C                    2909 	.db #0x7c	; 124
      001563 00                    2910 	.db #0x00	; 0
      001564 00                    2911 	.db #0x00	; 0
      001565 00                    2912 	.db #0x00	; 0
      001566 00                    2913 	.db #0x00	; 0
      001567 00                    2914 	.db #0x00	; 0
      001568 00                    2915 	.db #0x00	; 0
      001569 00                    2916 	.db #0x00	; 0
      00156A 00                    2917 	.db #0x00	; 0
      00156B 00                    2918 	.db #0x00	; 0
      00156C 00                    2919 	.db #0x00	; 0
      00156D 00                    2920 	.db #0x00	; 0
      00156E 00                    2921 	.db #0x00	; 0
      00156F 00                    2922 	.db #0x00	; 0
      001570 00                    2923 	.db #0x00	; 0
      001571 00                    2924 	.db #0x00	; 0
      001572 00                    2925 	.db #0x00	; 0
      001573 00                    2926 	.db #0x00	; 0
      001574 00                    2927 	.db #0x00	; 0
      001575 00                    2928 	.db #0x00	; 0
      001576 00                    2929 	.db #0x00	; 0
      001577 00                    2930 	.db #0x00	; 0
      001578 00                    2931 	.db #0x00	; 0
      001579 00                    2932 	.db #0x00	; 0
      00157A 00                    2933 	.db #0x00	; 0
      00157B 00                    2934 	.db #0x00	; 0
      00157C 00                    2935 	.db #0x00	; 0
      00157D 00                    2936 	.db #0x00	; 0
      00157E 00                    2937 	.db #0x00	; 0
      00157F 00                    2938 	.db #0x00	; 0
      001580 00                    2939 	.db #0x00	; 0
      001581 00                    2940 	.db #0x00	; 0
      001582 00                    2941 	.db #0x00	; 0
      001583 00                    2942 	.db #0x00	; 0
      001584 00                    2943 	.db #0x00	; 0
      001585 FF                    2944 	.db #0xff	; 255
      001586 AA                    2945 	.db #0xaa	; 170
      001587 AA                    2946 	.db #0xaa	; 170
      001588 AA                    2947 	.db #0xaa	; 170
      001589 28                    2948 	.db #0x28	; 40
      00158A 08                    2949 	.db #0x08	; 8
      00158B 00                    2950 	.db #0x00	; 0
      00158C FF                    2951 	.db #0xff	; 255
      00158D 00                    2952 	.db #0x00	; 0
      00158E 00                    2953 	.db #0x00	; 0
      00158F 00                    2954 	.db #0x00	; 0
      001590 00                    2955 	.db #0x00	; 0
      001591 00                    2956 	.db #0x00	; 0
      001592 00                    2957 	.db #0x00	; 0
      001593 00                    2958 	.db #0x00	; 0
      001594 00                    2959 	.db #0x00	; 0
      001595 00                    2960 	.db #0x00	; 0
      001596 00                    2961 	.db #0x00	; 0
      001597 00                    2962 	.db #0x00	; 0
      001598 00                    2963 	.db #0x00	; 0
      001599 00                    2964 	.db #0x00	; 0
      00159A 00                    2965 	.db #0x00	; 0
      00159B 00                    2966 	.db #0x00	; 0
      00159C 00                    2967 	.db #0x00	; 0
      00159D 00                    2968 	.db #0x00	; 0
      00159E 00                    2969 	.db #0x00	; 0
      00159F 00                    2970 	.db #0x00	; 0
      0015A0 00                    2971 	.db #0x00	; 0
      0015A1 00                    2972 	.db #0x00	; 0
      0015A2 00                    2973 	.db #0x00	; 0
      0015A3 00                    2974 	.db #0x00	; 0
      0015A4 00                    2975 	.db #0x00	; 0
      0015A5 00                    2976 	.db #0x00	; 0
      0015A6 00                    2977 	.db #0x00	; 0
      0015A7 00                    2978 	.db #0x00	; 0
      0015A8 00                    2979 	.db #0x00	; 0
      0015A9 00                    2980 	.db #0x00	; 0
      0015AA 00                    2981 	.db #0x00	; 0
      0015AB 00                    2982 	.db #0x00	; 0
      0015AC 00                    2983 	.db #0x00	; 0
      0015AD 00                    2984 	.db #0x00	; 0
      0015AE 00                    2985 	.db #0x00	; 0
      0015AF 00                    2986 	.db #0x00	; 0
      0015B0 00                    2987 	.db #0x00	; 0
      0015B1 00                    2988 	.db #0x00	; 0
      0015B2 7F                    2989 	.db #0x7f	; 127
      0015B3 03                    2990 	.db #0x03	; 3
      0015B4 0C                    2991 	.db #0x0c	; 12
      0015B5 30                    2992 	.db #0x30	; 48	'0'
      0015B6 0C                    2993 	.db #0x0c	; 12
      0015B7 03                    2994 	.db #0x03	; 3
      0015B8 7F                    2995 	.db #0x7f	; 127
      0015B9 00                    2996 	.db #0x00	; 0
      0015BA 00                    2997 	.db #0x00	; 0
      0015BB 26                    2998 	.db #0x26	; 38
      0015BC 49                    2999 	.db #0x49	; 73	'I'
      0015BD 49                    3000 	.db #0x49	; 73	'I'
      0015BE 49                    3001 	.db #0x49	; 73	'I'
      0015BF 32                    3002 	.db #0x32	; 50	'2'
      0015C0 00                    3003 	.db #0x00	; 0
      0015C1 00                    3004 	.db #0x00	; 0
      0015C2 7F                    3005 	.db #0x7f	; 127
      0015C3 02                    3006 	.db #0x02	; 2
      0015C4 04                    3007 	.db #0x04	; 4
      0015C5 08                    3008 	.db #0x08	; 8
      0015C6 10                    3009 	.db #0x10	; 16
      0015C7 7F                    3010 	.db #0x7f	; 127
      0015C8 00                    3011 	.db #0x00	; 0
                                   3012 	.area CONST   (CODE)
      0015C9                       3013 ___str_0:
      0015C9 41 44 20 43 4A 20 25  3014 	.ascii "AD CJ %fV"
             66 56
      0015D2 00                    3015 	.db 0x00
                                   3016 	.area CSEG    (CODE)
                                   3017 	.area XINIT   (CODE)
                                   3018 	.area CABS    (ABS,CODE)
