:03000000020006F5
:03005F0002000399
:0300030002008573
:10006200AC82AD83AEF0FF8C008D018E028F031C3B
:10007200BCFF091DBDFF051EBEFF011FE8494A4B1B
:1000820070E522759E04539DFE7508017582081263
:1000920000E07E007F008EA39003E8E4F5F0C00745
:1000A200C006120062D006D0070EBE00010FC3E4E4
:1000B2009E74818FF063F08095F050DA7E007F01AC
:1000C2008EA39003E8E4F5F0C007C006120062D0E8
:1000D20006D0071EBEFF011FEF30E7E480B4AF82F7
:1000E2007401B50874539DFDEF30E003439D04EFA6
:1000F20030E103439D08EF0303543FF59F7E008EDA
:10010200F005F07C017D008006EC2CFCED33FDD582
:10011200F0F78F027B00EA5204EB5205EC4D6020AF
:100122008E057405C39DF5F005F07401800225E08B
:10013200D5F0FBFDF4AB945BF594AC95ED4CF595E5
:100142000EBE06BBEF30E6065394BF439540EF3038
:10015200E71E53947F43958022EF30E003539DFBCB
:10016200EF30E103539DF7EF0303543FF4FF529F37
:01017200226A
:06003500E478FFF6D8FD9F
:100013007900E94400601B7A00900177780175A0AC
:1000230000E493F2A308B8000205A0D9F4DAF2754C
:02003300A0FF2C
:10003B007800E84400600A790175A000E4F309D860
:10004B00FC7800E84400600C7900900001E4F0A318
:04005B00D8FCD9FAFA
:0D000600758108120173E58260030200039A
:04017300758200226F
:00000001FF
