                                      1 ;--------------------------------------------------------
                                      2 ; File Created by SDCC : free open source ANSI-C Compiler
                                      3 ; Version 4.0.0 #11528 (MINGW64)
                                      4 ;--------------------------------------------------------
                                      5 	.module CH549_OLED
                                      6 	.optsdcc -mmcs51 --model-small
                                      7 	
                                      8 ;--------------------------------------------------------
                                      9 ; Public variables in this module
                                     10 ;--------------------------------------------------------
                                     11 	.globl _Hzk
                                     12 	.globl _fontMatrix_8x16
                                     13 	.globl _fontMatrix_6x8
                                     14 	.globl _BMP2
                                     15 	.globl _BMP1
                                     16 	.globl _CH549SPIMasterWrite
                                     17 	.globl _UIF_BUS_RST
                                     18 	.globl _UIF_DETECT
                                     19 	.globl _UIF_TRANSFER
                                     20 	.globl _UIF_SUSPEND
                                     21 	.globl _UIF_HST_SOF
                                     22 	.globl _UIF_FIFO_OV
                                     23 	.globl _U_SIE_FREE
                                     24 	.globl _U_TOG_OK
                                     25 	.globl _U_IS_NAK
                                     26 	.globl _S0_R_FIFO
                                     27 	.globl _S0_T_FIFO
                                     28 	.globl _S0_FREE
                                     29 	.globl _S0_IF_BYTE
                                     30 	.globl _S0_IF_FIRST
                                     31 	.globl _S0_IF_OV
                                     32 	.globl _S0_FST_ACT
                                     33 	.globl _CP_RL2
                                     34 	.globl _C_T2
                                     35 	.globl _TR2
                                     36 	.globl _EXEN2
                                     37 	.globl _TCLK
                                     38 	.globl _RCLK
                                     39 	.globl _EXF2
                                     40 	.globl _CAP1F
                                     41 	.globl _TF2
                                     42 	.globl _RI
                                     43 	.globl _TI
                                     44 	.globl _RB8
                                     45 	.globl _TB8
                                     46 	.globl _REN
                                     47 	.globl _SM2
                                     48 	.globl _SM1
                                     49 	.globl _SM0
                                     50 	.globl _IT0
                                     51 	.globl _IE0
                                     52 	.globl _IT1
                                     53 	.globl _IE1
                                     54 	.globl _TR0
                                     55 	.globl _TF0
                                     56 	.globl _TR1
                                     57 	.globl _TF1
                                     58 	.globl _XI
                                     59 	.globl _XO
                                     60 	.globl _P4_0
                                     61 	.globl _P4_1
                                     62 	.globl _P4_2
                                     63 	.globl _P4_3
                                     64 	.globl _P4_4
                                     65 	.globl _P4_5
                                     66 	.globl _P4_6
                                     67 	.globl _RXD
                                     68 	.globl _TXD
                                     69 	.globl _INT0
                                     70 	.globl _INT1
                                     71 	.globl _T0
                                     72 	.globl _T1
                                     73 	.globl _CAP0
                                     74 	.globl _INT3
                                     75 	.globl _P3_0
                                     76 	.globl _P3_1
                                     77 	.globl _P3_2
                                     78 	.globl _P3_3
                                     79 	.globl _P3_4
                                     80 	.globl _P3_5
                                     81 	.globl _P3_6
                                     82 	.globl _P3_7
                                     83 	.globl _PWM5
                                     84 	.globl _PWM4
                                     85 	.globl _INT0_
                                     86 	.globl _PWM3
                                     87 	.globl _PWM2
                                     88 	.globl _CAP1_
                                     89 	.globl _T2_
                                     90 	.globl _PWM1
                                     91 	.globl _CAP2_
                                     92 	.globl _T2EX_
                                     93 	.globl _PWM0
                                     94 	.globl _RXD1
                                     95 	.globl _PWM6
                                     96 	.globl _TXD1
                                     97 	.globl _PWM7
                                     98 	.globl _P2_0
                                     99 	.globl _P2_1
                                    100 	.globl _P2_2
                                    101 	.globl _P2_3
                                    102 	.globl _P2_4
                                    103 	.globl _P2_5
                                    104 	.globl _P2_6
                                    105 	.globl _P2_7
                                    106 	.globl _AIN0
                                    107 	.globl _CAP1
                                    108 	.globl _T2
                                    109 	.globl _AIN1
                                    110 	.globl _CAP2
                                    111 	.globl _T2EX
                                    112 	.globl _AIN2
                                    113 	.globl _AIN3
                                    114 	.globl _AIN4
                                    115 	.globl _UCC1
                                    116 	.globl _SCS
                                    117 	.globl _AIN5
                                    118 	.globl _UCC2
                                    119 	.globl _PWM0_
                                    120 	.globl _MOSI
                                    121 	.globl _AIN6
                                    122 	.globl _VBUS
                                    123 	.globl _RXD1_
                                    124 	.globl _MISO
                                    125 	.globl _AIN7
                                    126 	.globl _TXD1_
                                    127 	.globl _SCK
                                    128 	.globl _P1_0
                                    129 	.globl _P1_1
                                    130 	.globl _P1_2
                                    131 	.globl _P1_3
                                    132 	.globl _P1_4
                                    133 	.globl _P1_5
                                    134 	.globl _P1_6
                                    135 	.globl _P1_7
                                    136 	.globl _AIN8
                                    137 	.globl _AIN9
                                    138 	.globl _AIN10
                                    139 	.globl _RXD_
                                    140 	.globl _AIN11
                                    141 	.globl _TXD_
                                    142 	.globl _AIN12
                                    143 	.globl _RXD2
                                    144 	.globl _AIN13
                                    145 	.globl _TXD2
                                    146 	.globl _AIN14
                                    147 	.globl _RXD3
                                    148 	.globl _AIN15
                                    149 	.globl _TXD3
                                    150 	.globl _P0_0
                                    151 	.globl _P0_1
                                    152 	.globl _P0_2
                                    153 	.globl _P0_3
                                    154 	.globl _P0_4
                                    155 	.globl _P0_5
                                    156 	.globl _P0_6
                                    157 	.globl _P0_7
                                    158 	.globl _IE_SPI0
                                    159 	.globl _IE_INT3
                                    160 	.globl _IE_USB
                                    161 	.globl _IE_UART2
                                    162 	.globl _IE_ADC
                                    163 	.globl _IE_UART1
                                    164 	.globl _IE_UART3
                                    165 	.globl _IE_PWMX
                                    166 	.globl _IE_GPIO
                                    167 	.globl _IE_WDOG
                                    168 	.globl _PX0
                                    169 	.globl _PT0
                                    170 	.globl _PX1
                                    171 	.globl _PT1
                                    172 	.globl _PS
                                    173 	.globl _PT2
                                    174 	.globl _PL_FLAG
                                    175 	.globl _PH_FLAG
                                    176 	.globl _EX0
                                    177 	.globl _ET0
                                    178 	.globl _EX1
                                    179 	.globl _ET1
                                    180 	.globl _ES
                                    181 	.globl _ET2
                                    182 	.globl _E_DIS
                                    183 	.globl _EA
                                    184 	.globl _P
                                    185 	.globl _F1
                                    186 	.globl _OV
                                    187 	.globl _RS0
                                    188 	.globl _RS1
                                    189 	.globl _F0
                                    190 	.globl _AC
                                    191 	.globl _CY
                                    192 	.globl _UEP1_DMA_H
                                    193 	.globl _UEP1_DMA_L
                                    194 	.globl _UEP1_DMA
                                    195 	.globl _UEP0_DMA_H
                                    196 	.globl _UEP0_DMA_L
                                    197 	.globl _UEP0_DMA
                                    198 	.globl _UEP2_3_MOD
                                    199 	.globl _UEP4_1_MOD
                                    200 	.globl _UEP3_DMA_H
                                    201 	.globl _UEP3_DMA_L
                                    202 	.globl _UEP3_DMA
                                    203 	.globl _UEP2_DMA_H
                                    204 	.globl _UEP2_DMA_L
                                    205 	.globl _UEP2_DMA
                                    206 	.globl _USB_DEV_AD
                                    207 	.globl _USB_CTRL
                                    208 	.globl _USB_INT_EN
                                    209 	.globl _UEP4_T_LEN
                                    210 	.globl _UEP4_CTRL
                                    211 	.globl _UEP0_T_LEN
                                    212 	.globl _UEP0_CTRL
                                    213 	.globl _USB_RX_LEN
                                    214 	.globl _USB_MIS_ST
                                    215 	.globl _USB_INT_ST
                                    216 	.globl _USB_INT_FG
                                    217 	.globl _UEP3_T_LEN
                                    218 	.globl _UEP3_CTRL
                                    219 	.globl _UEP2_T_LEN
                                    220 	.globl _UEP2_CTRL
                                    221 	.globl _UEP1_T_LEN
                                    222 	.globl _UEP1_CTRL
                                    223 	.globl _UDEV_CTRL
                                    224 	.globl _USB_C_CTRL
                                    225 	.globl _ADC_PIN
                                    226 	.globl _ADC_CHAN
                                    227 	.globl _ADC_DAT_H
                                    228 	.globl _ADC_DAT_L
                                    229 	.globl _ADC_DAT
                                    230 	.globl _ADC_CFG
                                    231 	.globl _ADC_CTRL
                                    232 	.globl _TKEY_CTRL
                                    233 	.globl _SIF3
                                    234 	.globl _SBAUD3
                                    235 	.globl _SBUF3
                                    236 	.globl _SCON3
                                    237 	.globl _SIF2
                                    238 	.globl _SBAUD2
                                    239 	.globl _SBUF2
                                    240 	.globl _SCON2
                                    241 	.globl _SIF1
                                    242 	.globl _SBAUD1
                                    243 	.globl _SBUF1
                                    244 	.globl _SCON1
                                    245 	.globl _SPI0_SETUP
                                    246 	.globl _SPI0_CK_SE
                                    247 	.globl _SPI0_CTRL
                                    248 	.globl _SPI0_DATA
                                    249 	.globl _SPI0_STAT
                                    250 	.globl _PWM_DATA7
                                    251 	.globl _PWM_DATA6
                                    252 	.globl _PWM_DATA5
                                    253 	.globl _PWM_DATA4
                                    254 	.globl _PWM_DATA3
                                    255 	.globl _PWM_CTRL2
                                    256 	.globl _PWM_CK_SE
                                    257 	.globl _PWM_CTRL
                                    258 	.globl _PWM_DATA0
                                    259 	.globl _PWM_DATA1
                                    260 	.globl _PWM_DATA2
                                    261 	.globl _T2CAP1H
                                    262 	.globl _T2CAP1L
                                    263 	.globl _T2CAP1
                                    264 	.globl _TH2
                                    265 	.globl _TL2
                                    266 	.globl _T2COUNT
                                    267 	.globl _RCAP2H
                                    268 	.globl _RCAP2L
                                    269 	.globl _RCAP2
                                    270 	.globl _T2MOD
                                    271 	.globl _T2CON
                                    272 	.globl _T2CAP0H
                                    273 	.globl _T2CAP0L
                                    274 	.globl _T2CAP0
                                    275 	.globl _T2CON2
                                    276 	.globl _SBUF
                                    277 	.globl _SCON
                                    278 	.globl _TH1
                                    279 	.globl _TH0
                                    280 	.globl _TL1
                                    281 	.globl _TL0
                                    282 	.globl _TMOD
                                    283 	.globl _TCON
                                    284 	.globl _XBUS_AUX
                                    285 	.globl _PIN_FUNC
                                    286 	.globl _P5
                                    287 	.globl _P4_DIR_PU
                                    288 	.globl _P4_MOD_OC
                                    289 	.globl _P4
                                    290 	.globl _P3_DIR_PU
                                    291 	.globl _P3_MOD_OC
                                    292 	.globl _P3
                                    293 	.globl _P2_DIR_PU
                                    294 	.globl _P2_MOD_OC
                                    295 	.globl _P2
                                    296 	.globl _P1_DIR_PU
                                    297 	.globl _P1_MOD_OC
                                    298 	.globl _P1
                                    299 	.globl _P0_DIR_PU
                                    300 	.globl _P0_MOD_OC
                                    301 	.globl _P0
                                    302 	.globl _ROM_CTRL
                                    303 	.globl _ROM_DATA_HH
                                    304 	.globl _ROM_DATA_HL
                                    305 	.globl _ROM_DATA_HI
                                    306 	.globl _ROM_ADDR_H
                                    307 	.globl _ROM_ADDR_L
                                    308 	.globl _ROM_ADDR
                                    309 	.globl _GPIO_IE
                                    310 	.globl _INTX
                                    311 	.globl _IP_EX
                                    312 	.globl _IE_EX
                                    313 	.globl _IP
                                    314 	.globl _IE
                                    315 	.globl _WDOG_COUNT
                                    316 	.globl _RESET_KEEP
                                    317 	.globl _WAKE_CTRL
                                    318 	.globl _CLOCK_CFG
                                    319 	.globl _POWER_CFG
                                    320 	.globl _PCON
                                    321 	.globl _GLOBAL_CFG
                                    322 	.globl _SAFE_MOD
                                    323 	.globl _DPH
                                    324 	.globl _DPL
                                    325 	.globl _SP
                                    326 	.globl _A_INV
                                    327 	.globl _B
                                    328 	.globl _ACC
                                    329 	.globl _PSW
                                    330 	.globl _OLED_DrawBMP_PARM_5
                                    331 	.globl _OLED_DrawBMP_PARM_4
                                    332 	.globl _OLED_DrawBMP_PARM_3
                                    333 	.globl _OLED_DrawBMP_PARM_2
                                    334 	.globl _OLED_ShowCHinese_PARM_3
                                    335 	.globl _OLED_ShowCHinese_PARM_2
                                    336 	.globl _OLED_ShowString_PARM_3
                                    337 	.globl _OLED_ShowString_PARM_2
                                    338 	.globl _OLED_ShowChar_PARM_3
                                    339 	.globl _OLED_ShowChar_PARM_2
                                    340 	.globl _OLED_Set_Pos_PARM_2
                                    341 	.globl _load_commandList_PARM_2
                                    342 	.globl _OLED_WR_Byte_PARM_2
                                    343 	.globl _fontSize
                                    344 	.globl _setFontSize
                                    345 	.globl _delay_ms
                                    346 	.globl _OLED_WR_Byte
                                    347 	.globl _load_one_command
                                    348 	.globl _load_commandList
                                    349 	.globl _OLED_Init
                                    350 	.globl _OLED_Display_On
                                    351 	.globl _OLED_Display_Off
                                    352 	.globl _OLED_Clear
                                    353 	.globl _OLED_Set_Pos
                                    354 	.globl _OLED_ShowChar
                                    355 	.globl _OLED_ShowString
                                    356 	.globl _OLED_ShowCHinese
                                    357 	.globl _OLED_DrawBMP
                                    358 ;--------------------------------------------------------
                                    359 ; special function registers
                                    360 ;--------------------------------------------------------
                                    361 	.area RSEG    (ABS,DATA)
      000000                        362 	.org 0x0000
                           0000D0   363 _PSW	=	0x00d0
                           0000E0   364 _ACC	=	0x00e0
                           0000F0   365 _B	=	0x00f0
                           0000FD   366 _A_INV	=	0x00fd
                           000081   367 _SP	=	0x0081
                           000082   368 _DPL	=	0x0082
                           000083   369 _DPH	=	0x0083
                           0000A1   370 _SAFE_MOD	=	0x00a1
                           0000B1   371 _GLOBAL_CFG	=	0x00b1
                           000087   372 _PCON	=	0x0087
                           0000BA   373 _POWER_CFG	=	0x00ba
                           0000B9   374 _CLOCK_CFG	=	0x00b9
                           0000A9   375 _WAKE_CTRL	=	0x00a9
                           0000FE   376 _RESET_KEEP	=	0x00fe
                           0000FF   377 _WDOG_COUNT	=	0x00ff
                           0000A8   378 _IE	=	0x00a8
                           0000B8   379 _IP	=	0x00b8
                           0000E8   380 _IE_EX	=	0x00e8
                           0000E9   381 _IP_EX	=	0x00e9
                           0000B3   382 _INTX	=	0x00b3
                           0000B2   383 _GPIO_IE	=	0x00b2
                           008584   384 _ROM_ADDR	=	0x8584
                           000084   385 _ROM_ADDR_L	=	0x0084
                           000085   386 _ROM_ADDR_H	=	0x0085
                           008F8E   387 _ROM_DATA_HI	=	0x8f8e
                           00008E   388 _ROM_DATA_HL	=	0x008e
                           00008F   389 _ROM_DATA_HH	=	0x008f
                           000086   390 _ROM_CTRL	=	0x0086
                           000080   391 _P0	=	0x0080
                           0000C4   392 _P0_MOD_OC	=	0x00c4
                           0000C5   393 _P0_DIR_PU	=	0x00c5
                           000090   394 _P1	=	0x0090
                           000092   395 _P1_MOD_OC	=	0x0092
                           000093   396 _P1_DIR_PU	=	0x0093
                           0000A0   397 _P2	=	0x00a0
                           000094   398 _P2_MOD_OC	=	0x0094
                           000095   399 _P2_DIR_PU	=	0x0095
                           0000B0   400 _P3	=	0x00b0
                           000096   401 _P3_MOD_OC	=	0x0096
                           000097   402 _P3_DIR_PU	=	0x0097
                           0000C0   403 _P4	=	0x00c0
                           0000C2   404 _P4_MOD_OC	=	0x00c2
                           0000C3   405 _P4_DIR_PU	=	0x00c3
                           0000AB   406 _P5	=	0x00ab
                           0000AA   407 _PIN_FUNC	=	0x00aa
                           0000A2   408 _XBUS_AUX	=	0x00a2
                           000088   409 _TCON	=	0x0088
                           000089   410 _TMOD	=	0x0089
                           00008A   411 _TL0	=	0x008a
                           00008B   412 _TL1	=	0x008b
                           00008C   413 _TH0	=	0x008c
                           00008D   414 _TH1	=	0x008d
                           000098   415 _SCON	=	0x0098
                           000099   416 _SBUF	=	0x0099
                           0000C1   417 _T2CON2	=	0x00c1
                           00C7C6   418 _T2CAP0	=	0xc7c6
                           0000C6   419 _T2CAP0L	=	0x00c6
                           0000C7   420 _T2CAP0H	=	0x00c7
                           0000C8   421 _T2CON	=	0x00c8
                           0000C9   422 _T2MOD	=	0x00c9
                           00CBCA   423 _RCAP2	=	0xcbca
                           0000CA   424 _RCAP2L	=	0x00ca
                           0000CB   425 _RCAP2H	=	0x00cb
                           00CDCC   426 _T2COUNT	=	0xcdcc
                           0000CC   427 _TL2	=	0x00cc
                           0000CD   428 _TH2	=	0x00cd
                           00CFCE   429 _T2CAP1	=	0xcfce
                           0000CE   430 _T2CAP1L	=	0x00ce
                           0000CF   431 _T2CAP1H	=	0x00cf
                           00009A   432 _PWM_DATA2	=	0x009a
                           00009B   433 _PWM_DATA1	=	0x009b
                           00009C   434 _PWM_DATA0	=	0x009c
                           00009D   435 _PWM_CTRL	=	0x009d
                           00009E   436 _PWM_CK_SE	=	0x009e
                           00009F   437 _PWM_CTRL2	=	0x009f
                           0000A3   438 _PWM_DATA3	=	0x00a3
                           0000A4   439 _PWM_DATA4	=	0x00a4
                           0000A5   440 _PWM_DATA5	=	0x00a5
                           0000A6   441 _PWM_DATA6	=	0x00a6
                           0000A7   442 _PWM_DATA7	=	0x00a7
                           0000F8   443 _SPI0_STAT	=	0x00f8
                           0000F9   444 _SPI0_DATA	=	0x00f9
                           0000FA   445 _SPI0_CTRL	=	0x00fa
                           0000FB   446 _SPI0_CK_SE	=	0x00fb
                           0000FC   447 _SPI0_SETUP	=	0x00fc
                           0000BC   448 _SCON1	=	0x00bc
                           0000BD   449 _SBUF1	=	0x00bd
                           0000BE   450 _SBAUD1	=	0x00be
                           0000BF   451 _SIF1	=	0x00bf
                           0000B4   452 _SCON2	=	0x00b4
                           0000B5   453 _SBUF2	=	0x00b5
                           0000B6   454 _SBAUD2	=	0x00b6
                           0000B7   455 _SIF2	=	0x00b7
                           0000AC   456 _SCON3	=	0x00ac
                           0000AD   457 _SBUF3	=	0x00ad
                           0000AE   458 _SBAUD3	=	0x00ae
                           0000AF   459 _SIF3	=	0x00af
                           0000F1   460 _TKEY_CTRL	=	0x00f1
                           0000F2   461 _ADC_CTRL	=	0x00f2
                           0000F3   462 _ADC_CFG	=	0x00f3
                           00F5F4   463 _ADC_DAT	=	0xf5f4
                           0000F4   464 _ADC_DAT_L	=	0x00f4
                           0000F5   465 _ADC_DAT_H	=	0x00f5
                           0000F6   466 _ADC_CHAN	=	0x00f6
                           0000F7   467 _ADC_PIN	=	0x00f7
                           000091   468 _USB_C_CTRL	=	0x0091
                           0000D1   469 _UDEV_CTRL	=	0x00d1
                           0000D2   470 _UEP1_CTRL	=	0x00d2
                           0000D3   471 _UEP1_T_LEN	=	0x00d3
                           0000D4   472 _UEP2_CTRL	=	0x00d4
                           0000D5   473 _UEP2_T_LEN	=	0x00d5
                           0000D6   474 _UEP3_CTRL	=	0x00d6
                           0000D7   475 _UEP3_T_LEN	=	0x00d7
                           0000D8   476 _USB_INT_FG	=	0x00d8
                           0000D9   477 _USB_INT_ST	=	0x00d9
                           0000DA   478 _USB_MIS_ST	=	0x00da
                           0000DB   479 _USB_RX_LEN	=	0x00db
                           0000DC   480 _UEP0_CTRL	=	0x00dc
                           0000DD   481 _UEP0_T_LEN	=	0x00dd
                           0000DE   482 _UEP4_CTRL	=	0x00de
                           0000DF   483 _UEP4_T_LEN	=	0x00df
                           0000E1   484 _USB_INT_EN	=	0x00e1
                           0000E2   485 _USB_CTRL	=	0x00e2
                           0000E3   486 _USB_DEV_AD	=	0x00e3
                           00E5E4   487 _UEP2_DMA	=	0xe5e4
                           0000E4   488 _UEP2_DMA_L	=	0x00e4
                           0000E5   489 _UEP2_DMA_H	=	0x00e5
                           00E7E6   490 _UEP3_DMA	=	0xe7e6
                           0000E6   491 _UEP3_DMA_L	=	0x00e6
                           0000E7   492 _UEP3_DMA_H	=	0x00e7
                           0000EA   493 _UEP4_1_MOD	=	0x00ea
                           0000EB   494 _UEP2_3_MOD	=	0x00eb
                           00EDEC   495 _UEP0_DMA	=	0xedec
                           0000EC   496 _UEP0_DMA_L	=	0x00ec
                           0000ED   497 _UEP0_DMA_H	=	0x00ed
                           00EFEE   498 _UEP1_DMA	=	0xefee
                           0000EE   499 _UEP1_DMA_L	=	0x00ee
                           0000EF   500 _UEP1_DMA_H	=	0x00ef
                                    501 ;--------------------------------------------------------
                                    502 ; special function bits
                                    503 ;--------------------------------------------------------
                                    504 	.area RSEG    (ABS,DATA)
      000000                        505 	.org 0x0000
                           0000D7   506 _CY	=	0x00d7
                           0000D6   507 _AC	=	0x00d6
                           0000D5   508 _F0	=	0x00d5
                           0000D4   509 _RS1	=	0x00d4
                           0000D3   510 _RS0	=	0x00d3
                           0000D2   511 _OV	=	0x00d2
                           0000D1   512 _F1	=	0x00d1
                           0000D0   513 _P	=	0x00d0
                           0000AF   514 _EA	=	0x00af
                           0000AE   515 _E_DIS	=	0x00ae
                           0000AD   516 _ET2	=	0x00ad
                           0000AC   517 _ES	=	0x00ac
                           0000AB   518 _ET1	=	0x00ab
                           0000AA   519 _EX1	=	0x00aa
                           0000A9   520 _ET0	=	0x00a9
                           0000A8   521 _EX0	=	0x00a8
                           0000BF   522 _PH_FLAG	=	0x00bf
                           0000BE   523 _PL_FLAG	=	0x00be
                           0000BD   524 _PT2	=	0x00bd
                           0000BC   525 _PS	=	0x00bc
                           0000BB   526 _PT1	=	0x00bb
                           0000BA   527 _PX1	=	0x00ba
                           0000B9   528 _PT0	=	0x00b9
                           0000B8   529 _PX0	=	0x00b8
                           0000EF   530 _IE_WDOG	=	0x00ef
                           0000EE   531 _IE_GPIO	=	0x00ee
                           0000ED   532 _IE_PWMX	=	0x00ed
                           0000ED   533 _IE_UART3	=	0x00ed
                           0000EC   534 _IE_UART1	=	0x00ec
                           0000EB   535 _IE_ADC	=	0x00eb
                           0000EB   536 _IE_UART2	=	0x00eb
                           0000EA   537 _IE_USB	=	0x00ea
                           0000E9   538 _IE_INT3	=	0x00e9
                           0000E8   539 _IE_SPI0	=	0x00e8
                           000087   540 _P0_7	=	0x0087
                           000086   541 _P0_6	=	0x0086
                           000085   542 _P0_5	=	0x0085
                           000084   543 _P0_4	=	0x0084
                           000083   544 _P0_3	=	0x0083
                           000082   545 _P0_2	=	0x0082
                           000081   546 _P0_1	=	0x0081
                           000080   547 _P0_0	=	0x0080
                           000087   548 _TXD3	=	0x0087
                           000087   549 _AIN15	=	0x0087
                           000086   550 _RXD3	=	0x0086
                           000086   551 _AIN14	=	0x0086
                           000085   552 _TXD2	=	0x0085
                           000085   553 _AIN13	=	0x0085
                           000084   554 _RXD2	=	0x0084
                           000084   555 _AIN12	=	0x0084
                           000083   556 _TXD_	=	0x0083
                           000083   557 _AIN11	=	0x0083
                           000082   558 _RXD_	=	0x0082
                           000082   559 _AIN10	=	0x0082
                           000081   560 _AIN9	=	0x0081
                           000080   561 _AIN8	=	0x0080
                           000097   562 _P1_7	=	0x0097
                           000096   563 _P1_6	=	0x0096
                           000095   564 _P1_5	=	0x0095
                           000094   565 _P1_4	=	0x0094
                           000093   566 _P1_3	=	0x0093
                           000092   567 _P1_2	=	0x0092
                           000091   568 _P1_1	=	0x0091
                           000090   569 _P1_0	=	0x0090
                           000097   570 _SCK	=	0x0097
                           000097   571 _TXD1_	=	0x0097
                           000097   572 _AIN7	=	0x0097
                           000096   573 _MISO	=	0x0096
                           000096   574 _RXD1_	=	0x0096
                           000096   575 _VBUS	=	0x0096
                           000096   576 _AIN6	=	0x0096
                           000095   577 _MOSI	=	0x0095
                           000095   578 _PWM0_	=	0x0095
                           000095   579 _UCC2	=	0x0095
                           000095   580 _AIN5	=	0x0095
                           000094   581 _SCS	=	0x0094
                           000094   582 _UCC1	=	0x0094
                           000094   583 _AIN4	=	0x0094
                           000093   584 _AIN3	=	0x0093
                           000092   585 _AIN2	=	0x0092
                           000091   586 _T2EX	=	0x0091
                           000091   587 _CAP2	=	0x0091
                           000091   588 _AIN1	=	0x0091
                           000090   589 _T2	=	0x0090
                           000090   590 _CAP1	=	0x0090
                           000090   591 _AIN0	=	0x0090
                           0000A7   592 _P2_7	=	0x00a7
                           0000A6   593 _P2_6	=	0x00a6
                           0000A5   594 _P2_5	=	0x00a5
                           0000A4   595 _P2_4	=	0x00a4
                           0000A3   596 _P2_3	=	0x00a3
                           0000A2   597 _P2_2	=	0x00a2
                           0000A1   598 _P2_1	=	0x00a1
                           0000A0   599 _P2_0	=	0x00a0
                           0000A7   600 _PWM7	=	0x00a7
                           0000A7   601 _TXD1	=	0x00a7
                           0000A6   602 _PWM6	=	0x00a6
                           0000A6   603 _RXD1	=	0x00a6
                           0000A5   604 _PWM0	=	0x00a5
                           0000A5   605 _T2EX_	=	0x00a5
                           0000A5   606 _CAP2_	=	0x00a5
                           0000A4   607 _PWM1	=	0x00a4
                           0000A4   608 _T2_	=	0x00a4
                           0000A4   609 _CAP1_	=	0x00a4
                           0000A3   610 _PWM2	=	0x00a3
                           0000A2   611 _PWM3	=	0x00a2
                           0000A2   612 _INT0_	=	0x00a2
                           0000A1   613 _PWM4	=	0x00a1
                           0000A0   614 _PWM5	=	0x00a0
                           0000B7   615 _P3_7	=	0x00b7
                           0000B6   616 _P3_6	=	0x00b6
                           0000B5   617 _P3_5	=	0x00b5
                           0000B4   618 _P3_4	=	0x00b4
                           0000B3   619 _P3_3	=	0x00b3
                           0000B2   620 _P3_2	=	0x00b2
                           0000B1   621 _P3_1	=	0x00b1
                           0000B0   622 _P3_0	=	0x00b0
                           0000B7   623 _INT3	=	0x00b7
                           0000B6   624 _CAP0	=	0x00b6
                           0000B5   625 _T1	=	0x00b5
                           0000B4   626 _T0	=	0x00b4
                           0000B3   627 _INT1	=	0x00b3
                           0000B2   628 _INT0	=	0x00b2
                           0000B1   629 _TXD	=	0x00b1
                           0000B0   630 _RXD	=	0x00b0
                           0000C6   631 _P4_6	=	0x00c6
                           0000C5   632 _P4_5	=	0x00c5
                           0000C4   633 _P4_4	=	0x00c4
                           0000C3   634 _P4_3	=	0x00c3
                           0000C2   635 _P4_2	=	0x00c2
                           0000C1   636 _P4_1	=	0x00c1
                           0000C0   637 _P4_0	=	0x00c0
                           0000C7   638 _XO	=	0x00c7
                           0000C6   639 _XI	=	0x00c6
                           00008F   640 _TF1	=	0x008f
                           00008E   641 _TR1	=	0x008e
                           00008D   642 _TF0	=	0x008d
                           00008C   643 _TR0	=	0x008c
                           00008B   644 _IE1	=	0x008b
                           00008A   645 _IT1	=	0x008a
                           000089   646 _IE0	=	0x0089
                           000088   647 _IT0	=	0x0088
                           00009F   648 _SM0	=	0x009f
                           00009E   649 _SM1	=	0x009e
                           00009D   650 _SM2	=	0x009d
                           00009C   651 _REN	=	0x009c
                           00009B   652 _TB8	=	0x009b
                           00009A   653 _RB8	=	0x009a
                           000099   654 _TI	=	0x0099
                           000098   655 _RI	=	0x0098
                           0000CF   656 _TF2	=	0x00cf
                           0000CF   657 _CAP1F	=	0x00cf
                           0000CE   658 _EXF2	=	0x00ce
                           0000CD   659 _RCLK	=	0x00cd
                           0000CC   660 _TCLK	=	0x00cc
                           0000CB   661 _EXEN2	=	0x00cb
                           0000CA   662 _TR2	=	0x00ca
                           0000C9   663 _C_T2	=	0x00c9
                           0000C8   664 _CP_RL2	=	0x00c8
                           0000FF   665 _S0_FST_ACT	=	0x00ff
                           0000FE   666 _S0_IF_OV	=	0x00fe
                           0000FD   667 _S0_IF_FIRST	=	0x00fd
                           0000FC   668 _S0_IF_BYTE	=	0x00fc
                           0000FB   669 _S0_FREE	=	0x00fb
                           0000FA   670 _S0_T_FIFO	=	0x00fa
                           0000F8   671 _S0_R_FIFO	=	0x00f8
                           0000DF   672 _U_IS_NAK	=	0x00df
                           0000DE   673 _U_TOG_OK	=	0x00de
                           0000DD   674 _U_SIE_FREE	=	0x00dd
                           0000DC   675 _UIF_FIFO_OV	=	0x00dc
                           0000DB   676 _UIF_HST_SOF	=	0x00db
                           0000DA   677 _UIF_SUSPEND	=	0x00da
                           0000D9   678 _UIF_TRANSFER	=	0x00d9
                           0000D8   679 _UIF_DETECT	=	0x00d8
                           0000D8   680 _UIF_BUS_RST	=	0x00d8
                                    681 ;--------------------------------------------------------
                                    682 ; overlayable register banks
                                    683 ;--------------------------------------------------------
                                    684 	.area REG_BANK_0	(REL,OVR,DATA)
      000000                        685 	.ds 8
                                    686 ;--------------------------------------------------------
                                    687 ; internal ram data
                                    688 ;--------------------------------------------------------
                                    689 	.area DSEG    (DATA)
      000008                        690 _fontSize::
      000008                        691 	.ds 1
      000009                        692 _OLED_WR_Byte_PARM_2:
      000009                        693 	.ds 1
      00000A                        694 _load_commandList_PARM_2:
      00000A                        695 	.ds 1
      00000B                        696 _OLED_Set_Pos_PARM_2:
      00000B                        697 	.ds 1
      00000C                        698 _OLED_ShowChar_PARM_2:
      00000C                        699 	.ds 1
      00000D                        700 _OLED_ShowChar_PARM_3:
      00000D                        701 	.ds 1
      00000E                        702 _OLED_ShowString_PARM_2:
      00000E                        703 	.ds 1
      00000F                        704 _OLED_ShowString_PARM_3:
      00000F                        705 	.ds 3
      000012                        706 _OLED_ShowCHinese_PARM_2:
      000012                        707 	.ds 1
      000013                        708 _OLED_ShowCHinese_PARM_3:
      000013                        709 	.ds 1
      000014                        710 _OLED_DrawBMP_PARM_2:
      000014                        711 	.ds 1
      000015                        712 _OLED_DrawBMP_PARM_3:
      000015                        713 	.ds 1
      000016                        714 _OLED_DrawBMP_PARM_4:
      000016                        715 	.ds 1
      000017                        716 _OLED_DrawBMP_PARM_5:
      000017                        717 	.ds 3
      00001A                        718 _OLED_DrawBMP_x0_65536_103:
      00001A                        719 	.ds 1
      00001B                        720 _OLED_DrawBMP_x_65536_104:
      00001B                        721 	.ds 1
                                    722 ;--------------------------------------------------------
                                    723 ; overlayable items in internal ram 
                                    724 ;--------------------------------------------------------
                                    725 	.area	OSEG    (OVR,DATA)
                                    726 	.area	OSEG    (OVR,DATA)
                                    727 ;--------------------------------------------------------
                                    728 ; indirectly addressable internal ram data
                                    729 ;--------------------------------------------------------
                                    730 	.area ISEG    (DATA)
                                    731 ;--------------------------------------------------------
                                    732 ; absolute internal ram data
                                    733 ;--------------------------------------------------------
                                    734 	.area IABS    (ABS,DATA)
                                    735 	.area IABS    (ABS,DATA)
                                    736 ;--------------------------------------------------------
                                    737 ; bit data
                                    738 ;--------------------------------------------------------
                                    739 	.area BSEG    (BIT)
                                    740 ;--------------------------------------------------------
                                    741 ; paged external ram data
                                    742 ;--------------------------------------------------------
                                    743 	.area PSEG    (PAG,XDATA)
                                    744 ;--------------------------------------------------------
                                    745 ; external ram data
                                    746 ;--------------------------------------------------------
                                    747 	.area XSEG    (XDATA)
                                    748 ;--------------------------------------------------------
                                    749 ; absolute external ram data
                                    750 ;--------------------------------------------------------
                                    751 	.area XABS    (ABS,XDATA)
                                    752 ;--------------------------------------------------------
                                    753 ; external initialized ram data
                                    754 ;--------------------------------------------------------
                                    755 	.area XISEG   (XDATA)
                                    756 	.area HOME    (CODE)
                                    757 	.area GSINIT0 (CODE)
                                    758 	.area GSINIT1 (CODE)
                                    759 	.area GSINIT2 (CODE)
                                    760 	.area GSINIT3 (CODE)
                                    761 	.area GSINIT4 (CODE)
                                    762 	.area GSINIT5 (CODE)
                                    763 	.area GSINIT  (CODE)
                                    764 	.area GSFINAL (CODE)
                                    765 	.area CSEG    (CODE)
                                    766 ;--------------------------------------------------------
                                    767 ; global & static initialisations
                                    768 ;--------------------------------------------------------
                                    769 	.area HOME    (CODE)
                                    770 	.area GSINIT  (CODE)
                                    771 	.area GSFINAL (CODE)
                                    772 	.area GSINIT  (CODE)
                                    773 ;--------------------------------------------------------
                                    774 ; Home
                                    775 ;--------------------------------------------------------
                                    776 	.area HOME    (CODE)
                                    777 	.area HOME    (CODE)
                                    778 ;--------------------------------------------------------
                                    779 ; code
                                    780 ;--------------------------------------------------------
                                    781 	.area CSEG    (CODE)
                                    782 ;------------------------------------------------------------
                                    783 ;Allocation info for local variables in function 'setFontSize'
                                    784 ;------------------------------------------------------------
                                    785 ;size                      Allocated to registers 
                                    786 ;------------------------------------------------------------
                                    787 ;	source/CH549_OLED.c:18: void setFontSize(u8 size){
                                    788 ;	-----------------------------------------
                                    789 ;	 function setFontSize
                                    790 ;	-----------------------------------------
      000094                        791 _setFontSize:
                           000007   792 	ar7 = 0x07
                           000006   793 	ar6 = 0x06
                           000005   794 	ar5 = 0x05
                           000004   795 	ar4 = 0x04
                           000003   796 	ar3 = 0x03
                           000002   797 	ar2 = 0x02
                           000001   798 	ar1 = 0x01
                           000000   799 	ar0 = 0x00
      000094 85 82 08         [24]  800 	mov	_fontSize,dpl
                                    801 ;	source/CH549_OLED.c:19: fontSize = size;
                                    802 ;	source/CH549_OLED.c:20: }
      000097 22               [24]  803 	ret
                                    804 ;------------------------------------------------------------
                                    805 ;Allocation info for local variables in function 'delay_ms'
                                    806 ;------------------------------------------------------------
                                    807 ;ms                        Allocated to registers 
                                    808 ;a                         Allocated to registers r4 r5 
                                    809 ;------------------------------------------------------------
                                    810 ;	source/CH549_OLED.c:23: void delay_ms(unsigned int ms)
                                    811 ;	-----------------------------------------
                                    812 ;	 function delay_ms
                                    813 ;	-----------------------------------------
      000098                        814 _delay_ms:
      000098 AE 82            [24]  815 	mov	r6,dpl
      00009A AF 83            [24]  816 	mov	r7,dph
                                    817 ;	source/CH549_OLED.c:26: while(ms)
      00009C                        818 00104$:
      00009C EE               [12]  819 	mov	a,r6
      00009D 4F               [12]  820 	orl	a,r7
      00009E 60 18            [24]  821 	jz	00106$
                                    822 ;	source/CH549_OLED.c:29: while(a--);
      0000A0 7C 08            [12]  823 	mov	r4,#0x08
      0000A2 7D 07            [12]  824 	mov	r5,#0x07
      0000A4                        825 00101$:
      0000A4 8C 02            [24]  826 	mov	ar2,r4
      0000A6 8D 03            [24]  827 	mov	ar3,r5
      0000A8 1C               [12]  828 	dec	r4
      0000A9 BC FF 01         [24]  829 	cjne	r4,#0xff,00128$
      0000AC 1D               [12]  830 	dec	r5
      0000AD                        831 00128$:
      0000AD EA               [12]  832 	mov	a,r2
      0000AE 4B               [12]  833 	orl	a,r3
      0000AF 70 F3            [24]  834 	jnz	00101$
                                    835 ;	source/CH549_OLED.c:30: ms--;
      0000B1 1E               [12]  836 	dec	r6
      0000B2 BE FF 01         [24]  837 	cjne	r6,#0xff,00130$
      0000B5 1F               [12]  838 	dec	r7
      0000B6                        839 00130$:
      0000B6 80 E4            [24]  840 	sjmp	00104$
      0000B8                        841 00106$:
                                    842 ;	source/CH549_OLED.c:32: return;
                                    843 ;	source/CH549_OLED.c:33: }
      0000B8 22               [24]  844 	ret
                                    845 ;------------------------------------------------------------
                                    846 ;Allocation info for local variables in function 'OLED_WR_Byte'
                                    847 ;------------------------------------------------------------
                                    848 ;cmd                       Allocated with name '_OLED_WR_Byte_PARM_2'
                                    849 ;dat                       Allocated to registers r7 
                                    850 ;------------------------------------------------------------
                                    851 ;	source/CH549_OLED.c:39: void OLED_WR_Byte(u8 dat,u8 cmd)
                                    852 ;	-----------------------------------------
                                    853 ;	 function OLED_WR_Byte
                                    854 ;	-----------------------------------------
      0000B9                        855 _OLED_WR_Byte:
      0000B9 AF 82            [24]  856 	mov	r7,dpl
                                    857 ;	source/CH549_OLED.c:42: if(cmd)	OLED_MODE_DATA(); 	//命令模式
      0000BB E5 09            [12]  858 	mov	a,_OLED_WR_Byte_PARM_2
      0000BD 60 04            [24]  859 	jz	00102$
                                    860 ;	assignBit
      0000BF D2 A7            [12]  861 	setb	_P2_7
      0000C1 80 02            [24]  862 	sjmp	00103$
      0000C3                        863 00102$:
                                    864 ;	source/CH549_OLED.c:43: else 	OLED_MODE_COMMAND(); 	//数据模式
                                    865 ;	assignBit
      0000C3 C2 A7            [12]  866 	clr	_P2_7
      0000C5                        867 00103$:
                                    868 ;	source/CH549_OLED.c:44: OLED_SELECT();			    //片选设置为0,设备选择
                                    869 ;	assignBit
      0000C5 C2 94            [12]  870 	clr	_P1_4
                                    871 ;	source/CH549_OLED.c:45: CH549SPIMasterWrite(dat);       //使用CH549的官方函数写入8位数据
      0000C7 8F 82            [24]  872 	mov	dpl,r7
      0000C9 12 05 2B         [24]  873 	lcall	_CH549SPIMasterWrite
                                    874 ;	source/CH549_OLED.c:46: OLED_DESELECT();			    //片选设置为1,取消设备选择
                                    875 ;	assignBit
      0000CC D2 94            [12]  876 	setb	_P1_4
                                    877 ;	source/CH549_OLED.c:47: OLED_MODE_DATA();   	  	    //转为数据模式
                                    878 ;	assignBit
      0000CE D2 A7            [12]  879 	setb	_P2_7
                                    880 ;	source/CH549_OLED.c:60: } 
      0000D0 22               [24]  881 	ret
                                    882 ;------------------------------------------------------------
                                    883 ;Allocation info for local variables in function 'load_one_command'
                                    884 ;------------------------------------------------------------
                                    885 ;c                         Allocated to registers 
                                    886 ;------------------------------------------------------------
                                    887 ;	source/CH549_OLED.c:62: void load_one_command(u8 c){
                                    888 ;	-----------------------------------------
                                    889 ;	 function load_one_command
                                    890 ;	-----------------------------------------
      0000D1                        891 _load_one_command:
                                    892 ;	source/CH549_OLED.c:63: OLED_WR_Byte(c,OLED_CMD);
      0000D1 75 09 00         [24]  893 	mov	_OLED_WR_Byte_PARM_2,#0x00
                                    894 ;	source/CH549_OLED.c:64: }
      0000D4 02 00 B9         [24]  895 	ljmp	_OLED_WR_Byte
                                    896 ;------------------------------------------------------------
                                    897 ;Allocation info for local variables in function 'load_commandList'
                                    898 ;------------------------------------------------------------
                                    899 ;n                         Allocated with name '_load_commandList_PARM_2'
                                    900 ;c                         Allocated to registers 
                                    901 ;------------------------------------------------------------
                                    902 ;	source/CH549_OLED.c:66: void load_commandList(const u8 *c, u8 n){
                                    903 ;	-----------------------------------------
                                    904 ;	 function load_commandList
                                    905 ;	-----------------------------------------
      0000D7                        906 _load_commandList:
      0000D7 AD 82            [24]  907 	mov	r5,dpl
      0000D9 AE 83            [24]  908 	mov	r6,dph
      0000DB AF F0            [24]  909 	mov	r7,b
                                    910 ;	source/CH549_OLED.c:67: while (n--) 
      0000DD AC 0A            [24]  911 	mov	r4,_load_commandList_PARM_2
      0000DF                        912 00101$:
      0000DF 8C 03            [24]  913 	mov	ar3,r4
      0000E1 1C               [12]  914 	dec	r4
      0000E2 EB               [12]  915 	mov	a,r3
      0000E3 60 29            [24]  916 	jz	00104$
                                    917 ;	source/CH549_OLED.c:68: OLED_WR_Byte(pgm_read_byte(c++),OLED_CMD);
      0000E5 8D 82            [24]  918 	mov	dpl,r5
      0000E7 8E 83            [24]  919 	mov	dph,r6
      0000E9 8F F0            [24]  920 	mov	b,r7
      0000EB 12 05 60         [24]  921 	lcall	__gptrget
      0000EE FB               [12]  922 	mov	r3,a
      0000EF A3               [24]  923 	inc	dptr
      0000F0 AD 82            [24]  924 	mov	r5,dpl
      0000F2 AE 83            [24]  925 	mov	r6,dph
      0000F4 75 09 00         [24]  926 	mov	_OLED_WR_Byte_PARM_2,#0x00
      0000F7 8B 82            [24]  927 	mov	dpl,r3
      0000F9 C0 07            [24]  928 	push	ar7
      0000FB C0 06            [24]  929 	push	ar6
      0000FD C0 05            [24]  930 	push	ar5
      0000FF C0 04            [24]  931 	push	ar4
      000101 12 00 B9         [24]  932 	lcall	_OLED_WR_Byte
      000104 D0 04            [24]  933 	pop	ar4
      000106 D0 05            [24]  934 	pop	ar5
      000108 D0 06            [24]  935 	pop	ar6
      00010A D0 07            [24]  936 	pop	ar7
      00010C 80 D1            [24]  937 	sjmp	00101$
      00010E                        938 00104$:
                                    939 ;	source/CH549_OLED.c:70: }
      00010E 22               [24]  940 	ret
                                    941 ;------------------------------------------------------------
                                    942 ;Allocation info for local variables in function 'OLED_Init'
                                    943 ;------------------------------------------------------------
                                    944 ;	source/CH549_OLED.c:73: void OLED_Init(void)
                                    945 ;	-----------------------------------------
                                    946 ;	 function OLED_Init
                                    947 ;	-----------------------------------------
      00010F                        948 _OLED_Init:
                                    949 ;	source/CH549_OLED.c:76: OLED_RST_Set();
                                    950 ;	assignBit
      00010F D2 B5            [12]  951 	setb	_P3_5
                                    952 ;	source/CH549_OLED.c:77: delay_ms(100);
      000111 90 00 64         [24]  953 	mov	dptr,#0x0064
      000114 12 00 98         [24]  954 	lcall	_delay_ms
                                    955 ;	source/CH549_OLED.c:78: OLED_RST_Clr();
                                    956 ;	assignBit
      000117 C2 B5            [12]  957 	clr	_P3_5
                                    958 ;	source/CH549_OLED.c:79: delay_ms(100);
      000119 90 00 64         [24]  959 	mov	dptr,#0x0064
      00011C 12 00 98         [24]  960 	lcall	_delay_ms
                                    961 ;	source/CH549_OLED.c:80: OLED_RST_Set(); 
                                    962 ;	assignBit
      00011F D2 B5            [12]  963 	setb	_P3_5
                                    964 ;	source/CH549_OLED.c:116: load_commandList(init_commandList, sizeof(init_commandList));
      000121 75 0A 19         [24]  965 	mov	_load_commandList_PARM_2,#0x19
      000124 90 1F 72         [24]  966 	mov	dptr,#_OLED_Init_init_commandList_65537_73
      000127 75 F0 80         [24]  967 	mov	b,#0x80
      00012A 12 00 D7         [24]  968 	lcall	_load_commandList
                                    969 ;	source/CH549_OLED.c:118: OLED_Clear();
      00012D 12 01 5D         [24]  970 	lcall	_OLED_Clear
                                    971 ;	source/CH549_OLED.c:119: OLED_Set_Pos(0,0); 	
      000130 75 0B 00         [24]  972 	mov	_OLED_Set_Pos_PARM_2,#0x00
      000133 75 82 00         [24]  973 	mov	dpl,#0x00
                                    974 ;	source/CH549_OLED.c:120: }
      000136 02 01 99         [24]  975 	ljmp	_OLED_Set_Pos
                                    976 ;------------------------------------------------------------
                                    977 ;Allocation info for local variables in function 'OLED_Display_On'
                                    978 ;------------------------------------------------------------
                                    979 ;	source/CH549_OLED.c:123: void OLED_Display_On(void)
                                    980 ;	-----------------------------------------
                                    981 ;	 function OLED_Display_On
                                    982 ;	-----------------------------------------
      000139                        983 _OLED_Display_On:
                                    984 ;	source/CH549_OLED.c:125: load_one_command(SSD1306_CHARGEPUMP);	//SET DCDC命令
      000139 75 82 8D         [24]  985 	mov	dpl,#0x8d
      00013C 12 00 D1         [24]  986 	lcall	_load_one_command
                                    987 ;	source/CH549_OLED.c:126: load_one_command(SSD1306_0x10DISABLE);	//DCDC ON
      00013F 75 82 14         [24]  988 	mov	dpl,#0x14
      000142 12 00 D1         [24]  989 	lcall	_load_one_command
                                    990 ;	source/CH549_OLED.c:127: load_one_command(SSD1306_DISPLAYON);	//DISPLAY ON
      000145 75 82 AF         [24]  991 	mov	dpl,#0xaf
                                    992 ;	source/CH549_OLED.c:128: }
      000148 02 00 D1         [24]  993 	ljmp	_load_one_command
                                    994 ;------------------------------------------------------------
                                    995 ;Allocation info for local variables in function 'OLED_Display_Off'
                                    996 ;------------------------------------------------------------
                                    997 ;	source/CH549_OLED.c:131: void OLED_Display_Off(void)
                                    998 ;	-----------------------------------------
                                    999 ;	 function OLED_Display_Off
                                   1000 ;	-----------------------------------------
      00014B                       1001 _OLED_Display_Off:
                                   1002 ;	source/CH549_OLED.c:133: load_one_command(SSD1306_CHARGEPUMP);	//SET DCDC命令
      00014B 75 82 8D         [24] 1003 	mov	dpl,#0x8d
      00014E 12 00 D1         [24] 1004 	lcall	_load_one_command
                                   1005 ;	source/CH549_OLED.c:134: load_one_command(SSD1306_SETHIGHCOLUMN);	//DCDC OFF
      000151 75 82 10         [24] 1006 	mov	dpl,#0x10
      000154 12 00 D1         [24] 1007 	lcall	_load_one_command
                                   1008 ;	source/CH549_OLED.c:135: load_one_command(0XAE);	//DISPLAY OFF
      000157 75 82 AE         [24] 1009 	mov	dpl,#0xae
                                   1010 ;	source/CH549_OLED.c:136: }	
      00015A 02 00 D1         [24] 1011 	ljmp	_load_one_command
                                   1012 ;------------------------------------------------------------
                                   1013 ;Allocation info for local variables in function 'OLED_Clear'
                                   1014 ;------------------------------------------------------------
                                   1015 ;i                         Allocated to registers r7 
                                   1016 ;n                         Allocated to registers r6 
                                   1017 ;------------------------------------------------------------
                                   1018 ;	source/CH549_OLED.c:139: void OLED_Clear(void)
                                   1019 ;	-----------------------------------------
                                   1020 ;	 function OLED_Clear
                                   1021 ;	-----------------------------------------
      00015D                       1022 _OLED_Clear:
                                   1023 ;	source/CH549_OLED.c:142: for(i=0;i<8;i++)  
      00015D 7F 00            [12] 1024 	mov	r7,#0x00
      00015F                       1025 00105$:
                                   1026 ;	source/CH549_OLED.c:144: load_one_command(0xb0+i);	//设置页地址（0~7）
      00015F 8F 06            [24] 1027 	mov	ar6,r7
      000161 74 B0            [12] 1028 	mov	a,#0xb0
      000163 2E               [12] 1029 	add	a,r6
      000164 F5 82            [12] 1030 	mov	dpl,a
      000166 C0 07            [24] 1031 	push	ar7
      000168 12 00 D1         [24] 1032 	lcall	_load_one_command
                                   1033 ;	source/CH549_OLED.c:145: load_one_command(SSD1306_SETLOWCOLUMN);		//设置显示位置—列低地址
      00016B 75 82 00         [24] 1034 	mov	dpl,#0x00
      00016E 12 00 D1         [24] 1035 	lcall	_load_one_command
                                   1036 ;	source/CH549_OLED.c:146: load_one_command(SSD1306_SETHIGHCOLUMN);		//设置显示位置—列高地址 
      000171 75 82 10         [24] 1037 	mov	dpl,#0x10
      000174 12 00 D1         [24] 1038 	lcall	_load_one_command
      000177 D0 07            [24] 1039 	pop	ar7
                                   1040 ;	source/CH549_OLED.c:148: for(n=0;n<128;n++)OLED_WR_Byte(0,OLED_DATA); 
      000179 7E 00            [12] 1041 	mov	r6,#0x00
      00017B                       1042 00103$:
      00017B 75 09 01         [24] 1043 	mov	_OLED_WR_Byte_PARM_2,#0x01
      00017E 75 82 00         [24] 1044 	mov	dpl,#0x00
      000181 C0 07            [24] 1045 	push	ar7
      000183 C0 06            [24] 1046 	push	ar6
      000185 12 00 B9         [24] 1047 	lcall	_OLED_WR_Byte
      000188 D0 06            [24] 1048 	pop	ar6
      00018A D0 07            [24] 1049 	pop	ar7
      00018C 0E               [12] 1050 	inc	r6
      00018D BE 80 00         [24] 1051 	cjne	r6,#0x80,00123$
      000190                       1052 00123$:
      000190 40 E9            [24] 1053 	jc	00103$
                                   1054 ;	source/CH549_OLED.c:142: for(i=0;i<8;i++)  
      000192 0F               [12] 1055 	inc	r7
      000193 BF 08 00         [24] 1056 	cjne	r7,#0x08,00125$
      000196                       1057 00125$:
      000196 40 C7            [24] 1058 	jc	00105$
                                   1059 ;	source/CH549_OLED.c:150: }
      000198 22               [24] 1060 	ret
                                   1061 ;------------------------------------------------------------
                                   1062 ;Allocation info for local variables in function 'OLED_Set_Pos'
                                   1063 ;------------------------------------------------------------
                                   1064 ;row_index                 Allocated with name '_OLED_Set_Pos_PARM_2'
                                   1065 ;col_index                 Allocated to registers r7 
                                   1066 ;------------------------------------------------------------
                                   1067 ;	source/CH549_OLED.c:157: void OLED_Set_Pos(unsigned char col_index, unsigned char row_index) 
                                   1068 ;	-----------------------------------------
                                   1069 ;	 function OLED_Set_Pos
                                   1070 ;	-----------------------------------------
      000199                       1071 _OLED_Set_Pos:
      000199 AF 82            [24] 1072 	mov	r7,dpl
                                   1073 ;	source/CH549_OLED.c:159: load_one_command(0xb0+row_index);
      00019B AE 0B            [24] 1074 	mov	r6,_OLED_Set_Pos_PARM_2
      00019D 74 B0            [12] 1075 	mov	a,#0xb0
      00019F 2E               [12] 1076 	add	a,r6
      0001A0 F5 82            [12] 1077 	mov	dpl,a
      0001A2 C0 07            [24] 1078 	push	ar7
      0001A4 12 00 D1         [24] 1079 	lcall	_load_one_command
      0001A7 D0 07            [24] 1080 	pop	ar7
                                   1081 ;	source/CH549_OLED.c:160: load_one_command(((col_index&0xf0)>>4)|SSD1306_SETHIGHCOLUMN);
      0001A9 8F 05            [24] 1082 	mov	ar5,r7
      0001AB 53 05 F0         [24] 1083 	anl	ar5,#0xf0
      0001AE E4               [12] 1084 	clr	a
      0001AF C4               [12] 1085 	swap	a
      0001B0 CD               [12] 1086 	xch	a,r5
      0001B1 C4               [12] 1087 	swap	a
      0001B2 54 0F            [12] 1088 	anl	a,#0x0f
      0001B4 6D               [12] 1089 	xrl	a,r5
      0001B5 CD               [12] 1090 	xch	a,r5
      0001B6 54 0F            [12] 1091 	anl	a,#0x0f
      0001B8 CD               [12] 1092 	xch	a,r5
      0001B9 6D               [12] 1093 	xrl	a,r5
      0001BA CD               [12] 1094 	xch	a,r5
      0001BB 30 E3 02         [24] 1095 	jnb	acc.3,00103$
      0001BE 44 F0            [12] 1096 	orl	a,#0xf0
      0001C0                       1097 00103$:
      0001C0 74 10            [12] 1098 	mov	a,#0x10
      0001C2 4D               [12] 1099 	orl	a,r5
      0001C3 F5 82            [12] 1100 	mov	dpl,a
      0001C5 C0 07            [24] 1101 	push	ar7
      0001C7 12 00 D1         [24] 1102 	lcall	_load_one_command
      0001CA D0 07            [24] 1103 	pop	ar7
                                   1104 ;	source/CH549_OLED.c:161: load_one_command((col_index&0x0f)|0x01);
      0001CC 74 0F            [12] 1105 	mov	a,#0x0f
      0001CE 5F               [12] 1106 	anl	a,r7
      0001CF 44 01            [12] 1107 	orl	a,#0x01
      0001D1 F5 82            [12] 1108 	mov	dpl,a
                                   1109 ;	source/CH549_OLED.c:162: }  
      0001D3 02 00 D1         [24] 1110 	ljmp	_load_one_command
                                   1111 ;------------------------------------------------------------
                                   1112 ;Allocation info for local variables in function 'OLED_ShowChar'
                                   1113 ;------------------------------------------------------------
                                   1114 ;row_index                 Allocated with name '_OLED_ShowChar_PARM_2'
                                   1115 ;chr                       Allocated with name '_OLED_ShowChar_PARM_3'
                                   1116 ;col_index                 Allocated to registers r7 
                                   1117 ;char_index                Allocated to registers r6 
                                   1118 ;i                         Allocated to registers r5 
                                   1119 ;------------------------------------------------------------
                                   1120 ;	source/CH549_OLED.c:167: void OLED_ShowChar(u8 col_index, u8 row_index, u8 chr)
                                   1121 ;	-----------------------------------------
                                   1122 ;	 function OLED_ShowChar
                                   1123 ;	-----------------------------------------
      0001D6                       1124 _OLED_ShowChar:
      0001D6 AF 82            [24] 1125 	mov	r7,dpl
                                   1126 ;	source/CH549_OLED.c:170: char_index = chr - ' ';	//将希望输入的字符的ascii码减去空格的ascii码，得到偏移后的值	因为在ascii码中space之前的字符并不能显示出来，字库里面不会有他们，减去一个空格相当于从空格往后开始数		
      0001D8 E5 0D            [12] 1127 	mov	a,_OLED_ShowChar_PARM_3
      0001DA 24 E0            [12] 1128 	add	a,#0xe0
      0001DC FE               [12] 1129 	mov	r6,a
                                   1130 ;	source/CH549_OLED.c:172: if (col_index > Max_Column - 1) {
      0001DD EF               [12] 1131 	mov	a,r7
      0001DE 24 80            [12] 1132 	add	a,#0xff - 0x7f
      0001E0 50 09            [24] 1133 	jnc	00102$
                                   1134 ;	source/CH549_OLED.c:173: col_index = 0;
      0001E2 7F 00            [12] 1135 	mov	r7,#0x00
                                   1136 ;	source/CH549_OLED.c:174: row_index = row_index + 2;
      0001E4 AD 0C            [24] 1137 	mov	r5,_OLED_ShowChar_PARM_2
      0001E6 74 02            [12] 1138 	mov	a,#0x02
      0001E8 2D               [12] 1139 	add	a,r5
      0001E9 F5 0C            [12] 1140 	mov	_OLED_ShowChar_PARM_2,a
      0001EB                       1141 00102$:
                                   1142 ;	source/CH549_OLED.c:177: if (fontSize == 16) {
      0001EB 74 10            [12] 1143 	mov	a,#0x10
      0001ED B5 08 02         [24] 1144 	cjne	a,_fontSize,00149$
      0001F0 80 03            [24] 1145 	sjmp	00150$
      0001F2                       1146 00149$:
      0001F2 02 02 9D         [24] 1147 	ljmp	00107$
      0001F5                       1148 00150$:
                                   1149 ;	source/CH549_OLED.c:178: OLED_Set_Pos(col_index, row_index);	
      0001F5 85 0C 0B         [24] 1150 	mov	_OLED_Set_Pos_PARM_2,_OLED_ShowChar_PARM_2
      0001F8 8F 82            [24] 1151 	mov	dpl,r7
      0001FA C0 07            [24] 1152 	push	ar7
      0001FC C0 06            [24] 1153 	push	ar6
      0001FE 12 01 99         [24] 1154 	lcall	_OLED_Set_Pos
      000201 D0 06            [24] 1155 	pop	ar6
      000203 D0 07            [24] 1156 	pop	ar7
                                   1157 ;	source/CH549_OLED.c:179: for (i = 0; i < 8; i++)
      000205 7D 00            [12] 1158 	mov	r5,#0x00
      000207                       1159 00109$:
                                   1160 ;	source/CH549_OLED.c:180: OLED_WR_Byte(fontMatrix_8x16[char_index * 16 + i], OLED_DATA); //通过DATA模式写入矩阵数据就是在点亮特定的像素点
      000207 8E 03            [24] 1161 	mov	ar3,r6
      000209 E4               [12] 1162 	clr	a
      00020A C4               [12] 1163 	swap	a
      00020B 54 F0            [12] 1164 	anl	a,#0xf0
      00020D CB               [12] 1165 	xch	a,r3
      00020E C4               [12] 1166 	swap	a
      00020F CB               [12] 1167 	xch	a,r3
      000210 6B               [12] 1168 	xrl	a,r3
      000211 CB               [12] 1169 	xch	a,r3
      000212 54 F0            [12] 1170 	anl	a,#0xf0
      000214 CB               [12] 1171 	xch	a,r3
      000215 6B               [12] 1172 	xrl	a,r3
      000216 FC               [12] 1173 	mov	r4,a
      000217 8D 01            [24] 1174 	mov	ar1,r5
      000219 7A 00            [12] 1175 	mov	r2,#0x00
      00021B E9               [12] 1176 	mov	a,r1
      00021C 2B               [12] 1177 	add	a,r3
      00021D F9               [12] 1178 	mov	r1,a
      00021E EA               [12] 1179 	mov	a,r2
      00021F 3C               [12] 1180 	addc	a,r4
      000220 FA               [12] 1181 	mov	r2,a
      000221 E9               [12] 1182 	mov	a,r1
      000222 24 C2            [12] 1183 	add	a,#_fontMatrix_8x16
      000224 F5 82            [12] 1184 	mov	dpl,a
      000226 EA               [12] 1185 	mov	a,r2
      000227 34 17            [12] 1186 	addc	a,#(_fontMatrix_8x16 >> 8)
      000229 F5 83            [12] 1187 	mov	dph,a
      00022B E4               [12] 1188 	clr	a
      00022C 93               [24] 1189 	movc	a,@a+dptr
      00022D FA               [12] 1190 	mov	r2,a
      00022E 75 09 01         [24] 1191 	mov	_OLED_WR_Byte_PARM_2,#0x01
      000231 8A 82            [24] 1192 	mov	dpl,r2
      000233 C0 07            [24] 1193 	push	ar7
      000235 C0 06            [24] 1194 	push	ar6
      000237 C0 05            [24] 1195 	push	ar5
      000239 C0 04            [24] 1196 	push	ar4
      00023B C0 03            [24] 1197 	push	ar3
      00023D 12 00 B9         [24] 1198 	lcall	_OLED_WR_Byte
      000240 D0 03            [24] 1199 	pop	ar3
      000242 D0 04            [24] 1200 	pop	ar4
      000244 D0 05            [24] 1201 	pop	ar5
      000246 D0 06            [24] 1202 	pop	ar6
      000248 D0 07            [24] 1203 	pop	ar7
                                   1204 ;	source/CH549_OLED.c:179: for (i = 0; i < 8; i++)
      00024A 0D               [12] 1205 	inc	r5
      00024B BD 08 00         [24] 1206 	cjne	r5,#0x08,00151$
      00024E                       1207 00151$:
      00024E 40 B7            [24] 1208 	jc	00109$
                                   1209 ;	source/CH549_OLED.c:181: OLED_Set_Pos(col_index, row_index + 1);
      000250 E5 0C            [12] 1210 	mov	a,_OLED_ShowChar_PARM_2
      000252 04               [12] 1211 	inc	a
      000253 F5 0B            [12] 1212 	mov	_OLED_Set_Pos_PARM_2,a
      000255 8F 82            [24] 1213 	mov	dpl,r7
      000257 C0 04            [24] 1214 	push	ar4
      000259 C0 03            [24] 1215 	push	ar3
      00025B 12 01 99         [24] 1216 	lcall	_OLED_Set_Pos
      00025E D0 03            [24] 1217 	pop	ar3
      000260 D0 04            [24] 1218 	pop	ar4
                                   1219 ;	source/CH549_OLED.c:182: for (i = 0; i < 8; i++)
      000262 7D 00            [12] 1220 	mov	r5,#0x00
      000264                       1221 00111$:
                                   1222 ;	source/CH549_OLED.c:183: OLED_WR_Byte(fontMatrix_8x16[char_index * 16 + i + 8], OLED_DATA);
      000264 8D 01            [24] 1223 	mov	ar1,r5
      000266 7A 00            [12] 1224 	mov	r2,#0x00
      000268 E9               [12] 1225 	mov	a,r1
      000269 2B               [12] 1226 	add	a,r3
      00026A F9               [12] 1227 	mov	r1,a
      00026B EA               [12] 1228 	mov	a,r2
      00026C 3C               [12] 1229 	addc	a,r4
      00026D FA               [12] 1230 	mov	r2,a
      00026E 74 08            [12] 1231 	mov	a,#0x08
      000270 29               [12] 1232 	add	a,r1
      000271 F9               [12] 1233 	mov	r1,a
      000272 E4               [12] 1234 	clr	a
      000273 3A               [12] 1235 	addc	a,r2
      000274 FA               [12] 1236 	mov	r2,a
      000275 E9               [12] 1237 	mov	a,r1
      000276 24 C2            [12] 1238 	add	a,#_fontMatrix_8x16
      000278 F5 82            [12] 1239 	mov	dpl,a
      00027A EA               [12] 1240 	mov	a,r2
      00027B 34 17            [12] 1241 	addc	a,#(_fontMatrix_8x16 >> 8)
      00027D F5 83            [12] 1242 	mov	dph,a
      00027F E4               [12] 1243 	clr	a
      000280 93               [24] 1244 	movc	a,@a+dptr
      000281 FA               [12] 1245 	mov	r2,a
      000282 75 09 01         [24] 1246 	mov	_OLED_WR_Byte_PARM_2,#0x01
      000285 8A 82            [24] 1247 	mov	dpl,r2
      000287 C0 05            [24] 1248 	push	ar5
      000289 C0 04            [24] 1249 	push	ar4
      00028B C0 03            [24] 1250 	push	ar3
      00028D 12 00 B9         [24] 1251 	lcall	_OLED_WR_Byte
      000290 D0 03            [24] 1252 	pop	ar3
      000292 D0 04            [24] 1253 	pop	ar4
      000294 D0 05            [24] 1254 	pop	ar5
                                   1255 ;	source/CH549_OLED.c:182: for (i = 0; i < 8; i++)
      000296 0D               [12] 1256 	inc	r5
      000297 BD 08 00         [24] 1257 	cjne	r5,#0x08,00153$
      00029A                       1258 00153$:
      00029A 40 C8            [24] 1259 	jc	00111$
      00029C 22               [24] 1260 	ret
      00029D                       1261 00107$:
                                   1262 ;	source/CH549_OLED.c:187: OLED_Set_Pos(col_index, row_index + 1);
      00029D E5 0C            [12] 1263 	mov	a,_OLED_ShowChar_PARM_2
      00029F 04               [12] 1264 	inc	a
      0002A0 F5 0B            [12] 1265 	mov	_OLED_Set_Pos_PARM_2,a
      0002A2 8F 82            [24] 1266 	mov	dpl,r7
      0002A4 C0 06            [24] 1267 	push	ar6
      0002A6 12 01 99         [24] 1268 	lcall	_OLED_Set_Pos
      0002A9 D0 06            [24] 1269 	pop	ar6
                                   1270 ;	source/CH549_OLED.c:188: for (i = 0; i < 6; i++)
      0002AB EE               [12] 1271 	mov	a,r6
      0002AC 75 F0 06         [24] 1272 	mov	b,#0x06
      0002AF A4               [48] 1273 	mul	ab
      0002B0 24 9A            [12] 1274 	add	a,#_fontMatrix_6x8
      0002B2 FE               [12] 1275 	mov	r6,a
      0002B3 74 15            [12] 1276 	mov	a,#(_fontMatrix_6x8 >> 8)
      0002B5 35 F0            [12] 1277 	addc	a,b
      0002B7 FF               [12] 1278 	mov	r7,a
      0002B8 7D 00            [12] 1279 	mov	r5,#0x00
      0002BA                       1280 00113$:
                                   1281 ;	source/CH549_OLED.c:189: OLED_WR_Byte(fontMatrix_6x8[char_index][i], OLED_DATA);	
      0002BA ED               [12] 1282 	mov	a,r5
      0002BB 2E               [12] 1283 	add	a,r6
      0002BC F5 82            [12] 1284 	mov	dpl,a
      0002BE E4               [12] 1285 	clr	a
      0002BF 3F               [12] 1286 	addc	a,r7
      0002C0 F5 83            [12] 1287 	mov	dph,a
      0002C2 E4               [12] 1288 	clr	a
      0002C3 93               [24] 1289 	movc	a,@a+dptr
      0002C4 FC               [12] 1290 	mov	r4,a
      0002C5 75 09 01         [24] 1291 	mov	_OLED_WR_Byte_PARM_2,#0x01
      0002C8 8C 82            [24] 1292 	mov	dpl,r4
      0002CA C0 07            [24] 1293 	push	ar7
      0002CC C0 06            [24] 1294 	push	ar6
      0002CE C0 05            [24] 1295 	push	ar5
      0002D0 12 00 B9         [24] 1296 	lcall	_OLED_WR_Byte
      0002D3 D0 05            [24] 1297 	pop	ar5
      0002D5 D0 06            [24] 1298 	pop	ar6
      0002D7 D0 07            [24] 1299 	pop	ar7
                                   1300 ;	source/CH549_OLED.c:188: for (i = 0; i < 6; i++)
      0002D9 0D               [12] 1301 	inc	r5
      0002DA BD 06 00         [24] 1302 	cjne	r5,#0x06,00155$
      0002DD                       1303 00155$:
      0002DD 40 DB            [24] 1304 	jc	00113$
                                   1305 ;	source/CH549_OLED.c:191: }
      0002DF 22               [24] 1306 	ret
                                   1307 ;------------------------------------------------------------
                                   1308 ;Allocation info for local variables in function 'OLED_ShowString'
                                   1309 ;------------------------------------------------------------
                                   1310 ;row_index                 Allocated with name '_OLED_ShowString_PARM_2'
                                   1311 ;chr                       Allocated with name '_OLED_ShowString_PARM_3'
                                   1312 ;col_index                 Allocated to registers r7 
                                   1313 ;j                         Allocated to registers r6 
                                   1314 ;------------------------------------------------------------
                                   1315 ;	source/CH549_OLED.c:193: void OLED_ShowString(u8 col_index, u8 row_index, u8 *chr)
                                   1316 ;	-----------------------------------------
                                   1317 ;	 function OLED_ShowString
                                   1318 ;	-----------------------------------------
      0002E0                       1319 _OLED_ShowString:
      0002E0 AF 82            [24] 1320 	mov	r7,dpl
                                   1321 ;	source/CH549_OLED.c:196: while (chr[j]!='\0')
      0002E2 7E 00            [12] 1322 	mov	r6,#0x00
      0002E4                       1323 00103$:
      0002E4 EE               [12] 1324 	mov	a,r6
      0002E5 25 0F            [12] 1325 	add	a,_OLED_ShowString_PARM_3
      0002E7 FB               [12] 1326 	mov	r3,a
      0002E8 E4               [12] 1327 	clr	a
      0002E9 35 10            [12] 1328 	addc	a,(_OLED_ShowString_PARM_3 + 1)
      0002EB FC               [12] 1329 	mov	r4,a
      0002EC AD 11            [24] 1330 	mov	r5,(_OLED_ShowString_PARM_3 + 2)
      0002EE 8B 82            [24] 1331 	mov	dpl,r3
      0002F0 8C 83            [24] 1332 	mov	dph,r4
      0002F2 8D F0            [24] 1333 	mov	b,r5
      0002F4 12 05 60         [24] 1334 	lcall	__gptrget
      0002F7 FD               [12] 1335 	mov	r5,a
      0002F8 60 28            [24] 1336 	jz	00106$
                                   1337 ;	source/CH549_OLED.c:197: {		OLED_ShowChar(col_index,row_index,chr[j]);
      0002FA 85 0E 0C         [24] 1338 	mov	_OLED_ShowChar_PARM_2,_OLED_ShowString_PARM_2
      0002FD 8D 0D            [24] 1339 	mov	_OLED_ShowChar_PARM_3,r5
      0002FF 8F 82            [24] 1340 	mov	dpl,r7
      000301 C0 07            [24] 1341 	push	ar7
      000303 C0 06            [24] 1342 	push	ar6
      000305 12 01 D6         [24] 1343 	lcall	_OLED_ShowChar
      000308 D0 06            [24] 1344 	pop	ar6
      00030A D0 07            [24] 1345 	pop	ar7
                                   1346 ;	source/CH549_OLED.c:198: col_index+=8;
      00030C 8F 05            [24] 1347 	mov	ar5,r7
      00030E 74 08            [12] 1348 	mov	a,#0x08
      000310 2D               [12] 1349 	add	a,r5
                                   1350 ;	source/CH549_OLED.c:199: if (col_index>120){col_index=0;row_index+=2;}
      000311 FF               [12] 1351 	mov  r7,a
      000312 24 87            [12] 1352 	add	a,#0xff - 0x78
      000314 50 09            [24] 1353 	jnc	00102$
      000316 7F 00            [12] 1354 	mov	r7,#0x00
      000318 AD 0E            [24] 1355 	mov	r5,_OLED_ShowString_PARM_2
      00031A 74 02            [12] 1356 	mov	a,#0x02
      00031C 2D               [12] 1357 	add	a,r5
      00031D F5 0E            [12] 1358 	mov	_OLED_ShowString_PARM_2,a
      00031F                       1359 00102$:
                                   1360 ;	source/CH549_OLED.c:200: j++;
      00031F 0E               [12] 1361 	inc	r6
      000320 80 C2            [24] 1362 	sjmp	00103$
      000322                       1363 00106$:
                                   1364 ;	source/CH549_OLED.c:202: }
      000322 22               [24] 1365 	ret
                                   1366 ;------------------------------------------------------------
                                   1367 ;Allocation info for local variables in function 'OLED_ShowCHinese'
                                   1368 ;------------------------------------------------------------
                                   1369 ;row_index                 Allocated with name '_OLED_ShowCHinese_PARM_2'
                                   1370 ;no                        Allocated with name '_OLED_ShowCHinese_PARM_3'
                                   1371 ;col_index                 Allocated to registers r7 
                                   1372 ;t                         Allocated to registers r5 
                                   1373 ;adder                     Allocated to registers r6 
                                   1374 ;------------------------------------------------------------
                                   1375 ;	source/CH549_OLED.c:206: void OLED_ShowCHinese(u8 col_index, u8 row_index, u8 no)
                                   1376 ;	-----------------------------------------
                                   1377 ;	 function OLED_ShowCHinese
                                   1378 ;	-----------------------------------------
      000323                       1379 _OLED_ShowCHinese:
      000323 AF 82            [24] 1380 	mov	r7,dpl
                                   1381 ;	source/CH549_OLED.c:208: u8 t,adder=0;
      000325 7E 00            [12] 1382 	mov	r6,#0x00
                                   1383 ;	source/CH549_OLED.c:209: OLED_Set_Pos(col_index,row_index);	
      000327 85 12 0B         [24] 1384 	mov	_OLED_Set_Pos_PARM_2,_OLED_ShowCHinese_PARM_2
      00032A 8F 82            [24] 1385 	mov	dpl,r7
      00032C C0 07            [24] 1386 	push	ar7
      00032E C0 06            [24] 1387 	push	ar6
      000330 12 01 99         [24] 1388 	lcall	_OLED_Set_Pos
      000333 D0 06            [24] 1389 	pop	ar6
      000335 D0 07            [24] 1390 	pop	ar7
                                   1391 ;	source/CH549_OLED.c:210: for(t=0;t<16;t++)
      000337 7D 00            [12] 1392 	mov	r5,#0x00
      000339                       1393 00103$:
                                   1394 ;	source/CH549_OLED.c:212: OLED_WR_Byte(Hzk[2*no][t],OLED_DATA);
      000339 AB 13            [24] 1395 	mov	r3,_OLED_ShowCHinese_PARM_3
      00033B 7C 00            [12] 1396 	mov	r4,#0x00
      00033D EB               [12] 1397 	mov	a,r3
      00033E 2B               [12] 1398 	add	a,r3
      00033F FB               [12] 1399 	mov	r3,a
      000340 EC               [12] 1400 	mov	a,r4
      000341 33               [12] 1401 	rlc	a
      000342 FC               [12] 1402 	mov	r4,a
      000343 8B 01            [24] 1403 	mov	ar1,r3
      000345 C4               [12] 1404 	swap	a
      000346 23               [12] 1405 	rl	a
      000347 54 E0            [12] 1406 	anl	a,#0xe0
      000349 C9               [12] 1407 	xch	a,r1
      00034A C4               [12] 1408 	swap	a
      00034B 23               [12] 1409 	rl	a
      00034C C9               [12] 1410 	xch	a,r1
      00034D 69               [12] 1411 	xrl	a,r1
      00034E C9               [12] 1412 	xch	a,r1
      00034F 54 E0            [12] 1413 	anl	a,#0xe0
      000351 C9               [12] 1414 	xch	a,r1
      000352 69               [12] 1415 	xrl	a,r1
      000353 FA               [12] 1416 	mov	r2,a
      000354 E9               [12] 1417 	mov	a,r1
      000355 24 B2            [12] 1418 	add	a,#_Hzk
      000357 F9               [12] 1419 	mov	r1,a
      000358 EA               [12] 1420 	mov	a,r2
      000359 34 1D            [12] 1421 	addc	a,#(_Hzk >> 8)
      00035B FA               [12] 1422 	mov	r2,a
      00035C ED               [12] 1423 	mov	a,r5
      00035D 29               [12] 1424 	add	a,r1
      00035E F5 82            [12] 1425 	mov	dpl,a
      000360 E4               [12] 1426 	clr	a
      000361 3A               [12] 1427 	addc	a,r2
      000362 F5 83            [12] 1428 	mov	dph,a
      000364 E4               [12] 1429 	clr	a
      000365 93               [24] 1430 	movc	a,@a+dptr
      000366 FA               [12] 1431 	mov	r2,a
      000367 75 09 01         [24] 1432 	mov	_OLED_WR_Byte_PARM_2,#0x01
      00036A 8A 82            [24] 1433 	mov	dpl,r2
      00036C C0 07            [24] 1434 	push	ar7
      00036E C0 06            [24] 1435 	push	ar6
      000370 C0 05            [24] 1436 	push	ar5
      000372 C0 04            [24] 1437 	push	ar4
      000374 C0 03            [24] 1438 	push	ar3
      000376 12 00 B9         [24] 1439 	lcall	_OLED_WR_Byte
      000379 D0 03            [24] 1440 	pop	ar3
      00037B D0 04            [24] 1441 	pop	ar4
      00037D D0 05            [24] 1442 	pop	ar5
      00037F D0 06            [24] 1443 	pop	ar6
      000381 D0 07            [24] 1444 	pop	ar7
                                   1445 ;	source/CH549_OLED.c:213: adder+=1;
      000383 8E 02            [24] 1446 	mov	ar2,r6
      000385 EA               [12] 1447 	mov	a,r2
      000386 04               [12] 1448 	inc	a
      000387 FE               [12] 1449 	mov	r6,a
                                   1450 ;	source/CH549_OLED.c:210: for(t=0;t<16;t++)
      000388 0D               [12] 1451 	inc	r5
      000389 BD 10 00         [24] 1452 	cjne	r5,#0x10,00123$
      00038C                       1453 00123$:
      00038C 40 AB            [24] 1454 	jc	00103$
                                   1455 ;	source/CH549_OLED.c:215: OLED_Set_Pos(col_index,row_index+1);	
      00038E E5 12            [12] 1456 	mov	a,_OLED_ShowCHinese_PARM_2
      000390 04               [12] 1457 	inc	a
      000391 F5 0B            [12] 1458 	mov	_OLED_Set_Pos_PARM_2,a
      000393 8F 82            [24] 1459 	mov	dpl,r7
      000395 C0 06            [24] 1460 	push	ar6
      000397 C0 04            [24] 1461 	push	ar4
      000399 C0 03            [24] 1462 	push	ar3
      00039B 12 01 99         [24] 1463 	lcall	_OLED_Set_Pos
      00039E D0 03            [24] 1464 	pop	ar3
      0003A0 D0 04            [24] 1465 	pop	ar4
      0003A2 D0 06            [24] 1466 	pop	ar6
                                   1467 ;	source/CH549_OLED.c:216: for(t=0;t<16;t++)
      0003A4 0B               [12] 1468 	inc	r3
      0003A5 BB 00 01         [24] 1469 	cjne	r3,#0x00,00125$
      0003A8 0C               [12] 1470 	inc	r4
      0003A9                       1471 00125$:
      0003A9 EC               [12] 1472 	mov	a,r4
      0003AA C4               [12] 1473 	swap	a
      0003AB 23               [12] 1474 	rl	a
      0003AC 54 E0            [12] 1475 	anl	a,#0xe0
      0003AE CB               [12] 1476 	xch	a,r3
      0003AF C4               [12] 1477 	swap	a
      0003B0 23               [12] 1478 	rl	a
      0003B1 CB               [12] 1479 	xch	a,r3
      0003B2 6B               [12] 1480 	xrl	a,r3
      0003B3 CB               [12] 1481 	xch	a,r3
      0003B4 54 E0            [12] 1482 	anl	a,#0xe0
      0003B6 CB               [12] 1483 	xch	a,r3
      0003B7 6B               [12] 1484 	xrl	a,r3
      0003B8 FC               [12] 1485 	mov	r4,a
      0003B9 EB               [12] 1486 	mov	a,r3
      0003BA 24 B2            [12] 1487 	add	a,#_Hzk
      0003BC FD               [12] 1488 	mov	r5,a
      0003BD EC               [12] 1489 	mov	a,r4
      0003BE 34 1D            [12] 1490 	addc	a,#(_Hzk >> 8)
      0003C0 FF               [12] 1491 	mov	r7,a
      0003C1 7C 00            [12] 1492 	mov	r4,#0x00
      0003C3                       1493 00105$:
                                   1494 ;	source/CH549_OLED.c:218: OLED_WR_Byte(Hzk[2*no+1][t],OLED_DATA);
      0003C3 EC               [12] 1495 	mov	a,r4
      0003C4 2D               [12] 1496 	add	a,r5
      0003C5 F5 82            [12] 1497 	mov	dpl,a
      0003C7 E4               [12] 1498 	clr	a
      0003C8 3F               [12] 1499 	addc	a,r7
      0003C9 F5 83            [12] 1500 	mov	dph,a
      0003CB E4               [12] 1501 	clr	a
      0003CC 93               [24] 1502 	movc	a,@a+dptr
      0003CD FB               [12] 1503 	mov	r3,a
      0003CE 75 09 01         [24] 1504 	mov	_OLED_WR_Byte_PARM_2,#0x01
      0003D1 8B 82            [24] 1505 	mov	dpl,r3
      0003D3 C0 07            [24] 1506 	push	ar7
      0003D5 C0 06            [24] 1507 	push	ar6
      0003D7 C0 05            [24] 1508 	push	ar5
      0003D9 C0 04            [24] 1509 	push	ar4
      0003DB 12 00 B9         [24] 1510 	lcall	_OLED_WR_Byte
      0003DE D0 04            [24] 1511 	pop	ar4
      0003E0 D0 05            [24] 1512 	pop	ar5
      0003E2 D0 06            [24] 1513 	pop	ar6
      0003E4 D0 07            [24] 1514 	pop	ar7
                                   1515 ;	source/CH549_OLED.c:219: adder+=1;
      0003E6 8E 03            [24] 1516 	mov	ar3,r6
      0003E8 EB               [12] 1517 	mov	a,r3
      0003E9 04               [12] 1518 	inc	a
      0003EA FE               [12] 1519 	mov	r6,a
                                   1520 ;	source/CH549_OLED.c:216: for(t=0;t<16;t++)
      0003EB 0C               [12] 1521 	inc	r4
      0003EC BC 10 00         [24] 1522 	cjne	r4,#0x10,00126$
      0003EF                       1523 00126$:
      0003EF 40 D2            [24] 1524 	jc	00105$
                                   1525 ;	source/CH549_OLED.c:221: }
      0003F1 22               [24] 1526 	ret
                                   1527 ;------------------------------------------------------------
                                   1528 ;Allocation info for local variables in function 'OLED_DrawBMP'
                                   1529 ;------------------------------------------------------------
                                   1530 ;y0                        Allocated with name '_OLED_DrawBMP_PARM_2'
                                   1531 ;x1                        Allocated with name '_OLED_DrawBMP_PARM_3'
                                   1532 ;y1                        Allocated with name '_OLED_DrawBMP_PARM_4'
                                   1533 ;BMP                       Allocated with name '_OLED_DrawBMP_PARM_5'
                                   1534 ;x0                        Allocated with name '_OLED_DrawBMP_x0_65536_103'
                                   1535 ;j                         Allocated to registers r5 r6 
                                   1536 ;x                         Allocated with name '_OLED_DrawBMP_x_65536_104'
                                   1537 ;y                         Allocated to registers 
                                   1538 ;------------------------------------------------------------
                                   1539 ;	source/CH549_OLED.c:227: void OLED_DrawBMP(unsigned char x0, unsigned char y0,unsigned char x1, unsigned char y1,unsigned char BMP[])
                                   1540 ;	-----------------------------------------
                                   1541 ;	 function OLED_DrawBMP
                                   1542 ;	-----------------------------------------
      0003F2                       1543 _OLED_DrawBMP:
      0003F2 85 82 1A         [24] 1544 	mov	_OLED_DrawBMP_x0_65536_103,dpl
                                   1545 ;	source/CH549_OLED.c:231: unsigned int j = 0;
      0003F5 7D 00            [12] 1546 	mov	r5,#0x00
      0003F7 7E 00            [12] 1547 	mov	r6,#0x00
                                   1548 ;	source/CH549_OLED.c:234: for(y = y0; y < y1; y++)	//这里的y和x是对二维数组行和列的两次for循环，遍历整个二维数组，并把每一位数据传给OLED
      0003F9 AC 14            [24] 1549 	mov	r4,_OLED_DrawBMP_PARM_2
      0003FB                       1550 00107$:
      0003FB C3               [12] 1551 	clr	c
      0003FC EC               [12] 1552 	mov	a,r4
      0003FD 95 16            [12] 1553 	subb	a,_OLED_DrawBMP_PARM_4
      0003FF 50 5A            [24] 1554 	jnc	00109$
                                   1555 ;	source/CH549_OLED.c:237: OLED_Set_Pos(x0,y);
      000401 8C 0B            [24] 1556 	mov	_OLED_Set_Pos_PARM_2,r4
      000403 85 1A 82         [24] 1557 	mov	dpl,_OLED_DrawBMP_x0_65536_103
      000406 C0 06            [24] 1558 	push	ar6
      000408 C0 05            [24] 1559 	push	ar5
      00040A C0 04            [24] 1560 	push	ar4
      00040C 12 01 99         [24] 1561 	lcall	_OLED_Set_Pos
      00040F D0 04            [24] 1562 	pop	ar4
      000411 D0 05            [24] 1563 	pop	ar5
      000413 D0 06            [24] 1564 	pop	ar6
                                   1565 ;	source/CH549_OLED.c:238: for(x = x0; x < x1; x++)
      000415 8D 02            [24] 1566 	mov	ar2,r5
      000417 8E 03            [24] 1567 	mov	ar3,r6
      000419 85 1A 1B         [24] 1568 	mov	_OLED_DrawBMP_x_65536_104,_OLED_DrawBMP_x0_65536_103
      00041C                       1569 00104$:
      00041C C3               [12] 1570 	clr	c
      00041D E5 1B            [12] 1571 	mov	a,_OLED_DrawBMP_x_65536_104
      00041F 95 15            [12] 1572 	subb	a,_OLED_DrawBMP_PARM_3
      000421 50 31            [24] 1573 	jnc	00115$
                                   1574 ;	source/CH549_OLED.c:240: OLED_WR_Byte(BMP[j++],OLED_DATA);	    	//向OLED输入BMP中 的一位数据，并逐次递增
      000423 EA               [12] 1575 	mov	a,r2
      000424 25 17            [12] 1576 	add	a,_OLED_DrawBMP_PARM_5
      000426 F8               [12] 1577 	mov	r0,a
      000427 EB               [12] 1578 	mov	a,r3
      000428 35 18            [12] 1579 	addc	a,(_OLED_DrawBMP_PARM_5 + 1)
      00042A F9               [12] 1580 	mov	r1,a
      00042B AF 19            [24] 1581 	mov	r7,(_OLED_DrawBMP_PARM_5 + 2)
      00042D 0A               [12] 1582 	inc	r2
      00042E BA 00 01         [24] 1583 	cjne	r2,#0x00,00131$
      000431 0B               [12] 1584 	inc	r3
      000432                       1585 00131$:
      000432 88 82            [24] 1586 	mov	dpl,r0
      000434 89 83            [24] 1587 	mov	dph,r1
      000436 8F F0            [24] 1588 	mov	b,r7
      000438 12 05 60         [24] 1589 	lcall	__gptrget
      00043B F8               [12] 1590 	mov	r0,a
      00043C 75 09 01         [24] 1591 	mov	_OLED_WR_Byte_PARM_2,#0x01
      00043F 88 82            [24] 1592 	mov	dpl,r0
      000441 C0 04            [24] 1593 	push	ar4
      000443 C0 03            [24] 1594 	push	ar3
      000445 C0 02            [24] 1595 	push	ar2
      000447 12 00 B9         [24] 1596 	lcall	_OLED_WR_Byte
      00044A D0 02            [24] 1597 	pop	ar2
      00044C D0 03            [24] 1598 	pop	ar3
      00044E D0 04            [24] 1599 	pop	ar4
                                   1600 ;	source/CH549_OLED.c:238: for(x = x0; x < x1; x++)
      000450 05 1B            [12] 1601 	inc	_OLED_DrawBMP_x_65536_104
      000452 80 C8            [24] 1602 	sjmp	00104$
      000454                       1603 00115$:
      000454 8A 05            [24] 1604 	mov	ar5,r2
      000456 8B 06            [24] 1605 	mov	ar6,r3
                                   1606 ;	source/CH549_OLED.c:234: for(y = y0; y < y1; y++)	//这里的y和x是对二维数组行和列的两次for循环，遍历整个二维数组，并把每一位数据传给OLED
      000458 0C               [12] 1607 	inc	r4
      000459 80 A0            [24] 1608 	sjmp	00107$
      00045B                       1609 00109$:
                                   1610 ;	source/CH549_OLED.c:243: } 
      00045B 22               [24] 1611 	ret
                                   1612 	.area CSEG    (CODE)
                                   1613 	.area CONST   (CODE)
      000D9A                       1614 _BMP1:
      000D9A 00                    1615 	.db #0x00	; 0
      000D9B 03                    1616 	.db #0x03	; 3
      000D9C 05                    1617 	.db #0x05	; 5
      000D9D 09                    1618 	.db #0x09	; 9
      000D9E 11                    1619 	.db #0x11	; 17
      000D9F FF                    1620 	.db #0xff	; 255
      000DA0 11                    1621 	.db #0x11	; 17
      000DA1 89                    1622 	.db #0x89	; 137
      000DA2 05                    1623 	.db #0x05	; 5
      000DA3 C3                    1624 	.db #0xc3	; 195
      000DA4 00                    1625 	.db #0x00	; 0
      000DA5 E0                    1626 	.db #0xe0	; 224
      000DA6 00                    1627 	.db #0x00	; 0
      000DA7 F0                    1628 	.db #0xf0	; 240
      000DA8 00                    1629 	.db #0x00	; 0
      000DA9 F8                    1630 	.db #0xf8	; 248
      000DAA 00                    1631 	.db #0x00	; 0
      000DAB 00                    1632 	.db #0x00	; 0
      000DAC 00                    1633 	.db #0x00	; 0
      000DAD 00                    1634 	.db #0x00	; 0
      000DAE 00                    1635 	.db #0x00	; 0
      000DAF 00                    1636 	.db #0x00	; 0
      000DB0 00                    1637 	.db #0x00	; 0
      000DB1 44                    1638 	.db #0x44	; 68	'D'
      000DB2 28                    1639 	.db #0x28	; 40
      000DB3 FF                    1640 	.db #0xff	; 255
      000DB4 11                    1641 	.db #0x11	; 17
      000DB5 AA                    1642 	.db #0xaa	; 170
      000DB6 44                    1643 	.db #0x44	; 68	'D'
      000DB7 00                    1644 	.db #0x00	; 0
      000DB8 00                    1645 	.db #0x00	; 0
      000DB9 00                    1646 	.db #0x00	; 0
      000DBA 00                    1647 	.db #0x00	; 0
      000DBB 00                    1648 	.db #0x00	; 0
      000DBC 00                    1649 	.db #0x00	; 0
      000DBD 00                    1650 	.db #0x00	; 0
      000DBE 00                    1651 	.db #0x00	; 0
      000DBF 00                    1652 	.db #0x00	; 0
      000DC0 00                    1653 	.db #0x00	; 0
      000DC1 00                    1654 	.db #0x00	; 0
      000DC2 00                    1655 	.db #0x00	; 0
      000DC3 00                    1656 	.db #0x00	; 0
      000DC4 00                    1657 	.db #0x00	; 0
      000DC5 00                    1658 	.db #0x00	; 0
      000DC6 00                    1659 	.db #0x00	; 0
      000DC7 00                    1660 	.db #0x00	; 0
      000DC8 00                    1661 	.db #0x00	; 0
      000DC9 00                    1662 	.db #0x00	; 0
      000DCA 00                    1663 	.db #0x00	; 0
      000DCB 00                    1664 	.db #0x00	; 0
      000DCC 00                    1665 	.db #0x00	; 0
      000DCD 00                    1666 	.db #0x00	; 0
      000DCE 00                    1667 	.db #0x00	; 0
      000DCF 00                    1668 	.db #0x00	; 0
      000DD0 00                    1669 	.db #0x00	; 0
      000DD1 00                    1670 	.db #0x00	; 0
      000DD2 00                    1671 	.db #0x00	; 0
      000DD3 00                    1672 	.db #0x00	; 0
      000DD4 00                    1673 	.db #0x00	; 0
      000DD5 00                    1674 	.db #0x00	; 0
      000DD6 00                    1675 	.db #0x00	; 0
      000DD7 00                    1676 	.db #0x00	; 0
      000DD8 00                    1677 	.db #0x00	; 0
      000DD9 00                    1678 	.db #0x00	; 0
      000DDA 00                    1679 	.db #0x00	; 0
      000DDB 00                    1680 	.db #0x00	; 0
      000DDC 00                    1681 	.db #0x00	; 0
      000DDD 00                    1682 	.db #0x00	; 0
      000DDE 00                    1683 	.db #0x00	; 0
      000DDF 00                    1684 	.db #0x00	; 0
      000DE0 00                    1685 	.db #0x00	; 0
      000DE1 00                    1686 	.db #0x00	; 0
      000DE2 00                    1687 	.db #0x00	; 0
      000DE3 00                    1688 	.db #0x00	; 0
      000DE4 00                    1689 	.db #0x00	; 0
      000DE5 00                    1690 	.db #0x00	; 0
      000DE6 00                    1691 	.db #0x00	; 0
      000DE7 00                    1692 	.db #0x00	; 0
      000DE8 00                    1693 	.db #0x00	; 0
      000DE9 00                    1694 	.db #0x00	; 0
      000DEA 00                    1695 	.db #0x00	; 0
      000DEB 00                    1696 	.db #0x00	; 0
      000DEC 00                    1697 	.db #0x00	; 0
      000DED 00                    1698 	.db #0x00	; 0
      000DEE 00                    1699 	.db #0x00	; 0
      000DEF 00                    1700 	.db #0x00	; 0
      000DF0 00                    1701 	.db #0x00	; 0
      000DF1 00                    1702 	.db #0x00	; 0
      000DF2 00                    1703 	.db #0x00	; 0
      000DF3 00                    1704 	.db #0x00	; 0
      000DF4 83                    1705 	.db #0x83	; 131
      000DF5 01                    1706 	.db #0x01	; 1
      000DF6 38                    1707 	.db #0x38	; 56	'8'
      000DF7 44                    1708 	.db #0x44	; 68	'D'
      000DF8 82                    1709 	.db #0x82	; 130
      000DF9 92                    1710 	.db #0x92	; 146
      000DFA 92                    1711 	.db #0x92	; 146
      000DFB 74                    1712 	.db #0x74	; 116	't'
      000DFC 01                    1713 	.db #0x01	; 1
      000DFD 83                    1714 	.db #0x83	; 131
      000DFE 00                    1715 	.db #0x00	; 0
      000DFF 00                    1716 	.db #0x00	; 0
      000E00 00                    1717 	.db #0x00	; 0
      000E01 00                    1718 	.db #0x00	; 0
      000E02 00                    1719 	.db #0x00	; 0
      000E03 00                    1720 	.db #0x00	; 0
      000E04 00                    1721 	.db #0x00	; 0
      000E05 7C                    1722 	.db #0x7c	; 124
      000E06 44                    1723 	.db #0x44	; 68	'D'
      000E07 FF                    1724 	.db #0xff	; 255
      000E08 01                    1725 	.db #0x01	; 1
      000E09 7D                    1726 	.db #0x7d	; 125
      000E0A 7D                    1727 	.db #0x7d	; 125
      000E0B 7D                    1728 	.db #0x7d	; 125
      000E0C 01                    1729 	.db #0x01	; 1
      000E0D 7D                    1730 	.db #0x7d	; 125
      000E0E 7D                    1731 	.db #0x7d	; 125
      000E0F 7D                    1732 	.db #0x7d	; 125
      000E10 7D                    1733 	.db #0x7d	; 125
      000E11 01                    1734 	.db #0x01	; 1
      000E12 7D                    1735 	.db #0x7d	; 125
      000E13 7D                    1736 	.db #0x7d	; 125
      000E14 7D                    1737 	.db #0x7d	; 125
      000E15 7D                    1738 	.db #0x7d	; 125
      000E16 7D                    1739 	.db #0x7d	; 125
      000E17 01                    1740 	.db #0x01	; 1
      000E18 FF                    1741 	.db #0xff	; 255
      000E19 00                    1742 	.db #0x00	; 0
      000E1A 00                    1743 	.db #0x00	; 0
      000E1B 00                    1744 	.db #0x00	; 0
      000E1C 00                    1745 	.db #0x00	; 0
      000E1D 00                    1746 	.db #0x00	; 0
      000E1E 00                    1747 	.db #0x00	; 0
      000E1F 01                    1748 	.db #0x01	; 1
      000E20 00                    1749 	.db #0x00	; 0
      000E21 01                    1750 	.db #0x01	; 1
      000E22 00                    1751 	.db #0x00	; 0
      000E23 01                    1752 	.db #0x01	; 1
      000E24 00                    1753 	.db #0x00	; 0
      000E25 01                    1754 	.db #0x01	; 1
      000E26 00                    1755 	.db #0x00	; 0
      000E27 01                    1756 	.db #0x01	; 1
      000E28 00                    1757 	.db #0x00	; 0
      000E29 01                    1758 	.db #0x01	; 1
      000E2A 00                    1759 	.db #0x00	; 0
      000E2B 00                    1760 	.db #0x00	; 0
      000E2C 00                    1761 	.db #0x00	; 0
      000E2D 00                    1762 	.db #0x00	; 0
      000E2E 00                    1763 	.db #0x00	; 0
      000E2F 00                    1764 	.db #0x00	; 0
      000E30 00                    1765 	.db #0x00	; 0
      000E31 00                    1766 	.db #0x00	; 0
      000E32 00                    1767 	.db #0x00	; 0
      000E33 01                    1768 	.db #0x01	; 1
      000E34 01                    1769 	.db #0x01	; 1
      000E35 00                    1770 	.db #0x00	; 0
      000E36 00                    1771 	.db #0x00	; 0
      000E37 00                    1772 	.db #0x00	; 0
      000E38 00                    1773 	.db #0x00	; 0
      000E39 00                    1774 	.db #0x00	; 0
      000E3A 00                    1775 	.db #0x00	; 0
      000E3B 00                    1776 	.db #0x00	; 0
      000E3C 00                    1777 	.db #0x00	; 0
      000E3D 00                    1778 	.db #0x00	; 0
      000E3E 00                    1779 	.db #0x00	; 0
      000E3F 00                    1780 	.db #0x00	; 0
      000E40 00                    1781 	.db #0x00	; 0
      000E41 00                    1782 	.db #0x00	; 0
      000E42 00                    1783 	.db #0x00	; 0
      000E43 00                    1784 	.db #0x00	; 0
      000E44 00                    1785 	.db #0x00	; 0
      000E45 00                    1786 	.db #0x00	; 0
      000E46 00                    1787 	.db #0x00	; 0
      000E47 00                    1788 	.db #0x00	; 0
      000E48 00                    1789 	.db #0x00	; 0
      000E49 00                    1790 	.db #0x00	; 0
      000E4A 00                    1791 	.db #0x00	; 0
      000E4B 00                    1792 	.db #0x00	; 0
      000E4C 00                    1793 	.db #0x00	; 0
      000E4D 00                    1794 	.db #0x00	; 0
      000E4E 00                    1795 	.db #0x00	; 0
      000E4F 00                    1796 	.db #0x00	; 0
      000E50 00                    1797 	.db #0x00	; 0
      000E51 00                    1798 	.db #0x00	; 0
      000E52 00                    1799 	.db #0x00	; 0
      000E53 00                    1800 	.db #0x00	; 0
      000E54 00                    1801 	.db #0x00	; 0
      000E55 00                    1802 	.db #0x00	; 0
      000E56 00                    1803 	.db #0x00	; 0
      000E57 00                    1804 	.db #0x00	; 0
      000E58 00                    1805 	.db #0x00	; 0
      000E59 00                    1806 	.db #0x00	; 0
      000E5A 00                    1807 	.db #0x00	; 0
      000E5B 00                    1808 	.db #0x00	; 0
      000E5C 00                    1809 	.db #0x00	; 0
      000E5D 00                    1810 	.db #0x00	; 0
      000E5E 00                    1811 	.db #0x00	; 0
      000E5F 00                    1812 	.db #0x00	; 0
      000E60 00                    1813 	.db #0x00	; 0
      000E61 00                    1814 	.db #0x00	; 0
      000E62 00                    1815 	.db #0x00	; 0
      000E63 00                    1816 	.db #0x00	; 0
      000E64 00                    1817 	.db #0x00	; 0
      000E65 00                    1818 	.db #0x00	; 0
      000E66 00                    1819 	.db #0x00	; 0
      000E67 00                    1820 	.db #0x00	; 0
      000E68 00                    1821 	.db #0x00	; 0
      000E69 00                    1822 	.db #0x00	; 0
      000E6A 00                    1823 	.db #0x00	; 0
      000E6B 00                    1824 	.db #0x00	; 0
      000E6C 00                    1825 	.db #0x00	; 0
      000E6D 00                    1826 	.db #0x00	; 0
      000E6E 00                    1827 	.db #0x00	; 0
      000E6F 00                    1828 	.db #0x00	; 0
      000E70 00                    1829 	.db #0x00	; 0
      000E71 00                    1830 	.db #0x00	; 0
      000E72 00                    1831 	.db #0x00	; 0
      000E73 00                    1832 	.db #0x00	; 0
      000E74 01                    1833 	.db #0x01	; 1
      000E75 01                    1834 	.db #0x01	; 1
      000E76 00                    1835 	.db #0x00	; 0
      000E77 00                    1836 	.db #0x00	; 0
      000E78 00                    1837 	.db #0x00	; 0
      000E79 00                    1838 	.db #0x00	; 0
      000E7A 00                    1839 	.db #0x00	; 0
      000E7B 00                    1840 	.db #0x00	; 0
      000E7C 01                    1841 	.db #0x01	; 1
      000E7D 01                    1842 	.db #0x01	; 1
      000E7E 00                    1843 	.db #0x00	; 0
      000E7F 00                    1844 	.db #0x00	; 0
      000E80 00                    1845 	.db #0x00	; 0
      000E81 00                    1846 	.db #0x00	; 0
      000E82 00                    1847 	.db #0x00	; 0
      000E83 00                    1848 	.db #0x00	; 0
      000E84 00                    1849 	.db #0x00	; 0
      000E85 00                    1850 	.db #0x00	; 0
      000E86 00                    1851 	.db #0x00	; 0
      000E87 01                    1852 	.db #0x01	; 1
      000E88 01                    1853 	.db #0x01	; 1
      000E89 01                    1854 	.db #0x01	; 1
      000E8A 01                    1855 	.db #0x01	; 1
      000E8B 01                    1856 	.db #0x01	; 1
      000E8C 01                    1857 	.db #0x01	; 1
      000E8D 01                    1858 	.db #0x01	; 1
      000E8E 01                    1859 	.db #0x01	; 1
      000E8F 01                    1860 	.db #0x01	; 1
      000E90 01                    1861 	.db #0x01	; 1
      000E91 01                    1862 	.db #0x01	; 1
      000E92 01                    1863 	.db #0x01	; 1
      000E93 01                    1864 	.db #0x01	; 1
      000E94 01                    1865 	.db #0x01	; 1
      000E95 01                    1866 	.db #0x01	; 1
      000E96 01                    1867 	.db #0x01	; 1
      000E97 01                    1868 	.db #0x01	; 1
      000E98 01                    1869 	.db #0x01	; 1
      000E99 00                    1870 	.db #0x00	; 0
      000E9A 00                    1871 	.db #0x00	; 0
      000E9B 00                    1872 	.db #0x00	; 0
      000E9C 00                    1873 	.db #0x00	; 0
      000E9D 00                    1874 	.db #0x00	; 0
      000E9E 00                    1875 	.db #0x00	; 0
      000E9F 00                    1876 	.db #0x00	; 0
      000EA0 00                    1877 	.db #0x00	; 0
      000EA1 00                    1878 	.db #0x00	; 0
      000EA2 00                    1879 	.db #0x00	; 0
      000EA3 00                    1880 	.db #0x00	; 0
      000EA4 00                    1881 	.db #0x00	; 0
      000EA5 00                    1882 	.db #0x00	; 0
      000EA6 00                    1883 	.db #0x00	; 0
      000EA7 00                    1884 	.db #0x00	; 0
      000EA8 00                    1885 	.db #0x00	; 0
      000EA9 00                    1886 	.db #0x00	; 0
      000EAA 00                    1887 	.db #0x00	; 0
      000EAB 00                    1888 	.db #0x00	; 0
      000EAC 00                    1889 	.db #0x00	; 0
      000EAD 00                    1890 	.db #0x00	; 0
      000EAE 00                    1891 	.db #0x00	; 0
      000EAF 00                    1892 	.db #0x00	; 0
      000EB0 00                    1893 	.db #0x00	; 0
      000EB1 00                    1894 	.db #0x00	; 0
      000EB2 00                    1895 	.db #0x00	; 0
      000EB3 00                    1896 	.db #0x00	; 0
      000EB4 00                    1897 	.db #0x00	; 0
      000EB5 00                    1898 	.db #0x00	; 0
      000EB6 3F                    1899 	.db #0x3f	; 63
      000EB7 3F                    1900 	.db #0x3f	; 63
      000EB8 03                    1901 	.db #0x03	; 3
      000EB9 03                    1902 	.db #0x03	; 3
      000EBA F3                    1903 	.db #0xf3	; 243
      000EBB 13                    1904 	.db #0x13	; 19
      000EBC 11                    1905 	.db #0x11	; 17
      000EBD 11                    1906 	.db #0x11	; 17
      000EBE 11                    1907 	.db #0x11	; 17
      000EBF 11                    1908 	.db #0x11	; 17
      000EC0 11                    1909 	.db #0x11	; 17
      000EC1 11                    1910 	.db #0x11	; 17
      000EC2 01                    1911 	.db #0x01	; 1
      000EC3 F1                    1912 	.db #0xf1	; 241
      000EC4 11                    1913 	.db #0x11	; 17
      000EC5 61                    1914 	.db #0x61	; 97	'a'
      000EC6 81                    1915 	.db #0x81	; 129
      000EC7 01                    1916 	.db #0x01	; 1
      000EC8 01                    1917 	.db #0x01	; 1
      000EC9 01                    1918 	.db #0x01	; 1
      000ECA 81                    1919 	.db #0x81	; 129
      000ECB 61                    1920 	.db #0x61	; 97	'a'
      000ECC 11                    1921 	.db #0x11	; 17
      000ECD F1                    1922 	.db #0xf1	; 241
      000ECE 01                    1923 	.db #0x01	; 1
      000ECF 01                    1924 	.db #0x01	; 1
      000ED0 01                    1925 	.db #0x01	; 1
      000ED1 01                    1926 	.db #0x01	; 1
      000ED2 41                    1927 	.db #0x41	; 65	'A'
      000ED3 41                    1928 	.db #0x41	; 65	'A'
      000ED4 F1                    1929 	.db #0xf1	; 241
      000ED5 01                    1930 	.db #0x01	; 1
      000ED6 01                    1931 	.db #0x01	; 1
      000ED7 01                    1932 	.db #0x01	; 1
      000ED8 01                    1933 	.db #0x01	; 1
      000ED9 01                    1934 	.db #0x01	; 1
      000EDA C1                    1935 	.db #0xc1	; 193
      000EDB 21                    1936 	.db #0x21	; 33
      000EDC 11                    1937 	.db #0x11	; 17
      000EDD 11                    1938 	.db #0x11	; 17
      000EDE 11                    1939 	.db #0x11	; 17
      000EDF 11                    1940 	.db #0x11	; 17
      000EE0 21                    1941 	.db #0x21	; 33
      000EE1 C1                    1942 	.db #0xc1	; 193
      000EE2 01                    1943 	.db #0x01	; 1
      000EE3 01                    1944 	.db #0x01	; 1
      000EE4 01                    1945 	.db #0x01	; 1
      000EE5 01                    1946 	.db #0x01	; 1
      000EE6 41                    1947 	.db #0x41	; 65	'A'
      000EE7 41                    1948 	.db #0x41	; 65	'A'
      000EE8 F1                    1949 	.db #0xf1	; 241
      000EE9 01                    1950 	.db #0x01	; 1
      000EEA 01                    1951 	.db #0x01	; 1
      000EEB 01                    1952 	.db #0x01	; 1
      000EEC 01                    1953 	.db #0x01	; 1
      000EED 01                    1954 	.db #0x01	; 1
      000EEE 01                    1955 	.db #0x01	; 1
      000EEF 01                    1956 	.db #0x01	; 1
      000EF0 01                    1957 	.db #0x01	; 1
      000EF1 01                    1958 	.db #0x01	; 1
      000EF2 01                    1959 	.db #0x01	; 1
      000EF3 11                    1960 	.db #0x11	; 17
      000EF4 11                    1961 	.db #0x11	; 17
      000EF5 11                    1962 	.db #0x11	; 17
      000EF6 11                    1963 	.db #0x11	; 17
      000EF7 11                    1964 	.db #0x11	; 17
      000EF8 D3                    1965 	.db #0xd3	; 211
      000EF9 33                    1966 	.db #0x33	; 51	'3'
      000EFA 03                    1967 	.db #0x03	; 3
      000EFB 03                    1968 	.db #0x03	; 3
      000EFC 3F                    1969 	.db #0x3f	; 63
      000EFD 3F                    1970 	.db #0x3f	; 63
      000EFE 00                    1971 	.db #0x00	; 0
      000EFF 00                    1972 	.db #0x00	; 0
      000F00 00                    1973 	.db #0x00	; 0
      000F01 00                    1974 	.db #0x00	; 0
      000F02 00                    1975 	.db #0x00	; 0
      000F03 00                    1976 	.db #0x00	; 0
      000F04 00                    1977 	.db #0x00	; 0
      000F05 00                    1978 	.db #0x00	; 0
      000F06 00                    1979 	.db #0x00	; 0
      000F07 00                    1980 	.db #0x00	; 0
      000F08 00                    1981 	.db #0x00	; 0
      000F09 00                    1982 	.db #0x00	; 0
      000F0A 00                    1983 	.db #0x00	; 0
      000F0B 00                    1984 	.db #0x00	; 0
      000F0C 00                    1985 	.db #0x00	; 0
      000F0D 00                    1986 	.db #0x00	; 0
      000F0E 00                    1987 	.db #0x00	; 0
      000F0F 00                    1988 	.db #0x00	; 0
      000F10 00                    1989 	.db #0x00	; 0
      000F11 00                    1990 	.db #0x00	; 0
      000F12 00                    1991 	.db #0x00	; 0
      000F13 00                    1992 	.db #0x00	; 0
      000F14 00                    1993 	.db #0x00	; 0
      000F15 00                    1994 	.db #0x00	; 0
      000F16 00                    1995 	.db #0x00	; 0
      000F17 00                    1996 	.db #0x00	; 0
      000F18 00                    1997 	.db #0x00	; 0
      000F19 00                    1998 	.db #0x00	; 0
      000F1A 00                    1999 	.db #0x00	; 0
      000F1B 00                    2000 	.db #0x00	; 0
      000F1C 00                    2001 	.db #0x00	; 0
      000F1D 00                    2002 	.db #0x00	; 0
      000F1E 00                    2003 	.db #0x00	; 0
      000F1F 00                    2004 	.db #0x00	; 0
      000F20 00                    2005 	.db #0x00	; 0
      000F21 00                    2006 	.db #0x00	; 0
      000F22 00                    2007 	.db #0x00	; 0
      000F23 00                    2008 	.db #0x00	; 0
      000F24 00                    2009 	.db #0x00	; 0
      000F25 00                    2010 	.db #0x00	; 0
      000F26 00                    2011 	.db #0x00	; 0
      000F27 00                    2012 	.db #0x00	; 0
      000F28 00                    2013 	.db #0x00	; 0
      000F29 00                    2014 	.db #0x00	; 0
      000F2A 00                    2015 	.db #0x00	; 0
      000F2B 00                    2016 	.db #0x00	; 0
      000F2C 00                    2017 	.db #0x00	; 0
      000F2D 00                    2018 	.db #0x00	; 0
      000F2E 00                    2019 	.db #0x00	; 0
      000F2F 00                    2020 	.db #0x00	; 0
      000F30 00                    2021 	.db #0x00	; 0
      000F31 00                    2022 	.db #0x00	; 0
      000F32 00                    2023 	.db #0x00	; 0
      000F33 00                    2024 	.db #0x00	; 0
      000F34 00                    2025 	.db #0x00	; 0
      000F35 00                    2026 	.db #0x00	; 0
      000F36 E0                    2027 	.db #0xe0	; 224
      000F37 E0                    2028 	.db #0xe0	; 224
      000F38 00                    2029 	.db #0x00	; 0
      000F39 00                    2030 	.db #0x00	; 0
      000F3A 7F                    2031 	.db #0x7f	; 127
      000F3B 01                    2032 	.db #0x01	; 1
      000F3C 01                    2033 	.db #0x01	; 1
      000F3D 01                    2034 	.db #0x01	; 1
      000F3E 01                    2035 	.db #0x01	; 1
      000F3F 01                    2036 	.db #0x01	; 1
      000F40 01                    2037 	.db #0x01	; 1
      000F41 00                    2038 	.db #0x00	; 0
      000F42 00                    2039 	.db #0x00	; 0
      000F43 7F                    2040 	.db #0x7f	; 127
      000F44 00                    2041 	.db #0x00	; 0
      000F45 00                    2042 	.db #0x00	; 0
      000F46 01                    2043 	.db #0x01	; 1
      000F47 06                    2044 	.db #0x06	; 6
      000F48 18                    2045 	.db #0x18	; 24
      000F49 06                    2046 	.db #0x06	; 6
      000F4A 01                    2047 	.db #0x01	; 1
      000F4B 00                    2048 	.db #0x00	; 0
      000F4C 00                    2049 	.db #0x00	; 0
      000F4D 7F                    2050 	.db #0x7f	; 127
      000F4E 00                    2051 	.db #0x00	; 0
      000F4F 00                    2052 	.db #0x00	; 0
      000F50 00                    2053 	.db #0x00	; 0
      000F51 00                    2054 	.db #0x00	; 0
      000F52 40                    2055 	.db #0x40	; 64
      000F53 40                    2056 	.db #0x40	; 64
      000F54 7F                    2057 	.db #0x7f	; 127
      000F55 40                    2058 	.db #0x40	; 64
      000F56 40                    2059 	.db #0x40	; 64
      000F57 00                    2060 	.db #0x00	; 0
      000F58 00                    2061 	.db #0x00	; 0
      000F59 00                    2062 	.db #0x00	; 0
      000F5A 1F                    2063 	.db #0x1f	; 31
      000F5B 20                    2064 	.db #0x20	; 32
      000F5C 40                    2065 	.db #0x40	; 64
      000F5D 40                    2066 	.db #0x40	; 64
      000F5E 40                    2067 	.db #0x40	; 64
      000F5F 40                    2068 	.db #0x40	; 64
      000F60 20                    2069 	.db #0x20	; 32
      000F61 1F                    2070 	.db #0x1f	; 31
      000F62 00                    2071 	.db #0x00	; 0
      000F63 00                    2072 	.db #0x00	; 0
      000F64 00                    2073 	.db #0x00	; 0
      000F65 00                    2074 	.db #0x00	; 0
      000F66 40                    2075 	.db #0x40	; 64
      000F67 40                    2076 	.db #0x40	; 64
      000F68 7F                    2077 	.db #0x7f	; 127
      000F69 40                    2078 	.db #0x40	; 64
      000F6A 40                    2079 	.db #0x40	; 64
      000F6B 00                    2080 	.db #0x00	; 0
      000F6C 00                    2081 	.db #0x00	; 0
      000F6D 00                    2082 	.db #0x00	; 0
      000F6E 00                    2083 	.db #0x00	; 0
      000F6F 60                    2084 	.db #0x60	; 96
      000F70 00                    2085 	.db #0x00	; 0
      000F71 00                    2086 	.db #0x00	; 0
      000F72 00                    2087 	.db #0x00	; 0
      000F73 00                    2088 	.db #0x00	; 0
      000F74 40                    2089 	.db #0x40	; 64
      000F75 30                    2090 	.db #0x30	; 48	'0'
      000F76 0C                    2091 	.db #0x0c	; 12
      000F77 03                    2092 	.db #0x03	; 3
      000F78 00                    2093 	.db #0x00	; 0
      000F79 00                    2094 	.db #0x00	; 0
      000F7A 00                    2095 	.db #0x00	; 0
      000F7B 00                    2096 	.db #0x00	; 0
      000F7C E0                    2097 	.db #0xe0	; 224
      000F7D E0                    2098 	.db #0xe0	; 224
      000F7E 00                    2099 	.db #0x00	; 0
      000F7F 00                    2100 	.db #0x00	; 0
      000F80 00                    2101 	.db #0x00	; 0
      000F81 00                    2102 	.db #0x00	; 0
      000F82 00                    2103 	.db #0x00	; 0
      000F83 00                    2104 	.db #0x00	; 0
      000F84 00                    2105 	.db #0x00	; 0
      000F85 00                    2106 	.db #0x00	; 0
      000F86 00                    2107 	.db #0x00	; 0
      000F87 00                    2108 	.db #0x00	; 0
      000F88 00                    2109 	.db #0x00	; 0
      000F89 00                    2110 	.db #0x00	; 0
      000F8A 00                    2111 	.db #0x00	; 0
      000F8B 00                    2112 	.db #0x00	; 0
      000F8C 00                    2113 	.db #0x00	; 0
      000F8D 00                    2114 	.db #0x00	; 0
      000F8E 00                    2115 	.db #0x00	; 0
      000F8F 00                    2116 	.db #0x00	; 0
      000F90 00                    2117 	.db #0x00	; 0
      000F91 00                    2118 	.db #0x00	; 0
      000F92 00                    2119 	.db #0x00	; 0
      000F93 00                    2120 	.db #0x00	; 0
      000F94 00                    2121 	.db #0x00	; 0
      000F95 00                    2122 	.db #0x00	; 0
      000F96 00                    2123 	.db #0x00	; 0
      000F97 00                    2124 	.db #0x00	; 0
      000F98 00                    2125 	.db #0x00	; 0
      000F99 00                    2126 	.db #0x00	; 0
      000F9A 00                    2127 	.db #0x00	; 0
      000F9B 00                    2128 	.db #0x00	; 0
      000F9C 00                    2129 	.db #0x00	; 0
      000F9D 00                    2130 	.db #0x00	; 0
      000F9E 00                    2131 	.db #0x00	; 0
      000F9F 00                    2132 	.db #0x00	; 0
      000FA0 00                    2133 	.db #0x00	; 0
      000FA1 00                    2134 	.db #0x00	; 0
      000FA2 00                    2135 	.db #0x00	; 0
      000FA3 00                    2136 	.db #0x00	; 0
      000FA4 00                    2137 	.db #0x00	; 0
      000FA5 00                    2138 	.db #0x00	; 0
      000FA6 00                    2139 	.db #0x00	; 0
      000FA7 00                    2140 	.db #0x00	; 0
      000FA8 00                    2141 	.db #0x00	; 0
      000FA9 00                    2142 	.db #0x00	; 0
      000FAA 00                    2143 	.db #0x00	; 0
      000FAB 00                    2144 	.db #0x00	; 0
      000FAC 00                    2145 	.db #0x00	; 0
      000FAD 00                    2146 	.db #0x00	; 0
      000FAE 00                    2147 	.db #0x00	; 0
      000FAF 00                    2148 	.db #0x00	; 0
      000FB0 00                    2149 	.db #0x00	; 0
      000FB1 00                    2150 	.db #0x00	; 0
      000FB2 00                    2151 	.db #0x00	; 0
      000FB3 00                    2152 	.db #0x00	; 0
      000FB4 00                    2153 	.db #0x00	; 0
      000FB5 00                    2154 	.db #0x00	; 0
      000FB6 07                    2155 	.db #0x07	; 7
      000FB7 07                    2156 	.db #0x07	; 7
      000FB8 06                    2157 	.db #0x06	; 6
      000FB9 06                    2158 	.db #0x06	; 6
      000FBA 06                    2159 	.db #0x06	; 6
      000FBB 06                    2160 	.db #0x06	; 6
      000FBC 04                    2161 	.db #0x04	; 4
      000FBD 04                    2162 	.db #0x04	; 4
      000FBE 04                    2163 	.db #0x04	; 4
      000FBF 84                    2164 	.db #0x84	; 132
      000FC0 44                    2165 	.db #0x44	; 68	'D'
      000FC1 44                    2166 	.db #0x44	; 68	'D'
      000FC2 44                    2167 	.db #0x44	; 68	'D'
      000FC3 84                    2168 	.db #0x84	; 132
      000FC4 04                    2169 	.db #0x04	; 4
      000FC5 04                    2170 	.db #0x04	; 4
      000FC6 84                    2171 	.db #0x84	; 132
      000FC7 44                    2172 	.db #0x44	; 68	'D'
      000FC8 44                    2173 	.db #0x44	; 68	'D'
      000FC9 44                    2174 	.db #0x44	; 68	'D'
      000FCA 84                    2175 	.db #0x84	; 132
      000FCB 04                    2176 	.db #0x04	; 4
      000FCC 04                    2177 	.db #0x04	; 4
      000FCD 04                    2178 	.db #0x04	; 4
      000FCE 84                    2179 	.db #0x84	; 132
      000FCF C4                    2180 	.db #0xc4	; 196
      000FD0 04                    2181 	.db #0x04	; 4
      000FD1 04                    2182 	.db #0x04	; 4
      000FD2 04                    2183 	.db #0x04	; 4
      000FD3 04                    2184 	.db #0x04	; 4
      000FD4 84                    2185 	.db #0x84	; 132
      000FD5 44                    2186 	.db #0x44	; 68	'D'
      000FD6 44                    2187 	.db #0x44	; 68	'D'
      000FD7 44                    2188 	.db #0x44	; 68	'D'
      000FD8 84                    2189 	.db #0x84	; 132
      000FD9 04                    2190 	.db #0x04	; 4
      000FDA 04                    2191 	.db #0x04	; 4
      000FDB 04                    2192 	.db #0x04	; 4
      000FDC 04                    2193 	.db #0x04	; 4
      000FDD 04                    2194 	.db #0x04	; 4
      000FDE 84                    2195 	.db #0x84	; 132
      000FDF 44                    2196 	.db #0x44	; 68	'D'
      000FE0 44                    2197 	.db #0x44	; 68	'D'
      000FE1 44                    2198 	.db #0x44	; 68	'D'
      000FE2 84                    2199 	.db #0x84	; 132
      000FE3 04                    2200 	.db #0x04	; 4
      000FE4 04                    2201 	.db #0x04	; 4
      000FE5 04                    2202 	.db #0x04	; 4
      000FE6 04                    2203 	.db #0x04	; 4
      000FE7 04                    2204 	.db #0x04	; 4
      000FE8 84                    2205 	.db #0x84	; 132
      000FE9 44                    2206 	.db #0x44	; 68	'D'
      000FEA 44                    2207 	.db #0x44	; 68	'D'
      000FEB 44                    2208 	.db #0x44	; 68	'D'
      000FEC 84                    2209 	.db #0x84	; 132
      000FED 04                    2210 	.db #0x04	; 4
      000FEE 04                    2211 	.db #0x04	; 4
      000FEF 84                    2212 	.db #0x84	; 132
      000FF0 44                    2213 	.db #0x44	; 68	'D'
      000FF1 44                    2214 	.db #0x44	; 68	'D'
      000FF2 44                    2215 	.db #0x44	; 68	'D'
      000FF3 84                    2216 	.db #0x84	; 132
      000FF4 04                    2217 	.db #0x04	; 4
      000FF5 04                    2218 	.db #0x04	; 4
      000FF6 04                    2219 	.db #0x04	; 4
      000FF7 04                    2220 	.db #0x04	; 4
      000FF8 06                    2221 	.db #0x06	; 6
      000FF9 06                    2222 	.db #0x06	; 6
      000FFA 06                    2223 	.db #0x06	; 6
      000FFB 06                    2224 	.db #0x06	; 6
      000FFC 07                    2225 	.db #0x07	; 7
      000FFD 07                    2226 	.db #0x07	; 7
      000FFE 00                    2227 	.db #0x00	; 0
      000FFF 00                    2228 	.db #0x00	; 0
      001000 00                    2229 	.db #0x00	; 0
      001001 00                    2230 	.db #0x00	; 0
      001002 00                    2231 	.db #0x00	; 0
      001003 00                    2232 	.db #0x00	; 0
      001004 00                    2233 	.db #0x00	; 0
      001005 00                    2234 	.db #0x00	; 0
      001006 00                    2235 	.db #0x00	; 0
      001007 00                    2236 	.db #0x00	; 0
      001008 00                    2237 	.db #0x00	; 0
      001009 00                    2238 	.db #0x00	; 0
      00100A 00                    2239 	.db #0x00	; 0
      00100B 00                    2240 	.db #0x00	; 0
      00100C 00                    2241 	.db #0x00	; 0
      00100D 00                    2242 	.db #0x00	; 0
      00100E 00                    2243 	.db #0x00	; 0
      00100F 00                    2244 	.db #0x00	; 0
      001010 00                    2245 	.db #0x00	; 0
      001011 00                    2246 	.db #0x00	; 0
      001012 00                    2247 	.db #0x00	; 0
      001013 00                    2248 	.db #0x00	; 0
      001014 00                    2249 	.db #0x00	; 0
      001015 00                    2250 	.db #0x00	; 0
      001016 00                    2251 	.db #0x00	; 0
      001017 00                    2252 	.db #0x00	; 0
      001018 00                    2253 	.db #0x00	; 0
      001019 00                    2254 	.db #0x00	; 0
      00101A 00                    2255 	.db #0x00	; 0
      00101B 00                    2256 	.db #0x00	; 0
      00101C 00                    2257 	.db #0x00	; 0
      00101D 00                    2258 	.db #0x00	; 0
      00101E 00                    2259 	.db #0x00	; 0
      00101F 00                    2260 	.db #0x00	; 0
      001020 00                    2261 	.db #0x00	; 0
      001021 00                    2262 	.db #0x00	; 0
      001022 00                    2263 	.db #0x00	; 0
      001023 00                    2264 	.db #0x00	; 0
      001024 00                    2265 	.db #0x00	; 0
      001025 00                    2266 	.db #0x00	; 0
      001026 00                    2267 	.db #0x00	; 0
      001027 00                    2268 	.db #0x00	; 0
      001028 00                    2269 	.db #0x00	; 0
      001029 00                    2270 	.db #0x00	; 0
      00102A 00                    2271 	.db #0x00	; 0
      00102B 00                    2272 	.db #0x00	; 0
      00102C 00                    2273 	.db #0x00	; 0
      00102D 00                    2274 	.db #0x00	; 0
      00102E 00                    2275 	.db #0x00	; 0
      00102F 00                    2276 	.db #0x00	; 0
      001030 00                    2277 	.db #0x00	; 0
      001031 00                    2278 	.db #0x00	; 0
      001032 00                    2279 	.db #0x00	; 0
      001033 00                    2280 	.db #0x00	; 0
      001034 00                    2281 	.db #0x00	; 0
      001035 00                    2282 	.db #0x00	; 0
      001036 00                    2283 	.db #0x00	; 0
      001037 00                    2284 	.db #0x00	; 0
      001038 00                    2285 	.db #0x00	; 0
      001039 00                    2286 	.db #0x00	; 0
      00103A 00                    2287 	.db #0x00	; 0
      00103B 00                    2288 	.db #0x00	; 0
      00103C 00                    2289 	.db #0x00	; 0
      00103D 00                    2290 	.db #0x00	; 0
      00103E 00                    2291 	.db #0x00	; 0
      00103F 10                    2292 	.db #0x10	; 16
      001040 18                    2293 	.db #0x18	; 24
      001041 14                    2294 	.db #0x14	; 20
      001042 12                    2295 	.db #0x12	; 18
      001043 11                    2296 	.db #0x11	; 17
      001044 00                    2297 	.db #0x00	; 0
      001045 00                    2298 	.db #0x00	; 0
      001046 0F                    2299 	.db #0x0f	; 15
      001047 10                    2300 	.db #0x10	; 16
      001048 10                    2301 	.db #0x10	; 16
      001049 10                    2302 	.db #0x10	; 16
      00104A 0F                    2303 	.db #0x0f	; 15
      00104B 00                    2304 	.db #0x00	; 0
      00104C 00                    2305 	.db #0x00	; 0
      00104D 00                    2306 	.db #0x00	; 0
      00104E 10                    2307 	.db #0x10	; 16
      00104F 1F                    2308 	.db #0x1f	; 31
      001050 10                    2309 	.db #0x10	; 16
      001051 00                    2310 	.db #0x00	; 0
      001052 00                    2311 	.db #0x00	; 0
      001053 00                    2312 	.db #0x00	; 0
      001054 08                    2313 	.db #0x08	; 8
      001055 10                    2314 	.db #0x10	; 16
      001056 12                    2315 	.db #0x12	; 18
      001057 12                    2316 	.db #0x12	; 18
      001058 0D                    2317 	.db #0x0d	; 13
      001059 00                    2318 	.db #0x00	; 0
      00105A 00                    2319 	.db #0x00	; 0
      00105B 18                    2320 	.db #0x18	; 24
      00105C 00                    2321 	.db #0x00	; 0
      00105D 00                    2322 	.db #0x00	; 0
      00105E 0D                    2323 	.db #0x0d	; 13
      00105F 12                    2324 	.db #0x12	; 18
      001060 12                    2325 	.db #0x12	; 18
      001061 12                    2326 	.db #0x12	; 18
      001062 0D                    2327 	.db #0x0d	; 13
      001063 00                    2328 	.db #0x00	; 0
      001064 00                    2329 	.db #0x00	; 0
      001065 18                    2330 	.db #0x18	; 24
      001066 00                    2331 	.db #0x00	; 0
      001067 00                    2332 	.db #0x00	; 0
      001068 10                    2333 	.db #0x10	; 16
      001069 18                    2334 	.db #0x18	; 24
      00106A 14                    2335 	.db #0x14	; 20
      00106B 12                    2336 	.db #0x12	; 18
      00106C 11                    2337 	.db #0x11	; 17
      00106D 00                    2338 	.db #0x00	; 0
      00106E 00                    2339 	.db #0x00	; 0
      00106F 10                    2340 	.db #0x10	; 16
      001070 18                    2341 	.db #0x18	; 24
      001071 14                    2342 	.db #0x14	; 20
      001072 12                    2343 	.db #0x12	; 18
      001073 11                    2344 	.db #0x11	; 17
      001074 00                    2345 	.db #0x00	; 0
      001075 00                    2346 	.db #0x00	; 0
      001076 00                    2347 	.db #0x00	; 0
      001077 00                    2348 	.db #0x00	; 0
      001078 00                    2349 	.db #0x00	; 0
      001079 00                    2350 	.db #0x00	; 0
      00107A 00                    2351 	.db #0x00	; 0
      00107B 00                    2352 	.db #0x00	; 0
      00107C 00                    2353 	.db #0x00	; 0
      00107D 00                    2354 	.db #0x00	; 0
      00107E 00                    2355 	.db #0x00	; 0
      00107F 00                    2356 	.db #0x00	; 0
      001080 00                    2357 	.db #0x00	; 0
      001081 00                    2358 	.db #0x00	; 0
      001082 00                    2359 	.db #0x00	; 0
      001083 00                    2360 	.db #0x00	; 0
      001084 00                    2361 	.db #0x00	; 0
      001085 00                    2362 	.db #0x00	; 0
      001086 00                    2363 	.db #0x00	; 0
      001087 00                    2364 	.db #0x00	; 0
      001088 00                    2365 	.db #0x00	; 0
      001089 00                    2366 	.db #0x00	; 0
      00108A 00                    2367 	.db #0x00	; 0
      00108B 00                    2368 	.db #0x00	; 0
      00108C 00                    2369 	.db #0x00	; 0
      00108D 00                    2370 	.db #0x00	; 0
      00108E 00                    2371 	.db #0x00	; 0
      00108F 00                    2372 	.db #0x00	; 0
      001090 00                    2373 	.db #0x00	; 0
      001091 00                    2374 	.db #0x00	; 0
      001092 00                    2375 	.db #0x00	; 0
      001093 00                    2376 	.db #0x00	; 0
      001094 00                    2377 	.db #0x00	; 0
      001095 00                    2378 	.db #0x00	; 0
      001096 00                    2379 	.db #0x00	; 0
      001097 00                    2380 	.db #0x00	; 0
      001098 00                    2381 	.db #0x00	; 0
      001099 00                    2382 	.db #0x00	; 0
      00109A 00                    2383 	.db #0x00	; 0
      00109B 00                    2384 	.db #0x00	; 0
      00109C 00                    2385 	.db #0x00	; 0
      00109D 00                    2386 	.db #0x00	; 0
      00109E 00                    2387 	.db #0x00	; 0
      00109F 00                    2388 	.db #0x00	; 0
      0010A0 00                    2389 	.db #0x00	; 0
      0010A1 00                    2390 	.db #0x00	; 0
      0010A2 00                    2391 	.db #0x00	; 0
      0010A3 00                    2392 	.db #0x00	; 0
      0010A4 00                    2393 	.db #0x00	; 0
      0010A5 00                    2394 	.db #0x00	; 0
      0010A6 00                    2395 	.db #0x00	; 0
      0010A7 00                    2396 	.db #0x00	; 0
      0010A8 00                    2397 	.db #0x00	; 0
      0010A9 00                    2398 	.db #0x00	; 0
      0010AA 00                    2399 	.db #0x00	; 0
      0010AB 00                    2400 	.db #0x00	; 0
      0010AC 00                    2401 	.db #0x00	; 0
      0010AD 00                    2402 	.db #0x00	; 0
      0010AE 00                    2403 	.db #0x00	; 0
      0010AF 00                    2404 	.db #0x00	; 0
      0010B0 00                    2405 	.db #0x00	; 0
      0010B1 00                    2406 	.db #0x00	; 0
      0010B2 00                    2407 	.db #0x00	; 0
      0010B3 00                    2408 	.db #0x00	; 0
      0010B4 00                    2409 	.db #0x00	; 0
      0010B5 00                    2410 	.db #0x00	; 0
      0010B6 00                    2411 	.db #0x00	; 0
      0010B7 00                    2412 	.db #0x00	; 0
      0010B8 00                    2413 	.db #0x00	; 0
      0010B9 00                    2414 	.db #0x00	; 0
      0010BA 00                    2415 	.db #0x00	; 0
      0010BB 00                    2416 	.db #0x00	; 0
      0010BC 00                    2417 	.db #0x00	; 0
      0010BD 00                    2418 	.db #0x00	; 0
      0010BE 00                    2419 	.db #0x00	; 0
      0010BF 00                    2420 	.db #0x00	; 0
      0010C0 00                    2421 	.db #0x00	; 0
      0010C1 00                    2422 	.db #0x00	; 0
      0010C2 00                    2423 	.db #0x00	; 0
      0010C3 00                    2424 	.db #0x00	; 0
      0010C4 00                    2425 	.db #0x00	; 0
      0010C5 00                    2426 	.db #0x00	; 0
      0010C6 00                    2427 	.db #0x00	; 0
      0010C7 00                    2428 	.db #0x00	; 0
      0010C8 00                    2429 	.db #0x00	; 0
      0010C9 00                    2430 	.db #0x00	; 0
      0010CA 00                    2431 	.db #0x00	; 0
      0010CB 00                    2432 	.db #0x00	; 0
      0010CC 00                    2433 	.db #0x00	; 0
      0010CD 00                    2434 	.db #0x00	; 0
      0010CE 00                    2435 	.db #0x00	; 0
      0010CF 00                    2436 	.db #0x00	; 0
      0010D0 00                    2437 	.db #0x00	; 0
      0010D1 00                    2438 	.db #0x00	; 0
      0010D2 00                    2439 	.db #0x00	; 0
      0010D3 00                    2440 	.db #0x00	; 0
      0010D4 00                    2441 	.db #0x00	; 0
      0010D5 00                    2442 	.db #0x00	; 0
      0010D6 80                    2443 	.db #0x80	; 128
      0010D7 80                    2444 	.db #0x80	; 128
      0010D8 80                    2445 	.db #0x80	; 128
      0010D9 80                    2446 	.db #0x80	; 128
      0010DA 80                    2447 	.db #0x80	; 128
      0010DB 80                    2448 	.db #0x80	; 128
      0010DC 80                    2449 	.db #0x80	; 128
      0010DD 80                    2450 	.db #0x80	; 128
      0010DE 00                    2451 	.db #0x00	; 0
      0010DF 00                    2452 	.db #0x00	; 0
      0010E0 00                    2453 	.db #0x00	; 0
      0010E1 00                    2454 	.db #0x00	; 0
      0010E2 00                    2455 	.db #0x00	; 0
      0010E3 00                    2456 	.db #0x00	; 0
      0010E4 00                    2457 	.db #0x00	; 0
      0010E5 00                    2458 	.db #0x00	; 0
      0010E6 00                    2459 	.db #0x00	; 0
      0010E7 00                    2460 	.db #0x00	; 0
      0010E8 00                    2461 	.db #0x00	; 0
      0010E9 00                    2462 	.db #0x00	; 0
      0010EA 00                    2463 	.db #0x00	; 0
      0010EB 00                    2464 	.db #0x00	; 0
      0010EC 00                    2465 	.db #0x00	; 0
      0010ED 00                    2466 	.db #0x00	; 0
      0010EE 00                    2467 	.db #0x00	; 0
      0010EF 00                    2468 	.db #0x00	; 0
      0010F0 00                    2469 	.db #0x00	; 0
      0010F1 00                    2470 	.db #0x00	; 0
      0010F2 00                    2471 	.db #0x00	; 0
      0010F3 00                    2472 	.db #0x00	; 0
      0010F4 00                    2473 	.db #0x00	; 0
      0010F5 00                    2474 	.db #0x00	; 0
      0010F6 00                    2475 	.db #0x00	; 0
      0010F7 00                    2476 	.db #0x00	; 0
      0010F8 00                    2477 	.db #0x00	; 0
      0010F9 00                    2478 	.db #0x00	; 0
      0010FA 00                    2479 	.db #0x00	; 0
      0010FB 00                    2480 	.db #0x00	; 0
      0010FC 00                    2481 	.db #0x00	; 0
      0010FD 00                    2482 	.db #0x00	; 0
      0010FE 00                    2483 	.db #0x00	; 0
      0010FF 00                    2484 	.db #0x00	; 0
      001100 00                    2485 	.db #0x00	; 0
      001101 00                    2486 	.db #0x00	; 0
      001102 00                    2487 	.db #0x00	; 0
      001103 00                    2488 	.db #0x00	; 0
      001104 00                    2489 	.db #0x00	; 0
      001105 00                    2490 	.db #0x00	; 0
      001106 00                    2491 	.db #0x00	; 0
      001107 00                    2492 	.db #0x00	; 0
      001108 00                    2493 	.db #0x00	; 0
      001109 00                    2494 	.db #0x00	; 0
      00110A 00                    2495 	.db #0x00	; 0
      00110B 00                    2496 	.db #0x00	; 0
      00110C 00                    2497 	.db #0x00	; 0
      00110D 00                    2498 	.db #0x00	; 0
      00110E 00                    2499 	.db #0x00	; 0
      00110F 00                    2500 	.db #0x00	; 0
      001110 00                    2501 	.db #0x00	; 0
      001111 00                    2502 	.db #0x00	; 0
      001112 00                    2503 	.db #0x00	; 0
      001113 00                    2504 	.db #0x00	; 0
      001114 00                    2505 	.db #0x00	; 0
      001115 00                    2506 	.db #0x00	; 0
      001116 00                    2507 	.db #0x00	; 0
      001117 00                    2508 	.db #0x00	; 0
      001118 00                    2509 	.db #0x00	; 0
      001119 00                    2510 	.db #0x00	; 0
      00111A 00                    2511 	.db #0x00	; 0
      00111B 7F                    2512 	.db #0x7f	; 127
      00111C 03                    2513 	.db #0x03	; 3
      00111D 0C                    2514 	.db #0x0c	; 12
      00111E 30                    2515 	.db #0x30	; 48	'0'
      00111F 0C                    2516 	.db #0x0c	; 12
      001120 03                    2517 	.db #0x03	; 3
      001121 7F                    2518 	.db #0x7f	; 127
      001122 00                    2519 	.db #0x00	; 0
      001123 00                    2520 	.db #0x00	; 0
      001124 38                    2521 	.db #0x38	; 56	'8'
      001125 54                    2522 	.db #0x54	; 84	'T'
      001126 54                    2523 	.db #0x54	; 84	'T'
      001127 58                    2524 	.db #0x58	; 88	'X'
      001128 00                    2525 	.db #0x00	; 0
      001129 00                    2526 	.db #0x00	; 0
      00112A 7C                    2527 	.db #0x7c	; 124
      00112B 04                    2528 	.db #0x04	; 4
      00112C 04                    2529 	.db #0x04	; 4
      00112D 78                    2530 	.db #0x78	; 120	'x'
      00112E 00                    2531 	.db #0x00	; 0
      00112F 00                    2532 	.db #0x00	; 0
      001130 3C                    2533 	.db #0x3c	; 60
      001131 40                    2534 	.db #0x40	; 64
      001132 40                    2535 	.db #0x40	; 64
      001133 7C                    2536 	.db #0x7c	; 124
      001134 00                    2537 	.db #0x00	; 0
      001135 00                    2538 	.db #0x00	; 0
      001136 00                    2539 	.db #0x00	; 0
      001137 00                    2540 	.db #0x00	; 0
      001138 00                    2541 	.db #0x00	; 0
      001139 00                    2542 	.db #0x00	; 0
      00113A 00                    2543 	.db #0x00	; 0
      00113B 00                    2544 	.db #0x00	; 0
      00113C 00                    2545 	.db #0x00	; 0
      00113D 00                    2546 	.db #0x00	; 0
      00113E 00                    2547 	.db #0x00	; 0
      00113F 00                    2548 	.db #0x00	; 0
      001140 00                    2549 	.db #0x00	; 0
      001141 00                    2550 	.db #0x00	; 0
      001142 00                    2551 	.db #0x00	; 0
      001143 00                    2552 	.db #0x00	; 0
      001144 00                    2553 	.db #0x00	; 0
      001145 00                    2554 	.db #0x00	; 0
      001146 00                    2555 	.db #0x00	; 0
      001147 00                    2556 	.db #0x00	; 0
      001148 00                    2557 	.db #0x00	; 0
      001149 00                    2558 	.db #0x00	; 0
      00114A 00                    2559 	.db #0x00	; 0
      00114B 00                    2560 	.db #0x00	; 0
      00114C 00                    2561 	.db #0x00	; 0
      00114D 00                    2562 	.db #0x00	; 0
      00114E 00                    2563 	.db #0x00	; 0
      00114F 00                    2564 	.db #0x00	; 0
      001150 00                    2565 	.db #0x00	; 0
      001151 00                    2566 	.db #0x00	; 0
      001152 00                    2567 	.db #0x00	; 0
      001153 00                    2568 	.db #0x00	; 0
      001154 00                    2569 	.db #0x00	; 0
      001155 00                    2570 	.db #0x00	; 0
      001156 FF                    2571 	.db #0xff	; 255
      001157 AA                    2572 	.db #0xaa	; 170
      001158 AA                    2573 	.db #0xaa	; 170
      001159 AA                    2574 	.db #0xaa	; 170
      00115A 28                    2575 	.db #0x28	; 40
      00115B 08                    2576 	.db #0x08	; 8
      00115C 00                    2577 	.db #0x00	; 0
      00115D FF                    2578 	.db #0xff	; 255
      00115E 00                    2579 	.db #0x00	; 0
      00115F 00                    2580 	.db #0x00	; 0
      001160 00                    2581 	.db #0x00	; 0
      001161 00                    2582 	.db #0x00	; 0
      001162 00                    2583 	.db #0x00	; 0
      001163 00                    2584 	.db #0x00	; 0
      001164 00                    2585 	.db #0x00	; 0
      001165 00                    2586 	.db #0x00	; 0
      001166 00                    2587 	.db #0x00	; 0
      001167 00                    2588 	.db #0x00	; 0
      001168 00                    2589 	.db #0x00	; 0
      001169 00                    2590 	.db #0x00	; 0
      00116A 00                    2591 	.db #0x00	; 0
      00116B 00                    2592 	.db #0x00	; 0
      00116C 00                    2593 	.db #0x00	; 0
      00116D 00                    2594 	.db #0x00	; 0
      00116E 00                    2595 	.db #0x00	; 0
      00116F 00                    2596 	.db #0x00	; 0
      001170 00                    2597 	.db #0x00	; 0
      001171 00                    2598 	.db #0x00	; 0
      001172 00                    2599 	.db #0x00	; 0
      001173 00                    2600 	.db #0x00	; 0
      001174 00                    2601 	.db #0x00	; 0
      001175 00                    2602 	.db #0x00	; 0
      001176 00                    2603 	.db #0x00	; 0
      001177 00                    2604 	.db #0x00	; 0
      001178 00                    2605 	.db #0x00	; 0
      001179 00                    2606 	.db #0x00	; 0
      00117A 00                    2607 	.db #0x00	; 0
      00117B 00                    2608 	.db #0x00	; 0
      00117C 00                    2609 	.db #0x00	; 0
      00117D 00                    2610 	.db #0x00	; 0
      00117E 00                    2611 	.db #0x00	; 0
      00117F 00                    2612 	.db #0x00	; 0
      001180 00                    2613 	.db #0x00	; 0
      001181 00                    2614 	.db #0x00	; 0
      001182 00                    2615 	.db #0x00	; 0
      001183 7F                    2616 	.db #0x7f	; 127
      001184 03                    2617 	.db #0x03	; 3
      001185 0C                    2618 	.db #0x0c	; 12
      001186 30                    2619 	.db #0x30	; 48	'0'
      001187 0C                    2620 	.db #0x0c	; 12
      001188 03                    2621 	.db #0x03	; 3
      001189 7F                    2622 	.db #0x7f	; 127
      00118A 00                    2623 	.db #0x00	; 0
      00118B 00                    2624 	.db #0x00	; 0
      00118C 26                    2625 	.db #0x26	; 38
      00118D 49                    2626 	.db #0x49	; 73	'I'
      00118E 49                    2627 	.db #0x49	; 73	'I'
      00118F 49                    2628 	.db #0x49	; 73	'I'
      001190 32                    2629 	.db #0x32	; 50	'2'
      001191 00                    2630 	.db #0x00	; 0
      001192 00                    2631 	.db #0x00	; 0
      001193 7F                    2632 	.db #0x7f	; 127
      001194 02                    2633 	.db #0x02	; 2
      001195 04                    2634 	.db #0x04	; 4
      001196 08                    2635 	.db #0x08	; 8
      001197 10                    2636 	.db #0x10	; 16
      001198 7F                    2637 	.db #0x7f	; 127
      001199 00                    2638 	.db #0x00	; 0
      00119A                       2639 _BMP2:
      00119A 00                    2640 	.db #0x00	; 0
      00119B 03                    2641 	.db #0x03	; 3
      00119C 05                    2642 	.db #0x05	; 5
      00119D 09                    2643 	.db #0x09	; 9
      00119E 11                    2644 	.db #0x11	; 17
      00119F FF                    2645 	.db #0xff	; 255
      0011A0 11                    2646 	.db #0x11	; 17
      0011A1 89                    2647 	.db #0x89	; 137
      0011A2 05                    2648 	.db #0x05	; 5
      0011A3 C3                    2649 	.db #0xc3	; 195
      0011A4 00                    2650 	.db #0x00	; 0
      0011A5 E0                    2651 	.db #0xe0	; 224
      0011A6 00                    2652 	.db #0x00	; 0
      0011A7 F0                    2653 	.db #0xf0	; 240
      0011A8 00                    2654 	.db #0x00	; 0
      0011A9 F8                    2655 	.db #0xf8	; 248
      0011AA 00                    2656 	.db #0x00	; 0
      0011AB 00                    2657 	.db #0x00	; 0
      0011AC 00                    2658 	.db #0x00	; 0
      0011AD 00                    2659 	.db #0x00	; 0
      0011AE 00                    2660 	.db #0x00	; 0
      0011AF 00                    2661 	.db #0x00	; 0
      0011B0 00                    2662 	.db #0x00	; 0
      0011B1 44                    2663 	.db #0x44	; 68	'D'
      0011B2 28                    2664 	.db #0x28	; 40
      0011B3 FF                    2665 	.db #0xff	; 255
      0011B4 11                    2666 	.db #0x11	; 17
      0011B5 AA                    2667 	.db #0xaa	; 170
      0011B6 44                    2668 	.db #0x44	; 68	'D'
      0011B7 00                    2669 	.db #0x00	; 0
      0011B8 00                    2670 	.db #0x00	; 0
      0011B9 00                    2671 	.db #0x00	; 0
      0011BA 00                    2672 	.db #0x00	; 0
      0011BB 00                    2673 	.db #0x00	; 0
      0011BC 00                    2674 	.db #0x00	; 0
      0011BD 00                    2675 	.db #0x00	; 0
      0011BE 00                    2676 	.db #0x00	; 0
      0011BF 00                    2677 	.db #0x00	; 0
      0011C0 00                    2678 	.db #0x00	; 0
      0011C1 00                    2679 	.db #0x00	; 0
      0011C2 00                    2680 	.db #0x00	; 0
      0011C3 00                    2681 	.db #0x00	; 0
      0011C4 00                    2682 	.db #0x00	; 0
      0011C5 00                    2683 	.db #0x00	; 0
      0011C6 00                    2684 	.db #0x00	; 0
      0011C7 00                    2685 	.db #0x00	; 0
      0011C8 00                    2686 	.db #0x00	; 0
      0011C9 00                    2687 	.db #0x00	; 0
      0011CA 00                    2688 	.db #0x00	; 0
      0011CB 00                    2689 	.db #0x00	; 0
      0011CC 00                    2690 	.db #0x00	; 0
      0011CD 00                    2691 	.db #0x00	; 0
      0011CE 00                    2692 	.db #0x00	; 0
      0011CF 00                    2693 	.db #0x00	; 0
      0011D0 00                    2694 	.db #0x00	; 0
      0011D1 00                    2695 	.db #0x00	; 0
      0011D2 00                    2696 	.db #0x00	; 0
      0011D3 00                    2697 	.db #0x00	; 0
      0011D4 00                    2698 	.db #0x00	; 0
      0011D5 00                    2699 	.db #0x00	; 0
      0011D6 00                    2700 	.db #0x00	; 0
      0011D7 00                    2701 	.db #0x00	; 0
      0011D8 00                    2702 	.db #0x00	; 0
      0011D9 00                    2703 	.db #0x00	; 0
      0011DA 00                    2704 	.db #0x00	; 0
      0011DB 00                    2705 	.db #0x00	; 0
      0011DC 00                    2706 	.db #0x00	; 0
      0011DD 00                    2707 	.db #0x00	; 0
      0011DE 00                    2708 	.db #0x00	; 0
      0011DF 00                    2709 	.db #0x00	; 0
      0011E0 00                    2710 	.db #0x00	; 0
      0011E1 00                    2711 	.db #0x00	; 0
      0011E2 00                    2712 	.db #0x00	; 0
      0011E3 00                    2713 	.db #0x00	; 0
      0011E4 00                    2714 	.db #0x00	; 0
      0011E5 00                    2715 	.db #0x00	; 0
      0011E6 00                    2716 	.db #0x00	; 0
      0011E7 00                    2717 	.db #0x00	; 0
      0011E8 00                    2718 	.db #0x00	; 0
      0011E9 00                    2719 	.db #0x00	; 0
      0011EA 00                    2720 	.db #0x00	; 0
      0011EB 00                    2721 	.db #0x00	; 0
      0011EC 00                    2722 	.db #0x00	; 0
      0011ED 00                    2723 	.db #0x00	; 0
      0011EE 00                    2724 	.db #0x00	; 0
      0011EF 00                    2725 	.db #0x00	; 0
      0011F0 00                    2726 	.db #0x00	; 0
      0011F1 00                    2727 	.db #0x00	; 0
      0011F2 00                    2728 	.db #0x00	; 0
      0011F3 00                    2729 	.db #0x00	; 0
      0011F4 83                    2730 	.db #0x83	; 131
      0011F5 01                    2731 	.db #0x01	; 1
      0011F6 38                    2732 	.db #0x38	; 56	'8'
      0011F7 44                    2733 	.db #0x44	; 68	'D'
      0011F8 82                    2734 	.db #0x82	; 130
      0011F9 92                    2735 	.db #0x92	; 146
      0011FA 92                    2736 	.db #0x92	; 146
      0011FB 74                    2737 	.db #0x74	; 116	't'
      0011FC 01                    2738 	.db #0x01	; 1
      0011FD 83                    2739 	.db #0x83	; 131
      0011FE 00                    2740 	.db #0x00	; 0
      0011FF 00                    2741 	.db #0x00	; 0
      001200 00                    2742 	.db #0x00	; 0
      001201 00                    2743 	.db #0x00	; 0
      001202 00                    2744 	.db #0x00	; 0
      001203 00                    2745 	.db #0x00	; 0
      001204 00                    2746 	.db #0x00	; 0
      001205 7C                    2747 	.db #0x7c	; 124
      001206 44                    2748 	.db #0x44	; 68	'D'
      001207 FF                    2749 	.db #0xff	; 255
      001208 01                    2750 	.db #0x01	; 1
      001209 7D                    2751 	.db #0x7d	; 125
      00120A 7D                    2752 	.db #0x7d	; 125
      00120B 7D                    2753 	.db #0x7d	; 125
      00120C 7D                    2754 	.db #0x7d	; 125
      00120D 01                    2755 	.db #0x01	; 1
      00120E 7D                    2756 	.db #0x7d	; 125
      00120F 7D                    2757 	.db #0x7d	; 125
      001210 7D                    2758 	.db #0x7d	; 125
      001211 7D                    2759 	.db #0x7d	; 125
      001212 01                    2760 	.db #0x01	; 1
      001213 7D                    2761 	.db #0x7d	; 125
      001214 7D                    2762 	.db #0x7d	; 125
      001215 7D                    2763 	.db #0x7d	; 125
      001216 7D                    2764 	.db #0x7d	; 125
      001217 01                    2765 	.db #0x01	; 1
      001218 FF                    2766 	.db #0xff	; 255
      001219 00                    2767 	.db #0x00	; 0
      00121A 00                    2768 	.db #0x00	; 0
      00121B 00                    2769 	.db #0x00	; 0
      00121C 00                    2770 	.db #0x00	; 0
      00121D 00                    2771 	.db #0x00	; 0
      00121E 00                    2772 	.db #0x00	; 0
      00121F 01                    2773 	.db #0x01	; 1
      001220 00                    2774 	.db #0x00	; 0
      001221 01                    2775 	.db #0x01	; 1
      001222 00                    2776 	.db #0x00	; 0
      001223 01                    2777 	.db #0x01	; 1
      001224 00                    2778 	.db #0x00	; 0
      001225 01                    2779 	.db #0x01	; 1
      001226 00                    2780 	.db #0x00	; 0
      001227 01                    2781 	.db #0x01	; 1
      001228 00                    2782 	.db #0x00	; 0
      001229 01                    2783 	.db #0x01	; 1
      00122A 00                    2784 	.db #0x00	; 0
      00122B 00                    2785 	.db #0x00	; 0
      00122C 00                    2786 	.db #0x00	; 0
      00122D 00                    2787 	.db #0x00	; 0
      00122E 00                    2788 	.db #0x00	; 0
      00122F 00                    2789 	.db #0x00	; 0
      001230 00                    2790 	.db #0x00	; 0
      001231 00                    2791 	.db #0x00	; 0
      001232 00                    2792 	.db #0x00	; 0
      001233 01                    2793 	.db #0x01	; 1
      001234 01                    2794 	.db #0x01	; 1
      001235 00                    2795 	.db #0x00	; 0
      001236 00                    2796 	.db #0x00	; 0
      001237 00                    2797 	.db #0x00	; 0
      001238 00                    2798 	.db #0x00	; 0
      001239 00                    2799 	.db #0x00	; 0
      00123A 00                    2800 	.db #0x00	; 0
      00123B 00                    2801 	.db #0x00	; 0
      00123C 00                    2802 	.db #0x00	; 0
      00123D 00                    2803 	.db #0x00	; 0
      00123E 00                    2804 	.db #0x00	; 0
      00123F 00                    2805 	.db #0x00	; 0
      001240 00                    2806 	.db #0x00	; 0
      001241 00                    2807 	.db #0x00	; 0
      001242 00                    2808 	.db #0x00	; 0
      001243 00                    2809 	.db #0x00	; 0
      001244 00                    2810 	.db #0x00	; 0
      001245 00                    2811 	.db #0x00	; 0
      001246 00                    2812 	.db #0x00	; 0
      001247 00                    2813 	.db #0x00	; 0
      001248 00                    2814 	.db #0x00	; 0
      001249 00                    2815 	.db #0x00	; 0
      00124A 00                    2816 	.db #0x00	; 0
      00124B 00                    2817 	.db #0x00	; 0
      00124C 00                    2818 	.db #0x00	; 0
      00124D 00                    2819 	.db #0x00	; 0
      00124E 00                    2820 	.db #0x00	; 0
      00124F 00                    2821 	.db #0x00	; 0
      001250 00                    2822 	.db #0x00	; 0
      001251 00                    2823 	.db #0x00	; 0
      001252 00                    2824 	.db #0x00	; 0
      001253 00                    2825 	.db #0x00	; 0
      001254 00                    2826 	.db #0x00	; 0
      001255 00                    2827 	.db #0x00	; 0
      001256 00                    2828 	.db #0x00	; 0
      001257 00                    2829 	.db #0x00	; 0
      001258 00                    2830 	.db #0x00	; 0
      001259 00                    2831 	.db #0x00	; 0
      00125A 00                    2832 	.db #0x00	; 0
      00125B 00                    2833 	.db #0x00	; 0
      00125C 00                    2834 	.db #0x00	; 0
      00125D 00                    2835 	.db #0x00	; 0
      00125E 00                    2836 	.db #0x00	; 0
      00125F 00                    2837 	.db #0x00	; 0
      001260 00                    2838 	.db #0x00	; 0
      001261 00                    2839 	.db #0x00	; 0
      001262 00                    2840 	.db #0x00	; 0
      001263 00                    2841 	.db #0x00	; 0
      001264 00                    2842 	.db #0x00	; 0
      001265 00                    2843 	.db #0x00	; 0
      001266 00                    2844 	.db #0x00	; 0
      001267 00                    2845 	.db #0x00	; 0
      001268 00                    2846 	.db #0x00	; 0
      001269 00                    2847 	.db #0x00	; 0
      00126A 00                    2848 	.db #0x00	; 0
      00126B 00                    2849 	.db #0x00	; 0
      00126C 00                    2850 	.db #0x00	; 0
      00126D 00                    2851 	.db #0x00	; 0
      00126E 00                    2852 	.db #0x00	; 0
      00126F 00                    2853 	.db #0x00	; 0
      001270 00                    2854 	.db #0x00	; 0
      001271 00                    2855 	.db #0x00	; 0
      001272 00                    2856 	.db #0x00	; 0
      001273 00                    2857 	.db #0x00	; 0
      001274 01                    2858 	.db #0x01	; 1
      001275 01                    2859 	.db #0x01	; 1
      001276 00                    2860 	.db #0x00	; 0
      001277 00                    2861 	.db #0x00	; 0
      001278 00                    2862 	.db #0x00	; 0
      001279 00                    2863 	.db #0x00	; 0
      00127A 00                    2864 	.db #0x00	; 0
      00127B 00                    2865 	.db #0x00	; 0
      00127C 01                    2866 	.db #0x01	; 1
      00127D 01                    2867 	.db #0x01	; 1
      00127E 00                    2868 	.db #0x00	; 0
      00127F 00                    2869 	.db #0x00	; 0
      001280 00                    2870 	.db #0x00	; 0
      001281 00                    2871 	.db #0x00	; 0
      001282 00                    2872 	.db #0x00	; 0
      001283 00                    2873 	.db #0x00	; 0
      001284 00                    2874 	.db #0x00	; 0
      001285 00                    2875 	.db #0x00	; 0
      001286 00                    2876 	.db #0x00	; 0
      001287 01                    2877 	.db #0x01	; 1
      001288 01                    2878 	.db #0x01	; 1
      001289 01                    2879 	.db #0x01	; 1
      00128A 01                    2880 	.db #0x01	; 1
      00128B 01                    2881 	.db #0x01	; 1
      00128C 01                    2882 	.db #0x01	; 1
      00128D 01                    2883 	.db #0x01	; 1
      00128E 01                    2884 	.db #0x01	; 1
      00128F 01                    2885 	.db #0x01	; 1
      001290 01                    2886 	.db #0x01	; 1
      001291 01                    2887 	.db #0x01	; 1
      001292 01                    2888 	.db #0x01	; 1
      001293 01                    2889 	.db #0x01	; 1
      001294 01                    2890 	.db #0x01	; 1
      001295 01                    2891 	.db #0x01	; 1
      001296 01                    2892 	.db #0x01	; 1
      001297 01                    2893 	.db #0x01	; 1
      001298 01                    2894 	.db #0x01	; 1
      001299 00                    2895 	.db #0x00	; 0
      00129A 00                    2896 	.db #0x00	; 0
      00129B 00                    2897 	.db #0x00	; 0
      00129C 00                    2898 	.db #0x00	; 0
      00129D 00                    2899 	.db #0x00	; 0
      00129E 00                    2900 	.db #0x00	; 0
      00129F 00                    2901 	.db #0x00	; 0
      0012A0 00                    2902 	.db #0x00	; 0
      0012A1 00                    2903 	.db #0x00	; 0
      0012A2 00                    2904 	.db #0x00	; 0
      0012A3 00                    2905 	.db #0x00	; 0
      0012A4 00                    2906 	.db #0x00	; 0
      0012A5 00                    2907 	.db #0x00	; 0
      0012A6 00                    2908 	.db #0x00	; 0
      0012A7 00                    2909 	.db #0x00	; 0
      0012A8 00                    2910 	.db #0x00	; 0
      0012A9 00                    2911 	.db #0x00	; 0
      0012AA 00                    2912 	.db #0x00	; 0
      0012AB 00                    2913 	.db #0x00	; 0
      0012AC 00                    2914 	.db #0x00	; 0
      0012AD 00                    2915 	.db #0x00	; 0
      0012AE 00                    2916 	.db #0x00	; 0
      0012AF 00                    2917 	.db #0x00	; 0
      0012B0 00                    2918 	.db #0x00	; 0
      0012B1 00                    2919 	.db #0x00	; 0
      0012B2 00                    2920 	.db #0x00	; 0
      0012B3 00                    2921 	.db #0x00	; 0
      0012B4 00                    2922 	.db #0x00	; 0
      0012B5 00                    2923 	.db #0x00	; 0
      0012B6 00                    2924 	.db #0x00	; 0
      0012B7 00                    2925 	.db #0x00	; 0
      0012B8 00                    2926 	.db #0x00	; 0
      0012B9 F8                    2927 	.db #0xf8	; 248
      0012BA 08                    2928 	.db #0x08	; 8
      0012BB 08                    2929 	.db #0x08	; 8
      0012BC 08                    2930 	.db #0x08	; 8
      0012BD 08                    2931 	.db #0x08	; 8
      0012BE 08                    2932 	.db #0x08	; 8
      0012BF 08                    2933 	.db #0x08	; 8
      0012C0 08                    2934 	.db #0x08	; 8
      0012C1 00                    2935 	.db #0x00	; 0
      0012C2 F8                    2936 	.db #0xf8	; 248
      0012C3 18                    2937 	.db #0x18	; 24
      0012C4 60                    2938 	.db #0x60	; 96
      0012C5 80                    2939 	.db #0x80	; 128
      0012C6 00                    2940 	.db #0x00	; 0
      0012C7 00                    2941 	.db #0x00	; 0
      0012C8 00                    2942 	.db #0x00	; 0
      0012C9 80                    2943 	.db #0x80	; 128
      0012CA 60                    2944 	.db #0x60	; 96
      0012CB 18                    2945 	.db #0x18	; 24
      0012CC F8                    2946 	.db #0xf8	; 248
      0012CD 00                    2947 	.db #0x00	; 0
      0012CE 00                    2948 	.db #0x00	; 0
      0012CF 00                    2949 	.db #0x00	; 0
      0012D0 20                    2950 	.db #0x20	; 32
      0012D1 20                    2951 	.db #0x20	; 32
      0012D2 F8                    2952 	.db #0xf8	; 248
      0012D3 00                    2953 	.db #0x00	; 0
      0012D4 00                    2954 	.db #0x00	; 0
      0012D5 00                    2955 	.db #0x00	; 0
      0012D6 00                    2956 	.db #0x00	; 0
      0012D7 00                    2957 	.db #0x00	; 0
      0012D8 00                    2958 	.db #0x00	; 0
      0012D9 E0                    2959 	.db #0xe0	; 224
      0012DA 10                    2960 	.db #0x10	; 16
      0012DB 08                    2961 	.db #0x08	; 8
      0012DC 08                    2962 	.db #0x08	; 8
      0012DD 08                    2963 	.db #0x08	; 8
      0012DE 08                    2964 	.db #0x08	; 8
      0012DF 10                    2965 	.db #0x10	; 16
      0012E0 E0                    2966 	.db #0xe0	; 224
      0012E1 00                    2967 	.db #0x00	; 0
      0012E2 00                    2968 	.db #0x00	; 0
      0012E3 00                    2969 	.db #0x00	; 0
      0012E4 20                    2970 	.db #0x20	; 32
      0012E5 20                    2971 	.db #0x20	; 32
      0012E6 F8                    2972 	.db #0xf8	; 248
      0012E7 00                    2973 	.db #0x00	; 0
      0012E8 00                    2974 	.db #0x00	; 0
      0012E9 00                    2975 	.db #0x00	; 0
      0012EA 00                    2976 	.db #0x00	; 0
      0012EB 00                    2977 	.db #0x00	; 0
      0012EC 00                    2978 	.db #0x00	; 0
      0012ED 00                    2979 	.db #0x00	; 0
      0012EE 00                    2980 	.db #0x00	; 0
      0012EF 00                    2981 	.db #0x00	; 0
      0012F0 00                    2982 	.db #0x00	; 0
      0012F1 00                    2983 	.db #0x00	; 0
      0012F2 00                    2984 	.db #0x00	; 0
      0012F3 08                    2985 	.db #0x08	; 8
      0012F4 08                    2986 	.db #0x08	; 8
      0012F5 08                    2987 	.db #0x08	; 8
      0012F6 08                    2988 	.db #0x08	; 8
      0012F7 08                    2989 	.db #0x08	; 8
      0012F8 88                    2990 	.db #0x88	; 136
      0012F9 68                    2991 	.db #0x68	; 104	'h'
      0012FA 18                    2992 	.db #0x18	; 24
      0012FB 00                    2993 	.db #0x00	; 0
      0012FC 00                    2994 	.db #0x00	; 0
      0012FD 00                    2995 	.db #0x00	; 0
      0012FE 00                    2996 	.db #0x00	; 0
      0012FF 00                    2997 	.db #0x00	; 0
      001300 00                    2998 	.db #0x00	; 0
      001301 00                    2999 	.db #0x00	; 0
      001302 00                    3000 	.db #0x00	; 0
      001303 00                    3001 	.db #0x00	; 0
      001304 00                    3002 	.db #0x00	; 0
      001305 00                    3003 	.db #0x00	; 0
      001306 00                    3004 	.db #0x00	; 0
      001307 00                    3005 	.db #0x00	; 0
      001308 00                    3006 	.db #0x00	; 0
      001309 00                    3007 	.db #0x00	; 0
      00130A 00                    3008 	.db #0x00	; 0
      00130B 00                    3009 	.db #0x00	; 0
      00130C 00                    3010 	.db #0x00	; 0
      00130D 00                    3011 	.db #0x00	; 0
      00130E 00                    3012 	.db #0x00	; 0
      00130F 00                    3013 	.db #0x00	; 0
      001310 00                    3014 	.db #0x00	; 0
      001311 00                    3015 	.db #0x00	; 0
      001312 00                    3016 	.db #0x00	; 0
      001313 00                    3017 	.db #0x00	; 0
      001314 00                    3018 	.db #0x00	; 0
      001315 00                    3019 	.db #0x00	; 0
      001316 00                    3020 	.db #0x00	; 0
      001317 00                    3021 	.db #0x00	; 0
      001318 00                    3022 	.db #0x00	; 0
      001319 00                    3023 	.db #0x00	; 0
      00131A 00                    3024 	.db #0x00	; 0
      00131B 00                    3025 	.db #0x00	; 0
      00131C 00                    3026 	.db #0x00	; 0
      00131D 00                    3027 	.db #0x00	; 0
      00131E 00                    3028 	.db #0x00	; 0
      00131F 00                    3029 	.db #0x00	; 0
      001320 00                    3030 	.db #0x00	; 0
      001321 00                    3031 	.db #0x00	; 0
      001322 00                    3032 	.db #0x00	; 0
      001323 00                    3033 	.db #0x00	; 0
      001324 00                    3034 	.db #0x00	; 0
      001325 00                    3035 	.db #0x00	; 0
      001326 00                    3036 	.db #0x00	; 0
      001327 00                    3037 	.db #0x00	; 0
      001328 00                    3038 	.db #0x00	; 0
      001329 00                    3039 	.db #0x00	; 0
      00132A 00                    3040 	.db #0x00	; 0
      00132B 00                    3041 	.db #0x00	; 0
      00132C 00                    3042 	.db #0x00	; 0
      00132D 00                    3043 	.db #0x00	; 0
      00132E 00                    3044 	.db #0x00	; 0
      00132F 00                    3045 	.db #0x00	; 0
      001330 00                    3046 	.db #0x00	; 0
      001331 00                    3047 	.db #0x00	; 0
      001332 00                    3048 	.db #0x00	; 0
      001333 00                    3049 	.db #0x00	; 0
      001334 00                    3050 	.db #0x00	; 0
      001335 00                    3051 	.db #0x00	; 0
      001336 00                    3052 	.db #0x00	; 0
      001337 00                    3053 	.db #0x00	; 0
      001338 00                    3054 	.db #0x00	; 0
      001339 7F                    3055 	.db #0x7f	; 127
      00133A 01                    3056 	.db #0x01	; 1
      00133B 01                    3057 	.db #0x01	; 1
      00133C 01                    3058 	.db #0x01	; 1
      00133D 01                    3059 	.db #0x01	; 1
      00133E 01                    3060 	.db #0x01	; 1
      00133F 01                    3061 	.db #0x01	; 1
      001340 00                    3062 	.db #0x00	; 0
      001341 00                    3063 	.db #0x00	; 0
      001342 7F                    3064 	.db #0x7f	; 127
      001343 00                    3065 	.db #0x00	; 0
      001344 00                    3066 	.db #0x00	; 0
      001345 01                    3067 	.db #0x01	; 1
      001346 06                    3068 	.db #0x06	; 6
      001347 18                    3069 	.db #0x18	; 24
      001348 06                    3070 	.db #0x06	; 6
      001349 01                    3071 	.db #0x01	; 1
      00134A 00                    3072 	.db #0x00	; 0
      00134B 00                    3073 	.db #0x00	; 0
      00134C 7F                    3074 	.db #0x7f	; 127
      00134D 00                    3075 	.db #0x00	; 0
      00134E 00                    3076 	.db #0x00	; 0
      00134F 00                    3077 	.db #0x00	; 0
      001350 40                    3078 	.db #0x40	; 64
      001351 40                    3079 	.db #0x40	; 64
      001352 7F                    3080 	.db #0x7f	; 127
      001353 40                    3081 	.db #0x40	; 64
      001354 40                    3082 	.db #0x40	; 64
      001355 00                    3083 	.db #0x00	; 0
      001356 00                    3084 	.db #0x00	; 0
      001357 00                    3085 	.db #0x00	; 0
      001358 00                    3086 	.db #0x00	; 0
      001359 1F                    3087 	.db #0x1f	; 31
      00135A 20                    3088 	.db #0x20	; 32
      00135B 40                    3089 	.db #0x40	; 64
      00135C 40                    3090 	.db #0x40	; 64
      00135D 40                    3091 	.db #0x40	; 64
      00135E 40                    3092 	.db #0x40	; 64
      00135F 20                    3093 	.db #0x20	; 32
      001360 1F                    3094 	.db #0x1f	; 31
      001361 00                    3095 	.db #0x00	; 0
      001362 00                    3096 	.db #0x00	; 0
      001363 00                    3097 	.db #0x00	; 0
      001364 40                    3098 	.db #0x40	; 64
      001365 40                    3099 	.db #0x40	; 64
      001366 7F                    3100 	.db #0x7f	; 127
      001367 40                    3101 	.db #0x40	; 64
      001368 40                    3102 	.db #0x40	; 64
      001369 00                    3103 	.db #0x00	; 0
      00136A 00                    3104 	.db #0x00	; 0
      00136B 00                    3105 	.db #0x00	; 0
      00136C 00                    3106 	.db #0x00	; 0
      00136D 00                    3107 	.db #0x00	; 0
      00136E 60                    3108 	.db #0x60	; 96
      00136F 00                    3109 	.db #0x00	; 0
      001370 00                    3110 	.db #0x00	; 0
      001371 00                    3111 	.db #0x00	; 0
      001372 00                    3112 	.db #0x00	; 0
      001373 00                    3113 	.db #0x00	; 0
      001374 00                    3114 	.db #0x00	; 0
      001375 60                    3115 	.db #0x60	; 96
      001376 18                    3116 	.db #0x18	; 24
      001377 06                    3117 	.db #0x06	; 6
      001378 01                    3118 	.db #0x01	; 1
      001379 00                    3119 	.db #0x00	; 0
      00137A 00                    3120 	.db #0x00	; 0
      00137B 00                    3121 	.db #0x00	; 0
      00137C 00                    3122 	.db #0x00	; 0
      00137D 00                    3123 	.db #0x00	; 0
      00137E 00                    3124 	.db #0x00	; 0
      00137F 00                    3125 	.db #0x00	; 0
      001380 00                    3126 	.db #0x00	; 0
      001381 00                    3127 	.db #0x00	; 0
      001382 00                    3128 	.db #0x00	; 0
      001383 00                    3129 	.db #0x00	; 0
      001384 00                    3130 	.db #0x00	; 0
      001385 00                    3131 	.db #0x00	; 0
      001386 00                    3132 	.db #0x00	; 0
      001387 00                    3133 	.db #0x00	; 0
      001388 00                    3134 	.db #0x00	; 0
      001389 00                    3135 	.db #0x00	; 0
      00138A 00                    3136 	.db #0x00	; 0
      00138B 00                    3137 	.db #0x00	; 0
      00138C 00                    3138 	.db #0x00	; 0
      00138D 00                    3139 	.db #0x00	; 0
      00138E 00                    3140 	.db #0x00	; 0
      00138F 00                    3141 	.db #0x00	; 0
      001390 00                    3142 	.db #0x00	; 0
      001391 00                    3143 	.db #0x00	; 0
      001392 00                    3144 	.db #0x00	; 0
      001393 00                    3145 	.db #0x00	; 0
      001394 00                    3146 	.db #0x00	; 0
      001395 00                    3147 	.db #0x00	; 0
      001396 00                    3148 	.db #0x00	; 0
      001397 00                    3149 	.db #0x00	; 0
      001398 00                    3150 	.db #0x00	; 0
      001399 00                    3151 	.db #0x00	; 0
      00139A 00                    3152 	.db #0x00	; 0
      00139B 00                    3153 	.db #0x00	; 0
      00139C 00                    3154 	.db #0x00	; 0
      00139D 00                    3155 	.db #0x00	; 0
      00139E 00                    3156 	.db #0x00	; 0
      00139F 00                    3157 	.db #0x00	; 0
      0013A0 00                    3158 	.db #0x00	; 0
      0013A1 00                    3159 	.db #0x00	; 0
      0013A2 00                    3160 	.db #0x00	; 0
      0013A3 00                    3161 	.db #0x00	; 0
      0013A4 00                    3162 	.db #0x00	; 0
      0013A5 00                    3163 	.db #0x00	; 0
      0013A6 00                    3164 	.db #0x00	; 0
      0013A7 00                    3165 	.db #0x00	; 0
      0013A8 00                    3166 	.db #0x00	; 0
      0013A9 00                    3167 	.db #0x00	; 0
      0013AA 00                    3168 	.db #0x00	; 0
      0013AB 00                    3169 	.db #0x00	; 0
      0013AC 00                    3170 	.db #0x00	; 0
      0013AD 00                    3171 	.db #0x00	; 0
      0013AE 00                    3172 	.db #0x00	; 0
      0013AF 00                    3173 	.db #0x00	; 0
      0013B0 00                    3174 	.db #0x00	; 0
      0013B1 00                    3175 	.db #0x00	; 0
      0013B2 00                    3176 	.db #0x00	; 0
      0013B3 00                    3177 	.db #0x00	; 0
      0013B4 00                    3178 	.db #0x00	; 0
      0013B5 00                    3179 	.db #0x00	; 0
      0013B6 00                    3180 	.db #0x00	; 0
      0013B7 00                    3181 	.db #0x00	; 0
      0013B8 00                    3182 	.db #0x00	; 0
      0013B9 00                    3183 	.db #0x00	; 0
      0013BA 00                    3184 	.db #0x00	; 0
      0013BB 00                    3185 	.db #0x00	; 0
      0013BC 00                    3186 	.db #0x00	; 0
      0013BD 00                    3187 	.db #0x00	; 0
      0013BE 00                    3188 	.db #0x00	; 0
      0013BF 40                    3189 	.db #0x40	; 64
      0013C0 20                    3190 	.db #0x20	; 32
      0013C1 20                    3191 	.db #0x20	; 32
      0013C2 20                    3192 	.db #0x20	; 32
      0013C3 C0                    3193 	.db #0xc0	; 192
      0013C4 00                    3194 	.db #0x00	; 0
      0013C5 00                    3195 	.db #0x00	; 0
      0013C6 E0                    3196 	.db #0xe0	; 224
      0013C7 20                    3197 	.db #0x20	; 32
      0013C8 20                    3198 	.db #0x20	; 32
      0013C9 20                    3199 	.db #0x20	; 32
      0013CA E0                    3200 	.db #0xe0	; 224
      0013CB 00                    3201 	.db #0x00	; 0
      0013CC 00                    3202 	.db #0x00	; 0
      0013CD 00                    3203 	.db #0x00	; 0
      0013CE 40                    3204 	.db #0x40	; 64
      0013CF E0                    3205 	.db #0xe0	; 224
      0013D0 00                    3206 	.db #0x00	; 0
      0013D1 00                    3207 	.db #0x00	; 0
      0013D2 00                    3208 	.db #0x00	; 0
      0013D3 00                    3209 	.db #0x00	; 0
      0013D4 60                    3210 	.db #0x60	; 96
      0013D5 20                    3211 	.db #0x20	; 32
      0013D6 20                    3212 	.db #0x20	; 32
      0013D7 20                    3213 	.db #0x20	; 32
      0013D8 E0                    3214 	.db #0xe0	; 224
      0013D9 00                    3215 	.db #0x00	; 0
      0013DA 00                    3216 	.db #0x00	; 0
      0013DB 00                    3217 	.db #0x00	; 0
      0013DC 00                    3218 	.db #0x00	; 0
      0013DD 00                    3219 	.db #0x00	; 0
      0013DE E0                    3220 	.db #0xe0	; 224
      0013DF 20                    3221 	.db #0x20	; 32
      0013E0 20                    3222 	.db #0x20	; 32
      0013E1 20                    3223 	.db #0x20	; 32
      0013E2 E0                    3224 	.db #0xe0	; 224
      0013E3 00                    3225 	.db #0x00	; 0
      0013E4 00                    3226 	.db #0x00	; 0
      0013E5 00                    3227 	.db #0x00	; 0
      0013E6 00                    3228 	.db #0x00	; 0
      0013E7 00                    3229 	.db #0x00	; 0
      0013E8 40                    3230 	.db #0x40	; 64
      0013E9 20                    3231 	.db #0x20	; 32
      0013EA 20                    3232 	.db #0x20	; 32
      0013EB 20                    3233 	.db #0x20	; 32
      0013EC C0                    3234 	.db #0xc0	; 192
      0013ED 00                    3235 	.db #0x00	; 0
      0013EE 00                    3236 	.db #0x00	; 0
      0013EF 40                    3237 	.db #0x40	; 64
      0013F0 20                    3238 	.db #0x20	; 32
      0013F1 20                    3239 	.db #0x20	; 32
      0013F2 20                    3240 	.db #0x20	; 32
      0013F3 C0                    3241 	.db #0xc0	; 192
      0013F4 00                    3242 	.db #0x00	; 0
      0013F5 00                    3243 	.db #0x00	; 0
      0013F6 00                    3244 	.db #0x00	; 0
      0013F7 00                    3245 	.db #0x00	; 0
      0013F8 00                    3246 	.db #0x00	; 0
      0013F9 00                    3247 	.db #0x00	; 0
      0013FA 00                    3248 	.db #0x00	; 0
      0013FB 00                    3249 	.db #0x00	; 0
      0013FC 00                    3250 	.db #0x00	; 0
      0013FD 00                    3251 	.db #0x00	; 0
      0013FE 00                    3252 	.db #0x00	; 0
      0013FF 00                    3253 	.db #0x00	; 0
      001400 00                    3254 	.db #0x00	; 0
      001401 00                    3255 	.db #0x00	; 0
      001402 00                    3256 	.db #0x00	; 0
      001403 00                    3257 	.db #0x00	; 0
      001404 00                    3258 	.db #0x00	; 0
      001405 00                    3259 	.db #0x00	; 0
      001406 00                    3260 	.db #0x00	; 0
      001407 00                    3261 	.db #0x00	; 0
      001408 00                    3262 	.db #0x00	; 0
      001409 00                    3263 	.db #0x00	; 0
      00140A 00                    3264 	.db #0x00	; 0
      00140B 00                    3265 	.db #0x00	; 0
      00140C 00                    3266 	.db #0x00	; 0
      00140D 00                    3267 	.db #0x00	; 0
      00140E 00                    3268 	.db #0x00	; 0
      00140F 00                    3269 	.db #0x00	; 0
      001410 00                    3270 	.db #0x00	; 0
      001411 00                    3271 	.db #0x00	; 0
      001412 00                    3272 	.db #0x00	; 0
      001413 00                    3273 	.db #0x00	; 0
      001414 00                    3274 	.db #0x00	; 0
      001415 00                    3275 	.db #0x00	; 0
      001416 00                    3276 	.db #0x00	; 0
      001417 00                    3277 	.db #0x00	; 0
      001418 00                    3278 	.db #0x00	; 0
      001419 00                    3279 	.db #0x00	; 0
      00141A 00                    3280 	.db #0x00	; 0
      00141B 00                    3281 	.db #0x00	; 0
      00141C 00                    3282 	.db #0x00	; 0
      00141D 00                    3283 	.db #0x00	; 0
      00141E 00                    3284 	.db #0x00	; 0
      00141F 00                    3285 	.db #0x00	; 0
      001420 00                    3286 	.db #0x00	; 0
      001421 00                    3287 	.db #0x00	; 0
      001422 00                    3288 	.db #0x00	; 0
      001423 00                    3289 	.db #0x00	; 0
      001424 00                    3290 	.db #0x00	; 0
      001425 00                    3291 	.db #0x00	; 0
      001426 00                    3292 	.db #0x00	; 0
      001427 00                    3293 	.db #0x00	; 0
      001428 00                    3294 	.db #0x00	; 0
      001429 00                    3295 	.db #0x00	; 0
      00142A 00                    3296 	.db #0x00	; 0
      00142B 00                    3297 	.db #0x00	; 0
      00142C 00                    3298 	.db #0x00	; 0
      00142D 00                    3299 	.db #0x00	; 0
      00142E 00                    3300 	.db #0x00	; 0
      00142F 00                    3301 	.db #0x00	; 0
      001430 00                    3302 	.db #0x00	; 0
      001431 00                    3303 	.db #0x00	; 0
      001432 00                    3304 	.db #0x00	; 0
      001433 00                    3305 	.db #0x00	; 0
      001434 00                    3306 	.db #0x00	; 0
      001435 00                    3307 	.db #0x00	; 0
      001436 00                    3308 	.db #0x00	; 0
      001437 00                    3309 	.db #0x00	; 0
      001438 00                    3310 	.db #0x00	; 0
      001439 00                    3311 	.db #0x00	; 0
      00143A 00                    3312 	.db #0x00	; 0
      00143B 00                    3313 	.db #0x00	; 0
      00143C 00                    3314 	.db #0x00	; 0
      00143D 00                    3315 	.db #0x00	; 0
      00143E 00                    3316 	.db #0x00	; 0
      00143F 0C                    3317 	.db #0x0c	; 12
      001440 0A                    3318 	.db #0x0a	; 10
      001441 0A                    3319 	.db #0x0a	; 10
      001442 09                    3320 	.db #0x09	; 9
      001443 0C                    3321 	.db #0x0c	; 12
      001444 00                    3322 	.db #0x00	; 0
      001445 00                    3323 	.db #0x00	; 0
      001446 0F                    3324 	.db #0x0f	; 15
      001447 08                    3325 	.db #0x08	; 8
      001448 08                    3326 	.db #0x08	; 8
      001449 08                    3327 	.db #0x08	; 8
      00144A 0F                    3328 	.db #0x0f	; 15
      00144B 00                    3329 	.db #0x00	; 0
      00144C 00                    3330 	.db #0x00	; 0
      00144D 00                    3331 	.db #0x00	; 0
      00144E 08                    3332 	.db #0x08	; 8
      00144F 0F                    3333 	.db #0x0f	; 15
      001450 08                    3334 	.db #0x08	; 8
      001451 00                    3335 	.db #0x00	; 0
      001452 00                    3336 	.db #0x00	; 0
      001453 00                    3337 	.db #0x00	; 0
      001454 0C                    3338 	.db #0x0c	; 12
      001455 08                    3339 	.db #0x08	; 8
      001456 09                    3340 	.db #0x09	; 9
      001457 09                    3341 	.db #0x09	; 9
      001458 0E                    3342 	.db #0x0e	; 14
      001459 00                    3343 	.db #0x00	; 0
      00145A 00                    3344 	.db #0x00	; 0
      00145B 0C                    3345 	.db #0x0c	; 12
      00145C 00                    3346 	.db #0x00	; 0
      00145D 00                    3347 	.db #0x00	; 0
      00145E 0F                    3348 	.db #0x0f	; 15
      00145F 09                    3349 	.db #0x09	; 9
      001460 09                    3350 	.db #0x09	; 9
      001461 09                    3351 	.db #0x09	; 9
      001462 0F                    3352 	.db #0x0f	; 15
      001463 00                    3353 	.db #0x00	; 0
      001464 00                    3354 	.db #0x00	; 0
      001465 0C                    3355 	.db #0x0c	; 12
      001466 00                    3356 	.db #0x00	; 0
      001467 00                    3357 	.db #0x00	; 0
      001468 0C                    3358 	.db #0x0c	; 12
      001469 0A                    3359 	.db #0x0a	; 10
      00146A 0A                    3360 	.db #0x0a	; 10
      00146B 09                    3361 	.db #0x09	; 9
      00146C 0C                    3362 	.db #0x0c	; 12
      00146D 00                    3363 	.db #0x00	; 0
      00146E 00                    3364 	.db #0x00	; 0
      00146F 0C                    3365 	.db #0x0c	; 12
      001470 0A                    3366 	.db #0x0a	; 10
      001471 0A                    3367 	.db #0x0a	; 10
      001472 09                    3368 	.db #0x09	; 9
      001473 0C                    3369 	.db #0x0c	; 12
      001474 00                    3370 	.db #0x00	; 0
      001475 00                    3371 	.db #0x00	; 0
      001476 00                    3372 	.db #0x00	; 0
      001477 00                    3373 	.db #0x00	; 0
      001478 00                    3374 	.db #0x00	; 0
      001479 00                    3375 	.db #0x00	; 0
      00147A 00                    3376 	.db #0x00	; 0
      00147B 00                    3377 	.db #0x00	; 0
      00147C 00                    3378 	.db #0x00	; 0
      00147D 00                    3379 	.db #0x00	; 0
      00147E 00                    3380 	.db #0x00	; 0
      00147F 00                    3381 	.db #0x00	; 0
      001480 00                    3382 	.db #0x00	; 0
      001481 00                    3383 	.db #0x00	; 0
      001482 00                    3384 	.db #0x00	; 0
      001483 00                    3385 	.db #0x00	; 0
      001484 00                    3386 	.db #0x00	; 0
      001485 00                    3387 	.db #0x00	; 0
      001486 00                    3388 	.db #0x00	; 0
      001487 00                    3389 	.db #0x00	; 0
      001488 00                    3390 	.db #0x00	; 0
      001489 00                    3391 	.db #0x00	; 0
      00148A 00                    3392 	.db #0x00	; 0
      00148B 00                    3393 	.db #0x00	; 0
      00148C 00                    3394 	.db #0x00	; 0
      00148D 00                    3395 	.db #0x00	; 0
      00148E 00                    3396 	.db #0x00	; 0
      00148F 00                    3397 	.db #0x00	; 0
      001490 00                    3398 	.db #0x00	; 0
      001491 00                    3399 	.db #0x00	; 0
      001492 00                    3400 	.db #0x00	; 0
      001493 00                    3401 	.db #0x00	; 0
      001494 00                    3402 	.db #0x00	; 0
      001495 00                    3403 	.db #0x00	; 0
      001496 00                    3404 	.db #0x00	; 0
      001497 00                    3405 	.db #0x00	; 0
      001498 00                    3406 	.db #0x00	; 0
      001499 00                    3407 	.db #0x00	; 0
      00149A 00                    3408 	.db #0x00	; 0
      00149B 00                    3409 	.db #0x00	; 0
      00149C 00                    3410 	.db #0x00	; 0
      00149D 00                    3411 	.db #0x00	; 0
